:020000040800F2
:10000000900500209D010008A31300086911000855
:10001000A113000895040008511500080000000015
:10002000000000000000000000000000A71300080E
:100030009704000800000000A5130008A913000899
:10004000B7010008B7010008B7010008B7010008B0
:10005000B7010008B7010008B7010008B7010008A0
:10006000990400089F040008A5040008B7010008CF
:10007000B7010008B7010008B7010008B701000880
:10008000B7010008B7010008B7010008B701000870
:10009000B7010008B7010008B7010008B701000860
:1000A000B7010008B7010008B7010008B701000850
:1000B000B7010008B7010008B7010008B701000840
:1000C000B7010008B7010008B7010008B701000830
:1000D000B7010008B7010008B7010008B701000820
:1000E000B7010008B7010008B7010008B701000810
:1000F000B7010008B7010008B7010008B701000800
:10010000B7010008B7010008B7010008B7010008EF
:10011000B7010008B7010008B7010008B7010008DF
:10012000B7010008B7010008B7010008B7010008CF
:10013000B7010008B7010008B7010008B7010008BF
:10014000B7010008B7010008B7010008B7010008AF
:10015000B7010008B7010008B7010008B70100089F
:10016000B7010008B7010008B7010008B70100088F
:10017000B7010008B7010008B7010008000000003F
:10018000B7010008B7010008DFF80CD000F070F9E3
:1001900000480047054D00089005002006488047AC
:1001A00006480047FEE7FEE7FEE7FEE7FEE7FEE75C
:1001B000FEE7FEE7FEE7FEE73514000889010008C8
:1001C0002DE9F05F0546002092469B46884606468C
:1001D000814640241BE0284641464746224600F01F
:1001E000D9F853465A46C01A914110D311461846C1
:1001F000224600F0C0F82D1A67EB01084F46224650
:100200000120002100F0B7F817EB00094E41201E35
:10021000A4F10104DFDC484631462A464346BDE8E6
:10022000F09FD2B201E000F8012B491EFBD27047CB
:100230000022F6E710B513460A4604461946FFF7B2
:10024000F0FF204610BD2DE9FE4F81EA030404F0C3
:10025000004421F0004100944FF0000B23F00043D4
:1002600050EA01045ED052EA03045BD0C3F30A549F
:10027000C1F30A552C44A4F2F3340194A0FB0254B8
:10028000C1F3130141F48011C3F3130343F480134A
:1002900001FB024400FB034E840A970A44EA81549E
:1002A00047EA8357A4FB076802958D0A05FB07857B
:1002B0004FEA932C04FB0C542705029D4FEA065885
:1002C00047EA1637B5EB08056EEB070C870E920E62
:1002D00047EA811742EA8312A7FB0201B6EB0B0142
:1002E00064EB00042B0D43EA0C335E1844EB1C5006
:1002F000DA465146E7FB0201C5F313044FEA0B331C
:1003000043EA14534FEA0432019C43EA0603A4F182
:100310000C040294009CCDE900B400F05AF803B03C
:10032000BDE8F08F00200146F9E70EB540F23341F9
:1003300002910021CDE900110A460B4600F049F870
:1003400003B000BDC1F30A5210B5C1F3130140F26E
:10035000FF3341F480119A4201DA002010BD40F2CF
:1003600033439A42A2F2334203DC524200F012F8C5
:1003700010BD904010BD202A04DB203A00FA02F1A3
:10038000002070479140C2F1200320FA03F3194383
:1003900090407047202A04DB203A21FA02F0002125
:1003A000704721FA02F3D040C2F120029140084385
:1003B0001946704710B5141E73F1000408DA401C8A
:1003C00041F1000192185B411A4301D120F0010074
:1003D00010BD2DE9F04D92469B4611B1B1FA81F264
:1003E00002E0B0FA80F220329046FFF7C4FF0446E4
:1003F0000F4640EA0A0041EA0B0153465A460843B9
:1004000013D0114653EA010019D0C8F140025046FA
:10041000FFF7C0FF05460E46504659464246FFF7D5
:10042000AAFF084305D0012004E020463946BDE874
:10043000F08D0020054346EAE0762C4337430A98C6
:100440006305E40AA0EB08000022FD0A44EA4754D1
:100450000A3002D500200146E9E70105101969417B
:10046000DDE9084500196941BDE8F04DA2E700004B
:10047000064C074D06E0E06840F0010394E80700F1
:1004800098471034AC42F6D3FFF782FE687E00082E
:10049000887E0008FEE77047042000F06BB9082052
:1004A00000F068B9102000F065B9704770B5B3F579
:1004B000804F05D06FF0704140F82210002070BDD1
:1004C00050F82240084B8E891C40D1E9003543EAA0
:1004D00005138D6889692D0245EA06452B430B43B8
:1004E000234340F82230E9E70000F0CFF0B50C6874
:1004F00050F82430114A1340D1E90125D1E90367AE
:100500002A433E4332434E6932438E693243CE69B9
:1005100032430E6A32434E6A32438E6A3243CE6AA7
:100520003243CE6B096B32430A431A43082D01D183
:1005300042F0400240F824200020F0BD8000F0FF8F
:1005400030B500EB820250688D8900F04043D1E95C
:10055000000440EA04108C68240244EA0544204365
:100560000C8A074D05EB045420430C7D6D0105EB0F
:10057000046489692043084318435060002030BD5B
:100580000000F0FF80B201F065BA00002DE9F041F3
:1005900086B014216846FFF74BFE26480168002903
:1005A00045D10124046024488846016841F00101D6
:1005B00001600068022500F0010005904FF23F0045
:1005C000CDE9000502AA03260C2782E8D00069467F
:1005D0001A4800F0DBF841F23F40CDE9000502AADD
:1005E000694682E8D000164800F0D0F84FF68370D4
:1005F000CDE9000502AA694682E8D000114800F062
:10060000C5F802AA40F6317082E8D000CDE90005B5
:100610000D4C6946204600F0B9F84FF202008DE813
:10062000210169462046CDE9036700F0AFF806B026
:10063000BDE8F0811000002038380240001402406C
:100640000018024000100240000C02402DE9FE4359
:1006500006460A20FFF796FF042E55D02B4D4FF487
:100660000074082E15D0102E4ED129A000F072FF74
:1006700000222146284600F087F93220FFF782FF4A
:1006800001222146284600F07FF9BDE8FE4301F033
:100690000BBA23A000F05EFF00222146284600F09E
:1006A00073F93220FFF76EFF01222146284600F041
:1006B0006BF91FA01026CDE900601F27E223EF226F
:1006C000E62102971E2004F05DFA1F4C0025DFF89A
:1006D0007C804FF480296560CDE9006502976168F0
:1006E0000623B42058F82120E62104F076FA606849
:1006F000401C60604845EFD32078002804D1BDE855
:10070000FE4313A000F026BFBDE8FE8300140240A4
:100710004B4559302070726573736564210A00007F
:100720004B4559312070726573736564210A00006E
:10073000675F746573745F6275666665722073685F
:100740006F773A2020200000080000200000006899
:100750004E6F7468696E67206368616E67652074A8
:100760006F20675F746573745F6275666665725B40
:100770005D210A00044910B50A68024202D00860EF
:10078000FFF764FF10BD0000143C01402DE9F84F55
:10079000DFF8B8A1002201250AF1040B03264FF06F
:1007A0000F090BF1040E00BF0B6805FA02F4234099
:1007B000A3426FD10F7907F00307012F01D0022F59
:1007C00016D187684FEA420806FA08FC27EA0C07A8
:1007D000D1F80CC00CFA08FC4CEA070CC0F808C0B1
:1007E0004768A7430C79C4F3001494403C43446029
:1007F0000C79E443A4070AD0C4684FEA420C06FA15
:100800000CF7BC438F6807FA0CF72743C7600C79D5
:1008100004F00304022C12D1D40800EB840CDCF8A1
:1008200020405707FF0E09FA07F824EA0804D1F818
:10083000108008FA07F848EA0408CCF82080046819
:100840004FEA420C06FA0CF7BC430F7907F0030796
:1008500007FA0CF7274307604C68E40070D53C4C5E
:10086000276847F480472760246822F0030704F4D0
:1008700080440094374C07EB040CDCF808489707D9
:100880004FEA177809FA08F7BC43334FB84202D150
:10089000002724E054E0314FB84201D101271EE087
:1008A0002F4FB84201D1022719E02E4FB84201D193
:1008B000032714E02C4FB84201D104270FE02B4F3F
:1008C000B84201D105270AE0294FB84201D10627D5
:1008D00005E0284FB84201D1072700E0082707FAB2
:1008E00008F72743CCF80878DAF800405746D1F8E3
:1008F00004C09C435FEACC3C00D51C433C60DBF861
:1009000000405F46D1F804C09C435FEA8C3C00D5B0
:100910001C433C60DEF800407746D1F804C09C439D
:100920005FEACC2C00D51C433C60084F0C373C6878
:10093000D1F804C09C435FEA8C2C00D51C433C607A
:10094000521C102AFFF430AFBDE8F88F003C014084
:1009500044380240003001400000024000040240E0
:1009600000080240000C0240001002400014024047
:1009700000180240001C0240426921EA02030A40BA
:1009800043EA0241816170470AB1816170470904FD
:10099000FBE7000001488068704700001C00002051
:1009A0000248816802781144816070471C00002071
:1009B0000B4810B5016841F400710160016841F411
:1009C00080610160016841F480710160032000F0E2
:1009D00071F8002000F006F800F024F8002010BDA7
:1009E000003C024070B50D4D04464FF47A712878F2
:1009F000B1FBF0F00A490968B1FBF0F000F039FBF7
:100A000048B9102C07D200222146501E00F032F8BF
:100A100000206C6070BD012070BD00001C00002033
:100A2000280000200B4882B0016841F48041016039
:100A3000006800F4804000900648001F016841F003
:100A400080510160006800F080500090052002B0E5
:100A500000F030B844380240002809DB00F01F02E3
:100A6000012191404009800000F1E020C0F8001110
:100A700070470000F0B40E4B1B680C46C3F3022312
:100A8000C3F10705042D00D90425191D072901D23A
:100A9000002300E0DB1E012606FA05F1491E214075
:100AA00099409E40761E16403143F0BC00F076BD62
:100AB0000CED00E0064900F0070208684FF6FF035E
:100AC000184040EA0220034A1043086070470000C3
:100AD0000CED00E00000FA052DE9F0470E46050098
:100AE00065D0DFF81481D8F80000F7B200F00700F5
:100AF000B04207D288F80070D8F8000000F0070074
:100B0000B04254D128683D4C810712D5400703D527
:100B1000206840F4E05020602878000703D5206862
:100B200040F4604020602068A96820F0F00008438D
:100B300020602878C0072DD030496868083901281E
:100B400012D0022813D0032811D009688907002980
:100B50002DDA216821F0030101432160FFF71AFF1C
:100B6000814641F2883A0EE009688903EFE7096897
:100B70008901ECE7FFF70EFFA0EB0901514502D90F
:100B80000320BDE8F0872068696800F00C00B0EB36
:100B9000810FEFD1D8F80010404601F00701B142B3
:100BA00007D90770006800F00700B04201D00120AB
:100BB000E7E72878400705D52068E96820F4E05089
:100BC000084320602878000706D52068296920F4AA
:100BD000604040EAC100206000F038F82168084A0F
:100BE000C1F30311515CC84006490860064800681B
:100BF000FFF7F8FE0020C4E7003C0240083802403E
:100C00004E7E0008280000202000002004480549EE
:100C100000680968044AC1F38221515CC8407047EA
:100C200028000020083802405E7E0008044805497C
:100C300000680968044AC1F34231515CC8407047FA
:100C400028000020083802405E7E0008154810B5D4
:100C5000006810F00C02144813D04110042A0FD081
:100C6000082A0ED10F4C241F2268236802F03F028D
:100C70005B0207D52068C0F38810A0FB010106E0E5
:100C8000084610BD2168C1F38811A1FB00010023B3
:100C9000FFF796FA2168C1F30141491C4900B0FBF6
:100CA000F1F010BD083802400024F4002DE9F84F9F
:100CB00004006ED02078DFF84C93C007A9F104053A
:100CC0004AD009F104000168C1F38101012908D06B
:100CD0000068C0F3810002280AD1D9F80000400260
:100CE00006D52868800337D560680028E1D033E056
:100CF0006068B0F5803F10D0B0F5A02F286810D004
:100D000020F480302860286820F480202860606803
:100D1000A8B1FFF73FFE06460DE0286840F480309A
:100D2000F4E740F480202860F7E700BFFFF732FEC9
:100D3000801B642873D828688003F7D50CE0FFF780
:100D400029FE064605E000BFFFF724FE801B64284D
:100D5000F0D828688003F7D42078DFF8AC828007C9
:100D60004FF0000A3ED5A748001D016811F00C0F96
:100D700008D00068C0F3810002280BD1D9F8000028
:100D8000400207D42868800716D5E068012800D102
:100D900012E033E1E068B8B10120C8F80000FFF7C5
:100DA000F9FD064605E000BFFFF7F4FD801B0228B1
:100DB000C0D828688007F7D52868216920F0F80096
:100DC00040EAC10028600DE0C8F800A0FFF7E2FD8E
:100DD000064604E0FFF7DEFD801B02281FD82868C6
:100DE0008007F7D42078000722D5864F87486169AD
:100DF000703771B101210160FFF7CCFD064604E0B8
:100E0000FFF7C8FD801B022809D838688007F7D58E
:100E10000EE0C0F800A0FFF7BDFD064605E082E049
:100E2000FFF7B8FD801B02287DD838688007F7D40B
:100E30002078400768D5DFF8CCB100270BF13C0BD8
:100E4000DBF80000C0000BD4DBF8001041F080514B
:100E5000CBF80010DBF80000012700F08050009074
:100E60006B4E3068C00510D4306840F4807030603C
:100E7000FFF790FD009005E0FFF78CFD0099401A08
:100E8000022850D83068C005F6D55E4EA0686C3692
:100E900001280FD00528306810D020F00100306004
:100EA000306820F004003060A068B8B1FFF772FD30
:100EB00000900FE0306840F00100F4E740F00400DB
:100EC0003060F7E7FFF766FD0099411A41F288307C
:100ED000814266D830688007F4D50EE0FFF75AFDEE
:100EE000009007E0FFF756FD0099411A41F2883063
:100EF000814256D830688007F4D42FB1DBF8001057
:100F000021F08051CBF80010A069C8B33D49091DFC
:100F10000968C1F3810102294AD00228504607D04E
:100F2000C8F8600000E03CE0FFF734FD04463BE019
:100F30004746C8F86000FFF72DFD064605E000BFF4
:100F4000FFF728FD801B02282BD828688001F7D4E2
:100F5000D4E907010843A16A2E4A490802EB01417E
:100F6000626A41EA8211084394F82C1040EA016158
:100F7000C9F8001001203866FFF70CFD044606E0B2
:100F80003EE000BFFFF706FD001B022809D82868D5
:100F90008001F7D534E000BFFFF7FCFC001B0228FE
:100FA00002D90320BDE8F88F28688001F4D427E037
:100FB0000128F7D0D9F80000E26900F480019142DD
:100FC0001CD1226A00F03F01914217D147F6C0714F
:100FD000626A0140B1EB821F10D1A26A4FF0FF3369
:100FE00000F4403103EB5202B1EB024F06D194F80A
:100FF0002C1000F07060B0EB016F01D00120D1E740
:101000000020CFE70438024000004742800E4742EC
:10101000007000400000FFFF70B515460E4604004A
:1010200003D094F8490010B107E0012070BD002002
:1010300084F84800204600F01AF804F108012068FE
:10104000FFF754FA3146A2682068FFF779FAD4E92D
:1010500001022946236BFFF729FAA168206850F89E
:10106000212042F0010240F82120002070BDFFF74E
:101070008DBA10B5401EB0F1807F01D3012010BDA4
:101080004FF0E02460610F21601700F087FA002024
:10109000A06107202061002010BD70B5040004D0BD
:1010A00094F83D00002510B106E0012070BD84F8E1
:1010B0003C50204600F022F8242084F83D002068AF
:1010C000C16821F40051C160204600F0BBF92068DE
:1010D000016921F4904101612068416921F02A01F0
:1010E00041612068C16841F40051C160256420203D
:1010F00084F83D0084F83E00002070BD10B586B035
:10110000044614216846FFF793F814492068884282
:1011100021D11348016841F010010160006800F01E
:10112000100005900E481438016841F0010101607B
:101130000068694600F0010005904FF4C06000901F
:1011400002200190012002900320039007200490C8
:101150000448FFF71BFB06B010BD00000010014063
:101160004438024000000240FEE700002DE9F04351
:101170008FB01C216846FFF75BF81C2107A8FFF71A
:1011800057F82F4804210024C0E902141025C0E9B3
:1011900004458461C461046244628462C46204637D
:1011A0004463284E84634FF020484464C0E90086BD
:1011B00002200F27CDE9000702A908204FF01109EE
:1011C00081E83102002269461D480694FFF724FF9A
:1011D00008B1FFF76AF91A480621503007AAC0E99A
:1011E0000214C0E904458461C4614FF48051046273
:1011F000C0E909418900C0E90B4144638463446448
:10120000C0E900863C200097CDE90170CDF814902C
:10121000CDE903750921CDE90641CDE90871CDE994
:101220000C940748CDE90A7569465030FFF7F4FE83
:10123000002801D0FFF739F90FB0BDE8F0830000B6
:10124000A8000020040100A02DE9F04186B014217F
:101250006846FEF7EDFF3F48016841F0100101606C
:10126000016801F010010591016841F02001016061
:10127000016801F020010591016841F080010160E1
:10128000016801F080010591016841F040010160B1
:10129000016801F040010591016841F0020101601F
:1012A000016801F002010591016841F00801016047
:1012B000016801F008010591016841F00101016038
:1012C0000068254F00F001004FF4C0650590012231
:1012D00029463846FFF758FB0122DFF88080D60305
:1012E00031464046FFF750FB1C2000901C4801246B
:1012F000CDE9010469461B48FFF748FACDE90054DF
:10130000022569463846CDE90245FFF73FFA0096C7
:10131000CDE90145694640460395FFF737FA0122BA
:1013200011460820FFF7A6FB0820FFF795FB0122D6
:1013300011460920FFF79EFB0920FFF78DFB0122D4
:1013400011460A20FFF796FB0A20FFF785FB06B03F
:10135000BDE8F08130380240001402400004024031
:1013600000002110001002400C4810B50A4901602D
:101370004FF4E1314160002181600C22C160C0E97D
:1013800004128161C161FFF788FE002803D0BDE827
:101390001040FFF78AB810BD00100140480100203E
:1013A000FEE7704770477047FFF7FABA30B593B061
:1013B00030216846FEF73CFF14210CA8FEF738FFE9
:1013C0001A480025016841F080510160006800F072
:1013D000805011901648016841F480410160006816
:1013E000022400F48040119001200090000401903C
:1013F0008001CDE90640082008904FF4A870CDE99F
:10140000090404200B906846FFF750FC0CA90F203C
:1014100081E831004FF4A0500F90E00210900521B8
:101420000CA8FFF759FB13B030BD00004038024054
:10143000007000400248016841F47001016070478B
:1014400088ED00E070B5044600680169E26821F4A7
:101450004051114301612169A068E2690843616953
:10146000114308432168CA6849F20C639A43024356
:10147000CA6020684169A26921F440711143416149
:1014800031492068884202D03049884202D1FFF7B2
:10149000CDFB01E0FFF7BAFBE269002319216425C7
:1014A0003226B2F5004F626828D0A0FB0101930FED
:1014B0009200FEF785FE0146B0FBF5F06FF01802D2
:1014C000504301EB800006EB0010B0FBF5F000F09C
:1014D000F002B1FBF5F002EB0012B1FBF5F06FF09A
:1014E0001803584301EB800006EB0010B0FBF5F049
:1014F00000F00F0021681044886070BDA0FB01015E
:1015000092185B41FEF75CFE0146B0FBF5F002016C
:10151000B1FBF5F06FF01803584301EB800006EBC8
:10152000C000B0FBF5F000F0F80002EB4002B1FBA8
:10153000F5F0584301EB800006EBC000B0FBF5F07E
:1015400000F00700D6E70000001001400014014041
:10155000FEE700000FB4054B10B503A9044A02983A
:1015600000F03CF810BC5DF814FB0000951A000870
:101570002C0000200FB4084B10B504A902AA039850
:1015800000F02CF8044602A9002000F058FA20468A
:1015900010BC5DF814FB00003F1A00080907090E93
:1015A000002804DB00F1E02080F80014704700F010
:1015B0000F0000F1E02080F8141D704702E008C819
:1015C000121F08C1002AFAD170477047002001E0BD
:1015D00001C1121F002AFBD1704700002DE9FF4F07
:1015E0008DB00F460546002606E025280BD0DDE924
:1015F0000F1290476D1C761C28780028F5D111B089
:101600003046BDE8F08F0024A246A1460122EC49F5
:1016100000E0044315F8013F203B02FA03F00842C2
:10162000F7D128782A2810D06FF02F022878A0F15F
:101630003001092914D80AEB8A0102EB410144F078
:10164000020400EB010A6D1CF0E701CF5FEA000A1B
:1016500003D544F40054CAF1000A44F002046D1C9E
:1016600028782E2817D115F8010F44F004042A28F1
:101670000ED06FF02F022878A0F1300109290AD886
:1016800009EB890102EB410100EB01096D1CF2E756
:1016900057F8049B6D1C28786C280FD006DC4C286A
:1016A00017D068280DD06A2814D104E0742810D00F
:1016B0007A280FD10DE044F400140AE044F48014B9
:1016C00001E044F440146978814202D104F58014A9
:1016D0006D1C6D1C2A786E2A1FD00CDC632A31D059
:1016E00004DC002A8BD0582A11D1A3E0642A68D0E8
:1016F000692A0CD165E0732A2ED004DC6F2A73D0DE
:10170000702A04D19BE0752A6FD0782A6ED01046DB
:10171000DDE90F129047761C50E1C4F30250022815
:1017200006D0032809D0042801CF09D0066045E17E
:1017300001CFF117C0E9006140E101CF06803DE132
:1017400006703BE117F8040B8DF8000000208DF8BF
:101750000100EB46012003E057F804BB4FF0FF30D7
:1017600061074FF0000102D40DE008F10101884645
:1017700049450FDA8045F8DB1BF808100029F4D141
:1017800008E008F1010188468142FADB1BF80810E5
:101790000029F6D1DDE90F23AAEB08008146214696
:1017A00000F036F9304400EB080604E0DDE90F12E2
:1017B0001BF8010B9047B8F10108F7D221464846C3
:1017C000F7E00A21C4F302534FF0000B0891022BFB
:1017D00004D001CFC117032B09D00AE0FF1D27F069
:1017E0000707F7E8020108E032E01FE020E000B25E
:1017F000C117042B01D140B2C117031E71F10003C0
:1018000007DA4FF0000CD0EB0C006CEB01012D233C
:1018100002E0230504D52B238DF82430012303E0B7
:10182000E30701D02023F7E7984658E00A2110E0AB
:1018300010210EE010204FF0000B08900CE010215A
:101840004FF0000B44F004044FF00809089103E046
:1018500008214FF0000B0891C4F30253022B04D06F
:1018600001CF0021032B06D006E0FF1D27F007075C
:10187000F7E8020103E080B2042B00D1C0B24FF0C0
:10188000000823072BD5702A07D0DDF820C08CF084
:10189000100C5CEA0B0C05D00EE040238DF82430D0
:1018A000012308E050EA010306D030238DF82430EC
:1018B0008DF8252002239846DDF820C08CF0080C16
:1018C0005CEA0B0C0BD150EA010301D1630706D58A
:1018D00030238DF824304FF00108A9F10109582A6E
:1018E00004D038A20B9208AA0A920BE03AA2F9E7B8
:1018F0005B46089AFEF764FC0B9B9B5C0A9A521E9F
:101900000A92137050EA0102F2D10A98ADEB00007E
:1019100000F1200B600702D524F4803401E04FF081
:101920000109D94502DDA9EB0B0000E0002000EB26
:101930000B0141440890AAEB010AE00306D4DDE95B
:101940000F232146504600F063F806444FF000098B
:1019500008E009A911F80900DDE90F12904709F123
:101960000109761CC145F4DBE0030CD5DDE90F234A
:101970002146504600F04CF8064404E0DDE90F1221
:1019800030209047761C0899481E08900029F5DC05
:1019900008E00A980A990078491C0A91DDE90F12BB
:1019A0009047761CBBF10001ABF1010BF1DC214645
:1019B0005046DDE90F2300F019F806446D1C1BE6C4
:1019C0000928010030313233343536373839616215
:1019D00063646566000000003031323334353637D9
:1019E0003839414243444546000000002DE9F041AA
:1019F000044600251E461746880404D405E03946EF
:101A00002020B0476D1C641EF9D52846BDE8F08142
:101A10002DE9F041044600251E469046C80301D535
:101A2000302700E02027880404D505E041463846E9
:101A3000B0476D1C641EF9D52846BDE8F0810A68E0
:101A4000531C0B601070704701490860704700001C
:101A5000180000204FF47A71484300F001B80000EC
:101A600070B54FF0E024002265690949A36909684F
:101A70004843A1699942FCD002D2A3EB010302E0E2
:101A8000A5EB010633441A440B468242F1D370BDE4
:101A90001800002003490A685206FCD5C2B24A6009
:101AA00070470000001001402DE9FF4700254FF06E
:101AB00010088DF80C501F2623A1CDF80080CDE929
:101AC00001162F462C46E223EF22D2211E2003F0DE
:101AD00059F84FF480190122294603A803F0EAF9C6
:101AE0009DF80C0005F58055401C8DF80C0048460B
:101AF0008542F0D3B9464746002580460122294653
:101B000003A803F0CBF99DF80C0028B1A04203D83C
:101B100013A0FFF71FFD0EE000978200CDE90196AC
:101B200004460623D2219620121D03F056F805F52F
:101B300080554545E2D39DF80C0081000FA0091D9A
:101B4000FFF708FDBDE8FF874578204D656D6F7292
:101B50007920546573743A202020304B42000000F5
:101B6000536F6D65206572726F72206F636365726B
:101B700020746F205352414D0A0000004578204DDB
:101B8000656D6F727920546573743A202020256446
:101B90004B420A0070B50A490646002408884D8861
:101BA00021464543204602F005FF03F09BF84FF025
:101BB000D84002E0A0F88060641CAC42FAD370BD4B
:101BC000300000202DE9F04F38492C260A46887154
:101BD00092884FF4305A4FF4285B41F6631E2B274E
:101BE0004FF02A0C4FF0F00845F210594FF44875A9
:101BF0004FF4A0744FF4F07358B10C80A1F8028038
:101C00004A4530D1A1F808A0A1F80AB0380288816D
:101C100041E0A1F800804C804A4507D1A1F808A016
:101C2000A1F80AB04FF42C50888105E072450E816E
:101C300005D14F81A1F80CC00B804D8002E0A1F8C6
:101C40000AC08F81A2F5A640103803D0A2F5EE405D
:101C5000963801D10C804B80A2F5184006381FD170
:101C60000B804D801CE0724511D0A2F5184006385B
:101C70000DD00E81A1F80AC0A1F80C70A2F5A64003
:101C800010380BD0A2F5EE40963807D008E00E8150
:101C9000A1F80AC08F810D804B80EFE70B804C804C
:101CA000BDE8F04F002002F0A5BD0000300000208C
:101CB00010B5144602F07EFE03F014F84FF0D84041
:101CC000A0F8804010BD10B5CF2002F0FFFF00202B
:101CD00002F0F0FFC12002F0EDFF302002F0EAFF39
:101CE000ED2002F0F3FF642002F0E4FF032002F095
:101CF000E1FF122002F0DEFF812002F0DBFFE8208E
:101D000002F0E4FF852002F0D5FF102002F0D2FFA0
:101D10007A2002F0CFFFCB2002F0D8FF392002F06A
:101D2000C9FF2C2002F0C6FF002002F0C3FF3420C0
:101D300002F0C0FF022002F0BDFFF72002F0C6FF54
:101D4000202002F0B7FFEA2002F0C0FF002002F0DE
:101D5000B1FF002002F0AEFFC02002F0B7FF1B2051
:101D600002F0A8FFC12002F0B1FF012002F0A2FFA3
:101D7000C52002F0ABFF302002F09CFF302002F0C3
:101D800099FFC72002F0A2FFB72002F093FF362090
:101D900002F09CFF482002F08DFF3A2002F096FFEF
:101DA000552002F087FFB12002F090FF002002F0E2
:101DB00081FF1A2002F07EFFB62002F087FF0A2082
:101DC00002F078FFA22002F075FFF22002F07EFF01
:101DD000002002F06FFF262002F078FF012002F0C1
:101DE00069FFE02002F072FF0F2002F063FF2A205B
:101DF00002F060FF282002F05DFF082002F05AFF89
:101E00000E2002F057FF082002F054FF542002F089
:101E100051FFA92002F04EFF432002F04BFF0A20A1
:101E200002F048FF0F2002F045FF002002F042FFC1
:101E3000002002F03FFF002002F03CFF002002F0F3
:101E400039FFE12002F042FF002002F033FF1520AD
:101E500002F030FF172002F02DFF072002F02AFFCA
:101E6000112002F027FF062002F024FF2B2002F0B1
:101E700021FF562002F01EFF3C2002F01BFF052030
:101E800002F018FF102002F015FF0F2002F012FFE1
:101E90003F2002F00FFF3F2002F00CFF0F2002F066
:101EA00009FF2B2002F012FF002002F003FF0020A8
:101EB00002F000FF012002F0FDFE3F2002F0FAFEDA
:101EC0002A2002F003FF002002F0F4FE002002F0BE
:101ED000F1FE002002F0EEFEEF2002F0EBFE1120FA
:101EE00002F0F4FE7820FEF74DFBBDE810402920FB
:101EF00002F0ECBE10B5FF2002F0E8FEFF2002F079
:101F0000D9FE982002F0D6FE062002F0D3FEBC20B7
:101F100002F0DCFE012002F0CDFE0F2002F0CAFE2E
:101F2000612002F0C7FEFF2002F0C4FE012002F093
:101F3000C1FE012002F0BEFE0B2002F0BBFE10200D
:101F400002F0B8FE372002F0B5FE632002F0B2FEC8
:101F5000FF2002F0AFFEFF2002F0ACFE012002F0F5
:101F6000A9FE012002F0A6FE002002F0A3FE002040
:101F700002F0A0FEFF2002F09DFE522002F09AFE29
:101F8000012002F097FE002002F094FE402002F0B3
:101F900091FEBD2002F09AFE012002F08BFE23206C
:101FA00002F088FE452002F085FE672002F082FEE6
:101FB000012002F07FFE232002F07CFE452002F08B
:101FC00079FE672002F076FEBE2002F07FFE002040
:101FD00002F070FE012002F06DFEAB2002F06AFEFE
:101FE000602002F067FE222002F064FE222002F050
:101FF00061FE222002F05EFE222002F05BFE222023
:1020000002F058FEC72002F061FE362002F052FEB8
:10201000ED2002F05BFE7F2002F04CFE0F2002F06C
:1020200049FEC02002F052FE0F2002F043FE0B20BA
:1020300002F040FE0A2002F03DFEFC2002F046FEC7
:10204000082002F037FEDF2002F040FE002002F000
:1020500031FE002002F02EFE002002F02BFE0020B8
:1020600002F028FE002002F025FE202002F022FED1
:10207000F32002F02BFE742002F01CFEB42002F0CC
:1020800025FE002002F016FE002002F013FE0020C4
:1020900002F010FEF72002F019FE822002F00AFE84
:1020A000B12002F013FE002002F004FE132002F023
:1020B00001FE132002F0FEFDF22002F007FE802058
:1020C00002F0F8FD042002F0F5FD402002F0F2FDE0
:1020D000282002F0EFFDC12002F0F8FD172002F0E9
:1020E000E9FD882002F0E6FD882002F0E3FD2020D3
:1020F00002F0E0FDE02002F0E9FD002002F0DAFD50
:102100000A2002F0D7FD122002F0D4FD102002F0C8
:10211000D1FD0E2002F0CEFD202002F0CBFDCC2020
:1021200002F0C8FD072002F0C5FD062002F0C2FD46
:102130000B2002F0BFFD0E2002F0BCFD0F2002F0CC
:10214000B9FD0D2002F0B6FD152002F0B3FD102000
:1021500002F0B0FD002002F0ADFDE12002F0B6FD7E
:10216000002002F0A7FD0B2002F0A4FD132002F0D6
:10217000A1FD0D2002F09EFD0E2002F09BFD1B2014
:1021800002F098FD712002F095FD062002F092FD0C
:10219000062002F08FFD0A2002F08CFD0F2002F0D5
:1021A00089FD0E2002F086FD0F2002F083FD152030
:1021B00002F080FD0C2002F07DFD002002F07AFD8F
:1021C0002A2002F083FD002002F074FD002002F0BE
:1021D00071FD012002F06EFDDF2002F06BFD2B206F
:1021E00002F074FD002002F065FD002002F062FDA7
:1021F000032002F05FFD1F2002F05CFD3A2002F098
:1022000065FD552002F056FD362002F05FFD0020EE
:1022100002F050FD112002F059FD7820FEF7B2F9CE
:10222000292002F053FD1420FEF7ACF9BDE8104060
:102230002C2002F04BBD10B5ED2002F047FD01202F
:1022400002F038FDFE2002F035FDEE2002F03EFDEA
:10225000DE2002F02FFD212002F02CFDF12002F003
:1022600035FD012002F026FDDF2002F02FFD1020B9
:1022700002F020FDC42002F029FD8F2002F01AFD9B
:10228000C62002F023FD002002F014FDE22002F03F
:1022900011FDE22002F00EFDE22002F00BFDBF2056
:1022A00002F014FDAA2002F005FDB02002F00EFDA0
:1022B0000D2002F0FFFC002002F0FCFC0D2002F0DB
:1022C000F9FC002002F0F6FC112002F0F3FC0020E3
:1022D00002F0F0FC192002F0EDFC002002F0EAFC14
:1022E000212002F0E7FC002002F0E4FC2D2002F0A7
:1022F000E1FC002002F0DEFC3D2002F0DBFC0020CF
:1023000002F0D8FC5D2002F0D5FC002002F0D2FCE7
:102310005D2002F0CFFC002002F0CCFCB12002F0E6
:10232000D5FC802002F0C6FC002002F0C3FC8B200C
:1023300002F0C0FC002002F0BDFC962002F0BAFCC6
:10234000002002F0B7FCB22002F0C0FC002002F036
:10235000B1FC002002F0AEFC022002F0ABFC002039
:1023600002F0A8FC032002F0A5FC002002F0A2FC71
:10237000B32002F0ABFC002002F09CFC002002F035
:1023800099FC002002F096FC002002F093FC002053
:1023900002F090FC002002F08DFC002002F08AFC8C
:1023A000002002F087FC002002F084FC002002F0F4
:1023B00081FC002002F07EFC002002F07BFC00206B
:1023C00002F078FC002002F075FC002002F072FCA4
:1023D000002002F06FFC002002F06CFC002002F0F4
:1023E00069FC002002F066FC002002F063FC002083
:1023F00002F060FC002002F05DFC002002F05AFCBC
:10240000002002F057FCB42002F060FC8B2002F0A8
:1024100051FC002002F04EFC962002F04BFC002004
:1024200002F048FCA12002F045FC002002F042FC32
:10243000B52002F04BFC022002F03CFC002002F030
:1024400039FC032002F036FC002002F033FC0420AB
:1024500002F030FC002002F02DFCB62002F036FC29
:10246000002002F027FC002002F024FCB72002F03C
:102470002DFC002002F01EFC002002F01BFC3F207F
:1024800002F018FC002002F015FC5E2002F012FCA5
:10249000002002F00FFC642002F00CFC002002F08F
:1024A00009FC8C2002F006FC002002F003FCAC20AA
:1024B00002F000FC002002F0FDFBDC2002F0FAFB41
:1024C000002002F0F7FB702002F0F4FB002002F085
:1024D000F1FB902002F0EEFB002002F0EBFBEB2082
:1024E00002F0E8FB002002F0E5FBDC2002F0E2FB5A
:1024F000002002F0DFFBB82002F0E8FB002002F031
:10250000D9FB002002F0D6FB002002F0D3FB002014
:1025100002F0D0FB002002F0CDFB002002F0CAFB4D
:10252000002002F0C7FB002002F0C4FBBA2002F03A
:10253000CDFB242002F0BEFB002002F0BBFB0020FC
:1025400002F0B8FB002002F0B5FBC12002F0BEFB98
:10255000202002F0AFFB002002F0ACFB542002F080
:10256000A9FB002002F0A6FBFF2002F0A3FB002045
:1025700002F0A0FBC22002F0A9FB0A2002F09AFBA5
:10258000002002F097FB042002F094FB002002F0F0
:1025900091FBC32002F09AFB3C2002F08BFB002051
:1025A00002F088FB3A2002F085FB002002F082FB5B
:1025B000392002F07FFB002002F07CFB372002F084
:1025C00079FB002002F076FB3C2002F073FB002038
:1025D00002F070FB362002F06DFB002002F06AFB77
:1025E000322002F067FB002002F064FB2F2002F093
:1025F00061FB002002F05EFB2C2002F05BFB002060
:1026000002F058FB292002F055FB002002F052FB9B
:10261000262002F04FFB002002F04CFB242002F0A9
:1026200049FB002002F046FB242002F043FB00207F
:1026300002F040FB232002F03DFB002002F03AFBB9
:102640003C2002F037FB002002F034FB362002F081
:1026500031FB002002F02EFB322002F02BFB002089
:1026600002F028FB2F2002F025FB002002F022FBC5
:102670002C2002F01FFB002002F01CFB292002F09E
:1026800019FB002002F016FB262002F013FB0020AD
:1026900002F010FB242002F00DFB002002F00AFBE8
:1026A000242002F007FB002002F004FB232002F0AC
:1026B00001FB002002F0FEFAC42002F007FB6220BA
:1026C00002F0F8FA002002F0F5FA052002F0F2FA22
:1026D000002002F0EFFA842002F0ECFA002002F071
:1026E000E9FAF02002F0E6FA002002F0E3FA1820FE
:1026F00002F0E0FA002002F0DDFAA42002F0DAFA9B
:10270000002002F0D7FA182002F0D4FA002002F0DC
:10271000D1FA502002F0CEFA002002F0CBFA0C20C1
:1027200002F0C8FA002002F0C5FA172002F0C2FA3F
:10273000002002F0BFFA952002F0BCFA002002F05F
:10274000B9FAF32002F0B6FA002002F0B3FAE6205C
:1027500002F0B0FA002002F0ADFAC52002F0B6FA9D
:10276000322002F0A7FA002002F0A4FA442002F07E
:10277000A1FA002002F09EFA652002F09BFA0020E8
:1027800002F098FA762002F095FA002002F092FA10
:10279000882002F08FFA002002F08CFAC62002F0A6
:1027A00095FA202002F086FA002002F083FA172022
:1027B00002F080FA002002F07DFA012002F07AFA9D
:1027C000002002F077FAC72002F080FA002002F021
:1027D00071FA002002F06EFA002002F06BFA00207D
:1027E00002F068FAC82002F071FA002002F062FAE2
:1027F000002002F05FFA002002F05CFA002002F0F4
:1028000059FAC92002F062FA002002F053FA0020BF
:1028100002F050FA002002F04DFA002002F04AFACD
:10282000002002F047FA002002F044FA002002F0F3
:1028300041FA002002F03EFA002002F03BFA0020AC
:1028400002F038FA002002F035FA002002F032FAE5
:10285000002002F02FFA002002F02CFA002002F0F3
:1028600029FA002002F026FAE02002F02FFA1620C2
:1028700002F020FA002002F01DFA1C2002F01AFAE1
:10288000002002F017FA212002F014FA002002F0D2
:1028900011FA362002F00EFA002002F00BFA462060
:1028A00002F008FA002002F005FA522002F002FAC3
:1028B000002002F0FFF9642002F0FCF9002002F091
:1028C000F9F97A2002F0F6F9002002F0F3F98B20F2
:1028D00002F0F0F9002002F0EDF9992002F0EAF997
:1028E000002002F0E7F9A82002F0E4F9002002F04D
:1028F000E1F9B92002F0DEF9002002F0DBF9C42092
:1029000002F0D8F9002002F0D5F9CA2002F0D2F97D
:10291000002002F0CFF9D22002F0CCF9002002F022
:10292000C9F9D92002F0C6F9002002F0C3F9E0206D
:1029300002F0C0F9002002F0BDF9F32002F0BAF96C
:10294000002002F0B7F9E12002F0C0F9162002F0F1
:10295000B1F9002002F0AEF91C2002F0ABF9002022
:1029600002F0A8F9222002F0A5F9002002F0A2F955
:10297000362002F09FF9002002F09CF9452002F079
:1029800099F9002002F096F9522002F093F9002004
:1029900002F090F9642002F08DF9002002F08AF92B
:1029A0007A2002F087F9002002F084F98B2002F0EF
:1029B00081F9002002F07EF9992002F07BF90020D5
:1029C00002F078F9A82002F075F9002002F072F9FF
:1029D000B92002F06FF9002002F06CF9C42002F077
:1029E00069F9002002F066F9CA2002F063F90020BC
:1029F00002F060F9D22002F05DF9002002F05AF9ED
:102A0000D82002F057F9002002F054F9E02002F03B
:102A100051F9002002F04EF9F32002F04BF90020AA
:102A200002F048F9E22002F051F9052002F042F9E3
:102A3000002002F03FF90B2002F03CF9002002F0E8
:102A400039F91B2002F036F9002002F033F9342066
:102A500002F030F9002002F02DF9442002F02AF9AA
:102A6000002002F027F94F2002F024F9002002F0A4
:102A700021F9612002F01EF9002002F01BF97920F3
:102A800002F018F9002002F015F9882002F012F97E
:102A9000002002F00FF9972002F00CF9002002F05C
:102AA00009F9A62002F006F9002002F003F9B72088
:102AB00002F000F9002002F0FDF8C22002F0FAF85E
:102AC000002002F0F7F8C72002F0F4F8002002F02E
:102AD000F1F8D12002F0EEF8002002F0EBF8D62059
:102AE00002F0E8F8002002F0E5F8DD2002F0E2F85C
:102AF000002002F0DFF8F32002F0DCF8002002F002
:102B0000D9F8E32002F0E2F8052002F0D3F8002023
:102B100002F0D0F80A2002F0CDF8002002F0CAF846
:102B20001C2002F0C7F8002002F0C4F8332002F0A5
:102B3000C1F8002002F0BEF8442002F0BBF80020EB
:102B400002F0B8F8502002F0B5F8002002F0B2F818
:102B5000622002F0AFF8002002F0ACF8782002F01A
:102B6000A9F8002002F0A6F8882002F0A3F80020BF
:102B700002F0A0F8972002F09DF8002002F09AF8E9
:102B8000A62002F097F8002002F094F8B72002F097
:102B900091F8002002F08EF8C22002F08BF800209D
:102BA00002F088F8C72002F085F8002002F082F8D1
:102BB000D12002F07FF8002002F07CF8D52002F04E
:102BC00079F8002002F076F8DD2002F073F800209A
:102BD00002F070F8F32002F06DF8002002F06AF8BD
:102BE000E42002F073F8012002F064F8002002F003
:102BF00061F8012002F05EF8002002F05BF802208C
:102C000002F058F8002002F055F82A2002F052F89D
:102C1000002002F04FF83C2002F04CF8002002F0B7
:102C200049F84B2002F046F8002002F043F85D20FE
:102C300002F040F8002002F03DF8742002F03AF86B
:102C4000002002F037F8842002F034F8002002F06F
:102C500031F8932002F02EF8002002F02BF8A22089
:102C600002F028F8002002F025F8B32002F022F844
:102C7000002002F01FF8BE2002F01CF8002002F035
:102C800019F8C42002F016F8002002F013F8CD2045
:102C900002F010F8002002F00DF8D32002F00AF83C
:102CA000002002F007F8DD2002F004F8002002F016
:102CB00001F8F32001F0FEFF002001F0FBFFE5200A
:102CC00002F004F8002001F0F5FF002001F0F2FF0F
:102CD000002001F0EFFF002001F0ECFF022001F0E6
:102CE000E9FF002001F0E6FF292001F0E3FF0020CA
:102CF00001F0E0FF3C2001F0DDFF002001F0DAFFF1
:102D00004B2001F0D7FF002001F0D4FF5D2001F03F
:102D1000D1FF002001F0CEFF742001F0CBFF002096
:102D200001F0C8FF842001F0C5FF002001F0C2FFC0
:102D3000932001F0BFFF002001F0BCFFA22001F0B2
:102D4000B9FF002001F0B6FFB32001F0B3FF00206F
:102D500001F0B0FFBE2001F0ADFF002001F0AAFF9E
:102D6000C42001F0A7FF002001F0A4FFCD2001F056
:102D7000A1FF002001F09EFFD32001F09BFF002067
:102D800001F098FFDC2001F095FF002001F092FF98
:102D9000F32001F08FFF002001F08CFFE62001F00E
:102DA00095FF112001F086FF002001F083FF342001
:102DB00001F080FF002001F07DFF562001F07AFF36
:102DC000002001F077FF762001F074FF002001F071
:102DD00071FF772001F06EFF002001F06BFF66208D
:102DE00001F068FF002001F065FF882001F062FF1C
:102DF000002001F05FFF992001F05CFF002001F04E
:102E000059FFBB2001F056FF002001F053FF99202D
:102E100001F050FF002001F04DFF662001F04AFF55
:102E2000002001F047FF552001F044FF002001F091
:102E300041FF552001F03EFF002001F03BFF4520FF
:102E400001F038FF002001F035FF432001F032FF90
:102E5000002001F02FFF442001F02CFF002001F0A2
:102E600029FFE72001F032FF322001F023FF00208C
:102E700001F020FF552001F01DFF002001F01AFF96
:102E8000762001F017FF002001F014FF662001F00A
:102E900011FF002001F00EFF672001F00BFF002062
:102EA00001F008FF672001F005FF002001F002FF9C
:102EB000872001F0FFFE002001F0FCFE992001F0C8
:102EC000F9FE002001F0F6FEBB2001F0F3FE002029
:102ED00001F0F0FE992001F0EDFE002001F0EAFE85
:102EE000772001F0E7FE002001F0E4FE442001F02D
:102EF000E1FE002001F0DEFE562001F0DBFE0020A6
:102F000001F0D8FE232001F0D5FE002001F0D2FE12
:102F1000332001F0CFFE002001F0CCFE452001F06F
:102F2000C9FE002001F0C6FEE82001F0CFFE00201F
:102F300001F0C0FE002001F0BDFE992001F0BAFEB4
:102F4000002001F0B7FE872001F0B4FE002001F060
:102F5000B1FE882001F0AEFE002001F0ABFE77202C
:102F600001F0A8FE002001F0A5FE662001F0A2FEFF
:102F7000002001F09FFE882001F09CFE002001F05F
:102F800099FEAA2001F096FE002001F093FEBB20DE
:102F900001F090FE002001F08DFE992001F08AFEE4
:102FA000002001F087FE662001F084FE002001F081
:102FB00081FE552001F07EFE002001F07BFE5520B1
:102FC00001F078FE002001F075FE442001F072FE51
:102FD000002001F06FFE442001F06CFE002001F0A3
:102FE00069FE552001F066FE002001F063FEE92035
:102FF00001F06CFEAA2001F05DFE002001F05AFEF7
:10300000002001F057FE002001F054FE002001F0E6
:103010005DFEAA2001F04EFECF2001F057FE0020F9
:1030200001F048FE002001F045FE002001F042FEC4
:10303000002001F03FFE002001F03CFE002001F0E6
:1030400039FE002001F036FE002001F033FE0020A2
:1030500001F030FE002001F02DFE002001F02AFEDC
:10306000002001F027FE002001F024FE002001F0E6
:1030700021FE002001F01EFE002001F01BFE0020BA
:1030800001F018FEF02001F021FE002001F012FEF8
:10309000502001F00FFE002001F00CFE002001F096
:1030A00009FE002001F006FEF32001F00FFE0020D3
:1030B00001F000FEF92001F009FE062001F0FAFD02
:1030C000102001F0F7FD292001F0F4FD002001F0AF
:1030D000F1FD3A2001F0FAFD552001F0EBFD112041
:1030E00001F0F4FD6420FDF74DFA292001F0EEFD1A
:1030F000352001F0EBFD002001F0DCFD512001F056
:10310000E5FDFF2001F0D6FD532001F0DFFD2C206E
:1031100001F0D0FD552001F0D9FD822001F0CAFD5B
:10312000BDE810402C2001F0D1BD2DE9F05F4FF437
:1031300070435521184601F0DFFD4FF20104AA212A
:10314000204601F0D9FD651C5221284601F0D4FD2E
:10315000A61C0821304601F0CFFDE71C01213846AE
:1031600001F0CAFD0D214FF4304001F0C5FD0D21E5
:103170004BF2010001F0C0FD0D214BF2020001F005
:10318000BBFD4FF436483421404601F0B5FD3421F3
:103190004BF2016001F0B0FD34214BF2026001F00E
:1031A000ABFD4FF431490D21484601F0A5FD4BF22E
:1031B000011A0D21504601F09FFD0D214BF2021026
:1031C00001F09AFD4FF4374B3421584601F094FD3D
:1031D00034214BF2017001F08FFD34214BF202706B
:1031E00001F08AFD00214FF4324001F085FD0021FD
:1031F0004BF2012001F080FD00214BF2022001F092
:103200007BFD24214FF4384001F076FD24214BF65C
:10321000010001F071FD24214BF6020001F06CFD6C
:1032200001214FF43F4001F067FD0F214FF433407F
:1032300001F062FD0F214BF2013001F05DFD0F2125
:103240004BF2023001F058FD34214FF4394001F0C7
:1032500053FD34214BF6011001F04EFD34214BF6A5
:10326000021001F049FD08214FF4354001F044FD02
:1032700008214BF2015001F03FFD08214BF20250B2
:1032800001F03AFD03214FF4424001F035FD2421C5
:103290004FF43A4001F030FD24214BF6012001F0BB
:1032A0002BFD24214BF6022001F026FD00214FF4D6
:1032B0003C4001F021FD78214BF6014001F01CFD5E
:1032C00000214BF6024001F017FD00214FF43D4074
:1032D00001F012FD78214BF6015001F00DFD0021A7
:1032E0004BF6025001F008FD00214FF43E4001F082
:1032F00003FD64214BF6016001F0FEFC00214FF458
:10330000514001F0F9FC33214DF2011001F0F4FCC1
:1033100000214DF2021001F0EFFC34214DF20310B8
:1033200001F0EAFC00214DF2041001F0E5FC3A2125
:103330004DF2051001F0E0FC00214DF2061001F005
:10334000DBFC4A214DF2071001F0D6FC00214DF2C2
:10335000081001F0D1FC5C214DF2091001F0CCFC09
:1033600000214DF20A1001F0C7FC81214DF20B1033
:1033700001F0C2FC00214DF20C1001F0BDFCA621B1
:103380004DF20D1001F0B8FC00214DF20E1001F0CD
:10339000B3FCE5214DF20F1001F0AEFC01214DF21E
:1033A000101001F0A9FC13214DF2111001F0A4FC42
:1033B00001214DF2121001F09FFC54214DF2131027
:1033C00001F09AFC01214DF2141001F095FC8221CC
:1033D0004DF2151001F090FC01214DF2161001F094
:1033E0008BFCCA214DF2171001F086FC02214DF230
:1033F000181001F081FC00214DF2191001F07CFC45
:1034000002214DF21A1001F077FC01214DF21B1040
:1034100001F072FC02214DF21C1001F06DFC342110
:103420004DF21D1001F068FC02214DF21E1001F05A
:1034300063FC67214DF21F1001F05EFC02214DF28A
:10344000201001F059FC84214DF2211001F054FCB0
:1034500002214DF2221001F04FFCA4214DF2231065
:1034600001F04AFC02214DF2241001F045FCB72185
:103470004DF2251001F040FC02214DF2261001F022
:103480003BFCCF214DF2271001F036FC02214DF21A
:10349000281001F031FCDE214DF2291001F02CFC46
:1034A00002214DF22A1001F027FCF2214DF22B10DF
:1034B00001F022FC02214DF22C1001F01DFCFE2136
:1034C0004DF22D1001F018FC03214DF22E1001F0E9
:1034D00013FC10214DF22F1001F00EFC03214DF2D0
:1034E000301001F009FC33214DF2311001F004FCE1
:1034F00003214DF2321001F0FFFB6D214DF233102C
:1035000001F0FAFB00214FF4524001F0F5FB3321AA
:103510004DF2012001F0F0FB00214DF2022001F0FC
:10352000EBFB34214DF2032001F0E6FB00214DF2CC
:10353000042001F0E1FB3A214DF2052001F0DCFB13
:1035400000214DF2062001F0D7FB4A214DF2072061
:1035500001F0D2FB00214DF2082001F0CDFB5C21EF
:103560004DF2092001F0C8FB00214DF20A2001F0C4
:10357000C3FB81214DF20B2001F0BEFB00214DF277
:103580000C2001F0B9FBA6214DF20D2001F0B4FB97
:1035900000214DF20E2001F0AFFBE5214DF20F208E
:1035A00001F0AAFB01214DF2102001F0A5FB13212F
:1035B0004DF2112001F0A0FB01214DF2122001F08B
:1035C0009BFB54214DF2132001F096FB01214DF29B
:1035D000142001F091FB82214DF2152001F08CFBAB
:1035E00001214DF2162001F087FBCA214DF2172070
:1035F00001F082FB02214DF2182001F07DFB002139
:103600004DF2192001F078FB02214DF21A2001F051
:1036100073FB01214DF21B2001F06EFB02214DF2E4
:103620001C2001F069FB34214DF21D2001F064FBE8
:1036300002214DF21E2001F05FFB67214DF21F2099
:1036400001F05AFB02214DF2202001F055FB8421AC
:103650004DF2212001F050FB02214DF2222001F019
:103660004BFBA4214DF2232001F046FB02214DF239
:10367000242001F041FBB7214DF2252001F03CFB55
:1036800002214DF2262001F037FBCF214DF22720F9
:1036900001F032FB02214DF2282001F02DFBDE214A
:1036A0004DF2292001F028FB02214DF22A2001F0E1
:1036B00023FBF2214DF22B2001F01EFB02214DF2E3
:1036C0002C2001F019FBFE214DF22D2001F014FBFE
:1036D00003214DF22E2001F00FFB10214DF22F207F
:1036E00001F00AFB03214DF2302001F005FB3321EC
:1036F0004DF2312001F000FB03214DF2322001F0A8
:10370000FBFA6D214DF2332001F0F6FA00214FF45F
:10371000534001F0F1FA33214DF2013001F0ECFA9F
:1037200000214DF2023001F0E7FA34214DF203306E
:1037300001F0E2FA00214DF2043001F0DDFA3A2105
:103740004DF2053001F0D8FA00214DF2063001F0BB
:10375000D3FA4A214DF2073001F0CEFA00214DF2A2
:10376000083001F0C9FA5C214DF2093001F0C4FAC9
:1037700000214DF20A3001F0BFFA81214DF20B30E9
:1037800001F0BAFA00214DF20C3001F0B5FAA62191
:103790004DF20D3001F0B0FA00214DF20E3001F083
:1037A000ABFAE5214DF20F3001F0A6FA01214DF2FE
:1037B000103001F0A1FA13214DF2113001F09CFA02
:1037C00001214DF2123001F097FA54214DF21330DD
:1037D00001F092FA01214DF2143001F08DFA8221AC
:1037E0004DF2153001F088FA01214DF2163001F04A
:1037F00083FACA214DF2173001F07EFA02214DF210
:10380000183001F079FA00214DF2193001F074FA04
:1038100002214DF21A3001F06FFA01214DF21B30F6
:1038200001F06AFA02214DF21C3001F065FA3421F0
:103830004DF21D3001F060FA02214DF21E3001F010
:103840005BFA67214DF21F3001F056FA02214DF26A
:10385000203001F051FA84214DF2213001F04CFA70
:1038600002214DF2223001F047FAA4214DF223301B
:1038700001F042FA02214DF2243001F03DFAB72165
:103880004DF2253001F038FA02214DF2263001F0D8
:1038900033FACF214DF2273001F02EFA02214DF2FA
:1038A000283001F029FADE214DF2293001F024FA06
:1038B00002214DF22A3001F01FFAF2214DF22B3095
:1038C00001F01AFA02214DF22C3001F015FAFE2116
:1038D0004DF22D3001F010FA03214DF22E3001F09F
:1038E0000BFA10214DF22F3001F006FA03214DF2B0
:1038F000303001F001FA33214DF2313001F0FCF9A2
:1039000003214DF2323001F0F7F96D214DF23330E1
:1039100001F0F2F900214FF4544001F0EDF93321A8
:103920004DF2014001F0E8F900214DF2024001F0B2
:10393000E3F934214DF2034001F0DEF900214DF2AC
:10394000044001F0D9F93A214DF2054001F0D4F9D3
:1039500000214DF2064001F0CFF94A214DF2074017
:1039600001F0CAF900214DF2084001F0C5F95C21CF
:103970004DF2094001F0C0F900214DF20A4001F07A
:10398000BBF981214DF20B4001F0B6F900214DF257
:103990000C4001F0B1F9A6214DF20D4001F0ACF957
:1039A00000214DF20E4001F0A7F9E5214DF20F4044
:1039B00001F0A2F901214DF2104001F09DF913210F
:1039C0004DF2114001F098F901214DF2124001F041
:1039D00093F954214DF2134001F08EF901214DF27B
:1039E000144001F089F982214DF2154001F084F96B
:1039F00001214DF2164001F07FF9CA214DF2174026
:103A000001F07AF902214DF2184001F075F9002118
:103A10004DF2194001F070F902214DF21A4001F007
:103A20006BF901214DF21B4001F066F902214DF2C4
:103A30001C4001F061F934214DF21D4001F05CF9A8
:103A400002214DF21E4001F057F967214DF21F404F
:103A500001F052F902214DF2204001F04DF984218C
:103A60004DF2214001F048F902214DF2224001F0CF
:103A700043F9A4214DF2234001F03EF902214DF219
:103A8000244001F039F9B7214DF2254001F034F915
:103A900002214DF2264001F02FF9CF214DF22740AF
:103AA00001F02AF902214DF2284001F025F9DE212A
:103AB0004DF2294001F020F902214DF22A4001F097
:103AC0001BF9F2214DF22B4001F016F902214DF2C3
:103AD0002C4001F011F9FE214DF22D4001F00CF9BE
:103AE00003214DF22E4001F007F910214DF22F4035
:103AF00001F002F903214DF2304001F0FDF83321CD
:103B00004DF2314001F0F8F803214DF2324001F05E
:103B1000F3F86D214DF2334001F0EEF800214FF43F
:103B2000554001F0E9F833214DF2015001F0E4F87D
:103B300000214DF2025001F0DFF834214DF2035024
:103B400001F0DAF800214DF2045001F0D5F83A21E5
:103B50004DF2055001F0D0F800214DF2065001F071
:103B6000CBF84A214DF2075001F0C6F800214DF282
:103B7000085001F0C1F85C214DF2095001F0BCF889
:103B800000214DF20A5001F0B7F881214DF20B509F
:103B900001F0B2F800214DF20C5001F0ADF8A62171
:103BA0004DF20D5001F0A8F800214DF20E5001F039
:103BB000A3F8E5214DF20F5001F09EF801214DF2DE
:103BC000105001F099F813214DF2115001F094F8C2
:103BD00001214DF2125001F08FF854214DF2135093
:103BE00001F08AF801214DF2145001F085F882218C
:103BF0004DF2155001F080F801214DF2165001F000
:103C00007BF8CA214DF2175001F076F802214DF2EF
:103C1000185001F071F800214DF2195001F06CF8C4
:103C200002214DF21A5001F067F801214DF21B50AC
:103C300001F062F802214DF21C5001F05DF83421D0
:103C40004DF21D5001F058F802214DF21E5001F0C6
:103C500053F867214DF21F5001F04EF802214DF24A
:103C6000205001F049F884214DF2215001F044F830
:103C700002214DF2225001F03FF8A4214DF22350D1
:103C800001F03AF802214DF2245001F035F8B72145
:103C90004DF2255001F030F802214DF2265001F08E
:103CA0002BF8CF214DF2275001F026F802214DF2DA
:103CB000285001F021F8DE214DF2295001F01CF8C6
:103CC00002214DF22A5001F017F8F2214DF22B504B
:103CD00001F012F802214DF22C5001F00DF8FE21F6
:103CE0004DF22D5001F008F803214DF22E5001F055
:103CF00003F810214DF22F5000F0FEFF03214DF28A
:103D0000305000F0F9FF33214DF2315000F0F4FF54
:103D100003214DF2325000F0EFFF6D214DF2335090
:103D200000F0EAFF00214FF4564000F0E5FF332198
:103D30004DF2016000F0E0FF00214DF2026000F062
:103D4000DBFF34214DF2036000F0D6FF00214DF27D
:103D5000046000F0D1FF3A214DF2056000F0CCFF85
:103D600000214DF2066000F0C7FF4A214DF20760C6
:103D700000F0C2FF00214DF2086000F0BDFF5C21A1
:103D80004DF2096000F0B8FF00214DF20A6000F02A
:103D9000B3FF81214DF20B6000F0AEFF00214DF228
:103DA0000C6000F0A9FFA6214DF20D6000F0A4FF09
:103DB00000214DF20E6000F09FFFE5214DF20F60F3
:103DC00000F09AFF01214DF2106000F095FF1321E1
:103DD0004DF2116000F090FF01214DF2126000F0F1
:103DE0008BFF54214DF2136000F086FF01214DF24C
:103DF000146000F081FF82214DF2156000F07CFF1D
:103E000001214DF2166000F077FFCA214DF21760D4
:103E100000F072FF02214DF2186000F06DFF0021EA
:103E20004DF2196000F068FF02214DF21A6000F0B7
:103E300063FF01214DF21B6000F05EFF02214DF295
:103E40001C6000F059FF34214DF21D6000F054FF5A
:103E500002214DF21E6000F04FFF67214DF21F60FE
:103E600000F04AFF02214DF2206000F045FF84215E
:103E70004DF2216000F040FF02214DF2226000F07F
:103E80003BFFA4214DF2236000F036FF02214DF2EA
:103E9000246000F031FFB7214DF2256000F02CFFC7
:103EA00002214DF2266000F027FFCF214DF227605E
:103EB00000F022FF02214DF2286000F01DFFDE21FC
:103EC0004DF2296000F018FF02214DF22A6000F047
:103ED00013FFF2214DF22B6000F00EFF02214DF294
:103EE0002C6000F009FFFE214DF22D6000F004FF70
:103EF00003214DF22E6000F0FFFE10214DF22F60E5
:103F000000F0FAFE03214DF2306000F0F5FE33219F
:103F10004DF2316000F0F0FE03214DF2326000F00E
:103F2000EBFE6D214DF2336000F0E6FE55211846A0
:103F300000F0E2FEAA21204600F0DEFE52212846D3
:103F400000F0DAFE0821304600F0D6FE00213846A7
:103F500000F0D2FECC21484600F0CEFE00215046B3
:103F600000F0CAFE0521404600F0C6FE702158460A
:103F700000F0C2FE70214BF2017000F0BDFE012185
:103F80004FF4384000F0B8FE03214BF6010000F07A
:103F9000B3FE03214BF6020000F0AEFE03214BF608
:103FA000030000F0A9FE02214FF43C4000F0A4FE03
:103FB00000214BF6014000F09FFE00214BF602402D
:103FC00000F09AFED0214FF4494000F095FE022106
:103FD0004CF6011000F090FE50214CF6021000F05B
:103FE0008BFE50214CF6031000F086FE50214CF65B
:103FF000041000F081FE00214FF4545000F07CFECC
:1040000055214FF4685000F077FE4FF4885000F0CF
:104010005DFE7820FCF7B6FABDE8F05F4FF424505F
:1040200000F054BE10B5E22000F050FE1D2000F05C
:1040300041FE022000F03EFE042000F03BFE642022
:10404000FCF7A0FAE02000F041FE012000F032FE73
:104050000A20FCF797FAE02000F038FE032000F079
:1040600029FE0C20FCF78EFA012000F02FFE0A201A
:10407000FCF788FAE62000F029FE2F2000F01AFE57
:10408000FF2000F017FEFF2000F014FEB02000F02B
:104090001DFE202000F00EFE002000F00BFE03208D
:1040A00000F008FE40F21F3000F004FE012000F096
:1040B00001FE40F2DF1000F0FDFD002000F0FAFDEF
:1040C000B42000F003FE042000F0F4FD40F21F4095
:1040D00000F0F0FD002000F0EDFD2E2000F0EAFDE4
:1040E000002000F0E7FD002000F0E4FD002000F0DB
:1040F000E1FD002000F0DEFDB62000F0E7FD02202B
:1041000000F0D8FD4FF4037000F0D4FD002000F063
:10411000D1FD172000F0CEFD152000F0CBFD0020D2
:1041200000F0C8FD002000F0C5FDF02000F0CEFD3D
:10413000032000F0BFFD292000F0C8FDD02000F0D2
:10414000C5FD002000F0B6FDBE2000F0BFFD05203B
:1041500000F0B0FDFE2000F0ADFD012000F0AAFD52
:10416000002000F0A7FD002000F0A4FD002000F0DA
:10417000A1FDB82000F0AAFD032000F09BFD012066
:1041800000F098FDBA2000F0A1FDBDE8104001202C
:1041900000F090BD10B5112000F098FD7820FCF7DC
:1041A000F1F9362000F092FD002000F083FD3A2066
:1041B00000F08CFD052000F07DFDB22000F086FDB2
:1041C0000C2000F077FD0C2000F074FD002000F0C2
:1041D00071FD332000F06EFD332000F06BFDB72041
:1041E00000F074FD352000F065FDBB2000F06EFD91
:1041F000322000F05FFDC02000F068FD0C2000F0D0
:1042000059FDC22000F062FD012000F053FDC320E3
:1042100000F05CFD102000F04DFDC42000F056FDC4
:10422000202000F047FDC62000F050FD0F2000F0D8
:1042300041FDD02000F04AFDA42000F03BFDA1206C
:1042400000F038FDE02000F041FDD02000F032FD0C
:10425000002000F02FFD022000F02CFD072000F0D0
:1042600029FD0A2000F026FD282000F023FD322041
:1042700000F020FD442000F01DFD422000F01AFD5A
:10428000062000F017FD0E2000F014FD122000F0B3
:1042900011FD142000F00EFD172000F00BFDE120B1
:1042A00000F014FDD02000F005FD002000F002FD1C
:1042B000022000F0FFFC072000F0FCFC0A2000F0C8
:1042C000F9FC282000F0F6FC312000F0F3FC54202B
:1042D00000F0F0FC472000F0EDFC0E2000F0EAFCBE
:1042E0001C2000F0E7FC172000F0E4FC1B2000F08D
:1042F000E1FC1E2000F0DEFC2A2000F0E7FC00209C
:1043000000F0D8FC002000F0D5FC002000F0D2FC2A
:10431000EF2000F0CFFC2B2000F0D8FC002000F0B4
:10432000C9FC002000F0C6FC012000F0C3FC3F20C7
:1043300000F0C0FCBDE81040292000F0C7BC10B55B
:10434000112000F0C3FC7820FCF71CF9362000F0A7
:10435000BDFC482000F0AEFC3A2000F0B7FC552030
:1043600000F0A8FCF02000F0B1FCC32000F0A2FC9B
:10437000F02000F0ABFC962000F09CFCB42000F094
:10438000A5FC012000F096FCB62000F09FFC0A205E
:1043900000F090FCA22000F08DFCB72000F096FC0D
:1043A000C62000F087FCB92000F090FC022000F04D
:1043B00081FCE02000F07EFCC02000F087FC802023
:1043C00000F078FC162000F075FCC12000F07EFCA7
:1043D000192000F06FFCC22000F078FCA72000F04C
:1043E00069FCC52000F072FC162000F063FCE82098
:1043F00000F06CFC402000F05DFC8A2000F05AFCCC
:10440000002000F057FC002000F054FC292000F0B0
:1044100051FC192000F04EFCA52000F04BFC33208D
:1044200000F048FCE02000F051FCF02000F042FCDD
:10443000072000F03FFC0D2000F03CFC042000F0C1
:1044400039FC052000F036FC142000F033FC362047
:1044500000F030FC542000F02DFC4C2000F02AFC31
:10446000382000F027FC132000F024FC142000F07A
:1044700021FC2E2000F01EFC342000F01BFCE1206B
:1044800000F024FCF02000F015FC102000F012FCDD
:10449000142000F00FFC0E2000F00CFC0C2000F0AB
:1044A00009FC082000F006FC352000F003FC442045
:1044B00000F000FC4C2000F0FDFB262000F0FAFB91
:1044C000102000F0F7FB122000F0F4FB2C2000F08D
:1044D000F1FB322000F0EEFBF02000F0F7FB3C2077
:1044E00000F0E8FBF02000F0F1FB692000F0E2FBB7
:1044F0007820FCF747F8212000F0E8FBBDE81040E9
:10450000292000F0E3BB10B5BF2000F0DFFB00F076
:1045100063F900F061F9C0B210BD00002DE9F05F51
:10452000D32000F0D3FB00F057F9A24CA08000F09C
:1045300053F9A08000F050F94FF6FF7101EA002016
:10454000A08000F049F9A18849F241360843A080D3
:1045500047F2897545F2103747F2967845F21059BF
:1045600049F6060A41F6631BB0427DD0042000F0F4
:10457000ADFB00F031F9A08000F02EF9A08000F032
:104580002BF94FF6FF7101EA0020A08000F024F91A
:10459000A1880843A0F50541A080523965D0A84202
:1045A00062D0D42000F092FB00F016F9A08000F059
:1045B00013F9A08000F010F94FF6FF7101EA002016
:1045C000A08000F009F9A1880843A080B8427ED0FD
:1045D000D32000F07BFB00F0FFF8A08000F0FCF897
:1045E000A08000F0F9F84FF6FF7101EA0020A080EA
:1045F00000F0F2F8A1880843A080404567D055211B
:104600004FF4704000F078FBAA214FF2010000F057
:1046100073FB52214FF2020000F06EFB08214FF2B3
:10462000030000F069FB01214FF2040000F064FB7D
:104630004FF4454000F04AFB00F0CEF84FF6FF7112
:1046400001EA0020A0804CF2015000F03FFB00F096
:10465000C3F8A1880843A0800520FBF793FFA18839
:10466000494534D0D32001E02CE02CE000F02EFBB3
:1046700000F0B2F8A08000F0AFF8A08000F0ACF835
:104680004FF6FF7101EA0020A08000F0A5F8A18894
:104690000843A08050451AD0A12000F017FB00F07D
:1046A0009BF8A08000F098F84FF6FF7101EA002017
:1046B000A08000F091F8A1880843A0F5AE41A08049
:1046C000613902D003E0A58001E0A4F804B0A1881C
:1046D00039A0FCF73FFFA088A84202D1FFF75AFD9E
:1046E0001FE0B04202D1FDF7EEFA1AE0B84202D163
:1046F000FDF7A1FD15E0404502D1FFF720FE10E0D7
:10470000484502D1FEF711FD0BE0504502D1FDF7FF
:10471000F1FB06E0584504D1FFF784FC642000F06B
:10472000A1FAA1884FF02040A94203D0B14201D0A4
:10473000594510D1D0F81C1121F00F01C0F81C11FF
:10474000D0F81C1141F00301C0F81C11D0F81C1165
:1047500041F440711DE0B94205D0414503D04945BF
:1047600001D0514517D1D0F81C1121F00F01C0F82C
:104770001C11D0F81C1141F00201C0F81C11D0F836
:104780001C1121F47061C0F81C11D0F81C1141F407
:104790000071C0F81C110020FDF714FA0122D103AA
:1047A0000848FCF7F1F8BDE8F05F4FF6FF70FDF741
:1047B000F1B90000300000204C43442049443A2520
:1047C000780D0A00000402400246012000E0504338
:1047D000491EC9B2FBD2704708B50220401EFDD267
:1047E0004FF0D840B0F88000ADF80000BDF80000F0
:1047F00008BD000070B55F4C00232146A27989886E
:1048000041F66316012A01D01AB10CE0B14202D17F
:1048100009E0B14207D1082805D2DFE800F01618F8
:1048200012140C19100E082812D2DFE800F011043F
:1048300006080A0C0E1080230AE0402308E0C0237B
:1048400006E0202304E0602302E0A02300E0E02350
:10485000362045F21055A94200D10002A1F51342BD
:10486000413A07D0A1F5EE42893A03D0A1F5EE42D4
:10487000963A01D143F00803194600F03DFAA188A9
:10488000B1420AD098062088628802D5904202D3AD
:1048900003E0904201D9228060806089A94240D122
:1048A00000F014FA002000F005FA6089401C80B284
:1048B00000F00CFA002000F0FDF96089801C80B245
:1048C00000F004FA2088401EC0F30F2000F0F2F937
:1048D0006089C01C80B200F0F9F92078401EC0B297
:1048E00000F0E8F9A08900F0F1F9002000F0E2F909
:1048F000A089401C80B200F0E9F9002000F0DAF94C
:10490000A089801C80B200F0E1F96088401EC0F3ED
:104910000F2000F0CFF9A089C01C80B200F0D6F9BA
:1049200021E000F0D3F9002000F0C4F9002000F0ED
:10493000C1F92088401EC0F30F2000F0BBF9207899
:10494000401EC0B200F0B6F9A08900F0BFF9002007
:1049500000F0B0F9002000F0ADF96088401EC0F30F
:104960000F2000F0A7F9A078BDE87040401EC0B24B
:1049700000F0A0B93000002010B50446D12000F0AE
:10498000A5F9FFF729FF400605D4D02000F09EF9D5
:10499000682000F08FF9BE2000F098F9062000F0A2
:1049A00089F9204600F086F9BDE81040012000F0AA
:1049B00081B90000F0B53B4A0D460446060A9188CD
:1049C00010462F0A4089A1F5C853633B16D0A1F5C4
:1049D000AA43103B4CD000F079F9304600F06AF958
:1049E000E0B200F067F9908900F070F9384600F005
:1049F00061F9E8B2BDE8F04000F05CB9917931B3FB
:104A000000F064F9304600F055F9E0B200F052F9D8
:104A10001088401EC0F30F2000F04CF91078401EA3
:104A20005FFA80F000F046F9908900F04FF93846BF
:104A300000F040F9E8B200F03DF95088401EC0F3A4
:104A40000F2000F037F99078401EC0B2D2E71188ED
:104A5000091B491E8CB200F039F9002000F02AF938
:104A6000002000F027F9200A00F024F9E0B2D9E78D
:104A700000F02CF9304600F01DF95089401C80B23E
:104A800000F024F9E0B200F015F9908900F01EF969
:104A9000384600F00FF99089401C80B200F016F9FA
:104AA000A7E70000300000202DE9FF4F1D460C460F
:104AB0008B46580700D0012000EBD500690810FB99
:104AC00001F0203A00F0FF0AD0B20C2D0AD0102DD0
:104AD0000CD0182D0ED0202D46D1244901EB801684
:104AE00000203EE000EB4001214806E0214901EBB7
:104AF0000016F5E700EBC0011F4800EB8106EFE769
:104B000016F808704FF00009380601D50E9A03E038
:104B10000D9828B91948026821460098FDF7C8F891
:104B20007806070E1648641CA4B24088A0421BD920
:104B3000A4EB0B00A8420AD100985C46401C80B24E
:104B400000900F480188009881420DD906E009F1D4
:104B5000010000F0FF09B9F1080FD5D308F10100F9
:104B6000C0B280465045CBD3BDE8FF8F8E660008AB
:104B7000CE4E0008425300083259000804000020BD
:104B8000300000202DE9FC4F044600F0FF09101909
:104B90000D46DDE90BB61FFA80F8581987B24FF0C1
:104BA000000A13E0444503D305EB0B004C4685B2E5
:104BB000BD4210D20D985B46CDE900A029462046A3
:104BC000FFF772FF04EB5B0084B2761C3278A2F12F
:104BD00020005E28E6D9BDE8FC8F2DE9FF4F83B0A9
:104BE0008146DDE911BA10984FF000081E46444690
:104BF0000BF0010547082EE0301B401EC1B20A2011
:104C0000FFF7E2FD0599B1FBF0F00A21B0FBF1F2EC
:104C100001FB1200B8F1000F05D1711E8C4202DABF
:104C200050B14FF001083030C2B2CDE9005A07FB55
:104C3000049080B2109B09E0CDE9005A5FEA0B6056
:104C400007FB0490109B80B20AD530220499FFF72D
:104C50002BFF641CE4B2B442CED307B0BDE8F08FA2
:104C60002022F3E710B50246BE2000F02FF8052001
:104C700000F020F81046FBF758FB9FED0C1B53EC9F
:104C8000112BFBF7E0FAFBF75DFB80B200F012F8A6
:104C9000012000F00FF8FF2000F00CF8002000F0D9
:104CA00009F8BDE81040002000F004B866666666AA
:104CB0006666044001B5BDF80000ADF80000BDF81F
:104CC00000004FF0D841A1F8800008BD01B5BDF843
:104CD0000000ADF80000BDF800004FF0D841A1F889
:104CE0007E0008BD03484FF0D8410089A1F87E003E
:104CF00070470000300000204FF0D84222F87E0FAD
:104D0000518070470EB5FBF753FEFCF74FFBFCF7E5
:104D10009BFAFCF72BFAFCF727FBA820FCF794FE84
:104D2000FFF7FCFB3C484FF478443DA104603B484E
:104D300082883E48FCF71EFCFF20FFF71DFEFFF7B0
:104D4000E2FB3B4E02463BA1707038480C30FCF74A
:104D500011FC20213DA0CDE900100B46F022029469
:104D600028210A20FFF70EFF18213AA0CDE90010F4
:104D70000B46F022029450210A20FFF703FF102572
:104D800037A00095CDE901042B46F0226E210A20C0
:104D9000FFF7F8FE25480095CDE901041023F02225
:104DA00082210A20FFF7EEFE204800950C30CDE965
:104DB00001041023F02296210A20FFF7E3FE2CA025
:104DC0000095CDE901041023C822AA210A20FFF78B
:104DD000D9FE2BA00095CDE901041023C822BE21E5
:104DE0000A20FFF7CFFE00202A49AA03C6F80400D4
:104DF00041F82000401C9042FAD3274D70604FF4D8
:104E000000744FF4967621462846FBF7B5FD3046F0
:104E1000FBF7B8FBF7E7000000000020300000209F
:104E20004C43442049443A25303458004000002087
:104E30000800002063757272656E74206272696783
:104E400068746E6573733A253375000053544D339F
:104E5000320000005446544C4344205445535400FF
:104E600041544F4D40414C49454E54454B00000084
:104E70004B4559303A54657374205372616D00008C
:104E80004B4559313A53686F77205352414D204476
:104E9000617461000000006800140240002A07D01D
:104EA0004FF0D0435B5C491C00F8013B521EF7D128
:104EB0007047000010B5002A08D000BF4FF0D04363
:104EC00010F8014B5C54491C521EF7D110BD000074
:104ED00000000000000000000000000000003F4053
:104EE00000000000000000003000400030004000E2
:104EF000000009000BC03D000BC03D00090018C0B8
:104F000024407FE0224031800000180024C01B00B4
:104F10000D803240018003801C4027401C800740E8
:104F200000401000600000000000000000000000D1
:104F3000000000001F802040402000004020204052
:104F40001F8000000000090006001F800600090005
:104F50000000040004003F80040004000000001072
:104F600000600000000000000000040004000400D5
:104F700004000400000000000040000000000000E9
:104F80000000002001C006003800400000001F8023
:104F90002040204020401F800000000010403FC003
:104FA00000400000000018C021402240244018406A
:104FB000000010802040244024401B80000002009C
:104FC0000D0011003FC0014000003C8024402440FF
:104FD0002440238000001F8024402440344003806C
:104FE00000003000200027C03800200000001B8097
:104FF0002440244024401B8000001C0022C022408A
:1050000022401F8000000000000008400000000057
:10501000000000000000046000000000000000002C
:1050200004000A0011002080404009000900090026
:1050300009000900000000004040208011000A0023
:1050400004001800200023402400180000001F80E6
:105050002040274029401F400000004007C0390081
:105060000F0001C0004020403FC0244024401B806E
:1050700000001F8020402040204030800000204061
:105080003FC0204020401F80000020403FC02440FF
:105090002E4030C0000020403FC024402E00300091
:1050A00000000F001080204022403380020020408A
:1050B0003FC0040004003FC02040204020403FC0CB
:1050C0002040204000000060202020203FC0200021
:1050D000200020403FC024400B0030C02040204032
:1050E0003FC020400040004000C03FC03C0003C023
:1050F0003C003FC0000020403FC00C4023003FC0A8
:1051000020001F802040204020401F8000002040C1
:105110003FC024402400180000001F80214021408F
:1051200020E01FA0000020403FC02440260019C0FE
:10513000004018C02440244022403180000030004C
:1051400020403FC020403000000020003F80004051
:1051500000403F80200020003E0001C007003800D2
:105160002000380007C03C0007C038000000204085
:1051700039C0060039C0204000002000384007C078
:10518000384020000000304021C02640384020C078
:105190000000000000007FE04020402000000000F0
:1051A00070000C0003800040000000004020402000
:1051B0007FE0000000000000200040002000000010
:1051C000000000100010001000100010001000007F
:1051D00000004000000000000000000002800540C8
:1051E000054003C0004020003FC00440044003804D
:1051F000000000000380044004400640000000005E
:105200000380044024403FC000400000038005406C
:10521000054003400000000004401FC0244024401B
:105220002000000002E005500550065004202040F8
:105230003FC00440040003C000400000044027C0F9
:1052400000400000000000100010041027E00000E3
:10525000000020403FC00140070004C0044020403F
:1052600020403FC000400040000007C0040007C0CD
:10527000040003C00000044007C00440040003C051
:10528000004000000380044004400380000004103C
:1052900007F0045004400380000000000380044035
:1052A000045007F00010044007C00240040004004E
:1052B0000000000006400540054004C0000000005A
:1052C00004001F80044000400000040007800040EC
:1052D000044007C000400400070004C0018006002D
:1052E0000400060001C0070001C0060000000440E1
:1052F00006C0010006C0044000000410071004E0CE
:105300000180060004000000044005C0064004407F
:1053100000000000000004007BE0402000000000CE
:1053200000000000FFF000000000000040207BE0D3
:105330000400000000004000800040002000200029
:10534000400000000000000000000000000000001D
:1053500000000000000000001FCC000C0000000056
:10536000000000000800300060000800300060000D
:105370000000022003FC1E20022003FC1E2002204D
:10538000000000000E1811043FFF10840C7800008C
:1053900000000F0010840F3800C0077818840078D0
:1053A000000000780F8410C411240E9800E40084DB
:1053B0000008080068007000000000000000000005
:1053C000000000000000000007E018182004400260
:1053D0000000000040022004181807E00000000050
:1053E00000000240024001800FF0018002400240B4
:1053F00000000080008000800FF8008000800080A6
:1054000000000001000D000E000000000000000080
:10541000000000000080008000800080008000808C
:1054200000800000000C000C0000000000000000E4
:10543000000000000006001800600180060018004F
:105440002000000007F0080810041004080807F006
:1054500000000000080408041FFC00040004000011
:10546000000000000E0C10141024104411840E0CC7
:10547000000000000C1810041104110412880C70B4
:105480000000000000E00320042408241FFC002486
:10549000000000001F98108411041104108810707F
:1054A0000000000007F0088811041104188800703B
:1054B000000000001C00100010FC13001C00100075
:1054C000000000000E3811441084108411440E387E
:1054D000000000000700088C10441044088807F002
:1054E0000000000000000000030C030C000000009E
:1054F00000000000000000010106000000000000A4
:105500000000000000800140022004100808100480
:10551000000002200220022002200220022002209D
:105520000000000010040808041002200140008060
:10553000000000000E001200100C106C10800F0014
:10554000000003E00C1813E4142417C4082807D043
:1055500000000004003C03C41C40074000E4001CA1
:10556000000410041FFC1104110411040E880070C3
:10557000000003E00C1810041004100410081C10A4
:10558000000010041FFC100410041004080807F0A9
:10559000000010041FFC1104110417C410040818A3
:1055A000000010041FFC1104110017C010000800B7
:1055B000000003E00C181004100410441C78004094
:1055C000000010041FFC10840080008010841FFC69
:1055D00010040000100410041FFC1004100400004C
:1055E000000000030001100110011FFE1000100058
:1055F000000010041FFC110403801464181C100424
:10560000000010041FFC1004000400040004000C3F
:10561000000010041FFC1F0000FC1F001FFC1004F2
:10562000000010041FFC0C04030000E010181FFC15
:10563000100007F00808100410041004080807F010
:10564000000010041FFC10841080108010800F00D8
:10565000000007F0081810241024101C080A07F294
:10566000000010041FFC1104110011C011300E0CB9
:10567000000400000E1C11041084108410441C3817
:1056800000001800100010041FFC10041000180087
:10569000000010001FF810040004000410041FF89C
:1056A000100010001E0011E0001C007013801C0090
:1056B00010001FC0103C00E01F0000E0103C1FC0A5
:1056C00000001004180C163401C001C01634180C68
:1056D000100410001C00130400FC13041C00100034
:1056E00000000804101C1064108413041C0410181B
:1056F00000000000000000007FFE40024002400267
:105700000000000030000C0003800060001C00035B
:10571000000000004002400240027FFE0000000046
:105720000000000000002000400040004000200079
:105730000000000100010001000100010001000162
:1057400000010000400040002000000000000000B8
:10575000000000000098012401440144014400FCC1
:10576000000410001FFC0088010401040088007080
:10577000000000000070008801040104010400889A
:1057800000000000007000880104010411081FFCE3
:105790000004000000F8014401440144014400C831
:1057A00000000000010401040FFC110411041100A9
:1057B0001800000000D601290129012901C90106AC
:1057C000000010041FFC008401000100010400FC23
:1057D000000400000104190419FC00040004000086
:1057E00000000000000300010101190119FE000082
:1057F000000010041FFC0024004001B4010C01044F
:1058000000000000100410041FFC0004000400004D
:105810000000010401FC0104010001FC010401007D
:1058200000FC010401FC008401000100010400FCF3
:105830000004000000F8010401040104010400F860
:105840000000010101FF00850104010400880070CF
:10585000000000000070008801040104010501FF40
:1058600000010104010401FC008401040100018025
:105870000000000000CC012401240124012401982F
:10588000000000000100010007F80104010400000D
:105890000000010001F8000400040004010801FCFC
:1058A0000004010001800170000C00100160018003
:1058B000010001F0010C003001C00030010C01F0CA
:1058C000010000000104018C00740170018C0104CE
:1058D0000000010101810171000E001801600180CA
:1058E000010000000184010C013401440184010C19
:1058F0000000000000000000000001003EFC40022B
:1059000040020000000000000000FFFF0000000057
:1059100000000000400240023EFC010000000000C8
:105920000000000060008000800040004000200077
:105930002000000000000000000000000000000047
:105940000000000000000000000000000000000057
:105950000000000000000000000000000000000047
:1059600000000000000F80380FFE380F8038000064
:105970000000000000000000000000000000000027
:105980000100000600000C00003800003100000695
:1059900000000C0000380000300000000000000093
:1059A000000061800067F807F98000618000618075
:1059B0000061800061800067F807F9800061800065
:1059C000000000000000000001C0E003E0F006302D
:1059D000080418081FFFFE040E080787F00381E083
:1059E00000000000000001F000060C00040408069E
:1059F0000C7001F9C0000E00003BE000EC18070835
:105A000008040C180003E00000000001E00007F0AB
:105A100003F818041C0804170807E1D003C0E000CD
:105A200023B0003C08002008000010000000000027
:105A3000000100003100003200001C0000000000E6
:105A40000000000000000000000000000000000056
:105A50000000000000000000000000000000000046
:105A600000007F0001FFC00780F00C001810000448
:105A70002000020000000000002000021000040CC2
:105A800000180780F001FFC0007F00000000000048
:105A900000000000000000000000000000004200C4
:105AA000006600006600003C0000180003FFC00014
:105AB0001800003C00006600006600004200000084
:105AC00000000800000800000800000800000800AE
:105AD00001FFC000080000080000080000080000E6
