:020000040800F2
:10000000203401205D020008B31D00085D1B0008BC
:10001000B11D00086B040008652000080000000006
:100020000000000000000000000000009D0100082A
:100030006D04000800000000F9010008C11D00085F
:1000400077020008770200087702000877020008AC
:10005000770200087702000877020008770200089C
:10006000770200087702000877020008770200088C
:10007000770200087702000877020008770200087C
:10008000770200087702000877020008770200086C
:10009000770200087702000877020008770200085C
:1000A00077020008851E0008770200087702000822
:1000B000770200087702000877020008770200083C
:1000C000770200087702000877020008770200082C
:1000D000770200087702000877020008770200081C
:1000E000770200087702000877020008770200080C
:1000F00077020008770200087702000877020008FC
:1001000077020008770200087702000877020008EB
:1001100077020008770200087702000877020008DB
:1001200077020008770200087702000877020008CB
:1001300077020008C104000877020008770200086F
:1001400077020008770200087702000877020008AB
:10015000770200087702000877020008770200089B
:10016000770200087702000877020008770200088B
:1001700077020008770200087702000800000000FC
:100180007702000877020008DFF80CD000F030F9A1
:1001900000480047BB470008203401202C4B196859
:1001A0000868B0E8F04F80F30988BFF36F8F4FF015
:1001B000000080F3118870470000000008480068C4
:1001C000006880F308884FF0000080F3148862B65E
:1001D00061B6BFF34F8FBFF36F8F00DF00BF00BF6B
:1001E00008ED00E0DFF80C00016841F470010160E7
:1001F000704700BF88ED00E0EFF30980BFF36F8F19
:10020000134B1A681EF0100F08BF20ED108A20E96A
:10021000F04F106009B44FF0500080F31188BFF325
:100220004F8FBFF36F8F0CF083FB4FF0000080F314
:10023000118809BC19680868B0E8F04F1EF0100F6B
:1002400008BFB0EC108A80F30988BFF36F8F704746
:100250003C000020EFF3058070470000064880470F
:1002600006480047FEE7FEE7FEE7FEE7FEE7FEE79B
:10027000FEE7FEE7FEE7FEE7751E000889010008BD
:100280002DE9F05F0546002092469B4688460646CB
:10029000814640241BE0284641464746224600F05E
:1002A00097F853465A46C01A914110D31146184642
:1002B000224600F07EF82D1A67EB01084F462246D1
:1002C0000120002100F075F817EB00094E41201EB7
:1002D000A4F10104DFDC484631462A464346BDE826
:1002E000F09F00000649074A0868504343F239026C
:1002F00010440860400870470149086070470000DA
:10030000700100206D4EC64110B5431A934209D2C8
:100310008318881803E010F8011D03F8011D521E10
:10032000F9D210BD40EA01039B0703D009E008C9D8
:10033000121F08C0042AFAD203E011F8013B00F8AA
:10034000013B521EF9D210BDD2B201E000F8012BE0
:10035000491EFBD270470022F6E710B513460A4645
:1003600004461946FFF7F0FF204610BD30B504469D
:100370000020034600E05B1C934203D2E05CCD5CAE
:10038000401BF8D030BD30B50B460146002020227E
:10039000012409E021FA02F59D4205D303FA02F592
:1003A000491B04FA02F52844151EA2F10102F1DCF2
:1003B00030BD202A04DB203A00FA02F10020704709
:1003C0009140C2F1200320FA03F319439040704793
:1003D000202A04DB203A21FA02F00021704721FA9A
:1003E00002F3D040C2F12002914008431946704701
:1003F000064C074D06E0E06840F0010394E8070072
:1004000098471034AC42F6D3FFF7C2FE6CD900080F
:100410008CD9000870B58C1810F8015B15F0070333
:1004200001D110F8013B2A1106D110F8012B03E08D
:1004300010F8016B01F8016B5B1EF9D12B0705D495
:100440000023521E0DD401F8013BFAE710F8013BDE
:10045000CB1A921C03E013F8015B01F8015B521EFA
:10046000F9D5A142D8D3002070BDFEE77047000047
:10047000064908B509684FF4FA52B1FBF2F141435D
:10048000009100BF491E0091FBD208BD380000203A
:1004900038B50446006800F58050816941F4801148
:1004A0008161206800F58050806900900120FFF78D
:1004B000DFFF2068009900F58050816138BD0000A1
:1004C000014800F0FCB90000A03400202DE9F04103
:1004D000044621B14FF40060E060C000A060E06914
:1004E0000025002861D028462368402619683A4A2A
:1004F0001140D4E902273A43024342F40070084312
:10050000186020680768012000F074F82068076010
:100510002068466020684668012000F06BF820687B
:100520004660206885602068C560216888694FF64C
:100530004172104040F08000886120688669012087
:1005400000F058F8206886612068C5612068C56998
:10055000012000F04FF82068C561226802F5805242
:1005600090691E4908401E4901439161206800F5C9
:1005700080508569012000F03DF8206800F580502A
:1005800085612068174900F580500160206800F5FA
:1005900080500568012000F02DF8206800F580509B
:1005A0000560A069012803D009E04FF480609BE753
:1005B000206800F58050C1690B4A1143C161606930
:1005C0000A4982880A640278D0F8010042EA0020D1
:1005D0004864BDE8F08100000F8120FF233FDEF872
:1005E000040020028020C10240000100008002407F
:1005F0007047000070B5044600F094FD0546601C8D
:1006000002D004480078044400F08CFD401BA04256
:10061000FAD370BD2C0000202DE9F041054690F87A
:1006200045000C46012875D0012685F8456002205A
:1006300085F84400002C70D02A68116841480140B8
:10064000D4E900031843D4E902373B431843AB68AD
:1006500018432369184363691843EB681843A36977
:100660001843E3691843236A1843636A1843A36A6B
:10067000184308431060286807680120FFF7BAFF95
:1006800028680760D4E90B010843D4E90D1211432F
:100690000843E16B0843216C0843616C0843A16C7B
:1006A000084329684860286847680120FFF7A2FFCF
:1006B000286847602968E06C88602968206DC860F8
:1006C0002A6891694FF641700140D4E91603184336
:1006D000B4F85470236E43EA07431843636E18431B
:1006E000A36E184308439061286887690120FFF7CB
:1006F00081FF28688761D4E91B0108432968C86124
:100700002868C4690120FFF775FF2868C46114E0F8
:1007100000E002E00220BDE8F0812968086820F4CA
:100720009042D5E902031843104308602868046822
:100730000120FFF75FFF2868046005F8446F002080
:100740006870E8E70F8120FF2DE9F04390F84540FD
:100750000025012C0DD04FF0010C80F845C002247B
:1007600080F8444044F2F4574FF000495E1E816225
:1007700017E00220BDE8F08301EB4514C4F80090B7
:10078000C5EBC51808EB480802EB8808C4E90178F6
:10079000B54204D204F12008C4F80C8000E0E16006
:1007A0006D1C9D42E8D3026802F58052D16080F84A
:1007B00044C0002180F845100846DBE72DE9F043EE
:1007C000914690F845200024012A0AD0012680F89D
:1007D0004560022280F844204FF4801C5D1EC162F7
:1007E0001BE00220BDE8F08301EB4412C2F800C018
:1007F000C4EBC41707EB470809EB88079760C76984
:100800001FB9176847F440071760AC4203D202F1E2
:100810002007D76000E0D160641C9C42E4D30268EA
:1008200002F58052116180F84460002180F8451083
:100830000846D7E7704730B590F8451000230129E6
:1008400008D0012280F84520022180F844100024BD
:10085000816A1AE0022030BD0D685B1CC5F30125DA
:10086000022D0AD00D6815F4407F09D04163836BD7
:100870005B1C8363012B12D012E08263016302E0F0
:10088000856B6D1C8563C96881620D68002D01DB75
:10089000042BE1D300F8442F4470012030BD0163E4
:1008A0000B68C3F30D431B1FC363036B9B68036497
:1008B000C96840F8281F02774477002030BD70B522
:1008C0000446006800F5805041694FF00005490674
:1008D0004FF0010608D5204600F0DCF920684021E1
:1008E00000F58050416109E04069C0070AD0204608
:1008F00000F0DEFA206800F58050466184F844601C
:1009000084F8455020684FF4803100F580504161F3
:10091000206800F58050406900040CD52046FFF7A0
:1009200089FF20684FF4004100F58050416184F850
:10093000446084F8455070BD2DE9FC474FF0000637
:100940000400B146009603D094F8440018B107E0C3
:100950000120BDE8FC8784F84560204600F0E4F8FB
:100960006748016841F480410160006800F48040FC
:1009700001906448016821F4000101600168226A65
:1009800011430160206800F58050016841F00101C9
:10099000016000F0C7FB05464FF4FA7709E000BF9D
:1009A00000F0C0FB401BB84203D9032004F8440FF9
:1009B00067E0206800F580500068C007F0D120682B
:1009C000006920F01C0500F025FD4F494F4A014405
:1009D000914202D245F0080516E04D494D4A0144C6
:1009E000914202D245F00C050EE04B494B4A0144BE
:1009F000914209D34A4908444A49884202D245F003
:100A0000040501E045F01005206805614FF400423F
:100A10000021204600F04EFA0125A8BBFF20FFF779
:100A2000E9FD606888B300F07DFB804641F28837BD
:100A30006A460121204600F0EBF800F073FBA0EBC2
:100A40000800B84217D800984007F1D54FF48052FB
:100A50000021204600F02EFAB0B900F063FB80467A
:100A60006A460121204600F0D3F800F05BFBA0EBC2
:100A70000800B8420AD901212046FFF727FD04F8F3
:100A8000445F0320667064E726E01AE00098800661
:100A9000E6D56A461121204600F0BAF8E0B9009880
:100AA000810403D54FF40061E16000E0E66044F2A8
:100AB0001001814303D04FF48040A06017E0A6608E
:100AC00015E0E068A168C00840EA510082B2002148
:100AD000204600F0EFF930B101212046FFF7F6FC87
:100AE00084F8445034E740F6FF70FFF783FD494631
:100AF0002046FFF7EBFC84F84450002029E7000073
:100B0000443802400438014000D3CEFEC0E1E40086
:100B100040F1E9FD40787D0100796CFC005A6202E9
:100B2000001F0AFA80F0FA02F0B587B004461421DB
:100B30006846FFF710FC3149206888425BD1304895
:100B40000024016841F000710160016801F000714A
:100B50000591016841F080610160016801F08061E8
:100B60000591016841F000610160016801F00061D8
:100B70000591016841F004010160016801F0040180
:100B80000591016841F001010160016801F0010176
:100B90000591016841F0400101600068022500F004
:100BA000400005903220CDE9000502AA03260B275C
:100BB00082E8D0006946134800F0B8F98620CDE9F4
:100BC000000502AA694682E8D0000F4800F0AEF99D
:100BD0004FF4D040CDE9000502AA694682E8D00072
:100BE0000A4800F0A3F9002205213D2000F026FB71
:100BF0003D2000F015FB07B0F0BD00000080024072
:100C00003038024000080240000002400018024054
:100C10002DE9F047044690F84400914682281DD003
:100C2000822084F84400226810694FF6FF7500F0B6
:100C30001C03208A05EAC02018434FF4F86303EA36
:100C40008111014321F0020040F00105156100F01F
:100C500069FA064601274FF4803810E00220BDE80B
:100C6000F08700BF00F05EFA801B404505D304F812
:100C7000447F002060700320F1E720680569E807E1
:100C8000F0D12068406981B2C9F8001084F844703E
:100C90000020E4E70148006804F074BE280000204A
:100CA000F8B5044690F84500012839D0012584F8AC
:100CB0004550022084F8440020680026016841F075
:100CC000080101602068006800902846FFF7D0FB0B
:100CD0002168009808602068016841F00401016003
:100CE0002068006800900120FFF7C2FB216800988F
:100CF00008602046FFF7CCFB206800F58050816932
:100D000041F400518161206800F58050816941F013
:100D10000201816184F8445084F845600020F8BDE8
:100D20000220F8BDF8B5044690F84500012839D0F6
:100D3000012584F84550022084F84400206800F51D
:100D40008050816921F400518161206800F5805054
:100D5000816921F00201816120680026016821F08B
:100D6000040101602068006800900120FFF780FB0B
:100D70002168009808602046FFF78AFB2068016818
:100D800021F0080101602068006800900120FFF751
:100D90006FFB21680098086084F8445084F845602F
:100DA0000020F8BD0220F8BDF0B590F845200023E2
:100DB000012A11D0012780F84570022280F84420D2
:100DC000002459B1C66A3268002A0ADA122100F8F2
:100DD000441F44700120F0BD0220F0BD00F8447FA4
:100DE000F7E740F2F455A9420BD9B1FBF5FCB1FB92
:100DF000F5F205FB1C1CBCF1000F00D0521C012AAF
:100E000043D1326842F040523260C26AC1F30C01F1
:100E10005160C16A0A6842F000420A60C16AC9684A
:100E2000C16234E0D6F800C02CF0405CC6F800C0C7
:100E300033B9C66AD6F800C04CF0805CC6F800C072
:100E4000C66A7560561EB34214D1C66AD6F800C091
:100E50004CF0005CC6F800C0C2F10106C6EBC61635
:100E600006EB4606D0F82CC001EB8606C6F30C064E
:100E7000CCF80460C66AD6F800C04CF0004CC6F846
:100E800000C0C66A5B1CF668C6629342CAD301689A
:100E900001F580514A69520705D504224A6101686B
:100EA00001F580514C6000F8447F44700020F0BD93
:100EB000704700002DE9F041044690F844004228B4
:100EC0001ED0422084F84400236818694FF6FF764C
:100ED00000F01C05208A06EAC02028434FF4F8657C
:100EE00005EA8111014390B241F003055861206881
:100EF000056100F017F9064601274FF4803810E02D
:100F00000220BDE8F08100BF00F00CF9801B4045D5
:100F100005D304F8447F002060700320F1E72068C7
:100F20000569E807F0D184F84470EAE72DE9F84F45
:100F3000DFF8B8A1002201250AF1040B03264FF0C7
:100F40000F090BF1040E00BF0B6805FA02F42340F1
:100F5000A3426FD10F7907F00307012F01D0022FB1
:100F600016D187684FEA420806FA08FC27EA0C0700
:100F7000D1F80CC00CFA08FC4CEA070CC0F808C009
:100F80004768A7430C79C4F3001494403C43446081
:100F90000C79E443A4070AD0C4684FEA420C06FA6D
:100FA0000CF7BC438F6807FA0CF72743C7600C792E
:100FB00004F00304022C12D1D40800EB840CDCF8FA
:100FC00020405707FF0E09FA07F824EA0804D1F871
:100FD000108008FA07F848EA0408CCF82080046872
:100FE0004FEA420C06FA0CF7BC430F7907F00307EF
:100FF00007FA0CF7274307604C68E40070D53C4CB7
:10100000276847F480472760246822F0030704F428
:1010100080440094374C07EB040CDCF80848970731
:101020004FEA177809FA08F7BC43334FB84202D1A8
:10103000002724E054E0314FB84201D101271EE0DF
:101040002F4FB84201D1022719E02E4FB84201D1EB
:10105000032714E02C4FB84201D104270FE02B4F97
:10106000B84201D105270AE0294FB84201D106272D
:1010700005E0284FB84201D1072700E0082707FA0A
:1010800008F72743CCF80878DAF800405746D1F83B
:1010900004C09C435FEACC3C00D51C433C60DBF8B9
:1010A00000405F46D1F804C09C435FEA8C3C00D509
:1010B0001C433C60DEF800407746D1F804C09C43F6
:1010C0005FEACC2C00D51C433C60084F0C373C68D1
:1010D000D1F804C09C435FEA8C2C00D51C433C60D3
:1010E000521C102AFFF430AFBDE8F88F003C0140DD
:1010F0004438024000300140000002400004024039
:1011000000080240000C024000100240001402409F
:1011100000180240001C02400AB1816170470904B6
:10112000FBE7000001488068704700002C000020A9
:101130000248816802781144816070472C000020C9
:101140000B4810B5016841F400710160016841F479
:1011500080610160016841F480710160032000F04A
:101160008DF8002000F006F800F03EF8002010BDD9
:10117000003C024010B5014688B00022192000F062
:101180005DF8192000F04CF813480024016841F084
:1011900001010160006805A900F0010006906846A1
:1011A00000F018F900F04CF90C494000B0FBF1F1E7
:1011B0000C480B4A491E026040F2E732C0E90324A2
:1011C000C0E9011400F034FB10B1012008B010BDDB
:1011D000044800F05BFBF9E74438024040420F004E
:1011E000000001402C3500200C4882B0016841F419
:1011F00080410160006800F4804000900748001FB3
:10120000016841F0805101600068002200F08050C8
:1012100000900F21901E02B000F010B84438024038
:10122000002809DB00F01F020121914040098000E5
:1012300000F1E020C0F8001170470000F0B40E4B40
:101240001B680C46C3F30223C3F10705042D00D924
:101250000425191D072901D2002300E0DB1E012609
:1012600006FA05F1491E214099409E40761E16401F
:101270003143F0BC00F008BF0CED00E0064900F07F
:10128000070208684FF6FF03184040EA0220034AAD
:1012900010430860704700000CED00E00000FA0504
:1012A0002DE9F0470E46050065D0DFF81481D8F827
:1012B0000000F7B200F00700B04207D288F80070D3
:1012C000D8F8000000F00700B04254D128683D4C27
:1012D000810712D5400703D5206840F4E050206014
:1012E0002878000703D5206840F46040206020681B
:1012F000A96820F0F000084320602878C0072DD0AE
:10130000304968680839012812D0022813D0032810
:1013100011D00968890700292DDA216821F003011D
:1013200001432160FFF7FEFE814641F2883A0EE05C
:1013300009688903EFE709688901ECE7FFF7F2FE26
:10134000A0EB0901514502D90320BDE8F0872068D0
:10135000696800F00C00B0EB810FEFD1D8F80010F5
:10136000404601F00701B14207D90770006800F05C
:101370000700B04201D00120E7E72878400705D5F3
:101380002068E96820F4E0500843206028780007CE
:1013900006D52068296920F4604040EAC100206039
:1013A00000F05EF82168084AC1F30311515CC8409F
:1013B0000649086006480068FFF7DCFE0020C4E725
:1013C000003C024008380240C0D600083800002027
:1013D000300000200F2202600C4A136803F0030360
:1013E0004360136803F0F0038360136803F4E05371
:1013F000C36012684FF4E05303EAD202026104486A
:10140000006800F0070008607047000008380240DC
:10141000003C02400148006870470000380000208E
:101420000448054900680968044AC1F38221515CF7
:10143000C84070473800002008380240D0D6000865
:101440000448054900680968044AC1F34231515C07
:10145000C84070473800002008380240D0D6000845
:10146000154810B5006810F00C02144813D0411054
:10147000042A0FD0082A0ED10F4C241F226823689B
:1014800002F03F025B0207D52068C0F38810A0FB82
:10149000010106E0084610BD2168C1F38811A1FBD7
:1014A00000010023FEF7ECFE2168C1F30141491C55
:1014B0004900B0FBF1F010BD083802400024F400F0
:1014C0002DE9F84F04006ED02078DFF84C93C00768
:1014D000A9F104054AD009F104000168C1F38101B2
:1014E000012908D00068C0F3810002280AD1D9F888
:1014F0000000400206D52868800337D560680028C0
:10150000E1D033E06068B0F5803F10D0B0F5A02F97
:10151000286810D020F480302860286820F48020CB
:1015200028606068A8B1FFF7FDFD06460DE0286859
:1015300040F48030F4E740F480202860F7E700BFF3
:10154000FFF7F0FD801B642873D828688003F7D567
:101550000CE0FFF7E7FD064605E000BFFFF7E2FD00
:10156000801B6428F0D828688003F7D42078DFF83F
:10157000AC8280074FF0000A3ED5A748001D0168E5
:1015800011F00C0F08D00068C0F3810002280BD1C5
:10159000D9F80000400207D42868800716D5E06813
:1015A000012800D112E033E1E068B8B10120C8F8A9
:1015B0000000FFF7B7FD064605E000BFFFF7B2FDEC
:1015C000801B0228C0D828688007F7D528682169C1
:1015D00020F0F80040EAC10028600DE0C8F800A043
:1015E000FFF7A0FD064604E0FFF79CFD801B0228E4
:1015F0001FD828688007F7D42078000722D5864FA7
:1016000087486169703771B101210160FFF78AFD78
:10161000064604E0FFF786FD801B022809D83868DB
:101620008007F7D50EE0C0F800A0FFF77BFD064667
:1016300005E082E0FFF776FD801B02287DD8386840
:101640008007F7D42078400768D5DFF8CCB10027B1
:101650000BF13C0BDBF80000C0000BD4DBF80010F2
:1016600041F08051CBF80010DBF80000012700F0BA
:10167000805000906B4E3068C00510D4306840F444
:1016800080703060FFF74EFD009005E0FFF74AFDE7
:101690000099401A022850D83068C005F6D55E4E31
:1016A000A0686C3601280FD00528306810D020F0D3
:1016B00001003060306820F004003060A068B8B1EC
:1016C000FFF730FD00900FE0306840F00100F4E7D4
:1016D00040F004003060F7E7FFF724FD0099411A5D
:1016E00041F28830814266D830688007F4D50EE038
:1016F000FFF718FD009007E0FFF714FD0099411A6D
:1017000041F28830814256D830688007F4D42FB136
:10171000DBF8001021F08051CBF80010A069C8B3AD
:101720003D49091D0968C1F3810102294AD00228F7
:10173000504607D0C8F8600000E03CE0FFF7F2FC3C
:1017400004463BE04746C8F86000FFF7EBFC06465E
:1017500005E000BFFFF7E6FC801B02282BD82868B5
:101760008001F7D4D4E907010843A16A2E4A490849
:1017700002EB0141626A41EA8211084394F82C109D
:1017800040EA0161C9F8001001203866FFF7CAFC81
:10179000044606E03EE000BFFFF7C4FC001B022841
:1017A00009D828688001F7D534E000BFFFF7BAFCFC
:1017B000001B022802D90320BDE8F88F28688001A9
:1017C000F4D427E00128F7D0D9F80000E26900F44A
:1017D000800191421CD1226A00F03F01914217D151
:1017E00047F6C071626A0140B1EB821F10D1A26A54
:1017F0004FF0FF3300F4403103EB5202B1EB024FE4
:1018000006D194F82C1000F07060B0EB016F01D09D
:101810000120D1E70020CFE7043802400000474212
:10182000800E4742007000400000FFFF7047704785
:1018300010B5040003D094F83D0010B107E001207A
:1018400010BD002084F83C00204600F01EF8022065
:1018500084F83D00211D206800F01AFB012084F867
:10186000460084F83E0084F83F0084F8400084F885
:10187000410084F8420084F8430084F8440084F86E
:10188000450084F83D00002010BD704790F83D10E1
:10189000012901D001207047022180F83D10016824
:1018A000CA6842F00102CA6000681149884214D037
:1018B000B0F1804F11D00F4988420ED00E498842B6
:1018C0000BD00E49884208D00D49884205D00D49F9
:1018D000884202D00C49884204D1816801F0070196
:1018E000062903D0016841F0010101600020704722
:1018F000000001400004004000080040000C0040CF
:10190000000401400040014000180040704770B5DD
:101910000446006801694FF00005C943890715D4E2
:10192000C168C943890711D4E91E016101202077EC
:10193000206880698007204602D0FFF7E7FF04E0B7
:1019400000F098F8204600F096F8257720680169A5
:10195000C943490717D4C168C943490713D46FF075
:1019600004010161022020772068806910F4407F23
:10197000204602D0FFF7CAFF04E000F07BF82046C3
:1019800000F079F8257720680169C943090716D462
:10199000C168C943090712D46FF00801016104202E
:1019A00020772068C0698007204602D0FFF7AEFF8D
:1019B00004E000F05FF8204600F05DF8257720682D
:1019C0000169C943C90617D4C168C943C90613D4FC
:1019D0006FF010010161082020772068C06910F4C1
:1019E000407F204602D0FFF791FF04E000F042F86C
:1019F000204600F040F8257720680169C943C907EF
:101A000008D1C168C943C90704D1891E01612046B4
:101A100000F032F820680169C943090609D4C16899
:101A2000C943090605D46FF0800101612046FFF724
:101A3000FDFE20680169C943490609D4C168C9434C
:101A4000490605D46FF040010161204600F01EF800
:101A500020680169C94389060BD4C168C943890656
:101A600007D46FF0200101612046BDE87040FFF708
:101A7000DEBE70BD7047704700680349884201D1DF
:101A8000FFF756BB7047000000000140704770B57B
:101A9000040004D094F83D00002510B106E00120B8
:101AA00070BD84F83C50204600F022F8242084F8D1
:101AB0003D002068C16821F40051C160204600F05B
:101AC0004BFA2068016921F4904101612068416965
:101AD00021F02A0141612068C16841F40051C160D0
:101AE0002564202084F83D0084F83E00002070BD6D
:101AF00010B586B0044614216846FEF72CFC144944
:101B00002068884221D11348016841F0100101602A
:101B1000006800F0100005900E481438016841F08C
:101B2000010101600068694600F0010005904FF472
:101B3000C0600090022001900120029003200390D9
:101B4000072004900448FFF7F1F906B010BD00002B
:101B5000001001404438024000000240FEE700004F
:101B600000B587B01C2206496846FEF7CDFB002170
:101B7000684603F061FF0349086007B000BD00003C
:101B80006CD6000800000020F0B587B0142168462C
:101B9000FEF7E1FB2A480025016841F020010160C1
:101BA000016801F020010591016841F080010160A8
:101BB000016801F080010591016841F004010160B4
:101BC000016801F004010591016841F00101016023
:101BD000016801F001010591016841F0080101600F
:101BE000016801F008010591016841F040010160C0
:101BF0000068144E00F040004FF4C06405900122CC
:101C000021463046FFF788FA0F4F01220821384657
:101C1000FFF782FA009401240220CDE902406946D0
:101C200001943046FFF782F908208DE83100032047
:101C3000039069463846FFF779F907B0F0BD000018
:101C40003038024000140240000C0240F0B5444C11
:101C50008DB00A20207060700121A1701622E27000
:101C6000251DFF222A706A70AA7000272E1DEF70B2
:101C700030707070B170F170394638460AF09AF8D9
:101C80002068E17803BA0A0603F47F4342EA03229C
:101C900003BA00BA03F47F03084342EA1322A4F113
:101CA0000C0142EA106008602868E97803BA0A0665
:101CB00003F47F4342EA032203BA00BA03F47F032A
:101CC000084342EA1322A4F1080142EA10600860C6
:101CD0003068F17803BA0A0603F47F4342EA03222C
:101CE00003BA03F47F0300BA42EA1322084342EA2C
:101CF0001060211F231F08601A481B490097CDE977
:101D000001101A1F111F194803F098F9174803F022
:101D1000AFFB164C94F82D004007204602D503F087
:101D2000BBFC01E003F0AAFB1149104803F0FAFBE9
:101D30000A9701210AA80B9703F004FE08491C2208
:101D4000103908601C31C1E900400A4903A8FEF7B8
:101D5000DBFA034903A80C3103F06EFE0DB0F0BDB1
:101D60001400002085BF0008F5300008CC030020D7
:101D7000F931000888D600080C4810B50A490160FE
:101D80004FF4E1314160002181600C22C160C0E963
:101D900004128161C161FFF77AFE002803D0BDE81B
:101DA0001040FEF725BC10BD00100140E8340020B3
:101DB000FEE77047FFF74AFF012003F0BDFCFBE799
:101DC00010B5502080F31188BFF34F8FBFF36F8F92
:101DD0000BF0B8FA18B104494FF0805008600020A9
:101DE00080F3118810BD000004ED00E030B593B021
:101DF00030216846FEF7AFFA14210CA8FEF7ABFAC3
:101E00001A480025016841F080510160006800F027
:101E1000805011901648016841F4804101600068CB
:101E2000022400F4804011900120009000040190F1
:101E30008001CDE90640082008904FF4A870CDE954
:101E4000090404200B906846FFF73AFB0CA90F2009
:101E500081E831004FF4A0500F90E002109005216E
:101E60000CA8FFF71DFA13B030BD00004038024047
:101E7000007000400248016841F470010160704741
:101E800088ED00E00148FFF742BD00002C3500203E
:101E9000F0B50268254C264D264E274F274B4FF0B4
:101EA000804CA04209D0604507D0A84205D0B0427E
:101EB00003D0B84201D0984204D122F0700E4A6893
:101EC00042EA0E02A0421BD0604519D0A84217D0AA
:101ED000B04215D0B84213D0984211D0184DA84244
:101EE0000ED0184DA8420BD0174DA84208D0174D60
:101EF000A84205D0164DA84202D0164DA84203D1E3
:101F000022F44075CA682A434D6922F080022A43B0
:101F100002608A68C2620A688262A04201D0984266
:101F200001D10969016301214161F0BD0000014057
:101F30000004004000080040000C00400004014084
:101F400000400140004401400048014000180040AA
:101F5000001C00400020004070B504460068016984
:101F6000E26821F44051114301612169A068E269EE
:101F700008436169114308432168CA6849F20C6348
:101F80009A430243CA6020684169A26921F4407102
:101F90001143416131492068884202D0304988426A
:101FA00002D1FFF74DFA01E0FFF73AFAE2690023A8
:101FB000192164253226B2F5004F626828D0A0FBB3
:101FC0000101930F9200FEF75BF90146B0FBF5F0BB
:101FD0006FF01802504301EB800006EB0010B0FBDD
:101FE000F5F000F0F002B1FBF5F002EB0012B1FBEE
:101FF000F5F06FF01803584301EB800006EB00107A
:10200000B0FBF5F000F00F0021681044886070BD4F
:10201000A0FB010192185B41FEF732F90146B0FBCB
:10202000F5F00201B1FBF5F06FF01803584301EB36
:10203000800006EBC000B0FBF5F000F0F80002EB0A
:102040004002B1FBF5F0584301EB800006EBC00005
:10205000B0FBF5F000F00700D6E7000000100140EB
:1020600000140140FEE700000FB4054B10B503A9B2
:10207000044A029800F028F810BC5DF814FB000038
:10208000AD320008740100200907090E002804DBA6
:1020900000F1E02080F80014704700F00F0000F11C
:1020A000E02080F8141D704702E008C8121F08C124
:1020B000002AFAD170477047002001E001C1121FC9
:1020C000002AFBD1704700002DE9FF4F8BB09A46E4
:1020D0000F460546002606E025280BD052460D99EE
:1020E00090476D1C761C28780028F5D10FB030463B
:1020F000BDE8F08F0024A0460122604900E00443BF
:1021000015F8013F203B02FA03F00842F7D1287886
:102110002E2817D115F8010F44F004042A280ED0F8
:102120006FF02F022878A0F1300109290AD808EBB6
:10213000880102EB410100EB01086D1CF2E757F842
:10214000048B6D1C287869283ED006DC0028CDD091
:1021500063280BD0642804D136E0732810D075288A
:102160004BD052460D999047761C85E017F8040B2A
:102170008DF8000000208DF80100E946012003E001
:1021800057F8049B4FF0FF3061074FF0000401D473
:102190000AE0641C44450DDA8442FADB19F80410A5
:1021A0000029F6D106E0641C8442FCDB19F8041017
:1021B0000029F8D1264404E019F8010B52460D9984
:1021C0009047641EF8D257E001CF4FF00A0B002869
:1021D00002DA40422D2102E0210504D52B218DF8A1
:1021E0002410012103E0E10705D02021F7E70DF1DC
:1021F000200908910CE00021F9E701CF4FF00A0B0C
:10220000F9E75946FEF7BFF801F1300209F8012D50
:102210000028F6D1ADEB090000F1200B600701D4D6
:102220004FF00108D84502DDA8EB0B0000E00020CC
:102230008046002406E009A85246005D0D999047AB
:10224000641C761C08988442F5DB04E0302052467A
:102250000D999047761CB8F10001A8F10108F5DC52
:1022600005E019F8010B52460D999047761CBBF119
:102270000001ABF1010BF4DC6D1C34E7092801000F
:1022800070B505460C46880706D009A34FF4B67210
:1022900013A11BA0FFF7E8FE04F070FEA96809680F
:1022A0002160A9680C60BDE8704004F073BE0000B6
:1022B0002E2E2F4D6964646C6577617265732F549F
:1022C000686972645F50617274792F4C7749502F3E
:1022D0007372632F636F72652F6D656D702E63006F
:1022E0006D656D705F667265653A206D656D207015
:1022F000726F7065726C7920616C69676E656400DD
:10230000417373657274696F6E2022257322206693
:1023100061696C6564206174206C696E6520256458
:1023200020696E2025730A0070B5044604F026FE6D
:102330000546A0680468002C0FD021680160A00742
:1023400006D008A34FF48C7212A11BA0FFF78CFEDD
:10235000284604F01FFE204670BD284604F01AFEF1
:10236000002070BD2E2E2F4D6964646C65776172FC
:1023700065732F54686972645F50617274792F4C71
:102380007749502F7372632F636F72652F6D656D80
:10239000702E63006D656D705F6D616C6C6F633A7C
:1023A000206D656D702070726F7065726C79206140
:1023B0006C69676E65640000417373657274696F60
:1023C0006E2022257322206661696C656420617429
:1023D000206C696E6520256420696E2025730A00D3
:1023E00070B5094D0646002404EB440005EBC0001F
:1023F000017D29B18068B04202D1204600F036F953
:10240000641C0A2CF0DB70BD2C2F01202DE9F74F46
:1024100084B04FF00A0B00240646DA465F46D946E0
:1024200002940194CDF80040514904EB440001EBC3
:10243000C008039098F814500A2F1DD0002D2AD000
:10244000012D08D0022D06D24AA340F2231257A133
:1024500066A0FFF709FE9EB13168D8F804008142FA
:102460000ED1069820B1D8F808100698814207D1FD
:10247000204607B0BDE8F08F002DE1D127460AE0E5
:10248000012D16D0022D06D3B8F81200009988420B
:1024900001D3A2460090641C24B20A2CC4DB059828
:1024A00081074FF0FF30E4D40A2F16D018DA3C46EB
:1024B0003EE02F49039851F830000028B8F8120088
:1024C00005D002998842E6D3A1460290E3E701993C
:1024D0008842E0D3A3460190DDE70599C907C8D03B
:1024E0005146BAF10A0F0EDA0C46214801EB4401BD
:1024F00050F8310080B11FA340F26D1245A13BA0FE
:10250000FFF7B2FD08E05946BBF10A0F03DB49466D
:10251000B9F10A0FADDA0C460A2C06DB15A340F21E
:102520007F1242A131A0FFF79FFD204600F09EF8E8
:102530000A2C06DB0FA340F283123CA12BA0FFF76D
:1025400093FD0B4804EB440100EBC105287D30B13D
:1025500008A34FF4C2723AA124A0FFF785FD0EB183
:1025600030686860002068820698A86080E70000F4
:102570002C2F01202E2E2F4D6964646C65776172BB
:1025800065732F54686972645F50617274792F4C5F
:102590007749502F7372632F636F72652F6970765E
:1025A000342F6574686172702E63000073746174F7
:1025B00065203D3D204554484152505F535441549D
:1025C000455F50454E44494E47207C7C20737461E2
:1025D0007465203E3D204554484152505F5354415C
:1025E00054455F535441424C4500000041737365AC
:1025F0007274696F6E2022257322206661696C6592
:1026000064206174206C696E6520256420696E20E9
:1026100025730A006172705F7461626C655B695D4D
:102620002E71203D3D204E554C4C000069203C2031
:102630004152505F5441424C455F53495A45000056
:102640006172705F7461626C655B695D2E73746149
:102650007465203D3D204554484152505F535441DC
:1026600054455F454D5054590000000070B5074C6B
:1026700000EB4005002654F8350018B103F078FE51
:1026800044F8356004EBC500067570BD2C2F0120A1
:102690002DE9F04385B00D00074609D07C684FF462
:1026A00080782088404539D12079062836D109E044
:1026B0001CA340F28A2229A12CA0FFF7D5FC05B06B
:1026C000BDE8F0836079042828D16088082825D1E6
:1026D000D4F80E000490A169686820B1814202D14B
:1026E0000126334601E00026022304F10802914648
:1026F00004A9284600F0A2FBE08840450ED16EB147
:10270000022204ABCDE90232291DCDE9001905F101
:10271000260319464A46284600F090FA384603F048
:1027200027FECCE72E2E2F4D6964646C65776172AD
:1027300065732F54686972645F50617274792F4CAD
:102740007749502F7372632F636F72652F697076AC
:10275000342F6574686172702E6300006E65746951
:102760006620213D204E554C4C000000417373659E
:102770007274696F6E2022257322206661696C6510
:1027800064206174206C696E6520256420696E2068
:1027900025730A00FEB515460E46040006D143A374
:1027A00040F21E324FA153A0FFF75EFC36B93FA3A3
:1027B00040F21F3259A14FA0FFF756FC35B93BA399
:1027C0004FF4487258A14BA0FFF74EFC21462868F1
:1027D00000F000FF08B1584B3FE02868C0F3031138
:1027E0000E2925D0A168636800EA01020B409A42D5
:1027F00008D080B2A0F57E41A93903D0E068B0B31B
:1028000004F10C054D4B4E481A7802EB420100EBE7
:10281000C1010F7D022F2ED38F68A7422BD12F68C5
:1028200049688F4227D13146204600F08BF8FEBD23
:1028300001208DF8040000208DF805005E208DF841
:102840000600687801AB00F07F008DF80700A878DB
:102850008DF80800E8788DF809004FF400600090CA
:1028600004F126023146204600F0C8FBFEBDFFE71A
:102870006FF00300FAE7002202EB420100EBC10116
:102880000F7D022F08D38F68A74205D12F684968B2
:102890008F4201D11A70C6E7521CD2B20A2AEBD37A
:1028A00032462946204600F0D5F8DFE72E2E2F4D80
:1028B0006964646C6577617265732F5468697264CA
:1028C0005F50617274792F4C7749502F7372632F68
:1028D000636F72652F697076342F657468617270EA
:1028E0002E6300006E6574696620213D204E554CB4
:1028F0004C000000417373657274696F6E2022256D
:102900007322206661696C6564206174206C696E55
:102910006520256420696E2025730A007120213D01
:10292000204E554C4C000000697061646472202197
:102930003D204E554C4C0000D8D6000860010020C8
:102940002C2F01202DE9F8430646154688461C48E1
:1029500002EB450100EBC104207D022806D219A339
:1029600040F2EE2225A131A0FFF77EFB144A05EBD1
:102970004501207D02EBC1050C35022813D1608A88
:102980000327B0F58E7F04D9211D304600F010FAE0
:1029900007E0B0F5877F06D32A46211D304600F0B8
:1029A0000DFA00B927754FF4006000902B4606F130
:1029B00026024146304600F021FBBDE8F8830000C6
:1029C0002C2F01202E2E2F4D6964646C6577617267
:1029D00065732F54686972645F50617274792F4C0B
:1029E0007749502F7372632F636F72652F6970760A
:1029F000342F6574686172702E6300006172705FBD
:102A00007461626C655B6172705F6964785D2E737E
:102A100074617465203E3D204554484152505F53D7
:102A2000544154455F535441424C450041737365D2
:102A30007274696F6E2022257322206661696C654D
:102A400064206174206C696E6520256420696E20A5
:102A500025730A002DE9FC5F8246263001900E4660
:102A6000086814464FF0FF374FF0000B514600F056
:102A7000B1FD80B93068C0F303110E290BD056B1F7
:102A800048B1524601213046FFF7C0FC050005D58C
:102A900040B2BDE8FC9F6FF00F00FAE77F2D06D330
:102AA00037A340F2C13244A147A0FFF7DDFA05F099
:102AB000FF094F4909EB490801EBC805287D0028AB
:102AC0000ED0012808D0022806D22DA340F2CD3224
:102AD00048A13DA0FFF7C8FABBF1000F06D104E002
:102AE00001202875C5F808A000E034B931465046E9
:102AF00000F05EF90746002CCBD0287D3C4E022822
:102B00000ED346494FF4006005F10C0381F80090A4
:102B1000009021465046019A00F070FA07462DE0D9
:102B200001282BD1254640F2F1376889298988424E
:102B300007D1286828B112A33A4639A122A0FFF78D
:102B400093FA287B400607D522464FF420710E20C9
:102B500003F044FA044605E02D68002DE5D1204637
:102B600003F084FD44B156F8380008B103F000FCCE
:102B700046F83840002701E04FF0FF37384688E735
:102B80002E2E2F4D6964646C6577617265732F54C6
:102B9000686972645F50617274792F4C7749502F65
:102BA0007372632F636F72652F697076342F65744B
:102BB000686172702E63000074797065206F7665AD
:102BC00072666C6F77000000417373657274696F91
:102BD0006E2022257322206661696C656420617411
:102BE000206C696E6520256420696E2025730A00BB
:102BF0002C2F01206172705F7461626C655B695D8E
:102C00002E7374617465203D3D2050454E44494EFD
:102C100047206F7220535441424C45006001002010
:102C20006E6F207061636B65742071756575657377
:102C300020616C6C6F776564210000002DE9FF4F07
:102C400081B09846DDE90FA9DDF838B006004FF0F5
:102C5000000706D12CA340F2574239A13CA0FFF750
:102C600003FA4FF420721C210E2002F073FF0500BE
:102C700046D068891C2806D223A340F262423EA1B6
:102C800033A0FFF7F1F96C68119801F083FDE08043
:102C900096F82C00062806D01BA340F2694243494F
:102CA0002BA0FFF7E1F9D8F80010A160B8F80400F4
:102CB000A081DAF80010C4F81210BAF80400E0821B
:102CC000DBF80000C4F80E00D9F80000A0614FF452
:102CD00080702080082060800620207104206071B0
:102CE00040F60600DDE9022300902946304600F058
:102CF00085F9284603F03CFB384605B0BDE8F08F67
:102D00004FF0FF30F9E700002E2E2F4D6964646C00
:102D10006577617265732F54686972645F50617280
:102D200074792F4C7749502F7372632F636F7265DC
:102D30002F697076342F6574686172702E6300009D
:102D40006E6574696620213D204E554C4C00000094
:102D5000417373657274696F6E2022257322206639
:102D600061696C6564206174206C696E65202564FE
:102D700020696E2025730A00636865636B207468A0
:102D80006174206669727374207062756620636175
:102D90006E20686F6C642073747275637420657440
:102DA000686172705F6864720000000028D90008D2
:102DB000014A00F003B80000D8D600087FB5064DE0
:102DC000031D0124CDE90035CDE902142233194653
:102DD000FFF734FF04B070BDDED6000870B5164DA5
:102DE000002400BF04EB440005EBC002117DF1B1EB
:102DF000508A401C80B25082B0F5967F0AD20129D9
:102E000006D003290AD004290AD001290BD00EE0EC
:102E1000052808D32046FFF729FC08E0042000E03D
:102E20000220107503E0111D9068FFF7C1FF641CBC
:102E30000A2CD7DB70BD00002C2F0120F8B504460A
:102E400090F82C001F4616460D46062806D020A3F3
:102E500040F2A9122CA135A0FFF706F99DB1286810
:102E600088B1214600F0B6FB68B92878C0F303109A
:102E70000E2808D0224639462846FFF7C7FA002810
:102E800004DA40B2F8BD6FF00F00F8BD00EB40016E
:102E90003048022300EBC102137594603368D3609D
:102EA000B38813820023538250F8315075B140F833
:102EB00031304FF400600090334604F12602294679
:102EC000204600F09BF8284603F052FA0020F8BD97
:102ED0002E2E2F4D6964646C6577617265732F5473
:102EE000686972645F50617274792F4C7749502F12
:102EF0007372632F636F72652F697076342F6574F8
:102F0000686172702E6300006E657469662D3E689C
:102F100077616464725F6C656E203D3D2045544866
:102F20005F4857414444525F4C454E0041737365BE
:102F30007274696F6E2022257322206661696C6548
:102F400064206174206C696E6520256420696E20A0
:102F500025730A002C2F01202DE9F04104464089F9
:102F60000E270D460E283CD9E07B18B995F83000A5
:102F7000401CE073606801788689CA0714D0012973
:102F800005D006221C49FDF7F1F948B10CE0417863
:102F900051B980785E2807D1607B40F0100002E0D4
:102FA000607B40F008006073082E03D0B6F5C16F57
:102FB00017D10DE095F82D00000712D539462046AF
:102FC00003F0A2FB68B92946204600F04BFC10E054
:102FD00095F82D00000704D53946204603F094FBF0
:102FE00018B1204603F0C4F903E029462046FFF754
:102FF0004FFB0020BDE8F081D8D600082DE9F04154
:1030000004461F4690460E46069801F0C3FB05464F
:103010000E21304602F03AFD18B16FF00100BDE814
:10302000F0817068858139680160B9888180D8F83D
:103030000020C0F80620B8F80410418194F82C0054
:10304000062806D006A34FF4997213A11FA0FFF71C
:103050000BF831462046A269BDE8F0411047000058
:103060002E2E2F4D6964646C6577617265732F54E1
:10307000686972645F50617274792F4C7749502F80
:103080007372632F6E657469662F65746865726EFE
:1030900065742E63000000006E657469662D3E68DD
:1030A00077616464725F6C656E206D757374206205
:1030B00065203620666F722065746865726E65746F
:1030C0005F6F757470757421000000004173736543
:1030D0007274696F6E2022257322206661696C65A7
:1030E00064206174206C696E6520256420696E20FF
:1030F00025730A0010B5040006D10BA34FF4067225
:103100000EA112A0FEF7B0FF732084F82E007420E9
:1031100084F82F00174860611748A061204601F02D
:10312000E9F9002010BD00002E2E2F5372632F6589
:10313000746865726E657469662E63006E65746985
:103140006620213D204E554C4C00000041737365B4
:103150007274696F6E2022257322206661696C6526
:1031600064206174206C696E6520256420696E207E
:1031700025730A0095270008AD4600080B4E04464B
:103180004FF0FF373946306802F024FC0028F9D1AF
:10319000204601F02BFA0500F4D022692146904721
:1031A0000028F5D0284603F0E3F8F1E728000020D6
:1031B0007047000008B50446002000906A460121CF
:1031C0000C48FDF725FD009800F0040000902168F0
:1031D00091F82D20520704D438B1084602F0FCF9CA
:1031E00003E010B9084602F0A1F9C82002F0A4FAE1
:1031F000E4E70000A03400202DE9FC41002506464C
:103200000195009590F82D00400745D5264C606843
:1032100078B34FF4805200212046FDF74BFEFDF7B6
:1032200081FF4FF47A7701906A4601211E48FDF72D
:10323000EFFCFDF777FF0199401AB8421AD80098C1
:103240008006F1D56A4611211748FDF7E1FC009888
:10325000810403D54FF40061E16000E0E56044F2D1
:103260001001084201D0A5600EE04FF48040A0603C
:103270000AE0FFE7E068A168C00840EA510082B2B6
:1032800000210948FDF716FE00210748FDF7C4F9A3
:103290000548FDF705FD02E00348FDF743FD304614
:1032A000FFF786FFBDE8FC81A034002003490A68CF
:1032B0005206FCD5C2B24A607047000000100140BF
:1032C0000A46032100F0F4B82DE9FE4F8A4644492E
:1032D0000446D1F8088098F800000007850E142DE8
:1032E00079D36089042876D360680078002872D08A
:1032F000082870D1486901F11407C0F303120E2A9F
:1033000069D08946096800F065F9002863D12089F1
:10331000082860D305F10E010E46204602F0B6FBE8
:10332000002830D02089411989B2884253D84FF4FF
:1033300020720E2002F00EFC06004CD0718905F1BF
:103340000800814216D32A4641467068FCF7DCFF2C
:103350002946304603F0D8F9002806D021A3B6222A
:103360002EA13CA0FEF780FE04E02146304602F08C
:1033700083FE18B1304602F0FBFF2CE0204602F03D
:10338000F7FF34460CE03146204603F0BDF9002833
:1033900006D014A3C72239A12EA0FEF765FE1AE0BD
:1033A00029462046666802F071FBA0B9606839685A
:1033B000FF22C160D9F810100161002131707180C5
:1033C0000272418101228DE806040A46FF23394634
:1033D000204600F017FB2046BDE8FE4F02F0C8BFB4
:1033E00064D600202E2E2F4D6964646C657761725F
:1033F00065732F54686972645F50617274792F4CE1
:103400007749502F7372632F636F72652F697076DF
:10341000342F69636D702E630000000069636D7066
:103420005F696E7075743A206D6F76696E67207291
:103430002D3E7061796C6F616420746F2069636DDB
:103440007020686561646572206661696C65640AF4
:1034500000000000417373657274696F6E2022254D
:103460007322206661696C6564206174206C696EEA
:103470006520256420696E2025730A0069636D70DC
:103480005F696E7075743A20726573746F72696EDD
:1034900067206F726967696E616C20702D3E706184
:1034A000796C6F6164206661696C65640A00000074
:1034B0002DE9FF479146884606464FF420722421A5
:1034C000222002F047FB050031D06889242806D26B
:1034D00018A34FF4B47225A12FA0FEF7C5FD6C68A8
:1034E00077681C2284F8008084F801904FF000086F
:1034F000A4F80480A4F80680686871680830FCF7B6
:1035000003FFF868039003A800F08CFC60B1A4F8F6
:1035100002800122CDF80080CDE90120FF2303AA1B
:103520000021284600F06EFA284602F021FFBDE88F
:10353000FF8700002E2E2F4D6964646C65776172E1
:1035400065732F54686972645F50617274792F4C8F
:103550007749502F7372632F636F72652F6970768E
:10356000342F69636D702E6300000000636865632B
:103570006B20746861742066697273742070627560
:10358000662063616E20686F6C642069636D7020D3
:103590006D65737361676500417373657274696FFC
:1035A0006E2022257322206661696C656420617437
:1035B000206C696E6520256420696E2025730A00E1
:1035C0000A460B21FFF774BFEFF30580002800D0F7
:1035D00001207047421C12D088B191F82D2092072B
:1035E0000BD54B68834208D0896800EA01020B4082
:1035F0009A4202D10143491C01D0002070470120AA
:10360000704700002DE9F74F88B00446099800255F
:103610001426808CAF1F1438C11700EB5170C0F313
:10362000CF00039060680690017801F00F01052932
:1036300003D038460BB0BDE8F08F6189142907D25A
:103640005BA34FF43F7269A16FA0FEF70DFDF0E799
:10365000C08801F09FF8C0F30C0100F40050029103
:103660000790208914381FFA80F88EE003984FF6EF
:10367000FF7101EAC0004146404500D90846049068
:103680004FF4207214210E2002F064FA5FEA000A5F
:103690007ED0BAF80A00142806D245A34FF4497226
:1036A00063A159A0FEF7E0FC1422DAF804000699A1
:1036B000FCF72AFEDAF804000590049F35E06089E3
:1036C000811B8DB2B04206D239A340F22D3260A1E7
:1036D0004DA0FEF7C9FCAF4200D23D461DB3052008
:1036E00001F05AFC5FEA000957D060684B4630444D
:1036F000CDE9000541222946002002F0B1FB5FEA36
:10370000000B50D0204602F0B1FF5549C9E904141E
:103710005946504602F0C0FB781B07043F0C06D008
:1037200000262468CBE724680026002FC7D1701933
:1037300086B20998808C143840450298C0F30C007A
:1037400001DB079909B140F4005001F023F8059915
:10375000C8800498143080B201F01CF805994880A4
:10376000059800214181099851460A9A4369984772
:10377000504602F0FDFD0499A8EB01001FFA80F805
:10378000DDE90201084480B20290B8F1000F00E0C8
:1037900006E07FF46BAF00204CE7504602F0E8FDF6
:1037A0004FF0FF3046E7484600F06CFBF5E70000BD
:1037B0002E2E2F4D6964646C6577617265732F548A
:1037C000686972645F50617274792F4C7749502F29
:1037D0007372632F636F72652F697076342F69700F
:1037E000345F667261672E63000000006970345FA9
:1037F0006672616728293A207062756620746F6F5F
:103800002073686F72740000417373657274696F1E
:103810006E2022257322206661696C6564206174C4
:10382000206C696E6520256420696E2025730A006E
:1038300074686973206E65656473206120706275B9
:103840006620696E206F6E65207069656365210072
:10385000702D3E6C656E203E3D20706F66660000E8
:103860005D4400082DE9F047456807460E46287874
:103870000421B1EB101F03D0384602F079FD77E048
:1038800000074FEA9068688800F084FF0446388992
:10389000A04203D92146384602F04EFE79894145BF
:1038A000EAD33889A042E7D3B8F1140FE4D32969E9
:1038B000DFF81C91C1F303100E28C9F81410EA6850
:1038C000C9F8102005D0304600F086F850B13446D3
:1038D00019E096F82D00C00702D070680028F6D1D4
:1038E000002410E099F8140000247F280BD03948F8
:1038F000046806E0B44203D0204600F06DF810B929
:103900002468002CF6D13146D9F81000FFF762FE8A
:103910000028B1D199F81000C0F303100E28ABD0E5
:10392000002CA9D0E88830F0C00005D0384600F05F
:1039300035F907001CD07D68C9F80850C9E9004670
:10394000297838460907890EA9F80C10414602F07B
:10395000DBFE687A012818D0062811D011280AD079
:103960004D462146D9F81400FFF734FE90B11EE011
:103970000020BDE8F0873146384608F079FC19E0B0
:103980003146384604F01EFB14E031463846FFF756
:103990009BFC0FE0287DC0F303100E2807D04146A2
:1039A000384602F0B1FD02213846FFF789FC38465F
:1039B00002F0DEFC0021C9F80010C9F80410C9F8B3
:1039C0000810A9F80C10C9F81010C9F81410CFE7A6
:1039D00064D60020FC00002010B590F82D10C90717
:1039E0000CD0416851B1064A52698A4204D001465E
:1039F0001046FFF7EFFD08B1012010BD002010BDFB
:103A000064D60020FEB5DDE90954089E1AB109B15B
:103A10000F6807B9211D0096CDE9015400F002F8A6
:103A2000FEBD00002DE9F84F0546DDE90BA8807BBF
:103A3000DDF828B01F4616468946012806D02FA378
:103A40004FF455723AA13DA0FEF70EFB6FF0010452
:103A5000002E35D01421284602F018F8002832D163
:103A600068896C68142806D224A34FF462723DA1C1
:103A700032A0FEF7F9FA277284F809A030682061B5
:103A80004520207084F801B0288900F083FE414F62
:103A900060804FF0000AA4F806A0388800F07AFE93
:103AA000A0803888401C3880B9F1000F05D0D9F8C3
:103AB0000000E060A4F80AA00CE037480068F8E7CE
:103AC0006889142802D22046BDE8F88F68686E46DF
:103AD00000690090B8F8240040B12989814205D9D5
:103AE000324641462846FFF78DFDEDE7D8F8143001
:103AF0004046324629469847E6E700002E2E2F4DD5
:103B00006964646C6577617265732F546869726467
:103B10005F50617274792F4C7749502F7372632F05
:103B2000636F72652F697076342F6970342E63006D
:103B3000702D3E726566203D3D20310041737365F6
:103B40007274696F6E2022257322206661696C652C
:103B500064206174206C696E6520256420696E2084
:103B600025730A00636865636B207468617420665E
:103B70006972737420706275662063616E20686F6D
:103B80006C64207374727563742069705F6864720A
:103B9000000000006201002020D800082DE9F05F3D
:103BA00045688346287800F00F0005287DD1E88815
:103BB00000F0F0FDC004070C688800F0EBFD2978E8
:103BC0000907890E814270D8401A1FFA80F85846BA
:103BD00002F0FAF96A4C0646208830440A2809D9CE
:103BE0003146284600F0E4FB00285ED020883044AF
:103BF0000A28E8D8A14664684FF0000A0CE0606922
:103C0000E968884207D1A0692969884203D1A0895F
:103C1000A988884203D02468002CF0D106E02CB19A
:103C2000E88800F0B7FDC0041BD025E0042001F0B7
:103C3000B3F904000AD13146284600F0B9FBB0427E
:103C400033DB042001F0A8F90400CED02021FCF7DA
:103C500082FB0F20E077D9F804102160C9F80440F6
:103C600004E0E08900F096FDC00405D01422294646
:103C700004F10800FCF748FBA87940F340156D1CDF
:103C800008D007EB080080B2B84263D34FF6EB715F
:103C900088425FD82A465946204600F03BF9411C2D
:103CA00058D0B9F80020324400E064E0A9F80020C0
:103CB00035B107EB0801A183A17F41F00101A17794
:103CC000012845D1A08B1422143087B2606804F11A
:103CD0000801456828462E68FCF716FB384600F0B8
:103CE00059FD6880A5F806A0A5F80AA0656809E056
:103CF00014213046776802F007FD3146284602F06D
:103D0000CBF83E68002EF3D1D9F804104E468C4211
:103D100005D1002105E00868A04202D00146002933
:103D2000F9D1204600F01AFA284602F04DF904466F
:103D30003088A04206D213A340F29B2220A127A0E4
:103D4000FEF792F93088001B30802846BDE8F09FCE
:103D50000020FBE7606870B9D9F80400844206D0FF
:103D600008A340F2AB2227A11CA0FEF77DF9002199
:103D7000204600F0F3F9584602F0FAFAE8E70000AE
:103D8000640100202E2E2F4D6964646C657761728A
:103D900065732F54686972645F50617274792F4C37
:103DA0007749502F7372632F636F72652F69707636
:103DB000342F6970345F667261672E630000000003
:103DC00069705F72656173735F70627566636F754A
:103DD0006E74203E3D20636C656E00004173736518
:103DE0007274696F6E2022257322206661696C658A
:103DF00064206174206C696E6520256420696E20E2
:103E000025730A006E6F74206669727374616C7436
:103E1000686F756768206A75737420656E71756563
:103E20007565640070B50146144813E090F82D20C4
:103E3000D3070FD053070DD543685BB184680D6875
:103E4000234005EA04069E4216D0920702D4C268B7
:103E5000954211D000680028E8D10948006850B1A7
:103E600090F82D20D30706D0520704D5426812B12E
:103E700009787F2900D1002070BD0000FC000020DF
:103E80000001002010B5040006D106A34FF43172E2
:103E900013A116A0FEF7E8F82146BDE81040052062
:103EA00001F006B82E2E2F4D6964646C657761723F
:103EB00065732F54686972645F50617274792F4C16
:103EC0007749502F7372632F636F72652F69707615
:103ED000342F6970345F667261672E6300000000E2
:103EE0007020213D204E554C4C00000041737365FD
:103EF0007274696F6E2022257322206661696C6579
:103F000064206174206C696E6520256420696E20D0
:103F100025730A002DE9F05F4C68064693460F466C
:103F200000254FF00108608800F034FC21784FF044
:103F3000FF3A0907890E814231D8A0EB0109E088D8
:103F400000F028FCC0047C68010C0020206001EB1C
:103F5000090083B2A180E3808B4220D3726829E0FC
:103F60005068B0F804C0614515D222606DB1B5F853
:103F700006C0614513D38088834210D82F60A08883
:103F8000844506D04FF0000803E08088834206D8BD
:103F900077608AB12EE002D0C288914202D25046A8
:103FA000BDE8F09F25B1EA88624501D04FF00008D6
:103FB00002680546002AD3D195B1E888A1888842D5
:103FC00006D92AA34FF4DB7237A13FA0FEF74CF8C5
:103FD0002F60E888A18888420CD04FF0000809E0E3
:103FE000706830B121A34FF4DF7241A136A0FEF713
:103FF0003BF87760BBF1000F02D1B07FC007CFD094
:10400000B8F1000F30D07268002A2DD05068808837
:10401000002829D12168204629B14C68C088A18890
:104020008842F7D020E0B8F1000F1DD032B90FA3BD
:1040300040F2DF123CA124A0FEF716F87068406839
:10404000A04206D109A34FF4F07237A11EA0FEF7DB
:104050000BF8206830B105A34FF4F17236A11AA015
:10406000FEF702F801209BE7002099E72E2E2F4D46
:104070006964646C6577617265732F5468697264F2
:104080005F50617274792F4C7749502F7372632F90
:10409000636F72652F697076342F6970345F667252
:1040A00061672E6300000000636865636B206672C1
:1040B00061676D656E747320646F6E2774206F7610
:1040C00065726C6170000000417373657274696F92
:1040D0006E2022257322206661696C6564206174FC
:1040E000206C696E6520256420696E2025730A00A6
:1040F0006E6F2070726576696F7573206672616786
:104100006D656E742C2074686973206D75737420EE
:1041100062652074686520666972737420667261D6
:10412000676D656E7421000073616E697479206338
:104130006865636B0000000076616C69646174659A
:104140005F646174616772616D3A6E6578745F7007
:10415000627566213D4E554C4C00000070B504461A
:104160000C480D464168A14202D1216841600AE035
:10417000002D06D108A340F2451216A11CA0FDF7A0
:1041800073FF206828602146BDE87040042000F0DD
:104190008FBE0000640100202E2E2F4D6964646CD8
:1041A0006577617265732F54686972645F506172DC
:1041B00074792F4C7749502F7372632F636F726538
:1041C0002F697076342F6970345F667261672E6371
:1041D0000000000073616E69747920636865636B29
:1041E000206C696E6B6564206C697374000000005C
:1041F000417373657274696F6E2022257322206685
:1042000061696C6564206174206C696E6520256449
:1042100020696E2025730A002DE9F0470546002429
:104220000F46A94205D12FA3AB223DA13FA0FDF728
:104230001BFF002F08D03868A84205D029A3AD2263
:1042400044A13AA0FDF710FF6E684FF48038706803
:10425000818800291AD100686860142205F10801DC
:104260007068FCF751F801213046FFF7A9F9304694
:1042700001F0AAFE0446404505D31AA3BC223AA188
:104280002AA0FDF7F1FE304602F072F86E6812E0E7
:104290007068B1460668484601F096FE04444445FD
:1042A00005D310A3CC2230A120A0FDF7DDFEA4B2DF
:1042B000484602F05DF8002EEAD139462846FFF75D
:1042C0004DFF314D2888A04205D206A3D2222FA14E
:1042D00016A0FDF7C9FE2888001B28802046BDE8EF
:1042E000F08700002E2E2F4D6964646C6577617233
:1042F00065732F54686972645F50617274792F4CD2
:104300007749502F7372632F636F72652F697076D0
:10431000342F6970345F667261672E63000000009D
:104320007072657620213D2069707200417373655B
:104330007274696F6E2022257322206661696C6534
:1043400064206174206C696E6520256420696E208C
:1043500025730A00707265762D3E6E657874203D77
:104360003D2069707200000070627566735F66724E
:10437000656564202B20636C656E203C3D203078A1
:1043800066666666000000006401002069705F7266
:10439000656173735F70627566636F756E74203EDE
:1043A0003D2070627566735F66726565640000002B
:1043B0002DE9F0471D4F894606460024002213468A
:1043C00011461546786822E0D0F814C0D6F80C8063
:1043D000C4450BD1D0F818C0D6F81080C44505D11B
:1043E000B0F80CC0B6F80480C44509D06D1C2AB1E1
:1043F00090F81FC092F81F80C44501D802461946A4
:10440000D0F800C0BCF1000F00D003466046002881
:10441000DAD11AB11046FFF7FFFE04444C4501DA29
:10442000012DCBDC2046BDE8F087000064010020B0
:1044300070B50948002544680BE0E07F20B1401EBC
:10444000E0772546246804E0204624682946FFF7E3
:10445000E3FE002CF1D170BD6401002010B5040012
:1044600006D108A340F2CE2215A118A0FDF7FCFD4D
:10447000606908B101F07CFF2046BDE81040FFF7FD
:1044800001BD00002E2E2F4D6964646C657761724A
:1044900065732F54686972645F50617274792F4C30
:1044A0007749502F7372632F636F72652F6970762F
:1044B000342F6970345F667261672E6300000000FC
:1044C00070637220213D204E554C4C004173736542
:1044D0007274696F6E2022257322206661696C6593
:1044E00064206174206C696E6520256420696E20EB
:1044F00025730A0070B5384D04468CB035482860E5
:104500000120002668602E828DF81C6080218DF8C5
:104510001D10E1218DF81E108DF820608DF81F60B0
:104520008DF8216007A9C5E90510C005C5E9076038
:104530002846FCF701FA28B994F82D0040F0040051
:1045400084F82D000423254A25492348FCF736F931
:10455000234A04238032A2F580711F48FCF7F4F847
:10456000062084F82C0068690121007884F8260070
:104570006869407884F827006869807884F82800A2
:104580006869C07884F829006869007984F82A008D
:104590006869407984F82B0040F2DC50A08494F8DC
:1045A0002D0040F00A0084F82D00099609A80A960B
:1045B00001F0C8F90B491C2208600B496846FBF75B
:1045C000A3FE2146684601F037FA0348FCF768FB72
:1045D0000CB070BD00800240A0340020D01C002030
:1045E0008004002028000020A4D600082DE9F84F00
:1045F0000020044600902C48FCF71DF910B1002063
:10460000BDE8F88F2848818FD0F840900904090C44
:104610002FD04FF4C172002001F09CFA009040B3FB
:104620002148009D40F2F45BD0F830806E8900276D
:1046300010E000BFA4F2F4525242FBF765FED8F836
:104640000C008046D0F808903F1BAAF2F4560024D4
:1046500007F2F457686806EB040ADA4509EB04012F
:104660003844E7D83246FBF74FFE2D683444002D1E
:10467000DCD10D480022016B05E00B6843F00043DC
:104680000B60C968521C836B9342F6D8002181638A
:10469000006800F580504269120602D5802242610E
:1046A00081600098ACE70000A03400202DE9F05FA5
:1046B00027480D46C66A002083460446D6F808A05F
:1046C00031E0306800280CDB6F894FF0000818E0FB
:1046D000A4F2F4525242FBF717FEF6683068002845
:1046E00002DA6FF0070025E0D6F808A0A8EB040076
:1046F00000F2F458ABEB0400A9F2F45700F2F45BBB
:10470000002407EB040940F2F451894569680AEB7B
:1047100004004144DCD83A46FBF7F6FD0BEB0700FA
:104720002D683C448346002DCBD101460848FCF758
:104730003BFB00200649096801F580514A69920651
:1047400003D520224A6100224A60BDE8F09F0000A4
:10475000A034002010B504464068804702F08AFC6F
:10476000094A216852688B181A1AB2F1004F03D314
:1047700008442246054902E0044922461846BDE89D
:10478000104002F0F3BC00004C0100205547000827
:1047900000BA704740BA704710B502F023FC00F031
:1047A00003F900F0D3FB00F0CDFD07F055FD03F059
:1047B000FDFBBDE8104002F055BDFCF7C1FCFDF764
:1047C00015FBFDF7E1F9FDF7D7FAFDF7C9F900F0A0
:1047D000BAFFFEE701460020842900D0C81C7047BC
:1047E0002DE9F041002861D0810704D030A340F2C8
:1047F00073223BA10DE0434DA0F1080429688C42CF
:1048000003D369680C30884207D929A340F27F227C
:104810003DA144A0FDF728FC2FE03A48083002F003
:1048200012FC207900282ED02888201A86B22088F1
:1048300002F0ECFA0746608802F0E8FA21884FF4AB
:104840002053002299420DD8618899420AD8B1427A
:1048500002D00088B04205D16868874218D07888B5
:10486000B04215D012A340F2952238A12DA0FDF739
:10487000FBFB2448083002F0FAFB02F07FFBBDE8A6
:10488000F04102F087BB0AA34FF423723CA1EDE78D
:104890002271E868844200D2EC60204601F09CFF5F
:1048A000BDE8F0411748083002F0E1BBBDE8F081F7
:1048B0002E2E2F4D6964646C6577617265732F5479
:1048C000686972645F50617274792F4C7749502F18
:1048D0007372632F636F72652F6D656D2E630000B9
:1048E0006D656D5F667265653A2073616E69747996
:1048F00020636865636B20616C69676E6D656E74BB
:1049000000000000B40000206D656D5F6672656593
:104910003A20696C6C6567616C206D656D6F7279AA
:1049200000000000417373657274696F6E20222568
:104930007322206661696C6564206174206C696E05
:104940006520256420696E2025730A006D656D5F02
:10495000667265653A20696C6C6567616C206D658F
:104960006D6F72793A206E6F6E2D6C696E6B656437
:104970003A20646F75626C652066726565000000A0
:104980006D656D5F667265653A20696C6C6567611F
:104990006C206D656D6F72793A20646F75626C651D
:1049A000206672656500000070B51248124C20F058
:1049B00003014FF4205521600D80002048800871CC
:1049C000284602F023FA01216060017105804580CC
:1049D0002068E06004F1080002F03AFB002808D0EB
:1049E000BDE8704005A340F21F2210A116A0FDF7FC
:1049F0003BBB70BD7FD60020B40000202E2E2F4D73
:104A00006964646C6577617265732F546869726458
:104A10005F50617274792F4C7749502F7372632FF6
:104A2000636F72652F6D656D2E6300006661696C42
:104A3000656420746F20637265617465206D656DB7
:104A40005F6D757465780000417373657274696F8A
:104A50006E2022257322206661696C656420617472
:104A6000206C696E6520256420696E2025730A001C
:104A70002DE9F04700280ED0C41C4FF6FC710C4005
:104A80004FF420590C2C01D20C2401E04C4501D8E4
:104A9000844202D20020BDE8F087444802F0D3FAF5
:104AA0004248C4F520570838824681890288891A0D
:104AB0008EB274E0304602F0A9F90546007900286C
:104AC0006AD12888801B0838A04265D3288804F161
:104AD0001401801B08384FF0010888421DD330199B
:104AE000083087B24F4506D131A340F287323CA14E
:104AF00040A0FDF7B9FA384602F088F900210171AB
:104B00002988018046802F8085F8048000884845E8
:104B100005D002F07BF9478001E085F80480DAF8DF
:104B20000C005646854203D014E0008802F06EF96E
:104B3000017911B171688842F7D1F06071688842DB
:104B400008D0007930B11AA340F2B53233A129A0C0
:104B5000FDF78AFA154802F08AFA281971680830B8
:104B6000884206D912A340F2B93233A121A0FDF741
:104B70007BFAA8070DD00EA340F2BB323AA11DA0CC
:104B8000FDF772FA0AA340F2BD3243A119A0FDF766
:104B90006BFA05F108007EE7DAF80000865BB742A1
:104BA00088D8024802F063FA74E70000BC000020D5
:104BB0002E2E2F4D6964646C6577617265732F5476
:104BC000686972645F50617274792F4C7749502F15
:104BD0007372632F636F72652F6D656D2E630000B6
:104BE000696E76616C6964206E6578742070747289
:104BF00000000000417373657274696F6E20222596
:104C00007322206661696C6564206174206C696E32
:104C10006520256420696E2025730A006D656D5F2F
:104C20006D616C6C6F633A20216C667265652D3E18
:104C300075736564000000006D656D5F6D616C6C7F
:104C40006F633A20616C6C6F6361746564206D659D
:104C50006D6F7279206E6F742061626F766520725D
:104C6000616D5F656E642E006D656D5F6D616C6C6E
:104C70006F633A20616C6C6F6361746564206D656D
:104C80006D6F72792070726F7065726C7920616CD3
:104C900069676E65642E00006D656D5F6D616C6C9B
:104CA0006F633A2073616E69747920636865636B22
:104CB00020616C69676E6D656E7400000249098839
:104CC000401A80B270470000B40000202DE9F05F68
:104CD0000646CC1C4FF6FC7004404FF4205A0C2CB6
:104CE00001D20C2401E054452FD88C422DD3464FDD
:104CF0003868864202D37868864206D343A340F2DE
:104D0000D1224EA153A0FDF7AFF93868864202D3F5
:104D100079688E4204D302F031F902F03BF919E0D0
:104D2000A6F10805BB46281A87B22888C01B083898
:104D30001FFA80F94C4506D934A34FF439724FA1BC
:104D400044A0FDF791F94C4503D94FF00000BDE8B0
:104D5000F09F01D13046FAE72B4800F1080002F03D
:104D600072F9288802F052F88046007900282AD08B
:104D700004F11400484521D83819083084B2288835
:104D8000504506D121A340F2163244A131A0FDF7CF
:104D90006BF9204602F03AF8DBF80C20904201D281
:104DA000CBF80C00002101712988018047802C80FC
:104DB0000088504502D002F029F84480124808309B
:104DC00002F055F9C6E72888504506D10FA340F2F6
:104DD000F52232A11FA0FDF747F938190830DBF89A
:104DE0000C10B8F8009084B2414504D1204602F07E
:104DF0000DF8CBF80C00204602F008F800210171F4
:104E0000A0F80090D2E70000B40000202E2E2F4D15
:104E10006964646C6577617265732F546869726444
:104E20005F50617274792F4C7749502F7372632FE2
:104E3000636F72652F6D656D2E6300006D656D5F2C
:104E40007472696D3A206C6567616C206D656D6F79
:104E500072790000417373657274696F6E20222548
:104E60007322206661696C6564206174206C696ED0
:104E70006520256420696E2025730A006D656D5FCD
:104E80007472696D2063616E206F6E6C7920736837
:104E900072696E6B206D656D6F727900696E7661F7
:104EA0006C6964206E657874207074720000000074
:104EB0000D2806D307A34FF4D57212A118A0FDF751
:104EC000D3B8002904D0204A52F82000FDF7D8B901
:104ED000704700002E2E2F4D6964646C65776172F7
:104EE00065732F54686972645F50617274792F4CD6
:104EF0007749502F7372632F636F72652F6D656DE5
:104F0000702E63006D656D705F667265653A207422
:104F1000797065203C204D454D505F4D4158000053
:104F2000417373657274696F6E2022257322206647
:104F300061696C6564206174206C696E652025640C
:104F400020696E2025730A0080D7000830B5064D11
:104F5000002400BF55F8240000F008F8641CA4B237
:104F60000D2CF7D330BD000080D7000882680021E7
:104F700011604168C91C21F00301002207E0836829
:104F8000521C1B680B6083681960038819444388AE
:104F90009342F4DC7047000010B50D2808D308A335
:104FA00040F2571212A11AA0FDF75EF8002010BDC2
:104FB000214951F82000BDE81040FDF7B5B90000C7
:104FC0002E2E2F4D6964646C6577617265732F5462
:104FD000686972645F50617274792F4C7749502F01
:104FE0007372632F636F72652F6D656D702E630032
:104FF0006D656D705F6D616C6C6F633A2074797074
:1050000065203C204D454D505F4D4158000000004B
:10501000417373657274696F6E2022257322206656
:1050200061696C6564206174206C696E652025641B
:1050300020696E2025730A0080D700082DE9F0470B
:105040000400DDE90970089D03D03FB100290DD0AF
:105050000DE035A340F2271240A103E032A34FF444
:10506000947245A14DA0FCF7FFFF1DE0554902B920
:10507000544A03B9534B00266660A660DFF848C166
:10508000C4F814C0E660A68484F82D60C4E90765FE
:105090004E4D95F800C084F830C02061204600F0E5
:1050A000B7F92046B84710B10020BDE8F087B246F6
:1050B00040F28B1840F28D1994F83000FF2801D18E
:1050C00084F830A000276E681EE0A64205D116A322
:1050D00042463FA131A0FCF7C7FF7F1CFF2F05DD33
:1050E00011A34A463FA12DA0FCF7BEFF96F8300061
:1050F00094F83010884206D1C8B2401C84F83000C1
:10510000002ED9D102E03668002EDED194F83000AE
:10511000FE2806D0401C28706868206020466C601D
:10512000C3E785F800A0F7E72E2E2F4D6964646C65
:105130006577617265732F54686972645F5061723C
:1051400074792F4C7749502F7372632F636F726598
:105150002F6E657469662E63000000006E657469C9
:10516000665F6164643A20696E76616C6964206E82
:1051700065746966000000006E657469665F61644D
:10518000643A204E6F20696E69742066756E637490
:10519000696F6E20676976656E0000004173736504
:1051A0007274696F6E2022257322206661696C65B6
:1051B00064206174206C696E6520256420696E200E
:1051C00025730A0020D8000809540008F8000020C0
:1051D0006E6574696620616C7265616479206164D2
:1051E00064656400746F6F206D616E79206E657404
:1051F0006966732C206D61782E20737570706F72E4
:10520000746564206E756D62657220697320323535
:105210003500000070B50C46054603F02DFC214614
:105220002846BDE8704007F09DB90A68C3689A42F5
:1052300004D001B90022C2600120704700207047ED
:10524000F8B515460C00064606D113A340F2CB1262
:105250001EA122A0FCF708FF35B90FA34FF4E67298
:105260001AA11EA0FCF700FF21687068814210D0CF
:105270000091286069462846FFF7CCFF3CB12068C2
:1052800070600121304600F05FF80120F8BD002079
:10529000F6E70020F8BD00002E2E2F4D6964646CE7
:1052A0006577617265732F54686972645F506172CB
:1052B00074792F4C7749502F7372632F636F726527
:1052C0002F6E657469662E6300000000696E76615A
:1052D0006C696420706F696E7465720041737365E8
:1052E0007274696F6E2022257322206661696C6575
:1052F00064206174206C696E6520256420696E20CD
:1053000025730A000A6883689A4204D001B9002212
:1053100082600120704700207047000001000CD01F
:105320000748406807E000BF90F83020521CD2B216
:105330008A4203D000680028F6D1002070470000A0
:10534000F80000207047000070B50D46040006D13B
:105350000DA340F26D3219A121A0FCF785FE94F84F
:105360002D0041070ED5C1070CD0E9070AD06168AE
:10537000002907D0000705D5211D2046BDE8704053
:10538000FDF716BD70BD00002E2E2F4D6964646CB4
:105390006577617265732F54686972645F506172DA
:1053A00074792F4C7749502F7372632F636F726536
:1053B0002F6E657469662E63000000006E65746967
:1053C000665F69737375655F7265706F7274733A47
:1053D00020696E76616C6964206E65746966000090
:1053E000417373657274696F6E2022257322206683
:1053F00061696C6564206174206C696E6520256448
:1054000020696E2025730A006FF00B0070470000C2
:105410002DE9F84F4FF000091D4616460C00824654
:10542000C84600D1114C06B9104E05B90F4DACB1AC
:10543000206898B100274A4631465046FFF762FF80
:10544000424629465046FFF7F0FE002F04D16A4637
:1054500021465046FFF7F4FEBDE8F88F01276A4663
:1054600021465046FFF7ECFEE5E7000020D8000893
:105470000149886070470000F800002058B190F89A
:105480002D10CA070ED001F0FE0180F82D1009077B
:1054900008D5FCF7A5BF04A340F29B320FA117A0CB
:1054A000FCF7E2BD704700002E2E2F4D6964646C3E
:1054B0006577617265732F54686972645F506172B9
:1054C00074792F4C7749502F7372632F636F726515
:1054D0002F6E657469662E63000000006E65746946
:1054E000665F7365745F646F776E3A20696E76618C
:1054F0006C6964206E6574696600000041737365B1
:105500007274696F6E2022257322206661696C6552
:1055100064206174206C696E6520256420696E20AA
:1055200025730A00002800D0C161704758B190F877
:105530002D104A070ED501F0FB0180F82D10C1692E
:10554000002907D0084704A340F206420FA118A083
:10555000FCF78ABD704700002E2E2F4D6964646CE5
:105560006577617265732F54686972645F50617208
:1055700074792F4C7749502F7372632F636F726564
:105580002F6E657469662E63000000006E65746995
:10559000665F7365745F6C696E6B5F646F776E3A9C
:1055A00020696E76616C6964206E657469660000BE
:1055B000417373657274696F6E20222573222066B1
:1055C00061696C6564206174206C696E6520256476
:1055D00020696E2025730A0010B5040012D094F8DB
:1055E0002D00410717D440F0040084F82D0003215A
:1055F0002046FFF7A9FEE16900290CD02046BDE84E
:1056000010400847BDE8104003A34FF478720FA183
:1056100017A0FCF729BD10BD2E2E2F4D6964646CB8
:105620006577617265732F54686972645F50617247
:1056300074792F4C7749502F7372632F636F7265A3
:105640002F6E657469662E63000000006E657469D4
:10565000665F7365745F6C696E6B5F75703A206925
:105660006E76616C6964206E657469660000000086
:10567000417373657274696F6E20222573222066F0
:1056800061696C6564206174206C696E65202564B5
:1056900020696E2025730A0050B190F82D10CA07BA
:1056A0000DD141F0010180F82D100321FFF74CBE10
:1056B00003A34FF454720FA115A0FCF7D5BC70479B
:1056C0002E2E2F4D6964646C6577617265732F545B
:1056D000686972645F50617274792F4C7749502FFA
:1056E0007372632F636F72652F6E657469662E63C4
:1056F000000000006E657469665F7365745F7570A5
:105700003A20696E76616C6964206E657469660022
:10571000417373657274696F6E202225732220664F
:1057200061696C6564206174206C696E6520256414
:1057300020696E2025730A0010B500B9012007F01A
:105740001DF8002010BD10B507F0B4F8002010BD02
:1057500010B5FDF739FF18B1BDE8104007F0EABDFC
:10576000BDE8104007F0E0BD38B5D0E9011204688B
:105770003AB1C3682BB100200090204607F0B9F978
:1057800038BD2046BDE83840002207F091B900003E
:105790002DE9FF410D004FF00006CDE901650746F8
:1057A0001ED000240396501C1FD002B11446FDF7F2
:1057B0000BFF69464FF01008E8B103AA2846091DFF
:1057C00007F008FC012813D000960398E8B11449AB
:1057D0004FF080500860BFF34F8FBFF36F8F14E01E
:1057E000802031462A46009011E04FF0FF34DEE77A
:1057F000CDF80080E9E722462846091D07F04EFB58
:10580000012808D054B1402000909DE8070087E8A7
:105810000700BDE8FF81CDF80080F6E70020F3E740
:1058200004ED00E037B5054682B00020009014007A
:1058300000D10124FDF7C8FE4FF0000388B16A468D
:1058400003A9284607F07CFA012811D1009890B1ED
:105850000A494FF080500860BFF34F8FBFF36F8F3E
:1058600009E0224603A9284607F0BAF9012802D028
:10587000FF2005B030BD0020FBE7000004ED00E094
:1058800041684FF0010009B107F005B907F0F8B819
:1058900038B5002405460094FDF796FE90B16946A0
:1058A000284607F0ACFA012801D0FF2038BD009847
:1058B00088B10A494FF080500860BFF34F8FBFF3A3
:1058C0006F8F08E000231A461946284607F088F92A
:1058D000012800D0FF24204638BD000004ED00E080
:1058E00038B505004FF0000000900FD00024481C90
:1058F0000ED001B10C46FDF767FEB8B16A46002133
:10590000284607F067FB012816D104E0802038BD47
:105910004FF0FF34EFE7009880B109494FF0805015
:105920000860BFF34F8FBFF36F8F07E02146284613
:1059300007F09EFB012801D0FF2038BD002038BDB4
:1059400004ED00E038B543684BB1012909D10320CB
:10595000002200901146012007F0CBF838BD012944
:1059600001D0002038BD03220021012007F0A0F85B
:10597000040004D000231A46194607F031F92046E6
:1059800038BD000038B5002405460094FDF71CFE24
:1059900090B16946284607F032FA012801D0FF206D
:1059A00038BD009888B10A494FF080500860BFF3B5
:1059B0004F8FBFF36F8F08E000231A461946284621
:1059C00007F00EF9012800D0FF24204638BD000062
:1059D00004ED00E038B505004FF0000000900FD056
:1059E0000024481C0ED001B10C46FDF7EDFDB8B106
:1059F0006A460021284607F0EDFA012816D104E096
:105A0000802038BD4FF0FF34EFE7009880B109499E
:105A10004FF080500860BFF34F8FBFF36F8F07E0E8
:105A20002146284607F024FB012801D0FF2038BD7D
:105A3000002038BD04ED00E07FB50D460446416905
:105A4000B0F9080081B1A16971B1FEF7C3FED4E9D4
:105A500005128DE80700D4E900102B46226907F0F3
:105A60002AFC039004B070BDFEF7B4FE03A9CDE993
:105A70000001208A2B4682B2D4E9001007F0EEFB29
:105A8000012801D00020EDE70398EBE7002200F0A9
:105A900001B8000070B5A8B1B1F5803F26D2002949
:105AA00018D004898BB214FA81F5ADB29D421DD392
:105AB000057B2D0610D54268511A00F11002914263
:105AC00014D30CE00AA340F2DF1215A117A0FCF7D3
:105AD000CBFA0BE0002070BD42B14268511A416020
