:020000040800F2
:10000000C81400209D0100080F1200088510000888
:100010000D120008D5020008D114000800000000ED
:100020000000000000000000000000002513000890
:10003000D702000800000000111200082713000872
:10004000B7010008B7010008B7010008B7010008B0
:10005000B7010008B7010008B7010008B7010008A0
:10006000D9020008DF020008E5020008B701000815
:10007000B7010008B7010008B7010008B701000880
:10008000B7010008B7010008B7010008B701000870
:10009000B7010008B7010008B7010008B701000860
:1000A000B7010008B7010008B7010008B701000850
:1000B000B7010008B7010008B7010008B701000840
:1000C000B7010008B7010008B7010008B701000830
:1000D000B7010008B7010008B7010008B701000820
:1000E000B7010008B7010008B7010008B701000810
:1000F000B7010008B7010008B7010008B701000800
:10010000B7010008B7010008B7010008B7010008EF
:10011000B7010008B7010008B7010008B7010008DF
:10012000B7010008B7010008B7010008B7010008CF
:10013000B7010008B7010008B7010008B7010008BF
:10014000B7010008B7010008B7010008B7010008AF
:10015000B7010008B7010008B7010008B70100089F
:10016000B7010008B7010008B7010008B70100088F
:10017000B7010008B7010008B7010008000000003F
:10018000B7010008B7010008DFF80CD000F090F8C4
:100190000048004735170008C8140020064880476B
:1001A00006480047FEE7FEE7FEE7FEE7FEE7FEE75C
:1001B000FEE7FEE7FEE7FEE7B51300088901000849
:1001C0002DE9F05F0546002092469B46884606468C
:1001D000814640241BE0284641464746224600F01F
:1001E00057F853465A46C01A914110D31146184643
:1001F000224600F03EF82D1A67EB01084F462246D2
:100200000120002100F035F817EB00094E41201EB7
:10021000A4F10104DFDC484631462A464346BDE8E6
:10022000F09FD2B201E000F8012B491EFBD27047CB
:100230000022F6E710B513460A4604461946FFF7B2
:10024000F0FF204610BD30B50B46014600202022AD
:10025000012409E021FA02F59D4205D303FA02F5D3
:10026000491B04FA02F52844151EA2F10102F1DC33
:1002700030BD202A04DB203A00FA02F1002070474A
:100280009140C2F1200320FA03F3194390407047D4
:10029000202A04DB203A21FA02F00021704721FADB
:1002A00002F3D040C2F12002914008431946704742
:1002B000064C074D06E0E06840F0010394E80700B3
:1002C00098471034AC42F6D3FFF762FFD41B000806
:1002D000F41B0008FEE77047042000F083B80820F4
:1002E00000F080B8102000F07DB8704770B504466B
:1002F00000F088F90546601C02D0044800780444E8
:1003000000F080F9401BA042FAD370BD0800002025
:1003100070B505460A20FFF7E9FF114C082D0FD0F4
:10032000102D1CD10FA001F0D5F821680F2216481E
:10033000643901F047FBBDE8704014A001F0CAB871
:1003400019A001F0C7F821680F220F48643901F0A5
:10035000A5FABDE870400C491BA001F0BBB870BD08
:10036000000000204B4559302070726573732C7368
:100370007461727420777269746520573235513117
:10038000323821200A0000001C00002077726974B6
:100390006520573235513132382066696E6973688D
:1003A000656421200A0000004B45593120707265B8
:1003B00073732C7374617274207265616420573298
:1003C0003551313238210A007265616420736F6DD6
:1003D000657468696E67206C696B653A2025730ADD
:1003E00000000000044910B50A68024202D008600B
:1003F000FFF78EFF10BD0000143C01402DE9F84FBF
:10040000DFF8B8A1002201250AF1040B03264FF002
:100410000F090BF1040E00BF0B6805FA02F423402C
:10042000A3426FD10F7907F00307012F01D0022FEC
:1004300016D187684FEA420806FA08FC27EA0C073B
:10044000D1F80CC00CFA08FC4CEA070CC0F808C044
:100450004768A7430C79C4F3001494403C434460BC
:100460000C79E443A4070AD0C4684FEA420C06FAA8
:100470000CF7BC438F6807FA0CF72743C7600C7969
:1004800004F00304022C12D1D40800EB840CDCF835
:1004900020405707FF0E09FA07F824EA0804D1F8AC
:1004A000108008FA07F848EA0408CCF820800468AD
:1004B0004FEA420C06FA0CF7BC430F7907F003072A
:1004C00007FA0CF7274307604C68E40070D53C4CF2
:1004D000276847F480472760246822F0030704F464
:1004E00080440094374C07EB040CDCF8084897076D
:1004F0004FEA177809FA08F7BC43334FB84202D1E4
:10050000002724E054E0314FB84201D101271EE01A
:100510002F4FB84201D1022719E02E4FB84201D126
:10052000032714E02C4FB84201D104270FE02B4FD2
:10053000B84201D105270AE0294FB84201D1062768
:1005400005E0284FB84201D1072700E0082707FA45
:1005500008F72743CCF80878DAF800405746D1F876
:1005600004C09C435FEACC3C00D51C433C60DBF8F4
:1005700000405F46D1F804C09C435FEA8C3C00D544
:100580001C433C60DEF800407746D1F804C09C4331
:100590005FEACC2C00D51C433C60084F0C373C680C
:1005A000D1F804C09C435FEA8C2C00D51C433C600E
:1005B000521C102AFFF430AFBDE8F88F003C014018
:1005C0004438024000300140000002400004024074
:1005D00000080240000C02400010024000140240DB
:1005E00000180240001C0240426921EA02030A404E
:1005F00043EA0241816170470AB181617047090491
:10060000FBE70000014880687047000008000020F8
:100610000248816802781144816070470800002018
:100620000B4810B5016841F400710160016841F4A4
:1006300080610160016841F480710160032000F075
:1006400071F8002000F006F800F024F8002010BD3A
:10065000003C024070B50D4D04464FF47A71287885
:10066000B1FBF0F00A490968B1FBF0F000F08FFC33
:1006700048B9102C07D200222146501E00F032F853
:1006800000206C6070BD012070BD000008000020DB
:10069000140000200B4882B0016841F480410160E1
:1006A000006800F4804000900648001F016841F097
:1006B00080510160006800F080500090052002B079
:1006C00000F030B844380240002809DB00F01F0277
:1006D000012191404009800000F1E020C0F80011A4
:1006E00070470000F0B40E4B1B680C46C3F30223A6
:1006F000C3F10705042D00D90425191D072901D2CE
:10070000002300E0DB1E012606FA05F1491E214008
:1007100099409E40761E16403143F0BC00F0FEBE6C
:100720000CED00E0064900F0070208684FF6FF03F1
:10073000184040EA0220034A104308607047000056
:100740000CED00E00000FA052DE9F0470E4605002B
:1007500065D0DFF81481D8F80000F7B200F0070088
:10076000B04207D288F80070D8F8000000F0070007
:10077000B04254D128683D4C810712D5400703D5BB
:10078000206840F4E05020602878000703D52068F6
:1007900040F4604020602068A96820F0F000084321
:1007A00020602878C0072DD03049686808390128B2
:1007B00012D0022813D0032811D009688907002914
:1007C0002DDA216821F0030101432160FFF71AFFB0
:1007D000814641F2883A0EE009688903EFE709682B
:1007E0008901ECE7FFF70EFFA0EB0901514502D9A3
:1007F0000320BDE8F0872068696800F00C00B0EBCA
:10080000810FEFD1D8F80010404601F00701B14246
:1008100007D90770006800F00700B04201D001203E
:10082000E7E72878400705D52068E96820F4E0501C
:10083000084320602878000706D52068296920F43D
:10084000604040EAC100206000F038F82168084AA2
:10085000C1F30311515CC8400649086006480068AE
:10086000FFF7F8FE0020C4E7003C024008380240D1
:10087000BB1B0008140000200C00002004480549A0
:1008800000680968044AC1F38221515CC84070477E
:100890001400002008380240CB1B0008044805491A
:1008A00000680968044AC1F34231515CC84070478E
:1008B0001400002008380240CB1B0008154810B572
:1008C000006810F00C02144813D04110042A0FD015
:1008D000082A0ED10F4C241F2268236802F03F0221
:1008E0005B0207D52068C0F38810A0FB010106E079
:1008F000084610BD2168C1F38811A1FB0001002347
:10090000FFF75EFC2168C1F30141491C4900B0FBBF
:10091000F1F010BD083802400024F4002DE9F84F32
:1009200004006ED02078DFF84C93C007A9F10405CD
:100930004AD009F104000168C1F38101012908D0FE
:100940000068C0F3810002280AD1D9F800004002F3
:1009500006D52868800337D560680028E1D033E0E9
:100960006068B0F5803F10D0B0F5A02F286810D097
:1009700020F480302860286820F480202860606897
:10098000A8B1FFF73FFE06460DE0286840F480302E
:10099000F4E740F480202860F7E700BFFFF732FE5D
:1009A000801B642873D828688003F7D50CE0FFF714
:1009B00029FE064605E000BFFFF724FE801B6428E1
:1009C000F0D828688003F7D42078DFF8AC8280075D
:1009D0004FF0000A3ED5A748001D016811F00C0F2A
:1009E00008D00068C0F3810002280BD1D9F80000BC
:1009F000400207D42868800716D5E068012800D196
:100A000012E033E1E068B8B10120C8F80000FFF758
:100A1000F9FD064605E000BFFFF7F4FD801B022844
:100A2000C0D828688007F7D52868216920F0F80029
:100A300040EAC10028600DE0C8F800A0FFF7E2FD21
:100A4000064604E0FFF7DEFD801B02281FD8286859
:100A50008007F7D42078000722D5864F8748616940
:100A6000703771B101210160FFF7CCFD064604E04B
:100A7000FFF7C8FD801B022809D838688007F7D522
:100A80000EE0C0F800A0FFF7BDFD064605E082E0DD
:100A9000FFF7B8FD801B02287DD838688007F7D49F
:100AA0002078400768D5DFF8CCB100270BF13C0B6C
:100AB000DBF80000C0000BD4DBF8001041F08051DF
:100AC000CBF80010DBF80000012700F08050009008
:100AD0006B4E3068C00510D4306840F480703060D0
:100AE000FFF790FD009005E0FFF78CFD0099401A9C
:100AF000022850D83068C005F6D55E4EA0686C3626
:100B000001280FD00528306810D020F00100306097
:100B1000306820F004003060A068B8B1FFF772FDC3
:100B200000900FE0306840F00100F4E740F004006E
:100B30003060F7E7FFF766FD0099411A41F288300F
:100B4000814266D830688007F4D50EE0FFF75AFD81
:100B5000009007E0FFF756FD0099411A41F28830F6
:100B6000814256D830688007F4D42FB1DBF80010EA
:100B700021F08051CBF80010A069C8B33D49091D90
:100B80000968C1F3810102294AD00228504607D0E2
:100B9000C8F8600000E03CE0FFF734FD04463BE0AD
:100BA0004746C8F86000FFF72DFD064605E000BF88
:100BB000FFF728FD801B02282BD828688001F7D476
:100BC000D4E907010843A16A2E4A490802EB014112
:100BD000626A41EA8211084394F82C1040EA0161EC
:100BE000C9F8001001203866FFF70CFD044606E046
:100BF0003EE000BFFFF706FD001B022809D8286869
:100C00008001F7D534E000BFFFF7FCFC001B022891
:100C100002D90320BDE8F88F28688001F4D427E0CA
:100C20000128F7D0D9F80000E26900F48001914270
:100C30001CD1226A00F03F01914217D147F6C071E2
:100C4000626A0140B1EB821F10D1A26A4FF0FF33FC
:100C500000F4403103EB5202B1EB024F06D194F89D
:100C60002C1000F07060B0EB016F01D00120D1E7D3
:100C70000020CFE70438024000004742800E474280
:100C8000007000400000FFFF70B5040009D0606AEA
:100C9000002540B125616561A56294F8510040B11D
:100CA0000CE0012070BD6068B0F5827FF4D0E56192
:100CB000F2E784F85050204600F044F8022084F80F
:100CC00051002068016821F040010160A08821895D
:100CD00000F4827001F404410843A18901F4006129
:100CE0000843217C01F002010843217D01F001014C
:100CF0000843218B01F400710843217F01F0380182
:100D0000084394F8201001F080010843218D01F47C
:100D10000051084321680860A069042101EA1040DD
:100D200094F8241001F010010843216848602068FD
:100D3000C16921F40061C1616565012084F8510039
:100D4000002070BD10B586B0044614216846FFF738
:100D50006FFA13492068884220D11248016841F493
:100D600080510160006800F4805005900D481438EF
:100D7000016841F0020101600068694600F002006C
:100D8000059038200090022001900120029003205D
:100D90000390052004900448FFF730FB06B010BD17
:100DA0000030014044380240000402402DE9F84F71
:100DB000044690F8500000270A9E1D4692468B4636
:100DC0004FF0010901280ED0012084F85000FFF7F0
:100DD00019FC804694F85100616801280CD0B1F5E7
:100DE000827F07D102E00220BDE8F88FA16809B92F
:100DF000042801D00227C2E0BBF1000F27D0BAF1CE
:100E0000000F24D01DB394F85100042802D005200F
:100E100084F8510000206065C4F838A0E587A587F4
:100E2000C4F830B0E586A586206460642068016857
:100E3000490603D4016841F040010160E068B0F563
:100E4000006F606805D0E8B3012D46D07FE0012730
:100E500095E008B1012D39D1206B21680088C86068
:100E6000206B801C2063E08E401EE0862EE0206810
:100E7000816889070FD5E18E69B1B9F1010F0AD1F7
:100E8000216B0988C160206B801C2063E08E401EAE
:100E9000E0864FF0000920688168C9070CD0E18F17
:100EA00051B1C068A16B0880A06B801CA063E08F6B
:100EB000401EE0874FF00109FFF7A4FBA0EB0800FC
:100EC000B04200E009E001D3701C50D1E08E002850
:100ED000CDD1E08F0028CAD13FE0206B2168007897
:100EE0000873206B401C2063E08E401EE0862EE0DD
:100EF0002068816889070FD5E18E69B1B9F1010FCA
:100F00000AD1216B09780173206B401C2063E08EAD
:100F1000401EE0864FF0000920688168C9070CD0A8
:100F2000E18F51B1C068A16B0870A06B401CA06339
:100F3000E08F401EE0874FF00109FFF763FBA0EB55
:100F40000800B04202D3701C01D010E07EB1E08EE8
:100F50000028CDD1E08F0028CAD142463146204634
:100F600000F058F928B101272020606507E0032729
:100F700005E0A06818B92068C16880680090012069
:100F800084F85100002084F8500038462CE710B552
:100F9000401EB0F1807F01D3012010BD4FF0E0244E
:100FA00060610F21601700F0B9FA0020A0610720EE
:100FB0002061002010BD70B5040004D094F83D00FD
:100FC000002510B106E0012070BD84F83C50204699
:100FD00000F022F8242084F83D002068C16821F444
:100FE0000051C160204600F0EDF92068016921F44C
:100FF000904101612068416921F02A014161206826
:10100000C16841F40051C1602564202084F83D008E
:1010100084F83E00002070BD10B586B0044614214F
:101020006846FFF705F914492068884221D1134822
:10103000016841F010010160006800F010000590A7
:101040000E481438016841F00101016000686946EA
:1010500000F0010005904FF4C06000900220019064
:101060000120029003200390072004900448FFF71A
:10107000C5F906B010BD0000001001404438024020
:1010800000000240FEE700002DE9F04186B0142187
:101090006846FFF7CDF838480024016841F0100198
:1010A0000160016801F010010591016841F0200123
:1010B0000160016801F020010591016841F08001A3
:1010C0000160016801F080010591016841F00201B1
:1010D0000160016801F002010591016841F0010120
:1010E00001600068254F00F001004FF4C0650590D5
:1010F000012229463846FFF77FFA0122DFF8808077
:10110000960331464046FFF777FA1C2000901D48B1
:10111000CDE9010469461C48FFF770F90124CDE9C7
:101120000054022569463846CDE90245FFF766F9C5
:10113000CDE9006469464046CDE90245FFF75EF916
:10114000012211460820FFF7CDFA0820FFF7BCFA6C
:10115000012211460920FFF7C5FA0920FFF7B4FA6A
:10116000012211460A20FFF7BDFA0A20FFF7ACFA68
:1011700006B0BDE8F08100003038024000140240A3
:10118000000402400000211000100240104810B579
:101190000E4901604FF4827141600021022281609A
:1011A000C0E9031201224261520282613822C0E981
:1011B0000721416281620A21C162FFF765FD0028B3
:1011C00003D0BDE81040FFF790B810BD00300140DB
:1011D0002C0000200C4810B50A4901604FF4E131A1
:1011E0004160002181600C22C160C0E9041281616C
:1011F000C161FFF7E0FE002803D0BDE81040FFF713
:1012000074B810BD0010014084000020FEE7704754
:101210007047000038B504461248134B0068B0FB15
:10122000F3F04FF47A73584300906068B0F5827F12
:101230000DD10B46009200228021204600F016F8C6
:1012400070B1606D40F020006065032038BD0098EB
:1012500030B1401E009020688068C0430006F6D57B
:10126000002038BD1400002000366E012DE9F8433F
:101270001E46914688460446089DFFF7C3F9401B69
:10128000351AFFF7BFF9074625480068C0F3CB3091
:10129000684338E0701C37D0FFF7B4F9C01BA84290
:1012A00003D215B1009860B32CE02068416821F0AA
:1012B000E00141606068B0F5827F0BD1A068B0F5B5
:1012C000004F02D0B0F5806F04D12068016821F092
:1012D00040010160A06AB0F5005F09D12068016893
:1012E00021F4005101602068016841F4005101605F
:1012F000012084F85100002084F850000320BDE84C
:10130000F8830025401E00902068816838EA0100BB
:1013100004D000214945BDD10020F0E70121F9E7C3
:10132000140000207047FFF773B9000030B593B088
:1013300030216846FEF77CFF14210CA8FEF778FFE9
:101340001A480025016841F080510160006800F0F2
:10135000805011901648016841F480410160006896
:10136000022400F4804011900120009000040190BC
:101370008001CDE90640082008904FF4A870CDE91F
:10138000090404200B906846FFF7C8FA0CA90F2047
:1013900081E831004FF4A0500F90E0021090052139
:1013A0000CA8FFF7D1F913B030BD0000403802405F
:1013B000007000400248016841F47001016070470C
:1013C00088ED00E070B5044600680169E26821F428
:1013D0004051114301612169A068E26908436169D4
:1013E000114308432168CA6849F20C639A430243D7
:1013F000CA6020684169A26921F4407111434161CA
:1014000031492068884202D03049884202D1FFF732
:1014100045FA01E0FFF732FAE26900231921642559
:101420003226B2F5004F626828D0A0FB0101930F6D
:101430009200FEF7C5FE0146B0FBF5F06FF0180212
:10144000504301EB800006EB0010B0FBF5F000F01C
:10145000F002B1FBF5F002EB0012B1FBF5F06FF01A
:101460001803584301EB800006EB0010B0FBF5F0C9
:1014700000F00F0021681044886070BDA0FB0101DE
:1014800092185B41FEF79CFE0146B0FBF5F00201AD
:10149000B1FBF5F06FF01803584301EB800006EB49
:1014A000C000B0FBF5F000F0F80002EB4002B1FB29
:1014B000F5F0584301EB800006EBC000B0FBF5F0FF
:1014C00000F00700D6E700000010014000140140C2
:1014D000FEE700000FB4054B10B503A9044A0298BB
:1014E00000F03CF810BC5DF814FB00002117000868
:1014F000180000200FB4084B10B504A902AA0398E5
:1015000000F02CF8044602A9002000F003F9204660
:1015100010BC5DF814FB0000151700080907090E40
:10152000002804DB00F1E02080F80014704700F090
:101530000F0000F1E02080F8141D704702E008C899
:10154000121F08C1002AFAD170477047002001E03D
:1015500001C1121F002AFBD1704700002DE9FF4F87
:101560008BB09A460F460546002606E025280BD08C
:1015700052460D9990476D1C761C28780028F5D1AD
:101580000FB03046BDE8F08F0024A046012260492C
:1015900000E0044315F8013F203B02FA03F0084243
:1015A000F7D128782E2817D115F8010F44F004043C
:1015B0002A280ED06FF02F022878A0F130010929D7
:1015C0000AD808EB880102EB410100EB01086D1C11
:1015D000F2E757F8048B6D1C287869283ED006DCAA
:1015E0000028CDD063280BD0642804D136E07328BE
:1015F00010D075284BD052460D999047761C85E047
:1016000017F8040B8DF8000000208DF80100E94662
:10161000012003E057F8049B4FF0FF3061074FF0C3
:10162000000401D40AE0641C44450DDA8442FADB6C
:1016300019F804100029F6D106E0641C8442FCDB92
:1016400019F804100029F8D1264404E019F8010B18
:1016500052460D999047641EF8D257E001CF4FF0E3
:101660000A0B002802DA40422D2102E0210504D5B0
:101670002B218DF82410012103E0E10705D0202162
:10168000F7E70DF1200908910CE00021F9E701CFFF
:101690004FF00A0BF9E75946FEF7D5FD01F130028C
:1016A00009F8012D0028F6D1ADEB090000F1200B5F
:1016B000600701D44FF00108D84502DDA8EB0B000C
:1016C00000E000208046002406E009A85246005DA4
:1016D0000D999047641C761C08988442F5DB04E061
:1016E000302052460D999047761CB8F10001A8F1C0
:1016F0000108F5DC05E019F8010B52460D999047F9
:10170000761CBBF10001ABF1010BF4DC6D1C34E77E
:10171000092801000A68531C0B6010707047000014
:1017200003490A685206FCD5C2B24A6070470000FD
:1017300000100140FEF774FFFFF7F8FDFFF7A4FC6F
:10174000FFF748FDFFF722FD00F074F800F0CEF837
:101750000446014614A0FFF7BDFE184A18A1194817
:10176000FFF7C8FE4FF4FA754FF6FF760BE016A0B0
:10177000FFF7B0FE2846FEF7B9FD19A0FFF7AAFE55
:101780002846FEF7B3FD002CF1D0B442EFD0184D3F
:101790004FF400744FF4967621462846FEF724FF56
:1017A0003046FEF7A3FDF7E76E6F72666C617368F3
:1017B0002069642069732025640A0000AC1B0008BE
:1017C000257300001C000020464C4153482043680C
:1017D00065636B204661696C6564210A0000000046
:1017E000506C6561736520436865636B21200A0056
:1017F0000014024070B5040300F032F900F0DAF88A
:101800000B4E4FF48045002229463046FEF7F4FE89
:10181000202000F0A1F9204600F0B2F8012229466C
:101820003046FEF7E9FEBDE8704000F0C3B80000A6
:101830000004024070B50122164E95032946304639
:10184000FEF7DAFE012000F097F900F04FF8124998
:101850000880A0F56F4118391BD1032000F06CF807
:101860000446C00715D100F0FBF844F00201032044
:1018700000F04CF9002229463046FEF7BDFEB720A5
:1018800000F06AF929463046BDE870400122FEF7B3
:10189000B3BE70BD00040240040000202DE9F041F9
:1018A000DFF8448015460C4606464FF48047002278
:1018B00039464046FEF7A0FE032000F04DF92046D1
:1018C00000F05EF8002405E0FF2000F045F93055F7
:1018D000641CA4B2AC42F7D339464046BDE8F0419F
:1018E0000122FEF789BE00000004024070B5114ECF
:1018F0004FF48045002229463046FEF77DFE9020B9
:1019000000F02AF9002000F027F9002000F024F967
:10191000002000F021F9FF2000F01EF90402FF2052
:1019200000F01AF90443012229463046FEF764FE0E
:10193000204670BD0004024070B5012803D0022883
:1019400003D0032803D0052402E0352400E0152449
:101950000A4E4FF48045002229463046FEF74CFEE1
:10196000204600F0F9F8FF2000F0F6F804460122C6
:1019700029463046FEF740FE204670BD0004024076
:1019800010B504460A480088A0F56F41183902D105
:10199000200E00F0E1F8C4F3074000F0DDF8C4F3D6
:1019A000072000F0D9F8E0B2BDE8104000F0D4B84C
:1019B0000400002010B50120FFF7BEFFC007FAD1D8
:1019C00010BD00002DE9F05FC1F30B06DFF88C803D
:1019D0000F0BC6F58054894682461546A24200D8B0
:1019E000144639038B464FF480524046FFF756FFAA
:1019F000002006E0321818F80210FF2903D1401C1D
:101A000080B2A042F6D3A04222D23846FFF7F2FEBF
:101A1000002006E01AF800208319401C08F8032073
:101A200080B2A042F6D359464FF480524FEA0800E4
:101A300000F02CF8A5420FD0281BA244A144002698
:101A400085B24FF480547F1CA542CAD82C46C8E703
:101A5000224649465046EBE7BDE8F09FC80000200B
:101A600070B5094D4FF48044002221462846FEF708
:101A7000C3FD062000F070F821462846BDE87040FE
:101A80000122FEF7B9BD0000000402402DE9F05F1D
:101A90008046C8B2C0F580740E461546A24200D8F2
:101AA0001446DFF864A04FF480494FF4807B00BFF8
:101AB000FFF7D6FF002249465046FEF79DFD022063
:101AC00000F04AF83046FFF75BFF002706E000BF52
:101AD00018F8070000F040F87F1CBFB2A742F7D308
:101AE000012249465046FEF787FDFFF763FFA542F6
:101AF00008D0281BA044264485B25C46A542D7D80E
:101B00002C46D5E7BDE8F09F000402402DE9F041E6
:101B10000E46012803D0022803D0032803D0012455
:101B200002E0312400E011240A4F4FF480450022E6
:101B300029463846FEF760FD204600F00DF8304695
:101B400000F00AF829463846BDE8F0410122FEF7C8
:101B500053BD00000004024001B582B04FF47A701A
:101B60000090012301AA02A90248FFF71FF99DF87E
:101B700004000EBD2C0000200B4910B50A68136844
:101B800023F0400313600A6813684FF6C7742340BC
:101B900013600A68136843EAC000106008680168AF
:101BA00041F04001016010BD2C00002053544D3322
:101BB0003220535049205445535400000000000087
:101BC00000000001020304060708090000000001EC
:101BD00002030400F41B0008000000201C000000A9
:101BE0003C150008101C00081C000020AC1400006C
:101BF0004C1500080000000117EF00000100000074
:101C000010000000000000000024F40000000000AC
:040000050800018965
:00000001FF
