:020000040800F2
:1000000088CE01209D01000807390008CD32000884
:10001000053900080F050008856800080000000089
:100020000000000000000000000000007D500008FB
:10003000CD05000800000000833A00088950000840
:10004000B7010008B7010008B7010008B7010008B0
:10005000B7010008B7010008B7010008B7010008A0
:10006000CF050008D5050008DB050008B70100082A
:10007000B7010008B7010008B7010008B701000880
:10008000B7010008B7010008B7010008B701000870
:10009000B7010008B7010008B7010008B701000860
:1000A000B7010008B7010008B7010008B701000850
:1000B000B7010008B7010008B7010008B701000840
:1000C000B7010008B7010008B7010008B701000830
:1000D000B7010008B7010008B7010008B701000820
:1000E000B7010008B7010008B7010008B701000810
:1000F000B7010008B7010008B7010008B701000800
:10010000B70100082D440008B7010008B701000836
:10011000B7010008B7010008B7010008B7010008DF
:10012000B7010008B7010008B70100081105000871
:10013000B7010008B7010008B7010008B7010008BF
:10014000B7010008B7010008B70100080939000825
:10015000B70100081D050008B7010008B701000835
:10016000B7010008B7010008B7010008B70100088F
:10017000B7010008B7010008B7010008000000003F
:10018000B7010008B7010008DFF80CD000F082F9D1
:1001900000480047499F000888CE01200648804754
:1001A00006480047FEE7FEE7FEE7FEE7FEE7FEE75C
:1001B000FEE7FEE7FEE7FEE71551000889010008AB
:1001C0002DE9F05F0546002092469B46884606468C
:1001D000814640241BE0284641464746224600F01F
:1001E000EBF853465A46C01A914110D311461846AF
:1001F000224600F0D2F82D1A67EB01084F4622463E
:100200000120002100F0C9F817EB00094E41201E23
:10021000A4F10104DFDC484631462A464346BDE8E6
:10022000F09F40EA01039B0703D009E008C9121FB1
:1002300008C0042AFAD203E011F8013B00F8013BA0
:10024000521EF9D27047D2B201E000F8012B491ECC
:10025000FBD270470022F6E710B513460A46044663
:100260001946FFF7F0FF204610BD2DE9FE4F81EA49
:10027000030404F0004421F0004100944FF0000B0F
:1002800023F0004350EA01045ED052EA03045BD03D
:10029000C3F30A54C1F30A552C44A4F2F334019475
:1002A000A0FB0254C1F3130141F48011C3F3130303
:1002B00043F4801301FB024400FB034E840A970AB7
:1002C00044EA815447EA8357A4FB076802958D0AE4
:1002D00005FB07854FEA932C04FB0C542705029D70
:1002E0004FEA065847EA1637B5EB08056EEB070CE0
:1002F000870E920E47EA811742EA8312A7FB02019A
:10030000B6EB0B0164EB00042B0D43EA0C335E18D3
:1003100044EB1C50DA465146E7FB0201C5F31304D7
:100320004FEA0B3343EA14534FEA0432019C43EA89
:100330000603A4F10C040294009CCDE900B400F083
:100340005AF803B0BDE8F08F00200146F9E70EB57A
:1003500040F2334102910021CDE900110A460B46DB
:1003600000F049F803B000BDC1F30A5210B5C1F363
:10037000130140F2FF3341F480119A4201DA002068
:1003800010BD40F233439A42A2F2334203DC5242A0
:1003900000F012F810BD904010BD202A04DB203A76
:1003A00000FA02F1002070479140C2F1200320FAC8
:1003B00003F3194390407047202A04DB203A21FAC6
:1003C00002F00021704721FA02F3D040C2F120026E
:1003D000914008431946704710B5141E73F100048C
:1003E00008DA401C41F1000192185B411A4301D127
:1003F00020F0010010BD2DE9F04D92469B4611B151
:10040000B1FA81F202E0B0FA80F220329046FFF7B2
:10041000C4FF04460F4640EA0A0041EA0B01534676
:100420005A46084313D0114653EA010019D0C8F1C7
:1004300040025046FFF7C0FF05460E46504659465B
:100440004246FFF7AAFF084305D0012004E02046FA
:100450003946BDE8F08D0020054346EAE0762C439E
:1004600037430A986305E40AA0EB08000022FD0A5E
:1004700044EA47540A3002D500200146E9E7010565
:1004800010196941DDE9084500196941BDE8F04DE1
:10049000A2E70000064C074D06E0E06840F00103CB
:1004A00094E8070098471034AC42F6D3FFF770FE8B
:1004B00000DA000820DA000870B58C1810F8015B2B
:1004C00015F0070301D110F8013B2A1106D110F8ED
:1004D000012B03E010F8016B01F8016B5B1EF9D1F1
:1004E0002B0705D40023521E0DD401F8013BFAE777
:1004F00010F8013BCB1A921C03E013F8015B01F8E2
:10050000015B521EF9D5A142D8D3002070BDFEE791
:10051000014800F0E7B8000020C40120014800F0C5
:10052000E1B8000080C4012001681823CAB2103A63
:10053000B2FBF3F2054B6FF30901032A9B5CC36521
:1005400000D9091D8165084670470000E0D9000800
:1005500010B5014600208B698A6A4FF0C07453B110
:10056000B3F5005F15D072B1012A0CD0022A0AD06F
:10057000032A09D104E01AB1012A06D0022A03D1C4
:10058000C96AC90100D5012010BDC96AA142FAD0CB
:1005900010BD002AF7D0012AF2D0022AF3D0032A94
:1005A000F3D010BD30B50468256825F4802525609A
:1005B000046863608368402B036803D09960006817
:1005C000C26030BD9A600068C16030BD70470420D1
:1005D00000F086BC082000F083BC102000F080BC36
:1005E0007047000070B5B3F5804F05D06FF07041D3
:1005F00040F82210002070BD50F82240084B8E8930
:100600001C40D1E9003543EA05138D6889692D0244
:1006100045EA06452B430B43234340F82230E9E7E4
:100620000000F0CFF0B50C6850F82430114A1340A8
:10063000D1E90125D1E903672A433E4332434E699C
:1006400032438E693243CE6932430E6A32434E6A78
:1006500032438E6A3243CE6A3243CE6B096B3243E9
:100660000A431A43082D01D142F0400240F82420E9
:100670000020F0BD8000F0FF30B500EB8202506832
:100680008D8900F04043D1E9000440EA04108C68F1
:10069000240244EA054420430C8A074D05EB045428
:1006A00020430C7D6D0105EB0464896920430843F8
:1006B00018435060002030BD0000F0FF90F8351066
:1006C000022903D08021416501207047052180F86F
:1006D00035100068016821F00101016000207047B9
:1006E000406D70472DE9F84304464FF00009CDF8FE
:1006F000009063484FF41651A56D0068B0FBF1F708
:100700002E6894F85C10082000FA01F131420FD0F5
:1007100021680A6852070BD50A6822F004020A60B1
:1007200094F85C108840A860606D40F0010060653E
:1007300094F85C104FF0010808FA01F0304208D03C
:1007400021684969090604D5A860606D40F002007F
:10075000606594F85C1004208840304208D021681D
:100760000968890704D5A860606D40F004006065E1
:1007700094F85C1010208840304218D02168096835
:10078000090714D5A86020680168490304D50068EA
:10079000000308D5A16C07E00168C90503D401680E
:1007A00021F008010160216C09B12046884794F8C6
:1007B0005C1020208840304231D021680968C90689
:1007C0002DD5A86094F8350005282068016806D06A
:1007D000490347D5006800031DD4616C1CE021F07B
:1007E000160101602068416921F080014161206C9F
:1007F00008B9A06C20B12068016821F008010160EF
:1008000094F85C103F208840A86084F8349084F805
:100810003580216D1FE0E16B09B120468847606D8E
:1008200000282BD0606DC00714D0052084F8350057
:100830002068016821F0010101600098401C0090CF
:10084000B84203D820680068C007F6D184F8349015
:1008500084F83580E16C002910D001B02046BDE855
:10086000F04308470168C905D5D4016821F010019B
:10087000016084F8349084F83580CCE7BDE8F883D3
:10088000840200202DE9F041044600F039FC0646C0
:100890005CB1002584F83450022084F835002068CB
:1008A000016821F0010101600DE00120BDE8F08147
:1008B00000F026FC801B052805D920206065032058
:1008C00084F83500F2E720680068C007F0D122689C
:1008D000116820480140D4E901031843D4E90336E4
:1008E0003343184363691843A3691843E369184302
:1008F000236A18430843616A042903D1D4E90B131E
:1009000019430843106020684069666A20F00701B7
:1009100030460E43012704280CD1A06A0643E06A42
:1009200040B12046FFF714FE20B14020606584F8F6
:100930003570BAE7206846612046FFF7F5FD94F868
:100940005C203F2191408160656584F8357000200E
:10095000ACE700003F8010F02DE9F0410446866DC1
:1009600090F83400002501280DD0012084F83400CF
:1009700094F835700020012F07D084F83400022548
:100980002846BDE8F0810220FBE7022784F8357095
:1009900060652046FFF706FE94F85C103F20884013
:1009A000B0602068016841F016010160206C20B140
:1009B0002068016841F0080101602068016841F089
:1009C00001010160DCE780B206F0DEB9F0B587B066
:1009D00014216846FFF73EFC1F480168002939D101
:1009E000012404601D48016841F0010101600068B4
:1009F000022500F0010005904FF23F00CDE900050F
:100A000002AA03260C2782E8D0006946144800F0A9
:100A100073FA41F23F40CDE9000502AA694682E837
:100A2000D000104800F068FA4FF68370CDE9000559
:100A300002AA694682E8D0000B4800F05DFA4FF642
:100A40003370CDE9000502AA694682E8D000074864
:100A500000F052FA07B0F0BD7002002038380240B2
:100A6000001402400018024000100240000C024036
:100A70002DE9FE4380460A20FFF7A5FF10258F4C85
:100A80001F264FF48777B8F1040F7DD0B8F1080F17
:100A90007BD0B8F1100F79D189A005F0F5FE8EA0BA
:100AA00005F0F2FE0027012327711A4604F1200108
:100AB0008E4802F04FF920B18DA00BE00120FFF726
:100AC00082FF20790028F9D0884801F0D7FC04285B
:100AD000F4D191A005F0D8FE95A005F0D5FE012334
:100AE00067711A469749814801F0C0FFDFF85492B8
:100AF00020B195A023E00120FFF765FF6079002871
:100B0000F9D09BA005F0C0FEE77099F80000C84638
:100B100028B118F80710781CE0709BA006E0A0A090
:100B200005F0B2FE04E0401CE070A2A005F0ACFEAF
:100B300094F9030018F800100029F4D165A005F01D
:100B4000A3FEB846E7704F4694F90300395C9AA0BB
:100B500005F09AFEE078401C40B2E0701028F3DB0C
:100B60005CA005F091FE84F8038000BF94F90300B7
:100B7000395C92A005F088FEE078401C40B2E0703D
:100B80001028F3DB53A002E046E012E093E005F00A
:100B90007BFE8BA0CDE900501023C822E6210296EF
:100BA0001E2009F056F91023D122E621E1200296F9
:100BB0007DE08AA005F068FE8FA005F065FE614823
:100BC000E16810221038643909F032FD90A005F078
:100BD0005BFE96A005F058FE5A48E16810221038D6
:100BE000643909F091FC574996A0103905F04CFE84
:100BF0009BA0CDE900501023E622FA2102961E2088
:100C000009F027F94F4810231038CDE90050D122C0
:100C1000FA21029638464CE099A005F035FE4FF4D3
:100C20000061207809F00CFC206180B194F901206A
:100C3000511C617098A105F037FE20691023CDE9A1
:100C40000050D122394602961E2009F002F998A1DF
:100C50009B48226905F028FE994F1023CDE90057E3
:100C6000D1224FF491711E20029609F0F2F895A05E
:100C7000CDE900504FF49B781023C82241460296DC
:100C80001E2009F0E6F8002009F086FB0A21B0FBDF
:100C9000F1F201FB1203B0FBF1F220818DA1384685
:100CA00005F002FE1023C82241468E200296CDE9AF
:100CB000005709F0CEF8BDE8FE83000038000020A0
:100CC0004B6579302070726573732C205465737492
:100CD000205344210A0000007374617274207772FB
:100CE00069746520534421200A0000009CC3012040
:100CF0005772697465206661696C65642C20736F36
:100D00006D657468696E67206572726F72206F63BB
:100D10006375726564210A005772697465205344D3
:100D20002073756363657373656421200A00000096
:100D30007374617274207265616420534421200AC7
:100D40000000000090BD0120526561642066616969
:100D50006C65642C20736F6D657468696E672065BF
:100D600072726F72206F636375726564210A00008E
:100D700052656164205344207375636365737365C2
:100D80006421200A000000007265616420736F6DA9
:100D9000657468696E67206C696B653A202563002D
:100DA0007265616420736F6D65207A65726F730A76
:100DB000000000002563000025642000256320005A
:100DC0005344207265616420736F6D657468696E49
:100DD00067206C696B653A20000000004B65793133
:100DE0002070726573732C2054657374206E6F725B
:100DF000666C617368210A005374617274207772A3
:100E0000697465205732355131323821200A00008B
:100E100077726974652057323551313238206669EE
:100E20006E697368656421200A0000005374617262
:100E30007420726561642057323551313238210A8D
:100E4000000000007265616420736F6D65746869ED
:100E50006E67206C696B653A2025730A00000000FC
:100E60004E6F72666C617368207265616420736F87
:100E70006D657468696E67206C696B653A20000067
:100E80005352414D207374617274206D616C6C6FAC
:100E90006321200A000000004D656D6F7279204DBE
:100EA000616C6C6F6320546573742530336400008B
:100EB0005020416464723A305825303858000000A0
:100EC00090BF01205352414D494E2020205553459B
:100ED000443A000025642E253031642525000000A9
:100EE000044910B50A68024202D00860FFF7C0FD4D
:100EF00010BD0000143C01402DE9F84FDFF8B8A107
:100F0000002201250AF1040B03264FF00F090BF113
:100F1000040E00BF0B6805FA02F42340A3426FD110
:100F20000F7907F00307012F01D0022F16D1876830
:100F30004FEA420806FA08FC27EA0C07D1F80CC071
:100F40000CFA08FC4CEA070CC0F808C04768A74335
:100F50000C79C4F3001494403C4344600C79E4439E
:100F6000A4070AD0C4684FEA420C06FA0CF7BC4347
:100F70008F6807FA0CF72743C7600C7904F0030465
:100F8000022C12D1D40800EB840CDCF82040570767
:100F9000FF0E09FA07F824EA0804D1F8108008FACD
:100FA00007F848EA0408CCF8208004684FEA420CAD
:100FB00006FA0CF7BC430F7907F0030707FA0CF7A2
:100FC000274307604C68E40070D53C4C276847F421
:100FD00080472760246822F0030704F480440094CB
:100FE000374C07EB040CDCF8084897074FEA1778F2
:100FF00009FA08F7BC43334FB84202D1002724E076
:1010000054E0314FB84201D101271EE02F4FB842C2
:1010100001D1022719E02E4FB84201D1032714E075
:101020002C4FB84201D104270FE02B4FB84201D119
:1010300005270AE0294FB84201D1062705E0284FCD
:10104000B84201D1072700E0082707FA08F727432D
:10105000CCF80878DAF800405746D1F804C09C4331
:101060005FEACC3C00D51C433C60DBF800405F46A7
:10107000D1F804C09C435FEA8C3C00D51C433C6023
:10108000DEF800407746D1F804C09C435FEACC2CE0
:1010900000D51C433C60084F0C373C68D1F804C0B5
:1010A0009C435FEA8C2C00D51C433C60521C102AE8
:1010B000FFF430AFBDE8F88F003C014044380240F7
:1010C00000300140000002400004024000080240DD
:1010D000000C0240001002400014024000180240C0
:1010E000001C0240426921EA02030A4043EA02412D
:1010F000816170470AB1816170470904FBE7000014
:10110000014880687047000078020020024881682A
:101110000278114481607047780200200B4810B5B6
:10112000016841F400710160016841F4806101606F
:10113000016841F480710160032000F071F8002023
:1011400000F006F800F024F8002010BD003C02403A
:1011500070B50D4D04464FF47A712878B1FBF0F06C
:101160000A490968B1FBF0F002F034F848B9102CD4
:1011700007D200222146501E00F032F800206C6099
:1011800070BD012070BD00007802002084020020A4
:101190000B4882B0016841F480410160006800F4AE
:1011A000804000900648001F016841F080510160B6
:1011B000006800F080500090052002B000F030B8C8
:1011C00044380240002809DB00F01F020121914051
:1011D0004009800000F1E020C0F8001170470000D5
:1011E000F0B40E4B1B680C46C3F30223C3F1070592
:1011F000042D00D90425191D072901D2002300E080
:10120000DB1E012606FA05F1491E214099409E4049
:10121000761E16403143F0BC05F05ABB0CED00E0E1
:10122000064900F0070208684FF6FF03184040EA3D
:101230000220034A10430860704700000CED00E0F4
:101240000000FA0570470068416200207047F0B561
:101250000368586A39B19C6A4FF4827600EB1444F3
:1012600000204D1E0AE040EA024098620FE006EBC3
:101270008007DF59401C04EB1744C0B2A842F6D3E4
:1012800044EA02404FF4807202EB81015850002082
:10129000F0BD0000034A01211170D0F8040404F0ED
:1012A0005FB900006E030020C1EBC10200EB8202B7
:1012B000D0F80404926C04F0C9B8C1EBC10200EB91
:1012C0008202D0F80404D2F8082204F013B9000016
:1012D00010B5064904460020087005A005F0D4FAB0
:1012E000D4F80404BDE8104004F03CB96E030020BB
:1012F0005553422044657669636520446973636F82
:101300006E6E65637465642E0A00000070B5044655
:101310000B0601F00F00C0EBC00104EB81014FF0A0
:1013200001024FF0000503D581F83D203C3103E078
:1013300081F8FD5101F5FE71087094F8BC03012895
:1013400008D084F8BC23206804F034FE84F8BC5331
:10135000002070BD022070BD70B5044601F00F0082
:101360006268904201D9012070BD0B0601F00F01A7
:10137000C1EBC10104EB81014FF001024FF0000508
:1013800003D581F83D203C3103E081F8FD5101F5A2
:10139000FE718D70087094F8BC03012808D084F8A1
:1013A000BC23206805F000F884F8BC53002070BD11
:1013B000022070BD10B5044690F8BC0301280AD085
:1013C000012084F8BC03080607D501F00F0120684E
:1013D00005F04CF904E0022010BD206805F036F954
:1013E000002084F8BC0310BD01F00F01C1EBC10166
:1013F00000EB8100D0F8140270472DE9F04104465B
:101400000F0601F00F00C0EBC00104EB81014FF0AB
:1014100001064FF0000503D581F83D603C3103E043
:1014200081F8FD5101F5FE7108708A60CB704A7831
:1014300002B1C880022B00D10D7194F8BC030128C1
:1014400009D084F8BC63206804F010FD284684F8B5
:10145000BC53BDE8F0810220FBE770B50C4601F0FB
:101460000F05C5EBC50100EB8101C1F81032C1F8D1
:1014700008220023C1F8143281F8FD3181F8FC51B3
:10148000036901F5FE71012B00D10A612207027C7C
:10149000006803D004F0E0FF002070BD04F0CCFE33
:1014A000FAE770B504460D4601F00F006168884206
:1014B00001D9012070BD29064FF000064FF001024E
:1014C00007D5C0EBC00104EB810181F83D203C3120
:1014D00007E0C5EBC50104EB810181F8FD6101F571
:1014E000FE718A70087094F8BC03012807D084F854
:1014F000BC23206804F084FF280702D007E0022004
:1015000070BD217C04F57172206804F021FF84F81D
:10151000BC63002070BD70B50C4601F00F05C5EB33
:10152000C50100EB81010B658A6400234B65012333
:1015300081F83D3001F83C5F0369012B00D10A615D
:101540002207027C006803D004F086FF002070BDF3
:1015500004F072FEFAE700002DE9FC5F056804461E
:10156000284605F0A2F800287ED1206805F0C9F8C9
:10157000002879D0206805F0C4F8800704D52168D8
:10158000486900F002004861206805F0BAF8C10619
:1015900004F57170009034D52068816921F0100144
:1015A00081612F6A07F00F00C0EBC00004EB8006DA
:1015B000C7F3434006F5FE76022802D0062811D074
:1015C0001AE047F6F070074216D0C7F30A12174622
:1015D0002846F16805F099F8F0683844F060B06981
:1015E000384408E008222846009905F08EF8B069D2
:1015F000C7F30A110844B0612068816941F0100105
:101600008161206805F07DF800034FF0010A4FF07A
:10161000080B5BD50026206805F052F80746DFF876
:10162000689351E0F8074DD0F1B2206805F061F8F9
:101630008046C00707D005EB4611C1F808AB31461C
:10164000204602F067F95FEA087022D505EB4611E3
:10165000C1F808BB2068016C00EB46100191D0F87E
:10166000082B494507D900E08BE1110403D54FF45D
:101670000041C0F8081B204600F0A6FA0198484532
:1016800007D92069012804D120680121009A04F0BB
:101690005FFE5FEAC86004D505EB46111020C1F873
:1016A000080B5FEA886004D505EB46112020C1F8DD
:1016B000080B5FEA884005D505EB46104FF4005152
:1016C000C0F8081B7F08761C002FABD1206805F0FE
:1016D00018F840034FF000095CD5206804F0E9FFDA
:1016E0000746002654E0F80750D0F1B2206804F015
:1016F000EEFF8046C00723D006F00F020AFA02F080
:10170000D5F834288243C5F8342805EB4610C0F8D4
:1017100008A9206901280FD1C6EBC60004EB8000A0
:10172000D0E911211144816436B9206D20B92068B7
:101730000121009A04F00CFEF1B22046FFF7B4FD3F
:101740005FEA087003D505EB4611C1F808B95FEAF6
:10175000C86004D505EB46111020C1F808095FEAFE
:10176000486004D505EB46114020C1F808095FEA3E
:10177000887004D505EB46110220C1F808095FEA1C
:10178000086003D53146204602F02AF97F08761C0E
:10179000002FA8D1206804F0B4FF002811DAD5F892
:1017A000040820F00100C5F8040894F8F4030128A7
:1017B00029D0204600F0ECF92068416901F0004191
:1017C0004161206804F09DFF00050BD5D5F808089D
:1017D000C00702D0204600F01FFA2068416901F4DA
:1017E00000614161206804F08CFFC00468D5D5F821
:1017F000040820F00100C5F804081021206804F056
:1018000035FF002127E084F8F49300212046FFF7FC
:1018100019FDD1E705EB41104FF67F32C0F80829DA
:10182000D0F8003923F40013C0F80039D0F800399B
:1018300043F00063C0F80039C0F8082BD0F8002B43
:1018400022F40012C0F8002BD0F8002B42F0006206
:10185000C0F8002B491C60688842DBD8D5F81C080A
:1018600040F00110C5F81C08206B60B1D5F8840861
:1018700040F00B00C5F88408D5F8440840F00B0090
:10188000C5F844080CE0D5F8141842F22B000143C7
:10189000C5F81418D5F8100840F00B00C5F810086A
:1018A000D5F8000820F4FE60C5F80008217C206807
:1018B000009A04F04DFD2068416901F480514161B6
:1018C000206804F01EFF800415D5206804F00EFB8C
:1018D000206804F0DDFEE06000F056FA0146227B4D
:1018E000206804F049FF204600F00CF920684169A7
:1018F00001F400514161206804F003FF000707D59F
:10190000204600F049F92068416901F00801416171
:10191000206804F0F6FEC00208D50021204600F041
:1019200035F82068416901F480114161206804F0B4
:10193000E8FE800208D50021204600F02BF8206840
:10194000416901F400114161206804F0DAFE4000B1
:1019500007D52046FFF79EFC2068416901F08041D1
:101960004161206804F0CDFE40070AD52068456833
:10197000680702D52046FFF7ABFC20684168294381
:101980004160BDE8FC9F00000A30544FD0F80404C9
:1019900003F03EBED0F8040403F04ABE2DE9F04146
:1019A0008AB0040005D094F8BD032668002520B154
:1019B00008E001200AB0BDE8F08184F8BC5320465D
:1019C00000F05EF8032084F8BD03F06BC00500D47E
:1019D0002561206804F02AFC04F1100128228846C1
:1019E0006846FEF71EFC94E80F0004F08DFA02260C
:1019F000C8BB0021206804F096FE002001270EE0FD
:101A0000C0EBC00104EB810181F83D7001F83C0F8F
:101A1000C880CD708D60CD60401CC0B24D616168E2
:101A20008142EDD8002011E0C0EBC00104EB810140
:101A300081F8FD5181F8FC0181F8FF51C1F8045291
:101A4000C1F80852401CC0B2C1F81052616881420E
:101A5000EAD8282241466846FEF7E3FB94E80F00E7
:101A600004F02AFB10B184F8BD63A2E784F8385073
:101A700084F8BD73206804F011FB00209AE7000091
:101A800010B586B0044614216846FEF7E3FB2068D3
:101A9000B0F1A04F2FD119480021026842F0010295
:101AA0000260006800F0010005904FF4C050009003
:101AB0000220CDE90101032003900A200490694629
:101AC0000F48FFF719FA0D48001D016841F0800129
:101AD00001600A481430016841F4804101600068E7
:101AE000002200F48040059003214320FFF778FB9B
:101AF0004320FFF767FB06B010BD000030380240FE
:101B00000000024070B50446C068012518B10228E3
:101B100006D00AA005E010A004F0B6FE002502E001
:101B200014A004F0B1FE2946D4F8040403F0ECFD3F
:101B3000D4F80404BDE8704003F09FBD5553422023
:101B4000446576696365204C696272617279202010
:101B50005B46533F5D0A0000555342204465766959
:101B60006365204C69627261727920205B48535D25
:101B70000A00000055534220446576696365204C95
:101B800069627261727920205B46535D0A00000031
:101B9000D0F8040403F09EBDD0F8040403F0A4BD03
:101BA00010B5044690F8BC0301280BD0012084F83E
:101BB000BC0384F83810206804F0CCFD002084F8C1
:101BC000BC0310BD022010BDD0F8042400F57171D3
:101BD000104603F0ABBD10B50446006894F8BC1382
:101BE000012906D0012184F8BC13A16A012902D081
:101BF00008E0022010BDA169012903D0816B41F4E6
:101C000080318163206804F01BFD206804F038FAFD
:101C1000002084F8BC0310BD10B50C490446002018
:101C20000870D4F8040403F0C3FD2068D0F8001E47
:101C300041F00101C0F8001E206A002804D00448C9
:101C4000016841F00601016010BD00006E03002034
:101C500010ED00E02DE9F0470E46050065D0DFF8F5
:101C60001481D8F80000F7B200F00700B04207D2A4
:101C700088F80070D8F8000000F00700B04254D196
:101C800028683D4C810712D5400703D5206840F4F1
:101C9000E05020602878000703D5206840F46040B9
:101CA00020602068A96820F0F000084320602878B0
:101CB000C0072DD0304968680839012812D00228A1
:101CC00013D0032811D00968890700292DDA21686B
:101CD00021F0030101432160FFF712FA814641F22E
:101CE000883A0EE009688903EFE709688901ECE7A3
:101CF000FFF706FAA0EB0901514502D90320BDE820
:101D0000F0872068696800F00C00B0EB810FEFD11C
:101D1000D8F80010404601F00701B14207D907701A
:101D2000006800F00700B04201D00120E7E7287802
:101D3000400705D52068E96820F4E050084320609A
:101D40002878000706D52068296920F4604040EA19
:101D5000C100206000F03EF82168084AC1F3031179
:101D6000515CC8400649086006480068FFF7F0F972
:101D70000020C4E7003C024008380240E8D90008CF
:101D8000840200207C0200200148006870470000A7
:101D9000840200200448054900680968044AC1F328
:101DA0008221515CC84070478402002008380240FC
:101DB000F8D900080448054900680968044AC1F3D5
:101DC0004231515CC840704784020020083802400C
:101DD000F8D90008154810B5006810F00C02144836
:101DE00013D04110042A0FD0082A0ED10F4C241F03
:101DF0002268236802F03F025B0207D52068C0F327
:101E00008810A0FB010106E0084610BD2168C1F35F
:101E10008811A1FB00010023FEF7D2F92168C1F36C
:101E20000141491C4900B0FBF1F010BD08380240E7
:101E30000024F4002DE9F84F04006ED02078DFF87C
:101E40004C93C007A9F104054AD009F104000168C8
:101E5000C1F38101012908D00068C0F38100022884
:101E60000AD1D9F80000400206D52868800337D58A
:101E700060680028E1D033E06068B0F5803F10D0A2
:101E8000B0F5A02F286810D020F480302860286892
:101E900020F4802028606068A8B1FFF731F9064679
:101EA0000DE0286840F48030F4E740F4802028609A
:101EB000F7E700BFFFF724F9801B642873D8286870
:101EC0008003F7D50CE0FFF71BF9064605E000BFDD
:101ED000FFF716F9801B6428F0D828688003F7D430
:101EE0002078DFF8AC8280074FF0000A3ED5A74883
:101EF000001D016811F00C0F08D00068C0F38100CC
:101F000002280BD1D9F80000400207D428688007C6
:101F100016D5E068012800D112E033E1E068B8B1DD
:101F20000120C8F80000FFF7EBF8064605E000BF07
:101F3000FFF7E6F8801B0228C0D828688007F7D58D
:101F40002868216920F0F80040EAC10028600DE00F
:101F5000C8F800A0FFF7D4F8064604E0FFF7D0F871
:101F6000801B02281FD828688007F7D42078000734
:101F700022D5864F87486169703771B101210160B0
:101F8000FFF7BEF8064604E0FFF7BAF8801B022808
:101F900009D838688007F7D50EE0C0F800A0FFF731
:101FA000AFF8064605E082E0FFF7AAF8801B02289A
:101FB0007DD838688007F7D42078400768D5DFF8E7
:101FC000CCB100270BF13C0BDBF80000C0000BD4B8
:101FD000DBF8001041F08051CBF80010DBF8000076
:101FE000012700F0805000906B4E3068C00510D47F
:101FF000306840F480703060FFF782F8009005E0B0
:10200000FFF77EF80099401A022850D83068C005C2
:10201000F6D55E4EA0686C3601280FD005283068D2
:1020200010D020F001003060306820F004003060F3
:10203000A068B8B1FFF764F800900FE0306840F096
:102040000100F4E740F004003060F7E7FFF758F8CC
:102050000099411A41F28830814266D83068800781
:10206000F4D50EE0FFF74CF8009007E0FFF748F8D2
:102070000099411A41F28830814256D83068800771
:10208000F4D42FB1DBF8001021F08051CBF8001010
:10209000A069C8B33D49091D0968C1F3810102293E
:1020A0004AD00228504607D0C8F8600000E03CE063
:1020B000FFF726F804463BE04746C8F86000FFF704
:1020C0001FF8064605E000BFFFF71AF8801B02283C
:1020D0002BD828688001F7D4D4E907010843A16A06
:1020E0002E4A490802EB0141626A41EA8211084323
:1020F00094F82C1040EA0161C9F8001001203866FC
:10210000FEF7FEFF044606E03EE000BFFEF7F8FFE4
:10211000001B022809D828688001F7D534E000BFE9
:10212000FEF7EEFF001B022802D90320BDE8F88F5E
:1021300028688001F4D427E00128F7D0D9F80000FE
:10214000E26900F4800191421CD1226A00F03F0153
:10215000914217D147F6C071626A0140B1EB821F0C
:1021600010D1A26A4FF0FF3300F4403103EB52026A
:10217000B1EB024F06D194F82C1000F07060B0EB78
:10218000016F01D00120D1E70020CFE704380240E1
:1021900000004742800E4742007000400000FFFFF1
:1021A000704700002DE9FE430446002603200D463B
:1021B00084F83400606C03285ED0B5F5805F5BD096
:1021C0004FF4006700204FF08068BD421FD1814668
:1021D000009001900021206802F025F9800113D4BD
:1021E0006946204602F0EAFC07000DD10198400341
:1021F00034D5B4F850000104206802F04FF907000C
:1022000002D10221206823E0A06B384328E01DB1F1
:10221000A06B40F0006023E0814600900190002117
:10222000206802F000F98001EED46946204602F0F1
:10223000C5FC0700E8D10198C0030FD5B4F85000E1
:102240000104206802F02AF90700DDD1002120688E
:1022500002F071F90700D7D14F46D5E74746D3E7DB
:10226000A063A06B144F4FF0010848B1206887634A
:1022700084F8348001260EE0A06B40F08050EFE738
:10228000211DD4E9050C0EC9CDE90050CDF808C0D8
:10229000206802F0D1F84FF40071206802F032F9A2
:1022A00028B121688F63A16B0143A163012684F8E3
:1022B00034803046BDE8FE83FF05400070470000D3
:1022C000F0B5426E920F0A70426EC2F383624A709A
:1022D000426EC2F301628A70426E120CCA70B0F88C
:1022E0006420120A0A7190F864204A71826E120DFD
:1022F000CA80826EC2F303420A72B0F86820C2F349
:10230000C0324A72B0F86820C2F380328A72B0F8E4
:102310006820C2F34032CA72B0F86820C2F30032BB
:102320000A7300264E73426C4FF40075012462B1AB
:10233000012A3AD0026847499163816B41F080518C
:10234000816380F834400120F0BDB0F86820C36E8E
:102350009205120D42EA93720A61C26EC2F3C26222
:102360000A75C26EC2F302624A75C26EC2F342526D
:102370008A75C26EC2F38242CA75C26EC2F3C2329D
:102380000A760A69521C42650B7E03F007039B1C08
:102390009A4042650B7A03F00F0704FA07F383654E
:1023A0005B0A5A43C0E917250EE090F86820C36E17
:1023B0009206920A42EA13420A610A69521C920288
:1023C0004265C0E91652056630F86C2FC2F38032C0
:1023D00001F8192F0288C2F3C6124A70027802F07F
:1023E0007F028A704268D20FCA704268C2F341729B
:1023F0000A714268C2F382624A714268C2F3835230
:102400008A714268C2F34052CA710E724268C2F3C6
:1024100000424A728288C2F3C0328A728288C2F352
:102420008032CA728288C2F340320A738288C2F351
:1024300000324A738288C2F381228A738288C2F38F
:102440000122CA730079C0F3460008744C7400205E
:10245000F0BD0000FF054000426C0A60826C4A60DB
:10246000C26C8A60026DCA60426D0A61826D4A6107
:10247000C26D8A61006EC8610020704770B5044665
:10248000B0F8500000250104206802F05EF918B190
:10249000A16B0143A16304E00021206801F0C3FFA8
:1024A0000546C5F3432070BDF8B5056B04460068CA
:1024B000416B09041BD5290719D5D4E90A56002E0A
:1024C00014D00027206801F0D1FF05F8010B010AA4
:1024D00005F8011B010C05F8021B000E361F7F1CBE
:1024E00005F8010C082FEDD3C4E90A56F8BD416B7D
:1024F0004FF00006C9054FF0010744D5390281634A
:102500002068C16B4CF23A329143C1632068C16AC2
:1025100021F00101C16228071DD515F0220F09D055
:10252000206802F043F928B1A16B0143A163204662
:10253000FFF7C4FE216840F23A50886384F8347093
:102540002663A80703D0204600F022FBF8BD2046F2
:1025500000F024FBF8BD2806FCD5A80609D52068A4
:1025600002F024F928B1A16B0143A1632046FFF7D3
:10257000A5FEA807EED12068C16A21F00801C1625A
:1025800084F83470E3E7416B490424D5290722D548
:10259000D4E90856002EDDD05FF0000715F8010BD6
:1025A000009015F8011B361F40EA0120009015F835
:1025B000021B40EA0140009015F8011C40EA01604E
:1025C00000906946206801F064FF7F1C082FE5D366
:1025D000C4E90856F8BD416B40F23A221142F9D0E5
:1025E000416B890703D5A16B41F00201A163416BE7
:1025F000090703D5A16B41F00801A163416B89066E
:1026000003D5A16B41F02001A163416BC90603D53D
:10261000A16B41F01001A163416B890503D5A16B4A
:1026200041F00801A16340F23A7181632068C16BF7
:1026300040F23A329143C163206802F0B7F8A16BCF
:102640000843A063280706D584F834702663204623
:10265000FFF734FEF8BD2806FCD515F0300F0CD07E
:10266000E16B11480865E06BFEF728F80028F1D00F
:10267000E06BBDE8F84002F07FBAA8070CD0216CEF
:102680000A480865206CFEF719F80028E2D0206C93
:10269000BDE8F84002F047BAA66384F834702663B8
:1026A0002046FFF77DFDF8BD794B0008274B000859
:1026B00070B504000ED094F83400002518B92577C1
:1026C000204600F04BF8032084F83400204600F048
:1026D0000BF808B1012070BDA5632563012084F8C3
:1026E0003400002070BD0000FEB5002504467620B1
:1026F0000095CDE9015029460B460A46206801F0B5
:102700009BFE28BB134E46F8A05F206801F0A6FE92
:1027100001253560204602F035FB28B184F834509D
:10272000A16B0143A16313E0204602F0B4FA002834
:10273000F4D14FF40071206801F0E4FE002808D0C5
:10274000226805499163A16B0143A16384F8345069
:102750000120FEBD00802542FF0540002DE9F04F1D
:1027600087B0054614216846FDF774FD4349286883
:1027700088427FD142480068414940F400600860C7
:10278000086800F4006005903D481438016841F085
:1027900004010160016801F004010591016841F044
:1027A0000801016000684FF0020800F00800059081
:1027B0004FF4F850CDE9000800200326CDE90206C9
:1027C0000C24694604942F48FEF796FB002004274A
:1027D000CDE90206CDE90078694604942A48FEF75F
:1027E0008BFB2B4C29484FF00068E4E802080020DE
:1027F00001C44FF480694FF4805BA4E8010A4FF0F4
:10280000200A64E8060A2062C4E909767E05B7104A
:102810001F48C4E90B67FEF735F808B1FDF7E0FE85
:102820002C64A5631A4C194860344830E4E8020867
:10283000402001C40020A4E8010A64E8060A04F16B
:102840002801206204206062032081E8C100104852
:102850006030FEF717F808B1FDF7C2FEEC63002206
:1028600001213120A563FEF7BBFC312000E001E02F
:10287000FEF7A8FC07B0BDE8F08F0000002C014077
:102880004438024000080240000C024058640240F4
:1028900020C401202DE9F04F87B09B4616460D4617
:1028A0000446FEF72DFC00903DB194F83400012859
:1028B00007D0A06B40F000500DE0A06B40F000602E
:1028C00009E00020A063E26D06EB0B01914204D900
:1028D000A06B40F00070A06386E0032184F8341000
:1028E0002168C862616C012900D076024FF0FF3187
:1028F00001914FEA4B2102914FF0010803AA902168
:1029000002278146CDF8188082E8820201A920685A
:1029100001F073FDBBF1010F05D927633146206833
:1029200001F084FE05E0C4F830803146206801F0F3
:1029300096FEDFF834A130B12268C2F838A0A16B4E
:102940000143A1634CE0029E1EE0406B000413D5DE
:1029500096B10027206801F089FD05F8010B010AF6
:1029600005F8011B010C05F8021B000E361F7F1C29
:1029700005F8010C082FEDD3FEF7C2FB0099411AB0
:10298000109881421DD2E0B12068426B40F22A319A
:102990000A42DAD0416BC90509D5BBF1010F06D94E
:1029A000616C032903D001F001FF0028C4D1206825
:1029B000416B09071AD5C0F838A0A06B40F0080099
:1029C00050E02168C1F838A0A06B40F00040A0633F
:1029D00084F83480C4F83090032007B0BDE8F08F4D
:1029E00084F83480C4F830900120F6E7416B890701
:1029F00005D5C0F838A0A06B40F0020032E0416B72
:102A000089061BD5C0F838A0A06B40F0200029E053
:102A100001F02CFD05F8010B010A05F8011B010C62
:102A200005F8021B000E05F8010C361FFEF768FBC7
:102A30000099411A109881420ED268B12068416B0A
:102A4000890201D5002EE3D1216840F23A50886313
:102A500084F834800020C0E72168C1F838A0A06B5A
:102A600040F00040A063BBE7FF0540002DE9F047C0
:102A700086B01F460446154639B194F83400012843
:102A800007D0022006B0BDE8F087A06B40F00060E0
:102A900008E00020A063E36DEA199A4204D9A06B14
:102AA00040F00070A06369E0032284F834202268BB
:102AB0008146D0622268D36B40F22A363343D36317
:102AC000236C2F4ADA63236C2E4ADA64226C106579
:102AD000226C9060206C0068026822F0C0020260E4
:102AE00020680A46266C4FEA472800F180014FEA29
:102AF00098033046FDF730FFDFF88CA0012670B157
:102B00002068C16B21F49571C1632168C1F838A0B8
:102B1000A06B40F08040A06384F834602EE01B4836
:102B20000660606C012800D06D024FF0FF30CDE9E7
:102B300000089020029002200596CDE9030969461D
:102B4000206801F05AFC012F06D982202063294613
:102B5000206801F06BFD05E0812020632946206894
:102B600001F07DFD00288DD02268C2F838A0A16B4D
:102B70000143A16384F83460C4F83090012081E7F8
:102B8000E54A0008814A0008FF0540008C8525427F
:102B900001490120087070473D00002001490120D3
:102BA000087070473C0000202DE9F04F8DB09B4627
:102BB00016460D460446FEF7A3FA0A903DB194F876
:102BC0003400012807D0A06B40F000500DE0A06B4E
:102BD00040F0006009E00020A063E26D06EB0B010D
:102BE000914204D9A06B40F00070A0637AE0032109
:102BF00084F834102168C862616C012900D0760223
:102C00004FF0FF3103914FEA4B2104919021CDE920
:102C100005104FF00109CDE90709824603A9206894
:102C200001F0EBFBBBF1010F06D9202020633146F8
:102C3000206801F0D5FD05E01020206331462068B2
:102C400001F0E7FD5FEA000806D02168404888638C
:102C5000A06B40EA080071E0049E27E0406B40044E
:102C60001CD5DEB15FF0000715F8010B009015F8D8
:102C7000011B361F40EA0120009015F8021B40EAB4
:102C80000140009015F8011C40EA0160009069467F
:102C9000206801F0FEFB7F1C082FE5D3FEF730FA19
:102CA0000A99411A1698814220D2F8B12068416BE6
:102CB00040F21A321142D1D0416BC90523D5BBF184
:102CC000010F20D9616C03291DD001F06FFDD0B137
:102CD00022681F499163A16B0143A16384F834907A
:102CE000C4F830A001200DB0BDE8F08F216818486D
:102CF0008863A06B40EA0800A06384F83490C4F8AD
:102D000030A00320EFE72068416B090705D5104983
:102D10008163A06B40F0080010E0416B890705D586
:102D20000B498163A06B40F0020007E0416BC906CC
:102D300006D507498163A06B40F01000A063CDE782
:102D400040F23A51816384F834900020CBE70000D0
:102D5000FF0540002DE9F04F5FEA010B87B01E46EA
:102D60000446114607D094F83400012807D0022009
:102D700007B0BDE8F08FA06B40F0006008E00025D0
:102D8000A563E26D8819904204D9A06B40F00070F1
:102D9000A06356E0032084F834002068C5622068F0
:102DA000C26B40F21A2942EA0902C263E26B2D4863
:102DB000D063E26B2C48D064E06B0565606C012841
:102DC00000D049024FF09008012E05D9A0202063C1
:102DD000206801F005FD04E0C4F83080206801F0AF
:102DE00018FDDFF888A0012730B12268C2F838A0AA
:102DF000A16B0143A16321E01D480760E16B402006
:102E00008860E06B0068016821F0C00141F040017A
:102E1000016022687602B30859468032E06BFDF704
:102E20009BFD80B12068C16B21EA0901C163216863
:102E3000C1F838A0A06B40F08040A06384F83470E3
:102E40002563012094E74FF0FF30CDE90006CDE97E
:102E50000285CDE904576946206801F0CEFA0020CA
:102E600086E700006B4B0008814A0008FF05400020
:102E70008C85254270B5040009D0606A002540B1F8
:102E800025616561A56294F8510040B10CE0012014
:102E900070BD6068B0F5827FF4D0E561F2E784F838
:102EA0005050204600F044F8022084F85100206879
:102EB000016821F040010160A088218900F482703E
:102EC00001F404410843A18901F400610843217C15
:102ED00001F002010843217D01F001010843218B2B
:102EE00001F400710843217F01F03801084394F890
:102EF000201001F080010843218D01F400510843A6
:102F000021680860A069042101EA104094F82410A7
:102F100001F010010843216848602068C16921F46C
:102F20000061C1616565012084F85100002070BD19
:102F300010B586B0044614216846FDF78BF9134995
:102F40002068884220D11248016841F48051016014
:102F5000006800F4805005900D481438016841F075
:102F6000020101600068694600F002000590382007
:102F70000090022001900120029003200390052080
:102F800004900448FDF7B8FF06B010BD00300140C2
:102F900044380240000402402DE9F84F044690F8FE
:102FA000500000270A9E1D4692468B464FF00109AD
:102FB00001280ED0012084F85000FEF7A1F88046C9
:102FC00094F85100616801280CD0B1F5827F07D1D7
:102FD00002E00220BDE8F88FA16809B9042801D0F9
:102FE0000227C2E0BBF1000F27D0BAF1000F24D0B6
:102FF0001DB394F85100042802D0052084F8510034
:1030000000206065C4F838A0E587A587C4F830B013
:10301000E586A5862064606420680168490603D4BB
:10302000016841F040010160E068B0F5006F606840
:1030300005D0E8B3012D46D07FE0012795E008B127
:10304000012D39D1206B21680088C860206B801C5D
:103050002063E08E401EE0862EE0206881688907AC
:103060000FD5E18E69B1B9F1010F0AD1216B098841
:10307000C160206B801C2063E08E401EE0864FF014
:10308000000920688168C9070CD0E18F51B1C06880
:10309000A16B0880A06B801CA063E08F401EE087BE
:1030A0004FF00109FEF72CF8A0EB0800B04200E059
:1030B00009E001D3701C50D1E08E0028CDD1E08F03
:1030C0000028CAD13FE0206B216800780873206B8C
:1030D000401C2063E08E401EE0862EE02068816860
:1030E00089070FD5E18E69B1B9F1010F0AD1216BC2
:1030F00009780173206B401C2063E08E401EE0863F
:103100004FF0000920688168C9070CD0E18F51B1E8
:10311000C068A16B0870A06B401CA063E08F401ECC
:10312000E0874FF00109FDF7EBFFA0EB0800B0428C
:1031300002D3701C01D010E07EB1E08E0028CDD10A
:10314000E08F0028CAD142463146204601F074FE85
:1031500028B101272020606507E0032705E0A0686B
:1031600018B92068C16880680090012084F8510077
:10317000002084F8500038462CE770B515460E46FE
:10318000040003D094F8490010B107E0012070BD9D
:10319000002084F84800204600F01AF804F10801E5
:1031A0002068FDF73FFA3146A2682068FDF764FA0F
:1031B000D4E901022946236BFDF714FAA1682068BF
:1031C00050F8212042F0010240F82120002070BD7B
:1031D000FDF7FCBB10B5401EB0F1807F01D301208C
:1031E00010BD4FF0E02460610F21601703F070FB09
:1031F0000020A06107202061002010BD70B50400F0
:1032000004D094F83D00002510B106E0012070BD07
:1032100084F83C50204600F023F8242084F83D0038
:103220002068C16821F40051C160204601F07AFF96
:103230002068016921F4904101612068416921F011
:103240002A0141612068C16841F40051C1602564D0
:10325000202084F83D0084F83E00002070BD00006E
:1032600010B586B0044614216846FCF7F3FF1449F4
:103270002068884221D11348016841F010010160A3
:10328000006800F0100005900E481438016841F005
:10329000010101600068694600F0010005904FF4EB
:1032A000C060009002200190012002900320039052
:1032B000072004900448FDF71FFE06B010BD000073
:1032C000001001404438024000000240FEE70000C8
:1032D000F0B500230A24302537261F4611E000BF31
:1032E000B4EB107F02D905EB107C01E006EB107CFB
:1032F00001F813C001EB430C00015B1C8CF801705A
:10330000DBB29342ECD3F0BD70B5D0F8BC420546B9
:10331000002C1CD004F50041087F38B9886928B119
:10332000607A18B90121284602F030FA8121284636
:1033300002F02CFA607A022809D18121284602F095
:1033400025FA2846BDE87040012102F01FBA70BD81
:103350002DE9F041D0F8BC420646002C59D004F5C6
:103360000045012168696863A869A863304602F0D6
:103370000EF91F280AD128492869884206D1697F99
:10338000012903D8A87F08B1102808D9697F202314
:103390000522304600F0FCFE022060720AE048F28E
:1033A0001F002218304600F0BDFB0028207A08DA02
:1033B000052804D03046BDE8F041FFF7A5BF012144
:1033C00022E0022825D0012823D0032821D0E76855
:1033D000CFB1D6F8BC52304605F5004104F11002D9
:1033E0008B69BB4200D33B46002D12D08C6BE41B93
:1033F0008C63002481F83C4004212972BDE8F0412F
:10340000812102F0DEB900213046BDE8F04100F034
:10341000AFB8BDE8F08100005553424310B5D0F875
:10342000BC220446002A16D0507A022809D0090688
:1034300011D501280FD02046BDE81040012100F031
:1034400097B88121204602F0A1F92046BDE810403E
:10345000012102F09BB910BD10B5D0F8BC22044682
:10346000002A18D0107A022805D0032801D0042899
:1034700011D100210AE048F21D00815C801C024449
:10348000204600F04FFB002805DA01212046BDE868
:10349000104000F06DB810BD10B5D0F8BC22044645
:1034A000002A18D0107A88B1012814D148F21D00E2
:1034B000815C801C0244204600F034FB00280ADABC
:1034C0002046BDE81040012100F052B82046BDE87A
:1034D0001040FFF73DBF10BDD0F8BC02002801D05E
:1034E00000210172704770B5D0F8BC420546002C2F
:1034F00020D00021217204F50042617282F861102F
:1035000002F8601F9170D5F8C0020168002088475A
:103510000121284602F032F88121284602F02EF8D7
:1035200048F2100022182846BDE870401F230121F0
:1035300002F09AB870BD70B5D0F8BC420546002CB8
:1035400015D000202072012060728121284601F0F0
:103550006BFF0121284601F067FF48F21000221896
:103560002846BDE870401F23012102F07DB870BDE0
:1035700070B5D0F8BC420546002C19D004F50042C5
:103580000C48106382F83C100020207248F2300092
:1035900022180D238121284602F013F948F2100069
:1035A00022182846BDE870401F23012102F05CB8B4
:1035B00070BD0000555342530D4808B5016841F4F1
:1035C000800101600068002200F480000090022168
:1035D0003B20FDF705FE3B20FDF7F4FD0022022114
:1035E0004520FDF7FDFDBDE808404520FDF7EABD9B
:1035F000303802402DE9F0438FB01C216846FCF7BB
:1036000029FE1C2107A8FCF725FE2F4804210024D1
:10361000C0E902141025C0E904458461C461046254
:1036200044628462C46204634463DFF8A0808463FC
:103630004FF020464464C0E900680F27FF20009740
:10364000CDE901704FF01109CDE90594CDE903757D
:10365000002269461C48FFF790FD08B1FCF7C0FF47
:1036600019480621503007AAC0E90214C0E90445F0
:103670008461C4614FF480510462C0E9094189004A
:10368000C0E90B41446384634464C0E900683C20A2
:103690000097CDE90170CDF81490CDE903750921AB
:1036A000CDE90641CDE90871CDE90C940648CDE994
:1036B0000A7569465030FFF760FD002801D0FCF71D
:1036C0008FFF0FB0BDE8F083FCC20120040100A011
:1036D000F0B587B014216846FCF7BCFD4648016888
:1036E00041F010010160016801F0100105910168CD
:1036F00041F020010160016801F02001059101689D
:1037000041F080010160016801F0800105910168CC
:1037100041F040010160016801F04001059101683C
:1037200041F002010160016801F0020105910168A8
:1037300041F008010160016801F00801059101688C
:1037400041F004010160016801F004010591016884
:1037500041F0010101600068284E00F001004FF4C3
:10376000C0650590012229463046FDF7C3FC244F71
:10377000012269013846FDF7BDFC1C20009021485C
:103780000124CDE9010469461F48FDF7B5FBCDE9E9
:103790000054022569463046CDE90245FDF7ACFBF1
:1037A000A003CDE9000469463846CDE90245FDF79E
:1037B000A3FBE0038DE83100694638460395FDF729
:1037C0009BFB012203210820FDF70AFD0820FDF7DD
:1037D000F9FC012203210920FDF702FD0920FDF774
:1037E000F1FC012203210A20FDF7FAFC0A20FDF773
:1037F000E9FC07B0F0BD0000303802400014024080
:103800000004024000002110001002400E4810B5D4
:103810000C490160002141608160C160016141612A
:103820008161FEF745FF08B1FCF7DAFE4FF4006155
:103830000548FEF7B7FC002803D0BDE81040FCF7B0
:10384000CFBE10BD002C01409CC30120104810B514
:103850000E4901604FF482714160002102228160B3
:10386000C0E9031201224261520282613822C0E99A
:103870000721416281620A21C162FFF7FBFA002839
:1038800003D0BDE81040FCF7ABBE10BD00300140D6
:10389000E0C401200C4810B50A4901604FF4E13141
:1038A0004160002181600C22C160C0E90412816185
:1038B000C161FFF7A3FC002803D0BDE81040FCF76E
:1038C0008FBE10BD0010014038C501200C4810B556
:1038D0004FF0A04101600421416002220021C0E9B3
:1038E0000321C0E9062101624162C1620163FEF762
:1038F00055F8002803D0BDE81040FCF771BE10BD9C
:103900007CC50120FEE770470148FDF725BE000099
:103910007CC501202DE9F04103680D4604461E6C6C
:1039200003EB4511D1F8080BD4F810E04FF4004731
:103930004FF0200C04F57172BEF1010F09D0DFF8D1
:1039400098E0764539D1020432D500BFC1F8087B32
:103950003FE0224B5FEA007E04D59E4239D9000445
:10396000F4D436E05FEA806E02D5C1F808CB30E0CF
:1039700010F0280F2DD19E4201D90004E6D4C5EBEA
:10398000C50004EB8000D1F8101BD0F80432C1F35D
:103990001201591AC0F81412D0F808121944C0F8CC
:1039A000081295B9D4F8100278B9012120680AE00C
:1039B00080060AD5C1F808CB07E035B9D4F8100263
:1039C00018B90021184602F0C3FCE9B22046FDF701
:1039D00074FC0020BDE8F0810A31544F0A30544F86
:1039E0002DE9F84F0E46C1EBC60100EB810481467C
:1039F0000568D4E914103C34884202D90120BDE89E
:103A0000F88F081AA168814200D20846C01C8708B6
:103A100005EB46181BE000BFA0EB010AA06850456B
:103A200000D282460AF10300870899F8100000903E
:103A30001FFA8AF3F2B22846E16802F011FFE1684A
:103A400001EB0A00E060A16901EB0A00A061D8F86F
:103A5000180980B2B84205D3D4E90501814201D2E8
:103A60000028D9D1D4E90501884208D806F00F0111
:103A700001208840D5F834188143C5F83418002057
:103A8000BDE7704730B5D0F8BC424FF0FF355CB1B0
:103A9000134404EB810202F50042926E934205D971
:103AA0002123052200F074FB284630BD002030BDE4
:103AB00070B50546D0F8BC0213464FF0FF3480B114
:103AC00000F50042966976B15E78F60714D09978D1
:103AD00061B180290DD0517F24230522284600F0B2
:103AE00057FB204670BD517F2023F6E706220B4985
:103AF0000FE008220A490CE0D5F8C02201EBC10111
:103B00001B79D26902EB81010A79521D934200D8D8
:103B10001A4600F094FB002070BD00002E03002028
:103B2000340300202DE9F041D0F8BC424FF0FF36BD
:103B300054B3137802270025252B7DD00FDC1A2BD8
:103B40005FD005DC0BB3032B23D0122B17D124E05D
:103B50001B2B26D01E2B48D0232B10D168E05A2BCC
:103B60005AD006DC282B6FD02A2B75D02F2B06D1EC
:103B70007AE09E2B64D0A82B6AD0AA2B70D0202389
:103B8000052200F005FB677224E0BDE8F04100F07B
:103B90002ABBBDE8F04100F0BBBABDE8F041FFF739
:103BA00087BF04F5004393F862C0BCF1010F06D152
:103BB00092F804C00CF0030CBCF1020F57D011793D
:103BC00001F0030001280BD0022806D0C84380076B
:103BD00006D007E03046BDE8F08183F8627001E06E
:103BE00083F862502846E560F5E7107928B148F27D
:103BF000620001210155E5600CE048F262000555C4
:103C0000F9E7127917212046172A00D811460A46EB
:103C10001E4909E02846DEE7127A1B2120461B2AAE
:103C200000D811460A461A4900F009FBF2E703E002
:103C3000BDE8F04100F02CBABDE8F04100F084B9D5
:103C4000BDE8F04100F0C6B9BDE8F04100F0CDB8E4
:103C5000BDE8F04100F01FB9BDE8F04100F0FFBA47
:103C6000BDE8F04100F05EBB5278920704D52423F2
:103C7000052200F08DFAADE704F50042936F126F54
:103C8000FFF700FF0028ADDAA4E700003C030020A6
:103C9000530300202DE9F047D0F8BC42074604F555
:103CA00000458946B5F86400AE6F4FF0FF384643D3
:103CB000CCB14FF400418E4200D30E46B6FBF0F07B
:103CC00083B2D7F8C00204F110012A6FD0F810C0F7
:103CD0008A464846E047002808DA1123042249466C
:103CE000384600F055FA4046BDE8F0873346524664
:103CF0008121384601F065FDB5F8641048F2700383
:103D0000B6FBF1F21B5948F27407D2183F5904F57B
:103D1000004347F10000C3E91C20B6FBF1F0A96F96
:103D2000081AA867A96BA1EB0601A96301D10320BA
:103D300020720020D8E72DE9F05FD0F8BC52804611
:103D400005F500448A46B4F86400A76F4FF0FF39C8
:103D50004743CDB14FF40046B74200D33746B7FBD7
:103D6000F0F083B2D8F8C00205F11001226FD0F84C
:103D700014C08B465046E047002808DA032304228B
:103D80005146404600F004FA4846BDE8F09FB4F8BA
:103D9000640048F27003B7FBF0F25B5948F2740C10
:103DA000D21848F270035CF805C05A5105F5004579
:103DB0004CF100016967B7FBF0F1A26F531AA367DA
:103DC000A16BA1EB0701A1630AD04343B34200D327
:103DD00033465A460121404601F046FC0020D4E714
:103DE00000214046FFF7C4FBF8E72DE9F047D0F883
:103DF000BC521646074689464FF0FF388DB3287AE5
:103E000090BB05F50044207F000635D594F862008C
:103E1000022809D0D7F8C00281684846884748B1CF
:103E20003A230222494601E03A230222384600F0B2
:103E3000AFF916E0D6F80200717900BA20F0FF0061
:103E4000084305F500420021C2E91C01B6F807004D
:103E5000494643BAA3673846226FFFF713FE00288E
:103E600003DA4046BDE8F0870CE0B4F86410A06FB8
:103E70004843A169884203D02023617F0522D5E70A
:103E8000022028724FF40040E86049463846BDE8F9
:103E9000F047FFF7FFBE2DE9F047D0F8BC521646B9
:103EA000074689464FF0FF38A5B3287AA8BB05F529
:103EB0000044207F000638D594F86200022809D01B
:103EC000D7F8C00281684846884748B13A230222A1
:103ED000494601E03A230222384600F059F919E038
:103EE00056F8020F05F5004200BAF17820F0FF0005
:103EF00008430021C2E91C017068494600BA20F05D
:103F0000FF03F0790343A3673846226FFFF7BAFD3A
:103F1000002803DA4046BDE8F0870CE0B4F86410EE
:103F2000A06F4843A169884203D02023617F052206
:103F3000D2E7022028724FF40040E8604946384634
:103F4000BDE8F047FFF7A6BE2DE9F041D0F8BC422E
:103F5000884606464FF0FF3774B104EB880548F2F7
:103F600068002918D6F8C002436848F26400221895
:103F70004046984738BB02E03846BDE8F08104F57A
:103F8000004090F8621002291DD0683505F5004503
:103F90002968491E090E21742968491E090C61749B
:103FA0002988491E090AA1742978491EE174002153
:103FB00021756175B0F86400010AA175E0750820EB
:103FC000E0600020D9E73A2302224146304600F063
:103FD000DFF8D1E72DE9F047D0F8BC421646894614
:103FE00007464FF0FF3874B104EB890548F26800CA
:103FF0002918D7F8C002436848F2640022184846DE
:104000009847A0B902E04046BDE8F08704F50042B9
:1040100092F8620002280AD0D6F80A00717B00BA32
:1040200020F0FF000843E060002001460AE03A2348
:1040300002224946384600F0ABF8E4E72318401C5A
:104040001974C0B2E3688342F8D8683505F50045B5
:104050002868401E000E20752868401E000C607500
:104060002888401E000AA0752878401EE075217639
:104070006176B2F86400010AA176E076D6F80A000B
:10408000717B00BA20F0FF000843E0600020BBE72E
:104090002DE9FC41D0F8BC420F4605464FF0FF36F3
:1040A00044B1D5F8C0026A4601A94368384698472A
:1040B00038BB02E03046BDE8FC8148F26200005D9A
:1040C00002281ED0002001462218401C80B2117424
:1040D0000C28F9D30820E0740198401E020E2275C6
:1040E000020C6275020AA275E075022020766176E4
:1040F000BDF80000010AA176E0760C20E060002007
:10410000D9E73A2302223946284600F041F8D1E7A0
:1041100070B5D0F8BC124FF0FF3439B301F500434D
:104120009D692DB3002005460C18401CC0B22574B3
:104130001228F9D3702008740C20C87593F8600019
:1041400093F86140A0421BD001EBC004403404F559
:104150000044401C26788E7426790E776479C0B2AC
:104160004C7783F86000042808D009E0204670BD31
:10417000597F2023052200F00BF8F7E783F8605001
:104180001220C8601079122800D8C860002070BDC5
:1041900010B5D0F8BC12002924D001F5004090F8E9
:1041A000614001EBC40404F5004484F8402090F819
:1041B000612001EBC20202F5004282F8443090F81F
:1041C0006130002201EBC30101F5004181F8452077
:1041D00090F86110491CC9B280F86110042901D11E
:1041E00080F8612010BD2DE9F041D0F8BC4288462E
:1041F00005464FF0FF36E4B104F50041886930B15F
:10420000497F202305222846FFF7C2FF11E091F8DD
:1042100062000527022805D0D5F8C0028168404613
:10422000884748B13A23022241462846FFF7B0FFAB
:1042300027723046BDE8F0810020E060FAE710B553
:1042400008B1C26007E04FF0FF3010BD521E92B2BD
:1042500084188B5C2374002AF8D1002010BD2DE94E
:10426000F047D0F8BC521746064689464FF0FF3853
:10427000D5B3287A20B13046BDE8F047FFF75BBDE3
:1042800005F50044A06990B3207F000637D4D6F826
:10429000C00281684846884728B13A230AE0304680
:1042A000FFF776FF20E0D6F8C002C168484688478D
:1042B00018B1272302224946F1E7D7F8020079799D
:1042C00000BA20F0FF00084305F500420021C2E9D2
:1042D0001C01B7F80700494643BAA3673046226F6E
:1042E000FFF7D0FB002803DA4046BDE8F08706E080
:1042F000B4F86400A36F4343A069984203D020231D
:10430000617F0522CBE74FF40040834200D3034690
:1043100001202872014605F11002304601F0A4F98F
:104320000020E2E72DE9F047D0F8BC4216460746E8
:104330008A464FF0FF3964B3207A20B13846BDE891
:10434000F047FFF7F8BC04F50045A86910B1287FD5
:10435000000606D5697F202305223846FFF718FF9F
:1043600032E0D7F8C0028168504688474FF0050810
:1043700008B13A2306E0D7F8C002C1685046884722
:1043800040B12723022251463846FFF701FF84F847
:10439000088019E056F8020F04F5004200BAF178DF
:1043A00020F0FF0008430021C2E91C01706851465B
:1043B00000BA20F0FF03F0790343AB6738462A6F59
:1043C000FFF760FB002802DA4846BDE8F087B5F841
:1043D0006400AB6F4343A8699842BBD14FF40040DF
:1043E000834200D3034601202072014604F11002EB
:1043F000384601F039F90020E7E70A6842624A6866
:104400008262D1E902231A43D1E904310B43C16A24
:104410001A4321F0F7011143C16200207047006880
:1044200000F0030070470844406970470148FEF7F8
:104430003BB800009CC3012070B50DF1100C114376
:104440009CE870002343194329434268314347F6EF
:10445000FF639A430A434260002070BD10B50321F8
:1044600001600220FCF7AFFA002010BDD0F88000F8
:1044700070470A688260D1E901231A43D1E9033108
:104480000B43C1681A436FF30B011143C160002055
:1044900070470968C0F880100020704710B586B0DA
:1044A00004463720CDE90010402002900020039000
:1044B0004FF48060049069462046FFF7DAFF41F22E
:1044C00088323721204600F0BDF906B010BD00004B
:1044D00010B504460A4886B001432920CDE90010F2
:1044E00040200290002003904FF4806004906946C1
:1044F0002046FFF7BEFF204600F05CFA06B010BD74
:104500000000108010B586B004461020CDE90010E0
:1045100040200290002003904FF480600490694690
:104520002046FFF7A6FF41F288321021204600F016
:1045300089F906B010BD10B586B004460620CDE955
:10454000001040200290002003904FF480600490FF
:1045500069462046FFF78DFF41F28832062120464A
:1045600000F070F906B010BD30B585B000240546E6
:10457000009401944FF480600294CDE903406946B1
:104580002846FFF776FF0B484FF4FA510068B0FB5E
:10459000F1F041F288314843401E03D24FF0004011
:1045A00005B030BD696B0906F6D5C520A863204665
:1045B000F6E700008402002070B585B004464FF491
:1045C000D570009001A908204025002681E86100EF
:1045D000C001049069462046FFF74BFF12484FF494
:1045E000FA510068B0FBF1F041F288314843401EB7
:1045F00003D24FF0004005B070BD616B11F0450F64
:10460000F5D00905F3D4606B400701D5042003E021
:10461000606BC00702D00120A063ECE7606B40062E
:1046200000D5A5633046E6E78402002010B586B0C9
:1046300004461220CDE90010402002900020039093
:104640004FF48060049069462046FFF712FF41F264
:1046500088321221204600F0F5F806B010BD10B5E2
:1046600086B004461120CDE90010402002900020C1
:1046700003904FF48060049069462046FFF7F9FEEE
:1046800041F288321121204600F0DCF806B010BD5E
:1046900010B586B004460720CDE9002040200290E6
:1046A000002003904FF48060049069462046FFF795
:1046B000E0FE41F288320721204600F0C3F806B040
:1046C00010BD10B586B0044600210220CDE90010CF
:1046D000C020CDE902014FF4806004906946204675
:1046E000FFF7C7FE204600F03DF906B010BD10B53B
:1046F00086B004460920CDE90010C02002900020B9
:1047000003904FF48060049069462046FFF7B1FEA5
:10471000204600F027F906B010BD10B586B004465B
:1047200000213320CDE900104020CDE90201000135
:10473000049069462046FFF79CFE41F288323321FF
:10474000204600F07FF806B010BD10B586B00446D4
:104750000D20CDE9001040200290002003904FF47E
:104760008060049069462046FFF783FE41F288325C
:104770000D21204600F066F806B010BD30B585B0BA
:104780000C46054600210320CDE900104020CDE96C
:1047900002010001049069462846FFF76AFE22469E
:1047A0000321284600F028F905B030BD10B586B0C9
:1047B000044600210C20CDE900104020CDE9020183
:1047C0000001049069462046FFF753FE034A0C217E
:1047D000204600F037F806B010BD000000E1F505F6
:1047E00010B586B004461920CDE900104020029093
:1047F000002003904FF48060049069462046FFF744
:1048000038FE41F288321921204600F01BF806B02C
:1048100010BD10B586B004461820CDE90010402028
:104820000290002003904FF4806004906946204677
:10483000FFF71FFE41F288321821204600F002F8EF
:1048400006B010BD454B10B51B684FF4FA54B3FBCE
:10485000F4F353435B1E02D24FF0004010BD426B95
:1048600012F0450FF6D01205F4D4426B520703D56F
:1048700004218163084610BD426BD20702D001219A
:10488000816305E0C52282630269D2B28A4201D007
:10489000012010BD0021FFF7C6FD3149084201D1BA
:1048A000002010BD002802DA4FF0007010BD41005A
:1048B00001D5402010BD810001D5802010BDC10070
:1048C00002D54FF4807010BD010102D54FF4007085
:1048D00010BD410102D54FF4806010BDC10102D569
:1048E0004FF4006010BD010202D54FF4805010BD9E
:1048F000410202D54FF4005010BD810202D54FF4A1
:10490000804010BDC10202D54FF4004010BD4103EC
:1049100002D54FF4003010BD810302D54FF4802042
:1049200010BDC10302D54FF4002010BD010402D513
:104930004FF4801010BD410402D54FF4001010BD9B
:10494000810402D54FF4800010BD000702D54FF45A
:10495000000010BD4FF4803010BD00008402002024
:1049600008E0FFFD12494FF4FA520968B1FBF2F179
:1049700041F288325143491E02D24FF00040704745
:10498000426B12F0450FF6D01205F4D4416B490783
:1049900003D50421816308467047416BC90703D0E2
:1049A0000121816308467047C5218163002070475B
:1049B000840200200F494FF4FA520968B1FBF2F16A
:1049C00041F288325143491E02D24FF000407047F5
:1049D000426B12F0450FF6D01205F4D4416B490733
:1049E00003D50421816308467047C52181630020F7
:1049F000704700008402002030B5204B4FF4FA5479
:104A00001B68B3FBF4F341F2883463435B1E02D2AC
:104A10004FF0004030BD446B14F0450FF6D0240534
:104A2000F4D4436B5B0703D504218163084630BD92
:104A3000436BDB0702D00121816303E00369DBB232
:104A40008B4201D0012030BDC52181630021FFF7D9
:104A5000EAFC10F4604F04D0410406D54FF4005036
:104A600030BD000C1080002030BD000402D54FF492
:104A7000805030BD4FF4803030BD000084020020F3
:104A800010B5846BFBF72CFE022828D0206C416DFA
:104A9000E06B406D012901D001281DD1216810482B
:104AA00088632068C16B21F49D71C163A06B40F0E5
:104AB0008040A0632046FDF7E1FC062801D00528D0
:104AC00005D12068FFF772FEA16B0843A0630120A7
:104AD00084F83400002020632046FDF7EFFB10BD72
:104AE000FF05400010B5846B206B822809D1206837
:104AF000FFF75CFE28B1A16B0143A1632046FDF7DF
:104B0000DDFB2068C16A21F00801C162216840F222
:104B10003A508863012084F8340000202063204646
:104B2000FEF736F810BD10B5846B40F23A5021689C
:104B300088632046FDF7A2FC012184F8341000218F
:104B40002163062801D0052805D12068FFF72EFE35
:104B5000A16B0843A063A06B0028204602D0FDF79C
:104B6000ADFB10BDFDF71CFB10BD806B0068C16B79
:104B700041F48071C163704710B5846B40F23A50C4
:104B8000216888632046FDF779FC012184F8341000
:104B900000212163062801D0052805D12068FFF7F0
:104BA00005FEA16B0843A063A06B0028204602D03D
:104BB000FDF784FB10BDFDF7F3FA10BD2DE9F047BA
:104BC00088B00D460446FCF79BFA00268246009604
:104BD0000196374608212068FFF794FC002829D168
:104BE000B4F8500001042068FFF758FC002821D1D8
:104BF000401E4FF00808CDE9020830204FF00209AE
:104C0000CDE904090120CDE9067002A92068FFF76B
:104C1000F4FB2068FFF781FD00280BD16F46206868
:104C2000416B11F02A0F08D0416B09071AD5C0F863
:104C30003880082008B0BDE8F087416B890205D5AF
:104C4000FFF714FC47F82600761C02E0416B89044C
:104C5000EAD5FCF755FAA0EB0A00401CDFD14FF073
:104C60000040E7E7416B890703D5C0F83890022080
:104C7000E0E7416B890603D5202181630846D9E727
:104C800040F23A518163019800BA2860009800BA56
:104C900068600020CEE710B590B004460120ADF862
:104CA00038002068FFF7BBFB002854D0606C032855
:104CB00042D02068FFF705FD00284AD10021206876
:104CC000FFF7B1FB606704212068FFF7ACFBA0672A
:104CD00008212068FFF7A7FBE0670C212068FFF799
:104CE000A2FBC4F88000606C032825D00EA92068C0
:104CF000FFF744FD00282CD1606C03281CD0BDF8C0
:104D00003800206501042068FFF7F1FC002820D15D
:104D100000212068FFF787FB606604212068FFF709
:104D200082FBA06608212068FFF77DFBE0660C216E
:104D30002068FFF778FB206704212068FFF773FBEA
:104D4000000DE06403A92046FDF7BAFA30B14FF038
:104D5000805010B010BD4FF08060FAE7B4F85000FA
:104D6000002302042068FFF793FC0028F1D104F12E
:104D7000100007C88DE8070094E80F00FFF75CFB00
:104D80000020E6E72DE9F84F002604460096354658
:104D9000B0460068FFF7E8FB002827D12068FFF73E
:104DA0000BFC4FF0805B4FF001094FF6FF7748B1E5
:104DB000A6642068FFF7D8FB002817D1A06C012853
:104DC00002D020E0C4F8489000212068FFF766FB7D
:104DD00058B918E000212068FFF760FB002805D1D2
:104DE00051462068FFF774FB10B15846BDE8F88FB4
:104DF00000212068FFF717FB05464FEAD07800989E
:104E0000401C009002E0DFF82CA00098B84202D2CB
:104E1000B8F1000FDED00098B84202D34FF0807096
:104E2000E4E7680002D5C4F8449000E0666400201E
:104E3000DCE70000000010C138B504461248134BEF
:104E40000068B0FBF3F04FF47A7358430090606849
:104E5000B0F5827F0DD10B460092002280212046C2
:104E600000F016F870B1606D40F02000606503201E
:104E700038BD009830B1401E009020688068C04363
:104E80000006F6D5002038BD8402002000366E01F1
:104E90002DE9F8431E46914688460446089DFCF7D6
:104EA0002FF9401B351AFCF72BF9074625480068F7
:104EB000C0F3CB30684338E0701C37D0FCF720F9E2
:104EC000C01BA84203D215B1009860B32CE0206843
:104ED000416821F0E00141606068B0F5827F0BD14C
:104EE000A068B0F5004F02D0B0F5806F04D1206803
:104EF000016821F040010160A06AB0F5005F09D1AE
:104F00002068016821F4005101602068016841F4C3
:104F100000510160012084F85100002084F8500005
:104F20000320BDE8F8830025401E009020688168BA
:104F300038EA010004D000214945BDD10020F0E746
:104F40000121F9E78402002018B1012807D00320CD
:104F500070470748838A13808069401E04E04FF43D
:104F6000007010804FF4C0400860002070470000BF
:104F70000CC0012000B589B069460448FDF76CFA01
:104F80000698002800D0012009B000BD9CC3012074
:104F900010B5044607A001F077FC1CB1012C04D029
:104FA000032010BD05F00EFC01E005F079FA0020A9
:104FB00010BD000053544F524147455F496E69741C
:104FC0002063616C6C65640A0000000006490A7881
:104FD00042F010020A70002802D0012801D00320FC
:104FE0007047002070470000C0030020002802D056
:104FF000012801D0032070470020704770B50D468E
:105000000D4914460A7842F002020A7018B10128CC
:1050100007D0032070BD1A462146284605F0F6FB4E
:1050200007E04FF6FF7000EA43226102284605F0D0
:105030006BFA002070BD0000C003002070B50D4663
:105040000D4914460A7842F001020A7018B101288D
:1050500007D0032070BD1A462146284605F0F0FB14
:1050600007E04FF6FF7000EA43226102284605F090
:10507000DFFA002070BD0000C003002070470178F7
:10508000407841EA00207047FCF740B830B593B053
:1050900030216846FBF7DEF814210CA8FBF7DAF89C
:1050A0001A480025016841F080510160006800F055
:1050B000805011901648016841F4804101600068F9
:1050C000022400F48040119001200090000401901F
:1050D0008001CDE90640082008904FF4A870CDE982
:1050E000090407200B906846FCF7A4FE0CA90F20CA
:1050F00081E831004FF4A0500F90E002109005219C
:105100000CA8FCF7A7FD13B030BD000040380240EA
:10511000007000400248016841F47001016070476E
:1051200088ED00E070B5044600680169E26821F48A
:105130004051114301612169A068E2690843616936
:10514000114308432168CA6849F20C639A43024339
:10515000CA6020684169A26921F44071114341612C
:1051600031492068884202D03049884202D1FCF798
:1051700021FE01E0FCF70EFEE269002319216425FF
:105180003226B2F5004F626828D0A0FB0101930FD0
:105190009200FBF715F80146B0FBF5F06FF018022E
:1051A000504301EB800006EB0010B0FBF5F000F07F
:1051B000F002B1FBF5F002EB0012B1FBF5F06FF07D
:1051C0001803584301EB800006EB0010B0FBF5F02C
:1051D00000F00F0021681044886070BDA0FB010141
:1051E00092185B41FAF7ECFF0146B0FBF5F00201C3
:1051F000B1FBF5F06FF01803584301EB800006EBAC
:10520000C000B0FBF5F000F0F80002EB4002B1FB8B
:10521000F5F0584301EB800006EBC000B0FBF5F061
:1052200000F00700D6E70000001001400014014024
:1052300010B5D0F8B8220AB152689047002010BDCE
:10524000134610B50A46002100F00EFA002010BDEA
:10525000134610B50A46002100F0B3FA002010BD35
:1052600010B50446802100F091FA2046BDE81040B8
:10527000002100F08BBA10B50521C0F8941200236C
:105280001A46194600F0F0F9002010BD10B50223AF
:10529000C0F8943282611346C2610A46002100F0D0
:1052A00090FA002010BD10B50421C0F8941200231C
:1052B0001A46194600F085FA002010BDF8B50446DC
:1052C0000020ADF8000048880D46010A08295FD289
:1052D000DFE801F05E0409175E5E3C45D4F8B412C5
:1052E000207C0A6819E0207C02260028D4F8B80245
:1052F00005D0C16A684688470146467039E0816A30
:10530000F8E7C0B2062843D2DFE800F0030A101421
:10531000181CD4F8B402426805E0694690471CE0C6
:10532000D4F8B402826892B3207CF6E7D4F8B402D1
:10533000C268F8E7D4F8B4020269F4E7D4F8B4021A
:105340004269F0E7D4F8B4028269ECE7207CF0B956
:10535000D4F8B802416B68468847014609E0207CD2
:10536000A8B9D4F8B802016B6846884701460720FF
:105370004870EA888AB1BDF8000040B1824200D985
:105380000246ADF800202046FFF780FFF8BDFFE79A
:1053900029462046FFF764FFF8E72046FFF783FF22
:1053A000F4E770B5002300281ED00025044602E073
:1053B0006D1CEDB2641C2678002EF9D1022404EB9A
:1053C000450414801278CA545B1C0322CA5400247A
:1053D0005B1C06E0CA545B1CDAB28C54521CD3B27C
:1053E000401C0278002AF5D170BD01004FF000008A
:1053F00004D0012901D0022901D0032070470120E7
:10540000704778B10023C0F8B832C0F8C032C0F895
:10541000CC3209B1C0F8B412012180F89C1202709C
:1054200000F0BAB80320704710B5D0F8C402FBF7FB
:1054300093FFBDE81040FFF7D8BF10B5D0F8C40205
:10544000FBF764FFBDE81040FFF7CFBF70B516460D
:10545000044621B194F89C02032841D048E0D4F8D6
:10546000941204F114000025022932D1D0E902314E
:105470008B4206D95A1A826031462046FFF7E8FE71
:105480000FE0994214D14068884211D3D4F89812A1
:1054900088420DD2002211462046FFF7D9FEC4F8FB
:1054A000985200231A461946204600F0DDF810E015
:1054B00094F89C02032805D1D4F8B802C16809B158
:1054C000204688478021204600F060F92046FFF7FB
:1054D000D2FE94F8A00201280AD184F8A05207E075
:1054E000D4F8B80242691AB120469047002800D18A
:1054F000002070BD10B51346044621B194F89C02FB
:10550000032823D02AE0D4F8941204F5AA700329C2
:1055100024D1D0E9021291420AD98A1A8260C06865
:10552000824200D3024619462046FFF789FE15E065
:1055300094F89C02032805D1D4F8B802016909B196
:10554000204688472046FFF7AEFE07E0D4F8B802B1
:1055500082691AB120469047002800D1002010BD72
:105560000020704710B5012180F89C12D0F8B822B5
:1055700012B1526801799047002010BD10B5D0F8E3
:10558000C402FBF717FFBDE81040FFF72EBFD0F8AD
:10559000C402FBF729BF000010B5017821BB1349F5
:1055A0000222C1F80404C0F8C4124FF0A040086001
:1055B000042048600020C1E90320C1E906200862F8
:1055C0004862C86208630846FCF7E8F9802107488A
:1055D000FBF739FE402200210448FBF738FE802209
:1055E00001210248FBF733FE002010BD7CC50120DD
:1055F0000A0601F07F01D0F8C402C1EBC10100EB43
:10560000810002D590F83E00704790F8FE01704787
:1056100010B5D0F8B82222B190F89C32032B02D0FA
:1056200004E0032010BD126A02B19047002010BDB3
:1056300010B5D0F8B82222B190F89C32032B02D0DA
:1056400004E0032010BD526A02B19047002010BD53
:1056500010B51C461346D0F8C4022246FBF7CDFE17
:10566000BDE81040FFF7C1BE10B5D0F8C402FBF78B
:10567000F4FEBDE81040FFF7B8BE70B50125044642
:1056800080F89C520020C4F894026060C4F8A40220
:10569000D4F8B802E0B1D4F8BC1221B1426812B11A
:1056A0000021204690470022402311462046FFF764
:1056B000CFFF4026A4F864513346002280212046C3
:1056C000C4F86061FFF7C4FFA5840020266270BDA6
:1056D000032070BD90F89C12042903D190F89D120C
:1056E00080F89C120020704710B5D0F8B81221B194
:1056F00090F89C22032A02D004E0032010BDC9695F
:1057000001B18847002010BD0174002070470000DF
:10571000054B10B501221A70D0F8C402FCF740FA0C
:10572000BDE81040FFF761BE6E03002070B504466F
:1057300000F2AA20054600F0B3F90120C4F8940253
:10574000B4F8B002C4F8980294F8AA0210F01F014D
:105750000AD001290ED0022912D000F08001204683
:10576000BDE8704000F012B829462046BDE8704000
:1057700000F028BA29462046BDE8704000F04CBB36
:1057800029462046BDE8704000F0A6BA10B5D0F812
:10579000C402FBF786FEBDE81040FFF726BE10B539
:1057A000D0F8C402FCF717FABDE81040FFF71DBEA1
:1057B00090F89C1280F89D12042180F89C12002021
:1057C000704710B5D0F8C402FBF7A5FEBDE8104045
:1057D000FFF70BBE10B50A46024903A0FFF7E1FD33
:1057E000004810BD84C901204D534320436F6E66AD
:1057F0006967000010B5FDF72FFE002010BD10B541
:10580000FDF74AFE002010BD70B504460121FFF7E8
:1058100014FE0025A4F8785181212046FFF70DFEE3
:105820002587D4F8BC0248B12046FDF755FE00207C
:10583000D4F8BC1204F0D6FDC4F8BC52002070BDF0
:105840001220088000487047900300200A21018040
:105850000048704724030020202101800048704741
:10586000E40200202021018000487047C40200208B
:1058700020210180004870470403002070B50446D1
:1058800048F28001002004F0DBFDC0B1C4F8BC0286
:10589000207C0125C0B14023022201212046FFF7D0
:1058A000D7FEA4F878514023022281212046FFF739
:1058B000CFFE25872046FDF716FE002070BD002094
:1058C000C4F8BC02022070BD4FF4007633460222B9
:1058D00001212046FFF7BCFEA4F878513346E3E7E8
:1058E00010B50A46024903A0FFF75BFD004810BD52
:1058F00084C901204D534320496E7465726661630B
:105900006500000004200880004870478C030020D8
:1059100010B50A46024903A0FFF743FD004810BD39
:1059200084C9012053544D6963726F656C6563745B
:10593000726F6E69637300000A4610B5044928B19E
:1059400004A000BFFFF72DFD014810BD07A0F9E737
:1059500084C901204D6173732053746F7261676550
:1059600020696E204653204D6F6465004D6173734E
:105970002053746F7261676520696E204853204D13
:105980006F64650019B1C0F8C01200207047032091
:105990007047000010B51A2008800A480168001DF1
:1059A0000468001D0068081809D008220649FDF7A0
:1059B0008FFC0549042210312046FDF789FC02487E
:1059C000801E10BD107AFF1FA6030020F8B5002529
:1059D000D0F8BC720C460646ADF8005037B12078BE
:1059E00010F0600123D0202940D101E00320F8BD50
:1059F0006178FE2902D0FF2938D10EE0618881BB91
:105A0000E188012932D1000630D5D6F8C00280697C
:105A100080470122394638601FE0618809BBE18870
:105A2000F9B9000622D43046FDF785FD23E0607801
:105A300030B1012824D00A2809D00B2816D111E052
:105A400096F89C02032811D10222694605E096F8D7
:105A50009C0203280AD10122391D3046FFF716FCAB
:105A600009E003E096F89C02032806D02146304660
:105A7000FFF7F6FB03252846F8BDA0787860FAE723
:105A800096F89C020328F6D160880028F3D121798A
:105A90003046FFF773FD21793046FDF7BFFCEAE79A
:105AA00070B5054611F8010B2870087868704C1C19
:105AB0002046FFF7E4FA6880A41C2046FFF7DFFACF
:105AC000A880A01CFFF7DBFAE88070BD38B504465B
:105AD0000020ADF8000049B1C4F8B812C96A19B184
