:020000040800F2
:100000007CD501209D010008E3960108058E0108BA
:10001000E19601080D6E0108799A010800000000C0
:10002000000000000000000000000000F997010837
:100030000F6E010800000000E5960108FB9701081B
:10004000B7010008B7010008B7010008B7010008B0
:10005000B7010008B7010008116E0108B7010008D8
:10006000176E01081D6E0108236E0108B701000814
:10007000B7010008B7010008B7010008B701000880
:10008000B7010008B7010008B7010008B701000870
:10009000B7010008B7010008B7010008B701000860
:1000A000B7010008B7010008B7010008B701000850
:1000B000B7010008B7010008B7010008B701000840
:1000C000B7010008B7010008B7010008B701000830
:1000D000B7010008B7010008B7010008B701000820
:1000E000B7010008B7010008B7010008B701000810
:1000F000B7010008B7010008B7010008B701000800
:10010000B7010008B7010008B7010008B7010008EF
:10011000B7010008B701000899980108B701000865
:10012000B7010008B7010008B7010008B7010008CF
:10013000B7010008B7010008B7010008B7010008BF
:10014000B7010008B7010008B7010008B7010008AF
:10015000B7010008B7010008B7010008B70100089F
:10016000B7010008B7010008B7010008B70100088F
:10017000B7010008B7010008B7010008000000003F
:10018000B7010008B7010008DFF80CD000F004FC4C
:10019000004800470DF501087CD50120064880473E
:1001A00006480047FEE7FEE7FEE7FEE7FEE7FEE75C
:1001B000FEE7FEE7FEE7FEE78998010889010008EF
:1001C0002DE9F05F0546002092469B46884606468C
:1001D000814640241BE0284641464746224600F01F
:1001E00026FA53465A46C01A914110D31146184672
:1001F000224600F00DFA2D1A67EB01084F46224601
:100200000120002100F004FA17EB00094E41201EE6
:10021000A4F10104DFDC484631462A464346BDE8E6
:10022000F09F10B5441A0346944209D28418114431
:1002300003E011F8013D04F8013D521EF9D210BD52
:1002400040EA0104A40703D009E010C9121F10C33B
:10025000042AFAD203E011F8014B03F8014B521EB5
:10026000F9D210BDD2B201E000F8012B491EFBD239
:1002700070470022F6E710B513460A4604461946B1
:10028000FFF7F0FF204610BD421E12F8013F002B81
:10029000FBD111F8013B02F8013B002BF9D170476B
:1002A000421C10F8011B0029FBD1801A704710B5C1
:1002B000002200E0521C835C8C5CA34201D1002B25
:1002C000F8D1D8B2E1B2401A10BD30B504460020D2
:1002D000034600E05B1C934203D2E05CCD5C401B14
:1002E000F8D030BD034611F8012B00F8012B002A8D
:1002F000F9D1184670472DE9FE4F81EA030404F056
:10030000004421F0004100944FF0000B23F0004323
:1003100050EA01045ED052EA03045BD0C3F30A54EE
:10032000C1F30A552C44A4F2F3340194A0FB025407
:10033000C1F3130141F48011C3F3130343F4801399
:1003400001FB024400FB034E840A970A44EA8154ED
:1003500047EA8357A4FB076802958D0A05FB0785CA
:100360004FEA932C04FB0C542705029D4FEA0658D4
:1003700047EA1637B5EB08056EEB070C870E920EB1
:1003800047EA811742EA8312A7FB0201B6EB0B0191
:1003900064EB00042B0D43EA0C335E1844EB1C5055
:1003A000DA465146E7FB0201C5F313044FEA0B336B
:1003B00043EA14534FEA0432019C43EA0603A4F1D2
:1003C0000C040294009CCDE900B400F086F903B05F
:1003D000BDE8F08F00200146F9E72DE9F04D81EAF4
:1003E000030404F0004B21F0004514464FF0000ACE
:1003F00023F0004150EA050220D054EA01021DD04A
:10040000C5F30A570246C5F31303C1F31300C1F342
:100410000A5640F4801543F48013A7EB0608101B1E
:10042000D64608F2FD3873EB050002D308F1010847
:1004300001E092185B41B8F1000F03DA0020014699
:10044000BDE8F08D00204FF48011064684460EE092
:10045000171B73EB050705D3121B63EB050306435C
:100460004CEA010C49084FEA300092185B4150EA0F
:100470000107EDD152EA030012D082EA040083EAB8
:100480000501084305D0101BAB4106D20122002311
:1004900006E000224FF0004302E06FF0010253102B
:1004A0001AEB06004CEB085110EB0A0041EB0B0174
:1004B000BDE8F04D00F002B90EB5C10F80EAE07062
:1004C0000844CA07002140F233438DE80E000A4673
:1004D0000B4600F002F903B000BD0EB540F2334107
:1004E00002910021CDE900110A460B4600F0F5F813
:1004F00003B000BDC1F30A5210B5C1F3130140F2BD
:10050000FF3341F480119A4201DA002010BD40F21D
:1005100033439A42A2F2334203DC524200F087F89E
:1005200010BD904010BD00F0004230F000400AD0F5
:10053000C10D01F56071C0F3160042EA0151C20815
:1005400040071143704700200146704730B5041E34
:1005500071F1000404DB4FF00044404264EB010100
:10056000141E73F1000405DB1C464FF00043524299
:1005700063EB04038B4208BF824230BD30B5041EDA
:1005800071F1000404DB4FF00044404264EB0101D0
:10059000141E73F1000405DB1C464FF00043524269
:1005A00063EB0403994208BF904230BD01F0004361
:1005B00030B421F0004150EA010206D00A0DA2F544
:1005C0006072C1F31301002A02DC30BC00207047C6
:1005D000440F44EAC104C100E01830BC00EBC25033
:1005E00000F035B830B50B4601460020202201242A
:1005F00009E021FA02F59D4205D303FA02F5491BF1
:1006000004FA02F52844151EA2F10102F1DC30BD06
:10061000202A04DB203A00FA02F1002070479140C2
:10062000C2F1200320FA03F3194390407047202AB7
:1006300004DB203A21FA02F00021704721FA02F38C
:10064000D040C2F12002914008431946704700296A
:10065000A8BF7047401C490008BF20F00100704748
:1006600010B4B0FA80FC00FA0CF050EA010404BFA8
:1006700010BC704749B1CCF1200421FA04F411FAFE
:100680000CF118BF012121430843A3EB0C01CB1D42
:100690004FEA00614FEA102042BF002010BC7047B3
:1006A00000EBC35010440029A4BF10BC7047401C8D
:1006B000490008BF20F0010010BC704710B5141E9F
:1006C00073F1000408DA401C41F1000192185B410B
:1006D0001A4301D120F0010010BD2DE9F04D9246E2
:1006E0009B4611B1B1FA81F202E0B0FA80F22032F9
:1006F0009046FFF78DFF04460F4640EA0A0041EAA4
:100700000B0153465A46084313D0114653EA0100E1
:1007100019D0C8F140025046FFF789FF05460E4642
:10072000504659464246FFF773FF084305D0012063
:1007300004E020463946BDE8F08D0020054346EA36
:10074000E0762C4337430A986305E40AA0EB0800DF
:100750000022FD0A44EA47540A3002D5002001462F
:10076000E9E7010510196941DDE90845001969410A
:10077000BDE8F04DA2E72DE9FE4F804681EA030077
:10078000C00F0C46009021F0004123F00045B8EB6B
:100790000200A94105D24046214690461C460B4620
:1007A000024623F00040104347D0270DC7F30A004C
:1007B000C3F30A510290401A019040286BDAC3F348
:1007C000130040F4801B0098924620B10023D2EB26
:1007D000030A63EB0B0B01985946C0F140025046E7
:1007E000FFF716FF06460D4650465946019A00F09F
:1007F000E5F810EB08006141002487EA115284EA11
:10080000E7731A4340D0009A62B3019A012A4FEA73
:10081000075215DC001B61EB02014FF0004202EAB7
:100820000752CDE90042001C41F5801132462B46AB
:10083000FFF753FF03B0BDE8F08F40462146F9E7CC
:10084000001B61EB0201001C41F5801300185B41A5
:100850002018A2F5001747EB030140EAD570B6193E
:100860006D4111E06D084FEA360645EAC0754FEA62
:100870000752001B61EB0201001C41F58011490881
:100880004FEA30000019514132462B4603B0BDE813
:10089000F04FFFF713BF0098012240000023D0EB78
:1008A000020263EBE073009821464FEAE074B8EB74
:1008B000000061EB0401E9E783F000435BE781F0AE
:1008C000004158E72DE9F04D00231A461B1A8A41D2
:1008D00003DB00200146BDE8F08DC1F30A52C1F3ED
:1008E000130141F480154FF0000BD10702D100181D
:1008F0006D41521E0027044640F2FF11384601EBBD
:10090000620A3E468046024600204FF48011FFF7FF
:100910008EFEC2197141BB1846EB0100B4EB030C0B
:1009200075EB000C04D3E41A65EB000517460E4680
:10093000241908F101006D4180463428E3DDF919DE
:1009400046EB0600091BA84103D24FF0FF321346C5
:1009500001E0002213461BEB070046EB0A51BDE8FD
:10096000F04DFFF7ABBEC1F30A52C1F3130140F2E1
:10097000FF3341F480119A4202DA002001467047A9
:1009800040F233439A42A2F2334202DC5242FFF772
:100990004EBEFFF73DBE0000064C074D06E0E06886
:1009A00040F0010394E8070098471034AC42F6D3B6
:1009B000FFF7EEFBC4190308E4190308202A06DB3D
:1009C000CB17203A41FA02F043EAE07306E041FA1D
:1009D00002F3D040C2F1200291400843194670470B
:1009E00070B58C1810F8015B15F0070301D110F8F1
:1009F000013B2A1106D110F8012B03E010F8016B1E
:100A000001F8016B5B1EF9D12B0705D40023521EA0
:100A10000DD401F8013BFAE710F8013BCB1A921C08
:100A200003E013F8015B01F8015B521EF9D5A14206
:100A3000D8D3002070BD000070B5456882B0044670
:100A4000014628460BF010FC68B123680F2B59D0E3
:100A50000BDD282B45D0B3F5107F3CD0112B49D0AE
:100A600020460BF011FF02B070BD0B2B20D00E2BD7
:100A7000F6D1E3681A6859680D2A53D0202A31D17B
:100A8000002928464FF480717DDD0BF0CDFC28460F
:100A900002F0CAFE02AB846A43F8040D184602F065
:100AA000F7FFA207DFD5284601210DF013FADAE798
:100AB000284602F0B9FE02AD03466830019302F009
:100AC000A1FC55F8040D03216C3002F0B7FC284658
:100AD00002F0DEFFC4E7324B214628461B689847E8
:100AE000C1E7E368002BBBD128464FF480710BF0BF
:100AF000A3FBB5E72B4B1B68002BB4D0214628463F
:100B00009847B0E7284602F08FFE02AB43F8040D89
:100B1000426E1468184602F0BBFF002CA3D0284692
:100B2000A047A0E70029DDDD4FF4807128460BF0D7
:100B30007BFC284602F078FE02AC866A44F8040D7D
:100B4000204602F0A5FFB10703D5012128460DF08C
:100B5000C1F94FF4807128460BF06EFB284602F075
:100B600063FE034620461E8E9C6A019302F090FFAE
:100B7000304606F0D3FEA3077FF575AF2846022165
:100B80000DF0A8F96FE70BF057FB284602F04CFE7A
:100B900002AB846A43F8040D068E1846E6E700BFF0
:100BA000380100208CC201202DE9F043044687B0B3
:100BB000B0F90C60A569B0F90A002F4F0091B4F9A3
:100BC00010E00297B4F90E70F1184C35002610446D
:100BD0000395019673463A46B4F908500BF066FD4A
:100BE000804618B9404607B0BDE8F08302F01CFE0D
:100BF000224F0590294610223E1D0BF0ADFC0DF151
:100C000018090FCE59F804ED0EF134050FC50FCEBB
:100C10000FC596E80F0085E80F007B6BCEF86430B7
:100C2000484602F035FF7B6B40465B68984740467C
:100C3000656802F0F9FD846E049004A8059402F042
:100C400027FF2946484608F0ADFD0028CAD0059B7D
:100C50009C4209D0404602F0E7FD059A82660346B1
:100C600004A8049302F014FF40460CF09DFD40469A
:100C700007B0BDE8F08300BF390A00083801002042
:100C8000F0B5954A8168436852F8216089B00446FE
:100C9000122B3FD8DFE803F0AE3E3E3E3E0A963EC2
:100CA0003E3E3E3E3E3E3E3E3E3E4100F569002D0C
:100CB00040F0B280371F57F8040F06F0D3FD04F15F
:100CC00010000FC85B1B521B29442844013504F057
:100CD0003FF9022DEFD132696169E3690192A2699E
:100CE0002069F76800970B445B100231521B2844BF
:100CF00003F0A6FEE3696169B2690192A269206905
:100D000074690094194449100131023B521B284474
:100D100003F096FE002009B0F0BD006802F084FDEB
:100D2000856E0490002D00F0CF80A368B0F95C7050
:100D3000002B00F0C780032B14BF0023022300EB1D
:100D40008303406D1C6C06F0A1FD204606F08AFD71
:100D500008AC06A804F0B2FAB6F81CE0BDF818100A
:100D6000BDF81C20BDF81A0054F8106DBDF81E30F7
:100D70007144CEEB02020230023BADF81810ADF820
:100D80001C20B6F95E10B6F96020ADF81A0006A86E
:100D9000ADF81E3005F0CEFF204602F079FE0220AD
:100DA00006F0AAFD284602F03FFD08AC06A944F86B
:100DB0000C0D3A4603F08EFB204602F069FE00203F
:100DC00009B0F0BD006802F02FFD049020680EF01D
:100DD0004BFBA8B9049B5D6F05B9DD6E04A802F05A
:100DE00057FE0023284621681A4603F04BFA0020DC
:100DF00009B0F0BD00680DF03BFB002009B0F0BD6C
:100E0000A368002B64D1049A136F002B14BF6C23CA
:100E1000682313445D68E1E7B36803937368029342
:100E2000374600F1140157F804090EC901902069F2
:100E3000009507F0F5FF002557F8040F06F012FDA6
:100E4000F369A26921696069D21A1944284403F040
:100E5000C1FEF369A2692169E069D21A1944401BF5
:100E600003F0B8FEF369E26961692069D21A194496
:100E7000284404F0AFF8F369E2696169A069D21A05
:100E8000401B1944013504F0A5F8022DD4D1B068F7
:100E900006F0E8FCF16920696569E36942185B1AAC
:100EA000013A2944023004F0E7F8F169A269656962
:100EB000E369501A5B1A01302944023A04F0DCF865
:100EC000F56908E701233AE704A802F0E1FD21E70C
:100ED000049BDD6E82E700BF88F5020810B582B082
:100EE00018B90446204602B010BD02F09DFC02ABCA
:100EF000448E43F8040D184602F0CAFDC4F30024E2
:100F0000204602B010BD00BF054B06495A6A10B416
:100F1000054C58620C6010465DF8044B704700BFEA
:100F20003C0100206C010020700100200349044BAB
:100F30000448054A08601A60704700BF3801002065
:100F40008CC20120294F0108D94D01082DE9F04735
:100F5000466886B00546304602F066FCC36D0090D8
:100F6000D0F88840D0F88070D0F86880B0F87C90D5
:100F7000002B63D0D3F800A0684602F089FD14B9B5
:100F800009E024683CB16368284698470028F8D0F7
:100F900006B0BDE8F0872B68172B00F0A4801DDC9D
:100FA0000F2B00F08C807CDC0B2B00F0BE800D2B17
:100FB0000AD119F0080F07D1EB68DB6823B11B7A5F
:100FC00013B130460DF08CF9304629460BF04CF940
:100FD0000028DDD028460BF057FCD9E7262B74D02B
:100FE0002EDC1E2B00F0AD80202BEDD1EC68002C08
:100FF000EAD0314660680EF021FA002800F0BA808D
:10100000304602F011FCB0F87C300190190740F135
:10101000228101A802F03CFD314660680EF0FCF927
:101020000028D1D0304602F0FFFB034662680190F1
:1010300001A8C3F8802002F02BFDC5E79A469BE784
:101040002A2B65D0B3F5107FBED13046D5F80C8081
:1010500002F0EAFB06ACB0F87C7044F8140D2046B0
:1010600002F016FDEB68002B92D098F80830002BA8
:1010700000F0A580390740F1B18030460BF0D8FA76
:1010800007F48873B3F5887F82D107F080039BB2A1
:10109000002B7FF47DAF4146304605220DF0C4F8A9
:1010A00076E7112B22D0142B8ED1304601A900F007
:1010B000A7FC02AB03CBEB681860596068E7BAF194
:1010C000000F81D03046D0477EE7EB68022B7FF4DB
:1010D0005FAF06A9272241F8142DA8680396049350
:1010E0000EF056FB54E7C5F80C8051E73046EC682B
:1010F00002F09AFB01902389012B05D1B0F87C30D6
:1011000043F48073A0F87C3001A802F0C1FC5BE7D7
:10111000304602F089FBEB680090002B62D0C0F8EB
:101120008430684602F0B4FC32E7304602F07CFBC3
:1011300003467030009302F065F9684602F0A8FC9F
:1011400042E7EC68012C51D0002E3FF421AF30462D
:1011500002F06AFBB0F87C3001901C0706D523F042
:101160000803A0F87C3030460CF01EFB01A802F00A
:101170008FFC0DE7304602F057FBB0F87C30019051
:101180001A0706D523F00803A0F87C3030460CF08F
:101190000BFB01A802F07CFC314620680EF03CF904
:1011A00000283FF411AF304602F03EFB03462268B0
:1011B000019001A8C3F8802002F06AFC04E73046E1
:1011C00002F032FBB0F87C200190034622F48072DA
:1011D0002046A3F87C2002F05BFCD9E630460DF0F7
:1011E0007FF84AE7D0F88430EB609AE738460CF095
:1011F00055FDF8B138460DF073F838460CF090F90B
:1012000088B926B9002F7FF4C3AEEF60C0E6304640
:1012100002F00AFBB0F87C3001901A0723D501A830
:1012200002F036FCEEE7214638460BF0FDF8002EC2
:10123000E8D0ECE740460DF0A5F80746304602F04E
:10124000F3FA03466846C3F88070009302F020FC6E
:10125000002ED7D0DBE743F00803A0F87C303046FF
:101260000CF0A2FAD5E643F00803A0F87C30304633
:101270000CF09AFAD3E700BF2DE9F04704468CB092
:10128000B0F90C60A569B0F90A00B4F910E000915A
:10129000B4F90E70DFF81CC1CDF808C0F118603544
:1012A0004FF4805601960395104473463A46B4F8BD
:1012B00012A0B4F9085067680BF0F8F9064618B99F
:1012C00030460CB0BDE8F08702F0AEFADFF8E890E7
:1012D0000490294630224D460BF03EF90DF13008BE
:1012E0000FCD58F820ED0EF134040FC40FCD0FC40C
:1012F00095E80300149B84E803000025CEF86430D1
:10130000D9F82830CEF85C30CEF88050CEF86C504A
:10131000CEF88850AEF87CA0404602F0B9FB07A991
:10132000304600F06DFBBDF92210BDF92000BDF97B
:101330002420BDF926301E4C03955B1A121A41F287
:101340008275013201330294009601950BF0AEF9DB
:10135000D9F8283004465B6830469847304602F09A
:1013600063FA034640469C66049302F091FB3046C4
:101370000BF0D2FB304602F057FA036F059005A838
:10138000069302F085FB394606A808F00BFA002800
:1013900096D0304602F048FA069A0267034605A83E
:1013A000059302F075FB30460CF0FEF988E700BFAC
:1013B000991D00084D0F0008FC0100202DE9F041A7
:1013C000044690B0006800F0CDF9B04B6668A3F118
:1013D0002C05002808BF1D461C2E00F2F880DFE80F
:1013E00016F02200F600F600F600F6003500F600D2
:1013F000F600F600F600F6005100F600F600FB00DD
:10140000F600F600F6000F01F600F60049014B0168
:101410004D014F01F600F600F6001D006E693046E2
:1014200010B0BDE8F081206802F0FEF910ABB0F812
:101430005A2043F82C0D42F00C02A0F85A2018460E
:1014400002F026FB20680DF013F8E8E72B69019302
:10145000B4F910E0B4F91470B4F91860B4F91C4090
:10146000EB6800933246704639462346ADF820605B
:10147000ADF81CE0ADF81E70ADF82240002603F078
:10148000DFFACCE71C2320680893079002F0CCF920
:10149000036D059007A89847064605A802F0F8FADC
:1014A000012E40F32681AB6802936B6801932B6891
:1014B0006269A16920690093334607F0B1FB27698F
:1014C000A3693744C6EB0308286806F0CBF9424607
:1014D0003946606903F07EFB686806F0C3F960690D
:1014E00042460130394603F075FB6B6A022B00F36C
:1014F000F3802A6A964218DA63692069012E03F1A3
:10150000020740F32481024406EB0308013A304409
:101510004346394603F0B0FDA069821BEB69C01A4F
:1015200039464346013003F0A7FD012ED4BF66695A
:101530006369E7692868CCBFF6180236013F06F0F8
:1015400091F93A463146206903F044FD3A46314666
:10155000A06903F03FFDE769686806F083F9206938
:10156000023F3A460130314603F034FDA0693A4665
:101570000138314603F02EFDEB69022B40F38280E7
:10158000AB6AE769A868022BCCBFFF1A023F06F0DE
:1015900069F9EA69022A00F396802B6A022B00F3AC
:1015A0008880286806F05EF9A2692169E06903F085
:1015B00011FB686806F056F9A2692169E069013AF1
:1015C0000131013803F006FBAE6A022E60DC002612
:1015D000304610B0BDE8F08104F114010EC9A868CE
:1015E0002569ADF81E10ADF82020ADF82230ADF819
:1015F0001C5006F037F907A803F062FD00260EE73D
:10160000298B2269A3696669E5692068ADF81E60C7
:101610005B1A0A44ADF82030ADF81C20ADF822501A
:1016200002F002F9036F0590FBB1022006F064F9A5
:10163000059AB2F87C30C3F3C0030E3302EB830388
:10164000986806F00FF9059B586B06F01FF9059B8B
:10165000186F02F0E9F8059B0690B3F95A2007A924
:1016600002F038FF06A802F013FA05A802F010FAFB
:101670000026D4E6AE6AD2E6EE69D0E62E6ACEE661
:101680006E6ACCE62B6A022B8BDD79E768020020BC
:10169000A269E7692169A8688C1C951E06F0E2F82A
:1016A000B91B2A4620460131BB1E03F0E5FC00268B
:1016B000B5E6A269E869101A3B4631460130023AA4
:1016C00003F0DAFC6DE720690244013A02303B4640
:1016D000314603F0D1FC60E7A86806F0C3F8616901
:1016E0006B6A0B4442463846013B023103F0C4FCAE
:1016F0001BE7286806F0B6F82169EA6960690A44C0
:10170000013A03F067FAA269E9696069511A013187
:1017100003F060FA676920690137394603F0F4FB8A
:101720003946A06903F0F0FB686806F09BF8206971
:101730003946013003F0E8FBA0693946013803F06F
:10174000E3FB2769A3690237A3F10208BCE6024460
:10175000013A02303B46394603F08EFCA069B84698
:10176000821EDBE610B582B018B90446204602B0EE
:1017700010BD02F059F802ABB0F87C4043F8040DFC
:10178000184602F085F9C4F3C004204602B010BD2B
:1017900001290DD8074B30B453F8215004460FCD22
:1017A0000FC40FCD0FC495E8070084E8070030BCD4
:1017B000704700BF98F5020800B97047F0B583B0D4
:1017C00014460D4602F030F80090006F20B96846CC
:1017D00002F05EF903B0F0BD02F026F80746019072
:1017E000FEF75EFD0A4BA0420646A8BF04F1FF3695
:1017F000394632461B68284698470023AB5501A856
:1018000002F046F9684602F043F903B0F0BD00BFAC
:101810005C040020074A084B30B402F10C0110614F
:1018200003C9DC69054D18332A6083E803002046AC
:1018300030BC704728020020FC0100202402002058
:1018400000B970472DE9F04184B004460E4601F01E
:10185000EBFF458EC36D039005F02005ADB29F6888
:1018600045B1B0F954502DB9406B03F097FD039B7F
:10187000851C00E003465E6303A802F009F93B689B
:101880000121204698473B68064603212046984799
:101890003B6880460021204698470746204600F0D6
:1018A0003DFA4346324629462046009700F0BCF9EF
:1018B00020460BF079FF04B0BDE8F081012923D860
:1018C00070B404460D46114E0FCC56F825603546CF
:1018D0000FC50FCC0FC594E80700F36985E8070032
:1018E000012BDCBF0223F361336A012BDCBF02232F
:1018F0003362736A012BDCBF02237362B36A012B6C
:10190000DCBF0223B36270BC704700BF98F50208C9
:1019100000B9704730B583B00C46054601F084FF2E
:10192000B0F95A300190A34204D0A0F85A4028469A
:101930000BF03AFF01A802F0ABF803B030BD00BFD6
:1019400000B9704730B583B00C46054601F06CFF16
:1019500002AB046443F8040D4464184602F098F89E
:1019600028460BF021FF03B030BD00BF2DE9F04346
:10197000044685B020B90546284605B0BDE8F08389
:101980000E4601F051FFB0F954500390B5422AD0F1
:10199000418E01F0200189B219B15DB303462F4693
:1019A00001E003460F46DA6DA3F854609668012102
:1019B000336820469847336880460321204698477D
:1019C000336800218146204698470646204600F0AD
:1019D000A5F9204600964B464246394600F024F9C8
:1019E00020460BF0E1FE03A802F052F8284605B0AD
:1019F000BDE8F083406B03F0D1FC039B871CD2E76A
:101A00002DE9F04F89B007460D4601F00DFFC36D7B
:101A100005909C6801212368384698472368032174
:101A200080463846984723680221834638469847BF
:101A300023680021824638469847814605980DF074
:101A400009F9064605980DF00DF903460598448EF0
:101A500004F02004A4B2B4B1B0F95420B0F9584055
:101A6000002A4ED091B2C06E0C44A4B280B1039152
:101A7000029201930BF09AFA019B029A03990FFAD2
:101A800080FE80B205E021462246C06E0028EED1DD
:101A900086461FFA89FC013ECBEB060B6444013BF2
:101AA0000CF1FF3C8C44CAEB03030FFA8BFB0FFADB
:101AB00088F804446B812A80A5F802E0A5F812C0DA
:101AC000A5F808B0A5F810B0A5F80480A5F80C801A
:101AD000A5F80E90EC8005A801F0DAFF08AAB5F988
:101AE000103042F8043D3846B5F90C30069306A98B
:101AF00000F04CF8069A079BAA812B8209B0BDE83A
:101B0000F08F406B019303F049FC023081B20C442A
:101B100002B2A4B20598019BB7E700BF08B5438E97
:101B200003F020039BB24BB10246B0F9540000B160
:101B300008BD506B03F032FC023008BD184608BDEA
:101B400070B58AB00C46064601F06EFE0AABC26D57
:101B500043F8280D1846956801F09AFF0196032C6A
:101B600005D8DFE804F00F0C0902172302936B6815
:101B700001A898470AB070BD15230293F7E7162312
:101B80000293F4E718230293F1E700BF2DE9F04335
:101B900083B088460446914601F046FE034602A8FB
:101BA000DA6D40F8083D9568B3F90070B3F902604A
:101BB00001F06EFF2B68204600219847054620461D
:101BC0000BF038F960B3044607E001A801F060FFAC
:101BD00020460BF05DF9044610B3204601F024FEC8
:101BE000B0F9023001909B1B9D42EED1836A1B0627
:101BF0000BD5B0F90030D9F80020DB1B934203F17C
:101C0000FF33E2DCC9F80030DFE7B0F90430D8F880
:101C10000020DB1B9342A4BF0133C8F80030D4E797
:101C200003B0BDE8F08300BF2DE9F04F83B00E464E
:101C30009B460546144601F0F7FD0DF10808C26DFC
:101C400048F8080DD2F80890FFF768FF07464046AD
:101C500001F01EFFD9F80030012128469847D9F835
:101C600000300321824628469847D9F80030804644
:101C7000002128469847B742814644D028460BF0B9
:101C8000D9F8BE1B0546002844D00C9B0027C8EBA2
:101C90000B0BC3EB0909C4EB0A0AB8460AE0B4F51A
:101CA000007F10D001A801F0F3FE28460BF0F0F8F9
:101CB000054678B3284601F0B7FD846A019004F424
:101CC0002074802CEBD1BEB9836A1A0609D49B0517
:101CD000E8D507FB06A14A4628460CF0A7F80137CD
:101CE000E0E708FB16B14A4628460CF09FF8019B36
:101CF00008F101089B6AEAE72846324631460CF0B3
:101D000041F90198E0E7A245B8D1D845B6D10C9B7E
:101D10009842B3D103B0BDE8F08F00BF70B586B074
:101D2000064601F081FD034606A89C6E40F8183D6A
:101D3000DD6E01F0ADFE84B96DB1304601A9FFF74B
:101D40005FFEBDF90A20BDF90630BDF9081028462E
:101D5000D21A0BF0D5FF06B070BD304601A9FFF7CF
:101D60004FFEBDF90A20BDF9081020460BF0C8FF50
:101D7000BDF90A00BDF90E20BDF90C30BDF90810FF
:101D8000121A591A2046013201310CF097FB002D2E
:101D9000D7D106B070BD00BF2DE9F043456887B0CC
:101DA000044628460BF07EF8074601F03DFD034649
:101DB00006A85E6E40F8143DD3F84880D3F88090B2
:101DC00001F066FE23680E3B232B3FD8DFE803F0CB
:101DD00035463E3E3E3E12123E123E3E3E3E3E3EA8
:101DE00018243E3E2B3E3E3E3E3E3E3E3E3E3E3E66
:101DF0003E3E3E3020460AF047FD07B0BDE8F08386
:101E0000E368002BF9D0B9F1000F3BD04D4539D034
:101E100048460CF065FAF0E7214638460AF024FA05
:101E200007B0BDE8F083C4F80C8007B0BDE8F083CC
:101E30000023E36007B0BDE8F083E3685A68002A36
:101E400004DD1B68092B1DD00A2B1FD0002ED1D01A
:101E500067602046B04707B0BDE8F0836FF070437D
:101E6000984504D0404608F01BFE02F02BF8002EE7
:101E7000C3D094E80F0002AC84E80F00204603951D
:101E8000B047BAE728460CF07DFAB6E728460CF0D2
:101E9000BDFAB2E72DE9F041044686B00020E668BD
:101EA0000F46904605F0F0FC05460EB13379C3B9F4
:101EB00025F0020005F0E8FC2669CEB10123E068B8
:101EC000A1680393029363882288019000913846A9
:101ED00041463468A047284606B0BDE8F04105F009
:101EE000D3BC40F0020005F0CFFC2669002EE5D1FE
:101EF000124E134B32681B68527CE06821469847AB
:101F0000E188B0B1638822880590D4F808E0A688FB
:101F100003960124029138464146CDF810E0019421
:101F2000009407F0C1FF284606B0BDE8F04105F077
:101F3000ABBC012904BF3368986BE3E714010020B0
:101F4000080100202DE9F04F744D754E2C6817469E
:101F500040F2C32387B003FB07F30246646E02928C
:101F600086FB0360DB17BE18C3EBA01307EBD77229
:101F700007FB07F808EB620E01336468CDF814E044
:101F8000304689460493A0472B68029C5B6E494605
:101F90005B68E01B98472B68CDF80C905B6E4A4657
:101FA000BA1811465B680092204698472B68039A3E
:101FB0005B6ED11B5B6820469847049B002B40F367
:101FC000A9800124AA46B9464BE0029B039A0099D6
:101FD000E718C4EB030B131B02EB040801932A68F8
:101FE000526E3846526890472A680099526E584699
:101FF000526890472A68526E414652683046904770
:102000002A680199526E304652689047B9F1000F24
:1020100021D0DAF80020039B526EC9EB0301384649
:1020200052680F469047DAF80020526E39465846FB
:1020300052689047DAF80020029B526EC9EB030702
:102040004146526838469047DAF800200199526EAE
:10205000384652689047049B0134A3425ADB09FB7F
:1020600009F8059B04FB04884345AEDA2A68029B05
:10207000DDF80080526EE7184146526838469047B6
:102080002A68029B526EC4EB030B414652685846C5
:1020900090472A68039B526E04EB0308526841463E
:1020A000304690472A68039B526E1B1B304652688D
:1020B000019319469047B9F1000F21D0DAF80020BA
:1020C000039B526EC9EB030631465268384690476F
:1020D000DAF80020526E3146526858469047DAF8D6
:1020E0000020029B526EC9EB0306526830464146FF
:1020F0009047DAF800200199526E304652689047B6
:10210000029B09F1FF3909EB0306039B4B44009343
:10211000194664E707B0BDE8F08F00BF1401002046
:10212000D34D62102DE9F04F161A85B05D1A9E4608
:1021300056EA0503DDF838B078D086EAE67385EA1A
:10214000E574A3EBE673A4EBE5749C42074689466D
:1021500032DC1C46A6424FF0000301933AD06D4298
:1021600039464FF0FF33002D1746C6F100040A46EA
:10217000F1460393DBF8001032D1DFF80883019BAE
:10218000D8F800E00846002B00F0CF809EF81A3007
:10219000002B00F0C181002CC0F2C581B54EAA46CB
:1021A0007246013B451C032B00F23281DFE813F03D
:1021B0004A013F0156011F013B4630462E4611465B
:1021C0004F46A64299464FF00103724605468E4699
:1021D0000193C4D10123002D0393DBF80010CCD070
:1021E000DFF8A082D8F8000004EBD476827E4FEAB4
:1021F0006606B8BF7642F2B9002C14DB019B002BB7
:1022000000F05181924601E0D8F80000436E96FB41
:10221000F4F00AEB07015B6848440AF1010A9847A9
:1022200054452E44F0DA05B0BDE8F08F05B0BDE8A6
:10223000F04F00F07BB95A1C00F02D81002C53DBCD
:10224000CDF808904FF0000AC14698464144CBF8BB
:102250000010827E013A032A15D8DFE802F0574BBE
:102260002C02854B4FEAE17E83FB0132CEEBA202CA
:1022700002EB4202A1EBC2020B2A12DD22F00402A1
:10228000103A012A0DD996FBF4F1029B426E1944D3
:10229000019B002B40F0F880526838469047DBF8ED
:1022A00000100AF1010A544507F101072E4416DB1C
:1022B000D9F80000CAE76F4B4FEAE17E83FB013299
:1022C000CEEBE20202EB8202A1EB82020B2AD7DC08
:1022D0000AF1010A544507F101072E44E8DA039A8E
:1022E0000132434600F0DD80CB1ACBF8003005B058
:1022F000BDE8F08F614A0A40002AC0F2E680012A58
:10230000CCBF00220122002ACBD1BCE75C4A01F1FC
:10231000060E0EEA0202002AC0F2DC800B2ACCBFB5
:1023200000220122002ABCD1ADE79EF81A30002B12
:1023300000F0E980002CC0F2F680DDF804A04E4EDB
:102340007246013B451C032B13D8DFE803F04337EB
:10235000210286FB0031C317C3EBA10303EB430348
:10236000A0EBC3030B2B0ADD23F00403103B012B6E
:1023700005D9536E49465B6807EB0A0098470AF196
:10238000010A544514DBD8F800202846937ED8E78C
:10239000384B83FB0031C317C3EBE10303EB83032B
:1023A000A0EB83030B2BE1DC0AF1010A5445EADAC6
:1023B000691ECBF8001005B0BDE8F08F2F4B03402D
:1023C000002BC0F29680012BCCBF00230123002BF1
:1023D000D5D1CEE72A4B691D0B40002BC0F28E8071
:1023E0000B2BCCBF00230123002BC8D1C1E7224B0C
:1023F00083FB0031C317C3EBA10303EB4303A0EB43
:10240000C3030B2B0ADD23F00403103B012B05D97A
:10241000536E0AEB07015B68484698470AF1010AC8
:102420005445C5DBD8F800202846937EB9E6134B07
:102430000340002B53DB012BCCBF00230123002BD7
:10244000ECD1E5E70E4B691D0B40002B4CDB0B2B51
:10245000CCBF00230123002BE0D1D9E786FB00315C
:10246000C317C3EBE10303EB8303A0EB83030B2B45
:10247000CBDCD3E767666666ABAAAA2A03000080B6
:102480000F0000801401002008465268394690472A
:10249000DBF8001005E72144002CCBF80010BFF654
:1024A000CFAE214420E79A4601E0D8F80000436E01
:1024B00096FBF4F10AEB07005B6849440AF1010A54
:1024C000984754452E44F0DAADE6013A62F0030233
:1024D000013214E7013A62F00F0201321EE7013BBC
:1024E00063F003030133A6E7013B63F00F030133FD
:1024F000ADE7013B63F00303013364E7013B63F0A5
:102500000F0301336CE7DEF864301B684946384638
:1025100005B0BDE8F04F18473946484605B0BDE85C
:10252000F04F07F0A7BE0D4642E700BF064B1B6801
:102530001A7E012A05D0013A02EBD272521000F045
:1025400005B85B6E5B681847140100202DE9F04F59
:10255000DFF8DCB0354EDBF80040154640F2C32210
:1025600002FB05F2034685B086FB0209606E02930A
:10257000D217C2EBA919EF18C5EB030805EBD57EFE
:1025800005FB05F6046806EB6E0309F101093A46FE
:10259000404601938A46A047B9F1000F42DD029AF6
:1025A000012413190293531E0393334616461AE06F
:1025B000013DAF19C5EB0608DBF800305B6E0AEB96
:1025C00004013A461B6840469847DBF800305B6ED2
:1025D000C4EB0A013A461B68404601349847A145BE
:1025E00020DB05FB05F3019A04FB04339A42E3DA8E
:1025F000A945DDDA029ADBF80030171B039A5B6EFF
:1026000002EB0408384642460AEB05011B6898476E
:10261000DBF800305B6E424638461B68C5EB0A01AA
:102620009847C5E705B0BDE8F08F00BFD34D6210F5
:10263000140100202DE9F04F002987B01F4C40F312
:10264000D5822746054600EB810E43F6FF74B5F9A7
:102650000260B44205F10405A8BF3446B742B8BFD2
:102660003746AE45F3D10497154D2D686D696DB1B0
:10267000B5F90660049FB5F90250F61AED1AB74293
:10268000A8BF3746AC420497B8BF2C46049DAC4265
:1026900000F38E81DFF82C800593934606464D1E8D
:1026A0008A460020074B8245186040F37C81059BD9
:1026B000CDF80CB02344029319E000BF01C0FFFF26
:1026C0001401002000C40120A6450CD0C0F2738183
:1026D000A44500F38581F44540F37881A64502DCEA
:1026E000A44580F28281BA45384640F3EC8006EB7F
:1026F0008001A84200F10107ACBF0023BB00B1F983
:1027000002C03344A4450246B3F902E0DCD1A64539
:1027100000F03E82002DC8BF0021E4DD5AB1013A2D
:1027200006EB82030131B3F90230A3420BD1A94277
:10273000D9D0002AF3D12A4606EB82030131B3F93E
:102740000230A342F3D01B1BC4EB0E0E93EA0E0F14
:1027500036F9202040F112829F4B1B680B2BC2DC04
:10276000002B40F32B82581E410008EB010CBCF9F2
:1027700004E0724500F3318208EB4309A9F804E054
:10278000002800F01B82981E4FEA400908EB090E52
:10279000BEF904B05A4500F38D80ACF804B00028AF
:1027A00000F00C82D81E410008EB010CBCF904C0FB
:1027B000624500F31482AEF804C0002800F0FE81E8
:1027C000A3F1040984484FEA490B00EB0B0EBEF954
:1027D00004C062456EDC4144A1F804C0B9F1000FA9
:1027E00000F0EC81581F410008EB010CBCF904908B
:1027F0004A4500F3E781AEF80490002800F0DE813E
:10280000981F4FEA400B08EB0B0EBEF904904A45A7
:1028100050DCACF80490002800F0D081D81F4100B3
:1028200008EB0109B9F904C0624500F3CB81AEF8A9
:1028300004C0002800F0C281A3F1080C4FEA4C0E3E
:1028400008EB0E00B0F90400824233DCA9F8040062
:10285000BCF1000F00F0B281A3F10900410001902A
:102860005D4800EB0109B9F904B05A4500F3BB819A
:10287000C6440198AEF804B0002800F09F81A3F18F
:102880000A004FEA400C08EB0C0EBEF904B05A45A2
:1028900010DCA9F804B0002800F09081A3F10B012E
:1028A000490008EB0100B0F90400824200F399816D
:1028B000AEF80400484801440133BA4503608A80F9
:1028C00038463FF714AF444BDDF80CB01B68002BC3
:1028D00069DD012BB8F9040065D0404BB8F906203A
:1028E0001B68029F5B6E58441B685A4439469847E0
:1028F000D8F80030022B56DD032BB8F9080052D06F
:10290000364BB8F90A201B685B6E58441B685A4462
:1029100039469847D8F80030042B44DD052BB8F928
:102920000C0040D02D4BB8F90E201B685B6E58444C
:102930001B685A4439469847D8F80030062B32DDD8
:10294000072BB8F910002ED0244BB8F912201B68C1
:102950005B6E58441B685A4439469847D8F8003093
:10296000082B20DD1C4A092BB2F914001BD01B4B8D
:10297000B8F916201B685B6E58441B685A443946E8
:102980009847D8F800300A2B0DDD0B2BB8F918004A
:1029900009D0124BB8F91A201B685B6E39465844AF
:1029A0001B685A449847049B0134A342BFF679AE92
:1029B00007B0BDE8F08FA445FFF695AEF44514DCF2
:1029C000A4453FF790AEA645FFF68DAE36F9202020
:1029D000B3F9003010E000BF00C401201401002052
:1029E000A6453FF780AEF445EADD6146B3F9002025
:1029F00036F92030F4468E46991ACCEB040303FBDB
:102A000001F3002BCCEB0E0EDBBF4FEA6E0101F1A0
:102A1000FF3103EB6E01591A764B1B680B2B3FF706
:102A200062AE91FBFEF1002B0A44019240F3C48098
:102A3000581E1146420008EB020EBEF904C0614563
:102A400000F3C28008EB4309A9F804C0002800F095
:102A5000B380981E4FEA400B08EB0B0CBCF90490B6
:102A6000494500F38380AEF80490002800F0A4806C
:102A7000D81E420008EB0209B9F904E0714500F3E1
:102A80009F80ACF804E0002800F09680A3F1040CCD
:102A90004FEA4C0E08EB0E00B0F90400814265DCF1
:102AA000A9F80400BCF1000F00F086805149581FBE
:102AB000420001EB02090199B9F904B0594500F34C
:102AC0008780C644AEF804B0002875D0981F4FEA3E
:102AD000400B08EB0B0EBEF904C0614546DCA9F8BB
:102AE00004C0002868D0D81F420008EB020CBCF9D3
:102AF0000490494564DCAEF8049000285CD0A3F152
:102B000008004FEA400908EB090EBEF904B0594528
:102B10002CDCACF804B000284ED0A3F10900420030
:102B200008EB020CBCF904C0614554DCAEF804C0EB
:102B3000002841D02F49A3F10A004FEA400C01EBD5
:102B40000C0E0199BEF9049049450FDC4244A2F8ED
:102B50000490002830D0A3F10B00420008EB0200E3
:102B6000B0F90400814231DCAEF804002148BDF820
:102B700004100244013391800360B4E51E4B0399B5
:102B80001B685B6E0A441B68029910469847AAE5C9
:102B900036F92010B3F900300398014402461818A2
:102BA000154B1B685B6E8142B6BF02460A4608465B
:102BB0001B680299984796E50022D7E7002179E63D
:102BC0005A46D3E7594675E65A00CFE76246CDE745
:102BD0004FEA4C02CAE74A46C8E759006AE6494646
:102BE00068E6614666E64FEA4C0163E6049443F604
:102BF000FF7439E500C40120140100200C4B10B50E
:102C000018680C4C07F04CFF0B4B186807F082FF5C
:102C10002368012200201A769885588507F092FFD4
:102C2000064A2368126802B1DA6100229A7610BD62
:102C3000CCC0012014010020100100200C01002054
:102C40002DE9F04F4F4E3368DA69B3F92250D46959
:102C5000B4F80CB083458BB07DD8E18981427AD33A
:102C6000216808914FF0FF31CBEB000B0791BBF1CE
:102C7000FF3F6AD0177EB3F92A80A27CB3F9249073
:102C800094F810A017FB02F34046069307F05AFF92
:102C90003368069A0899099002FB0B109A6BDB695E
:102CA00004900592A27C03924FF0010BCDF808B07E
:102CB000DA7E01929B7E009328463B465246494667
:102CC00007F0F2F8079801301CD048F0020007F036
:102CD00039FF2C4A079812680899069B03FB0013DA
:102CE000916BD26905910493A37C0393CDF808B04E
:102CF000D37E0193937E009352463B464946284635
:102D000007F0D2F833681F4FDB695A7E1B7E9A4268
:102D100014D9B8F1020F11D088F0040007F012FFA7
:102D20003B68DB69187ED97E9A7E5B7E00FB019151
:102D30000AFB02524B44284607F0C6FA9DF82400CD
:102D400007F000FF3368B3F92250627C15445D84BC
:102D50000BB0BDE8F08FA1680029F6D00F88B8420B
:102D6000F3D3B1F802E08645EFD34968C01B80B2C7
:102D70006768089701EB800731F920B0B7F90210B6
:102D8000079174E714010020044B1B68DB69DB69C1
:102D900009B11A7C0A60587C704700BF14010020FA
:102DA00002230B80704700BFC3699A898A4202D808
:102DB000DA898A4211D2986818B10388994201D2FF
:102DC0000020704742888A42FAD3C91A436833F810
:102DD0002100C043C0F3C03070470120704700BFDE
:102DE0002DE9F043304F3B68DA69B3F92A5087B0D8
:102DF00004460146D06900F0E1F900283DD003887F
:102E0000D0F80480E41A04EB4404A400284618F81F
:102E1000046007F097FE254B18F80420D3F800E073
:102E20003B6801367610814608EB0405BEF1000FC1
:102E300026D0B3F9244095F90310B3F922C095F9CF
:102E400002006B784FF00008CDF814802144AC6884
:102E500004944FF0040801240396CDF808800194EF
:102E600000946044DEF80040A047484607F06AFE40
:102E70003A682979538C0B44538407B0BDE8F0833A
:102E8000B3F924E0B3F9224095F9031095F9020053
:102E900095F801C0AB6801937144204463460096E5
:102EA00000F0D0F9E1E700BF1401002034C5012093
:102EB0002DE9F04F3E4D2B68DA69B3F92A60D369EA
:102EC00089B043B11A88904202D35988814205D211
:102ED0009B68002BF6D109B0BDE8F08FD3F80480D1
:102EE000DFF8CC90841A08EBC407304697F802B09C
:102EF00007F028FE8246286818F83420D0F81CE035
:102F0000D0F838C09EF81830B0F92410B0F922007B
:102F1000CDF814C006934FF0010C7B680493CDF8F4
:102F20000CB0CDF808C09EF81BC0CDF804C09EF8C8
:102F30001AE0069BCDF800E006F0B6FF2B68DA69D0
:102F4000537E92F818B05B4523D9022E069320D009
:102F5000D17E079102F0B6F9064602F097F904F027
:102F600081FCD9F8002018F834C0D469B2F92200E5
:102F700094F81BE00799B2F92440069B0CFB0E0263
:102F800001FB034301FB0B4107F09EF9304604F0BF
:102F900069FC504607F0D6FD2B687978D8695A8CC1
:102FA000807E00FB01225A8409B0BDE8F08F00BF8B
:102FB00014010020114B70B41B68DD69EB6943B14B
:102FC0001A88904202D35C88844205D29B68002B09
:102FD000F6D1184670BC7047801A00EB40005E685E
:102FE000AC7E8200B3181B7913FB04F00029F1D0EA
:102FF000B35C14FB03F30B6070BC7047140100203A
:10300000114B1B68DB69DB69DBB110B40C461A8815
:10301000904202D35988814206D29B68002BF6D198
:1030200001205DF8044B7047821A5B6802EB420294
:1030300003EB820207CA84E8070000205DF8044B16
:1030400070470120704700BF1401002001230B804E
:10305000704700BFC06950B103888B4202D84388D3
:103060008B4203D280680028F6D170470120704758
:103070002DE9F0473A4E336884B0DB6904AF93F82A
:103080001990DB7E47F80C0D00250C4619FB03F95F
:10309000B046AA46013C384622D404F0E3FF336828
:1030A000DB6982460146D86900F088F80028F1D033
:1030B00003884168D8F80020C3EB0A0303EB4303FD
:1030C00001EB8303D26993F902101B79927E0B44C2
:1030D00002FB03F3002BC8BFED18013C3846DCD5DA
:1030E000BAF1000F03D0504606F094F90544326857
:1030F0001C49B2F92230B2F92420ADF80830501E34
:10310000013B0968ADF80A201D448144ADF80C501C
:10311000ADF80E9019B18B680BB102A8984702F078
:10312000D1F833685B8D5B07044616D402F0AEF825
:1031300004F098FBBDF90E30BDF90C20BDF90A1062
:10314000BDF9080007F0C0F8204604F08BFB064BE1
:1031500001221A7004B0BDE8F08702F0B3F8E7E787
:103160001401002034C5012024C5012070B5104D84
:103170002B68B3F92A6082B0B20701900C4612D0D6
:10318000013C09D401A804F06DFF2B68DB69013C08
:103190001B689847631CF5D12A68064B56850022A8
:1031A0001A7002B070BD044B1B689847E8E700BF77
:1031B0001401002024C501202001002040B1038813
:1031C0008B4202D843888B4202D280680028F6D115
:1031D000704700BF114B70B41B68DD69EB6943B1E8
:1031E0001A88904202D35C88844205D29B68002BE7
:1031F000F6D1184670BC70475E68AC7E821A06EB4A
:10320000C2035B7813FB04F00029F3D016F83230C8
:1032100014FB03F30B6070BC704700BF1401002067
:1032200001230B80704700BFC06950B103888B42F7
:1032300002D843888B4203D280680028F6D17047B9
:10324000012070472DE9F04F334C2468257C87B06E
:10325000AD07DDF84090DDF844A00AD52F4CCDF83D
:1032600044A0CDF840902468A44607B0BDE8F04FD4
:1032700060470593E36BDFF8B8801B680492A26B8C
:10328000039101931946D8F80430126802909942CC
:10329000104600923BD007F04FFA06460198204CAA
:1032A000204F07F049FA4FF0010B0546C8F80C60B3
:1032B0005FFA8BF23B683146284698470BF1010BC9
:1032C000BBF10F0F44F8040FF2D11748C8F848506B
:1032D00007F0F8F9019BC8F80430009BC8F80830E3
:1032E000124A0E4B1278BDF810401A721C82039AD3
:1032F000BDF8144002995C8203F11000A3F8149009
:10330000C3F818A007B0BDE8F04FFEF7C3BDD8F86A
:1033100008309842BFD1E3E714010020E803002001
:103320009CC2012070040020EC03002024C5012071
:1033300090C2012000B970470CF020BD08B90020F0
:10334000704770B506460CF019FD044638B3154DAC
:103350001549EA696B6B0132EA6113F830200132DA
:1033600003F8302003EBC00332465E680B6806F1B9
:1033700008000021984731686A6B12F83130012B40
:1033800001D9E86920B9013B02F83130204670BD0F
:103390000138013BE86102F83130204670BD002061
:1033A00070BD00BF4CC4012060040020024B21F01E
:1033B000030183E803007047B8C0012000B97047DB
:1033C00070B50A4C636BC6003344054659684868BB
:1033D0000CF026FB626B6368616A164401330020BF
:1033E0006360716002F83500656270BD4CC40120F5
:1033F00028B1034AD36B036003B15860D0637047B0
:103400004CC40120F8B50468054694B10A4E736BAC
:10341000E7003B44596848680CF002FB716B736825
:10342000726A0F440133002073607A6001F834003F
:10343000746200232B60F8BD4CC40120002929DDF3
:103440002DE9F04700258A46134F041FA94603E0E3
:10345000AA45C4F800901BD054F8046F0135002E23
:10346000F6D07B6B4FEAC6084344596848680CF0B5
:10347000D7FA796B7B687A6A88440133AA457B6006
:10348000C8F8042001F836907E62C4F80090E3D1B9
:10349000BDE8F087704700BF4CC40120F8B5894EE5
:1034A00096F828300446002B2FD00334356CF26B8D
:1034B00024F003040434A54238BF254662B152F813
:1034C000043C9D42144604D114E054F8043C9D424F
:1034D00010D02468002CF8D1F368B46B1C4454F865
:1034E000041C611A0B68002B65D14B689D426CDD92
:1034F000002408E023680BB161685960616801B17C
:103500000B60A24253D02046F8BD6F4B9A685868B2
:10351000012186F828100AB982089A605A25356276
:1035200010272022402519683764B264356580274A
:103530004FF480724FF40075B7653266B5664FF48C
:1035400080674FF400624FF48055A1F11403376790
:10355000B267C6F880504FF400574FF480424FF4E2
:1035600000450344C6F88870C6F89020C6F8985005
:103570004FF480374FF400324FF48025C6F8A07026
:10358000C6F8A820C6F8B050022201254FF4002743
:10359000B16373633261F060C6F8B8705D607562E4
:1035A00075600CF03DFA10F0DDF835637DE72368B7
:1035B000F3632046F8BD002012F0C0F954F8041C53
:1035C000611A0B68002B93D18FE7D6F8B8703D4A8B
:1035D000581B041DBB420C4472D2D2F8B070BB42DF
:1035E0006CD2D2F8A870BB4266D2D2F8A070BB42AF
:1035F00060D2D2F898709F425AD9D2F89070BB42EC
:1036000054D2D2F88870BB424ED2D2F88070BB42FE
:1036100048D2926F934243D2376F2A4ABB423DD27F
:10362000976EBB4238D2176EBB4233D2976DBB4206
:103630002ED2176DBB4229D2976CBB4224D2126C9A
:1036400093420CD2F2687369521B2B44F26073618F
:1036500010B944F8045C56E70CF0E2F9F9E70022EF
:103660003768D1F808E0FB1A3360CB68BEF1000F71
:1036700001D0CEF8043013B1C3F800E0E2E706EB66
:10368000C202C2F844E0DDE70122E9E70222E7E7EF
:103690000322E5E70422E3E70522E1E70622DFE76C
:1036A0000722DDE70822DBE70922D9E70A22D7E76C
:1036B0000B22D5E70C22D3E70D22D1E70E22CFE76C
:1036C0000F22CDE74CC40120B8C00120F8B54A4C08
:1036D00094F82830002B3DD0D4F8BC30464A3BBB90
:1036E000D2F8B43023BBD2F8AC300BBBD2F8A43044
:1036F000F3B9D2F89C30DBB9D2F89430C3B9D2F820
:103700008C30ABB9D2F8843093B9D36F83B9536F8F
:1037100073B9E36E63B9536E53B9D36D43B9536D47
:1037200033B9D36C23B9536C13B96FF00B00F8BDE8
:103730009B68002BF9D0002201E09B6843B15968D7
:103740009B689142104684BF0A461046002BF4D174
:103750000C38F8BD294B9A685868012184F8281064
:103760000AB982089A601968A1635A261022202596
:1037700026622264A564402780264FF480724FF4AD
:103780000075A1F114032765A6652266A5664FF4AE
:1037900080674FF400664FF480524FF400550344A5
:1037A0002767A667C4F88020C4F888504FF4804784
:1037B0004FF400464FF480324FF40035C4F8907057
:1037C000C4F89860C4F8A020C4F8A85002220125CB
:1037D0004FF480274FF4002663632261E060C4F851
:1037E000B070C4F8B8605D60656265600CF018F98F
:1037F0000FF0B8FF25636FE74CC40120B8C001206B
:10380000024B18680C3820EAE07070474CC4012065
:1038100030B1044B5B6B03EBC000436858680C3855
:10382000704700BF4CC40120074AD169536B013176
:10383000D16113F83020013203F8302003EBC003CC
:1038400058680830704700BF4CC4012009B90020F7
:1038500070472DE9F047064608460F460CF08EFAF1
:10386000044600285CD0002E52D02F4D2F486B6BA1
:10387000E96913F834E04FEAC60803EB08020EF1D9
:10388000010ED2F80490D9F8042003F834E003EBD9
:10389000C40E0231DEF804A0E96113F836100131DC
:1038A0000C3A03F83610BA42A8BF3A46036809F149
:1038B00008010AF108009847DAF800106B6B13F85A
:1038C0003120012A01D9E86938BB013A03F83120D7
:1038D000D9F8001013F83120012A02D9E869124FF3
:1038E000C0B9013A03F831204344002759684868B9
:1038F0000CF096F8696B6B686A6A884401336B60F8
:10390000C8F8042001F8367020466E62BDE8F087E2
:10391000BDE8F0870138F861E3E70138E861D4E7F2
:103920000020BDE8F08700BF4CC401205C040020EB
:10393000F8B5544C94F82830002B51D0D4F8BC3052
:10394000504A83BBD2F8B4306BBBD2F8AC3053BB17
:10395000D2F8A4303BBBD2F89C3023BBD2F89430D1
:103960000BBBD2F88C30F3B9D2F88430DBB9D36F0B
:10397000CBB9536FBBB9E36EABB9536E9BB9D36D83
:103980008BB9536D7BB9D36C6BB9536C5BB96FF06A
:103990000B033D49DA1781FB0313C2EB6313206A63
:1039A00000FB03F0F8BD9B68002BF8D0002201E07B
:1039B0009B6843B159689B689142104684BF0A4690
:1039C0001046002BF4D10C38B0F5800F0346E0D838
:1039D000226A2D4B02FB00F0A3FB00235809F8BD1F
:1039E0002A4B9A685868012184F828100AB982087D
:1039F0009A601968A1635A26102220252662226443
:103A0000A564402780264FF480724FF40075A1F121
:103A100014032765A6652266A5664FF480674FF4F8
:103A200000664FF480524FF4005503442767A667A1
:103A3000C4F88020C4F888504FF480474FF4004603
:103A40004FF480324FF40035C4F89070C4F8986099
:103A5000C4F8A020C4F8A850022201254FF4802702
:103A60004FF4002663632261E060C4F8B070C4F8CC
:103A7000B8605D60656265600BF0D2FF0FF072FEAA
:103A800025635BE74CC401201F85EB51B8C00120C2
:103A900030B403680A4A53F8085C0446506B10F8C7
:103AA0003530012B03D9D16909B10139D161013B0D
:103AB00000F8353000221046226030BC704700BF4D
:103AC0004CC40120034B5B6B03EBC0004068083023
:103AD000704700BF4CC4012010B582B018B904462D
:103AE000204602B010BDFFF79FFE02AB048843F8EA
:103AF000040D1846FFF7CCFF204602B010BD00BFF2
:103B000010B582B008B30C46FFF78EFE0388009014
:103B10009C4206D300246846FFF7BAFF204602B055
:103B200010BD40680028F5D0FFF77EFE02AB50F8CC
:103B3000244043F8040D1846FFF7AAFF002CE9D0F3
:103B40002046FFF771FE0446E5E70446204602B032
:103B500010BD00BF70B50D46044601F0B9FC2B4600
:103B6000C1B200222046BDE8704000F001B800BF9D
:103B7000B0F1004F2DE9F04175D000287EDB002424
:103B80000C1BE4B200210AB1013CE4B284B33F4F04
:103B900099B3651E9442DFF8F8E04FF0310CEDB2B6
:103BA00019D057F8256090FBF6F1C9B20A291FD841
:103BB00006FB11000DB90131C9B20A2901F130012A
:103BC00049D01C68661C1E6021708DB12C46651E94
:103BD0009442EDB2E5D119684E1C1E609EF800605B
:103BE0000E7057F8256090FBF6F1C9B20A29DFD9AB
:103BF0001B6800221A70BDE8F081651E9442DFF850
:103C000090C04FF03108EDB217D057F8256090FB07
:103C1000F6F1C9B20A2901F1300EE9D806FB11000C
:103C2000196811D04C1C1C6081F800E0002DDFD019
:103C30002C46651E9442EDB2E7D119684E1C1E60F9
:103C40009CF800600E70E0E74E1C25461E602C4676
:103C500081F80080EDE7196825464E1C1E602C4651
:103C600081F800C0B3E71D684C1E681C2D21186048
:103C7000E4B229706FF00040012184E71D682D2611
:103C80006C1C1C60404201242E7079E744C002087D
:103C900010C501202DE9F0470E468C003F4F82B041
:103CA0008146084601F016FBA31907EB83033A6827
:103CB000D3F80480824662B3BAF1000F34D1A5195B
:103CC00007EB850501236869C5F804902B7200286D
:103CD0005ED1B9F1000F18D0344407EB840499E8A1
:103CE0000300E368D9F8087022690125591AD21B2C
:103CF0000095334603F016FD6061304601F0EAFAA4
:103D0000002837D1237A002B3BD1404602B0BDE8D2
:103D1000F0873846224B40F82C3F01233B6005F0EA
:103D2000F3FCBAF1000FCAD0504603F07FFD054600
:103D30004FF07F4003F094FD00F0C4F800221146DC
:103D4000D9F8000000F0B4FCD9F8003034445A88A7
:103D5000198807EB8404504603F0A4FD284601258A
:103D6000C4F80490257203F061FD304601F0B2FA08
:103D70000028C7D0294603F097FD404602B0BDE8B1
:103D8000F087606903F09CFC404602B0BDE8F08714
:103D900003F000F9C5F814A09BE700BF6CC1012037
:103DA000BD4C01082DE9F0410646104614468846F0
:103DB00001F090FAC8B9A700184D3B1905EB830331
:103DC000DA68B24204D11B69434501D1BDE8F081F4
:103DD0003B1905EB83035869B0B93C4405EB8404F7
:103DE000E660C4F81080BDE8F0810C4B04EB84045D
:103DF00003EB840463689A685968C2EB0802711A7D
:103E0000BDE8F04103F04CBD5B689A685968C2EBAD
:103E10000802711A03F0E8F8DFE700BF6CC1012067
:103E200038B5114A114B1268507C00EB800403EB4B
:103E300084040125636825727BB101F04BFA38B91F
:103E4000237A03B938BD6069BDE8384003F038BC57
:103E50002946BDE8384003F027BD0146BDE838409B
:103E60000348FFF717BF00BF140100206CC10120F9
:103E7000F4080308C3B2CAB29A1A92B230B415B2A7
:103E8000002DBCBF524215B2C0F30723C1F3072275
:103E90009B1A9BB2090C1AB2C1EB1041002A89B2DD
:103EA0000CB2BCBF5B421AB2002CBCBF49420CB280
:103EB00002FB02F205FB0520A1B201FB010030BCB0
:103EC000704700BF2DE9F041002182B0084601F0A3
:103ED0007BFA042006F036FE164BDB68DD6C1C6DA9
:103EE000A5F57F57A4F57F5605F57F5504F57F545A
:103EF00080463F3F3F353F3E3F346846ADF8007057
:103F0000ADF80450ADF80260ADF806400AF0B2FE1C
:103F100048B123462A463146384606F0D5F90AF01C
:103F20003DFD0028F5D1404606F00CFE02B0BDE88C
:103F3000F08100BF080100202DE9F047044682B05F
:103F40000D461646002B38D09A46009626680B9BE5
:103F50000A9A51462046B047074618B9384602B07B
:103F6000BDE8F08708F03EFF618A8046384608F0D9
:103F70005BFA38460AF00CFB013D40460AF008FBAC
:103F8000002DC8BF4FF0000904DC1AE00AF000FB66
:103F9000013D16D054F81C6FCDF800900023204648
:103FA0001A464146B04706460028EFD1384608F089
:103FB0009BFC304602B0BDE8F08708F021FF824646
:103FC000C3E740461D210AF0DDF8BAF1FF3FC5D036
:103FD00008F03AFF40B9BA450CD038460AF0D2F999
:103FE0003846BCE70028F8D0FFF76CFD80698742AF
:103FF000F8D1B3E75046B2E7012B12DCF8B506461C
:104000001C2017460C461D46FFF748FAB8B154B1BC
:1040100004610023836085618782C660036043601A
:10402000F8BD00207047074B53F825200AB9F0E788
:104030001A461368002BFBD113690361E9E70020DE
:10404000F8BD00BF2CC50120012B3BDC2DE9F84356
:1040500081461C2090460F461E46FFF71FFA054674
:1040600000287FD0414A002F31D00023DFF804E13F
:1040700052F8264003609EF8001007618E42866168
:10408000A0F81480C0F80C904360836002DB731CBE
:104090008EF80030002C5DD021464C68002CFBD1FE
:1040A000D9F80000CB681B6883422CDD0968002921
:1040B000F8D148B92E4B16361A68284642F82650D1
:1040C000BDE8F883002070472846BDE8F88352F821
:1040D0002610002930D0084600E018460368002B5F
:1040E000FBD1DFF890E000692B6028619EF80000AA
:1040F000AE618642A5F81480C5F80C906B60AB6089
:10410000CBDB0C46C3E70AD04B6843B31D606B6042
:104110008D4214BF0B4600234D602B60C9E7B8F1F8
:10412000010FF1D104E0D9680C6884421946EBDB39
:104130000B68002BF7D1E7E7DFF838E001609EF865
:10414000003086619E42A0F81480C0F80C90416057
:104150008160D6DA42F82650D9F80000A9E742F883
:104160002650D5E70020BDE8F88300BF2CC501200C
:104170001401002026C50120FFF73AB900283CD0E1
:1041800070B48469012C03DD0123184670BC7047AC
:104190001E4B1F4D1A789442A4BF621C1A7055F82A
:1041A00024300BB92FE013465A68002AFBD1C268AD
:1041B000116802E01B68002BE6D0DA6812689142B1
:1041C000F8DB0DD05A68DAB110604260984214BF33
:1041D0001A46002258600023026070BC18467047DF
:1041E000828A012AEED104E0D3681E68B1421346E8
:1041F000E8DC1A68002AF7D1E4E701231846704783
:1042000045F82400E2E745F82400BEE726C5012072
:104210002CC501200F4A816952F8213098420AD0FA
:1042200042680AB103681360036803B15A6000234F
:10423000036043607047036842F821302BB10022CD
:104240005A604268002AEED1F0E74268002AEAD1BB
:10425000EDE700BF2CC5012001280EDC084B53F808
:10426000200058B1C3681B681BB908E0C3681B680D
:1042700023B100680028F9D17047002070477047CB
:104280002CC5012000B970472DE9F04182B01E46CF
:1042900015460C460746FFF7C7FA02AB026843F81B
:1042A000040D1846D2F80080FFF7F2FB33462A4689
:1042B00021463846C04702B0BDE8F08100B97047DA
:1042C00030B583B00446FFF7AFFA02AB026843F89B
:1042D000040D18465568FFF7DBFB2046A84703B0DE
:1042E00030BD00BF00B9704730B583B00446FFF75A
:1042F0009BFA02AB026843F8040D18469568FFF775
:10430000C7FB2046A84703B030BD00BF70B50546C7
:1043100013F088F8084E054407E000F07FFE30688F
:10432000A042A8BF204613F073F813F07BF82C1AB4
:10433000002CF2DC70BD00BF34010020F0B585B068
:1043400004AC01AD44F8105D0E4617461946002234
:104350002346FFF70DFC3A463146284600F092F816
:1043600005B0F0BD2DE9F04F454E83B0044600F096
:10437000BBFF33680746B3F9229000F0F7FF3268BD
:10438000938C1FFA80FACAEB03031BB29384217843
:1043900000294DD0BFB2B04647F6FF71204604F069
:1043A000F5FF01468346204604F0AEFF31688B8D51
:1043B00003F00303012B58D0022B5AD085B24FF0E3
:1043C000000E4A8CB1F92430ADF80230CEEB020277
:1043D00092B210B2013B05F1FF3E964448843B4443
:1043E0006A465946ADF800002046ADF80630ADF8F3
:1043F00004E004F0A3F93368BDF802209A8459461A
:10440000204603F043FE225C0A2A04EB000319D085
:104410000D2A17D0BDF80000D8F8002005445584B7
:10442000197819B159785C1C0029B5D1B2F924303A
:10443000918D9A4421F00303A2F824A0938503B040
:10444000BDE8F08F3268918D01F003010139012937
:104450008ABF118CA2F82290518419780A29E0D1E0
:10446000918C394491841978DBE71FFA80FE7546F8
:10447000A7E700EBD072C2F34F0E85B2A1E700BFF1
:1044800014010020034B1B6859849A8408B1FFF77C
:1044900069BF7047140100202DE9F0410C4C2368DE
:1044A000B3F92C30054643F002008846174603F066
:1044B00019FA23680646A3F822809F8415B128467E
:1044C000FFF750FF3046BDE8F04103F00BBA00BFE4
:1044D0001401002000B3F0B5054683B016460C4623
:1044E000C1B108460AF016F8074638B168463A46A0
:1044F000214604F0D5FF68460AF00CF83246214602
:10450000284647F6FF7304F073F938460AF002F8BC
:1045100003B0F0BD0F46F1E7704700BF08B100F0EF
:1045200001B870472DE9F04F89468BB0B9F90440C6
:10453000B1F90010B9F906500194661A9046059237
:104540000091B9F902B0039504461F4600F0CCFE75
:1045500018F00C0806F1010602901AD0A2463A465D
:1045600031465046002505F089F940B182443A466B
:1045700031465046013505F081F90028F6D1B8F1F1
:10458000080F7BD0B8F10C0F00F08280B8F1040F57
:1045900074D0BDF808A0484609F0BCFF024604905C
:1045A000A8B1009800210B4660F30F01019860F359
:1045B0000F0303986BF31F4160F31F43069106A896
:1045C0004946079304F06CFF06A809F0A3FF059B7A
:1045D00003F003080AF1FF33029343461FFA8BF5F9
:1045E000B0461E4615E0022E34D01EB9B9F8003090
:1045F000ADF820302046594608AA04F09FF820461E
:104600003A46414605F03AF9044455442378ADB2A0
:1046100073B33A464146204605F09AF9029BBDF82D
:104620000020ADF820200146EB18BDF80420ADF8BD
:10463000225083462046ADF82420ADF8263004F001
:1046400063FE012ECFD1B9F804300133181AADF84A
:104650002000CFE7B9F90010B9F904305B1A181A35
:10466000013000EBD07001EB6000ADF82000C1E735
:10467000049809F04FFF0BB0BDE8F08FBDF808A01B
:10468000039B15FB0AF501335D1B0FFA85FB82E7DF
:10469000039B0299CBEB0303013305FB113505EBBB
:1046A000D5750BEB65050FFA85FB1FFA81FA72E7EA
:1046B0002DE9F04FDFF8E8900446D9F80030008883
:1046C000DF6C1D6D638889B002EB05080F4401386B
:1046D000013B3A18434406A8ADF81870ADF81A80AB
:1046E000ADF81C20ADF81E300AF0C4FA00284ED0F8
:1046F000DFF8B0A0CB461AE040F0020003F0C4F8A7
:10470000216921B3D4F80CE0A668638822888DE87B
:1047100040400120039002900E6838464146B04761
:10472000284603F0B1F80AF039F900282FD000200C
:10473000E66803F0A9F8054616B13379002BDBD102
:1047400025F0020003F0A0F821690029DAD1D9F898
:104750000020DAF80030527CE06821469847E18872
:10476000C0B163882288A6680590A08802910121C3
:1047700003900191009138464146049605F094FB60
:10478000284603F081F80AF009F90028CFD109B0D2
:10479000BDE8F08F012904BFDBF80030986BE0E73B
:1047A0001401002008010020134BF0B51B68DD6CDC
:1047B0001C6D164605440C4483B0B1B2AAB2A3B234
:1047C000C1EB020E5F1A0A440B446846ADF800E0E4
:1047D000ADF80420ADF80270ADF806300AF04AFAE0
:1047E00040B1324621462846FDF7ACFB0AF0D6F828
:1047F0000028F6D103B0F0BD1401002070B582B0DE
:104800000A460146684604F06FFF274BBDF800409A
:104810001B68BDF80410B3F84C60B3F85050BDF8F5
:104820000220BDF80630344431442A442B44684603
:10483000ADF80040ADF80410ADF80220ADF8063038
:104840000AF018FA68B3BDF90040BDF904309C4283
:104850000EDC2046BDF9021005F0D6FC2046BDF95D
:10486000061005F0D1FCBDF9043002349C42F0DDA5
:10487000BDF90240BDF906309C420EDC2146BDF96F
:10488000000005F0C1FC2146BDF9040005F0BCFCA8
:10489000BDF9063002349C42F0DD0AF07FF80028B2
:1048A000D1D102B070BD00BF140100202DE9F04F3E
:1048B000624C2468E56C246D91B02818AA18611820
:1048C000E318064602900EA8019207910893ADF8EE
:1048D00038601446ADF83C20ADF83A10ADF83E30E3
:1048E0000AF0C8F9002800F08F801A9A9DF86C70C1
:1048F000C2F307201B9AC6EB040BC2F307261A9AD1
:104900009DF86840C2F307411B9A0BEBDB735B1009
:10491000C2F3074E1A9A0BFB04353C1B120E069489
:104920000BFB0034301A03900BFB01300BFB0233FE
:104930000D931B9B0A95C1EB0E01C2EB13630B9405
:104940000C90049105935E4600F0BCFC1A9B1B9AE8
:104950000990934268D0002E52D0029D019A954250
:104960005ADC0AAF024697E880074FF0010B06E0D9
:104970000BF1010B019B0135AB4222462FDB9AFB69
:10498000F6F399FBF6F41B0697FBF6F143EA0443B2
:1049900098FBF6F441EA042405991C43039B8A44DE
:1049A00004999844029B89440699AB4210460F44EF
:1049B000E0DA9442DCD006F0ADF8BBF1010FCBEBAE
:1049C0000500089B079905F1FF3220D005F07CFC1B
:1049D000019B0135AB424FF0010B2246CFDA204656
:1049E00006F098F8BBF1010F18D0019A089B0799BF
:1049F000CBEB0200013005F067FC099806F08AF85D
:104A000009F0CCFF00289FD111B0BDE8F08F1A4605
:104A1000681E05F02FFCADE706F07CF8089A0799B0
:104A2000019805F027FCE8E7184606F073F8089BA4
:104A3000019A0799029805F047FCDEE7140100206F
:104A40002DE9F04F624C2468E56C246D91B0281874
:104A50006118AA18E318064607900EA808920D469A
:104A600002910193ADF83860ADF83C20ADF83A10F2
:104A70001C46ADF83E300AF0FDF8002800F08F80AB
:104A80001A9A9DF86C70C2F307201B9AC2F307268E
:104A90001A9AC5EB040BC2F307411B9A9DF86840B4
:104AA0000BEBDB735B10C2F3074E1A9A0BFB04355A
:104AB0003C1B120E06940BFB0034301A03900BFBC8
:104AC00001300BFB02330D931B9B0A95C1EB0E01CA
:104AD000C2EB13630B940C90049105935E4600F0B7
:104AE000F1FB1A9B1B9A0990934267D0002E52D07B
:104AF000029D019A954259DC0AAF024697E8800769
:104B00004FF0010B06E00BF1010B019B0135AB42AD
:104B100022462FDB9AFBF6F399FBF6F41B0697FB74
:104B2000F6F143EA044398FBF6F441EA04240599BC
:104B30001C43039B8A4404999844029B8944069928
:104B4000AB4210460F44E0DA9442DCD005F0E2FFBD
:104B5000BBF1010FCBEB050105F1FF33089A079874
:104B600020D005F0B1FB019B0135AB424FF0010BAA
:104B70002246CFDA204605F0CDFFBBF1010F17D05A
:104B8000019B089A0798CBEB0301013105F09CFBD0
:104B9000099805F0BFFF09F001FF00289FD111B06F
:104BA000BDE8F08F691E05F005FBAEE705F0B2FF2A
:104BB000089A0199079805F0FDFAE9E7184605F00B
:104BC000A9FF019B089A0299079805F07DFBDFE792
:104BD00014010020F0B5114F3B681D6DDC6C83B0F3
:104BE000054466182BB214446846ADF80060ADF871
:104BF0000440ADF80230ADF806300AF03BF850B191
:104C00003B685B6E22461B6829463046984709F090
:104C1000C5FE0028F4D103B0F0BD00BF1401002090
:104C20002DE9F04FB64D2C688DB080460020E66C23
:104C3000246D894617469A460AF01CF8002800F0B1
:104C4000268104EB0A03A144C3EB090B06EB08021F
:104C5000F119CBF10008C1EB020A18EA2B0838BFA2
:104C6000D8464AEA0B07CDF814B004930391A54E39
:104C7000934604E009F092FE002800F008812B68BA
:104C80001C7E0023012C079300F03081002FF1D00F
:104C9000BAF1000F04F1FF34C0F223815046022222
:104CA000059933EA210328BF1346404580F2F2807C
:104CB00043F004030246DBB24046411001EB82227E
:104CC00092FBF0F2911106EB4100C2F3830CCCF1A0
:104CD000100EB0F92400BEF1100F0EFB00F006D04C
:104CE000884A02EB4101B1F926100CFB010010F1DA
:104CF000080148BF00F117010911580748BFC1F565
:104D00008061DA0748BFC1F500619B0748BFC1F564
:104D1000805101F50062C2F30B02B2F5006FC6BF0D
:104D2000A2F5006201200020B2F5806FC8BFC2F575
:104D3000006201F58063911102F03F02C2F140026E
:104D400092B236F811E0402A02FB0EFE08D010297C
:104D500006D00131C2F1400236F8111002FB01EE1B
:104D60000EF1200E4FEA9E1E002840F095807046FE
:104D7000C3F30B03B3F5006FC6BFA3F500630122B5
:104D80000022B3F5806FC8BFC3F5006303F03F0E88
:104D90009911CEF1400E1FFA8EFE36F81130BEF199
:104DA000400F00FB04F00EFB03F308D0102906D0DF
:104DB0000131CEF1400E36F811100EFB01332033D5
:104DC0009B0902B15B42002803FB04F467DB00F59A
:104DD0000070002C4FEAA02068DB04F50074002866
:104DE0004FEAA42469DD00F1010C002C4FEA6C0CA1
:104DF0004FEA60006CDD04F1010E4FEA6E0E6410A4
:104E00001FFA8CFC1FFA8BF21FFA8EF302EB0C0ECA
:104E1000ADF820E0BDF80CE080B2121AF444C0EB0B
:104E20000E00BDF810E0ADF82420A4B21FFA89F1FD
:104E3000CA18091BC4EB0E049E440023ADF82220BF
:104E4000ADF826101A46ADF82800042108A8ADF8E0
:104E50002CC0ADF82A40ADF82EE0FDF7EBFB2B6837
:104E60005B7E002B7FF406AF49465846FDF75EFB9C
:104E7000234B1B685B7E002B7FF4FCAE04990398E8
:104E8000FDF754FB09F08AFD00287FF4F8AE0DB061
:104E9000BDE8F08F424610E7CEF1000068E7C0F5AC
:104EA00000708012002CC0F1000096DAC4F5007486
:104EB000A4120028C4F1000495DC431E00EBD07C52
:104EC00003EBD373002C4FEA63004FEA6C0C92DCC7
:104ED000631E04EBD47E03EBD3735C104FEA6E0EBB
:104EE0008EE7CAF1000003220123D9E607AB009345
:104EF000039A049B49465846FDF714F9BAE600BFE9
:104F000014010020580A030870B5104E3368DD6C98
:104F10001C6D82B005440C442AB223B26846ADF839
:104F20000420ADF80020ADF80630ADF8023009F0ED
:104F3000A1FE48B133685B6E21465B6828469847FE
:104F400009F02CFD0028F5D102B070BD140100203D
:104F50002DE9F0431E4C25682E7E2F6DEC6C013E32
:104F600083B0B6B2251807EB010907EB0308144418
:104F7000A91B3219C6EB090368464644ADF8001078
:104F8000ADF80420ADF80230ADF8066009F072FE0D
:104F9000D8B109F1010708F1FF36224649462846F3
:104FA00005F008F922464146284605F003F9324645
:104FB0003946284605F05EF932463946204605F066
:104FC00059F909F0EBFC0028E7D103B0BDE8F08304
:104FD00014010020104B70B51B68DD6C1C6D82B095
:104FE000054466182BB214446846ADF80260ADF86B
:104FF0000640ADF80030ADF8043009F03BFE40B19A
:1050000022463146284605F035F909F0C7FC00284C
:10501000F6D102B070BD00BF140100202DE9F041AF
:10502000124F134EDFF84C8000253C681CB1A0479E
:10503000041C18BF012407F07BFD3368002818BF4B
:1050400001244BB1984738B1D8F8003013B101248E
:1050500098473CB10125E8E7D8F80030002BF7D19C
:10506000002CF7D12846BDE8F08100BF48C50120DB
:105070004CC5012044C50120F0B5104C2468E56CF6
:10508000246D83B02F18661815441C446846ADF88B
:105090000070ADF80450ADF80260ADF8064009F0BC
:1050A000E9FD48B123462A463146384605F00CF959
:1050B00009F074FC0028F5D103B0F0BD1401002004
:1050C000F0B5144BB0F900701B68B0F90450DA6CFD
:1050D000B0F902601B6DB0F9064083B01744154467
:1050E0001E441C446846ADF80070ADF80450ADF89D
:1050F0000260ADF8064009F0BDFD48B123462A46DE
:105100003146384605F0E0F809F048FC0028F5D1B2
:1051100003B0F0BD14010020002850D0C388013B2B
:1051200010B5848880681F2B47D8DFE803F016236A
:1051300046314646463C4646464646464640464634
:105140004646464646464646464646464610A3100E
:1051500002FB031150F8210010BD02FB04F200EB2A
:10516000D104C843A35C00F0070023FA00F000F06C
:10517000010010BD02FB04F200EB91046FEA410054
:10518000A35C00F0060023FA00F000F0030010BD5D
:1051900002FB04F200EB5104CB07A05C4CBF00F013
:1051A0000F00000910BD02FB0404605C10BD631019
:1051B00002FB031130F8110010BD002010BD704734
:1051C000013800B51F2853D8DFE800F01827523700
:1051D00052525244525252525252524A52525252C5
:1051E00052525252525252525252521001988910F7
:1051F00000FB013352F823005DF804FB019802EB39
:10520000D30200FB01F0DB43105C03F0070320FA3C
:1052100003F303F001005DF804FB019802EB930235
:1052200000FB01F06FEA4303105C03F0060320FA71
:1052300003F303F003005DF804FB019802EB530253
:1052400000FB01F0DB07105C4CBF00F00F00000911
:105250005DF804FB019800FB0122D05C5DF804FBC3
:105260000198491000FB013332F813005DF804FB8C
:1052700000205DF804FB00BF034B53F82000C36817
:1052800008219B6A184700BF2CC5012008B505F00E
:1052900071F8BDE8084005F04FBA00BF024B1B682B
:1052A000DB6900215B68184714010020024B1B6872
:1052B000DB695B68184700BF1401002008B107F0E4
:1052C00081BD704708B505F05DF8BDE8084005F000
:1052D00033BA00BF01289ABF024B53F820000020C8
:1052E000704700BF3CC30120024B1B68DB69587E3E
:1052F000704700BF14010020034B1B68DB69187E58
:10530000DB7E00FB03F070471401002038B50D462A
:10531000144605F0BDF810B100232B60236038BDA2
:10532000044A054BB2F90020B3F9003002600B606B
:10533000704700BF1CC501201EC5012010B50446E2
:1053400004F04EF801462046BDE8104003F0DCBFF3
:1053500012F068B8044834233521612201700271CB
:105360008370C370704700BF000100200A4B1A68A9
:10537000938D03F00C03082B05D00C2B03D0042BCA
:1053800005D000207047D369187E40087047D36964
:10539000187E0138704700BF14010020027EC07ED5
:1053A00002FB00F0704700BF024B53F820301B692E
:1053B000186870472CC50120024B53F820301B6938
:1053C000586870472CC50120024B1B68588499848B
:1053D000002070471401002090B583B000AF334A1D
:1053E000324B1B6823F001031360314B01221A601A
:1053F00000BF2F4B1B68002BFBD12E4B2E4A1A608F
:105400002C4B1B682D4A934200D0FEE703F056F95F
:105410002B4B2E221A7012F00BF82A480FF04AFA82
:1054200011F06CFC786005F09DF80346002B0CBF72
:1054300001230023DCB205F0DBF80346002B0CBF90
:1054400001230023DBB22343DBB2002B09D005F09C
:105450009FF8044605F0E2F803461946204605F099
:105460006BFB0021002002F021FA08F085F8164BB2
:105470001B68002B12D00DE0134B1B681B68002B20
:1054800003D0114B1B681B6898470F4B1B685B6868
:105490000D4A13600C4B1B68002BEDD10B4B012206
:1054A0001A707B6818460C37BD4690BD002000E09E
:1054B0000830024000300240C2A507F4CDB5E8B57F
:1054C00010C50120D0C0012048C1012025C5012000
:1054D00080EAE073A3EBE073092B02461FDD632B28
:1054E00020D9B3F57A7F20D342F20F718B421FD9B6
:1054F00017498B421FD917498B421FD916498B4236
:105500001FD916498B421FD915498B428BBF0A20E0
:10551000092009230823002AB8BF981C70470120DE
:105520000023F8E702200123F5E703200223F2E736
:1055300004200323EFE705200423ECE706200523DE
:10554000E9E707200623E6E708200723E3E700BF93
:105550009F8601003F420F007F969800FFE0F5050F
:10556000FFC99A3B10B582B028B90F4B1B68186E63
:1055700008B902B010BDFEF757F902AB446943F811
:10558000080D1846FEF784FA002CF2D02046FEF7EC
:105590004BF902AC826844F8040D936898472046A2
:1055A000FEF776FA02B010BD1401002000B9704772
:1055B000014A114600F002B801F0FFFF2DE9F04763
:1055C000064684B000200C461546DFF8E48002F061
:1055D0005BF9D8F80030814630461F6EFEF724F99B
:1055E00003680090986902F021F9304B9C42009BBF
:1055F00004BFB3F90440B3F906501A895B89ADF8CA
:105600000840013A013B22442B448246ADF80C206D
:10561000ADF80E30ADF80A5006F0BCFF6846FEF754
:1056200037FA02A809F026FB10BB504602F0FEF83C
:10563000A7B3D8F800301B6E6BBB07F01BF93846D8
:10564000FEF7F2F804ACD8F8003044F80C0D1F66F1
:105650000068FEF793FD2046FEF71AFA05F072FB8C
:1056600005F04AFA484602F00FF904B0BDE8F087A9
:105670002A462146304600F071FE09F08FF90028D5
:10568000D3D02A462146304600F068FE09F086F95C
:105690000028EDD1C9E702F0BFF8CEE702F0BCF870
:1056A000484602F0F1F804B0BDE8F08701F0FFFFD2
:1056B000140100202DE9F0431D4D1E4C2E6896F874
:1056C00011E085B054F82E4006460F4690469946A4
:1056D00001E02468DCB1E3681A68042AF9D1DB6AC6
:1056E0000121204698470546C0B12469A368984720
:1056F000013017D00C9B0093029401954B46424613
:105700003946304600F0A6FC05B0BDE8F08370468F
:10571000FEF7A2FD044608B1C368E0E7002005B02B
:10572000BDE8F0830C9B044C43F001030C93E1E7CC
:10573000140100202CC50120A0F5020830B585B069
:10574000044C054D029401248DE8300000F082FCE9
:1057500005B030BDA0F50208E4180308C0B1114B34
:1057600010B51B681B6E984282B0044616D02046C6
:10577000FEF75AF8436901905BB90068FEF7FCFC3C
:1057800001A8FEF785F92046FDF718FE02B010BD0E
:105790007047184602F08AFD0198EEE702F03CF8E7
:1057A000E5E700BF140100202DE9F04FDFF85CB100
:1057B000544CDBF800506F7CE457012C064687B050
:1057C000894692461D46384640F38A8004F0D0FE52
:1057D0000446384604F012FF0746002E7DD005A986
:1057E00004A8FFF79DFD049A0599B6F900C0B6F923
:1057F0000200B6F904E0B6F9063014440F44013C47
:105800002CEAEC72013F20EAE071029203917445A8
:10581000D4BFC2EB0402C2EB0E029F42D4BFC1EB65
:105820000701C1EB030114460F460134013705B9E6
:105830007D42002C4DDD002F4BDD109B0093224656
:105840002B4603990298FFF735FF804600284FD07A
:1058500000F068FA8742064604D0DBF80030986C06
:1058600000284BD1404600F05FFB3D4600240EE08F
:10587000AD1BACB95046C847234B1B6834440020CD
:1058800003B198474046FFF791FEA74212DDAE42B2
:10589000EEDD2946404600F02DFBAD1B002CE9D083
:1058A000039B02994046E21800F072FB4046FFF766
:1058B00059FEDFE74046FFF751FF002000F034FBC0
:1058C000B74206D0DBF80030986C10B1332109F0F4
:1058D000A1FF002007B0BDE8F08F03960296A6E76F
:1058E00004F0F0FD0446384604F016FE074674E75F
:1058F0005046C847012007B0BDE8F08F322109F0BB
:1059000089FFAFE728C50120C8C30120140100208A
:1059100070B4049C0CB970BC704770BCAFF30080CD
:105920002DE9F04FAA4C2DED048B24689BB0256D1A
:105930000F932A442A9D0A92002DD8BF5219289D00
:10594000E46C15901E46B5422B46B8BF334692B262
:10595000013B1344ADF86220299AADF8663021442A
:10596000013A0A4418A80E91ADF86010ADF8642011
:1059700009F080F9002800F0A181289B2A9AF31AE7
:1059800013939B1A1493299B5B1012931598FDF7A0
:105990004BFFB0F90880DDF838A0179008EBD873FA
:1059A0005B100B9300230290CDF84080CDF844802B
:1059B000CDF834800C93D34640460B9B299A134470
:1059C00098420B931A4640F27E810023299C00E006
:1059D0000B462244824203F10101F9D30D990B9247
:1059E0000233119A114408460D910C9919440C91F7
:1059F0000B99814203464FF0010405D313448B42B7
:105A000004F10104FAD90D932A9A0E9B1298C3EB64
:105A10000B03114603FB0102299992FBF1F20F9946
:105A2000069215464A1B149D05FB0303299893FB18
:105A3000F0F3C3EB020A0C9B013B0493289B18462E
:105A400088420A4679D040F32781C2EB0009154607
:105A50000646012708FB08F009FB090007EE900A3B
:105A6000F8EEE77A06FB08F317EE900A93FBF9F9D4
:105A7000FAF759FD41EC100B1AF012FA05FB05F587
:105A8000C8EB090000FB005007EE900AB0EE409A08
:105A9000F0EE609AF8EEE77A17EE900AFAF743FD17
:105AA00041EC100B1AF0FCF951EC100BFAF77EFDEB
:105AB00007EE909AB8EEE78A07EE908AF8EEE78A4A
:105AC00007EE900A51EC190B68EEA78AFAF76EFD03
:105AD00007EE100AC8EE877A049A07EE106AFDEE08
