:020000040800F2
:10000000600400209D010008071100085910000835
:1000100005110008A9020008E9130008000000000B
:100020000000000000000000000000000B110008AC
:10003000AB02000800000000091100080D110008C3
:10004000B7010008B7010008B7010008B7010008B0
:10005000B7010008B7010008B7010008B7010008A0
:10006000B7010008B7010008B7010008B701000890
:10007000B7010008B7010008B7010008B701000880
:10008000B7010008B7010008B7010008B701000870
:10009000B7010008B7010008B7010008B701000860
:1000A000B7010008B7010008B7010008B701000850
:1000B000B7010008B7010008B7010008B701000840
:1000C000B7010008B7010008B7010008B701000830
:1000D000B7010008DD130008B7010008B7010008E8
:1000E000B7010008B7010008B7010008B701000810
:1000F000B7010008B7010008B7010008B701000800
:10010000B7010008B7010008B7010008B7010008EF
:10011000B7010008B7010008B7010008B7010008DF
:10012000B7010008B7010008B7010008B7010008CF
:10013000B7010008B7010008B7010008B7010008BF
:10014000B7010008B7010008B7010008B7010008AF
:10015000B7010008B7010008B7010008B70100089F
:10016000B7010008B7010008B7010008B70100088F
:10017000B7010008B7010008B7010008000000003F
:10018000B7010008B7010008DFF80CD000F07AF8DA
:10019000004800471D1700086004002006488047FB
:1001A00006480047FEE7FEE7FEE7FEE7FEE7FEE75C
:1001B000FEE7FEE7FEE7FEE7991100088901000867
:1001C0002DE9F05F0546002092469B46884606468C
:1001D000814640241BE0284641464746224600F01F
:1001E00041F853465A46C01A914110D31146184659
:1001F000224600F028F82D1A67EB01084F462246E8
:100200000120002100F01FF817EB00094E41201ECD
:10021000A4F10104DFDC484631462A464346BDE8E6
:10022000F09FD2B201E000F8012B491EFBD27047CB
:100230000022F6E710B513460A4604461946FFF7B2
:10024000F0FF204610BD202A04DB203A00FA02F11C
:10025000002070479140C2F1200320FA03F31943B4
:1002600090407047202A04DB203A21FA02F0002156
:10027000704721FA02F3D040C2F1200291400843B6
:1002800019467047064C074D06E0E06840F0010350
:1002900094E8070098471034AC42F6D3FFF778FF94
:1002A00094170008B4170008FEE7704770472DE95F
:1002B000F0410446876D00F061F9064694F8350078
:1002C0000025022806D08020606584F83450012083
:1002D000BDE8F0812068016821F016010160206806
:1002E000416921F080014161206C08B9A06C20B106
:1002F0002068016821F0080101602068016821F090
:10030000010101600BE000F039F9801B052806D9D6
:100310002020606504F8345F03206070D8E720680F
:100320000068C007EFD194F85C103F208840B860A7
:1003300004F8345F012060700020C9E790F83510A0
:10034000022903D08021416501207047052180F8F2
:1003500035100068016821F001010160002070473C
:1003600070B5044600F00AF90546601C02D0044846
:100370000078044400F002F9401BA042FAD370BD9B
:10038000040000202DE9F84FDFF8B8A10022012574
:100390000AF1040B03264FF00F090BF1040E00BF06
:1003A0000B6805FA02F42340A3426FD10F7907F0DE
:1003B0000307012F01D0022F16D187684FEA4208A8
:1003C00006FA08FC27EA0C07D1F80CC00CFA08FC66
:1003D0004CEA070CC0F808C04768A7430C79C4F37F
:1003E000001494403C4344600C79E443A4070AD0D1
:1003F000C4684FEA420C06FA0CF7BC438F6807FA50
:100400000CF72743C7600C7904F00304022C12D1C7
:10041000D40800EB840CDCF820405707FF0E09FAE3
:1004200007F824EA0804D1F8108008FA07F848EA27
:100430000408CCF8208004684FEA420C06FA0CF756
:10044000BC430F7907F0030707FA0CF7274307604F
:100450004C68E40070D53C4C276847F4804727601F
:10046000246822F0030704F480440094374C07EB1F
:10047000040CDCF8084897074FEA177809FA08F7E0
:10048000BC43334FB84202D1002724E054E0314F3F
:10049000B84201D101271EE02F4FB84201D10227F7
:1004A00019E02E4FB84201D1032714E02C4FB84277
:1004B00001D104270FE02B4FB84201D105270AE0F4
:1004C000294FB84201D1062705E0284FB84201D193
:1004D000072700E0082707FA08F72743CCF8087831
:1004E000DAF800405746D1F804C09C435FEACC3CA0
:1004F00000D51C433C60DBF800405F46D1F804C0E7
:100500009C435FEA8C3C00D51C433C60DEF8004015
:100510007746D1F804C09C435FEACC2C00D51C433D
:100520003C60084F0C373C68D1F804C09C435FEA3C
:100530008C2C00D51C433C60521C102AFFF430AFB9
:10054000BDE8F88F003C01404438024000300140D3
:10055000000002400004024000080240000C02407B
:10056000001002400014024000180240001C02402B
:100570000AB1816170470904FBE700000148806807
:10058000704700000400002002488168027811448E
:1005900081607047040000200B4810B5016841F4E9
:1005A00000710160016841F480610160016841F4FB
:1005B00080710160032000F071F8002000F006F85F
:1005C00000F024F8002010BD003C024070B50D4D35
:1005D00004464FF47A712878B1FBF0F00A490968B3
:1005E000B1FBF0F000F00CFB48B9102C07D2002250
:1005F0002146501E00F032F800206C6070BD0120D2
:1006000070BD000004000020100000200B4882B0E4
:10061000016841F480410160006800F4804000906E
:100620000648001F016841F080510160006800F039
:1006300080500090052002B000F030B844380240ED
:10064000002809DB00F01F020121914040098000D1
:1006500000F1E020C0F8001170470000F0B40E4B2C
:100660001B680C46C3F30223C3F10705042D00D910
:100670000425191D072901D2002300E0DB1E0126F5
:1006800006FA05F1491E214099409E40761E16400B
:100690003143F0BC00F0BABE0CED00E0064900F0BA
:1006A000070208684FF6FF03184040EA0220034A99
:1006B00010430860704700000CED00E00000FA05F0
:1006C0002DE9F0470E46050065D0DFF81481D8F813
:1006D0000000F7B200F00700B04207D288F80070BF
:1006E000D8F8000000F00700B04254D128683D4C13
:1006F000810712D5400703D5206840F4E050206000
:100700002878000703D5206840F460402060206806
:10071000A96820F0F000084320602878C0072DD099
:10072000304968680839012812D0022813D00328FC
:1007300011D00968890700292DDA216821F0030109
:1007400001432160FFF71AFF814641F2883A0EE02B
:1007500009688903EFE709688901ECE7FFF70EFFF5
:10076000A0EB0901514502D90320BDE8F0872068BC
:10077000696800F00C00B0EB810FEFD1D8F80010E1
:10078000404601F00701B14207D90770006800F048
:100790000700B04201D00120E7E72878400705D5DF
:1007A0002068E96820F4E0500843206028780007BA
:1007B00006D52068296920F4604040EAC100206025
:1007C00000F038F82168084AC1F30311515CC840B1
:1007D0000649086006480068FFF7F8FE0020C4E7F5
:1007E000003C0240083802407C170008100000203E
:1007F000080000200448054900680968044AC1F35C
:100800008221515CC8407047100000200838024027
:100810008C1700080448054900680968044AC1F3B8
:100820004231515CC8407047100000200838024037
:100830008C170008154810B5006810F00C02144819
:1008400013D04110042A0FD0082A0ED10F4C241FB8
:100850002268236802F03F025B0207D52068C0F3DC
:100860008810A0FB010106E0084610BD2168C1F315
:100870008811A1FB00010023FFF7A2FC2168C1F34E
:100880000141491C4900B0FBF1F010BD083802409D
:100890000024F4002DE9F84F04006ED02078DFF832
:1008A0004C93C007A9F104054AD009F1040001687E
:1008B000C1F38101012908D00068C0F3810002283A
:1008C0000AD1D9F80000400206D52868800337D540
:1008D00060680028E1D033E06068B0F5803F10D058
:1008E000B0F5A02F286810D020F480302860286848
:1008F00020F4802028606068A8B1FFF73FFE06461C
:100900000DE0286840F48030F4E740F4802028604F
:10091000F7E700BFFFF732FE801B642873D8286812
:100920008003F7D50CE0FFF729FE064605E000BF7F
:10093000FFF724FE801B6428F0D828688003F7D4D2
:100940002078DFF8AC8280074FF0000A3ED5A74838
:10095000001D016811F00C0F08D00068C0F3810081
:1009600002280BD1D9F80000400207D4286880077C
:1009700016D5E068012800D112E033E1E068B8B193
:100980000120C8F80000FFF7F9FD064605E000BFAA
:10099000FFF7F4FD801B0228C0D828688007F7D530
:1009A0002868216920F0F80040EAC10028600DE0C5
:1009B000C8F800A0FFF7E2FD064604E0FFF7DEFD01
:1009C000801B02281FD828688007F7D420780007EA
:1009D00022D5864F87486169703771B10121016066
:1009E000FFF7CCFD064604E0FFF7C8FD801B022898
:1009F00009D838688007F7D50EE0C0F800A0FFF7E7
:100A0000BDFD064605E082E0FFF7B8FD801B022829
:100A10007DD838688007F7D42078400768D5DFF89C
:100A2000CCB100270BF13C0BDBF80000C0000BD46D
:100A3000DBF8001041F08051CBF80010DBF800002B
:100A4000012700F0805000906B4E3068C00510D434
:100A5000306840F480703060FFF790FD009005E052
:100A6000FFF78CFD0099401A022850D83068C00565
:100A7000F6D55E4EA0686C3601280FD00528306888
:100A800010D020F001003060306820F004003060A9
:100A9000A068B8B1FFF772FD00900FE0306840F039
:100AA0000100F4E740F004003060F7E7FFF766FD6F
:100AB0000099411A41F28830814266D83068800737
:100AC000F4D50EE0FFF75AFD009007E0FFF756FD62
:100AD0000099411A41F28830814256D83068800727
:100AE000F4D42FB1DBF8001021F08051CBF80010C6
:100AF000A069C8B33D49091D0968C1F381010229F4
:100B00004AD00228504607D0C8F8600000E03CE018
:100B1000FFF734FD04463BE04746C8F86000FFF7A6
:100B20002DFD064605E000BFFFF728FD801B0228CB
:100B30002BD828688001F7D4D4E907010843A16ABB
:100B40002E4A490802EB0141626A41EA82110843D8
:100B500094F82C1040EA0161C9F8001001203866B1
:100B6000FFF70CFD044606E03EE000BFFFF706FD80
:100B7000001B022809D828688001F7D534E000BF9F
:100B8000FFF7FCFC001B022802D90320BDE8F88F08
:100B900028688001F4D427E00128F7D0D9F80000B4
:100BA000E26900F4800191421CD1226A00F03F0109
:100BB000914217D147F6C071626A0140B1EB821FC2
:100BC00010D1A26A4FF0FF3300F4403103EB520220
:100BD000B1EB024F06D194F82C1000F07060B0EB2E
:100BE000016F01D00120D1E70020CFE70438024097
:100BF00000004742800E4742007000400000FFFFA7
:100C000010B5401EB0F1807F01D3012010BD4FF020
:100C1000E02460610F21601700F0F8FB0020A06164
:100C200007202061002010BD70477047F8B50268AA
:100C300004461068D168536910F00F0F4FF000059B
:100C400053D003F0010601F4907737435FD0C20719
:100C500005D0CA0503D5226C42F001022264420786
:100C600005D5DA0703D0226C42F002022264820723
:100C700005D5DA0703D0226C42F004022264020791
:100C800007D501F02002324303D0226C42F0080263
:100C90002264226C002A34D0800604D5880602D54E
:100CA000204600F0A1FA20684069216CC0F3801052
:100CB000090700D430B3204600F07EFA206841696D
:100CC00049061BD5416921F040014161A06BA8B1E3
:100CD00059490165A06BFFF731FB002811D0A06BCB
:100CE000016D01B0BDE8F040084783060FD58B06C3
:100CF0000DD52046BDE8F84000F076BA2046FFF753
:100D000094FFF8BD2046FFF790FF2564F8BD266BE1
:100D10002023012E53D1C60651D5CE064FD51068DB
:100D200050680090506940062BD5A16B0868406858
:100D30000004000CEAD0A68D8642E7D9E085C86998
:100D4000B0F5807F18D0D06820F48070D060206823
:100D5000416921F0010141612068416921F04001B0
:100D6000416184F83E3025632068C16821F010019C
:100D7000C160A06BFFF79BFAA08DE18D401A81B294
:100D800019E0A08DE18D401A81B2E08D0028BDD020
:100D90000029BBD0D06820F49070D06020684269F0
:100DA00022F00102426184F83E3025632068C26867
:100DB00022F01002C2602046FFF736FFF8BD05069C
:100DC0002BD50D0629D594F83D002128F6D1A06831
:100DD000B0F5805F01D12069B0B1206A411C216269
:100DE000216800784860E08C401E0004000CE0841C
:100DF000E4D12068C16821F08001C1602068C16829
:100E000041F04001C160F8BD206A0088C0F30800CD
:100E10005060206A801C2062E5E74006F3D5480652
:100E2000F1D5D168204621F04001D16084F83D30F1
:100E300000F0ECF8F8BD0000A911000870B504003E
:100E400004D094F83D00002510B106E0012070BDEB
:100E500084F83C50204600F023F8242084F83D001C
:100E60002068C16821F40051C160204600F014FAE6
:100E70002068016921F4904101612068416921F0F5
:100E80002A0141612068C16841F40051C1602564B4
:100E9000202084F83D0084F83E00002070BD000052
:100EA00010B586B0044614216846FFF7C1F9184909
:100EB0002068884229D11748016841F0100101607B
:100EC000006800F01000059012481438016841F0E5
:100ED000010101600068694600F0010005904FF4CF
:100EE000C060009002200190012002900320039036
:100EF000072004900848FFF745FA012211462520F3
:100F0000FFF7ACFB2520FFF79BFB06B010BD0000F0
:100F100000100140443802400000024090F83E308A
:100F2000202B0ED159B152B190F83C30012B08D092
:100F3000012380F83C300023036300F033BA012022
:100F4000704702207047000070B5044600681149E0
:100F500088421ED10515104E002229463046FFF763
:100F600007FB3220FFF7FCF90C48427801780CA00F
:100F700000F03CFA022209492046FFF7CFFF012288
:100F800029463046FFF7F4FABDE870400BA000F0A8
:100F90002DBA70BD00100140001402400000002076
:100FA000646174613A2073745B305D3A2578207314
:100FB000745B315D3A25780A000000007265636554
:100FC0006976652066696E6973680A0090F83D303D
:100FD000202B18D1A9B1A2B190F83C30012B12D02E
:100FE00001628284C28400210164212280F83D20B4
:100FF00080F83C100068C16841F08001C1600020A9
:1010000070470120704702207047000070B50068EB
:101010000B49884213D144150A4D00222146284627
:10102000FFF7A6FA3220FFF79BF901222146284656
:10103000FFF79EFABDE8704003A000F0D7B970BD7D
:10104000001001400014024073656E642066696EF2
:101050006973680A00000000FEE7000070B586B002
:1010600014216846FFF7E4F816480025016841F0AE
:1010700020010160016801F020010591016841F043
:1010800080010160016801F080010591016841F073
:101090000101016000680C4E00F001004FF4C064D3
:1010A0000590012221463046FFF762FA0120CDE982
:1010B00000400220CDE9025069463046FFF762F950
:1010C00006B070BD30380240001402400C4810B524
:1010D0000A4901604FF4E1314160002181600C2236
:1010E000C160C0E904128161C161FFF7A7FE002859
:1010F00003D0BDE81040FFF7D9B810BD0010014083
:1011000018000020FEE7704770477047FFF73CBAB1
:1011100030B593B030216846FFF78AF814210CA847
:10112000FFF786F81A480025016841F080510160F8
:10113000006800F0805011901648016841F4804129
:1011400001600068022400F48040119001200090AA
:10115000000401908001CDE90640082008904FF47A
:10116000A870CDE9090404200B906846FFF792FBB4
:101170000CA90F2081E831004FF4A0500F90E0023D
:10118000109005210CA8FFF79BFA13B030BD0000AA
:1011900040380240007000400248016841F470018C
:1011A0000160704788ED00E010B5806B0021C185BB
:1011B000C184FFF73AFD10BD0168CA6822F490723D
:1011C000CA6001684A6922F001024A61016B012983
:1011D00004D10168CA6822F01002CA60202180F898
:1011E0003E1000210163704710B5044690F83E00A0
:1011F000222801D0022010BDA1684FF480529142F4
:1012000001D1206920B1A06A91421BD049B10AE006
:101210002168A06A4968C1F308010180A06A801CA6
:1012200008E0216971B12168496801F07F0101700E
:10123000A06A401CA062E08D401E0004000CE08506
:1012400003D01CE021684968F1E72068C16821F0FB
:101250002001C1602068C16821F48071C1602068EC
:10126000416921F001014161202084F83E00206B9A
:10127000012806D02046FFF767FE002020630020EB
:1012800010BD2068C16821F01001C160A18D204609
:10129000FFF7CAFCF1E7000070B504460068016979
:1012A000E26821F44051114301612169A068E269BB
:1012B00008436169114308432168CA6849F20C6315
:1012C0009A430243CA6020684169A26921F44071CF
:1012D0001143416131492068884202D03049884237
:1012E00002D1FFF797FA01E0FFF784FAE2690023E1
:1012F000192164253226B2F5004F626828D0A0FB80
:101300000101930F9200FEF75BFF0146B0FBF5F081
:101310006FF01802504301EB800006EB0010B0FBA9
:10132000F5F000F0F002B1FBF5F002EB0012B1FBBA
:10133000F5F06FF01803584301EB800006EB001046
:10134000B0FBF5F000F00F0021681044886070BD1C
:10135000A0FB010192185B41FEF732FF0146B0FB92
:10136000F5F00201B1FBF5F06FF01803584301EB03
:10137000800006EBC000B0FBF5F000F0F80002EBD7
:101380004002B1FBF5F0584301EB800006EBC000D2
:10139000B0FBF5F000F00700D6E7000000100140B8
:1013A0000014014081628285C285002101642222ED
:1013B00080F83E2080F83C100168CA6842F48072D0
:1013C000CA6001684A6942F001024A610068C16866
:1013D00041F02001C1600020704700000148FFF784
:1013E00025BC000018000020FEE700000FB4054BEC
:1013F00010B503A9044A029800F028F810BC5DF863
:1014000014FB00000D170008140000200907090E46
:10141000002804DB00F1E02080F80014704700F0A1
:101420000F0000F1E02080F8141D704702E008C8AA
:10143000121F08C1002AFAD170477047002001E04E
:1014400001C1121F002AFBD1704700002DE9FF4F98
:101450008DB09B460F460446002606E025280BD09B
:101460005A460F999047641C761C20780028F5D1C5
:1014700011B03046BDE8F08F0025A84601229849FA
:1014800000E0054314F8013F203B02FA03F0084254
:10149000F7D120782E2817D114F8010F45F0040554
:1014A0002A280ED06FF02F022078A0F130010929F0
:1014B0000AD808EB880102EB410100EB0108641C2B
:1014C000F2E757F8048B641C20786C280DD004DCFC
:1014D0004C2812D06A2811D104E074280DD07A2843
:1014E0000CD10AE045F4001507E0617845F4801559
:1014F000814202D1641C05F58015641C2278692A9A
:1015000045D008DC002AB3D0582A69D0632A10D00D
:10151000642A08D13BE0702A67D0732A13D0752A59
:101520005CD0782A5CD010465A460F999047761CBA
:10153000D3E017F8040B8DF8000000208DF80100AF
:10154000E946012003E057F8049B4FF0FF3069079C
:101550004FF0000501D40AE06D1C45450DDA8542C7
:10156000FADB19F805100029F6D106E06D1C85425A
:10157000FCDB19F805100029F8D12E4404E019F815
:10158000010B5A460F9990476D1EF8D2A5E00A202C
:101590000021CDE90801C5F3025002280DD001CF8A
:1015A000C117031E71F100030DDA4FF0000CD0EBF0
:1015B0000C006CEB01012D2308E0FF1D27F007074D
:1015C000F7E80201EDE72B0504D52B238DF8283031
:1015D00001233BE0EB0739D02023F7E70A2000E0A6
:1015E00010200021CDE9080107E01020002145F07E
:1015F0000405CDE908014FF00808C5F302500228A0
:101600000FD001CF00214FF0000A2B071FD5702A01
:101610000DD0DDE908C38CF0100C5CEA030C0CD093
:1016200015E0FF1D27F00707F7E80201EBE740226E
:101630008DF828204FF0010A0BE050EA010306D094
:1016400030238DF828308DF8292002239A46582A15
:1016500004D024A20DF120090B9209E026A2F9E79B
:10166000DDE90823FEF7ACFD0B9B9B5C09F8013D0F
:1016700050EA0102F4D1ADEB090020300890680770
:1016800001D44FF001080899884502DDA8EB01005C
:1016900000E000208046002506E00AA85A46405D8A
:1016A0000F9990476D1C761C5545F6DB04E0302001
:1016B0005A460F999047761CB8F10001A8F101082D
:1016C000F5DC05E019F8010B5A460F999047761C96
:1016D0000899481E08900029F4DC641CC5E6000047
:1016E00009280100303132333435363738396162F8
:1016F00063646566000000003031323334353637BC
:1017000038394142434445460000000002490A6816
:101710001206FCD54860704700100140FEF73CFF00
:10172000FFF7F6FCFFF79AFCFFF7D0FC08A0FFF7E5
:101730005DFE0A220CA10F48FFF748FC02220E4969
:101740000C48FFF7EBFB0120FEF70AFEF6E700006E
:101750005541525420496E746572727570742074CC
:101760006573740A00000000756172742073656E01
:10177000640A0000180000200000002000000000A3
:101780000000000001020304060708090000000031
:1017900001020304B4170008000000201800000034
:1017A0002C140008CC170008180000204804000082
:1017B0003C140008000000000100000010000000C0
:0C17C000000000000024F4000000000005
:040000050800018965
:00000001FF
