:020000040800F2
:1000000000AF01209D010008DB130008A1110008CA
:10001000D9130008950400088915000800000000A5
:10002000000000000000000000000000DF130008D6
:100030009704000800000000DD130008E113000829
:10004000B7010008B7010008B7010008B7010008B0
:10005000B7010008B7010008B7010008B7010008A0
:10006000990400089F040008A5040008B7010008CF
:10007000B7010008B7010008B7010008B701000880
:10008000B7010008B7010008B7010008B701000870
:10009000B7010008B7010008B7010008B701000860
:1000A000B7010008B7010008B7010008B701000850
:1000B000B7010008B7010008B7010008B701000840
:1000C000B7010008B7010008B7010008B701000830
:1000D000B7010008B7010008B7010008B701000820
:1000E000B7010008B7010008B7010008B701000810
:1000F000B7010008B7010008B7010008B701000800
:10010000B7010008B7010008B7010008B7010008EF
:10011000B7010008B7010008B7010008B7010008DF
:10012000B7010008B7010008B7010008B7010008CF
:10013000B7010008B7010008B7010008B7010008BF
:10014000B7010008B7010008B7010008B7010008AF
:10015000B7010008B7010008B7010008B70100089F
:10016000B7010008B7010008B7010008B70100088F
:10017000B7010008B7010008B7010008000000003F
:10018000B7010008B7010008DFF80CD000F070F9E3
:1001900000480047014C000800AF01200648804796
:1001A00006480047FEE7FEE7FEE7FEE7FEE7FEE75C
:1001B000FEE7FEE7FEE7FEE76D1400088901000890
:1001C0002DE9F05F0546002092469B46884606468C
:1001D000814640241BE0284641464746224600F01F
:1001E000D9F853465A46C01A914110D311461846C1
:1001F000224600F0C0F82D1A67EB01084F46224650
:100200000120002100F0B7F817EB00094E41201E35
:10021000A4F10104DFDC484631462A464346BDE8E6
:10022000F09FD2B201E000F8012B491EFBD27047CB
:100230000022F6E710B513460A4604461946FFF7B2
:10024000F0FF204610BD2DE9FE4F81EA030404F0C3
:10025000004421F0004100944FF0000B23F00043D4
:1002600050EA01045ED052EA03045BD0C3F30A549F
:10027000C1F30A552C44A4F2F3340194A0FB0254B8
:10028000C1F3130141F48011C3F3130343F480134A
:1002900001FB024400FB034E840A970A44EA81549E
:1002A00047EA8357A4FB076802958D0A05FB07857B
:1002B0004FEA932C04FB0C542705029D4FEA065885
:1002C00047EA1637B5EB08056EEB070C870E920E62
:1002D00047EA811742EA8312A7FB0201B6EB0B0142
:1002E00064EB00042B0D43EA0C335E1844EB1C5006
:1002F000DA465146E7FB0201C5F313044FEA0B331C
:1003000043EA14534FEA0432019C43EA0603A4F182
:100310000C040294009CCDE900B400F05AF803B03C
:10032000BDE8F08F00200146F9E70EB540F23341F9
:1003300002910021CDE900110A460B4600F049F870
:1003400003B000BDC1F30A5210B5C1F3130140F26E
:10035000FF3341F480119A4201DA002010BD40F2CF
:1003600033439A42A2F2334203DC524200F012F8C5
:1003700010BD904010BD202A04DB203A00FA02F1A3
:10038000002070479140C2F1200320FA03F3194383
:1003900090407047202A04DB203A21FA02F0002125
:1003A000704721FA02F3D040C2F120029140084385
:1003B0001946704710B5141E73F1000408DA401C8A
:1003C00041F1000192185B411A4301D120F0010074
:1003D00010BD2DE9F04D92469B4611B1B1FA81F264
:1003E00002E0B0FA80F220329046FFF7C4FF0446E4
:1003F0000F4640EA0A0041EA0B0153465A460843B9
:1004000013D0114653EA010019D0C8F140025046FA
:10041000FFF7C0FF05460E46504659464246FFF7D5
:10042000AAFF084305D0012004E020463946BDE874
:10043000F08D0020054346EAE0762C4337430A98C6
:100440006305E40AA0EB08000022FD0A44EA4754D1
:100450000A3002D500200146E9E70105101969417B
:10046000DDE9084500196941BDE8F04DA2E700004B
:10047000064C074D06E0E06840F0010394E80700F1
:1004800098471034AC42F6D3FFF782FE588200083A
:1004900078820008FEE77047042000F087B9082042
:1004A00000F084B9102000F081B9704770B5B3F541
:1004B000804F05D06FF0704140F82210002070BDD1
:1004C00050F82240084B8E891C40D1E9003543EAA0
:1004D00005138D6889692D0245EA06452B430B43B8
:1004E000234340F82230E9E70000F0CFF0B50C6874
:1004F00050F82430114A1340D1E90125D1E90367AE
:100500002A433E4332434E6932438E693243CE69B9
:1005100032430E6A32434E6A32438E6A3243CE6AA7
:100520003243CE6B096B32430A431A43082D01D183
:1005300042F0400240F824200020F0BD8000F0FF8F
:1005400030B500EB820250688D8900F04043D1E95C
:10055000000440EA04108C68240244EA0544204365
:100560000C8A074D05EB045420430C7D6D0105EB0F
:10057000046489692043084318435060002030BD5B
:100580000000F0FF80B201F081BA00002DE9F041D7
:1005900086B014216846FFF74BFE26480168002903
:1005A00044D10124046024488846016841F00101D7
:1005B00001600068022500F0010005904FF23F0045
:1005C000CDE9000502AA03260C2782E8D00069467F
:1005D0001A4800F0F7F841F23F40CDE9000502AAC1
:1005E000694682E8D000164800F0ECF84FF68370B8
:1005F000CDE9000502AA694682E8D000114800F062
:10060000E1F802AA4DF6337082E8D000CDE900058A
:100610000D4C6946204600F0D5F828038DE82101ED
:1006200069462046CDE9036700F0CCF806B0BDE886
:10063000F08100001C000020383802400014024005
:100640000018024000100240000C02402DE9FE4359
:1006500080460A20FFF796FF10251F26334C4FF0E7
:100660000009B8F1040F43D04FF49377B8F1080FA5
:1006700019D0B8F1100F39D12DA000F087FFE90192
:10068000207804F037FDA06000282FD062782FA1D9
:1006900000F08CFFA0681023CDE90050D12239462C
:1006A00002961E203FE02FA000F070FFA068D8B196
:1006B0004FF6FF7000906A23E52239461E2003F0B2
:1006C000C7FEA2682EA1104600F070FFA06810239C
:1006D000CDE90050D122394602961E2004F014FACA
:1006E0002078A16804F0D8FCC4F80890BDE8FE8327
:1006F00020780E4F401CC0B21037207057F82010E1
:1007000023A000F043FF2078032802D3484684F852
:100710000090C0B2102357F82000C822CDE9005045
:10072000E22102963C2004F0EFF9DFE70000002010
:100730004B4559302070726573732C7374617274F9
:10074000206D616C6C6F6321200A00004D656D6F38
:100750007279204D616C6C6F632054657374253021
:10076000336400004B4559312070726573732C73EC
:1007700074617274206672656521200A00000000B1
:100780004D656D6F72792066726565202578000071
:100790004B4559322070726573732C6368616E67C4
:1007A000652052414D3A2573210A0000044910B5D5
:1007B0000A68024202D00860FFF748FF10BD00003F
:1007C000143C01402DE9F84FDFF8B8A100220125C3
:1007D0000AF1040B03264FF00F090BF1040E00BFC2
:1007E0000B6805FA02F42340A3426FD10F7907F09A
:1007F0000307012F01D0022F16D187684FEA420864
:1008000006FA08FC27EA0C07D1F80CC00CFA08FC21
:100810004CEA070CC0F808C04768A7430C79C4F33A
:10082000001494403C4344600C79E443A4070AD08C
:10083000C4684FEA420C06FA0CF7BC438F6807FA0B
:100840000CF72743C7600C7904F00304022C12D183
:10085000D40800EB840CDCF820405707FF0E09FA9F
:1008600007F824EA0804D1F8108008FA07F848EAE3
:100870000408CCF8208004684FEA420C06FA0CF712
:10088000BC430F7907F0030707FA0CF7274307600B
:100890004C68E40070D53C4C276847F480472760DB
:1008A000246822F0030704F480440094374C07EBDB
:1008B000040CDCF8084897074FEA177809FA08F79C
:1008C000BC43334FB84202D1002724E054E0314FFB
:1008D000B84201D101271EE02F4FB84201D10227B3
:1008E00019E02E4FB84201D1032714E02C4FB84233
:1008F00001D104270FE02B4FB84201D105270AE0B0
:10090000294FB84201D1062705E0284FB84201D14E
:10091000072700E0082707FA08F72743CCF80878EC
:10092000DAF800405746D1F804C09C435FEACC3C5B
:1009300000D51C433C60DBF800405F46D1F804C0A2
:100940009C435FEA8C3C00D51C433C60DEF80040D1
:100950007746D1F804C09C435FEACC2C00D51C43F9
:100960003C60084F0C373C68D1F804C09C435FEAF8
:100970008C2C00D51C433C60521C102AFFF430AF75
:10098000BDE8F88F003C014044380240003001408F
:10099000000002400004024000080240000C024037
:1009A000001002400014024000180240001C0240E7
:1009B000426921EA02030A4043EA02418161704729
:1009C0000AB1816170470904FBE7000001488068B3
:1009D00070470000540000200248816802781144EA
:1009E00081607047540000200B4810B5016841F445
:1009F00000710160016841F480610160016841F4A7
:100A000080710160032000F071F8002000F006F80A
:100A100000F024F8002010BD003C024070B50D4DE0
:100A200004464FF47A712878B1FBF0F00A4909685E
:100A3000B1FBF0F000F039FB48B9102C07D20022CE
:100A40002146501E00F032F800206C6070BD01207D
:100A500070BD000054000020600000200B4882B0F0
:100A6000016841F480410160006800F4804000901A
:100A70000648001F016841F080510160006800F0E5
:100A800080500090052002B000F030B84438024099
:100A9000002809DB00F01F0201219140400980007D
:100AA00000F1E020C0F8001170470000F0B40E4BD8
:100AB0001B680C46C3F30223C3F10705042D00D9BC
:100AC0000425191D072901D2002300E0DB1E0126A1
:100AD00006FA05F1491E214099409E40761E1640B7
:100AE0003143F0BC00F076BD0CED00E0064900F0AB
:100AF000070208684FF6FF03184040EA0220034A45
:100B000010430860704700000CED00E00000FA059B
:100B10002DE9F0470E46050065D0DFF81481D8F8BE
:100B20000000F7B200F00700B04207D288F800706A
:100B3000D8F8000000F00700B04254D128683D4CBE
:100B4000810712D5400703D5206840F4E0502060AB
:100B50002878000703D5206840F4604020602068B2
:100B6000A96820F0F000084320602878C0072DD045
:100B7000304968680839012812D0022813D00328A8
:100B800011D00968890700292DDA216821F00301B5
:100B900001432160FFF71AFF814641F2883A0EE0D7
:100BA00009688903EFE709688901ECE7FFF70EFFA1
:100BB000A0EB0901514502D90320BDE8F087206868
:100BC000696800F00C00B0EB810FEFD1D8F800108D
:100BD000404601F00701B14207D90770006800F0F4
:100BE0000700B04201D00120E7E72878400705D58B
:100BF0002068E96820F4E050084320602878000766
:100C000006D52068296920F4604040EAC1002060D0
:100C100000F038F82168084AC1F30311515CC8405C
:100C20000649086006480068FFF7F8FE0020C4E7A0
:100C3000003C0240083802401C820008600000208E
:100C4000580000200448054900680968044AC1F3B7
:100C50008221515CC8407047600000200838024083
:100C60002C8200080448054900680968044AC1F359
:100C70004231515CC8407047600000200838024093
:100C80002C820008154810B5006810F00C021448BA
:100C900013D04110042A0FD0082A0ED10F4C241F64
:100CA0002268236802F03F025B0207D52068C0F388
:100CB0008810A0FB010106E0084610BD2168C1F3C1
:100CC0008811A1FB00010023FFF77AFA2168C1F324
:100CD0000141491C4900B0FBF1F010BD0838024049
:100CE0000024F4002DE9F84F04006ED02078DFF8DE
:100CF0004C93C007A9F104054AD009F1040001682A
:100D0000C1F38101012908D00068C0F381000228E5
:100D10000AD1D9F80000400206D52868800337D5EB
:100D200060680028E1D033E06068B0F5803F10D003
:100D3000B0F5A02F286810D020F4803028602868F3
:100D400020F4802028606068A8B1FFF73FFE0646C7
:100D50000DE0286840F48030F4E740F480202860FB
:100D6000F7E700BFFFF732FE801B642873D82868BE
:100D70008003F7D50CE0FFF729FE064605E000BF2B
:100D8000FFF724FE801B6428F0D828688003F7D47E
:100D90002078DFF8AC8280074FF0000A3ED5A748E4
:100DA000001D016811F00C0F08D00068C0F381002D
:100DB00002280BD1D9F80000400207D42868800728
:100DC00016D5E068012800D112E033E1E068B8B13F
:100DD0000120C8F80000FFF7F9FD064605E000BF56
:100DE000FFF7F4FD801B0228C0D828688007F7D5DC
:100DF0002868216920F0F80040EAC10028600DE071
:100E0000C8F800A0FFF7E2FD064604E0FFF7DEFDAC
:100E1000801B02281FD828688007F7D42078000795
:100E200022D5864F87486169703771B10121016011
:100E3000FFF7CCFD064604E0FFF7C8FD801B022843
:100E400009D838688007F7D50EE0C0F800A0FFF792
:100E5000BDFD064605E082E0FFF7B8FD801B0228D5
:100E60007DD838688007F7D42078400768D5DFF848
:100E7000CCB100270BF13C0BDBF80000C0000BD419
:100E8000DBF8001041F08051CBF80010DBF80000D7
:100E9000012700F0805000906B4E3068C00510D4E0
:100EA000306840F480703060FFF790FD009005E0FE
:100EB000FFF78CFD0099401A022850D83068C00511
:100EC000F6D55E4EA0686C3601280FD00528306834
:100ED00010D020F001003060306820F00400306055
:100EE000A068B8B1FFF772FD00900FE0306840F0E5
:100EF0000100F4E740F004003060F7E7FFF766FD1B
:100F00000099411A41F28830814266D830688007E2
:100F1000F4D50EE0FFF75AFD009007E0FFF756FD0D
:100F20000099411A41F28830814256D830688007D2
:100F3000F4D42FB1DBF8001021F08051CBF8001071
:100F4000A069C8B33D49091D0968C1F3810102299F
:100F50004AD00228504607D0C8F8600000E03CE0C4
:100F6000FFF734FD04463BE04746C8F86000FFF752
:100F70002DFD064605E000BFFFF728FD801B022877
:100F80002BD828688001F7D4D4E907010843A16A67
:100F90002E4A490802EB0141626A41EA8211084384
:100FA00094F82C1040EA0161C9F80010012038665D
:100FB000FFF70CFD044606E03EE000BFFFF706FD2C
:100FC000001B022809D828688001F7D534E000BF4B
:100FD000FFF7FCFC001B022802D90320BDE8F88FB4
:100FE00028688001F4D427E00128F7D0D9F8000060
:100FF000E26900F4800191421CD1226A00F03F01B5
:10100000914217D147F6C071626A0140B1EB821F6D
:1010100010D1A26A4FF0FF3300F4403103EB5202CB
:10102000B1EB024F06D194F82C1000F07060B0EBD9
:10103000016F01D00120D1E70020CFE70438024042
:1010400000004742800E4742007000400000FFFF52
:1010500070B515460E46040003D094F8490010B14F
:1010600007E0012070BD002084F84800204600F011
:101070001AF804F108012068FFF738FA3146A2682F
:101080002068FFF75DFAD4E901022946236BFFF7D8
:101090000DFAA168206850F8212042F0010240F8C2
:1010A0002120002070BDFFF771BA10B5401EB0F1CD
:1010B000807F01D3012010BD4FF0E02460610F213B
:1010C000601700F087FA0020A0610720206100204F
:1010D00010BD70B5040004D094F83D00002510B197
:1010E00006E0012070BD84F83C50204600F022F854
:1010F000242084F83D002068C16821F40051C160BB
:10110000204600F0BBF92068016921F4904101619B
:101110002068416921F02A0141612068C16841F4D9
:101120000051C1602564202084F83D0084F83E0011
:10113000002070BD10B586B0044614216846FFF744
:1011400077F814492068884221D11348016841F09A
:1011500010010160006800F0100005900E4814387E
:10116000016841F0010101600068694600F001007A
:1011700005904FF4C0600090022001900120029081
:1011800003200390072004900448FFF71BFB06B0E0
:1011900010BD000000100140443802400000024031
:1011A000FEE700002DE9F0438FB01C216846FFF7F1
:1011B0003FF81C2107A8FFF73BF82F480421002423
:1011C000C0E902141025C0E904458461C4610462C9
:1011D00044628462C46204634463284E84634FF0B3
:1011E00020484464C0E9008602200F27CDE90007AB
:1011F00002A908204FF0110981E831020022694656
:101200001D480694FFF724FF08B1FFF74EF91A486E
:101210000621503007AAC0E90214C0E904458461E0
:10122000C4614FF480510462C0E909418900C0E9FA
:101230000B41446384634464C0E900863C2000970A
:10124000CDE90170CDF81490CDE903750921CDE900
:101250000641CDE90871CDE90C940748CDE90A753E
:1012600069465030FFF7F4FE002801D0FFF71DF962
:101270000FB0BDE8F0830000E4000020040100A0EE
:101280002DE9F04186B014216846FEF7D1FF3F48B2
:10129000016841F010010160016801F01001059141
:1012A000016841F020010160016801F02001059111
:1012B000016841F080010160016801F08001059141
:1012C000016841F040010160016801F040010591B1
:1012D000016841F002010160016801F0020105911D
:1012E000016841F008010160016801F00801059101
:1012F000016841F0010101600068254F00F0010024
:101300004FF4C0650590012229463846FFF758FB87
:101310000122DFF88080D60331464046FFF750FBBC
:101320001C2000901C480124CDE9010469461B489B
:10133000FFF748FACDE90054022569463846CDE961
:101340000245FFF73FFACDE9006469464046CDE922
:101350000245FFF737FA012203210820FFF7A6FB19
:101360000820FFF795FB012203210920FFF79EFBD0
:101370000920FFF78DFB012203210A20FFF796FBCE
:101380000A20FFF785FB06B0BDE8F0813038024047
:10139000001402400004024000002110001002402E
:1013A0000C4810B50A4901604FF4E1314160002159
:1013B00081600C22C160C0E904128161C161FFF744
:1013C00088FE002803D0BDE81040FFF76EB810BDBE
:1013D0000010014084010020FEE77047704770470D
:1013E000FFF7FABA30B593B030216846FEF720FF18
:1013F00014210CA8FEF71CFF1A480025016841F0D3
:1014000080510160006800F080501190164801681A
:1014100041F4804101600068022400F48040119092
:1014200001200090000401908001CDE906400820D1
:1014300008904FF4A870CDE9090404200B90684689
:10144000FFF750FC0CA90F2081E831004FF4A050A9
:101450000F90E002109005210CA8FFF759FB13B084
:1014600030BD000040380240007000400248016872
:1014700041F470010160704788ED00E070B50446EA
:1014800000680169E26821F440511143016121695A
:10149000A068E26908436169114308432168CA688A
:1014A00049F20C639A430243CA6020684169A26909
:1014B00021F440711143416131492068884202D0D2
:1014C0003049884202D1FFF7CDFB01E0FFF7BAFBBC
:1014D000E2690023192164253226B2F5004F6268C3
:1014E00028D0A0FB0101930F9200FEF769FE014690
:1014F000B0FBF5F06FF01802504301EB800006EBF3
:101500000010B0FBF5F000F0F002B1FBF5F002EBDB
:101510000012B1FBF5F06FF01803584301EB8000A7
:1015200006EB0010B0FBF5F000F00F00216810444E
:10153000886070BDA0FB010192185B41FEF740FE80
:101540000146B0FBF5F00201B1FBF5F06FF01803B6
:10155000584301EB800006EBC000B0FBF5F000F053
:10156000F80002EB4002B1FBF5F0584301EB8000BC
:1015700006EBC000B0FBF5F000F00700D6E7000076
:101580000010014000140140FEE700000FB4054BBD
:1015900010B503A9044A029800F03CF810BC5DF8AD
:1015A00014FB0000CD1A0008640000200FB4084BA3
:1015B00010B504A902AA039800F02CF8044602A969
:1015C000002000F058FA204610BC5DF814FB000023
:1015D000771A00080907090E002804DB00F1E02053
:1015E00080F80014704700F00F0000F1E02080F850
:1015F000141D704702E008C8121F08C1002AFAD162
:1016000070477047002001E001C1121F002AFBD182
:10161000704700002DE9FF4F8DB00F4605460026AC
:1016200006E025280BD0DDE90F1290476D1C761CD3
:1016300028780028F5D111B03046BDE8F08F00249D
:10164000A246A1460122EC4900E0044315F8013FFF
:10165000203B02FA03F00842F7D128782A2810D05C
:101660006FF02F022878A0F13001092914D80AEB75
:101670008A0102EB410144F0020400EB010A6D1CF7
:10168000F0E701CF5FEA000A03D544F40054CAF141
:10169000000A44F002046D1C28782E2817D115F892
:1016A000010F44F004042A280ED06FF02F0228788E
:1016B000A0F1300109290AD809EB890102EB4101A7
:1016C00000EB01096D1CF2E757F8049B6D1C2878AC
:1016D0006C280FD006DC4C2817D068280DD06A285B
:1016E00014D104E0742810D07A280FD10DE044F40E
:1016F00000140AE044F4801401E044F440146978D2
:10170000814202D104F580146D1C6D1C2A786E2A6A
:101710001FD00CDC632A31D004DC002A8BD0582A7D
:1017200011D1A3E0642A68D0692A0CD165E0732A3C
:101730002ED004DC6F2A73D0702A04D19BE0752A66
:101740006FD0782A6ED01046DDE90F129047761CD4
:1017500050E1C4F30250022806D0032809D004281F
:1017600001CF09D0066045E101CFF117C0E9006162
:1017700040E101CF06803DE106703BE117F8040B24
:101780008DF8000000208DF80100EB46012003E0F9
:1017900057F804BB4FF0FF3061074FF0000102D44F
:1017A0000DE008F10101884649450FDA8045F8DB74
:1017B0001BF808100029F4D108E008F1010188465F
:1017C0008142FADB1BF808100029F6D1DDE90F236E
:1017D000AAEB08008146214600F036F9304400EBC0
:1017E000080604E0DDE90F121BF8010B9047B8F181
:1017F0000108F7D221464846F7E00A21C4F3025314
:101800004FF0000B0891022B04D001CFC117032B1E
:1018100009D00AE0FF1D27F00707F7E8020108E0FA
:1018200032E01FE020E000B2C117042B01D140B22A
:10183000C117031E71F1000307DA4FF0000CD0EB63
:101840000C006CEB01012D2302E0230504D52B23B2
:101850008DF82430012303E0E30701D02023F7E7CC
:10186000984658E00A2110E010210EE010204FF0B9
:10187000000B08900CE010214FF0000B44F0040422
:101880004FF00809089103E008214FF0000B089180
:10189000C4F30253022B04D001CF0021032B06D046
:1018A00006E0FF1D27F00707F7E8020103E080B21A
:1018B000042B00D1C0B24FF0000823072BD5702AAB
:1018C00007D0DDF820C08CF0100C5CEA0B0C05D0C2
:1018D0000EE040238DF82430012308E050EA010394
:1018E00006D030238DF824308DF825200223984629
:1018F000DDF820C08CF0080C5CEA0B0C0BD150EA30
:10190000010301D1630706D530238DF824304FF051
:101910000108A9F10109582A04D038A20B9208AA9B
:101920000A920BE03AA2F9E75B46089AFEF748FCF8
:101930000B9B9B5C0A9A521E0A92137050EA01029A
:10194000F2D10A98ADEB000000F1200B600702D540
:1019500024F4803401E04FF00109D94502DDA9EB00
:101960000B0000E0002000EB0B0141440890AAEBC3
:10197000010AE00306D4DDE90F232146504600F0BA
:1019800063F806444FF0000908E009A911F80900BE
:10199000DDE90F12904709F10109761CC145F4DB1E
:1019A000E0030CD5DDE90F232146504600F04CF84A
:1019B000064404E0DDE90F1230209047761C0899B8
:1019C000481E08900029F5DC08E00A980A9900787A
:1019D000491C0A91DDE90F129047761CBBF100010A
:1019E000ABF1010BF1DC21465046DDE90F2300F09D
:1019F00019F806446D1C1BE609280100303132330A
:101A0000343536373839616263646566000000003A
:101A10003031323334353637383941424344454624
:101A2000000000002DE9F041044600251E4617463F
:101A3000880404D405E039462020B0476D1C641E9C
:101A4000F9D52846BDE8F0812DE9F041044600258E
:101A50001E469046C80301D5302700E020278804A1
:101A600004D505E041463846B0476D1C641EF9D5E3
:101A70002846BDE8F0810A68531C0B60107070475F
:101A80000149086070470000500000204FF47A714F
:101A9000484300F001B8000070B54FF0E024002288
:101AA00065690949A36909684843A1699942FCD05D
:101AB00002D2A3EB010302E0A5EB010633441A4472
:101AC0000B468242F1D370BD5000002002490A68E3
:101AD0001206FCD5486070470010014070B50A49F5
:101AE0000646002408884D8821464543204602F0DA
:101AF00023FF03F075F84FF0D84002E0A0F88060B3
:101B0000641CAC42FAD370BDC80100202DE9F04F2F
:101B100038492C260A46887192884FF4305A4FF47F
:101B2000285B41F6631E2B274FF02A0C4FF0F0087C
:101B300045F210594FF448754FF4A0744FF4F07308
:101B400058B10C80A1F802804A4530D1A1F808A014
:101B5000A1F80AB03802888141E0A1F800804C80E9
:101B60004A4507D1A1F808A0A1F80AB04FF42C50BB
:101B7000888105E072450E8105D14F81A1F80CC026
:101B80000B804D8002E0A1F80AC08F81A2F5A6402B
:101B9000103803D0A2F5EE40963801D10C804B806E
:101BA000A2F5184006381FD10B804D801CE072450D
:101BB00011D0A2F5184006380DD00E81A1F80AC048
:101BC000A1F80C70A2F5A64010380BD0A2F5EE409B
:101BD000963807D008E00E81A1F80AC08F810D80E9
:101BE0004B80EFE70B804C80BDE8F04F002002F007
:101BF000C3BD0000C801002010B5144602F09CFED1
:101C000002F0EEFF4FF0D840A0F8804010BD10B5B4
:101C1000CF2002F0D9FF002002F0CAFFC12002F05D
:101C2000C7FF302002F0C4FFED2002F0CDFF64209A
:101C300002F0BEFF032002F0BBFF122002F0B8FF4B
:101C4000812002F0B5FFE82002F0BEFF852002F0FF
:101C5000AFFF102002F0ACFF7A2002F0A9FFCB20EA
:101C600002F0B2FF392002F0A3FF2C2002F0A0FF07
:101C7000002002F09DFF342002F09AFF022002F0C3
:101C800097FFF72002F0A0FF202002F091FFEA204A
:101C900002F09AFF002002F08BFF002002F088FF84
:101CA000C02002F091FF1B2002F082FFC12002F051
:101CB0008BFF012002F07CFFC52002F085FF302061
:101CC00002F076FF302002F073FFC72002F07CFFA5
:101CD000B72002F06DFF362002F076FF482002F0B8
:101CE00067FF3A2002F070FF552002F061FFB1203B
:101CF00002F06AFF002002F05BFF1A2002F058FF9A
:101D0000B62002F061FF0A2002F052FFA22002F08A
:101D10004FFFF22002F058FF002002F049FF26207A
:101D200002F052FF012002F043FFE02002F04CFFDE
:101D30000F2002F03DFF2A2002F03AFF282002F097
:101D400037FF082002F034FF0E2002F031FF082098
:101D500002F02EFF542002F02BFFA92002F028FFF2
:101D6000432002F025FF0A2002F022FF0F2002F09C
:101D70001FFF002002F01CFF002002F019FF0020CE
:101D800002F016FF002002F013FFE12002F01CFF1A
:101D9000002002F00DFF152002F00AFF172002F0CC
:101DA00007FF072002F004FF112002F001FF0620C8
:101DB00002F0FEFE2B2002F0FBFE562002F0F8FEA1
:101DC0003C2002F0F5FE052002F0F2FE102002F0A9
:101DD000EFFE0F2002F0ECFE3F2002F0E9FE3F2074
:101DE00002F0E6FE0F2002F0E3FE2B2002F0ECFEF4
:101DF000002002F0DDFE002002F0DAFE012002F0F9
:101E0000D7FE3F2002F0D4FE2A2002F0DDFE0020A3
:101E100002F0CEFE002002F0CBFE002002F0C8FE51
:101E2000EF2002F0C5FE112002F0CEFE7820FFF771
:101E30002DFEBDE81040292002F0C6BE10B5FF20DF
:101E400002F0C2FEFF2002F0B3FE982002F0B0FEC6
:101E5000062002F0ADFEBC2002F0B6FE012002F02A
:101E6000A7FE0F2002F0A4FE612002F0A1FEFF20D9
:101E700002F09EFE012002F09BFE012002F098FE7F
:101E80000B2002F095FE102002F092FE372002F0A7
:101E90008FFE632002F08CFEFF2002F089FEFF20FF
:101EA00002F086FE012002F083FE012002F080FE97
:101EB000002002F07DFE002002F07AFEFF2002F0FA
:101EC00077FE522002F074FE012002F071FE002025
:101ED00002F06EFE402002F06BFEBD2002F074FEA8
:101EE000012002F065FE232002F062FE452002F090
:101EF0005FFE672002F05CFE012002F059FE232005
:101F000002F056FE452002F053FE672002F050FE1C
:101F1000BE2002F059FE002002F04AFE012002F02D
:101F200047FEAB2002F044FE602002F041FE22207A
:101F300002F03EFE222002F03BFE222002F038FE9C
:101F4000222002F035FE222002F032FEC72002F0ED
:101F50003BFE362002F02CFEED2002F035FE7F2005
:101F600002F026FE0F2002F023FEC02002F02CFE1D
:101F70000F2002F01DFE0B2002F01AFE0A2002F0D4
:101F800017FEFC2002F020FE082002F011FEDF20E8
:101F900002F01AFE002002F00BFE002002F008FE04
:101FA000002002F005FE002002F002FE002002F0F8
:101FB000FFFD202002F0FCFDF32002F005FE74205E
:101FC00002F0F6FDB42002F0FFFD002002F0F0FD6B
:101FD000002002F0EDFD002002F0EAFDF72002F003
:101FE000F3FD822002F0E4FDB12002F0EDFD0020BF
:101FF00002F0DEFD132002F0DBFD132002F0D8FD1D
:10200000F22002F0E1FD802002F0D2FD042002F077
:10201000CFFD402002F0CCFD282002F0C9FDC120F8
:1020200002F0D2FD172002F0C3FD882002F0C0FDAF
:10203000882002F0BDFD202002F0BAFDE02002F071
:10204000C3FD002002F0B4FD0A2002F0B1FD122011
:1020500002F0AEFD102002F0ABFD0E2002F0A8FD54
:10206000202002F0A5FDCC2002F0A2FD072002F006
:102070009FFD062002F09CFD0B2002F099FD0E2032
:1020800002F096FD0F2002F093FD0D2002F090FD6E
:10209000152002F08DFD102002F08AFD002002F0D4
:1020A00087FDE12002F090FD002002F081FD0B2071
:1020B00002F07EFD132002F07BFD0D2002F078FD82
:1020C0000E2002F075FD1B2002F072FD712002F05F
:1020D0006FFD062002F06CFD062002F069FD0A206B
:1020E00002F066FD0F2002F063FD0E2002F060FD9D
:1020F0000F2002F05DFD152002F05AFD0C2002F0C9
:1021000057FD002002F054FD2A2002F05DFD002062
:1021100002F04EFD002002F04BFD012002F048FDD0
:10212000DF2002F045FD2B2002F04EFD002002F0E2
:102130003FFD002002F03CFD032002F039FD1F208E
:1021400002F036FD3A2002F03FFD552002F030FD4E
:10215000362002F039FD002002F02AFD112002F0A5
:1021600033FD7820FFF792FC292002F02DFD14208A
:10217000FFF78CFCBDE810402C2002F025BD10B507
:10218000ED2002F021FD012002F012FDFE2002F000
:102190000FFDEE2002F018FDDE2002F009FD2120E7
:1021A00002F006FDF12002F00FFD012002F000FD1B
:1021B000DF2002F009FD102002F0FAFCC42002F03A
:1021C00003FD8F2002F0F4FCC62002F0FDFC00208D
:1021D00002F0EEFCE22002F0EBFCE22002F0E8FC70
:1021E000E22002F0E5FCBF2002F0EEFCAA2002F0A3
:1021F000DFFCB02002F0E8FC0D2002F0D9FC00204A
:1022000002F0D6FC0D2002F0D3FC002002F0D0FC3E
:10221000112002F0CDFC002002F0CAFC192002F0CF
:10222000C7FC002002F0C4FC212002F0C1FC002009
:1022300002F0BEFC2D2002F0BBFC002002F0B8FC36
:102240003D2002F0B5FC002002F0B2FC5D2002F05F
:10225000AFFC002002F0ACFC5D2002F0A9FC0020E5
:1022600002F0A6FCB12002F0AFFC802002F0A0FC3E
:10227000002002F09DFC8B2002F09AFC002002F06E
:1022800097FC962002F094FC002002F091FCB22012
:1022900002F09AFC002002F08BFC002002F088FC87
:1022A000022002F085FC002002F082FC032002F0F4
:1022B0007FFC002002F07CFCB32002F085FC0020B3
:1022C00002F076FC002002F073FC002002F070FCAB
:1022D000002002F06DFC002002F06AFC002002F0F9
:1022E00067FC002002F064FC002002F061FC00208A
:1022F00002F05EFC002002F05BFC002002F058FCC3
:10230000002002F055FC002002F052FC002002F0F8
:102310004FFC002002F04CFC002002F049FC0020A1
:1023200002F046FC002002F043FC002002F040FCDA
:10233000002002F03DFC002002F03AFC002002F0F8
:1023400037FC002002F034FC002002F031FCB42005
:1023500002F03AFC8B2002F02BFC002002F028FC5B
:10236000962002F025FC002002F022FCA12002F0C1
:102370001FFC002002F01CFCB52002F025FC02200E
:1023800002F016FC002002F013FC032002F010FC07
:10239000002002F00DFC042002F00AFC002002F0F4
:1023A00007FCB62002F010FC002002F001FC002027
:1023B00002F0FEFBB72002F007FC002002F0F8FB61
:1023C000002002F0F5FB3F2002F0F2FB002002F0BB
:1023D000EFFB5E2002F0ECFB002002F0E9FB642042
:1023E00002F0E6FB002002F0E3FB8C2002F0E0FBB1
:1023F000002002F0DDFBAC2002F0DAFB002002F04E
:10240000D7FBDC2002F0D4FB002002F0D1FB7020CF
:1024100002F0CEFB002002F0CBFB902002F0C8FBC4
:10242000002002F0C5FBEB2002F0C2FB002002F00E
:10243000BFFBDC2002F0BCFB002002F0B9FBB8209F
:1024400002F0C2FB002002F0B3FB002002F0B0FB60
:10245000002002F0ADFB002002F0AAFB002002F0F9
:10246000A7FB002002F0A4FB002002F0A1FB00204B
:1024700002F09EFBBA2002F0A7FB242002F098FB9A
:10248000002002F095FB002002F092FB002002F0F9
:102490008FFBC12002F098FB202002F089FB002076
:1024A00002F086FB542002F083FB002002F080FB48
:1024B000FF2002F07DFB002002F07AFBC22002F038
:1024C00083FB0A2002F074FB002002F071FB042061
:1024D00002F06EFB002002F06BFBC32002F074FBE5
:1024E0003C2002F065FB002002F062FB3A2002F083
:1024F0005FFB002002F05CFB392002F059FB00205A
:1025000002F056FB372002F053FB002002F050FB94
:102510003C2002F04DFB002002F04AFB362002F086
:1025200047FB002002F044FB322002F041FB002078
:1025300002F03EFB2F2002F03BFB002002F038FBB4
:102540002C2002F035FB002002F032FB292002F0A3
:102550002FFB002002F02CFB262002F029FB00209C
:1025600002F026FB242002F023FB002002F020FBD7
:10257000242002F01DFB002002F01AFB232002F0B1
:1025800017FB002002F014FB3C2002F011FB00209E
:1025900002F00EFB362002F00BFB002002F008FBDD
:1025A000322002F005FB002002F002FB2F2002F097
:1025B000FFFA002002F0FCFA2C2002F0F9FA0020C9
:1025C00002F0F6FA292002F0F3FA002002F0F0FA05
:1025D000262002F0EDFA002002F0EAFA242002F0B0
:1025E000E7FA002002F0E4FA242002F0E1FA0020E9
:1025F00002F0DEFA232002F0DBFA002002F0D8FA23
:10260000C42002F0E1FA622002F0D2FA002002F0C7
:10261000CFFA052002F0CCFA002002F0C9FA84209B
:1026200002F0C6FA002002F0C3FAF02002F0C0FA6D
:10263000002002F0BDFA182002F0BAFA002002F0E1
:10264000B7FAA42002F0B4FA002002F0B1FA182080
:1026500002F0AEFA002002F0ABFA502002F0A8FA25
:10266000002002F0A5FA0C2002F0A2FA002002F0ED
:102670009FFA172002F09CFA002002F099FA9520A8
:1026800002F096FA002002F093FAF32002F090FA9A
:10269000002002F08DFAE62002F08AFA002002F013
:1026A00087FAC52002F090FA322002F081FA002069
:1026B00002F07EFA442002F07BFA002002F078FA61
:1026C000652002F075FA002002F072FA762002F01E
:1026D0006FFA002002F06CFA882002F069FA0020FC
:1026E00002F066FAC62002F06FFA202002F060FACB
:1026F000002002F05DFA172002F05AFA002002F0E2
:1027000057FA012002F054FA002002F051FAC720D3
:1027100002F05AFA002002F04BFA002002F048FAC8
:10272000002002F045FA002002F042FAC82002F030
:102730004BFA002002F03CFA002002F039FA0020A7
:1027400002F036FA002002F033FAC92002F03CFA17
:10275000002002F02DFA002002F02AFA002002F0F8
:1027600027FA002002F024FA002002F021FA0020CB
:1027700002F01EFA002002F01BFA002002F018FA04
:10278000002002F015FA002002F012FA002002F0F8
:102790000FFA002002F00CFA002002F009FA0020E3
:1027A00002F006FA002002F003FA002002F000FA1C
:1027B000E02002F009FA162002F0FAF9002002F0F7
:1027C000F7F91C2002F0F4F9002002F0F1F92120C1
:1027D00002F0EEF9002002F0EBF9362002F0E8F901
:1027E000002002F0E5F9462002F0E2F9002002F0B4
:1027F000DFF9522002F0DCF9002002F0D9F9642060
:1028000002F0D6F9002002F0D3F97A2002F0D0F9D4
:10281000002002F0CDF98B2002F0CAF9002002F06E
:10282000C7F9992002F0C4F9002002F0C1F9A820EC
:1028300002F0BEF9002002F0BBF9B92002F0B8F9AD
:10284000002002F0B5F9C42002F0B2F9002002F035
:10285000AFF9CA2002F0ACF9002002F0A9F9D220A9
:1028600002F0A6F9002002F0A3F9D92002F0A0F9A5
:10287000002002F09DF9E02002F09AF9002002F019
:1028800097F9F32002F094F9002002F091F9E12089
:1028900002F09AF9162002F08BF9002002F088F974
:1028A0001C2002F085F9002002F082F9222002F0BB
:1028B0007FF9002002F07CF9362002F079F900203F
:1028C00002F076F9452002F073F9002002F070F969
:1028D000522002F06DF9002002F06AF9642002F043
:1028E00067F9002002F064F97A2002F061F9002013
:1028F00002F05EF98B2002F05BF9002002F058F93B
:10290000992002F055F9002002F052F9A82002F0B7
:102910004FF9002002F04CF9B92002F049F90020EB
:1029200002F046F9C42002F043F9002002F040F919
:10293000CA2002F03DF9002002F03AF9D22002F05C
:1029400037F9002002F034F9D82002F031F90020E4
:1029500002F02EF9E02002F02BF9002002F028F915
:10296000F32002F025F9002002F022F9E22002F023
:102970002BF9052002F01CF9002002F019F90B20B8
:1029800002F016F9002002F013F91B2002F010F9F2
:10299000002002F00DF9342002F00AF9002002F0C4
:1029A00007F9442002F004F9002002F001F94F2059
:1029B00002F0FEF8002002F0FBF8612002F0F8F8C7
:1029C000002002F0F5F8792002F0F2F8002002F081
:1029D000EFF8882002F0ECF8002002F0E9F89720E8
:1029E00002F0E6F8002002F0E3F8A62002F0E0F89A
:1029F000002002F0DDF8B72002F0DAF8002002F043
:102A0000D7F8C22002F0D4F8002002F0D1F8C72095
:102A100002F0CEF8002002F0CBF8D12002F0C8F886
:102A2000002002F0C5F8D62002F0C2F8002002F023
:102A3000BFF8DD2002F0BCF8002002F0B9F8F32066
:102A400002F0B6F8002002F0B3F8E32002F0BCF880
:102A5000052002F0ADF8002002F0AAF80A2002F0EA
:102A6000A7F8002002F0A4F81C2002F0A1F8002032
:102A700002F09EF8332002F09BF8002002F098F854
:102A8000442002F095F8002002F092F8502002F065
:102A90008FF8002002F08CF8622002F089F8002004
:102AA00002F086F8782002F083F8002002F080F827
:102AB000882002F07DF8002002F07AF8972002F0DA
:102AC00077F8002002F074F8A62002F071F80020D8
:102AD00002F06EF8B72002F06BF8002002F068F800
:102AE000C22002F065F8002002F062F8C72002F070
:102AF0005FF8002002F05CF8D12002F059F80020C5
:102B000002F056F8D52002F053F8002002F050F8F9
:102B1000DD2002F04DF8002002F04AF8F32002F028
:102B200047F8002002F044F8E42002F04DF80120BC
:102B300002F03EF8002002F03BF8012002F038F8E5
:102B4000002002F035F8022002F032F8002002F0F6
:102B50002FF82A2002F02CF8002002F029F83C205F
:102B600002F026F8002002F023F84B2002F020F8B3
:102B7000002002F01DF85D2002F01AF8002002F09B
:102B800017F8742002F014F8002002F011F88420E5
:102B900002F00EF8002002F00BF8932002F008F883
:102BA000002002F005F8A22002F002F8002001F057
:102BB000FFFFB32001F0FCFF002001F0F9FFBE2071
:102BC00001F0F6FF002001F0F3FFC42001F0F0FF58
:102BD000002001F0EDFFCD2001F0EAFF002001F020
:102BE000E7FFD32001F0E4FF002001F0E1FFDD204A
:102BF00001F0DEFF002001F0DBFFF32001F0D8FF41
:102C0000002001F0D5FFE52001F0DEFF002001F0FB
:102C1000CFFF002001F0CCFF002001F0C9FF002011
:102C200001F0C6FF022001F0C3FF002001F0C0FF49
:102C3000292001F0BDFF002001F0BAFF3C2001F087
:102C4000B7FF002001F0B4FF4B2001F0B1FF0020DE
:102C500001F0AEFF5D2001F0ABFF002001F0A8FF06
:102C6000742001F0A5FF002001F0A2FF842001F0F4
:102C70009FFF002001F09CFF932001F099FF0020AE
:102C800001F096FFA22001F093FF002001F090FFD9
:102C9000B32001F08DFF002001F08AFFBE2001F07B
:102CA00087FF002001F084FFC42001F081FF002095
:102CB00001F07EFFCD2001F07BFF002001F078FFC6
:102CC000D32001F075FF002001F072FFDC2001F03D
:102CD0006FFF002001F06CFFF32001F069FF00207E
:102CE00001F066FFE62001F06FFF112001F060FFA8
:102CF000002001F05DFF342001F05AFF002001F0B8
:102D000057FF562001F054FF002001F051FF7620BC
:102D100001F04EFF002001F04BFF772001F048FF4B
:102D2000002001F045FF662001F042FF002001F085
:102D30003FFF882001F03CFF002001F039FF99207F
:102D400001F036FF002001F033FFBB2001F030FF1F
:102D5000002001F02DFF992001F02AFF002001F052
:102D600027FF662001F024FF002001F021FF5520FD
:102D700001F01EFF002001F01BFF552001F018FF9D
:102D8000002001F015FF452001F012FF002001F0A6
:102D90000FFF432001F00CFF002001F009FF442049
:102DA00001F006FF002001F003FFE72001F00CFF17
:102DB000322001F0FDFE002001F0FAFE552001F066
:102DC000F7FE002001F0F4FE762001F0F1FE002075
:102DD00001F0EEFE662001F0EBFE002001F0E8FEBF
:102DE000672001F0E5FE002001F0E2FE672001F01F
:102DF000DFFE002001F0DCFE872001F0D9FE00207C
:102E000001F0D6FE992001F0D3FE002001F0D0FEA3
:102E1000BB2001F0CDFE002001F0CAFE992001F098
:102E2000C7FE002001F0C4FE772001F0C1FE0020A3
:102E300001F0BEFE442001F0BBFE002001F0B8FE10
:102E4000562001F0B5FE002001F0B2FE232001F073
:102E5000AFFE002001F0ACFE332001F0A9FE0020FF
:102E600001F0A6FE452001F0A3FE002001F0A0FE27
:102E7000E82001F0A9FE002001F09AFE002001F0F8
:102E800097FE992001F094FE002001F091FE87202A
:102E900001F08EFE002001F08BFE882001F088FEFC
:102EA000002001F085FE772001F082FE002001F075
:102EB0007FFE662001F07CFE002001F079FE882074
:102EC00001F076FE002001F073FEAA2001F070FEF2
:102ED000002001F06DFEBB2001F06AFE002001F031
:102EE00067FE992001F064FE002001F061FE66207B
:102EF00001F05EFE002001F05BFE552001F058FE5F
:102F0000002001F055FE552001F052FE002001F096
:102F10004FFE442001F04CFE002001F049FE442009
:102F200001F046FE002001F043FE552001F040FE76
:102F3000002001F03DFEE92001F046FEAA2001F04C
:102F400037FE002001F034FE002001F031FE0020A9
:102F500001F02EFE002001F037FEAA2001F028FE2D
:102F6000CF2001F031FE002001F022FE002001F010
:102F70001FFE002001F01CFE002001F019FE0020C1
:102F800001F016FE002001F013FE002001F010FEFB
:102F9000002001F00DFE002001F00AFE002001F0EB
:102FA00007FE002001F004FE002001F001FE0020D9
:102FB00001F0FEFD002001F0FBFD002001F0F8FD16
:102FC000002001F0F5FD002001F0F2FDF02001F0FD
:102FD000FBFD002001F0ECFD502001F0E9FD002098
:102FE00001F0E6FD002001F0E3FD002001F0E0FD2E
:102FF000F32001F0E9FD002001F0DAFDF92001F0F5
:10300000E3FD062001F0D4FD102001F0D1FD2920C0
:1030100001F0CEFD002001F0CBFD3A2001F0D4FDFF
:10302000552001F0C5FD112001F0CEFD6420FEF712
:103030002DFD292001F0C8FD352001F0C5FD00203F
:1030400001F0B6FD512001F0BFFDFF2001F0B0FD01
:10305000532001F0B9FD2C2001F0AAFD552001F00C
:10306000B3FD822001F0A4FDBDE810402C2001F04A
:10307000ABBD2DE9F05F4FF470435521184601F0C8
:10308000B9FD4FF20104AA21204601F0B3FD651CF1
:103090005221284601F0AEFDA61C0821304601F061
:1030A000A9FDE71C0121384601F0A4FD0D214FF4D4
:1030B000304001F09FFD0D214BF2010001F09AFD1F
:1030C0000D214BF2020001F095FD4FF436483421FA
:1030D000404601F08FFD34214BF2016001F08AFD82
:1030E00034214BF2026001F085FD4FF431490D218E
:1030F000484601F07FFD4BF2011A0D21504601F0C8
:1031000079FD0D214BF2021001F074FD4FF4374BA5
:103110003421584601F06EFD34214BF2017001F06C
:1031200069FD34214BF2027001F064FD00214FF47F
:10313000324001F05FFD00214BF2012001F05AFD09
:1031400000214BF2022001F055FD24214FF43840BC
:1031500001F050FD24214BF6010001F04BFD24212C
:103160004BF6020001F046FD01214FF43F4001F013
:1031700041FD0F214FF4334001F03CFD0F214BF294
:10318000013001F037FD0F214BF2023001F032FD2A
:1031900034214FF4394001F02DFD34214BF601105C
:1031A00001F028FD34214BF6021001F023FD082127
:1031B0004FF4354001F01EFD08214BF2015001F0A3
:1031C00019FD08214BF2025001F014FD03214FF4C8
:1031D000424001F00FFD24214FF43A4001F00AFD76
:1031E00024214BF6012001F005FD24214BF602209D
:1031F00001F000FD00214FF43C4001F0FBFC782180
:103200004BF6014001F0F6FC00214BF6024001F0C4
:10321000F1FC00214FF43D4001F0ECFC78214BF62D
:10322000015001F0E7FC00214BF6025001F0E2FCF6
:1032300000214FF43E4001F0DDFC64214BF60160BB
:1032400001F0D8FC00214FF4514001F0D3FC3321B0
:103250004DF2011001F0CEFC00214DF2021001F000
:10326000C9FC34214DF2031001F0C4FC00214DF2E1
:10327000041001F0BFFC3A214DF2051001F0BAFC38
:1032800000214DF2061001F0B5FC4A214DF2071065
:1032900001F0B0FC00214DF2081001F0ABFC5C2104
:1032A0004DF2091001F0A6FC00214DF20A1001F0C8
:1032B000A1FC81214DF20B1001F09CFC00214DF28C
:1032C0000C1001F097FCA6214DF20D1001F092FCBC
:1032D00000214DF20E1001F08DFCE5214DF20F1092
:1032E00001F088FC01214DF2101001F083FC132144
:1032F0004DF2111001F07EFC01214DF2121001F08F
:1033000079FC54214DF2131001F074FC01214DF2AF
:10331000141001F06FFC82214DF2151001F06AFCCF
:1033200001214DF2161001F065FCCA214DF2171073
:1033300001F060FC02214DF2181001F05BFC00214D
:103340004DF2191001F056FC02214DF21A1001F055
:1033500051FC01214DF21B1001F04CFC02214DF2F9
:103360001C1001F047FC34214DF21D1001F042FC0D
:1033700002214DF21E1001F03DFC67214DF21F109D
:1033800001F038FC02214DF2201001F033FC8421C1
:103390004DF2211001F02EFC02214DF2221001F01D
:1033A00029FCA4214DF2231001F024FC02214DF24E
:1033B000241001F01FFCB7214DF2251001F01AFC7A
:1033C00002214DF2261001F015FCCF214DF22710FD
:1033D00001F010FC02214DF2281001F00BFCDE215F
:1033E0004DF2291001F006FC02214DF22A1001F0E5
:1033F00001FCF2214DF22B1001F0FCFB02214DF2F9
:103400002C1001F0F7FBFE214DF22D1001F0F2FB24
:1034100003214DF22E1001F0EDFB10214DF22F1083
:1034200001F0E8FB03214DF2301001F0E3FB332102
:103430004DF2311001F0DEFB03214DF2321001F0AC
:10344000D9FB6D214DF2331001F0D4FB00214FF474
:10345000524001F0CFFB33214DF2012001F0CAFBB5
:1034600000214DF2022001F0C5FB34214DF2032072
:1034700001F0C0FB00214DF2042001F0BBFB3A211A
:103480004DF2052001F0B6FB00214DF2062001F0BF
:10349000B1FB4A214DF2072001F0ACFB00214DF2B7
:1034A000082001F0A7FB5C214DF2092001F0A2FBEE
:1034B00000214DF20A2001F09DFB81214DF20B20ED
:1034C00001F098FB00214DF20C2001F093FBA621A6
:1034D0004DF20D2001F08EFB00214DF20E2001F087
:1034E00089FBE5214DF20F2001F084FB01214DF213
:1034F000102001F07FFB13214DF2112001F07AFB27
:1035000001214DF2122001F075FB54214DF21320E0
:1035100001F070FB01214DF2142001F06BFB8221C0
:103520004DF2152001F066FB01214DF2162001F04D
:1035300061FBCA214DF2172001F05CFB02214DF224
:10354000182001F057FB00214DF2192001F052FB29
:1035500002214DF21A2001F04DFB01214DF21B20FA
:1035600001F048FB02214DF21C2001F043FB342105
:103570004DF21D2001F03EFB02214DF21E2001F014
:1035800039FB67214DF21F2001F034FB02214DF27F
:10359000202001F02FFB84214DF2212001F02AFB95
:1035A00002214DF2222001F025FBA4214DF223201F
:1035B00001F020FB02214DF2242001F01BFBB7217A
:1035C0004DF2252001F016FB02214DF2262001F0DC
:1035D00011FBCF214DF2272001F00CFB02214DF20F
:1035E000282001F007FBDE214DF2292001F002FB2B
:1035F00002214DF22A2001F0FDFAF2214DF22B209A
:1036000001F0F8FA02214DF22C2001F0F3FAFE212C
:103610004DF22D2001F0EEFA03214DF22E2001F0A3
:10362000E9FA10214DF22F2001F0E4FA03214DF2C6
:10363000302001F0DFFA33214DF2312001F0DAFAC7
:1036400003214DF2322001F0D5FA6D214DF23320E5
:1036500001F0D0FA00214FF4534001F0CBFA3321AE
:103660004DF2013001F0C6FA00214DF2023001F0B6
:10367000C1FA34214DF2033001F0BCFA00214DF2C1
:10368000043001F0B7FA3A214DF2053001F0B2FAF8
:1036900000214DF2063001F0ADFA4A214DF207301B
:1036A00001F0A8FA00214DF2083001F0A3FA5C21E4
:1036B0004DF2093001F09EFA00214DF20A3001F07E
:1036C00099FA81214DF20B3001F094FA00214DF26C
:1036D0000C3001F08FFAA6214DF20D3001F08AFA7C
:1036E00000214DF20E3001F085FAE5214DF20F3048
:1036F00001F080FA01214DF2103001F07BFA132124
:103700004DF2113001F076FA01214DF2123001F044
:1037100071FA54214DF2133001F06CFA01214DF28F
:10372000143001F067FA82214DF2153001F062FA8F
:1037300001214DF2163001F05DFACA214DF2173029
:1037400001F058FA02214DF2183001F053FA00212D
:103750004DF2193001F04EFA02214DF21A3001F00B
:1037600049FA01214DF21B3001F044FA02214DF2D9
:103770001C3001F03FFA34214DF21D3001F03AFACD
:1037800002214DF21E3001F035FA67214DF21F3053
:1037900001F030FA02214DF2203001F02BFA8421A1
:1037A0004DF2213001F026FA02214DF2223001F0D3
:1037B00021FAA4214DF2233001F01CFA02214DF22E
:1037C000243001F017FAB7214DF2253001F012FA3A
:1037D00002214DF2263001F00DFACF214DF22730B3
:1037E00001F008FA02214DF2283001F003FADE213F
:1037F0004DF2293001F0FEF902214DF22A3001F09C
:10380000F9F9F2214DF22B3001F0F4F902214DF2D9
:103810002C3001F0EFF9FE214DF22D3001F0EAF9E4
:1038200003214DF22E3001F0E5F910214DF22F3039
:1038300001F0E0F903214DF2303001F0DBF93321E2
:103840004DF2313001F0D6F903214DF2323001F062
:10385000D1F96D214DF2333001F0CCF900214FF454
:10386000544001F0C7F933214DF2014001F0C2F993
:1038700000214DF2024001F0BDF934214DF2034028
:1038800001F0B8F900214DF2044001F0B3F93A21FA
:103890004DF2054001F0AEF900214DF2064001F075
:1038A000A9F94A214DF2074001F0A4F900214DF297
:1038B000084001F09FF95C214DF2094001F09AF9AE
:1038C00000214DF20A4001F095F981214DF20B40A3
:1038D00001F090F900214DF20C4001F08BF9A62186
:1038E0004DF20D4001F086F900214DF20E4001F03D
:1038F00081F9E5214DF20F4001F07CF901214DF2F3
:10390000104001F077F913214DF2114001F072F9E6
:1039100001214DF2124001F06DF954214DF2134096
:1039200001F068F901214DF2144001F063F98221A0
:103930004DF2154001F05EF901214DF2164001F003
:1039400059F9CA214DF2174001F054F902214DF204
:10395000184001F04FF900214DF2194001F04AF9E9
:1039600002214DF21A4001F045F901214DF21B40B0
:1039700001F040F902214DF21C4001F03BF93421E5
:103980004DF21D4001F036F902214DF21E4001F0CA
:1039900031F967214DF21F4001F02CF902214DF25F
:1039A000204001F027F984214DF2214001F022F955
:1039B00002214DF2224001F01DF9A4214DF22340D5
:1039C00001F018F902214DF2244001F013F9B7215A
:1039D0004DF2254001F00EF902214DF2264001F092
:1039E00009F9CF214DF2274001F004F902214DF2EF
:1039F000284001F0FFF8DE214DF2294001F0FAF8ED
:103A000002214DF22A4001F0F5F8F2214DF22B404F
:103A100001F0F0F802214DF22C4001F0EBF8FE210C
:103A20004DF22D4001F0E6F803214DF22E4001F059
:103A3000E1F810214DF22F4001F0DCF803214DF2A6
:103A4000304001F0D7F833214DF2314001F0D2F887
:103A500003214DF2324001F0CDF86D214DF233409B
:103A600001F0C8F800214FF4554001F0C3F83321AC
:103A70004DF2015001F0BEF800214DF2025001F06C
:103A8000B9F834214DF2035001F0B4F800214DF2A1
:103A9000045001F0AFF83A214DF2055001F0AAF8B8
:103AA00000214DF2065001F0A5F84A214DF20750D1
:103AB00001F0A0F800214DF2085001F09BF85C21C4
:103AC0004DF2095001F096F800214DF20A5001F034
:103AD00091F881214DF20B5001F08CF800214DF24C
:103AE0000C5001F087F8A6214DF20D5001F082F83C
:103AF00000214DF20E5001F07DF8E5214DF20F50FE
:103B000001F078F801214DF2105001F073F8132103
:103B10004DF2115001F06EF801214DF2125001F0FA
:103B200069F854214DF2135001F064F801214DF26F
:103B3000145001F05FF882214DF2155001F05AF84F
:103B400001214DF2165001F055F8CA214DF21750DF
:103B500001F050F802214DF2185001F04BF800210D
:103B60004DF2195001F046F802214DF21A5001F0C1
:103B700041F801214DF21B5001F03CF802214DF2B9
:103B80001C5001F037F834214DF21D5001F032F88D
:103B900002214DF21E5001F02DF867214DF21F5009
:103BA00001F028F802214DF2205001F023F8842181
:103BB0004DF2215001F01EF802214DF2225001F089
:103BC00019F8A4214DF2235001F014F802214DF20E
:103BD000245001F00FF8B7214DF2255001F00AF8FA
:103BE00002214DF2265001F005F8CF214DF2275069
:103BF00001F000F802214DF2285000F0FBFFDE2119
:103C00004DF2295000F0F6FF02214DF22A5000F04B
:103C1000F1FFF2214DF22B5000F0ECFF02214DF2AA
:103C20002C5000F0E7FFFE214DF22D5000F0E2FF96
:103C300003214DF22E5000F0DDFF10214DF22F50E8
:103C400000F0D8FF03214DF2305000F0D3FF3321B4
:103C50004DF2315000F0CEFF03214DF2325000F012
:103C6000C9FF6D214DF2335000F0C4FF00214FF425
:103C7000564000F0BFFF33214DF2016000F0BAFF63
:103C800000214DF2026000F0B5FF34214DF20360D7
:103C900000F0B0FF00214DF2046000F0ABFF3A21CC
:103CA0004DF2056000F0A6FF00214DF2066000F025
:103CB000A1FF4A214DF2076000F09CFF00214DF268
:103CC000086000F097FF5C214DF2096000F092FF60
:103CD00000214DF20A6000F08DFF81214DF20B6052
:103CE00000F088FF00214DF20C6000F083FFA62158
:103CF0004DF20D6000F07EFF00214DF20E6000F0ED
:103D000079FFE5214DF20F6000F074FF01214DF2C3
:103D1000106000F06FFF13214DF2116000F06AFF98
:103D200001214DF2126000F065FF54214DF2136045
:103D300000F060FF01214DF2146000F05BFF822172
:103D40004DF2156000F056FF01214DF2166000F0B3
:103D500051FFCA214DF2176000F04CFF02214DF2D5
:103D6000186000F047FF00214DF2196000F042FF9B
:103D700002214DF21A6000F03DFF01214DF21B605F
:103D800000F038FF02214DF21C6000F033FF3421B7
:103D90004DF21D6000F02EFF02214DF21E6000F07A
:103DA00029FF67214DF21F6000F024FF02214DF230
:103DB000206000F01FFF84214DF2216000F01AFF07
:103DC00002214DF2226000F015FFA4214DF2236084
:103DD00000F010FF02214DF2246000F00BFFB7212C
:103DE0004DF2256000F006FF02214DF2266000F042
:103DF00001FFCF214DF2276000F0FCFE02214DF2C1
:103E0000286000F0F7FEDE214DF2296000F0F2FE9E
:103E100002214DF22A6000F0EDFEF2214DF22B60FE
:103E200000F0E8FE02214DF22C6000F0E3FEFE21DE
:103E30004DF22D6000F0DEFE03214DF22E6000F009
:103E4000D9FE10214DF22F6000F0D4FE03214DF277
:103E5000306000F0CFFE33214DF2316000F0CAFE39
:103E600003214DF2326000F0C5FE6D214DF233604A
:103E700000F0C0FE5521184600F0BCFEAA212046E5
:103E800000F0B8FE5221284600F0B4FE082130466A
:103E900000F0B0FE0021384600F0ACFECC214846D0
:103EA00000F0A8FE0021504600F0A4FE0521404687
:103EB00000F0A0FE7021584600F09CFE70214BF2ED
:103EC000017000F097FE01214FF4384000F092FE9F
:103ED00003214BF6010000F08DFE03214BF602009A
:103EE00000F088FE03214BF6030000F083FE022160
:103EF0004FF43C4000F07EFE00214BF6014000F004
:103F000079FE00214BF6024000F074FED0214FF400
:103F1000494000F06FFE02214CF6011000F06AFEED
:103F200050214CF6021000F065FE50214CF60310B3
:103F300000F060FE50214CF6041000F05BFE002102
:103F40004FF4545000F056FE55214FF4685000F0E5
:103F500051FE4FF4885000F037FE7820FDF796FDB3
:103F6000BDE8F05F4FF4245000F02EBE10B5E22003
:103F700000F02AFE1D2000F01BFE022000F018FEBB
:103F8000042000F015FE6420FDF780FDE02000F025
:103F90001BFE012000F00CFE0A20FDF777FDE0205B
:103FA00000F012FE032000F003FE0C20FDF76EFD72
:103FB000012000F009FE0A20FDF768FDE62000F070
:103FC00003FE2F2000F0F4FDFF2000F0F1FDFF20A4
:103FD00000F0EEFDB02000F0F7FD202000F0E8FD3D
:103FE000002000F0E5FD032000F0E2FD40F21F306C
:103FF00000F0DEFD012000F0DBFD40F2DF1000F0FC
:10400000D7FD002000F0D4FDB42000F0DDFD042039
:1040100000F0CEFD40F21F4000F0CAFD002000F08D
:10402000C7FD2E2000F0C4FD002000F0C1FD0020DF
:1040300000F0BEFD002000F0BBFD002000F0B8FD48
:10404000B62000F0C1FD022000F0B2FD4FF4037075
:1040500000F0AEFD002000F0ABFD172000F0A8FD41
:10406000152000F0A5FD002000F0A2FD002000F0CA
:104070009FFDF02000F0A8FD032000F099FD29200D
:1040800000F0A2FDD02000F09FFD002000F090FD88
:10409000BE2000F099FD052000F08AFDFE2000F012
:1040A00087FD012000F084FD002000F081FD00204C
:1040B00000F07EFD002000F07BFDB82000F084FDC4
:1040C000032000F075FD012000F072FDBA2000F021
:1040D0007BFDBDE81040012000F06ABD10B5112045
:1040E00000F072FD7820FDF7D1FC362000F06CFD69
:1040F000002000F05DFD3A2000F066FD052000F094
:1041000057FDB22000F060FD0C2000F051FD0C20A6
:1041100000F04EFD002000F04BFD332000F048FD84
:10412000332000F045FDB72000F04EFD352000F0B3
:104130003FFDBB2000F048FD322000F039FDC020DB
:1041400000F042FD0C2000F033FDC22000F03CFDE9
:10415000012000F02DFDC32000F036FD102000F0FE
:1041600027FDC42000F030FD202000F021FDC620F6
:1041700000F02AFD0F2000F01BFDD02000F024FDF0
:10418000A42000F015FDA12000F012FDE02000F0B9
:104190001BFDD02000F00CFD002000F009FD0220E6
:1041A00000F006FD072000F003FD0A2000F000FDEE
:1041B000282000F0FDFC322000F0FAFC442000F042
:1041C000F7FC422000F0F4FC062000F0F1FC0E2089
:1041D00000F0EEFC122000F0EBFC142000F0E8FCF4
:1041E000172000F0E5FCE12000F0EEFCD02000F00C
:1041F000DFFC002000F0DCFC022000F0D9FC0720EE
:1042000000F0D6FC0A2000F0D3FC282000F0D0FCFF
:10421000312000F0CDFC542000F0CAFC472000F013
:10422000C7FC0E2000F0C4FC1C2000F0C1FC1720CD
:1042300000F0BEFC1B2000F0BBFC1E2000F0B8FC10
:104240002A2000F0C1FC002000F0B2FC002000F0A9
:10425000AFFC002000F0ACFCEF2000F0A9FC2B200C
:1042600000F0B2FC002000F0A3FC002000F0A0FC55
:10427000012000F09DFC3F2000F09AFCBDE81040BA
:10428000292000F0A1BC10B5112000F09DFC782081
:10429000FDF7FCFB362000F097FC482000F088FC7E
:1042A0003A2000F091FC552000F082FCF02000F054
:1042B0008BFCC32000F07CFCF02000F085FC9620F5
:1042C00000F076FCB42000F07FFC012000F070FCD0
:1042D000B62000F079FC0A2000F06AFCA22000F071
:1042E00067FCB72000F070FCC62000F061FCB9202C
:1042F00000F06AFC022000F05BFCE02000F058FCBB
:10430000C02000F061FC802000F052FC162000F07C
:104310004FFCC12000F058FC192000F049FCC220DD
:1043200000F052FCA72000F043FCC52000F04CFC3C
:10433000162000F03DFCE82000F046FC402000F094
:1043400037FC8A2000F034FC002000F031FC002013
:1043500000F02EFC292000F02BFC192000F028FC96
:10436000A52000F025FC332000F022FCE02000F026
:104370002BFCF02000F01CFC072000F019FC0D20A5
:1043800000F016FC042000F013FC052000F010FCE7
:10439000142000F00DFC362000F00AFC542000F040
:1043A00007FC4C2000F004FC382000F001FC132036
:1043B00000F0FEFB142000F0FBFB2E2000F0F8FBC9
:1043C000342000F0F5FBE12000F0FEFBF02000F0CF
:1043D000EFFB102000F0ECFB142000F0E9FB0E20B6
:1043E00000F0E6FB0C2000F0E3FB082000F0E0FB0F
:1043F000352000F0DDFB442000F0DAFB4C2000F01B
:10440000D7FB262000F0D4FB102000F0D1FB1220B7
:1044100000F0CEFB2C2000F0CBFB322000F0C8FBDC
:10442000F02000F0D1FB3C2000F0C2FBF02000F0B7
:10443000CBFB692000F0BCFB7820FDF727FB212097
:1044400000F0C2FBBDE81040292000F0BDBB000019
:104450002DE9F0438146A2EB09020798521C1F4642
:1044600095B20C4686B24FF0D84811E02146484636
:1044700000F062FA00F0B4FB0020414604E000BF07
:10448000A1F88060401C80B2A842F9D3641CA4B299
:10449000BC42EBD9BDE8F08310B5BF2000F094FB1F
:1044A00000F05CF900F05AF9C0B210BD2DE9F05FE0
:1044B0003220FDF7EBFAD32000F086FB00F04EF936
:1044C000A14CA08000F04AF9A08000F047F94FF617
:1044D000FF7101EA0020A08000F040F9A18849F2B4
:1044E00041360843A08047F2897545F2103747F2FC
:1044F000967845F2105949F6060A41F6631BB04218
:104500007DD0042000F060FB00F028F9A08000F0CE
:1045100025F9A08000F022F94FF6FF7101EA002092
:10452000A08000F01BF9A1880843A0F50541A080F8
:10453000523965D0A84262D0D42000F045FB00F08B
:104540000DF9A08000F00AF9A08000F007F94FF6FD
:10455000FF7101EA0020A08000F000F9A188084363
:10456000A080B8427ED0D32000F02EFB00F0F6F8F9
:10457000A08000F0F3F8A08000F0F0F84FF6FF7193
:1045800001EA0020A08000F0E9F8A1880843A0809B
:10459000404567D055214FF4704000F02BFBAA2115
:1045A0004FF2010000F026FB52214FF2020000F012
:1045B00021FB08214FF2030000F01CFB01214FF208
:1045C000040000F017FB4FF4454000F0FDFA00F046
:1045D000C5F84FF6FF7101EA0020A0804CF20150AF
:1045E00000F0F2FA00F0BAF8A1880843A080052094
:1045F000FDF74CFAA188494534D0D32001E02CE0E6
:104600002CE000F0E1FA00F0A9F8A08000F0A6F894
:10461000A08000F0A3F84FF6FF7101EA0020A0800F
:1046200000F09CF8A1880843A08050451AD0A12032
:1046300000F0CAFA00F092F8A08000F08FF84FF670
:10464000FF7101EA0020A08000F088F8A1880843EB
:10465000A0F5AE41A080613902D003E0A58001E061
:10466000A4F804B0A18839A0FCF790FFA088A84264
:1046700002D1FFF733FD1FE0B04202D1FDF7C7FAC8
:104680001AE0B84202D1FDF77AFD15E0404502D1AB
:10469000FFF7F9FD10E0484502D1FEF7EAFC0BE018
:1046A000504502D1FDF7CAFB06E0584504D1FFF79B
:1046B0005DFC642000F054FAA1884FF02040A9422C
:1046C00003D0B14201D0594510D1D0F81C1121F0CE
:1046D0000F01C0F81C11D0F81C1141F00301C0F803
:1046E0001C11D0F81C1141F440711DE0B94205D0F5
:1046F000414503D0494501D0514517D1D0F81C118F
:1047000021F00F01C0F81C11D0F81C1141F002017A
:10471000C0F81C11D0F81C1121F47061C0F81C11F4
:10472000D0F81C1141F40071C0F81C110020FDF7F5
:10473000EDF90122D1030848FCF742F9BDE8F05F2A
:104740004FF6FF70FDF7CAB9C80100204C43442062
:1047500049443A25780D0A000004024008B50220B9
:10476000401EFDD24FF0D840B0F88000ADF80000F8
:10477000BDF8000008BD000070B55F4C0023214665
:10478000A279898841F66316012A01D01AB10CE09A
:10479000B14202D109E0B14207D1082805D2DFE8D1
:1047A00000F0161812140C19100E082812D2DFE8A7
:1047B00000F0110406080A0C0E1080230AE04023C2
:1047C00008E0C02306E0202304E0602302E0A023E9
:1047D00000E0E023362045F21055A94200D1000246
:1047E000A1F51342413A07D0A1F5EE42893A03D030
:1047F000A1F5EE42963A01D143F00803194600F0C4
:10480000F9F9A188B1420AD098062088628802D5B9
:10481000904202D303E0904201D9228060806089F7
:10482000A94240D100F0D0F9002000F0C1F9608920
:10483000401C80B200F0C8F9002000F0B9F960898E
:10484000801C80B200F0C0F92088401EC0F30F2009
:1048500000F0AEF96089C01C80B200F0B5F9207894
:10486000401EC0B200F0A4F9A08900F0ADF900200C
:1048700000F09EF9A089401C80B200F0A5F900204C
:1048800000F096F9A089801C80B200F09DF9608844
:10489000401EC0F30F2000F08BF9A089C01C80B22D
:1048A00000F092F921E000F08FF9002000F080F98B
:1048B000002000F07DF92088401EC0F30F2000F09A
:1048C00077F92078401EC0B200F072F9A08900F09C
:1048D0007BF9002000F06CF9002000F069F9608895
:1048E000401EC0F30F2000F063F9A078BDE87040CF
:1048F000401EC0B200F05CB9C801002010B50446EB
:10490000D12000F061F9FFF729FF400605D4D0203F
:1049100000F05AF9682000F04BF9BE2000F054F97D
:10492000062000F045F9204600F042F9BDE81040AD
:10493000012000F03DB90000F0B53B4A0D460446A9
:10494000060A918810462F0A4089A1F5C853633B97
:1049500016D0A1F5AA43103B4CD000F035F93046F3
:1049600000F026F9E0B200F023F9908900F02CF96C
:10497000384600F01DF9E8B2BDE8F04000F018B983
:10498000917931B300F020F9304600F011F9E0B22E
:1049900000F00EF91088401EC0F30F2000F008F957
:1049A0001078401E5FFA80F000F002F9908900F064
:1049B0000BF9384600F0FCF8E8B200F0F9F850883E
:1049C000401EC0F30F2000F0F3F89078401EC0B2F4
:1049D000D2E71188091B491E8CB200F0F5F80020BF
:1049E00000F0E6F8002000F0E3F8200A00F0E0F81C
:1049F000E0B2D9E700F0E8F8304600F0D9F8508985
:104A0000401C80B200F0E0F8E0B200F0D1F89089EC
:104A100000F0DAF8384600F0CBF89089401C80B2FC
:104A200000F0D2F8A7E70000C80100202DE9FF4FF1
:104A30001D460C468B46580700D0012000EBD500E0
:104A4000690810FB01F0203A00F0FF0AD0B20C2DEB
:104A50000AD0102D0CD0182D0ED0202D46D124496F
:104A600001EB801600203EE000EB4001214806E00B
:104A7000214901EB0016F5E700EBC0011F4800EBF0
:104A80008106EFE716F808704FF00009380601D5E7
:104A90000E9A03E00D9828B919480268214600983B
:104AA000FDF7AAF87806070E1648641CA4B24088E1
:104AB000A0421BD9A4EB0B00A8420AD100985C4687
:104AC000401C80B200900F480188009881420DD9A7
:104AD00006E009F1010000F0FF09B9F1080FD5D394
:104AE00008F10100C0B280465045CBD3BDE8FF8F2E
:104AF000386A000878520008EC560008DC5C0008B0
:104B000028000020C80100202DE9FC4F044600F0D9
:104B1000FF0910190D46DDE90BB61FFA80F8581988
:104B200087B24FF0000A13E0444503D305EB0B00B6
:104B30004C4685B2BD4210D20D985B46CDE900A02F
:104B400029462046FFF772FF04EB5B0084B2761C17
:104B50003278A2F120005E28E6D9BDE8FC8F000083
:104B600010B50246BE2000F02FF8052000F020F816
:104B70001046FBF7DAFB9FED0C1B53EC112BFBF7F8
:104B800062FBFBF7DFFB80B200F012F8012000F0BF
:104B90000FF8FF2000F00CF8002000F009F8BDE845
:104BA0001040002000F004B8666666666666044041
:104BB00001B5BDF80000ADF80000BDF800004FF0F1
:104BC000D841A1F8800008BD01B5BDF80000ADF8DE
:104BD0000000BDF800004FF0D841A1F87E0008BDEC
:104BE00003484FF0D8410089A1F87E0070470000CB
:104BF000C80100204FF0D84222F87E0F5180704744
:104C00000EB5FBF7F1FEFCF7EDFBFCF739FBFCF70B
:104C1000C9FAFCF7C5FBA820FCF732FFFFF746FCFA
:104C2000A0484FF47845A1A105609F488288A2481A
:104C3000FCF7BCFC00224FF48061A048FBF7C0FEEB
:104C4000FF20FFF75BFEFFF727FC9D4C02469DA16E
:104C5000A07099480C30FCF7A9FC00F05BFA00202A
:104C600000F096F9022000F093F9012000F090F98D
:104C700020219AA0CDE900100B46F02202952821B0
:104C80000A20FFF741FF182196A0CDE900100B463E
:104C9000F022029550210A20FFF736FF4FF010084E
:104CA00093A0CDF80080CDE9010546464346F022A9
:104CB0006E210A20FFF728FF7F480096CDE9010505
:104CC0001023F02282210A20FFF71EFF7A48009667
:104CD0000C30CDE901051023F02296210A20FFF7C0
:104CE00013FF87A00096CDE901051023C822AA2151
:104CF0000A20FFF709FF87A00096CDE901051023E0
:104D0000C822BE210A20FFF7FFFE86A00096CDE94B
:104D100001051023C822D2210A20FFF7F5FE1F2526
:104D200085A00096CDE901051023C822E2213C2090
:104D3000FFF7EAFE83A00096CDE901051023C82203
:104D4000F2211E20FFF7E0FE82A00096CDE90105CA
:104D50001023C8224FF481711E20FFF7D5FE81A0D9
:104D60000096CDE901054FF4897A1023C8225146F7
:104D70001E20FFF7C9FE504F4FF4937B4FF01409EC
:104D800017F16807D4E90220904228D04A4879A157
:104D90006830E260FCF70AFCCDF80080CDE90175CF
:104DA00046461023D1224FF49D711E20FFF7ACFE22
:104DB000A06850B10096CDE9010510234FF48C7224
:104DC00059461E20FFF7A0FE09E04FF6FF70009045
:104DD0004FF49473D12259461E20FFF739FB0A2065
:104DE000FBF7D0FB6078401CC0B2B0FBF9F26070FA
:104DF00009FB12000028C5D100F028F90A26B0FBF3
:104E0000F6F1B0FBF6F206FB1103A0802A485DA183
:104E10006830FCF7CBFBCDF80080CDE9017510239D
:104E2000C822F2218E20FFF76FFE012000F00EF95C
:104E3000B0FBF6F1B0FBF6F206FB1103A0801E48B2
:104E400050A16830FCF7B2FBCDF80080CDE90175C8
:104E50001023C8224FF481718E20FFF755FE0220E7
:104E600000F0F4F8B0FBF6F1B0FBF6F206FB11032C
:104E7000A080114843A16830FCF798FBCDF8008072
:104E8000CDE901751023C82251468E20FFF73CFE64
:104E90004FF400710948FBF78BFD4FF49670FBF758
:104EA00071FB6FE724000020C80100204C43442020
:104EB00049443A253034580068000020001402406C
:104EC0000000002063757272656E742062726967FB
:104ED00068746E6573733A253375000053544D330F
:104EE000320000005446544C43442054455354006F
:104EF00041544F4D40414C49454E54454B000000F4
:104F00004B4559303A5352414D206D616C6C6F6383
:104F1000210000004B4559313A5352414D206672F1
:104F2000656521004B4559323A4368616E676520DB
:104F30005352414D21000000205352414D494E2013
:104F4000000000005352414D494E2020205553454A
:104F5000443A00005352414D43434D2020555345A0
:104F6000443A00005352414D4558202020555345A6
:104F7000443A00005020416464723A305825303879
:104F80005800000025642E253031642525000000DE
:104F900030B504460748084D002150F8240042006F
:104FA00005EB8400406900F06FF80120291981F8B1
:104FB000200030BDF88100082C0000202DE9F041D0
:104FC000204E0446002530190F4690F8200010B9F5
:104FD0003168204688474FF0FF3277B31A4B53F8B9
:104FE0002410B7FBF1F0B7FBF1FC01FB1C7101B120
:104FF000401C15490C3951F82410491E20D406EBE9
:105000008406776937F811C0BCF1000F05D0002580
:10501000854213D1002285B208E06D1CF8E700BF7D
:10502000776901EB020C521C27F81C508242F7D31F
:1050300053F824004843BDE8F08101E0491EE1D562
:105040001046F8E72C0000200482000810B50C4B35
:105050000C4C002253F82030114604EB800005E090
:10506000446934F8114004B1521C491C8B42F7D8F2
:105070004FF47A704243B2FBF3F080B210BD0000EF
:10508000F88100082C00002002E000BF00F8011B9E
:10509000521EFBD270470000F0B4002923D0134BFE
:1050A00003EB80029468091B1C1894F8204084B11B
:1050B0000F4B53F820308B4215D90D4B0C3B53F856
:1050C0002000B1FBF0F1506930F8113000200446A7
:1050D00007E01968F0BC084755690E18401C25F810
:1050E00016409842F8DBF0BC704700002C0000200E
:1050F0001082000810B50446FFF760FF411C05D080
:10510000034901EB84018968084410BD002010BDEB
:105110002C0000202DE9F04350488DB00024016898
:1051200041F040010160016801F040010C9101680B
:1051300041F008010160016801F008010C9101686B
:1051400041F008010160016801F008010C91434938
:1051500008310A6842F001020A60096801F00101A1
:105160000C91016841F008010160016801F008013B
:105170000C91016841F010010160016801F010011B
:105180000C91016841F020010160016801F02001EB
:105190000C91016841F0400101600068022500F0B7
:1051A00040000C904FF4806001278DE8A1000C2096
:1051B000CDE90350DFF8A89069464846FBF702FBAB
:1051C0002020DFF8A080009069464046FBF7FAFAFD
:1051D0001026694640460096FBF7F4FA4FF6037036
:1051E0008DE8A100694640460395FBF7EBFA4FF6C0
:1051F0008370009069461C48FBF7E4FA4FF23F00C9
:10520000009069461948FBF7DDFA3F200090694697
:105210004846FBF7D7FA16484FF0204105AA01602F
:10522000144941600421C0E90214C0E904468461C4
:105230008902C461C0E90941C462046344638463B0
:105240000820CDE9064005950894114608480B94BE
:10525000FBF7FEFE0DB0BDE8F083000030380240E1
:1052600000180240000C02400010024000140240EE
:10527000E4000020040100A0000000000000000085
:1052800000000000000000003F400000000000009F
:1052900000003000400030004000000009000BC05A
:1052A0003D000BC03D00090018C024407FE02240B3
:1052B00031800000180024C01B000D8032400180A6
:1052C00003801C4027401C80074000401000600005
:1052D00000000000000000000000000000001F802F
:1052E000204040200000402020401F80000000009F
:1052F000090006001F8006000900000004000400E9
:105300003F80040004000000001000600000000066
:105310000000000004000400040004000400000079
:10532000000000400000000000000000002001C05C
:1053300006003800400000001F8020402040204030
:105340001F800000000010403FC00040000000002F
:1053500018C0214022402440184000001080204006
:10536000244024401B80000002000D0011003FC0BB
:10537000014000003C802440244024402380000061
:105380001F8024402440344003800000300020006F
:1053900027C03800200000001B8024402440244007
:1053A0001B8000001C0022C0224022401F80000001
:1053B00000000000084000000000000000000000A5
:1053C0000460000000000000000004000A0011005A
:1053D0002080404009000900090009000900000080
:1053E00000004040208011000A0004001800200046
:1053F00023402400180000001F802040274029403F
:105400001F400000004007C039000F0001C00040ED
:1054100020403FC0244024401B8000001F802040CB
:10542000204020403080000020403FC020402040ED
:105430001F80000020403FC024402E4030C00000AC
:1054400020403FC024402E00300000000F0010809C
:10545000204022403380020020403FC0040004006E
:105460003FC02040204020403FC02040204000005E
:105470000060202020203FC02000200020403FC0AE
:1054800024400B0030C0204020403FC0204000405E
:10549000004000C03FC03C0003C03C003FC00000D3
:1054A00020403FC00C4023003FC020001F80204010
:1054B000204020401F80000020403FC024402400A6
:1054C000180000001F802140214020E01FA00000A4
:1054D00020403FC02440260019C0004018C024408E
:1054E0002440224031800000300020403FC0204056
:1054F0003000000020003F80004000403F8020003E
:1055000020003E0001C0070038002000380007C01E
:105510003C0007C038000000204039C0060039C0F8
:10552000204000002000384007C038402000000024
:10553000304021C02640384020C00000000000005C
:105540007FE0402040200000000070000C0003803D
:10555000004000000000402040207FE000000000EC
:10556000000020004000200000000000001000109B
:1055700000100010001000100000000040000000AB
:1055800000000000000002800540054003C000400C
:1055900020003FC00440044003800000000003805E
:1055A0000440044006400000000003800440244002
:1055B0003FC000400000038005400540034000005C
:1055C000000004401FC0244024402000000002E0EE
:1055D000055005500650042020403FC00440040000
:1055E00003C000400000044027C00040000000004D
:1055F00000100010041027E00000000020403FC011
:105600000140070004C00440204020403FC000404B
:105610000040000007C0040007C0040003C00000F1
:10562000044007C00440040003C0004000000380A1
:105630000440044003800000041007F004500440BC
:1056400003800000000003800440045007F00010B5
:10565000044007C0024004000400000000000640AF
:105660000540054004C00000000004001F80044005
:1056700000400000040007800040044007C00040D4
:105680000400070004C0018006000400060001C0F9
:10569000070001C006000000044006C0010006C06B
:1056A000044000000410071004E00180060004001C
:1056B0000000044005C00640044000000000000057
:1056C00004007BE040200000000000000000FFF02C
:1056D00000000000000040207BE00400000000000B
:1056E000400080004000200020004000000000003A
:1056F00000000000000000000000000000000000AA
:1057000000001FCC000C000000000000000008009A
:10571000300060000800300060000000022003FC40
:105720001E20022003FC1E200220000000000E1894
:1057300011043FFF10840C78000000000F0010845B
:105740000F3800C0077818840078000000780F84B4
:1057500010C411240E9800E40084000808006800BA
:1057600070000000000000000000000000000000C9
:10577000000007E01818200440020000000040026A
:105780002004181807E0000000000000024002405A
:1057900001800FF001800240024000000080008084
:1057A00000800FF800800080008000000001000DE4
:1057B000000E00000000000000000000000000805B
:1057C0000080008000800080008000800000000CCD
:1057D000000C0000000000000000000000000006B7
:1057E000001800600180060018002000000007F08B
:1057F000080810041004080807F00000000008045E
:1058000008041FFC000400040000000000000E0C4F
:1058100010141024104411840E0C000000000C1809
:1058200010041104110412880C700000000000E044
:105830000320042408241FFC0024000000001F98FB
:10584000108411041104108810700000000007F08B
:1058500008881104110418880070000000001C0062
:10586000100010FC13001C001000000000000E3897
:1058700011441084108411440E3800000000070009
:10588000088C10441044088807F000000000000055
:105890000000030C030C00000000000000000000EA
:1058A0000001010600000000000000000000008070
:1058B0000140022004100808100400000220022009
:1058C000022002200220022002200000000010041A
:1058D00008080410022001400080000000000E00B3
:1058E0001200100C106C10800F00000003E00C1868
:1058F00013E4142417C4082807D000000004003C57
:1059000003C41C40074000E4001C000410041FFCFA
:105910001104110411040E880070000003E00C183B
:1059200010041004100410081C10000010041FFCC8
:10593000100410041004080807F0000010041FFCF5
:105940001104110417C410040818000010041FFCEF
:105950001104110017C010000800000003E00C182B
:105960001004100410441C780040000010041FFCB8
:1059700010840080008010841FFC100400001004BC
:1059800010041FFC100410040000000000030001BC
:10599000100110011FFE10001000000010041FFC79
:1059A000110403801464181C1004000010041FFC70
:1059B0001004000400040004000C000010041FFC8C
:1059C0001F0000FC1F001FFC1004000010041FFC3F
:1059D0000C04030000E010181FFC100007F008087A
:1059E000100410041004080807F0000010041FFC45
:1059F00010841080108010800F00000007F008183D
:105A000010241024101C080A07F2000010041FFCC8
:105A10001104110011C011300E0C000400000E1C06
:105A200011041084108410441C3800001800100069
:105A300010041FFC100410001800000010001FF8D4
:105A400010040004000410041FF8100010001E00D1
:105A500011E0001C007013801C0010001FC0103CDF
:105A600000E01F0000E0103C1FC000001004180CF4
:105A7000163401C001C01634180C100410001C00AC
:105A8000130400FC13041C00100000000804101C88
:105A90001064108413041C0410180000000000009F
:105AA00000007FFE40024002400200000000300083
:105AB0000C0003800060001C000300000000400296
:105AC000400240027FFE00000000000000000000D5
:105AD00020004000400040002000000000010001C4
