:020000040800F2
:10000000800500209D0100082B1F0008D118000862
:10001000291F0008E1070008D9200008000000009F
:100020000000000000000000000000002F1F00087A
:10003000E3070008000000002D1F0008311F000822
:10004000B7010008B7010008B7010008B7010008B0
:10005000B7010008B7010008B7010008B7010008A0
:10006000B7010008B7010008B7010008B701000890
:10007000B7010008B7010008B7010008B701000880
:10008000B7010008B7010008B7010008B701000870
:10009000B7010008B7010008B7010008B701000860
:1000A000B7010008B7010008B7010008B701000850
:1000B000B7010008B7010008B7010008B701000840
:1000C000B7010008B7010008B7010008B701000830
:1000D000B7010008B7010008B7010008B701000820
:1000E000B7010008B7010008B7010008B701000810
:1000F000B7010008B7010008B7010008B701000800
:10010000B7010008B7010008B7010008B7010008EF
:10011000B7010008B7010008B7010008B7010008DF
:10012000B7010008B7010008B7010008B7010008CF
:10013000B7010008B7010008B7010008B7010008BF
:10014000B7010008B7010008B7010008B7010008AF
:10015000B7010008B7010008B7010008B70100089F
:10016000B7010008B7010008B7010008B70100088F
:10017000B7010008B7010008B7010008000000003F
:10018000B7010008B7010008DFF80CD000F004FB4D
:10019000004800472969000880050020064880477C
:1001A00006480047FEE7FEE7FEE7FEE7FEE7FEE75C
:1001B000FEE7FEE7FEE7FEE7BD1F00088901000835
:1001C0002DE9F05F0546002092469B46884606468C
:1001D000814640241BE0284641464746224600F01F
:1001E000AEF953465A46C01A914110D311461846EB
:1001F000224600F095F92D1A67EB01084F4622467A
:100200000120002100F08CF917EB00094E41201E5F
:10021000A4F10104DFDC484631462A464346BDE8E6
:10022000F09FD2B201E000F8012B491EFBD27047CB
:100230000022F6E710B513460A4604461946FFF7B2
:10024000F0FF204610BD10B5002200E0521C835C78
:100250008C5CA34201D1002BF8D1D8B2E1B2401A94
:1002600010BD2DE9FE4F81EA030404F0004421F0A3
:10027000004100944FF0000B23F0004350EA0104CA
:100280005ED052EA03045BD0C3F30A54C1F30A55AB
:100290002C44A4F2F3340194A0FB0254C1F31301E3
:1002A00041F48011C3F3130343F4801301FB0244B0
:1002B00000FB034E840A970A44EA815447EA8357B5
:1002C000A4FB076802958D0A05FB07854FEA932C6E
:1002D00004FB0C542705029D4FEA065847EA1637DF
:1002E000B5EB08056EEB070C870E920E47EA8117F7
:1002F00042EA8312A7FB0201B6EB0B0164EB000498
:100300002B0D43EA0C335E1844EB1C50DA46514681
:10031000E7FB0201C5F313044FEA0B3343EA14531E
:100320004FEA0432019C43EA0603A4F10C04029450
:10033000009CCDE900B400F021F903B0BDE8F08FD6
:1003400000200146F9E72DE9F04D81EA030404F0AD
:10035000004B21F0004514464FF0000A23F0004105
:1003600050EA050220D054EA01021DD0C5F30A5715
:100370000246C5F31303C1F31300C1F30A5640F458
:10038000801543F48013A7EB0608101BD64608F22D
:10039000FD3873EB050002D308F1010801E0921863
:1003A0005B41B8F1000F03DA00200146BDE8F08D93
:1003B00000204FF48011064684460EE0171B73EBB5
:1003C000050705D3121B63EB050306434CEA010C3A
:1003D00049084FEA300092185B4150EA0107EDD11D
:1003E00052EA030012D082EA040083EA05010843BE
:1003F00005D0101BAB4106D20122002306E00022EB
:100400004FF0004302E06FF0010253101AEB0600B8
:100410004CEB085110EB0A0041EB0B01BDE8F04D2D
:1004200000F09DB80EB5C10F80EAE0700844CA071D
:10043000002140F233438DE80E000A460B4600F0DF
:100440009DF803B000BD0EB540F23341029100218A
:10045000CDE900110A460B4600F090F803B000BD4C
:10046000C1F30A5210B5C1F3130140F2FF3341F456
:1004700080119A4201DA002010BD40F233439A42C3
:10048000A2F2334203DC524200F059F810BD904012
:1004900010BD000030B5041E71F1000404DB4FF004
:1004A0000044404264EB0101141E73F1000405DBBB
:1004B0001C464FF00043524263EB04038B4208BFDB
:1004C000824230BD30B5041E71F1000404DB4FF0F0
:1004D0000044404264EB0101141E73F1000405DB8B
:1004E0001C464FF00043524263EB0403994208BF9D
:1004F000904230BD30B50B46014600202022012439
:1005000009E021FA02F59D4205D303FA02F5491BE1
:1005100004FA02F52844151EA2F10102F1DC30BDF7
:10052000202A04DB203A00FA02F1002070479140B3
:10053000C2F1200320FA03F3194390407047202AA8
:1005400004DB203A21FA02F00021704721FA02F37D
:10055000D040C2F12002914008431946704710B5BF
:10056000141E73F1000408DA401C41F100019218D6
:100570005B411A4301D120F0010010BD2DE9F04D7F
:1005800092469B4611B1B1FA81F202E0B0FA80F2D4
:1005900020329046FFF7C4FF04460F4640EA0A00A7
:1005A00041EA0B0153465A46084313D0114653EA19
:1005B000010019D0C8F140025046FFF7C0FF0546C0
:1005C0000E46504659464246FFF7AAFF084305D05B
:1005D000012004E020463946BDE8F08D00200543A7
:1005E00046EAE0762C4337430A986305E40AA0EB19
:1005F00008000022FD0A44EA47540A3002D50020D0
:100600000146E9E7010510196941DDE908450019CE
:100610006941BDE8F04DA2E72DE9FE4F804681EA31
:100620000300C00F0C46009021F0004123F000456C
:10063000B8EB0200A94105D24046214690461C462F
:100640000B46024623F00040104347D0270DC7F366
:100650000A00C3F30A510290401A019040286BDA55
:10066000C3F3130040F4801B0098924620B100238E
:10067000D2EB030A63EB0B0B01985946C0F1400221
:100680005046FFF74DFF06460D4650465946019A23
:1006900000F094F810EB08006141002487EA115241
:1006A00084EAE7731A4340D0009A62B3019A012AA0
:1006B0004FEA075215DC001B61EB02014FF00042CC
:1006C00002EA0752CDE90042001C41F58011324692
:1006D0002B46FFF753FF03B0BDE8F08F404621469D
:1006E000F9E7001B61EB0201001C41F580130018C3
:1006F0005B412018A2F5001747EB030140EAD570D3
:10070000B6196D4111E06D084FEA360645EAC0752D
:100710004FEA0752001B61EB0201001C41F58011FA
:1007200049084FEA30000019514132462B4603B0C8
:10073000BDE8F04FFFF713BF0098012240000023EF
:10074000D0EB020263EBE073009821464FEAE074BD
:10075000B8EB000061EB0401E9E783F000435BE7DD
:1007600081F0004158E7C1F30A52C1F3130140F28E
:10077000FF3341F480119A4202DA002001467047AB
:1007800040F233439A42A2F2334202DC5242FFF774
:10079000D6BEFFF7C5BE0000064C074D06E0E06878
:1007A00040F0010394E8070098471034AC42F6D3B8
:1007B000FFF7EEFC84A40008A4A40008202A06DBAE
:1007C000CB17203A41FA02F043EAE07306E041FA1F
:1007D00002F3D040C2F1200291400843194670470D
:1007E000FEE77047FEB514460D4607466426CDE980
:1007F000005401233A46A1210348029600F0C8FAAA
:100800000028F4D1FEBD0000E40000202DE9FE43E5
:10081000642614460D46804601270FE0CDE90057B7
:1008200001234246A0210848029600F0ADFB0028B3
:10083000F4D108F101001FFA80F86D1C641EA4B207
:10084000ECD2BDE8FE830000E40000207047000009
:1008500070B5B3F5804F05D06FF0704140F82210AD
:10086000002070BD50F82240084B8E891C40D1E911
:10087000003543EA05138D6889692D0245EA06456E
:100880002B430B43234340F82230E9E70000F0CF2D
:10089000F0B50C6850F82430114A1340D1E9012515
:1008A000D1E903672A433E4332434E6932438E699E
:1008B0003243CE6932430E6A32434E6A32438E6A05
:1008C0003243CE6A3243CE6B096B32430A431A433A
:1008D000082D01D142F0400240F824200020F0BD54
:1008E0008000F0FF30B500EB820250688D8900F087
:1008F0004043D1E9000440EA04108C68240244EA31
:10090000054420430C8A074D05EB045420430C7D1D
:100910006D0105EB04648969204308431843506066
:10092000002030BD0000F0FF80B202F033BA0000BA
:100930002DE9F04387B014216846FFF779FC25487C
:100940000168002943D101270760234888460168D0
:1009500041F00101016000684FF4805900F001008E
:100960000C26CDF80090CDE9046003250224039500
:10097000CDE901476946194800F038F84FF6807014
:100980008DE81101CDE903566946154800F02EF8AF
:100990004CF203708DE81101DFF84880CDE9035671
:1009A0006946404600F022F830208DE89100CDE9FC
:1009B00003566946404600F019F8CDF80090CDE99D
:1009C0000147CDE903566946074800F00FF807B024
:1009D000BDE8F0835C00002038380240001402407B
:1009E00000100240000C0240001802402DE9F84FB0
:1009F000DFF8B8A1002201250AF1040B03264FF00D
:100A00000F090BF1040E00BF0B6805FA02F4234036
:100A1000A3426FD10F7907F00307012F01D0022FF6
:100A200016D187684FEA420806FA08FC27EA0C0745
:100A3000D1F80CC00CFA08FC4CEA070CC0F808C04E
:100A40004768A7430C79C4F3001494403C434460C6
:100A50000C79E443A4070AD0C4684FEA420C06FAB2
:100A60000CF7BC438F6807FA0CF72743C7600C7973
:100A700004F00304022C12D1D40800EB840CDCF83F
:100A800020405707FF0E09FA07F824EA0804D1F8B6
:100A9000108008FA07F848EA0408CCF820800468B7
:100AA0004FEA420C06FA0CF7BC430F7907F0030734
:100AB00007FA0CF7274307604C68E40070D53C4CFC
:100AC000276847F480472760246822F0030704F46E
:100AD00080440094374C07EB040CDCF80848970777
:100AE0004FEA177809FA08F7BC43334FB84202D1EE
:100AF000002724E054E0314FB84201D101271EE025
:100B00002F4FB84201D1022719E02E4FB84201D130
:100B1000032714E02C4FB84201D104270FE02B4FDC
:100B2000B84201D105270AE0294FB84201D1062772
:100B300005E0284FB84201D1072700E0082707FA4F
:100B400008F72743CCF80878DAF800405746D1F880
:100B500004C09C435FEACC3C00D51C433C60DBF8FE
:100B600000405F46D1F804C09C435FEA8C3C00D54E
:100B70001C433C60DEF800407746D1F804C09C433B
:100B80005FEACC2C00D51C433C60084F0C373C6816
:100B9000D1F804C09C435FEA8C2C00D51C433C6018
:100BA000521C102AFFF430AFBDE8F88F003C014022
:100BB000443802400030014000000240000402407E
:100BC00000080240000C02400010024000140240E5
:100BD00000180240001C02400069084000D00120BB
:100BE0007047426921EA02030A4043EA02418161F7
:100BF00070470AB1816170470904FBE701488068CA
:100C0000704700006400002070B5040025D094F8FF
:100C10003D00002520B984F83C50204600F04CFAF5
:100C2000242084F83D002068016821F00101016062
:100C30002068016841F4004101602068016821F4E6
:100C40000041016000F096FB4D4A6168914201D875
:100C50004C4900E04C49884201D2012070BD4B490B
:100C60002368B0FBF1F15E6826F03F060E435E603C
:100C70006368934206D94FF4967359434FF47A73DD
:100C8000B1FBF3F12368491C1E6A26F03F0631438D
:100C900019626168914210D84900401EB0FBF1F220
:100CA000521CC2F30B02042A01D2042022E0B0FB42
:100CB000F1F0401CC0F30B001CE0A268F2B301EBA2
:100CC000C10303EB0116431EB3FBF6F35B1C43F4B5
:100CD00080431B0549D092B301EBC10202EB011125
:100CE000401EB0FBF1F0401CC0F30B0040F480400C
:100CF00040F400402168CA694CF6FF739A431043E0
:100D0000C861D4E9071001432068026822F0C002DC
:100D100011430160D4E9030101432068826848F26D
:100D2000FF339A4311438160D4E9050108432168E8
:100D3000CA6822F0FF021043C86001E00EE016E02E
:100D40002068016841F0010101602564202084F8D9
:100D50003D00256384F83E50002070BD01EB410644
:100D6000431EB3FBF6F35B1CB3E70120C2E701EBC4
:100D70004101401EB0FBF1F0401CC0F30B00B7E78F
:100D8000A086010080841E0000093D0040420F0043
:100D90002DE9FF4F83B09A46DDE91197934604464B
:100DA000DDF84080FFF72AFF054694F83D00202833
:100DB00070D11923012271492046009500F098FE58
:100DC0000028F5D194F83C00012863D0012084F874
:100DD0003C0020680168C90703D1016841F00101A6
:100DE00001602068016821F400610160222084F81C
:100DF0003D00402084F83E0000262664C4F824808C
:100E0000A4F82A90608D20855D48E062CDE90075E8
:100E100053465A462046049900F072FD00287CD1C2
:100E2000208DD0B1012821D00228206824D041692A
:100E300080690090208D032869D801282BD0514962
:100E400002283B464FF00002009559D088462046C4
:100E500000F04EFE002860D13CE0206841698169C5
:100E60000091016841F40071016077E02068016839
:100E700021F480610160F0E7016821F48061016084
:100E80002068016841F4006101602068416980695F
:100E9000009063E06FE02A463946204600F0A7FE46
:100EA00098BB20680069616A08704EE0206801689C
:100EB00041F40071016020680069616A0870606A2D
:100EC000401C6062218D491E2185618D491E61850E
:100ED000216838E02068016821F4806101602068A1
:100EE0000069616A0870606A401C6062208D401E63
:100EF0002085608D401E60853B460022414600955E
:100F0000204600F0F5FD00B9D0E706E0FFE72A46ED
:100F10003946204600F06BFE18B1012007B0BDE84D
:100F2000F08F20680069616A0870606A401C606226
:100F3000218D491E2185618D491E618521684A697F
:100F4000D24352070AD409690170606A401C60628A
:100F5000208D401E2085608D401E6085208D0028DC
:100F60007FF468AF202084F83D0084F83E6084F868
:100F70003C600020D2E70220D0E700000200100011
:100F80000000FFFF040001002DE9FF4F83B09A46E7
:100F9000DDE9119793460446DDF84080FFF72EFE09
:100FA000054694F83D0020287FD1192301224049AD
:100FB0002046009500F09CFD002876D194F83C0076
:100FC000012872D0012084F83C0020680168C9071C
:100FD00003D1016841F0010101602068016821F43A
:100FE00000610160212084F83D00402084F83E002B
:100FF00000262664C4F82480A4F82A90608D2085F9
:101000002C48E062CDE9007553465A4620460499C3
:1010100000F0F4FC70B930E02A463946204600F072
:1010200019FE58B1206C042804D12068016841F4ED
:1010300000710160012007B0BDE8F08F606A21688F
:1010400000780861606A401C6062218D491E89B287
:101050002185628D521E628522685369DB435B07DE
:101060000BD469B100781061606A401C6062208D09
:10107000401E2085608D401E6085208D0028CBD1CC
:101080002A463946204600F00DFD0028CAD154F802
:101090003D0B016841F400710160202004F81E0935
:1010A000E67766770020C6E7FFE70220C3E7000087
:1010B000020010000000FFFF10B586B004461421A6
:1010C0006846FFF7B5F814492068884221D11348D3
:1010D000016841F0020101600068694600F0020009
:1010E00005904FF440700090122001900120029072
:1010F00003200390042004900948FFF777FC074879
:101100001030016841F400110160006800F4001023
:10111000059006B010BD0000005400403038024079
:1011200000040240024881680278114481607047DF
:10113000640000200B4810B5016841F400710160A3
:10114000016841F480610160016841F480710160CF
:10115000032000F063F8002000F006F800F024F807
:10116000002010BD003C024070B50D4D04464FF408
:101170007A712878B1FBF0F00A490968B1FBF0F008
:1011800000F02BFB48B9102C07D200222146501E3C
:1011900000F024F800206C6070BD012070BD0000DC
:1011A00064000020700000200B4882B0016841F408
:1011B00080410160006800F4804000900648001FF4
:1011C000016841F080510160006800F0805000909B
:1011D000052002B000F022B844380240F0B40E4BB3
:1011E0001B680C46C3F30223C3F10705042D00D985
:1011F0000425191D072901D2002300E0DB1E01266A
:1012000006FA05F1491E214099409E40761E16407F
:101210003143F0BC00F086BF0CED00E0064900F061
:10122000070208684FF6FF03184040EA0220034A0D
:1012300010430860704700000CED00E00000FA0564
:101240002DE9F0470E46050065D0DFF81481D8F887
:101250000000F7B200F00700B04207D288F8007033
:10126000D8F8000000F00700B04254D128683D4C87
:10127000810712D5400703D5206840F4E050206074
:101280002878000703D5206840F46040206020687B
:10129000A96820F0F000084320602878C0072DD00E
:1012A000304968680839012812D0022813D0032871
:1012B00011D00968890700292DDA216821F003017E
:1012C00001432160FFF79AFC814641F2883A0EE023
:1012D00009688903EFE709688901ECE7FFF78EFCED
:1012E000A0EB0901514502D90320BDE8F087206831
:1012F000696800F00C00B0EB810FEFD1D8F8001056
:10130000404601F00701B14207D90770006800F0BC
:101310000700B04201D00120E7E72878400705D553
:101320002068E96820F4E05008432060287800072E
:1013300006D52068296920F4604040EAC100206099
:1013400000F038F82168084AC1F30311515CC84025
:101350000649086006480068FFF706FF0020C4E75A
:10136000003C024008380240F0A300087000002052
:10137000680000200448054900680968044AC1F370
:101380008221515CC840704770000020083802403C
:1013900000A400080448054900680968044AC1F32C
:1013A0004231515CC840704770000020083802404C
:1013B00000A40008154810B5006810F00C0214488D
:1013C00013D04110042A0FD0082A0ED10F4C241F2D
:1013D0002268236802F03F025B0207D52068C0F351
:1013E0008810A0FB010106E0084610BD2168C1F38A
:1013F0008811A1FB00010023FEF7E2FE2168C1F382
:101400000141491C4900B0FBF1F010BD0838024011
:101410000024F4002DE9F84F04006ED02078DFF8A6
:101420004C93C007A9F104054AD009F104000168F2
:10143000C1F38101012908D00068C0F381000228AE
:101440000AD1D9F80000400206D52868800337D5B4
:1014500060680028E1D033E06068B0F5803F10D0CC
:10146000B0F5A02F286810D020F4803028602868BC
:1014700020F4802028606068A8B1FFF7BFFB064613
:101480000DE0286840F48030F4E740F480202860C4
:10149000F7E700BFFFF7B2FB801B642873D828680A
:1014A0008003F7D50CE0FFF7A9FB064605E000BF77
:1014B000FFF7A4FB801B6428F0D828688003F7D4CA
:1014C0002078DFF8AC8280074FF0000A3ED5A748AD
:1014D000001D016811F00C0F08D00068C0F38100F6
:1014E00002280BD1D9F80000400207D428688007F1
:1014F00016D5E068012800D112E033E1E068B8B108
:101500000120C8F80000FFF779FB064605E000BFA0
:10151000FFF774FB801B0228C0D828688007F7D526
:101520002868216920F0F80040EAC10028600DE039
:10153000C8F800A0FFF762FB064604E0FFF75EFB79
:10154000801B02281FD828688007F7D4207800075E
:1015500022D5864F87486169703771B101210160DA
:10156000FFF74CFB064604E0FFF748FB801B022810
:1015700009D838688007F7D50EE0C0F800A0FFF75B
:101580003DFB064605E082E0FFF738FB801B0228A2
:101590007DD838688007F7D42078400768D5DFF811
:1015A000CCB100270BF13C0BDBF80000C0000BD4E2
:1015B000DBF8001041F08051CBF80010DBF80000A0
:1015C000012700F0805000906B4E3068C00510D4A9
:1015D000306840F480703060FFF710FB009005E049
:1015E000FFF70CFB0099401A022850D83068C0055C
:1015F000F6D55E4EA0686C3601280FD005283068FD
:1016000010D020F001003060306820F0040030601D
:10161000A068B8B1FFF7F2FA00900FE0306840F030
:101620000100F4E740F004003060F7E7FFF7E6FA66
:101630000099411A41F28830814266D830688007AB
:10164000F4D50EE0FFF7DAFA009007E0FFF7D6FADC
:101650000099411A41F28830814256D8306880079B
:10166000F4D42FB1DBF8001021F08051CBF800103A
:10167000A069C8B33D49091D0968C1F38101022968
:101680004AD00228504607D0C8F8600000E03CE08D
:10169000FFF7B4FA04463BE04746C8F86000FFF79E
:1016A000ADFA064605E000BFFFF7A8FA801B022846
:1016B0002BD828688001F7D4D4E907010843A16A30
:1016C0002E4A490802EB0141626A41EA821108434D
:1016D00094F82C1040EA0161C9F800100120386626
:1016E000FFF78CFA044606E03EE000BFFFF786FAFB
:1016F000001B022809D828688001F7D534E000BF14
:10170000FFF77CFA001B022802D90320BDE8F88FFE
:1017100028688001F4D427E00128F7D0D9F8000028
:10172000E26900F4800191421CD1226A00F03F017D
:10173000914217D147F6C071626A0140B1EB821F36
:1017400010D1A26A4FF0FF3300F4403103EB520294
:10175000B1EB024F06D194F82C1000F07060B0EBA2
:10176000016F01D00120D1E70020CFE7043802400B
:1017700000004742800E4742007000400000FFFF1B
:1017800070B515460E46040003D094F8490010B118
:1017900007E0012070BD002084F84800204600F0DA
:1017A0001AF804F108012068FFF772F83146A268C0
:1017B0002068FFF797F8D4E901022946236BFFF769
:1017C00047F8A168206850F8212042F0010240F853
:1017D0002120002070BDFFF7ABB810B5401EB0F15E
:1017E000807F01D3012010BD4FF0E02460610F2104
:1017F000601700F097FC0020A06107202061002006
:1018000010BD70B5040004D094F83D00002510B15F
:1018100006E0012070BD84F83C50204600F022F81C
:10182000242084F83D002068C16821F40051C16083
:10183000204600F0CBFB2068016921F49041016152
:101840002068416921F02A0141612068C16841F4A2
:101850000051C1602564202084F83D0084F83E00DA
:10186000002070BD10B586B0044614216846FEF70E
:10187000DFFC14492068884221D11348016841F0F7
:1018800010010160006800F0100005900E48143847
:10189000016841F0010101600068694600F0010043
:1018A00005904FF4C060009002200190012002904A
:1018B00003200390072004900448FFF797F806B030
:1018C00010BD0000001001404438024000000240FA
:1018D000FEE701684A69D24352050FD46FF4806273
:1018E0004A61002140F8301F20224273817302694F
:1018F00042F004020261017301207047002070472A
:101900002DE9F84F0446006889460B9D016898460A
:10191000174641F4806101602068016841F48071DC
:10192000016000954FF0011B0022594620460A9B9A
:1019300000F0DEF84FF4007A40B120680068C0057E
:1019400001D5C4F840A00320BDE8F88F216809F054
:10195000FE0008612B46284920460A9A00F0FCF850
:10196000F0BB20684169806900902A4620460A99A8
:1019700000F070F940B1206C04283AD12068016869
:1019800041F40071016034E0FEB2B8F1010F09D0FA
:101990002168380A08612A4620460A9900F05AF957
:1019A0000028E8D1206806612A4620460A9900F0FE
:1019B00051F90028DFD12068016841F4807101608D
:1019C00000950022594620460A9B00F091F8002815
:1019D000B3D1216809F0FF0040F00100086100E088
:1019E00007E02B46044920460A9A00F0B5F8002883
:1019F000AAD00120A8E70000020001002DE9F84369
:101A0000044600680D46DDE90897016898461646C9
:101A100041F4807101604B4600224FF001112046D5
:101A2000009700F065F848B120680068C00502D54D
:101A30004FF4007020640320BDE8F883216805F0AE
:101A4000FE0008613B464A461549204600F084F8EE
:101A500088B920684169806900903A464946204625
:101A600000F0F8F848B1206C042804D1206801681F
:101A700041F4007101600120DEE7F5B2B8F1010F19
:101A800009D02168300A08613A464946204600F0EC
:101A9000E1F80028E7D1206805610020CCE70000CC
:101AA0000200010070B516460D4604460DE02046C2
:101AB000FFF70FFF08B1012070BD681C05D0FFF7CC
:101AC0009DF8801BA84207D835B120684069C04303
:101AD0004007ECD4002070BD002044F8300F2021D6
:101AE0006173A073216941F0200121612073E2E755
:101AF0002DE9F0471E4690460D460446C1F30747C0
:101B0000DDF8209008E0701C06D0FFF777F8A0EB16
:101B10000900B0420FD876B12068012F18D0806933
:101B200025EA00000004000C14D000214145EAD051
:101B30000020BDE8F087002044F8300F20216173B9
:101B4000A073216941F02001216120730120F0E799
:101B50004069E5E70121E9E72DE9F0479A4691461A
:101B60000E46044600254FF02008C1F3074725E044
:101B700020684069C043400514D42068016841F4DE
:101B80000071016021686FF480604861256384F80A
:101B90003D8084F83E50206C40F00400206484F8BE
:101BA0003C501FE0B9F1FF3F08D0FFF727F8A0EB4A
:101BB0000A0149450CD8B9F1000F09D02068012F5E
:101BC00013D0806926EA00000004000C0BD0CFE798
:101BD00044F8305F84F80D80A573206940F0200040
:101BE000206125730120BDE8F0874069EAE72DE90F
:101BF000F041002590460E460446202717E0406934
:101C0000C043C0060CD454F8301B6FF0100048617C
:101C100044F810596777A577206A2062257717E086
:101C2000FEF7ECFFA0EB0800B04208D83EB12068F8
:101C30004169C9434906E2D40020BDE8F08144F877
:101C4000305F6773A573206940F020002061257321
:101C50000120F2E770B516460D4604460DE0204619
:101C6000FFF737FE08B1012070BD681C05D0FEF7F4
:101C7000C5FF801BA84207D835B120684069C04322
:101C80000006ECD4002070BD002044F8300F202165
:101C90006173A073216941F0200121612073E2E7A3
:101CA00010B58EB01C216846FEF7C2FA1C2107A8A9
:101CB000FEF7BEFA1B484FF02041102201601A497E
:101CC0004160062181600021C160C0E90412816188
:101CD000C16113020162C0E909139302C0E90B1349
:101CE0004163816341640F203C230090CDE90103EF
:101CF0000DF10C0C112306918CE80D000924CDE99F
:101D000007400DF1280C0D9109948CE80D0007AAED
:101D100069460448FFF734FD002801D0FEF796FD20
:101D20000EB010BD94000020040100A02DE9F04F7A
:101D300087B014216846FEF77BFA584800250168F1
:101D400041F010010160016801F010010591016886
:101D500041F004010160016801F00401059101688E
:101D600041F020010160016801F020010591016846
:101D700041F080010160016801F080010591016876
:101D800041F002010160016801F002010591016862
:101D900041F008010160016801F008010591016846
:101DA00041F001010160016801F001010591016844
:101DB00041F0400101600068394F00F040004FF4ED
:101DC00000540590002221463846FEF712FFDFF846
:101DD000D4A04FF4C066012231465046FEF709FFF9
:101DE000DFF8C4B0002201215846FEF702FF4FF48D
:101DF0000068002241465046FEF7FBFE4FF40049C2
:101E0000012249465846FEF7F4FE1C20CDE90005A4
:101E1000694626480295FEF7E9FD009401246946CB
:101E200038460194CDE90245FEF7E0FDCDE90064B6
:101E30000226CDE9024669465046FEF7D7FD032744
:101E4000CDE902470094694658460194FEF7CEFD5D
:101E5000CDE90065694658460295FEF7C7FD0420A6
:101E6000CDE90005694602945846FEF7BFFD01AA78
:101E70001120CDF8008082E8910069465046FEF7B7
:101E8000B5FDCDF80090CDE9014669465846039668
:101E9000FEF7ACFD07B0BDE8F08F0000303802401F
:101EA00000080240001402400004024000100240FA
:101EB0000D4810B50B4901600C49416000214FF4F9
:101EC00080428160C0E9031241618161C1610162A8
:101ED000FEF79AFE002803D0BDE81040FEF7B6BC1E
:101EE00010BD000000540040E4000020A086010066
:101EF0000C4810B50A4901604FF4E13141600021FE
:101F000081600C22C160C0E904128161C161FFF7E8
:101F100078FC002803D0BDE81040FEF797BC10BD48
:101F20000010014038010020FEE7704770477047FD
:101F3000FFF7F8B830B593B030216846FEF778F96E
:101F400014210CA8FEF774F91A480025016841F025
:101F500080510160006800F08050119016480168BF
:101F600041F4804101600068022400F48040119037
:101F700001200090000401908001CDE90640082076
:101F800008904FF4A870CDE9090404200B9068462E
:101F9000FFF740FA0CA90F2081E831004FF4A05060
:101FA0000F90E002109005210CA8FFF749F913B03B
:101FB00030BD000040380240007000400248016817
:101FC00041F470010160704788ED00E070B504468F
:101FD00000680169E26821F44051114301612169FF
:101FE000A068E26908436169114308432168CA682F
:101FF00049F20C639A430243CA6020684169A269AE
:1020000021F440711143416131492068884202D076
:102010003049884202D1FFF7BDF901E0FFF7AAF984
:10202000E2690023192164253226B2F5004F626867
:1020300028D0A0FB0101930F9200FEF7C1F80146E2
:10204000B0FBF5F06FF01802504301EB800006EB97
:102050000010B0FBF5F000F0F002B1FBF5F002EB80
:102060000012B1FBF5F06FF01803584301EB80004C
:1020700006EB0010B0FBF5F000F00F0021681044F3
:10208000886070BDA0FB010192185B41FEF798F8D3
:102090000146B0FBF5F00201B1FBF5F06FF018035B
:1020A000584301EB800006EBC000B0FBF5F000F0F8
:1020B000F80002EB4002B1FBF5F0584301EB800061
:1020C00006EBC000B0FBF5F000F00700D6E700001B
:1020D0000010014000140140FEE700000FB4054B62
:1020E00010B503A9044A029800F0FEF810BC5DF890
:1020F00014FB0000D52D0008740000200FB4084B1D
:1021000010B504A902AA039800F0EEF8044602A94B
:10211000002000F080FC204610BC5DF814FB00009D
:10212000172A00080907090E002804DB00F1E02047
:1021300080F80014704700F00F0000F1E02080F8F4
:10214000141D704702E008C8121F08C1002AFAD106
:1021500070477047002001E001C1121F002AFBD127
:10216000704700002DE9FF5F82B00021DDE90430F7
:10217000020DDDF840B0034318D044F61050A2F22F
:10218000FF3242431514119801281FD0A5EB0B0014
:10219000401C5FEA000A4FF000064E4FDFF838910E
:1021A000B046504615D5CAF1000413E01198012439
:1021B0004AA3012801D16FEA0B010298119AC0E9E4
:1021C0000031C0E9024206B0BDE8F09FCBF100004B
:1021D000DFE704460021404A491842EB0450CDE9AC
:1021E000001012E0E00707D032463B464046494621
:1021F000FEF737F88046894632463B461046194678
:10220000FEF72FF806460F466410002CEAD1DDE9F0
:102210000401DDE90023BAF1000F06DAFEF721F828
:1022200042464B46FEF71DF805E0FEF78CF84246A5
:102230004B46FEF788F804460E460022284BFEF770
:1022400041F903D84FF0FF30014607E00022254B4B
:1022500020463146FEF7E0F9FEF785FA102409E042
:10226000002C0ADB0A220023FDF7AAFF039B303271
:102270001A55641E50EA0102F2D1641C039AC4F19B
:1022800011031444119A012A03D0012208430DD1ED
:102290000AE0084304D000204FF0110B119072E7C0
:1022A000A3EB0B056D1E0DE05B4504DD4FF0000256
:1022B00005F1010504E003DA4FF00002A5F1010584
:1022C000002AECD002981199C0E90231C0E900451A
:1022D00079E70000000014400000F03F30000000EB
:1022E0000000F0430000E03F2DE9FF4F95B09B4612
:1022F0008946064600250FE2252877D10024274687
:10230000F84A0121059400E0044316F8013F203B00
:1023100001FA03F01042F7D130782A2811D06FF07B
:102320002F033078A0F13002092A16D8059A44F01C
:10233000020402EB820203EB42021044761C059079
:10234000EFE759F8042B0592002A03DA504244F4CF
:102350000054059044F00204761C30782E2816D1E3
:1023600016F8010F44F004042A280DD06FF02F0254
:102370003078A0F13003092B09D807EB870302EB73
:102380004303C718761CF3E759F8047B761C3078B2
:102390006C280FD006DC4C2817D068280DD06A288E
:1023A00014D104E0742810D07A280FD10DE044F441
:1023B00000140AE044F4801401E044F440147278FC
:1023C000824202D104F58014761C761C307866288F
:1023D0000BD013DC582877D009DC002875D04528AD
:1023E000F6D04628F4D047281AD19DE118E063289A
:1023F00035D0642879D0652812D195E1702873D042
:1024000008DC6728F1D069286FD06E280DD06F28BE
:1024100006D1B5E073282CD0752875D0782874D0F3
:102420005A46179990476D1C75E1C4F30250022873
:1024300009D003280DD0D9F8001004280DD00D6064
:1024400009F1040967E1D9F80010EA17C1E900525F
:10245000F6E7D9F800100D80F2E70D70F0E719F8F3
:10246000041B8DF8001000208DF80100EA460120C1
:1024700003E059F804AB4FF0FF3061074FF0000163
:1024800002D40DE008F101018846B9420FDA804517
:10249000F8DB1AF808100029F4D108E008F101016E
:1024A00088468142FADB1AF808100029F6D105980F
:1024B0005B46A0EB080721463846179A00F094FACD
:1024C000284400EB080507E04DE029E10DE01AF88B
:1024D000010B5A4617999047B8F10108F7D25B46AD
:1024E00021463846179A13E142E00A220092C4F3CB
:1024F00002524FF0000A022A08D059F804CB032AEE
:102500004FEAEC710AD00DE029E02AE009F1070159
:1025100021F00702F2E802C1914609E00FFA8CFCB3
:102520004FEAEC71042A03D14FFA8CFC4FEAEC71AC
:10253000002907DA0A460021DCF1000C61EB0201F8
:102540002D2202E0220504D52B228DF80420012241
:1025500003E0E20701D02022F7E7904659E00A2184
:1025600002E010220DE010214FF0000A00910BE074
:1025700010224FF0000A44F004040827009203E000
:1025800008224FF0000A0092C4F30252022A05D03A
:1025900059F804CB0021032A08D009E009F107010A
:1025A00021F00702F2E802C1914605E01FFA8CFC17
:1025B000042A01D10CF0FF0C4FF00008220728D5A7
:1025C000702806D0009B83F0100353EA0A0305D05D
:1025D0000EE040228DF80420012208E05CEA0102AE
:1025E00006D030228DF804208DF805000222904696
:1025F000009B83F0080353EA0A030AD15CEA010254
:1026000001D1620705D530228DF804204FF0010872
:102610007F1E582804D034A003900EA802900DE02D
:1026200036A0F9E753466046009AFDF7C9FD844697
:102630000398825C0298401E029002705CEA0100DE
:10264000F0D1029806A9081A00F1200A600702D505
:1026500024F4803400E00127574502DDA7EB0A008F
:1026600000E0002000EB0A01009005984144401A68
:102670000590E00306D45B462146179A059800F0C2
:10268000B3F90544002706E001A85A46C05D179932
:1026900090476D1C7F1C4745F6DBE0030CD55B467D
:1026A0002146179A059800F09FF9054404E0302070
:1026B0005A46179990476D1C0099481E00900029B2
:1026C000F5DC08E0029802995A460078491C02910C
:1026D000179990476D1CBAF10001AAF1010AF1DCCB
:1026E00065E10000092801003031323334353637D6
:1026F000383961626364656600000000303132334E
:1027000034353637383941424344454600000000ED
:1027100000F058F90544761C307800287FF4ECADC1
:1027200019B02846BDE8F08F620700D4062709F1EA
:10273000070222F0070CFCE80223E14603F0004800
:102740005FEA080C02D00FF2702C0DE05FEA045C27
:1027500002D50FF2682C07E05FEAC47C02D00FF2CA
:10276000602C01E0AFF2700C4FF0FF3823F0004313
:10277000CDF850C065280CD006DC452809D0462885
:102780001DD047283DD13DE0662818D067287ED16E
:1027900038E00021112F01DB112000E0781CCDE989
:1027A000000106A90EA8FFF7DDFCDDE90F010E9A76
:1027B00003910021009207F1010A04914DE04FF0CE
:1027C00000400097CDE9011006A90EA8FFF7CAFC4A
:1027D000DDE90F0203920E9B11990022DDF80CA097
:1027E0000093049211B9791C00EB010AB7EB0A00BF
:1027F00004D4C0F1FF3007F1010A0490AAEB0700EE
:10280000019044E0012F00DA01270021112F01DDA2
:10281000112000E03846CDE9000106A90EA8FFF717
:10282000A1FCDDE90F010E9A0391002104910092B1
:10283000BA4621070CD40399514500DA8A46BAF109
:10284000010F05DD009AAAF10101515C302908D081
:10285000B84202DA10F1040F06DA0121CDE90110C5
:1028600015E0AAF10101E9E7002805DC049901441B
:102870000491AAEB000102E0411C514500DD8A46AB
:102880000499401A401C01904FF00040029020072C
:1028900004D40198504501DBCDF8048000208DF868
:1028A0004F0002980DF14F07B0F1004F25D02B20BB
:1028B0000E9002984FF0020800280CDA4042029075
:1028C0002D200E9007E00A210298FDF713FE30310B
:1028D000029007F8011DB8F10001A8F10108F2DC2F
:1028E00002980028EFD1791E0E980870307800F019
:1028F000200040F0450007F8020D12A8C01B00F1AF
:1029000007081498007800B1012000EB0A01019833
:1029100001EBE07105984144401A401E0590E00328
:1029200006D45B462146179A059800F05DF80544E9
:102930001498007818B15A46179990476D1CE00317
:1029400024D55B462146179A059800F04DF80544BA
:102950001CE00498002807DBDDE90301884203DD61
:102960000098405C179901E0179930205A4690472B
:10297000049805F10105401C04900198401E019047
:1029800004D12E205A46179990476D1CBAF10001C8
:10299000AAF1010ADDDC05E017F8010B5A46179988
:1029A00090476D1CB8F10001A8F10108F4DC5B460A
:1029B0002146179A0598ABE62D0000002B00000079
:1029C000200000002DE9F041044600251E46174670
:1029D000880404D405E039462020B0476D1C641EED
:1029E000F9D52846BDE8F0812DE9F04104460025DF
:1029F0001E469046C80301D5302700E020278804F2
:102A000004D505E041463846B0476D1C641EF9D533
:102A10002846BDE8F0810A68531C0B6010707047AF
:102A200070B5134D4FF40064002221462846FEF78E
:102A3000E0F8022000F0B4F90E4E012211463046B3
:102A4000FEF7D7F8022000F0ABF900220121304652
:102A5000FEF7CFF8022000F0A3F901222146284614
:102A6000FEF7C7F8BDE87040022000F099B90000F9
:102A7000001402400004024000F0B0B810B501227A
:102A8000D1020C48FEF7B5F8022000F089F90A4C93
:102A9000012211462046FEF7ACF8022000F080F932
:102AA000002201212046FEF7A4F8BDE810400220D4
:102AB00000F076B900140240000402402DE9F0470E
:102AC0000024DFF85890164E074625464FF400685C
:102AD0006006040E012211463046FEF78AF80220F5
:102AE00000F05EF941464846FEF776F808B1641CEE
:102AF000E4B2002201213046FEF77BF8022000F00C
:102B00004FF96D1CEDB2082DE2D327B1FFF788FF16
:102B10002046BDE8F087FFF7B1FFF9E70014024057
:102B2000000402402DE9F041DFF85880164E0546BA
:102B300000244FF40067280601D5012200E000229E
:102B400039464046FEF755F8022000F029F90122E7
:102B500011463046FEF74DF8022000F021F9002220
:102B600001213046FEF745F86806641C050EE4B204
:102B7000082CE0D339464046BDE8F0410122FEF77B
:102B800038B80000001402400004024070B5012271
:102B9000104DD40221462846FEF72BF80E4E012296
:102BA00011463046FEF725F8022000F0F9F8002221
:102BB00021462846FEF71DF8022000F0F1F8002219
:102BC00001213046FEF715F8BDE87040022000F004
:102BD000E7B80000001402400004024070B50E4D3A
:102BE0004FF40064002221462846FEF702F8022036
:102BF00000F0D6F8012211460848FDF7FAFF02203E
:102C000000F0CEF8012221462846FDF7F2FFBDE88C
:102C10007040022000F0C4B80014024000040240DA
:102C20002DE9F0410122174F0024D60225463146F6
:102C30003846FDF7DEFF022000F0B2F8DFF84880EA
:102C4000012211464046FDF7D4FF07E0641CE4B2C0
:102C5000FA2C03D9FFF7C2FF012508E0022000F09B
:102C60009FF831463846FDF7B7FF0028EED1002225
:102C700001214046FDF7BDFF022000F091F82846F3
:102C8000BDE8F08100140240000402408EB037A07D
:102C9000FFF724FADFF8E08000260527B8F80410D3
:102CA000A1F58050183800D10A27344D0DF1080ADB
:102CB0004FF6FF7B696800208847002441E0A88E1A
:102CC0000121A140084238D005EB4409B8F80010B2
:102CD000B9F80C208A4232D2B9F82030B8F8020094
:102CE00083422CD23AF824C05046DC4504D100EB94
:102CF000840120F824204B80DFF884C002213CF8B6
:102D000014C0CDE9001C0AEB84010C9149883AF803
:102D1000240000F07DFCB9F80C202AF824200C993E
:102D2000B9F820004880B8F8001018398A4206DD4A
:102D3000142804D203F0E0FD01E02AF824B0641C5A
:102D4000E4B2BC42BBD3052000F024F8761CF6B2F6
:102D50001420B6FBF0F100FB11600028AAD14FF45B
:102D600000710848FDF73DFFA4E700006374705F41
:102D700074657374210A00007800002010000020A0
:102D8000DCA30008001402400149086070470000FD
:102D9000080000204FF47A71484300F001B80000A9
:102DA00070B54FF0E024002265690949A3690968FC
:102DB0004843A1699942FCD002D2A3EB010302E08F
:102DC000A5EB010633441A440B468242F1D370BD91
:102DD0000800002003490A685206FCD5C2B24A60C6
:102DE00070470000001001402DE9F0413C4888B0D8
:102DF0000025016841F004010160016801F004014F
:102E00000691016841F00201016000684FF400562C
:102E100000F0020006900124CDE901640327DFF8E9
:102E2000C480CDE9034701A94046FDF7DFFD02203C
:102E3000CDE90105CDE9034701A92B48FDF7D6FDF2
:102E4000FFF71AFE002231464046FDF7D2FE14205D
:102E5000FFF7A0FF012231464046FDF7CAFE3220AF
:102E6000FFF798FF8DF8005001226946002000F01E
:102E700013F901226946A42000F00EF916208DF8FE
:102E8000000001226946802000F006F90C208DF830
:102E9000000001226946882000F0FEF802226946FF
:102EA000A12000F029F89DF80010302903D19DF8E9
:102EB000010003280BD09DF80100012807D002284B
:102EC00005D001B918B1012008B0BDE8F081C0B249
:102ED00000EB012105A0FFF701F90020F4E7000055
:102EE00030380240000802400004024043545020A1
:102EF00049443A25780D0A002DE9F04115460E4661
:102F00000446FFF743FE7020FFF70CFEFFF788FE34
:102F1000E0B2FFF707FEFFF783FEFFF737FE7120F1
:102F2000FFF700FEFFF77CFE00246F1E09E0BC42A5
:102F300001D0012000E00020FFF7C0FD3055641CE7
:102F4000E4B2AC42F3D3BDE8F041FFF747BE000066
:102F50002DE9FC5F00274C4E8DF804704FF00A0BF2
:102F60003078DFF82881401CC0B2B0FBFBF20BFBCD
:102F700012013C46B94630704FF6FF7A09B10A2873
:102F800066D2012201A90220FFF7B6FF9DF80400D6
:102F900001075DD000F00F01062959D20AFA01F0AD
:102FA000C04340F44040A8F8340045460420FFF7F1
:102FB000F1FE4FF00109A98E09FA04F001423AD05E
:102FC00033480422694630F81400FFF795FF95F85E
:102FD00044009DF80010C0079DF8010001F00F01AA
:102FE0000ED000EB012105EB440001849DF8022086
:102FF0009DF8031002F00F0201EB0221818110E025
:1030000000EB012023490988091A05EB440081815E
:103010009DF802209DF8031002F00F0201EB02213F
:1030200001849DF800000821B1EB101F03D005EBCF
:10303000440007848781641CE4B2052CBBD3A889B3
:103040004FF0010918B9288C08B98DF80470377051
:103050009DF80400C0060ED1B8F83400010402D572
:1030600020F4004005E0A8F80CA0A8F820A000F487
:103070006040A8F834003078F02801D986F800B014
:103080004846BDE8FC9F00000C0000201000002016
:10309000B8A30008780000202DE9F04116460F463D
:1030A00004460025FFF772FD7020FFF73BFDFFF798
:1030B000B7FDE0B2FFF736FDFFF7B2FD002408E0F0
:1030C000385DFFF72FFDFFF7ABFD050003D1641C52
:1030D000E4B2B442F4D3FFF781FD2846BDE8F081A5
:1030E0007CB5FFF7C9FC2A4D4FF40054002221465D
:1030F0002846FDF77EFD0A20FFF74CFE01222146FF
:103100002846FDF776FD0A20FFF744FE04226946B3
:1031100048F2401000F054F800248DF804401DA13E
:103120006846FDF790F880B11BA16846FDF78BF863
:1031300058B11BA16846FDF786F830B11AA1684660
:10314000FDF781F808B101207CBD694618A0FEF7A3
:10315000C5FF15A16846FDF776F810B917490A2092
:10316000087002208DF8000048F2400501226946EF
:10317000284600F047F90A20FFF70CFE8DF80040C2
:1031800001226946284600F03DF900207CBD000080
:103190000008024039313100393134370000000075
:1031A000313135380000000039323731000000007D
:1031B0004354502049443A25730D0A000D00002065
:1031C0002DE9F04115460E460446FFF7DFFC2820A6
:1031D000FFF7A8FCFFF724FD200AFFF7A3FCFFF789
:1031E0001FFDE0B2FFF79EFCFFF71AFDFFF7CEFCD4
:1031F0002920FFF797FCFFF713FD00246F1E09E05D
:10320000BC4201D0012000E00020FFF757FC305500
:10321000641CE4B2AC42F3D3BDE8F041FFF7DEBC7E
:103220002DE9F14F82B00025724C8DF804504FF01B
:103230000A0A6078DFF8C081401CC0B2B0FBFAF225
:103240000AFB12012E4660704FF6FF7909B10A2879
:103250007DD248F24E17012202A93846FFF7B0FF8F
:103260009DF8080001060BD5217800F00F00884278
:1032700006D88DF80450012201A9384600F0C2F8A2
:103280009DF80800010762D0227800F00F009042FC
:103290005DD809FA00F1C943B8F8347041F44041EF
:1032A000A8F8341008EB4201B8F80C304B81B8F89C
:1032B0002020CA838DF80450DFF840B150E0B8F800
:1032C000340001228A404646104244D04C48042231
:1032D00030F811006946FFF773FFBBF80410A1F541
:1032E000AA42103A0CD0A1F51842063A08D0A1F52E
:1032F000EE42963A04D096F84410C90717D103E07D
:1033000096F84410C90712D09DF802109DF80320CA
:10331000BBF8000001EB0221411A9DF8040006EB06
:10332000400081819DF800109DF801200EE09DF87D
:1033300000009DF8011000EB01219DF8040006EB50
:10334000400081819DF802109DF8032000E025E0F7
:1033500001EB022101849DF80400401C8DF804005B
:103360009DF8041020788142A9D3B8F80C20BBF84E
:103370000030012640469A4204D8028CBBF8021065
:103380008A420AD99DF8081001F00F0101290CD9D1
:10339000C1898181418CA8F8201065709DF80800D2
:1033A00000F08F0080280DD01CE0217800EB410157
:1033B0004A898281C98B018480218DF80810A8F880
:1033C0003470EBE7B8F8341040460A0402D521F413
:1033D000004105E0A0F80C90A0F8209001F46041B5
:1033E000A8F834106078F02801D984F801A030469C
:1033F000BDE8FE8F0D0000201000002078000020A6
:10340000C2A300082DE9F04116460F4604460025E8
:10341000FFF7BCFB2820FFF785FBFFF701FC200A24
:10342000FFF780FBFFF7FCFBE0B2FFF77BFBFFF74A
:10343000F7FB002408E0385DFFF774FBFFF7F0FBB3
:10344000050003D1641CE4B2B442F4D3FFF7C6FB19
:103450002846BDE8F08100002DE9F0410025234E0B
:10346000234C012708B1377001E0307870B110218A
:103470002046FDF7B1FB80B108212046FDF7ACFBEB
:1034800058B104212046FDF7A7FB30B1102120469A
:10349000FDF7A2FB012818D024E00A20FFF77AFCF0
:1034A0000020307010212046FDF796FB00B9012561
:1034B00008212046FDF790FB00B902250421204693
:1034C000FDF78AFB70B903250CE008212046FDF7C3
:1034D00083FB012806D104212046FDF77DFB01284E
:1034E00000D137702846BDE8F08100005800002068
:1034F0000010024070B50A490646002408884D882D
:1035000021464543204603F093F803F0E5F94FF0D8
:10351000D84002E0A0F88060641CAC42FAD370BDD1
:10352000780000202DE9F04F38492C260A46887192
:1035300092884FF4305A4FF4285B41F6631E2B27D4
:103540004FF02A0C4FF0F00845F210594FF448752F
:103550004FF4A0744FF4F07358B10C80A1F80280BE
:103560004A4530D1A1F808A0A1F80AB038028881F4
:1035700041E0A1F800804C804A4507D1A1F808A09D
:10358000A1F80AB04FF42C50888105E072450E81F5
:1035900005D14F81A1F80CC00B804D8002E0A1F84D
:1035A0000AC08F81A2F5A640103803D0A2F5EE40E4
:1035B000963801D10C804B80A2F5184006381FD1F7
:1035C0000B804D801CE0724511D0A2F518400638E2
:1035D0000DD00E81A1F80AC0A1F80C70A2F5A6408A
:1035E00010380BD0A2F5EE40963807D008E00E81D7
:1035F000A1F80AC08F810D804B80EFE70B804C80D3
:10360000BDE8F04F002002F033BF0000780000203A
:103610002DE9FF5F4FF00008DDF838A04746504520
:103620004FD352454DD351454BD3534549D3161A29
:103630005D1A029000914FF0FF30002E02DD4FF036
:10364000010102E003D14FF000018B4602E0834606
:10365000C6F10006002D02DD4FF0010002E003D1AB
:103660004FF00000019002E0C5F100050190AE426C
:1036700001DD344600E02C46601C4FF00009039049
:103680001CE00098524681B202980F9B80B202F073
:103690002FFDB0442F44A04505DD0299A8EB040896
:1036A00001EB0B000290A74204DDDDE900010844B4
:1036B0003F1B009009F101001FFA80F90399894529
:1036C000DFDDBDE8FF9F2DE9FF4F80460025144652
:1036D000032082B00F46A0EB440651E0381B81B2B4
:1036E00008EB050A01901FFA8AF0059A00F0B0F87D
:1036F000781B009081B208EB04091FFA89F0059A43
:1037000000F0A6F807EB050B1FFA8BF11FFA89F002
:10371000059A00F09DF807EB04091FFA89F11FFADA
:103720008AF0059A00F094F8A8EB050A1FFA89F1CF
:103730001FFA8AF0059A00F08BF8A8EB04091FFA2B
:103740008BF11FFA89F0059A00F082F80198059A2A
:1037500081B21FFA8AF000F07BF80098059A81B2D6
:103760001FFA89F000F074F86D1C002E03DA06EBE6
:103770008506B61D04E0281B06EB8006641E0A368B
:10378000A542ABDD06B0BDE8F08F000038B5002AD9
:103790000DD0074C2588854209D364888C4206D316
:1037A0000244521E009392B20B4602F07DFC38BDDB
:1037B000780000202DE9FE4F161ACDE900104FF0D9
:1037C00000085D1A47464FF0FF30002E02DD4FF033
:1037D000010102E003D14FF000018B4602E0834675
:1037E000C6F10006002D02DD4FF0010002E003D11A
:1037F0004FF00000824602E08246C5F10005AE426D
:1038000001DD344600E02C46601C4FF000090290B8
:1038100019E000980C9A81B2019880B200F018F873
:10382000B0442F44A04504DD0198A8EB0408584497
:103830000190A74203DD00983F1B5044009009F11E
:1038400001001FFA80F902998945E2DDBDE8FE8F8B
:1038500010B5144602F0ECFE03F03EF84FF0D840ED
:10386000A0F8804010BD10B5CF2003F029F800204B
:1038700003F01AF8C12003F017F8302003F014F811
:10388000ED2003F01DF8642003F00EF8032003F090
:103890000BF8122003F008F8812003F005F8E82067
:1038A00003F00EF8852002F0FFFF102002F0FCFF6D
:1038B0007A2002F0F9FFCB2003F002F8392002F061
:1038C000F3FF2C2002F0F0FF002002F0EDFF342087
:1038D00002F0EAFF022002F0E7FFF72002F0F0FF1B
:1038E000202002F0E1FFEA2002F0EAFF002002F0CF
:1038F000DBFF002002F0D8FFC02002F0E1FF1B2018
:1039000002F0D2FFC12002F0DBFF012002F0CCFF69
:10391000C52002F0D5FF302002F0C6FF302002F0B3
:10392000C3FFC72002F0CCFFB72002F0BDFF362056
:1039300002F0C6FF482002F0B7FF3A2002F0C0FFB5
:10394000552002F0B1FFB12002F0BAFF002002F0D2
:10395000ABFF1A2002F0A8FFB62002F0B1FF0A2048
:1039600002F0A2FFA22002F09FFFF22002F0A8FFC7
:10397000002002F099FF262002F0A2FF012002F0B1
:1039800093FFE02002F09CFF0F2002F08DFF2A2021
:1039900002F08AFF282002F087FF082002F084FF4F
:1039A0000E2002F081FF082002F07EFF542002F07A
:1039B0007BFFA92002F078FF432002F075FF0A2068
:1039C00002F072FF0F2002F06FFF002002F06CFF88
:1039D000002002F069FF002002F066FF002002F0E4
:1039E00063FFE12002F06CFF002002F05DFF152074
:1039F00002F05AFF172002F057FF072002F054FF91
:103A0000112002F051FF062002F04EFF2B2002F0A1
:103A10004BFF562002F048FF3C2002F045FF0520F6
:103A200002F042FF102002F03FFF0F2002F03CFFA7
:103A30003F2002F039FF3F2002F036FF0F2002F056
:103A400033FF2B2002F03CFF002002F02DFF00206E
:103A500002F02AFF012002F027FF3F2002F024FF9E
:103A60002A2002F02DFF002002F01EFF002002F0AD
:103A70001BFF002002F018FFEF2002F015FF1120BD
:103A800002F01EFF7820FCF74FFFBDE81040292010
:103A900002F016BF10B5FF2002F012FFFF2002F067
:103AA00003FF982002F000FF062002F0FDFEBC207C
:103AB00002F006FF012002F0F7FE0F2002F0F4FEF4
:103AC000612002F0F1FEFF2002F0EEFE012002F084
:103AD000EBFE012002F0E8FE0B2002F0E5FE1020D4
:103AE00002F0E2FE372002F0DFFE632002F0DCFE8F
:103AF000FF2002F0D9FEFF2002F0D6FE012002F0E6
:103B0000D3FE012002F0D0FE002002F0CDFE002006
:103B100002F0CAFEFF2002F0C7FE522002F0C4FEEF
:103B2000012002F0C1FE002002F0BEFE402002F0A3
:103B3000BBFEBD2002F0C4FE012002F0B5FE232032
:103B400002F0B2FE452002F0AFFE672002F0ACFEAC
:103B5000012002F0A9FE232002F0A6FE452002F07B
:103B6000A3FE672002F0A0FEBE2002F0A9FE002006
:103B700002F09AFE012002F097FEAB2002F094FEC4
:103B8000602002F091FE222002F08EFE222002F040
:103B90008BFE222002F088FE222002F085FE2220E9
:103BA00002F082FEC72002F08BFE362002F07CFE7F
:103BB000ED2002F085FE7F2002F076FE0F2002F05D
:103BC00073FEC02002F07CFE0F2002F06DFE0B2081
:103BD00002F06AFE0A2002F067FEFC2002F070FE8E
:103BE000082002F061FEDF2002F06AFE002002F0F1
:103BF0005BFE002002F058FE002002F055FE00207F
:103C000002F052FE002002F04FFE202002F04CFE97
:103C1000F32002F055FE742002F046FEB42002F0BC
:103C20004FFE002002F040FE002002F03DFE00208A
:103C300002F03AFEF72002F043FE822002F034FE4A
:103C4000B12002F03DFE002002F02EFE132002F013
:103C50002BFE132002F028FEF22002F031FE80201D
:103C600002F022FE042002F01FFE402002F01CFEA3
:103C7000282002F019FEC12002F022FE172002F0D7
:103C800013FE882002F010FE882002F00DFE202096
:103C900002F00AFEE02002F013FE002002F004FE13
:103CA0000A2002F001FE122002F0FEFD102002F0B8
:103CB000FBFD0E2002F0F8FD202002F0F5FDCC20E7
:103CC00002F0F2FD072002F0EFFD062002F0ECFD0D
:103CD0000B2002F0E9FD0E2002F0E6FD0F2002F0BD
:103CE000E3FD0D2002F0E0FD152002F0DDFD1020C7
:103CF00002F0DAFD002002F0D7FDE12002F0E0FD45
:103D0000002002F0D1FD0B2002F0CEFD132002F0C6
:103D1000CBFD0D2002F0C8FD0E2002F0C5FD1B20DA
:103D200002F0C2FD712002F0BFFD062002F0BCFDD2
:103D3000062002F0B9FD0A2002F0B6FD0F2002F0C5
:103D4000B3FD0E2002F0B0FD0F2002F0ADFD1520F6
:103D500002F0AAFD0C2002F0A7FD002002F0A4FD55
:103D60002A2002F0ADFD002002F09EFD002002F0AE
:103D70009BFD012002F098FDDF2002F095FD2B2035
:103D800002F09EFD002002F08FFD002002F08CFD6D
:103D9000032002F089FD1F2002F086FD3A2002F088
:103DA0008FFD552002F080FD362002F089FD0020B5
:103DB00002F07AFD112002F083FD7820FCF7B4FDBB
:103DC000292002F07DFD1420FCF7AEFDBDE8104077
:103DD0002C2002F075BD10B5ED2002F071FD012020
:103DE00002F062FDFE2002F05FFDEE2002F068FDB1
:103DF000DE2002F059FD212002F056FDF12002F0F4
:103E00005FFD012002F050FDDF2002F059FD10207F
:103E100002F04AFDC42002F053FD8F2002F044FD61
:103E2000C62002F04DFD002002F03EFDE22002F02F
:103E30003BFDE22002F038FDE22002F035FDBF201C
:103E400002F03EFDAA2002F02FFDB02002F038FD66
:103E50000D2002F029FD002002F026FD0D2002F0C9
:103E600023FD002002F020FD112002F01DFD0020A6
:103E700002F01AFD192002F017FD002002F014FDD7
:103E8000212002F011FD002002F00EFD2D2002F095
:103E90000BFD002002F008FD3D2002F005FD002092
:103EA00002F002FD5D2002F0FFFC002002F0FCFCAD
:103EB0005D2002F0F9FC002002F0F6FCB12002F0D7
:103EC000FFFC802002F0F0FC002002F0EDFC8B20D3
:103ED00002F0EAFC002002F0E7FC962002F0E4FC8D
:103EE000002002F0E1FCB22002F0EAFC002002F027
:103EF000DBFC002002F0D8FC022002F0D5FC002000
:103F000002F0D2FC032002F0CFFC002002F0CCFC37
:103F1000B32002F0D5FC002002F0C6FC002002F025
:103F2000C3FC002002F0C0FC002002F0BDFC002019
:103F300002F0BAFC002002F0B7FC002002F0B4FC52
:103F4000002002F0B1FC002002F0AEFC002002F0E4
:103F5000ABFC002002F0A8FC002002F0A5FC002031
:103F600002F0A2FC002002F09FFC002002F09CFC6A
:103F7000002002F099FC002002F096FC002002F0E4
:103F800093FC002002F090FC002002F08DFC002049
:103F900002F08AFC002002F087FC002002F084FC82
:103FA000002002F081FCB42002F08AFC8B2002F099
:103FB0007BFC002002F078FC962002F075FC0020CB
:103FC00002F072FCA12002F06FFC002002F06CFCF9
:103FD000B52002F075FC022002F066FC002002F021
:103FE00063FC032002F060FC002002F05DFC042072
:103FF00002F05AFC002002F057FCB62002F060FCF0
:10400000002002F051FC002002F04EFCB72002F02C
:1040100057FC002002F048FC002002F045FC3F2045
:1040200002F042FC002002F03FFC5E2002F03CFC6B
:10403000002002F039FC642002F036FC002002F07F
:1040400033FC8C2002F030FC002002F02DFCAC2070
:1040500002F02AFC002002F027FCDC2002F024FC05
:10406000002002F021FC702002F01EFC002002F073
:104070001BFC902002F018FC002002F015FCEB2045
:1040800002F012FC002002F00FFCDC2002F00CFC1D
:10409000002002F009FCB82002F012FC002002F01F
:1040A00003FC002002F000FC002002F0FDFB0020D9
:1040B00002F0FAFB002002F0F7FB002002F0F4FB14
:1040C000002002F0F1FB002002F0EEFBBA2002F02B
:1040D000F7FB242002F0E8FB002002F0E5FB0020C3
:1040E00002F0E2FB002002F0DFFBC12002F0E8FB5F
:1040F000202002F0D9FB002002F0D6FB542002F071
:10410000D3FB002002F0D0FBFF2002F0CDFB00200B
:1041100002F0CAFBC22002F0D3FB0A2002F0C4FB6B
:10412000002002F0C1FB042002F0BEFB002002F0E0
:10413000BBFBC32002F0C4FB3C2002F0B5FB002017
:1041400002F0B2FB3A2002F0AFFB002002F0ACFB21
:10415000392002F0A9FB002002F0A6FB372002F074
:10416000A3FB002002F0A0FB3C2002F09DFB0020FE
:1041700002F09AFB362002F097FB002002F094FB3D
:10418000322002F091FB002002F08EFB2F2002F083
:104190008BFB002002F088FB2C2002F085FB002026
:1041A00002F082FB292002F07FFB002002F07CFB62
:1041B000262002F079FB002002F076FB242002F09A
:1041C00073FB002002F070FB242002F06DFB002046
:1041D00002F06AFB232002F067FB002002F064FB80
:1041E0003C2002F061FB002002F05EFB362002F072
:1041F0005BFB002002F058FB322002F055FB002050
:1042000002F052FB2F2002F04FFB002002F04CFB8B
:104210002C2002F049FB002002F046FB292002F08E
:1042200043FB002002F040FB262002F03DFB002073
:1042300002F03AFB242002F037FB002002F034FBAE
:10424000242002F031FB002002F02EFB232002F09C
:104250002BFB002002F028FBC42002F031FB62207F
:1042600002F022FB002002F01FFB052002F01CFBE5
:10427000002002F019FB842002F016FB002002F05F
:1042800013FBF02002F010FB002002F00DFB1820C1
:1042900002F00AFB002002F007FBA42002F004FB5E
:1042A000002002F001FB182002F0FEFA002002F0CC
:1042B000FBFA502002F0F8FA002002F0F5FA0C2088
:1042C00002F0F2FA002002F0EFFA172002F0ECFA06
:1042D000002002F0E9FA952002F0E6FA002002F050
:1042E000E3FAF32002F0E0FA002002F0DDFAE62023
:1042F00002F0DAFA002002F0D7FAC52002F0E0FA64
:10430000322002F0D1FA002002F0CEFA442002F06E
:10431000CBFA002002F0C8FA652002F0C5FA0020AE
:1043200002F0C2FA762002F0BFFA002002F0BCFAD6
:10433000882002F0B9FA002002F0B6FAC62002F096
:10434000BFFA202002F0B0FA002002F0ADFA1720E8
:1043500002F0AAFA002002F0A7FA012002F0A4FA63
:10436000002002F0A1FAC72002F0AAFA002002F011
:104370009BFA002002F098FA002002F095FA002043
:1043800002F092FAC82002F09BFA002002F08CFAA8
:10439000002002F089FA002002F086FA002002F0E4
:1043A00083FAC92002F08CFA002002F07DFA002086
:1043B00002F07AFA002002F077FA002002F074FA94
:1043C000002002F071FA002002F06EFA002002F0E4
:1043D0006BFA002002F068FA002002F065FA002073
:1043E00002F062FA002002F05FFA002002F05CFAAC
:1043F000002002F059FA002002F056FA002002F0E4
:1044000053FA002002F050FAE02002F059FA162088
:1044100002F04AFA002002F047FA1C2002F044FAA7
:10442000002002F041FA212002F03EFA002002F0C2
:104430003BFA362002F038FA002002F035FA462026
:1044400002F032FA002002F02FFA522002F02CFA89
:10445000002002F029FA642002F026FA002002F07F
:1044600023FA7A2002F020FA002002F01DFA8B20B5
:1044700002F01AFA002002F017FA992002F014FA5A
:10448000002002F011FAA82002F00EFA002002F03B
:104490000BFAB92002F008FA002002F005FAC42055
:1044A00002F002FA002002F0FFF9CA2002F0FCF943
:1044B000002002F0F9F9D22002F0F6F9002002F013
:1044C000F3F9D92002F0F0F9002002F0EDF9E02034
:1044D00002F0EAF9002002F0E7F9F32002F0E4F933
:1044E000002002F0E1F9E12002F0EAF9162002F0E2
:1044F000DBF9002002F0D8F91C2002F0D5F90020E9
:1045000002F0D2F9222002F0CFF9002002F0CCF91B
:10451000362002F0C9F9002002F0C6F9452002F069
:10452000C3F9002002F0C0F9522002F0BDF90020CA
:1045300002F0BAF9642002F0B7F9002002F0B4F9F1
:104540007A2002F0B1F9002002F0AEF98B2002F0DF
:10455000ABF9002002F0A8F9992002F0A5F900209B
:1045600002F0A2F9A82002F09FF9002002F09CF9C5
:10457000B92002F099F9002002F096F9C42002F067
:1045800093F9002002F090F9CA2002F08DF9002082
:1045900002F08AF9D22002F087F9002002F084F9B3
:1045A000D82002F081F9002002F07EF9E02002F02C
:1045B0007BF9002002F078F9F32002F075F9002071
:1045C00002F072F9E22002F07BF9052002F06CF9AA
:1045D000002002F069F90B2002F066F9002002F0D9
:1045E00063F91B2002F060F9002002F05DF934202D
:1045F00002F05AF9002002F057F9442002F054F971
:10460000002002F051F94F2002F04EF9002002F094
:104610004BF9612002F048F9002002F045F97920B9
:1046200002F042F9002002F03FF9882002F03CF944
:10463000002002F039F9972002F036F9002002F04C
:1046400033F9A62002F030F9002002F02DF9B7204E
:1046500002F02AF9002002F027F9C22002F024F922
:10466000002002F021F9C72002F01EF9002002F01C
:104670001BF9D12002F018F9002002F015F9D6201C
:1046800002F012F9002002F00FF9DD2002F00CF91F
:10469000002002F009F9F32002F006F9002002F0F0
:1046A00003F9E32002F00CF9052002F0FDF80020E8
:1046B00002F0FAF80A2002F0F7F8002002F0F4F80D
:1046C0001C2002F0F1F8002002F0EEF8332002F096
:1046D000EBF8002002F0E8F8442002F0E5F80020B2
:1046E00002F0E2F8502002F0DFF8002002F0DCF8DF
:1046F000622002F0D9F8002002F0D6F8782002F00B
:10470000D3F8002002F0D0F8882002F0CDF8002085
:1047100002F0CAF8972002F0C7F8002002F0C4F8AF
:10472000A62002F0C1F8002002F0BEF8B72002F087
:10473000BBF8002002F0B8F8C22002F0B5F8002063
:1047400002F0B2F8C72002F0AFF8002002F0ACF897
:10475000D12002F0A9F8002002F0A6F8D52002F03E
:10476000A3F8002002F0A0F8DD2002F09DF8002060
:1047700002F09AF8F32002F097F8002002F094F883
:10478000E42002F09DF8012002F08EF8002002F0F3
:104790008BF8012002F088F8002002F085F8022052
:1047A00002F082F8002002F07FF82A2002F07CF864
:1047B000002002F079F83C2002F076F8002002F0A8
:1047C00073F84B2002F070F8002002F06DF85D20C5
:1047D00002F06AF8002002F067F8742002F064F832
:1047E000002002F061F8842002F05EF8002002F060
:1047F0005BF8932002F058F8002002F055F8A22050
:1048000002F052F8002002F04FF8B32002F04CF80A
:10481000002002F049F8BE2002F046F8002002F025
:1048200043F8C42002F040F8002002F03DF8CD200B
:1048300002F03AF8002002F037F8D32002F034F802
:10484000002002F031F8DD2002F02EF8002002F006
:104850002BF8F32002F028F8002002F025F8E520DC
:1048600002F02EF8002002F01FF8002002F01CF8E1
:10487000002002F019F8002002F016F8022002F0E1
:1048800013F8002002F010F8292002F00DF80020A3
:1048900002F00AF83C2002F007F8002002F004F8C9
:1048A0004B2002F001F8002001F0FEFF5D2001F036
:1048B000FBFF002001F0F8FF742001F0F5FF00205D
:1048C00001F0F2FF842001F0EFFF002001F0ECFF87
:1048D000932001F0E9FF002001F0E6FFA22001F0A3
:1048E000E3FF002001F0E0FFB32001F0DDFF002036
:1048F00001F0DAFFBE2001F0D7FF002001F0D4FF65
:10490000C42001F0D1FF002001F0CEFFCD2001F046
:10491000CBFF002001F0C8FFD32001F0C5FF00202D
:1049200001F0C2FFDC2001F0BFFF002001F0BCFF5E
:10493000F32001F0B9FF002001F0B6FFE62001F0FE
:10494000BFFF112001F0B0FF002001F0ADFF3420C7
:1049500001F0AAFF002001F0A7FF562001F0A4FFFC
:10496000002001F0A1FF762001F09EFF002001F061
:104970009BFF772001F098FF002001F095FF662053
:1049800001F092FF002001F08FFF882001F08CFFE2
:10499000002001F089FF992001F086FF002001F03E
:1049A00083FFBB2001F080FF002001F07DFF9920F4
:1049B00001F07AFF002001F077FF662001F074FF1C
:1049C000002001F071FF552001F06EFF002001F082
:1049D0006BFF552001F068FF002001F065FF4520C6
:1049E00001F062FF002001F05FFF432001F05CFF57
:1049F000002001F059FF442001F056FF002001F093
:104A000053FFE72001F05CFF322001F04DFF002052
:104A100001F04AFF552001F047FF002001F044FF5C
:104A2000762001F041FF002001F03EFF662001F0FA
:104A30003BFF002001F038FF672001F035FF002028
:104A400001F032FF672001F02FFF002001F02CFF62
:104A5000872001F029FF002001F026FF992001F0B6
:104A600023FF002001F020FFBB2001F01DFF0020EC
:104A700001F01AFF992001F017FF002001F014FF48
:104A8000772001F011FF002001F00EFF442001F01B
:104A90000BFF002001F008FF562001F005FF002069
:104AA00001F002FF232001F0FFFE002001F0FCFED8
:104AB000332001F0F9FE002001F0F6FE452001F060
:104AC000F3FE002001F0F0FEE82001F0F9FE0020E6
:104AD00001F0EAFE002001F0E7FE992001F0E4FE7B
:104AE000002001F0E1FE872001F0DEFE002001F051
:104AF000DBFE882001F0D8FE002001F0D5FE7720F3
:104B000001F0D2FE002001F0CFFE662001F0CCFEC5
:104B1000002001F0C9FE882001F0C6FE002001F04F
:104B2000C3FEAA2001F0C0FE002001F0BDFEBB20A4
:104B300001F0BAFE002001F0B7FE992001F0B4FEAA
:104B4000002001F0B1FE662001F0AEFE002001F071
:104B5000ABFE552001F0A8FE002001F0A5FE552077
:104B600001F0A2FE002001F09FFE442001F09CFE17
:104B7000002001F099FE442001F096FE002001F093
:104B800093FE552001F090FE002001F08DFEE920FB
:104B900001F096FEAA2001F087FE002001F084FEBD
:104BA000002001F081FE002001F07EFE002001F0D7
:104BB00087FEAA2001F078FECF2001F081FE0020C0
:104BC00001F072FE002001F06FFE002001F06CFE8B
:104BD000002001F069FE002001F066FE002001F0D7
:104BE00063FE002001F060FE002001F05DFE002069
:104BF00001F05AFE002001F057FE002001F054FEA3
:104C0000002001F051FE002001F04EFE002001F0D6
:104C10004BFE002001F048FE002001F045FE002080
:104C200001F042FEF02001F04BFE002001F03CFEBE
:104C3000502001F039FE002001F036FE002001F086
:104C400033FE002001F030FEF32001F039FE002099
:104C500001F02AFEF92001F033FE062001F024FEC7
:104C6000102001F021FE292001F01EFE002001F09D
:104C70001BFE3A2001F024FE552001F015FE112004
:104C800001F01EFE6420FBF74FFE292001F018FE04
:104C9000352001F015FE002001F006FE512001F044
:104CA0000FFEFF2001F000FE532001F009FE2C2032
:104CB00001F0FAFD552001F003FE822001F0F4FD21
:104CC000BDE810402C2001F0FBBD2DE9F05F4FF452
:104CD00070435521184601F009FE4FF20104AA2144
:104CE000204601F003FE651C5221284601F0FEFD1E
:104CF000A61C0821304601F0F9FDE71C01213846C9
:104D000001F0F4FD0D214FF4304001F0EFFD0D21D5
:104D10004BF2010001F0EAFD0D214BF2020001F01F
:104D2000E5FD4FF436483421404601F0DFFD3421E3
:104D30004BF2016001F0DAFD34214BF2026001F028
:104D4000D5FD4FF431490D21484601F0CFFD4BF21E
:104D5000011A0D21504601F0C9FD0D214BF2021040
:104D600001F0C4FD4FF4374B3421584601F0BEFD2D
:104D700034214BF2017001F0B9FD34214BF2027085
:104D800001F0B4FD00214FF4324001F0AFFD0021ED
:104D90004BF2012001F0AAFD00214BF2022001F0AC
:104DA000A5FD24214FF4384001F0A0FD24214BF64D
:104DB000010001F09BFD24214BF6020001F096FD5D
:104DC00001214FF43F4001F091FD0F214FF433409A
:104DD00001F08CFD0F214BF2013001F087FD0F2116
:104DE0004BF2023001F082FD34214FF4394001F0E2
:104DF0007DFD34214BF6011001F078FD34214BF696
:104E0000021001F073FD08214FF4354001F06EFDF2
:104E100008214BF2015001F069FD08214BF20250CC
:104E200001F064FD03214FF4424001F05FFD2421B5
:104E30004FF43A4001F05AFD24214BF6012001F0D5
:104E400055FD24214BF6022001F050FD00214FF4C6
:104E50003C4001F04BFD78214BF6014001F046FD4E
:104E600000214BF6024001F041FD00214FF43D408E
:104E700001F03CFD78214BF6015001F037FD002197
:104E80004BF6025001F032FD00214FF43E4001F09C
:104E90002DFD64214BF6016001F028FD00214FF447
:104EA000514001F023FD33214DF2011001F01EFDB0
:104EB00000214DF2021001F019FD34214DF20310D2
:104EC00001F014FD00214DF2041001F00FFD3A2114
:104ED0004DF2051001F00AFD00214DF2061001F01F
:104EE00005FD4A214DF2071001F000FD00214DF2B1
:104EF000081001F0FBFC5C214DF2091001F0F6FCFA
:104F000000214DF20A1001F0F1FC81214DF20B104D
:104F100001F0ECFC00214DF20C1001F0E7FCA621A1
:104F20004DF20D1001F0E2FC00214DF20E1001F0E7
:104F3000DDFCE5214DF20F1001F0D8FC01214DF20E
:104F4000101001F0D3FC13214DF2111001F0CEFC32
:104F500001214DF2121001F0C9FC54214DF2131041
:104F600001F0C4FC01214DF2141001F0BFFC8221BC
:104F70004DF2151001F0BAFC01214DF2161001F0AE
:104F8000B5FCCA214DF2171001F0B0FC02214DF220
:104F9000181001F0ABFC00214DF2191001F0A6FC35
:104FA00002214DF21A1001F0A1FC01214DF21B105B
:104FB00001F09CFC02214DF21C1001F097FC342101
:104FC0004DF21D1001F092FC02214DF21E1001F075
:104FD0008DFC67214DF21F1001F088FC02214DF27B
:104FE000201001F083FC84214DF2211001F07EFCA1
:104FF00002214DF2221001F079FCA4214DF2231080
:1050000001F074FC02214DF2241001F06FFCB72175
:105010004DF2251001F06AFC02214DF2261001F03C
:1050200065FCCF214DF2271001F060FC02214DF20A
:10503000281001F05BFCDE214DF2291001F056FC36
:1050400002214DF22A1001F051FCF2214DF22B10F9
:1050500001F04CFC02214DF22C1001F047FCFE2126
:105060004DF22D1001F042FC03214DF22E1001F003
:105070003DFC10214DF22F1001F038FC03214DF2C0
:10508000301001F033FC33214DF2311001F02EFCD1
:1050900003214DF2321001F029FC6D214DF2331045
:1050A00001F024FC00214FF4524001F01FFC332199
:1050B0004DF2012001F01AFC00214DF2022001F016
:1050C00015FC34214DF2032001F010FC00214DF2BB
:1050D000042001F00BFC3A214DF2052001F006FC02
:1050E00000214DF2062001F001FC4A214DF207207B
:1050F00001F0FCFB00214DF2082001F0F7FB5C21E0
:105100004DF2092001F0F2FB00214DF20A2001F0DE
:10511000EDFB81214DF20B2001F0E8FB00214DF267
:105120000C2001F0E3FBA6214DF20D2001F0DEFB87
:1051300000214DF20E2001F0D9FBE5214DF20F20A8
:1051400001F0D4FB01214DF2102001F0CFFB13211F
:105150004DF2112001F0CAFB01214DF2122001F0A5
:10516000C5FB54214DF2132001F0C0FB01214DF28B
:10517000142001F0BBFB82214DF2152001F0B6FB9B
:1051800001214DF2162001F0B1FBCA214DF217208A
:1051900001F0ACFB02214DF2182001F0A7FB002129
:1051A0004DF2192001F0A2FB02214DF21A2001F06C
:1051B0009DFB01214DF21B2001F098FB02214DF2D5
:1051C0001C2001F093FB34214DF21D2001F08EFBD9
:1051D00002214DF21E2001F089FB67214DF21F20B4
:1051E00001F084FB02214DF2202001F07FFB84219D
:1051F0004DF2212001F07AFB02214DF2222001F034
:1052000075FBA4214DF2232001F070FB02214DF229
:10521000242001F06BFBB7214DF2252001F066FB45
:1052200002214DF2262001F061FBCF214DF2272013
:1052300001F05CFB02214DF2282001F057FBDE213A
:105240004DF2292001F052FB02214DF22A2001F0FB
:105250004DFBF2214DF22B2001F048FB02214DF2D3
:105260002C2001F043FBFE214DF22D2001F03EFBEE
:1052700003214DF22E2001F039FB10214DF22F2099
:1052800001F034FB03214DF2302001F02FFB3321DC
:105290004DF2312001F02AFB03214DF2322001F0C2
:1052A00025FB6D214DF2332001F020FB00214FF44E
:1052B000534001F01BFB33214DF2013001F016FB8E
:1052C00000214DF2023001F011FB34214DF2033088
:1052D00001F00CFB00214DF2043001F007FB3A21F4
:1052E0004DF2053001F002FB00214DF2063001F0D5
:1052F000FDFA4A214DF2073001F0F8FA00214DF293
:10530000083001F0F3FA5C214DF2093001F0EEFAB9
:1053100000214DF20A3001F0E9FA81214DF20B3003
:1053200001F0E4FA00214DF20C3001F0DFFAA62181
:105330004DF20D3001F0DAFA00214DF20E3001F09D
:10534000D5FAE5214DF20F3001F0D0FA01214DF2EE
:10535000103001F0CBFA13214DF2113001F0C6FAF2
:1053600001214DF2123001F0C1FA54214DF21330F7
:1053700001F0BCFA01214DF2143001F0B7FA82219C
:105380004DF2153001F0B2FA01214DF2163001F064
:10539000ADFACA214DF2173001F0A8FA02214DF200
:1053A000183001F0A3FA00214DF2193001F09EFAF5
:1053B00002214DF21A3001F099FA01214DF21B3011
:1053C00001F094FA02214DF21C3001F08FFA3421E1
:1053D0004DF21D3001F08AFA02214DF21E3001F02B
:1053E00085FA67214DF21F3001F080FA02214DF25B
:1053F000203001F07BFA84214DF2213001F076FA61
:1054000002214DF2223001F071FAA4214DF2233035
:1054100001F06CFA02214DF2243001F067FAB72155
:105420004DF2253001F062FA02214DF2263001F0F2
:105430005DFACF214DF2273001F058FA02214DF2EA
:10544000283001F053FADE214DF2293001F04EFAF6
:1054500002214DF22A3001F049FAF2214DF22B30AF
:1054600001F044FA02214DF22C3001F03FFAFE2106
:105470004DF22D3001F03AFA03214DF22E3001F0B9
:1054800035FA10214DF22F3001F030FA03214DF2A0
:10549000303001F02BFA33214DF2313001F026FA91
:1054A00003214DF2323001F021FA6D214DF23330FB
:1054B00001F01CFA00214FF4544001F017FA332197
:1054C0004DF2014001F012FA00214DF2024001F0CC
:1054D0000DFA34214DF2034001F008FA00214DF29B
:1054E000044001F003FA3A214DF2054001F0FEF9C3
:1054F00000214DF2064001F0F9F94A214DF2074032
:1055000001F0F4F900214DF2084001F0EFF95C21BF
:105510004DF2094001F0EAF900214DF20A4001F094
:10552000E5F981214DF20B4001F0E0F900214DF247
:105530000C4001F0DBF9A6214DF20D4001F0D6F947
:1055400000214DF20E4001F0D1F9E5214DF20F405E
:1055500001F0CCF901214DF2104001F0C7F91321FF
:105560004DF2114001F0C2F901214DF2124001F05B
:10557000BDF954214DF2134001F0B8F901214DF26B
:10558000144001F0B3F982214DF2154001F0AEF95B
:1055900001214DF2164001F0A9F9CA214DF2174040
:1055A00001F0A4F902214DF2184001F09FF9002109
:1055B0004DF2194001F09AF902214DF21A4001F022
:1055C00095F901214DF21B4001F090F902214DF2B5
:1055D0001C4001F08BF934214DF21D4001F086F999
:1055E00002214DF21E4001F081F967214DF21F406A
:1055F00001F07CF902214DF2204001F077F984217D
:105600004DF2214001F072F902214DF2224001F0E9
:105610006DF9A4214DF2234001F068F902214DF209
:10562000244001F063F9B7214DF2254001F05EF905
:1056300002214DF2264001F059F9CF214DF22740C9
:1056400001F054F902214DF2284001F04FF9DE211A
:105650004DF2294001F04AF902214DF22A4001F0B1
:1056600045F9F2214DF22B4001F040F902214DF2B3
:105670002C4001F03BF9FE214DF22D4001F036F9AE
:1056800003214DF22E4001F031F910214DF22F404F
:1056900001F02CF903214DF2304001F027F93321BC
:1056A0004DF2314001F022F903214DF2324001F078
:1056B0001DF96D214DF2334001F018F900214FF42E
:1056C000554001F013F933214DF2015001F00EF96C
:1056D00000214DF2025001F009F934214DF203503E
:1056E00001F004F900214DF2045001F0FFF83A21D5
:1056F0004DF2055001F0FAF800214DF2065001F08C
:10570000F5F84A214DF2075001F0F0F800214DF272
:10571000085001F0EBF85C214DF2095001F0E6F879
:1057200000214DF20A5001F0E1F881214DF20B50B9
:1057300001F0DCF800214DF20C5001F0D7F8A62161
:105740004DF20D5001F0D2F800214DF20E5001F053
:10575000CDF8E5214DF20F5001F0C8F801214DF2CE
:10576000105001F0C3F813214DF2115001F0BEF8B2
:1057700001214DF2125001F0B9F854214DF21350AD
:1057800001F0B4F801214DF2145001F0AFF882217C
:105790004DF2155001F0AAF801214DF2165001F01A
:1057A000A5F8CA214DF2175001F0A0F802214DF2E0
:1057B000185001F09BF800214DF2195001F096F8B5
:1057C00002214DF21A5001F091F801214DF21B50C7
:1057D00001F08CF802214DF21C5001F087F83421C1
:1057E0004DF21D5001F082F802214DF21E5001F0E1
:1057F0007DF867214DF21F5001F078F802214DF23B
:10580000205001F073F884214DF2215001F06EF820
:1058100002214DF2225001F069F8A4214DF22350EB
:1058200001F064F802214DF2245001F05FF8B72135
:105830004DF2255001F05AF802214DF2265001F0A8
:1058400055F8CF214DF2275001F050F802214DF2CA
:10585000285001F04BF8DE214DF2295001F046F8B6
:1058600002214DF22A5001F041F8F2214DF22B5065
:1058700001F03CF802214DF22C5001F037F8FE21E6
:105880004DF22D5001F032F803214DF22E5001F06F
:105890002DF810214DF22F5001F028F803214DF280
:1058A000305001F023F833214DF2315001F01EF851
:1058B00003214DF2325001F019F86D214DF23350B1
:1058C00001F014F800214FF4564001F00FF8332195
:1058D0004DF2016001F00AF800214DF2026001F082
:1058E00005F834214DF2036001F000F800214DF27B
:1058F000046000F0FBFF3A214DF2056000F0F6FF76
:1059000000214DF2066000F0F1FF4A214DF20760E0
:1059100000F0ECFF00214DF2086000F0E7FF5C2191
:105920004DF2096000F0E2FF00214DF20A6000F044
:10593000DDFF81214DF20B6000F0D8FF00214DF218
:105940000C6000F0D3FFA6214DF20D6000F0CEFFF9
:1059500000214DF20E6000F0C9FFE5214DF20F600D
:1059600000F0C4FF01214DF2106000F0BFFF1321D1
:105970004DF2116000F0BAFF01214DF2126000F00B
:10598000B5FF54214DF2136000F0B0FF01214DF23C
:10599000146000F0ABFF82214DF2156000F0A6FF0D
:1059A00001214DF2166000F0A1FFCA214DF21760EF
:1059B00000F09CFF02214DF2186000F097FF0021DB
:1059C0004DF2196000F092FF02214DF21A6000F0D2
:1059D0008DFF01214DF21B6000F088FF02214DF286
:1059E0001C6000F083FF34214DF21D6000F07EFF4B
:1059F00002214DF21E6000F079FF67214DF21F6019
:105A000000F074FF02214DF2206000F06FFF84214E
:105A10004DF2216000F06AFF02214DF2226000F099
:105A200065FFA4214DF2236000F060FF02214DF2DA
:105A3000246000F05BFFB7214DF2256000F056FFB7
:105A400002214DF2266000F051FFCF214DF2276078
:105A500000F04CFF02214DF2286000F047FFDE21EC
:105A60004DF2296000F042FF02214DF22A6000F061
:105A70003DFFF2214DF22B6000F038FF02214DF284
:105A80002C6000F033FFFE214DF22D6000F02EFF60
:105A900003214DF22E6000F029FF10214DF22F60FE
:105AA00000F024FF03214DF2306000F01FFF33218E
:105AB0004DF2316000F01AFF03214DF2326000F028
:105AC00015FF6D214DF2336000F010FF552118468F
:105AD00000F00CFFAA21204600F008FF52212846C2
