:020000040800F2
:10000000500500209D010008071300081D1100087D
:100010000513000895040008B5140008000000004E
:100020000000000000000000000000000B130008AA
:100030009704000800000000091300080D130008D1
:10004000B7010008B7010008B7010008B7010008B0
:10005000B7010008B7010008B7010008B7010008A0
:10006000990400089F040008A5040008B7010008CF
:10007000B7010008B7010008B7010008B701000880
:10008000B7010008B7010008B7010008B701000870
:10009000B7010008B7010008B7010008B701000860
:1000A000B7010008B7010008B7010008B701000850
:1000B000B7010008B7010008B7010008B701000840
:1000C000B7010008B7010008B7010008B701000830
:1000D000B7010008B7010008B7010008B701000820
:1000E000B7010008B7010008B7010008B701000810
:1000F000B7010008B7010008B7010008B701000800
:10010000B7010008B7010008B7010008B7010008EF
:10011000B7010008B7010008B7010008B7010008DF
:10012000B7010008B7010008B7010008B7010008CF
:10013000B7010008B7010008B7010008B7010008BF
:10014000B7010008B7010008B7010008B7010008AF
:10015000B7010008B7010008B7010008B70100089F
:10016000B7010008B7010008B7010008B70100088F
:10017000B7010008B7010008B7010008000000003F
:10018000B7010008B7010008DFF80CD000F070F9E3
:1001900000480047E54A000850050020064880470F
:1001A00006480047FEE7FEE7FEE7FEE7FEE7FEE75C
:1001B000FEE7FEE7FEE7FEE7991300088901000865
:1001C0002DE9F05F0546002092469B46884606468C
:1001D000814640241BE0284641464746224600F01F
:1001E000D9F853465A46C01A914110D311461846C1
:1001F000224600F0C0F82D1A67EB01084F46224650
:100200000120002100F0B7F817EB00094E41201E35
:10021000A4F10104DFDC484631462A464346BDE8E6
:10022000F09FD2B201E000F8012B491EFBD27047CB
:100230000022F6E710B513460A4604461946FFF7B2
:10024000F0FF204610BD2DE9FE4F81EA030404F0C3
:10025000004421F0004100944FF0000B23F00043D4
:1002600050EA01045ED052EA03045BD0C3F30A549F
:10027000C1F30A552C44A4F2F3340194A0FB0254B8
:10028000C1F3130141F48011C3F3130343F480134A
:1002900001FB024400FB034E840A970A44EA81549E
:1002A00047EA8357A4FB076802958D0A05FB07857B
:1002B0004FEA932C04FB0C542705029D4FEA065885
:1002C00047EA1637B5EB08056EEB070C870E920E62
:1002D00047EA811742EA8312A7FB0201B6EB0B0142
:1002E00064EB00042B0D43EA0C335E1844EB1C5006
:1002F000DA465146E7FB0201C5F313044FEA0B331C
:1003000043EA14534FEA0432019C43EA0603A4F182
:100310000C040294009CCDE900B400F05AF803B03C
:10032000BDE8F08F00200146F9E70EB540F23341F9
:1003300002910021CDE900110A460B4600F049F870
:1003400003B000BDC1F30A5210B5C1F3130140F26E
:10035000FF3341F480119A4201DA002010BD40F2CF
:1003600033439A42A2F2334203DC524200F012F8C5
:1003700010BD904010BD202A04DB203A00FA02F1A3
:10038000002070479140C2F1200320FA03F3194383
:1003900090407047202A04DB203A21FA02F0002125
:1003A000704721FA02F3D040C2F120029140084385
:1003B0001946704710B5141E73F1000408DA401C8A
:1003C00041F1000192185B411A4301D120F0010074
:1003D00010BD2DE9F04D92469B4611B1B1FA81F264
:1003E00002E0B0FA80F220329046FFF7C4FF0446E4
:1003F0000F4640EA0A0041EA0B0153465A460843B9
:1004000013D0114653EA010019D0C8F140025046FA
:10041000FFF7C0FF05460E46504659464246FFF7D5
:10042000AAFF084305D0012004E020463946BDE874
:10043000F08D0020054346EAE0762C4337430A98C6
:100440006305E40AA0EB08000022FD0A44EA4754D1
:100450000A3002D500200146E9E70105101969417B
:10046000DDE9084500196941BDE8F04DA2E700004B
:10047000064C074D06E0E06840F0010394E80700F1
:1004800098471034AC42F6D3FFF782FED47B0008C5
:10049000F47B0008FEE77047042000F041B9082013
:1004A00000F03EB9102000F03BB9704770B5B3F5CD
:1004B000804F05D06FF0704140F82210002070BDD1
:1004C00050F82240084B8E891C40D1E9003543EAA0
:1004D00005138D6889692D0245EA06452B430B43B8
:1004E000234340F82230E9E70000F0CFF0B50C6874
:1004F00050F82430114A1340D1E90125D1E90367AE
:100500002A433E4332434E6932438E693243CE69B9
:1005100032430E6A32434E6A32438E6A3243CE6AA7
:100520003243CE6B096B32430A431A43082D01D183
:1005300042F0400240F824200020F0BD8000F0FF8F
:1005400030B500EB820250688D8900F04043D1E95C
:10055000000440EA04108C68240244EA0544204365
:100560000C8A074D05EB045420430C7D6D0105EB0F
:10057000046489692043084318435060002030BD5B
:100580000000F0FF70B5044600F0DEF90546601C7F
:1005900002D004480078044400F0D6F9401BA04281
:1005A000FAD370BD2C0000202DE9F04387B0142150
:1005B0006846FFF73DFE25480168002943D1012721
:1005C000076023488846016841F001010160006826
:1005D0004FF4805900F001000C26CDF80090CDE9D1
:1005E0000460032502240395CDE9014769461948B3
:1005F00000F0A2F84FF680708DE81101CDE90356A6
:100600006946154800F098F84CF203708DE8110126
:10061000DFF84880CDE903566946404600F08CF883
:1006200030208DE89100CDE903566946404600F040
:1006300083F8CDF80090CDE90147CDE9035669462E
:10064000074800F079F807B0BDE8F08324000020E7
:10065000383802400014024000100240000C0240F2
:1006600000180240FEB504461420FFF78BFF204619
:100670001025224E224C4FF47847042825D0082814
:100680001CD0102838D184011E4D2146284600F088
:1006900049F960B1FF2004F09DF801F02FFA002223
:1006A00003B021462846BDE8F04000F048B90020DC
:1006B00004F090F801F012FA0122F1E703F059FE7C
:1006C0006070052818D9401F05E003F052FE6070E5
:1006D000FF2811D2401DC0B2607004F07BF8627830
:1006E00009A1064800F0F8FE8DE8E0001023F02292
:1006F00096210A2004F07AF9FEBD00005C0000207B
:10070000080000200014024063757272656E742048
:100710006272696768746E6573733A253375000099
:10072000044910B50A68024202D00860FFF79AFF38
:1007300010BD0000143C01402DE9F84FDFF8B8A1CE
:10074000002201250AF1040B03264FF00F090BF1DB
:10075000040E00BF0B6805FA02F42340A3426FD1D8
:100760000F7907F00307012F01D0022F16D18768F8
:100770004FEA420806FA08FC27EA0C07D1F80CC039
:100780000CFA08FC4CEA070CC0F808C04768A743FD
:100790000C79C4F3001494403C4344600C79E44366
:1007A000A4070AD0C4684FEA420C06FA0CF7BC430F
:1007B0008F6807FA0CF72743C7600C7904F003042D
:1007C000022C12D1D40800EB840CDCF8204057072F
:1007D000FF0E09FA07F824EA0804D1F8108008FA95
:1007E00007F848EA0408CCF8208004684FEA420C75
:1007F00006FA0CF7BC430F7907F0030707FA0CF76A
:10080000274307604C68E40070D53C4C276847F4E8
:1008100080472760246822F0030704F48044009492
:10082000374C07EB040CDCF8084897074FEA1778B9
:1008300009FA08F7BC43334FB84202D1002724E03D
:1008400054E0314FB84201D101271EE02F4FB8428A
:1008500001D1022719E02E4FB84201D1032714E03D
:100860002C4FB84201D104270FE02B4FB84201D1E1
:1008700005270AE0294FB84201D1062705E0284F95
:10088000B84201D1072700E0082707FA08F72743F5
:10089000CCF80878DAF800405746D1F804C09C43F9
:1008A0005FEACC3C00D51C433C60DBF800405F466F
:1008B000D1F804C09C435FEA8C3C00D51C433C60EB
:1008C000DEF800407746D1F804C09C435FEACC2CA8
:1008D00000D51C433C60084F0C373C68D1F804C07D
:1008E0009C435FEA8C2C00D51C433C60521C102AB0
:1008F000FFF430AFBDE8F88F003C014044380240BF
:1009000000300140000002400004024000080240A4
:10091000000C024000100240001402400018024087
:10092000001C02400069084000D001207047426965
:1009300021EA02030A4043EA0241816170470AB199
:10094000816170470904FBE7014880687047000037
:100950002C000020024881680278114481607047B1
:100960002C0000200B4810B5016841F400710160B3
:10097000016841F480610160016841F480710160A7
:10098000032000F071F8002000F006F800F024F8D1
:10099000002010BD003C024070B50D4D04464FF4E0
:1009A0007A712878B1FBF0F00A490968B1FBF0F0E0
:1009B00000F039FB48B9102C07D200222146501E06
:1009C00000F032F800206C6070BD012070BD0000A6
:1009D0002C000020380000200B4882B0016841F450
:1009E00080410160006800F4804000900648001FCC
:1009F000016841F080510160006800F08050009073
:100A0000052002B000F030B844380240002809DB6D
:100A100000F01F02012191404009800000F1E02018
:100A2000C0F8001170470000F0B40E4B1B680C4674
:100A3000C3F30223C3F10705042D00D90425191DB2
:100A4000072901D2002300E0DB1E012606FA05F18A
:100A5000491E214099409E40761E16403143F0BC0D
:100A600000F04EBD0CED00E0064900F007020868FA
:100A70004FF6FF03184040EA0220034A1043086083
:100A8000704700000CED00E00000FA052DE9F0478A
:100A90000E46050065D0DFF81481D8F80000F7B2E3
:100AA00000F00700B04207D288F80070D8F80000C4
:100AB00000F00700B04254D128683D4C810712D5A0
:100AC000400703D5206840F4E050206028780007F4
:100AD00003D5206840F4604020602068A96820F0B9
:100AE000F000084320602878C0072DD0304968689E
:100AF0000839012812D0022813D0032811D0096820
:100B0000890700292DDA216821F0030101432160C2
:100B1000FFF71AFF814641F2883A0EE0096889031F
:100B2000EFE709688901ECE7FFF70EFFA0EB090189
:100B3000514502D90320BDE8F0872068696800F0BC
:100B40000C00B0EB810FEFD1D8F80010404601F057
:100B50000701B14207D90770006800F00700B042F2
:100B600001D00120E7E72878400705D52068E9682B
:100B700020F4E050084320602878000706D520685C
:100B8000296920F4604040EAC100206000F038F894
:100B90002168084AC1F30311515CC8400649086046
:100BA00006480068FFF7F8FE0020C4E7003C02405A
:100BB00008380240BC7B00083800002030000020CC
:100BC0000448054900680968044AC1F38221515C60
:100BD000C84070473800002008380240CC7B00082D
:100BE0000448054900680968044AC1F34231515C70
:100BF000C84070473800002008380240CC7B00080D
:100C0000154810B5006810F00C02144813D04110BC
:100C1000042A0FD0082A0ED10F4C241F2268236803
:100C200002F03F025B0207D52068C0F38810A0FBEA
:100C3000010106E0084610BD2168C1F38811A1FB3F
:100C400000010023FFF7BCFA2168C1F30141491CF0
:100C50004900B0FBF1F010BD083802400024F40058
:100C60002DE9F84F04006ED02078DFF84C93C007D0
:100C7000A9F104054AD009F104000168C1F381011A
:100C8000012908D00068C0F3810002280AD1D9F8F0
:100C90000000400206D52868800337D56068002828
:100CA000E1D033E06068B0F5803F10D0B0F5A02F00
:100CB000286810D020F480302860286820F4802034
:100CC00028606068A8B1FFF73FFE06460DE028687F
:100CD00040F48030F4E740F480202860F7E700BF5C
:100CE000FFF732FE801B642873D828688003F7D58D
:100CF0000CE0FFF729FE064605E000BFFFF724FEE3
:100D0000801B6428F0D828688003F7D42078DFF8A7
:100D1000AC8280074FF0000A3ED5A748001D01684D
:100D200011F00C0F08D00068C0F3810002280BD12D
:100D3000D9F80000400207D42868800716D5E0687B
:100D4000012800D112E033E1E068B8B10120C8F811
:100D50000000FFF7F9FD064605E000BFFFF7F4FDD0
:100D6000801B0228C0D828688007F7D52868216929
:100D700020F0F80040EAC10028600DE0C8F800A0AB
:100D8000FFF7E2FD064604E0FFF7DEFD801B0228C8
:100D90001FD828688007F7D42078000722D5864F0F
:100DA00087486169703771B101210160FFF7CCFD9F
:100DB000064604E0FFF7C8FD801B022809D8386802
:100DC0008007F7D50EE0C0F800A0FFF7BDFD06468E
:100DD00005E082E0FFF7B8FD801B02287DD8386867
:100DE0008007F7D42078400768D5DFF8CCB100271A
:100DF0000BF13C0BDBF80000C0000BD4DBF800105B
:100E000041F08051CBF80010DBF80000012700F022
:100E1000805000906B4E3068C00510D4306840F4AC
:100E200080703060FFF790FD009005E0FFF78CFDCB
:100E30000099401A022850D83068C005F6D55E4E99
:100E4000A0686C3601280FD00528306810D020F03B
:100E500001003060306820F004003060A068B8B154
:100E6000FFF772FD00900FE0306840F00100F4E7FA
:100E700040F004003060F7E7FFF766FD0099411A83
:100E800041F28830814266D830688007F4D50EE0A0
:100E9000FFF75AFD009007E0FFF756FD0099411A51
:100EA00041F28830814256D830688007F4D42FB19F
:100EB000DBF8001021F08051CBF80010A069C8B316
:100EC0003D49091D0968C1F3810102294AD0022860
:100ED000504607D0C8F8600000E03CE0FFF734FD62
:100EE00004463BE04746C8F86000FFF72DFD064684
:100EF00005E000BFFFF728FD801B02282BD82868DB
:100F00008001F7D4D4E907010843A16A2E4A4908B1
:100F100002EB0141626A41EA8211084394F82C1005
:100F200040EA0161C9F8001001203866FFF70CFDA6
:100F3000044606E03EE000BFFFF706FD001B022866
:100F400009D828688001F7D534E000BFFFF7FCFC22
:100F5000001B022802D90320BDE8F88F2868800111
:100F6000F4D427E00128F7D0D9F80000E26900F4B2
:100F7000800191421CD1226A00F03F01914217D1B9
:100F800047F6C071626A0140B1EB821F10D1A26ABC
:100F90004FF0FF3300F4403103EB5202B1EB024F4C
:100FA00006D194F82C1000F07060B0EB016F01D006
:100FB0000120D1E70020CFE704380240000047427B
:100FC000800E4742007000400000FFFF70B51546DC
:100FD0000E46040003D094F8490010B107E0012048
:100FE00070BD002084F84800204600F01AF804F193
:100FF00008012068FFF77AFA3146A2682068FFF7F7
:101000009FFAD4E901022946236BFFF74FFAA16842
:10101000206850F8212042F0010240F821200020F1
:1010200070BDFFF7C1BA10B5401EB0F1807F01D38B
:10103000012010BD4FF0E02460610F21601700F027
:101040005FFA0020A06107202061002010BD70B56C
:10105000040004D094F83D00002510B106E0012002
:1010600070BD84F83C50204600F022F8242084F81B
:101070003D002068C16821F40051C160204600F0A5
:1010800093F92068016921F4904101612068416968
:1010900021F02A0141612068C16841F40051C1601A
:1010A0002564202084F83D0084F83E00002070BDB7
:1010B00010B586B0044614216846FFF7B9F8144904
:1010C0002068884221D11348016841F01001016075
:1010D000006800F0100005900E481438016841F0D7
:1010E000010101600068694600F0010005904FF4BD
:1010F000C060009002200190012002900320039024
:10110000072004900448FFF717FB06B010BD00004D
:10111000001001404438024000000240FEE7000099
:1011200010B58EB01C216846FFF782F81C2107A875
:10113000FFF77EF81B484FF02041102201601A494A
:101140004160062181600021C160C0E90412816113
:10115000C16113020162C0E909139302C0E90B13D4
:101160004163816341640F203C230090CDE901037A
:101170000DF10C0C112306918CE80D000924CDE92A
:1011800007400DF1280C0D9109948CE80D0007AA79
:1011900069460448FFF71AFF002801D0FFF785F9D8
:1011A0000EB010BDB8000020040100A02DE9F041F0
:1011B00086B014216846FFF73BF83F48016841F0CC
:1011C00010010160016801F010010591016841F012
:1011D00020010160016801F020010591016841F0E2
:1011E00080010160016801F080010591016841F012
:1011F00002010160016801F002010591016841F0FE
:1012000008010160016801F008010591016841F0E1
:1012100001010160016801F001010591016841F0DF
:10122000400101600068254F00F040004FF4C065A8
:101230000590012229463846FFF781FB0122DFF89D
:101240008080D60331464046FFF779FB1C20009092
:101250001C480124CDE9010469461B48FFF76CFADC
:10126000CDE90054022569463846CDE90245FFF72D
:1012700063FA0096CDE90145694640460395FFF7BC
:101280005BFA012211460820FFF7CEFB0820FFF78A
:10129000BDFB012211460920FFF7C6FB0920FFF71D
:1012A000B5FB012211460A20FFF7BEFB0A20FFF71B
:1012B000ADFB06B0BDE8F0813038024000140240BA
:1012C0000004024000002110001002400C4810B53C
:1012D0000A4901604FF4E1314160002181600C2234
:1012E000C160C0E904128161C161FFF7B0FE00284E
:1012F00003D0BDE81040FFF7D8B810BD0010014082
:1013000008010020FEE7704770477047FFF722BBD7
:1013100030B593B030216846FEF78AFF14210CA83F
:10132000FEF786FF1A480025016841F080510160F0
:10133000006800F0805011901648016841F4804127
:1013400001600068022400F48040119001200090A8
:10135000000401908001CDE90640082008904FF478
:10136000A870CDE9090404200B906846FFF778FCCB
:101370000CA90F2081E831004FF4A0500F90E0023B
:10138000109005210CA8FFF781FB13B030BD0000C1
:1013900040380240007000400248016841F470018A
:1013A0000160704788ED00E070B50446006801698F
:1013B000E26821F44051114301612169A068E269AA
:1013C00008436169114308432168CA6849F20C6304
:1013D0009A430243CA6020684169A26921F44071BE
:1013E0001143416131492068884202D03049884226
:1013F00002D1FFF7F5FB01E0FFF7E2FBE269002312
:10140000192164253226B2F5004F626828D0A0FB6E
:101410000101930F9200FEF7D3FE0146B0FBF5F0F9
:101420006FF01802504301EB800006EB0010B0FB98
:10143000F5F000F0F002B1FBF5F002EB0012B1FBA9
:10144000F5F06FF01803584301EB800006EB001035
:10145000B0FBF5F000F00F0021681044886070BD0B
:10146000A0FB010192185B41FEF7AAFE0146B0FB0A
:10147000F5F00201B1FBF5F06FF01803584301EBF2
:10148000800006EBC000B0FBF5F000F0F80002EBC6
:101490004002B1FBF5F0584301EB800006EBC000C1
:1014A000B0FBF5F000F00700D6E7000000100140A7
:1014B00000140140FEE700000FB4054B10B503A96E
:1014C000044A029800F03CF810BC5DF814FB0000E0
:1014D000AD1900083C0000200FB4084B10B504A95A
:1014E00002AA039800F02CF8044602A9002000F09C
:1014F00058FA204610BC5DF814FB0000A319000840
:101500000907090E002804DB00F1E02080F8001430
:10151000704700F00F0000F1E02080F8141D7047C4
:1015200002E008C8121F08C1002AFAD170477047AC
:10153000002001E001C1121F002AFBD1704700000A
:101540002DE9FF4F8DB00F460546002606E0252801
:101550000BD0DDE90F1290476D1C761C287800280F
:10156000F5D111B03046BDE8F08F0024A246A14667
:101570000122EC4900E0044315F8013F203B02FA48
:1015800003F00842F7D128782A2810D06FF02F02F4
:101590002878A0F13001092914D80AEB8A0102EB5E
:1015A000410144F0020400EB010A6D1CF0E701CF99
:1015B0005FEA000A03D544F40054CAF1000A44F07B
:1015C00002046D1C28782E2817D115F8010F44F05D
:1015D00004042A280ED06FF02F022878A0F13001E1
:1015E00009290AD809EB890102EB410100EB010945
:1015F0006D1CF2E757F8049B6D1C28786C280FD0FF
:1016000006DC4C2817D068280DD06A2814D104E0D5
:10161000742810D07A280FD10DE044F400140AE0A9
:1016200044F4801401E044F440146978814202D10A
:1016300004F580146D1C6D1C2A786E2A1FD00CDCFA
:10164000632A31D004DC002A8BD0582A11D1A3E0C0
:10165000642A68D0692A0CD165E0732A2ED004DC94
:101660006F2A73D0702A04D19BE0752A6FD0782A34
:101670006ED01046DDE90F129047761C50E1C4F39E
:101680000250022806D0032809D0042801CF09D02F
:10169000066045E101CFF117C0E9006140E101CFEB
:1016A00006803DE106703BE117F8040B8DF8000061
:1016B00000208DF80100EB46012003E057F804BB41
:1016C0004FF0FF3061074FF0000102D40DE008F148
:1016D0000101884649450FDA8045F8DB1BF8081000
:1016E0000029F4D108E008F1010188468142FADBC3
:1016F0001BF808100029F6D1DDE90F23AAEB08003A
:101700008146214600F036F9304400EB080604E03B
:10171000DDE90F121BF8010B9047B8F10108F7D271
:1017200021464846F7E00A21C4F302534FF0000B6C
:101730000891022B04D001CFC117032B09D00AE076
:10174000FF1D27F00707F7E8020108E032E01FE07D
:1017500020E000B2C117042B01D140B2C117031E13
:1017600071F1000307DA4FF0000CD0EB0C006CEBCA
:1017700001012D2302E0230504D52B238DF824300D
:10178000012303E0E30701D02023F7E7984658E060
:101790000A2110E010210EE010204FF0000B0890FD
:1017A0000CE010214FF0000B44F004044FF0080946
:1017B000089103E008214FF0000B0891C4F3025395
:1017C000022B04D001CF0021032B06D006E0FF1D21
:1017D00027F00707F7E8020103E080B2042B00D1ED
:1017E000C0B24FF0000823072BD5702A07D0DDF8D0
:1017F00020C08CF0100C5CEA0B0C05D00EE04023EE
:101800008DF82430012308E050EA010306D030238C
:101810008DF824308DF8252002239846DDF820C06D
:101820008CF0080C5CEA0B0C0BD150EA010301D1DF
:10183000630706D530238DF824304FF00108A9F155
:101840000109582A04D038A20B9208AA0A920BE088
:101850003AA2F9E75B46089AFEF7B2FC0B9B9B5C49
:101860000A9A521E0A92137050EA0102F2D10A98A3
:10187000ADEB000000F1200B600702D524F48034AA
:1018800001E04FF00109D94502DDA9EB0B0000E0B2
:10189000002000EB0B0141440890AAEB010AE00391
:1018A00006D4DDE90F232146504600F063F80644D4
:1018B0004FF0000908E009A911F80900DDE90F124D
:1018C000904709F10109761CC145F4DBE0030CD512
:1018D000DDE90F232146504600F04CF8064404E0B1
:1018E000DDE90F1230209047761C0899481E0890B9
:1018F0000029F5DC08E00A980A990078491C0A9149
:10190000DDE90F129047761CBBF10001ABF1010B32
:10191000F1DC21465046DDE90F2300F019F80644BA
:101920006D1C1BE60928010030313233343536375F
:10193000383961626364656600000000303132331B
:1019400034353637383941424344454600000000BB
:101950002DE9F041044600251E461746880404D4AC
:1019600005E039462020B0476D1C641EF9D5284695
:10197000BDE8F0812DE9F041044600251E46904661
:10198000C80301D5302700E02027880404D505E0EE
:1019900041463846B0476D1C641EF9D52846BDE85F
:1019A000F0810A68531C0B601070704703490A6885
:1019B0005206FCD5C2B24A607047000000100140D8
:1019C00070B50A490646002408884D8821464543DB
:1019D000204602F023FF03F075F84FF0D84002E0F4
:1019E000A0F88060641CAC42FAD370BD40000020B7
:1019F0002DE9F04F38492C260A46887192884FF419
:101A0000305A4FF4285B41F6631E2B274FF02A0C07
:101A10004FF0F00845F210594FF448754FF4A07498
:101A20004FF4F07358B10C80A1F802804A4530D1D0
:101A3000A1F808A0A1F80AB03802888141E0A1F815
:101A400000804C804A4507D1A1F808A0A1F80AB04F
:101A50004FF42C50888105E072450E8105D14F81ED
:101A6000A1F80CC00B804D8002E0A1F80AC08F8164
:101A7000A2F5A640103803D0A2F5EE40963801D169
:101A80000C804B80A2F5184006381FD10B804D808A
:101A90001CE0724511D0A2F5184006380DD00E8119
:101AA000A1F80AC0A1F80C70A2F5A64010380BD01E
:101AB000A2F5EE40963807D008E00E81A1F80AC0E2
:101AC0008F810D804B80EFE70B804C80BDE8F04F9D
:101AD000002002F0BDBD00004000002006488088C4
:101AE000A0F5AA41103903D05FF0280002F0DEBF54
:101AF0004FF42050FAE7000040000020064880889C
:101B0000A0F5AA41103903D05FF0290002F0CEBF42
:101B10004FF42450FAE700004000002010B51446AE
:101B200002F07CFE02F0CEFF4FF0D840A0F88040DB
:101B300010BD10B5CF2002F0B9FF002002F0AAFFBF
:101B4000C12002F0A7FF302002F0A4FFED2002F038
:101B5000ADFF642002F09EFF032002F09BFF1220E5
:101B600002F098FF812002F095FFE82002F09EFF2E
:101B7000852002F08FFF102002F08CFF7A2002F007
:101B800089FFCB2002F092FF392002F083FF2C2046
:101B900002F080FF002002F07DFF342002F07AFF87
:101BA000022002F077FFF72002F080FF202002F0F1
:101BB00071FFEA2002F07AFF002002F06BFF0020A4
:101BC00002F068FFC02002F071FF1B2002F062FFEC
:101BD000C12002F06BFF012002F05CFFC52002F083
:101BE00065FF302002F056FF302002F053FFC7207F
:101BF00002F05CFFB72002F04DFF362002F056FFE6
:101C0000482002F047FF3A2002F050FF552002F032
:101C100041FFB12002F04AFF002002F03BFF1A20F2
:101C200002F038FFB62002F041FF0A2002F032FF36
:101C3000A22002F02FFFF22002F038FF002002F075
:101C400029FF262002F032FF012002F023FFE020CE
:101C500002F02CFF0F2002F01DFF2A2002F01AFFD5
:101C6000282002F017FF082002F014FF0E2002F0D7
:101C700011FF082002F00EFF542002F00BFFA920F4
:101C800002F008FF432002F005FF0A2002F002FFE5
:101C90000F2002F0FFFE002002F0FCFE002002F008
:101CA000F9FE002002F0F6FE002002F0F3FEE12033
:101CB00002F0FCFE002002F0EDFE152002F0EAFE2C
:101CC000172002F0E7FE072002F0E4FE112002F0E8
:101CD000E1FE062002F0DEFE2B2002F0DBFE5620A5
:101CE00002F0D8FE3C2002F0D5FE052002F0D2FE24
:101CF000102002F0CFFE0F2002F0CCFE3F2002F0B9
:101D0000C9FE3F2002F0C6FE0F2002F0C3FE2B20CA
:101D100002F0CCFE002002F0BDFE002002F0BAFE70
:101D2000012002F0B7FE3F2002F0B4FE2A2002F0AC
:101D3000BDFE002002F0AEFE002002F0ABFE00204F
:101D400002F0A8FEEF2002F0A5FE112002F0AEFE88
:101D50007820FEF717FCBDE81040292002F0A6BE4F
:101D600010B5FF2002F0A2FEFF2002F093FE9820A3
:101D700002F090FE062002F08DFEBC2002F096FEDE
:101D8000012002F087FE0F2002F084FE612002F0A5
:101D900081FEFF2002F07EFE012002F07BFE01208A
:101DA00002F078FE0B2002F075FE102002F072FEA9
:101DB000372002F06FFE632002F06CFEFF2002F07D
:101DC00069FEFF2002F066FE012002F063FE0120A2
:101DD00002F060FE002002F05DFE002002F05AFEDC
:101DE000FF2002F057FE522002F054FE012002F0C4
:101DF00051FE002002F04EFE402002F04BFEBD20BE
:101E000002F054FE012002F045FE232002F042FEC3
:101E1000452002F03FFE672002F03CFE012002F068
:101E200039FE232002F036FE452002F033FE672003
:101E300002F030FEBE2002F039FE002002F02AFE41
:101E4000012002F027FEAB2002F024FE602002F009
:101E500021FE222002F01EFE222002F01BFE222084
:101E600002F018FE222002F015FE222002F012FEDF
:101E7000C72002F01BFE362002F00CFEED2002F01F
:101E800015FE7F2002F006FE0F2002F003FEC020A8
:101E900002F00CFE0F2002F0FDFD0B2002F0FAFD17
:101EA0000A2002F0F7FDFC2002F000FE082002F0FC
:101EB000F1FDDF2002F0FAFD002002F0EBFD002032
:101EC00002F0E8FD002002F0E5FD002002F0E2FD56
:101ED000002002F0DFFD202002F0DCFDF32002F004
:101EE000E5FD742002F0D6FDB42002F0DFFD0020F5
:101EF00002F0D0FD002002F0CDFD002002F0CAFD6E
:101F0000F72002F0D3FD822002F0C4FDB12002F0E0
:101F1000CDFD002002F0BEFD132002F0BBFD13201A
:101F200002F0B8FDF22002F0C1FD802002F0B2FD07
:101F3000042002F0AFFD402002F0ACFD282002F0AA
:101F4000A9FDC12002F0B2FD172002F0A3FD8820F8
:101F500002F0A0FD882002F09DFD202002F09AFDF5
:101F6000E02002F0A3FD002002F094FD0A2002F020
:101F700091FD122002F08EFD102002F08BFD0E204C
:101F800002F088FD202002F085FDCC2002F082FDC9
:101F9000072002F07FFD062002F07CFD0B2002F0FE
:101FA00079FD0E2002F076FD0F2002F073FD0D206A
:101FB00002F070FD152002F06DFD102002F06AFDA8
:101FC000002002F067FDE12002F070FD002002F029
:101FD00061FD0B2002F05EFD132002F05BFD0D2081
:101FE00002F058FD0E2002F055FD1B2002F052FDBC
:101FF000712002F04FFD062002F04CFD062002F099
:1020000049FD0A2002F046FD0F2002F043FD0E209C
:1020100002F040FD0F2002F03DFD152002F03AFDD8
:102020000C2002F037FD002002F034FD2A2002F0DF
:102030003DFD002002F02EFD002002F02BFD0120CE
:1020400002F028FDDF2002F025FD2B2002F02EFDFE
:10205000002002F01FFD002002F01CFD032002F012
:1020600019FD1F2002F016FD3A2002F01FFD552039
:1020700002F010FD362002F019FD002002F00AFDEA
:10208000112002F013FD7820FEF77CFA292002F0DF
:102090000DFD1420FEF776FABDE810402C2002F06A
:1020A00005BD10B5ED2002F001FD012002F0F2FCAB
:1020B000FE2002F0EFFCEE2002F0F8FCDE2002F041
:1020C000E9FC212002F0E6FCF12002F0EFFC012007
:1020D00002F0E0FCDF2002F0E9FC102002F0DAFC64
:1020E000C42002F0E3FC8F2002F0D4FCC62002F0F2
:1020F000DDFC002002F0CEFCE22002F0CBFCE2206E
:1021000002F0C8FCE22002F0C5FCBF2002F0CEFCC9
:10211000AA2002F0BFFCB02002F0C8FC0D2002F0A3
:10212000B9FC002002F0B6FC0D2002F0B3FC002048
:1021300002F0B0FC112002F0ADFC002002F0AAFC7D
:10214000192002F0A7FC002002F0A4FC212002F0DC
:10215000A1FC002002F09EFC2D2002F09BFC002040
:1021600002F098FC3D2002F095FC002002F092FC69
:102170005D2002F08FFC002002F08CFC5D2002F05C
:1021800089FC002002F086FCB12002F08FFC802048
:1021900002F080FC002002F07DFC8B2002F07AFC33
:1021A000002002F077FC962002F074FC002002F080
:1021B00071FCB22002F07AFC002002F06BFC0020DF
:1021C00002F068FC022002F065FC002002F062FCD4
:1021D000032002F05FFC002002F05CFCB32002F060
:1021E00065FC002002F056FC002002F053FC0020A9
:1021F00002F050FC002002F04DFC002002F04AFCEE
:10220000002002F047FC002002F044FC002002F015
:1022100041FC002002F03EFC002002F03BFC0020CC
:1022200002F038FC002002F035FC002002F032FC05
:10223000002002F02FFC002002F02CFC002002F015
:1022400029FC002002F026FC002002F023FC0020E4
:1022500002F020FC002002F01DFC002002F01AFC1D
:10226000002002F017FC002002F014FC002002F015
:1022700011FCB42002F01AFC8B2002F00BFC0020B1
:1022800002F008FC962002F005FC002002F002FC9F
:10229000A12002F0FFFB002002F0FCFBB52002F0C1
:1022A00005FC022002F0F6FB002002F0F3FB032005
:1022B00002F0F0FB002002F0EDFB042002F0EAFB4C
:1022C000002002F0E7FBB62002F0F0FB002002F055
:1022D000E1FB002002F0DEFBB72002F0E7FB00206C
:1022E00002F0D8FB002002F0D5FB3F2002F0D2FB29
:1022F000002002F0CFFB5E2002F0CCFB002002F0B9
:10230000C9FB642002F0C6FB002002F0C3FB8C2056
:1023100002F0C0FB002002F0BDFBAC2002F0BAFBD3
:10232000002002F0B7FBDC2002F0B4FB002002F03A
:10233000B1FB702002F0AEFB002002F0ABFB90205E
:1023400002F0A8FB002002F0A5FBEB2002F0A2FBAC
:10235000002002F09FFBDC2002F09CFB002002F03A
:1023600099FBB82002F0A2FB002002F093FB0020B2
:1023700002F090FB002002F08DFB002002F08AFBAF
:10238000002002F087FB002002F084FB002002F016
:1023900081FB002002F07EFBBA2002F087FB2420A4
:1023A00002F078FB002002F075FB002002F072FBC7
:1023B000002002F06FFBC12002F078FB202002F029
:1023C00069FB002002F066FB542002F063FB002052
:1023D00002F060FBFF2002F05DFB002002F05AFBE0
:1023E000C22002F063FB0A2002F054FB002002F03E
:1023F00051FB042002F04EFB002002F04BFBC320F7
:1024000002F054FB3C2002F045FB002002F042FBAE
:102410003A2002F03FFB002002F03CFB392002F0A2
:1024200039FB002002F036FB372002F033FB00209E
:1024300002F030FB3C2002F02DFB002002F02AFBD2
:10244000362002F027FB002002F024FB322002F0AD
:1024500021FB002002F01EFB2F2002F01BFB0020BE
:1024600002F018FB2C2002F015FB002002F012FBFA
:10247000292002F00FFB002002F00CFB262002F0C6
:1024800009FB002002F006FB242002F003FB0020E1
:1024900002F000FB242002F0FDFA002002F0FAFA1C
:1024A000232002F0F7FA002002F0F4FA3C2002F0B8
:1024B000F1FA002002F0EEFA362002F0EBFA0020EA
:1024C00002F0E8FA322002F0E5FA002002F0E2FA27
:1024D0002F2002F0DFFA002002F0DCFA2C2002F0BC
:1024E000D9FA002002F0D6FA292002F0D3FA00200F
:1024F00002F0D0FA262002F0CDFA002002F0CAFA4B
:10250000242002F0C7FA002002F0C4FA242002F0CE
:10251000C1FA002002F0BEFA232002F0BBFA00202C
:1025200002F0B8FAC42002F0C1FA622002F0B2FA56
:10253000002002F0AFFA052002F0ACFA002002F011
:10254000A9FA842002F0A6FA002002F0A3FAF020F3
:1025500002F0A0FA002002F09DFA182002F09AFA88
:10256000002002F097FAA42002F094FA002002F072
:1025700091FA182002F08EFA002002F08BFA502017
:1025800002F088FA002002F085FA0C2002F082FAAC
:10259000002002F07FFA172002F07CFA002002F0FF
:1025A00079FA952002F076FA002002F073FAF3200F
:1025B00002F070FA002002F06DFAE62002F06AFAEA
:1025C000002002F067FAC52002F070FA322002F013
:1025D00061FA002002F05EFA442002F05BFA00206B
:1025E00002F058FA652002F055FA002002F052FA83
:1025F000762002F04FFA002002F04CFA882002F018
:1026000049FA002002F046FAC62002F04FFA2020D4
:1026100002F040FA002002F03DFA172002F03AFAE8
:10262000002002F037FA012002F034FA002002F014
:1026300031FAC72002F03AFA002002F02BFA00200B
:1026400002F028FA002002F025FA002002F022FA17
:10265000C82002F02BFA002002F01CFA002002F041
:1026600019FA002002F016FA002002F013FAC9202D
:1026700002F01CFA002002F00DFA002002F00AFA23
:10268000002002F007FA002002F004FA002002F015
:1026900001FA002002F0FEF9002002F0FBF9002010
:1026A00002F0F8F9002002F0F5F9002002F0F2F94A
:1026B000002002F0EFF9002002F0ECF9002002F017
:1026C000E9F9002002F0E6F9002002F0E3F9002029
:1026D00002F0E0F9E02002F0E9F9162002F0DAF960
:1026E000002002F0D7F91C2002F0D4F9002002F0FB
:1026F000D1F9212002F0CEF9002002F0CBF93620EA
:1027000002F0C8F9002002F0C5F9462002F0C2F933
:10271000002002F0BFF9522002F0BCF9002002F0C4
:10272000B9F9642002F0B6F9002002F0B3F97A207A
:1027300002F0B0F9002002F0ADF98B2002F0AAF906
:10274000002002F0A7F9992002F0A4F9002002F07D
:10275000A1F9A82002F09EF9002002F09BF9B9200F
:1027600002F098F9002002F095F9C42002F092F9E5
:10277000002002F08FF9CA2002F08CF9002002F04C
:1027800089F9D22002F086F9002002F083F9D920DD
:1027900002F080F9002002F07DF9E02002F07AF9E1
:1027A000002002F077F9F32002F074F9002002F023
:1027B00071F9E12002F07AF9162002F06BF900209D
:1027C00002F068F91C2002F065F9002002F062F9BD
:1027D000222002F05FF9002002F05CF9362002F0BE
:1027E00059F9002002F056F9452002F053F9002073
:1027F00002F050F9522002F04DF9002002F04AF99F
:10280000642002F047F9002002F044F97A2002F037
:1028100041F9002002F03EF98B2002F03BF9002044
:1028200002F038F9992002F035F9002002F032F96F
:10283000A82002F02FF9002002F02CF9B92002F0B4
:1028400029F9002002F026F9C42002F023F9002023
:1028500002F020F9CA2002F01DF9002002F01AF956
:10286000D22002F017F9002002F014F9D82002F06B
:1028700011F9002002F00EF9E02002F00BF900201F
:1028800002F008F9F32002F005F9002002F002F945
:10289000E22002F00BF9052002F0FCF8002002F023
:1028A000F9F80B2002F0F6F8002002F0F3F81B20F4
:1028B00002F0F0F8002002F0EDF8342002F0EAF81F
:1028C000002002F0E7F8442002F0E4F8002002F0D3
:1028D000E1F84F2002F0DEF8002002F0DBF8612082
:1028E00002F0D8F8002002F0D5F8792002F0D2F8F2
:1028F000002002F0CFF8882002F0CCF8002002F08F
:10290000C9F8972002F0C6F8002002F0C3F8A6200C
:1029100002F0C0F8002002F0BDF8B72002F0BAF8CB
:10292000002002F0B7F8C22002F0B4F8002002F054
:10293000B1F8C72002F0AEF8002002F0ABF8D120C9
:1029400002F0A8F8002002F0A5F8D62002F0A2F8C4
:10295000002002F09FF8DD2002F09CF8002002F039
:1029600099F8F32002F096F8002002F093F8E320A3
:1029700002F09CF8052002F08DF8002002F08AF8A1
:102980000A2002F087F8002002F084F81C2002F0F0
:1029900081F8002002F07EF8332002F07BF800205E
:1029A00002F078F8442002F075F8002002F072F886
:1029B000502002F06FF8002002F06CF8622002F064
:1029C00069F8002002F066F8782002F063F8002031
:1029D00002F060F8882002F05DF8002002F05AF85A
:1029E000972002F057F8002002F054F8A62002F0D9
:1029F00051F8002002F04EF8B72002F04BF800200A
:102A000002F048F8C22002F045F8002002F042F837
:102A1000C72002F03FF8002002F03CF8D12002F07D
:102A200039F8002002F036F8D52002F033F8002003
:102A300002F030F8DD2002F02DF8002002F02AF834
:102A4000F32002F027F8002002F024F8E42002F03E
:102A50002DF8012002F01EF8002002F01BF80120E2
:102A600002F018F8002002F015F8022002F012F827
:102A7000002002F00FF82A2002F00CF8002002F0EB
:102A800009F83C2002F006F8002002F003F84B2081
:102A900002F000F8002001F0FDFF5D2001F0FAFFD8
:102AA000002001F0F7FF742001F0F4FF002001F096
:102AB000F1FF842001F0EEFF002001F0EBFF9320F6
:102AC00001F0E8FF002001F0E5FFA22001F0E2FFA5
:102AD000002001F0DFFFB32001F0DCFF002001F057
:102AE000D9FFBE2001F0D6FF002001F0D3FFC420A3
:102AF00001F0D0FF002001F0CDFFCD2001F0CAFF92
:102B0000002001F0C7FFD32001F0C4FF002001F036
:102B1000C1FFDD2001F0BEFF002001F0BBFFF3206C
:102B200001F0B8FF002001F0B5FFE52001F0BEFF85
:102B3000002001F0AFFF002001F0ACFF002001F009
:102B4000A9FF002001F0A6FF022001F0A3FF002052
:102B500001F0A0FF292001F09DFF002001F09AFF65
:102B60003C2001F097FF002001F094FF4B2001F082
:102B700091FF002001F08EFF5D2001F08BFF00200F
:102B800001F088FF742001F085FF002001F082FF32
:102B9000842001F07FFF002001F07CFF932001F0F2
:102BA00079FF002001F076FFA22001F073FF0020E2
:102BB00001F070FFB32001F06DFF002001F06AFF0B
:102BC000BE2001F067FF002001F064FFC42001F087
:102BD00061FF002001F05EFFCD2001F05BFF0020CF
:102BE00001F058FFD32001F055FF002001F052FF03
:102BF000DC2001F04FFF002001F04CFFF32001F03A
:102C000049FF002001F046FFE62001F04FFF1120B0
:102C100001F040FF002001F03DFF342001F03AFFB9
:102C2000002001F037FF562001F034FF002001F0B2
:102C300031FF762001F02EFF002001F02BFF7720DE
:102C400001F028FF002001F025FF662001F022FF9F
:102C5000002001F01FFF882001F01CFF002001F080
:102C600019FF992001F016FF002001F013FFBB208F
:102C700001F010FF002001F00DFF992001F00AFF84
:102C8000002001F007FF662001F004FF002001F0A2
:102C900001FF552001F0FEFE002001F0FBFE552053
:102CA00001F0F8FE002001F0F5FE452001F0F2FEF3
:102CB000002001F0EFFE432001F0ECFE002001F0C7
:102CC000E9FE442001F0E6FE002001F0E3FEE720EB
:102CD00001F0ECFE322001F0DDFE002001F0DAFE12
:102CE000552001F0D7FE002001F0D4FE762001F03F
:102CF000D1FE002001F0CEFE662001F0CBFE0020C8
:102D000001F0C8FE672001F0C5FE002001F0C2FE00
:102D1000672001F0BFFE002001F0BCFE872001F01B
:102D2000B9FE002001F0B6FE992001F0B3FE0020AC
:102D300001F0B0FEBB2001F0ADFE002001F0AAFEC4
:102D4000992001F0A7FE002001F0A4FE772001F0F9
:102D5000A1FE002001F09EFE442001F09BFE002019
:102D600001F098FE562001F095FE002001F092FE41
:102D7000232001F08FFE002001F08CFE332001F0B3
:102D800089FE002001F086FE452001F083FE002030
:102D900001F080FEE82001F089FE002001F07AFEBB
:102DA000002001F077FE992001F074FE002001F070
:102DB00071FE872001F06EFE002001F06BFE88207E
:102DC00001F068FE002001F065FE772001F062FE50
:102DD000002001F05FFE662001F05CFE002001F0A3
:102DE00059FE882001F056FE002001F053FEAA2073
:102DF00001F050FE002001F04DFEBB2001F04AFE24
:102E0000002001F047FE992001F044FE002001F06F
:102E100041FE662001F03EFE002001F03BFE552001
:102E200001F038FE002001F035FE552001F032FEA1
:102E3000002001F02FFE442001F02CFE002001F0C4
:102E400029FE442001F026FE002001F023FE55203B
:102E500001F020FE002001F01DFEE92001F026FE19
:102E6000AA2001F017FE002001F014FE002001F05E
:102E700011FE002001F00EFE002001F017FEAA2036
:102E800001F008FECF2001F011FE002001F002FE4B
:102E9000002001F0FFFD002001F0FCFD002001F00A
:102EA000F9FD002001F0F6FD002001F0F3FD002007
:102EB00001F0F0FD002001F0EDFD002001F0EAFD41
:102EC000002001F0E7FD002001F0E4FD002001F00A
:102ED000E1FD002001F0DEFD002001F0DBFD00201F
:102EE00001F0D8FD002001F0D5FD002001F0D2FD59
:102EF000F02001F0DBFD002001F0CCFD502001F0BE
:102F0000C9FD002001F0C6FD002001F0C3FD002036
:102F100001F0C0FDF32001F0C9FD002001F0BAFD71
:102F2000F92001F0C3FD062001F0B4FD102001F0EE
:102F3000B1FD292001F0AEFD002001F0ABFD3A20EB
:102F400001F0B4FD552001F0A5FD112001F0AEFD0A
:102F50006420FDF717FB292001F0A8FD352001F0C2
:102F6000A5FD002001F096FD512001F09FFDFF20FE
:102F700001F090FD532001F099FD2C2001F08AFD15
:102F8000552001F093FD822001F084FDBDE8104042
:102F90002C2001F08BBD2DE9F05F4FF470435521DB
:102FA000184601F099FD4FF20104AA21204601F0D4
:102FB00093FD651C5221284601F08EFDA61C0821B8
:102FC000304601F089FDE71C0121384601F084FDFF
:102FD0000D214FF4304001F07FFD0D214BF2010037
:102FE00001F07AFD0D214BF2020001F075FD4FF466
:102FF00036483421404601F06FFD34214BF2016028
:1030000001F06AFD34214BF2026001F065FD4FF4DE
:1030100031490D21484601F05FFD4BF2011A0D21A7
:10302000504601F059FD0D214BF2021001F054FD04
:103030004FF4374B3421584601F04EFD34214BF20A
:10304000017001F049FD34214BF2027001F044FDA2
:1030500000214FF4324001F03FFD00214BF20120EE
:1030600001F03AFD00214BF2022001F035FD242150
:103070004FF4384001F030FD24214BF6010001F0FF
:103080002BFD24214BF6020001F026FD01214FF417
:103090003F4001F021FD0F214FF4334001F01CFDB2
:1030A0000F214BF2013001F017FD0F214BF20230DE
:1030B00001F012FD34214FF4394001F00DFD3421AF
:1030C0004BF6011001F008FD34214BF6021001F01F
:1030D00003FD08214FF4354001F0FEFC08214BF2BE
:1030E000015001F0F9FC08214BF2025001F0F4FC10
:1030F00003214FF4424001F0EFFC24214FF43A4009
:1031000001F0EAFC24214BF6012001F0E5FC24212A
:103110004BF6022001F0E0FC00214FF43C4001F0AE
:10312000DBFC78214BF6014001F0D6FC00214BF688
:10313000024001F0D1FC00214FF43D4001F0CCFCF5
:1031400078214BF6015001F0C7FC00214BF60250EC
:1031500001F0C2FC00214FF43E4001F0BDFC6421AF
:103160004BF6016001F0B8FC00214FF4514001F032
:10317000B3FC33214DF2011001F0AEFC00214DF201
:10318000021001F0A9FC34214DF2031001F0A4FC5F
:1031900000214DF2041001F09FFC3A214DF2051080
:1031A00001F09AFC00214DF2061001F095FC4A2135
:1031B0004DF2071001F090FC00214DF2081001F0D3
:1031C0008BFC5C214DF2091001F086FC00214DF2D0
:1031D0000A1001F081FC81214DF20B1001F07CFC02
:1031E00000214DF20C1001F077FCA6214DF20D10DC
:1031F00001F072FC00214DF20E1001F06DFCE52192
:103200004DF20F1001F068FC01214DF2101001F099
:1032100063FC13214DF2111001F05EFC01214DF20F
:10322000121001F059FC54214DF2131001F054FC1E
:1032300001214DF2141001F04FFC82214DF21510C6
:1032400001F04AFC01214DF2161001F045FCCA21A3
:103250004DF2171001F040FC02214DF2181001F060
:103260003BFC00214DF2191001F036FC02214DF219
:103270001A1001F031FC01214DF21B1001F02CFC61
:1032800002214DF21C1001F027FC34214DF21D10DB
:1032900001F022FC02214DF21E1001F01DFC6721FD
:1032A0004DF21F1001F018FC02214DF2201001F028
:1032B00013FC84214DF2211001F00EFC02214DF28D
:1032C000221001F009FCA4214DF2231001F004FCAE
:1032D00002214DF2241001F0FFFBB7214DF2251021
:1032E00001F0FAFB02214DF2261001F0F5FBCF218F
:1032F0004DF2271001F0F0FB02214DF2281001F0F1
:10330000EBFBDE214DF2291001F0E6FB02214DF22C
:103310002A1001F0E1FBF2214DF22B1001F0DCFB51
:1033200002214DF22C1001F0D7FBFE214DF22D10A1
:1033300001F0D2FB03214DF22E1001F0CDFB102144
:103340004DF22F1001F0C8FB03214DF2301001F0B7
:10335000C3FB33214DF2311001F0BEFB03214DF2CE
:10336000321001F0B9FB6D214DF2331001F0B4FBC6
:1033700000214FF4524001F0AFFB33214DF2012008
:1033800001F0AAFB00214DF2022001F0A5FB34213F
:103390004DF2032001F0A0FB00214DF2042001F0CA
:1033A0009BFB3A214DF2052001F096FB00214DF2E6
:1033B000062001F091FB4A214DF2072001F08CFB21
:1033C00000214DF2082001F087FB5C214DF209201D
:1033D00001F082FB00214DF20A2001F07DFB8121EA
:1033E0004DF20B2001F078FB00214DF20C2001F092
:1033F00073FBA6214DF20D2001F06EFB00214DF272
:103400000E2001F069FBE5214DF20F2001F064FB75
:1034100001214DF2102001F05FFB13214DF211202C
:1034200001F05AFB01214DF2122001F055FB54210D
:103430004DF2132001F050FB01214DF2142001F058
:103440004BFB82214DF2152001F046FB01214DF28C
:10345000162001F041FBCA214DF2172001F03CFB80
:1034600002214DF2182001F037FB00214DF2192006
:1034700001F032FB02214DF21A2001F02DFB012157
:103480004DF21B2001F028FB02214DF21C2001F01F
:1034900023FB34214DF21D2001F01EFB02214DF2D1
:1034A0001E2001F019FB67214DF21F2001F014FBD3
:1034B00002214DF2202001F00FFB84214DF221204A
:1034C00001F00AFB02214DF2222001F005FBA421AC
:1034D0004DF2232001F000FB02214DF2242001F0E7
:1034E000FBFAB7214DF2252001F0F6FA02214DF248
:1034F000262001F0F1FACF214DF2272001F0ECFA5D
:1035000002214DF2282001F0E7FADE214DF22920B8
:1035100001F0E2FA02214DF22A2001F0DDFAF22157
:103520004DF22B2001F0D8FA02214DF22C2001F0AF
:10353000D3FAFE214DF22D2001F0CEFA03214DF2F7
:103540002E2001F0C9FA10214DF22F2001F0C4FA0B
:1035500003214DF2302001F0BFFA33214DF231202A
:1035600001F0BAFA03214DF2322001F0B5FA6D21D3
:103570004DF2332001F0B0FA00214FF4534001F036
:10358000ABFA33214DF2013001F0A6FA00214DF2E1
:10359000023001F0A1FA34214DF2033001F09CFA1F
:1035A00000214DF2043001F097FA3A214DF2053036
:1035B00001F092FA00214DF2063001F08DFA4A2115
:1035C0004DF2073001F088FA00214DF2083001F089
:1035D00083FA5C214DF2093001F07EFA00214DF2B0
:1035E0000A3001F079FA81214DF20B3001F074FAC2
:1035F00000214DF20C3001F06FFAA6214DF20D3092
:1036000001F06AFA00214DF20E3001F065FAE52171
:103610004DF20F3001F060FA01214DF2103001F04F
:103620005BFA13214DF2113001F056FA01214DF2EF
:10363000123001F051FA54214DF2133001F04CFADE
:1036400001214DF2143001F047FA82214DF215307C
:1036500001F042FA01214DF2163001F03DFACA2183
:103660004DF2173001F038FA02214DF2183001F016
:1036700033FA00214DF2193001F02EFA02214DF2F9
:103680001A3001F029FA01214DF21B3001F024FA21
:1036900002214DF21C3001F01FFA34214DF21D3091
:1036A00001F01AFA02214DF21E3001F015FA6721DD
:1036B0004DF21F3001F010FA02214DF2203001F0DE
:1036C0000BFA84214DF2213001F006FA02214DF26D
:1036D000223001F001FAA4214DF2233001F0FCF96F
:1036E00002214DF2243001F0F7F9B7214DF22530D7
:1036F00001F0F2F902214DF2263001F0EDF9CF216F
:103700004DF2273001F0E8F902214DF2283001F0A6
:10371000E3F9DE214DF2293001F0DEF902214DF20C
:103720002A3001F0D9F9F2214DF22B3001F0D4F911
:1037300002214DF22C3001F0CFF9FE214DF22D3057
:1037400001F0CAF903214DF22E3001F0C5F9102124
:103750004DF22F3001F0C0F903214DF2303001F06D
:10376000BBF933214DF2313001F0B6F903214DF2AE
:10377000323001F0B1F96D214DF2333001F0ACF986
:1037800000214FF4544001F0A7F933214DF20140DC
:1037900001F0A2F900214DF2024001F09DF934211F
:1037A0004DF2034001F098F900214DF2044001F080
:1037B00093F93A214DF2054001F08EF900214DF2C6
:1037C000064001F089F94A214DF2074001F084F9E1
:1037D00000214DF2084001F07FF95C214DF20940D3
:1037E00001F07AF900214DF20A4001F075F98121CA
:1037F0004DF20B4001F070F900214DF20C4001F048
:103800006BF9A6214DF20D4001F066F900214DF251
:103810000E4001F061F9E5214DF20F4001F05CF935
:1038200001214DF2104001F057F913214DF21140E2
:1038300001F052F901214DF2124001F04DF95421ED
:103840004DF2134001F048F901214DF2144001F00E
:1038500043F982214DF2154001F03EF901214DF26C
:10386000164001F039F9CA214DF2174001F034F940
:1038700002214DF2184001F02FF900214DF21940BC
:1038800001F02AF902214DF21A4001F025F9012137
:103890004DF21B4001F020F902214DF21C4001F0D5
:1038A0001BF934214DF21D4001F016F902214DF2B1
:1038B0001E4001F011F967214DF21F4001F00CF993
:1038C00002214DF2204001F007F984214DF2214000
:1038D00001F002F902214DF2224001F0FDF8A4218D
:1038E0004DF2234001F0F8F802214DF2244001F09E
:1038F000F3F8B7214DF2254001F0EEF802214DF228
:10390000264001F0E9F8CF214DF2274001F0E4F81C
:1039100002214DF2284001F0DFF8DE214DF229406E
:1039200001F0DAF802214DF22A4001F0D5F8F22137
:103930004DF22B4001F0D0F802214DF22C4001F065
:10394000CBF8FE214DF22D4001F0C6F803214DF2D7
:103950002E4001F0C1F810214DF22F4001F0BCF8CB
:1039600003214DF2304001F0B7F833214DF23140E0
:1039700001F0B2F803214DF2324001F0ADF86D21B3
:103980004DF2334001F0A8F800214FF4554001F00A
:10399000A3F833214DF2015001F09EF800214DF2C1
:1039A000025001F099F834214DF2035001F094F8DF
:1039B00000214DF2045001F08FF83A214DF20550EC
:1039C00001F08AF800214DF2065001F085F84A21F5
:1039D0004DF2075001F080F800214DF2085001F03F
:1039E0007BF85C214DF2095001F076F800214DF290
:1039F0000A5001F071F881214DF20B5001F06CF882
:103A000000214DF20C5001F067F8A6214DF20D5047
:103A100001F062F800214DF20E5001F05DF8E52151
:103A20004DF20F5001F058F801214DF2105001F005
:103A300053F813214DF2115001F04EF801214DF2CF
:103A4000125001F049F854214DF2135001F044F89E
:103A500001214DF2145001F03FF882214DF2155032
:103A600001F03AF801214DF2165001F035F8CA2163
:103A70004DF2175001F030F802214DF2185001F0CC
:103A80002BF800214DF2195001F026F802214DF2D9
:103A90001A5001F021F801214DF21B5001F01CF8E1
:103AA00002214DF21C5001F017F834214DF21D5047
:103AB00001F012F802214DF21E5001F00DF86721BD
:103AC0004DF21F5001F008F802214DF2205001F094
:103AD00003F884214DF2215000F0FEFF02214DF247
:103AE000225000F0F9FFA4214DF2235000F0F4FF22
:103AF00002214DF2245000F0EFFFB7214DF2255086
:103B000000F0EAFF02214DF2265000F0E5FFCF2140
:103B10004DF2275000F0E0FF02214DF2285000F056
:103B2000DBFFDE214DF2295000F0D6FF02214DF2DD
:103B30002A5000F0D1FFF2214DF22B5000F0CCFFC3
:103B400002214DF22C5000F0C7FFFE214DF22D5006
:103B500000F0C2FF03214DF22E5000F0BDFF1021F6
:103B60004DF22F5000F0B8FF03214DF2305000F01D
:103B7000B3FF33214DF2315000F0AEFF03214DF27F
:103B8000325000F0A9FF6D214DF2335000F0A4FF38
:103B900000214FF4564000F09FFF33214DF20160A9
:103BA00000F09AFF00214DF2026000F095FF3421F1
:103BB0004DF2036000F090FF00214DF2046000F030
:103BC0008BFF3A214DF2056000F086FF00214DF297
:103BD000066000F081FF4A214DF2076000F07CFF93
:103BE00000214DF2086000F077FF5C214DF2096082
:103BF00000F072FF00214DF20A6000F06DFF81219C
:103C00004DF20B6000F068FF00214DF20C6000F0F7
:103C100063FFA6214DF20D6000F05EFF00214DF222
:103C20000E6000F059FFE5214DF20F6000F054FFE7
:103C300001214DF2106000F04FFF13214DF2116091
:103C400000F04AFF01214DF2126000F045FF5421BF
:103C50004DF2136000F040FF01214DF2146000F0BE
:103C60003BFF82214DF2156000F036FF01214DF23D
:103C7000166000F031FFCA214DF2176000F02CFFF2
:103C800002214DF2186000F027FF00214DF219606B
:103C900000F022FF02214DF21A6000F01DFF012109
:103CA0004DF21B6000F018FF02214DF21C6000F085
:103CB00013FF34214DF21D6000F00EFF02214DF282
:103CC0001E6000F009FF67214DF21F6000F004FF45
:103CD00002214DF2206000F0FFFE84214DF22160B0
:103CE00000F0FAFE02214DF2226000F0F5FEA42160
:103CF0004DF2236000F0F0FE02214DF2246000F04E
:103D0000EBFEB7214DF2256000F0E6FE02214DF2F8
:103D1000266000F0E1FECF214DF2276000F0DCFECE
:103D200002214DF2286000F0D7FEDE214DF229601D
:103D300000F0D2FE02214DF22A6000F0CDFEF22109
:103D40004DF22B6000F0C8FE02214DF22C6000F015
:103D5000C3FEFE214DF22D6000F0BEFE03214DF2A8
:103D60002E6000F0B9FE10214DF22F6000F0B4FE7D
:103D700003214DF2306000F0AFFE33214DF231608F
:103D800000F0AAFE03214DF2326000F0A5FE6D2185
:103D90004DF2336000F0A0FE5521184600F09CFE65
:103DA000AA21204600F098FE5221284600F094FEF9
:103DB0000821304600F090FE0021384600F08CFECD
:103DC000CC21484600F088FE0021504600F084FED9
:103DD0000521404600F080FE7021584600F07CFE30
:103DE00070214BF2017000F077FE01214FF4384052
:103DF00000F072FE03214BF6010000F06DFE03217E
:103E00004BF6020000F068FE03214BF6030000F0C1
:103E100063FE02214FF43C4000F05EFE00214BF6B1
:103E2000014000F059FE00214BF6024000F054FE24
:103E3000D0214FF4494000F04FFE02214CF6011012
:103E400000F04AFE50214CF6021000F045FE5021D1
:103E50004CF6031000F040FE50214CF6041000F028
:103E60003BFE00214FF4545000F036FE55214FF434
:103E7000685000F031FE4FF4885000F017FE7820B3
:103E8000FCF780FBBDE8F05F4FF4245000F00EBE5D
:103E900010B5E22000F00AFE1D2000F0FBFD02201C
:103EA00000F0F8FD042000F0F5FD6420FCF76AFB4B
:103EB000E02000F0FBFD012000F0ECFD0A20FCF703
:103EC00061FBE02000F0F2FD032000F0E3FD0C2098
:103ED000FCF758FB012000F0E9FD0A20FCF752FB3B
:103EE000E62000F0E3FD2F2000F0D4FDFF2000F0DD
:103EF000D1FDFF2000F0CEFDB02000F0D7FD202046
:103F000000F0C8FD002000F0C5FD032000F0C2FD58
:103F100040F21F3000F0BEFD012000F0BBFD40F27A
:103F2000DF1000F0B7FD002000F0B4FDB42000F079
:103F3000BDFD042000F0AEFD40F21F4000F0AAFDE0
:103F4000002000F0A7FD2E2000F0A4FD002000F0CE
:103F5000A1FD002000F09EFD002000F09BFD002050
:103F600000F098FDB62000F0A1FD022000F092FDC7
:103F70004FF4037000F08EFD002000F08BFD172041
:103F800000F088FD152000F085FD002000F082FD86
:103F9000002000F07FFDF02000F088FD032000F0FD
:103FA00079FD292000F082FDD02000F07FFD002067
:103FB00000F070FDBE2000F079FD052000F06AFDE4
:103FC000FE2000F067FD012000F064FD002000F0FD
:103FD00061FD002000F05EFD002000F05BFDB820D8
:103FE00000F064FD032000F055FD012000F052FDBB
:103FF000BA2000F05BFDBDE81040012000F04ABD92
:1040000010B5112000F052FD7820FCF7BBFA3620E5
:1040100000F04CFD002000F03DFD3A2000F046FD90
:10402000052000F037FDB22000F040FD0C2000F02C
:1040300031FD0C2000F02EFD002000F02BFD332080
:1040400000F028FD332000F025FDB72000F02EFD04
:10405000352000F01FFDBB2000F028FD322000F0CD
:1040600019FDC02000F022FD0C2000F013FDC2203D
:1040700000F01CFD012000F00DFDC32000F016FD36
:10408000102000F007FDC42000F010FD202000F0FB
:1040900001FDC62000F00AFD0F2000F0FBFCD0203F
:1040A00000F004FDA42000F0F5FCA12000F0F2FCDB
:1040B000E02000F0FBFCD02000F0ECFC002000F041
:1040C000E9FC022000F0E6FC072000F0E3FC0A20F7
:1040D00000F0E0FC282000F0DDFC322000F0DAFCEB
:1040E000442000F0D7FC422000F0D4FC062000F071
:1040F000D1FC0E2000F0CEFC122000F0CBFC1420EE
:1041000000F0C8FC172000F0C5FCE12000F0CEFC58
:10411000D02000F0BFFC002000F0BCFC022000F02A
:10412000B9FC072000F0B6FC0A2000F0B3FC282000
:1041300000F0B0FC312000F0ADFC542000F0AAFCEF
:10414000472000F0A7FC0E2000F0A4FC1C2000F08B
:10415000A1FC172000F09EFC1B2000F09BFC1E2001
:1041600000F098FC2A2000F0A1FC002000F092FC56
:10417000002000F08FFC002000F08CFCEF2000F00D
:1041800089FC2B2000F092FC002000F083FC002032
:1041900000F080FC012000F07DFC3F2000F07AFC64
:1041A000BDE81040292000F081BC10B5112000F0BE
:1041B0007DFC7820FCF7E6F9362000F077FC4820FB
:1041C00000F068FC3A2000F071FC552000F062FC21
:1041D000F02000F06BFCC32000F05CFCF02000F04D
:1041E00065FC962000F056FCB42000F05FFC012036
:1041F00000F050FCB62000F059FC0A2000F04AFC08
:10420000A22000F047FCB72000F050FCC62000F0D0
:1042100041FCB92000F04AFC022000F03BFCE02009
:1042200000F038FCC02000F041FC802000F032FC9F
:10423000162000F02FFCC12000F038FC192000F0FF
:1042400029FCC22000F032FCA72000F023FCC5208E
:1042500000F02CFC162000F01DFCE82000F026FCED
:10426000402000F017FC8A2000F014FC002000F031
:1042700011FC002000F00EFC292000F00BFC19209E
:1042800000F008FCA52000F005FC332000F002FC43
:10429000E02000F00BFCF02000F0FCFB072000F019
:1042A000F9FB0D2000F0F6FB042000F0F3FB0520E5
:1042B00000F0F0FB142000F0EDFB362000F0EAFBEC
:1042C000542000F0E7FB4C2000F0E4FB382000F025
:1042D000E1FB132000F0DEFB142000F0DBFB2E20BE
:1042E00000F0D8FB342000F0D5FBE12000F0DEFB2D
:1042F000F02000F0CFFB102000F0CCFB142000F0E9
:10430000C9FB0E2000F0C6FB0C2000F0C3FB082008
:1043100000F0C0FB352000F0BDFB442000F0BAFBEC
:104320004C2000F0B7FB262000F0B4FB102000F07A
:10433000B1FB122000F0AEFB2C2000F0ABFB3220D2
:1043400000F0A8FBF02000F0B1FB3C2000F0A2FB45
:10435000F02000F0ABFB692000F09CFB7820FCF71C
:1043600011F9212000F0A2FBBDE81040292000F047
:104370009DBB10B5BF2000F099FB00F05BF900F089
:1043800059F9C0B210BD00002DE9F05FD32000F054
:104390008DFB00F04FF9A24CA08000F04BF9A080FB
:1043A00000F048F94FF6FF7101EA0020A08000F00C
:1043B00041F9A18849F241360843A08047F2897546
:1043C00045F2103747F2967845F2105949F6060A39
:1043D00041F6631BB0427DD0042000F067FB00F083
:1043E00029F9A08000F026F9A08000F023F94FF60B
:1043F000FF7101EA0020A08000F01CF9A1880843A9
:10440000A0F50541A080523965D0A84262D0D420E1
:1044100000F04CFB00F00EF9A08000F00BF9A0803A
:1044200000F008F94FF6FF7101EA0020A08000F0CB
:1044300001F9A1880843A080B8427ED0D32000F0C3
:1044400035FB00F0F7F8A08000F0F4F8A08000F051
:10445000F1F84FF6FF7101EA0020A08000F0EAF8C1
:10446000A1880843A080404567D055214FF4704093
:1044700000F032FBAA214FF2010000F02DFB522187
:104480004FF2020000F028FB08214FF2030000F079
:1044900023FB01214FF2040000F01EFB4FF44540C6
:1044A00000F004FB00F0C6F84FF6FF7101EA0020AF
:1044B000A0804CF2015000F0F9FA00F0BBF8A1889E
:1044C0000843A0800520FCF75DF8A188494534D059
:1044D000D32001E02CE02CE000F0E8FA00F0AAF88C
:1044E000A08000F0A7F8A08000F0A4F84FF6FF71BC
:1044F00001EA0020A08000F09DF8A1880843A08078
:1045000050451AD0A12000F0D1FA00F093F8A08015
:1045100000F090F84FF6FF7101EA0020A08000F053
:1045200089F8A1880843A0F5AE41A080613902D086
:1045300003E0A58001E0A4F804B0A18839A0FCF74D
:10454000BBFFA088A84202D1FFF75AFD1FE0B0428E
:1045500002D1FDF7EEFA1AE0B84202D1FDF7A1FD53
:1045600015E0404502D1FFF720FE10E0484502D19A
:10457000FEF711FD0BE0504502D1FDF7F1FB06E01F
:10458000584504D1FFF784FC642000F05BFAA18851
:104590004FF02040A94203D0B14201D0594510D17B
:1045A000D0F81C1121F00F01C0F81C11D0F81C111B
:1045B00041F00301C0F81C11D0F81C1141F4407106
:1045C0001DE0B94205D0414503D0494501D05145D0
:1045D00017D1D0F81C1121F00F01C0F81C11D0F830
:1045E0001C1141F00201C0F81C11D0F81C1121F47B
:1045F0007061C0F81C11D0F81C1141F40071C0F8B2
:104600001C110020FDF7F4F90122D1030848FCF742
:1046100096F9BDE8F05F4FF6FF70FDF7D1B90000E5
:10462000400000204C43442049443A25780D0A00BC
:104630000004024008B50220401EFDD24FF0D840D1
:10464000B0F88000ADF80000BDF8000008BD000023
:1046500070B55F4C00232146A279898841F6631624
:10466000012A01D01AB10CE0B14202D109E0B142F5
:1046700007D1082805D2DFE800F0161812140C192B
:10468000100E082812D2DFE800F0110406080A0C08
:104690000E1080230AE0402308E0C02306E0202318
:1046A00004E0602302E0A02300E0E023362045F28E
:1046B0001055A94200D10002A1F51342413A07D09A
:1046C000A1F5EE42893A03D0A1F5EE42963A01D126
:1046D00043F00803194600F0FFF9A188B1420AD05F
:1046E00098062088628802D5904202D303E0904267
:1046F00001D9228060806089A94240D100F0D6F9BA
:10470000002000F0C7F96089401C80B200F0CEF9AB
:10471000002000F0BFF96089801C80B200F0C6F96B
:104720002088401EC0F30F2000F0B4F96089C01C3F
:1047300080B200F0BBF92078401EC0B200F0AAF9A8
:10474000A08900F0B3F9002000F0A4F9A089401C72
:1047500080B200F0ABF9002000F09CF9A089801C29
:1047600080B200F0A3F96088401EC0F30F2000F073
:1047700091F9A089C01C80B200F098F921E000F006
:1047800095F9002000F086F9002000F083F92088D8
:10479000401EC0F30F2000F07DF92078401EC0B20B
:1047A00000F078F9A08900F081F9002000F072F99A
:1047B000002000F06FF96088401EC0F30F2000F069
:1047C00069F9A078BDE87040401EC0B200F062B93F
:1047D0004000002010B50446D12000F067F9FFF733
:1047E00029FF400605D4D02000F060F92D2000F00C
:1047F00051F9BE2000F05AF9062000F04BF920468E
:1048000000F048F9092000F045F9112000F042F9C4
:10481000BDE81040002000F03DB90000F0B53B4A73
:104820000D460446060A918810462F0A4089A1F5D4
:10483000C853633B16D0A1F5AA43103B4CD000F0FF
:1048400035F9304600F026F9E0B200F023F99089FE
:1048500000F02CF9384600F01DF9E8B2BDE8F04050
:1048600000F018B9917931B300F020F9304600F02A
:1048700011F9E0B200F00EF91088401EC0F30F20CD
:1048800000F008F91078401E5FFA80F000F002F99D
:10489000908900F00BF9384600F0FCF8E8B200F01F
:1048A000F9F85088401EC0F30F2000F0F3F890781C
:1048B000401EC0B2D2E71188091B491E8CB200F01D
:1048C000F5F8002000F0E6F8002000F0E3F8200AF8
:1048D00000F0E0F8E0B2D9E700F0E8F8304600F088
:1048E000D9F85089401C80B200F0E0F8E0B200F046
:1048F000D1F8908900F0DAF8384600F0CBF89089CA
:10490000401C80B200F0D2F8A7E700004000002071
:104910002DE9FF4F1D460C468B46580700D001205D
:1049200000EBD500690810FB01F0203A00F0FF0A07
:10493000D0B20C2D0AD0102D0CD0182D0ED0202D59
:1049400046D1244901EB801600203EE000EB4001F7
:10495000214806E0214901EB0016F5E700EBC00114
:104960001F4800EB8106EFE716F808704FF00009CA
:10497000380601D50E9A03E00D9828B91948026847
:1049800021460098FDF7CAF87806070E1648641C01
:10499000A4B24088A0421BD9A4EB0B00A8420AD1C4
:1049A00000985C46401C80B200900F480188009837
:1049B00081420DD906E009F1010000F0FF09B9F1CB
:1049C000080FD5D308F10100C0B280465045CBD3C3
:1049D000BDE8FF8FFC6300083C4C0008B0500008A5
:1049E000A056000804000020400000202DE9FC4FE4
:1049F000044600F0FF0910190D46DDE90BB61FFA59
:104A000080F8581987B24FF0000A13E0444503D3E9
:104A100005EB0B004C4685B2BD4210D20D985B46AB
:104A2000CDE900A029462046FFF772FF04EB5B00AA
:104A300084B2761C3278A2F120005E28E6D9BDE867
:104A4000FC8F000010B50246BE2000F02FF80520B4
:104A500000F020F81046FBF768FC9FED0C1B53ECB0
:104A6000112BFBF7F0FBFBF76DFC80B200F012F8A6
:104A7000012000F00FF8FF2000F00CF8002000F0FB
:104A800009F8BDE81040002000F004B866666666CC
:104A90006666044001B5BDF80000ADF80000BDF841
:104AA00000004FF0D841A1F8800008BD01B5BDF865
:104AB0000000ADF80000BDF800004FF0D841A1F8AB
:104AC0007E0008BD03484FF0D8410089A1F87E0060
:104AD00070470000400000204FF0D84222F87E0FBF
:104AE000518070470EB5FBF73DFFFCF711FCFCF75A
:104AF0005DFBFCF7EBFBFCF713FBFFF745FC3848CD
:104B00004FF4784438A10460364882883948FCF76D
:104B1000E3FC00224FF480613748FBF710FFFF20D1
:104B2000FFF758FE334FDFF8D49007F10C084FF031
:104B3000200A4FF0180B1026A9F10205297839F840
:104B40001100FCF73DFFFFF714FC6870024629488E
:104B50002BA10C30FCF7C0FC2FA1CDF800A0CDE9B3
:104B600001142023F02228210A20FFF73FFF2CA167
:104B7000CDF800B0CDE901141823F02250210A200D
:104B8000FFF734FF29A00096CDE901041023F0229D
:104B90006E210A20FFF72AFF0096CDE90174102349
:104BA000F02282210A20FFF721FF0096CDE901843F
:104BB0001023F02296210A20FFF718FF2878401CC6
:104BC000C0B228700C2801D1002028704FF4007169
:104BD0000948FBF7ACFE4FF47A70FBF7D3FCADE766
:104BE00000000020400000204C43442049443A2566
:104BF0003034580050000020001402400A00002009
:104C000063757272656E74206272696768746E652E
:104C100073733A253375000053544D33320000004E
:104C20005446544C434420544553540041544F4D32
:104C300040414C49454E54454B00000000000000E7
:104C40000000000000000000000000003F400000E5
:104C50000000000000003000400030004000000074
:104C600009000BC03D000BC03D00090018C02440E6
:104C70007FE0224031800000180024C01B000D801E
:104C80003240018003801C4027401C8007400040C8
:104C900010006000000000000000000000000000A4
:104CA00000001F80204040200000402020401F8046
:104CB00000000000090006001F8006000900000037
:104CC000040004003F8004000400000000100060A5
:104CD00000000000000000000400040004000400C4
:104CE0000400000000000040000000000000000080
:104CF000002001C006003800400000001F80204056
:104D0000204020401F800000000010403FC00040B5
:104D10000000000018C0214022402440184000003C
:104D200010802040244024401B80000002000D0021
:104D300011003FC0014000003C802440244024403A
:104D4000238000001F802440244034400380000062
:104D50003000200027C03800200000001B802440C5
:104D6000244024401B8000001C0022C0224022401E
:104D70001F8000000000000008400000000000004C
:104D800000000000046000000000000000000400BB
:104D90000A001100208040400900090009000900B4
:104DA0000900000000004040208011000A000400BB
:104DB0001800200023402400180000001F8020401D
:104DC000274029401F400000004007C039000F0065
:104DD00001C0004020403FC0244024401B80000010
:104DE0001F802040204020403080000020403FC0F5
:104DF000204020401F80000020403FC024402E4023
:104E000030C0000020403FC024402E003000000091
:104E10000F001080204022403380020020403FC01D
:104E2000040004003FC02040204020403FC02040FC
:104E3000204000000060202020203FC020002000F3
:104E400020403FC024400B0030C0204020403FC0E5
:104E500020400040004000C03FC03C0003C03C0078
:104E60003FC0000020403FC00C4023003FC0200056
:104E70001F802040204020401F80000020403FC075
:104E800024402400180000001F802140214020E021
:104E90001FA0000020403FC02440260019C0004051
:104EA00018C02440244022403180000030002040BF
:104EB0003FC020403000000020003F800040004004
:104EC0003F80200020003E0001C007003800200085
:104ED000380007C03C0007C038000000204039C03F
:104EE000060039C0204000002000384007C038408C
:104EF00020000000304021C02640384020C0000083
:104F0000000000007FE04020402000000000700012
:104F10000C000380004000000000402040207FE0A3
:104F20000000000000002000400020000000000001
:104F30000010001000100010001000100000000011
:104F40004000000000000000000002800540054015
:104F500003C0004020003FC0044004400380000024
:104F6000000003800440044006400000000003806D
:104F7000044024403FC0004000000380054005403D
:104F800003400000000004401FC0244024402000D3
:104F9000000002E0055005500650042020403FC0AC
:104FA0000440040003C000400000044027C000404B
:104FB0000000000000100010041027E000000000B6
:104FC00020403FC00140070004C004402040204072
:104FD0003FC000400040000007C0040007C00400BC
:104FE00003C00000044007C00440040003C00040A8
:104FF000000003800440044003800000041007F018
:10500000045004400380000000000380044004506A
:1050100007F00010044007C0024004000400000034
:10502000000006400540054004C0000000000400E8
:105030001F8004400040000004000780004004403E
:1050400007C000400400070004C0018006000400FF
:10505000060001C0070001C006000000044006C0B1
:10506000010006C0044000000410071004E00180A5
:10507000060004000000044005C006400440000093
:105080000000000004007BE0402000000000000061
:105090000000FFF000000000000040207BE0040062
:1050A0000000000040008000400020002000400080
:1050B00000000000000000000000000000000000F0
:1050C0000000000000001FCC000C000000000000E9
:1050D00000000800300060000800300060000000A0
:1050E000022003FC1E20022003FC1E2002200000E0
:1050F00000000E1811043FFF10840C78000000001F
:105100000F0010840F3800C0077818840078000062
:1051100000780F8410C411240E9800E40084000865
:10512000080068007000000000000000000000009F
:1051300000000000000007E01818200440020000F2
:10514000000040022004181807E0000000000000E2
:105150000240024001800FF0018002400240000046
:105160000080008000800FF8008000800080000038
:105170000001000D000E0000000000000000000013
:10518000000000800080008000800080008000809F
:105190000000000C000C00000000000000000000F7
:1051A00000000006001800600180060018002000C2
:1051B000000007F0080810041004080807F00000B9
:1051C0000000080408041FFC0004000400000000A4
:1051D00000000E0C10141024104411840E0C00005A
:1051E00000000C1810041104110412880C70000047
:1051F000000000E00320042408241FFC0024000019
:1052000000001F9810841104110410881070000011
:10521000000007F0088811041104188800700000CD
:1052200000001C00100010FC13001C001000000007
:1052300000000E3811441084108411440E38000010
:1052400000000700088C10441044088807F0000094
:10525000000000000000030C030C00000000000030
:105260000000000000010106000000000000000036
:105270000000008001400220041008081004000013
:105280000220022002200220022002200220000030
:1052900000001004080804100220014000800000F3
:1052A00000000E001200100C106C10800F000000A7
:1052B00003E00C1813E4142417C4082807D00000D6
:1052C0000004003C03C41C40074000E4001C000430
:1052D00010041FFC1104110411040E88007000005A
:1052E00003E00C1810041004100410081C10000037
:1052F00010041FFC100410041004080807F000003C
:1053000010041FFC1104110417C410040818000035
:1053100010041FFC1104110017C010000800000049
:1053200003E00C181004100410441C780040000026
:1053300010041FFC10840080008010841FFC1004E7
:105340000000100410041FFC1004100400000000F2
:1053500000030001100110011FFE100010000000EA
:1053600010041FFC110403801464181C10040000B6
:1053700010041FFC1004000400040004000C0000D2
:1053800010041FFC1F0000FC1F001FFC1004000085
:1053900010041FFC0C04030000E010181FFC100098
:1053A00007F00808100410041004080807F00000B3
:1053B00010041FFC10841080108010800F0000006B
:1053C00007F0081810241024101C080A07F2000027
:1053D00010041FFC1104110011C011300E0C000448
:1053E00000000E1C11041084108410441C380000AE
:1053F0001800100010041FFC10041000180000001A
:1054000010001FF810040004000410041FF810001E
:1054100010001E0011E0001C007013801C00100022
:105420001FC0103C00E01F0000E0103C1FC0000047
:105430001004180C163401C001C01634180C1004E6
:1054400010001C00130400FC13041C0010000000DA
:105450000804101C1064108413041C0410180000AD
:105460000000000000007FFE4002400240020000F9
:10547000000030000C0003800060001C00030000EE
:1054800000004002400240027FFE000000000000D9
:10549000000000002000400040004000200000000C
:1054A00000010001000100010001000100010001F4
:1054B000000040004000200000000000000000004C
:1054C00000000098012401440144014400FC000450
:1054D00010001FFC00880104010400880070000017
:1054E000000000700088010401040104008800002D
:1054F0000000007000880104010411081FFC000472
:10550000000000F8014401440144014400C80000C7
:105510000000010401040FFC110411041100180023
:10552000000000D601290129012901C90106000056
:1055300010041FFC008401000100010400FC0004B1
:1055400000000104190419FC00040004000000001C
:105550000000000300010101190119FE0000000014
:1055600010041FFC0024004001B4010C01040000E1
:105570000000100410041FFC0004000400000000E0
:10558000010401FC0104010001FC0104010000FC14
:10559000010401FC008401000100010400FC00047E
:1055A000000000F8010401040104010400F80000F7
:1055B000010101FF00850104010400880070000062
:1055C00000000070008801040104010501FF0001D2
:1055D0000104010401FC00840104010001800000B9
:1055E000000000CC012401240124012401980000C2
:1055F00000000100010007F80104010400000000A0
:10560000010001F8000400040004010801FC00048A
:10561000010001800170000C001001600180010098
:1056200001F0010C003001C00030010C01F001005C
:1056300000000104018C00740170018C0104000061
:10564000010101810171000E00180160018001005B
:1056500000000184010C013401440184010C0000AC
:10566000000000000000000001003EFC400240027B
:105670000000000000000000FFFF0000000000002C
:105680000000400240023EFC01000000000000005B
:1056900000006000800080004000400020002000EA
:1056A00000000000000000000000000000000000FA
:1056B00000000000000000000000000000000000EA
:1056C00000000000000000000000000000000000DA
:1056D0000000000F80380FFE380F803800000000F7
:1056E00000000000000000000000000000000100B9
:1056F000000600000C000038000031000006000029
:105700000C00003800003000000000000000000025
:1057100061800067F807F9800061800061800061A6
:10572000800061800067F807F98000618000000058
:1057300000000000000001C0E003E0F006300804B3
:1057400018081FFFFE040E080787F00381E0000021
:105750000000000001F000060C00040408060C70B4
:1057600001F9C0000E00003BE000EC180708080437
:105770000C180003E00000000001E00007F003F84F
:1057800018041C0804170807E1D003C0E00023B088
:10579000003C08002008000010000000000000018C
:1057A00000003100003200001C000000000000007A
:1057B00000000000000000000000000000000000E9
:1057C00000000000000000000000000000000000D9
:1057D0007F0001FFC00780F00C00181000042000BB
:1057E000020000000000002000021000040C00185D
:1057F0000780F001FFC0007F0000000000000000F3
:1058000000000000000000000000000042000066F0
:1058100000006600003C0000180003FFC0001800F4
:10582000003C00006600006600004200000000002E
:10583000080000080000080000080000080001FF40
:10584000C000080000080000080000080000080070
:1058500000000000000100003100003200001C00C8
:105860000000000000000000000000000000000038
:105870000000000000000000080000080000080010
:1058800000080000080000080000080000080000F0
:1058900008000008000000000000000000000000F8
:1058A0003800003800003800000000000000000050
:1058B00000000000000000000000000000000000E8
:1058C000000600001C000070000180000E0000387F
:1058D0000000C0000700001C0000300000000000B5
:1058E000000000007F8001FFE003807006001804C4
:1058F000000804000806001803807001FFE0007F24
:105900008000000000000000000001000801000805
:1059100001000803FFF807FFF80000080000080076
:10592000000800000000000000000001C03802C0B4
:1059300058040098040118040218040418061C18DE
:1059400003F81801E0F8000000000000000000016A
:10595000C0E003C0F00400080408080408080618A2
:105960000803F41801E7F00001E000000000000067
:10597000000000000300000D0000110000610000A5
:10598000810803010807FFF80FFFF8000108000174
:10599000080000000000000000E007FCD006080836
:1059A000061008061008061008061838060FF0063C
:1059B00007C0000000000000000000003F8001FF61
:1059C000E0038430020818041008041008041008CA
:1059D000071810030FF00007C000000000000000CF
:1059E000000003C0000700000600000600F80607DC
:1059F000F806180006E0000700000600000000009E
:105A000000000001E1E003F7F00634100418080478
:105A10001808040C08040C0806161803F3F001C15A
:105A2000E000000000000000F80003FC300306382E
:105A30000402080402080402080404100308F00128
:105A4000FFC0007F00000000000000000000000018
:105A5000000000000000000070380070380070384E
:105A60000000000000000000000000000000000036
:105A7000000000000000000000000000301A0030AC
:105A80001C000000000000000000000000000000FA
:105A900000000000000000080000140000220000C8
:105AA0004100008080010040020020040010080036
:105AB000080000000000000021000021000021007B
:105AC0000021000021000021000021000021000031
:105AD000210000210000000000000000000008007C
