:020000040800F2
:10000000E00500209D0100088F160008B5140008C7
:100010008D160008BD0500083D180008000000000E
:10002000000000000000000000000000931600081F
:10003000BF05000800000000911600089516000892
:10004000B7010008B7010008B7010008B7010008B0
:10005000B7010008B7010008B7010008B7010008A0
:10006000B7010008B7010008B7010008B701000890
:10007000B7010008B7010008B7010008B701000880
:10008000B7010008B7010008B7010008B701000870
:10009000B7010008B7010008B7010008B701000860
:1000A000B7010008B7010008B7010008B701000850
:1000B000B7010008B7010008B7010008B701000840
:1000C000B7010008B7010008B7010008B701000830
:1000D000B7010008B7010008B7010008B701000820
:1000E000B7010008B7010008B7010008B701000810
:1000F000B7010008B7010008B7010008B701000800
:10010000B7010008B7010008B7010008B7010008EF
:10011000B7010008B7010008B7010008B7010008DF
:10012000B7010008B7010008B7010008B7010008CF
:10013000B7010008B7010008B7010008B7010008BF
:10014000B7010008B7010008B7010008B7010008AF
:10015000B7010008B7010008B7010008B70100089F
:10016000B7010008B7010008B7010008B70100088F
:10017000B7010008B7010008B7010008000000003F
:10018000B7010008B7010008DFF80CD000F070F9E3
:100190000048004721500008E0050020064880473D
:1001A00006480047FEE7FEE7FEE7FEE7FEE7FEE75C
:1001B000FEE7FEE7FEE7FEE72117000889010008D9
:1001C0002DE9F05F0546002092469B46884606468C
:1001D000814640241BE0284641464746224600F01F
:1001E000D9F853465A46C01A914110D311461846C1
:1001F000224600F0C0F82D1A67EB01084F46224650
:100200000120002100F0B7F817EB00094E41201E35
:10021000A4F10104DFDC484631462A464346BDE8E6
:10022000F09FD2B201E000F8012B491EFBD27047CB
:100230000022F6E710B513460A4604461946FFF7B2
:10024000F0FF204610BD2DE9FE4F81EA030404F0C3
:10025000004421F0004100944FF0000B23F00043D4
:1002600050EA01045ED052EA03045BD0C3F30A549F
:10027000C1F30A552C44A4F2F3340194A0FB0254B8
:10028000C1F3130141F48011C3F3130343F480134A
:1002900001FB024400FB034E840A970A44EA81549E
:1002A00047EA8357A4FB076802958D0A05FB07857B
:1002B0004FEA932C04FB0C542705029D4FEA065885
:1002C00047EA1637B5EB08056EEB070C870E920E62
:1002D00047EA811742EA8312A7FB0201B6EB0B0142
:1002E00064EB00042B0D43EA0C335E1844EB1C5006
:1002F000DA465146E7FB0201C5F313044FEA0B331C
:1003000043EA14534FEA0432019C43EA0603A4F182
:100310000C040294009CCDE900B400F05AF803B03C
:10032000BDE8F08F00200146F9E70EB540F23341F9
:1003300002910021CDE900110A460B4600F049F870
:1003400003B000BDC1F30A5210B5C1F3130140F26E
:10035000FF3341F480119A4201DA002010BD40F2CF
:1003600033439A42A2F2334203DC524200F012F8C5
:1003700010BD904010BD202A04DB203A00FA02F1A3
:10038000002070479140C2F1200320FA03F3194383
:1003900090407047202A04DB203A21FA02F0002125
:1003A000704721FA02F3D040C2F120029140084385
:1003B0001946704710B5141E73F1000408DA401C8A
:1003C00041F1000192185B411A4301D120F0010074
:1003D00010BD2DE9F04D92469B4611B1B1FA81F264
:1003E00002E0B0FA80F220329046FFF7C4FF0446E4
:1003F0000F4640EA0A0041EA0B0153465A460843B9
:1004000013D0114653EA010019D0C8F140025046FA
:10041000FFF7C0FF05460E46504659464246FFF7D5
:10042000AAFF084305D0012004E020463946BDE874
:10043000F08D0020054346EAE0762C4337430A98C6
:100440006305E40AA0EB08000022FD0A44EA4754D1
:100450000A3002D500200146E9E70105101969417B
:10046000DDE9084500196941BDE8F04DA2E700004B
:10047000064C074D06E0E06840F0010394E80700F1
:1004800098471034AC42F6D3FFF782FE048100088F
:1004900024810008464910B54A6822F440324A6077
:1004A0004A6843681A434A6001684A6822F48072C5
:1004B0004A6001684A68036942EA03224A600168A7
:1004C0004A6822F040724A6001684A6883681A43A9
:1004D0004A6001688A6822F400628A6001688A685A
:1004E000C3681A438A60816A6FF07062D142016802
:1004F0008A6822F070628A6001688A680CD0836A18
:100500001A438A6001688A6822F040528A60016852
:100510008A68C36A1A4301E022F040528A60016887
:100520008A6822F002028A6001688A68037E42EAD1
:1005300043028A6090F82010002901684A680FD0B1
:1005400042F400624A6001684A6822F460424A60EC
:1005500001684A68174C436A04EB43331A4301E0CD
:1005600022F400624A600168CA6A22F47002CA6218
:100570000168CA6A838B104C04EB03531A43CA62A6
:1005800001688A6822F400728A6001688A6890F8BB
:10059000303042EA43228A6001688A6822F480622D
:1005A0008A6001688A68406942EA8020886010BDDC
:1005B0000023014000E0FFFF0000F0FFFEE770476E
:1005C0007047000070B5B3F5804F05D06FF07041F3
:1005D00040F82210002070BD50F82240084B8E8950
:1005E0001C40D1E9003543EA05138D6889692D0265
:1005F00045EA06452B430B43234340F82230E9E705
:100600000000F0CFF0B50C6850F82430114A1340C8
:10061000D1E90125D1E903672A433E4332434E69BC
:1006200032438E693243CE6932430E6A32434E6A98
:1006300032438E6A3243CE6A3243CE6B096B324309
:100640000A431A43082D01D142F0400240F8242009
:100650000020F0BD8000F0FF30B500EB8202506852
:100660008D8900F04043D1E9000440EA04108C6811
:10067000240244EA054420430C8A074D05EB045448
:1006800020430C7D6D0105EB046489692043084318
:1006900018435060002030BD0000F0FF78B5002402
:1006A000009490F83C20012A19D0012280F83C20C7
:1006B0000A6807230568092A13D9EE680A3A02EB8B
:1006C000420293409E43EE600B788A680A3B03EB3C
:1006D00043039A400368DD682A43DA6010E0022091
:1006E00078BD2E6902EB420293409E432E610B7847
:1006F0008A6803EB43039A4003681D692A431A6121
:100700004A681F23072A13D205686E6B521E02EB3C
:10071000820293409E436E630B790A885B1E92B2FD
:1007200003EB83039A4003685D6B2A435A6327E017
:1007300005680D2A12D22E6BD21F02EB8202934063
:100740009E432E630B790A88DB1F92B203EB83036F
:100750009A4003681D6B2A431A6311E0EE6A0D3A52
:1007600002EB820293409E43EE620B790A880D3BB6
:1007700092B203EB83039A400368DD6A2A43DA628C
:10078000164B0568144A9D4206D10D68122D03D1FF
:10079000556845F48005556005689D4218D10B6881
:1007A000102B01D0112B13D1536843F40003536075
:1007B000096810290CD10A490A4A0968B1FBF2F10B
:1007C00001EB8101490000E0491E00910029FBD1A5
:1007D00080F83C40002078BD00230140002001400B
:1007E0003C00002040420F000068C06C704770B5AC
:1007F00004004FF0000503D0206C002610B107E084
:10080000012070BD204600F01DF8666484F83C604D
:10081000206CC00610D4206C20F4885040F00200F8
:1008200020642046FFF736FE6664206C20F002004C
:1008300040F00100206400E0012584F83C60284677
:1008400070BD000010B586B0044614216846FFF75D
:10085000EFFC1149206888421CD110480021026831
:1008600042F480620260006800F4806005900B48EA
:100870001438026842F020020260006800F0200094
:100880000590802000900320CDE9010169460448CD
:1008900000F03AF906B010BD002201404438024091
:1008A000001402402DE9F041044600680D468168BD
:1008B0004FF0000749050BD58068C00508D5206CAE
:1008C00040F02000206484F83C700120BDE8F081F5
:1008D00000F016FA064613E0681C11D025B100F0AE
:1008E0000FFA801BA8420BD920680068800707D444
:1008F000206C40F00400206484F83C700320E5E79D
:10090000206800688007E7D521686FF01200086052
:10091000206C40F4007020642068816811F0405F12
:1009200013D1217E89B9C16A11F4700F02D0806899
:1009300040050AD4206C20F480702064206CC00430
:1009400003D4206C40F0010020640020BEE70000CA
:1009500018B50021009190F83C20012A07D001220F
:1009600080F83C2002689368DB0702D011E0022087
:1009700018BD936843F0010393602E4A2E4B126812
:10098000B2FBF3F202EB420200E0521E0092002A98
:10099000FBD102689368DB0742D0036C40F201642C
:1009A000A34343F48073036453685B0505D5036C6C
:1009B00023F4005343F480530364036CDB0404D535
:1009C000436C23F00603436400E0416480F83C106C
:1009D0001A496FF02203136049680068CA06184973
:1009E00006D0884224D1816811F0405F13D01FE007
:1009F0008842F8D0134A904203D1D1F80423D2069A
:100A0000F1D0114A904213D1D1F8041301F01F0123
:100A10001029E8D30CE0816841F08041816007E053
:100A2000016C41F010010164416C41F0010141642D
:100A3000002018BD3C00002040420F000023014070
:100A40000020014000210140002201402DE9F04337
:100A500087B014216846FFF7EBFB254801680029A1
:100A600043D10127076023488846016841F001010E
:100A7000016000684FF4805900F001000C26CDF8A9
:100A80000090CDE90460032502240395CDE90147D8
:100A90006946194800F038F84FF680708DE811016A
:100AA000CDE903566946154800F02EF84CF2037064
:100AB0008DE81101DFF84880CDE9035669464046CC
:100AC00000F022F830208DE89100CDE90356694608
:100AD000404600F019F8CDF80090CDE90147CDE986
:100AE00003566946074800F00FF807B0BDE8F083E9
:100AF0002800002038380240001402400010024054
:100B0000000C0240001802402DE9F84FDFF8B8A1B0
:100B1000002201250AF1040B03264FF00F090BF107
:100B2000040E00BF0B6805FA02F42340A3426FD104
:100B30000F7907F00307012F01D0022F16D1876824
:100B40004FEA420806FA08FC27EA0C07D1F80CC065
:100B50000CFA08FC4CEA070CC0F808C04768A74329
:100B60000C79C4F3001494403C4344600C79E44392
:100B7000A4070AD0C4684FEA420C06FA0CF7BC433B
:100B80008F6807FA0CF72743C7600C7904F0030459
:100B9000022C12D1D40800EB840CDCF8204057075B
:100BA000FF0E09FA07F824EA0804D1F8108008FAC1
:100BB00007F848EA0408CCF8208004684FEA420CA1
:100BC00006FA0CF7BC430F7907F0030707FA0CF796
:100BD000274307604C68E40070D53C4C276847F415
:100BE00080472760246822F0030704F480440094BF
:100BF000374C07EB040CDCF8084897074FEA1778E6
:100C000009FA08F7BC43334FB84202D1002724E069
:100C100054E0314FB84201D101271EE02F4FB842B6
:100C200001D1022719E02E4FB84201D1032714E069
:100C30002C4FB84201D104270FE02B4FB84201D10D
:100C400005270AE0294FB84201D1062705E0284FC1
:100C5000B84201D1072700E0082707FA08F7274321
:100C6000CCF80878DAF800405746D1F804C09C4325
:100C70005FEACC3C00D51C433C60DBF800405F469B
:100C8000D1F804C09C435FEA8C3C00D51C433C6017
:100C9000DEF800407746D1F804C09C435FEACC2CD4
:100CA00000D51C433C60084F0C373C68D1F804C0A9
:100CB0009C435FEA8C2C00D51C433C60521C102ADC
:100CC000FFF430AFBDE8F88F003C014044380240EB
:100CD00000300140000002400004024000080240D1
:100CE000000C0240001002400014024000180240B4
:100CF000001C02400AB1816170470904FBE7000053
:100D00000148806870470000300000200248816878
:100D10000278114481607047300000200B4810B504
:100D2000016841F400710160016841F48061016073
:100D3000016841F480710160032000F061F8002037
:100D400000F006F800F024F8002010BD003C02403E
:100D500070B50D4D04464FF47A712878B1FBF0F070
:100D60000A490968B1FBF0F000F029FB48B9102CE2
:100D700007D200222146501E00F022F800206C60AD
:100D800070BD012070BD0000300000203C0000203C
:100D90000A4808B5016841F480410160006800F428
:100DA000804000900548001F016841F080510160BB
:100DB000006800F08050009008BD000044380240F8
:100DC000F0B40E4B1B680C46C3F30223C3F10705B6
:100DD000042D00D90425191D072901D2002300E0A4
:100DE000DB1E012606FA05F1491E214099409E406E
:100DF000761E16403143F0BC00F046BD0CED00E01D
:100E0000064900F0070208684FF6FF03184040EA61
:100E10000220034A10430860704700000CED00E018
:100E20000000FA052DE9F0470E46050065D0DFF811
:100E30001481D8F80000F7B200F00700B04207D2E2
:100E400088F80070D8F8000000F00700B04254D1D4
:100E500028683D4C810712D5400703D5206840F42F
:100E6000E05020602878000703D5206840F46040F7
:100E700020602068A96820F0F000084320602878EE
:100E8000C0072DD0304968680839012812D00228DF
:100E900013D0032811D00968890700292DDA2168A9
:100EA00021F0030101432160FFF72AFF814641F24F
:100EB000883A0EE009688903EFE709688901ECE7E1
:100EC000FFF71EFFA0EB0901514502D90320BDE841
:100ED000F0872068696800F00C00B0EB810FEFD15B
:100EE000D8F80010404601F00701B14207D9077059
:100EF000006800F00700B04201D00120E7E7287841
:100F0000400705D52068E96820F4E05008432060D8
:100F10002878000706D52068296920F4604040EA57
:100F2000C100206000F038F82168084AC1F30311BD
:100F3000515CC8400649086006480068FFF708FF92
:100F40000020C4E7003C024008380240EC80000862
:100F50003C0000203400002004480549006809686E
:100F6000044AC1F38221515CC84070473C00002014
:100F700008380240FC8000080448054900680968F8
:100F8000044AC1F34231515CC84070473C00002024
:100F900008380240FC800008154810B5006810F0C1
:100FA0000C02144813D04110042A0FD0082A0ED185
:100FB0000F4C241F2268236802F03F025B0207D512
:100FC0002068C0F38810A0FB010106E0084610BDB0
:100FD0002168C1F38811A1FB00010023FFF7F0F89D
:100FE0002168C1F30141491C4900B0FBF1F010BD7B
:100FF000083802400024F4002DE9F84F04006ED0B8
:101000002078DFF84C93C007A9F104054AD009F114
:1010100004000168C1F38101012908D00068C0F310
:10102000810002280AD1D9F80000400206D52868BC
:10103000800337D560680028E1D033E06068B0F500
:10104000803F10D0B0F5A02F286810D020F4803059
:101050002860286820F4802028606068A8B1FFF725
:101060004FFE06460DE0286840F48030F4E740F477
:1010700080202860F7E700BFFFF742FE801B64284E
:1010800073D828688003F7D50CE0FFF739FE0646D1
:1010900005E000BFFFF734FE801B6428F0D8286805
:1010A0008003F7D42078DFF8AC8280074FF0000A85
:1010B0003ED5A748001D016811F00C0F08D000684C
:1010C000C0F3810002280BD1D9F80000400207D4F8
:1010D0002868800716D5E068012800D112E033E1C6
:1010E000E068B8B10120C8F80000FFF709FE064625
:1010F00005E000BFFFF704FE801B0228C0D8286867
:101100008007F7D52868216920F0F80040EAC1007F
:1011100028600DE0C8F800A0FFF7F2FD064604E0E5
:10112000FFF7EEFD801B02281FD828688007F7D440
:101130002078000722D5864F87486169703771B1E2
:1011400001210160FFF7DCFD064604E0FFF7D8FD52
:10115000801B022809D838688007F7D50EE0C0F850
:1011600000A0FFF7CDFD064605E082E0FFF7C8FDD1
:10117000801B02287DD838688007F7D42078400784
:1011800068D5DFF8CCB100270BF13C0BDBF8000091
:10119000C0000BD4DBF8001041F08051CBF80010F8
:1011A000DBF80000012700F0805000906B4E3068A3
:1011B000C00510D4306840F480703060FFF7A0FDA7
:1011C000009005E0FFF79CFD0099401A022850D8D6
:1011D0003068C005F6D55E4EA0686C3601280FD089
:1011E0000528306810D020F001003060306820F011
:1011F00004003060A068B8B1FFF782FD00900FE0F6
:10120000306840F00100F4E740F004003060F7E798
:10121000FFF776FD0099411A41F28830814266D885
:1012200030688007F4D50EE0FFF76AFD009007E014
:10123000FFF766FD0099411A41F28830814256D885
:1012400030688007F4D42FB1DBF8001021F0805112
:10125000CBF80010A069C8B33D49091D0968C1F366
:10126000810102294AD00228504607D0C8F8600000
:1012700000E03CE0FFF744FD04463BE04746C8F889
:101280006000FFF73DFD064605E000BFFFF738FDB3
:10129000801B02282BD828688001F7D4D4E90701E5
:1012A0000843A16A2E4A490802EB0141626A41EAF9
:1012B0008211084394F82C1040EA0161C9F800102B
:1012C00001203866FFF71CFD044606E03EE000BF43
:1012D000FFF716FD001B022809D828688001F7D502
:1012E00034E000BFFFF70CFD001B022802D90320E9
:1012F000BDE8F88F28688001F4D427E00128F7D0F2
:10130000D9F80000E26900F4800191421CD1226A00
:1013100000F03F01914217D147F6C071626A014067
:10132000B1EB821F10D1A26A4FF0FF3300F44031BD
:1013300003EB5202B1EB024F06D194F82C1000F0EF
:101340007060B0EB016F01D00120D1E70020CFE742
:101350000438024000004742800E474200700040BF
:101360000000FFFF70B515460E46040003D094F848
:10137000490010B107E0012070BD002084F848004A
:10138000204600F01AF804F108012068FFF73AF946
:101390003146A2682068FFF75FF9D4E901022946C7
:1013A000236BFFF70FF9A168206850F8212042F065
:1013B000010240F82120002070BDFFF747BB10B5A7
:1013C000401EB0F1807F01D3012010BD4FF0E0241A
:1013D00060610F21601700F057FA0020A06107201C
:1013E0002061002010BD70B5040004D094F83D00C9
:1013F000002510B106E0012070BD84F83C50204665
:1014000000F022F8242084F83D002068C16821F40F
:101410000051C160204600F08BF92068016921F479
:10142000904101612068416921F02A0141612068F1
:10143000C16841F40051C1602564202084F83D005A
:1014400084F83E00002070BD10B586B0044614211B
:101450006846FEF7EDFE14492068884221D1134802
:10146000016841F010010160006800F01000059073
:101470000E481438016841F00101016000686946B6
:1014800000F0010005904FF4C06000900220019030
:101490000120029003200390072004900448FFF7E6
:1014A00033FB06B010BD000000100140443802407C
:1014B00000000240FEE700007FB5002415480094BC
:1014C000019402941249039401604FF48031C0E901
:1014D00001140461047680F820400F49C0E90A1421
:1014E0000125C561C46080F830404561FFF77FF990
:1014F00008B1FFF765F80520CDE9000569460294BB
:101500000448FFF7CBF8002801D0FFF759F87FBD5A
:1015100000220140BC0000200100000F10B58EB079
:101520001C216846FEF784FE1C2107A8FEF780FEFA
:101530001B484FF02041102201601A4941600621EA
:1015400081600021C160C0E904128161C1611302A0
:101550000162C0E909139302C0E90B13416381637F
:1015600041640F203C230090CDE901030DF10C0CE8
:10157000112306918CE80D000924CDE907400DF1F7
:10158000280C0D9109948CE80D0007AA69460448BF
:10159000FFF7E8FE002801D0FFF712F80EB010BDEB
:1015A00004010020040100A010B586B01421684693
:1015B000FEF73EFE2548016841F020010160016808
:1015C00001F020010591016841F08001016001688E
:1015D00001F080010591016841F01001016001688E
:1015E00001F010010591016841F0080101600168F6
:1015F00001F008010591016841F0010101600168F5
:1016000001F001010591016841F0400101600168AC
:1016100001F040010591016841F00201016000689C
:101620000B4C00F002000590012220212046FFF71C
:1016300061FB2020009001200221CDE901010391EE
:1016400069462046FFF760FA06B010BD3038024008
:10165000000402400C4810B50A4901604FF4E13122
:101660004160002181600C22C160C0E904128161E7
:10167000C161FFF7B8FE002803D0BDE81040FEF7B7
:101680009FBF10BD0010014054010020FEE77047CD
:1016900070477047FFF73ABB30B593B030216846CA
:1016A000FEF7C6FD14210CA8FEF7C2FD1A4800255E
:1016B000016841F080510160006800F08050119095
:1016C0001648016841F4804101600068022400F47A
:1016D0008040119001200090000401908001CDE92C
:1016E0000640082008904FF4A370CDE909040420B7
:1016F0000B906846FFF780FC0CA90F2081E83100B1
:101700004FF4A0500F90E002109005210CA8FFF7B5
:1017100089FB13B030BD000040380240007000402B
:101720000248016841F470010160704788ED00E0F3
:1017300070B5044600680169E26821F44051114324
:1017400001612169A068E2690843616911430843A6
:101750002168CA6849F20C639A430243CA60206850
:101760004169A26921F44071114341613149206806
:10177000884202D03049884202D1FFF7FDFB01E0E8
:10178000FFF7EAFBE2690023192164253226B2F54E
:10179000004F626828D0A0FB0101930F9200FEF772
:1017A0000FFD0146B0FBF5F06FF01802504301EB5E
:1017B000800006EB0010B0FBF5F000F0F002B1FB8A
:1017C000F5F002EB0012B1FBF5F06FF0180358438F
:1017D00001EB800006EB0010B0FBF5F000F00F000D
:1017E00021681044886070BDA0FB010192185B4124
:1017F000FEF7E6FC0146B0FBF5F00201B1FBF5F0A7
:101800006FF01803584301EB800006EBC000B0FBFB
:10181000F5F000F0F80002EB4002B1FBF5F05843A0
:1018200001EB800006EBC000B0FBF5F000F0070014
:10183000D6E700000010014000140140FEE7000060
:101840000FB4054B10B503A9044A029800F03CF808
:1018500010BC5DF814FB00003D1E00084000002095
:101860000FB4084B10B504A902AA039800F02CF895
:10187000044602A9002000F058FA204610BC5DF88A
:1018800014FB00002B1D00080907090E002804DBCB
:1018900000F1E02080F80014704700F00F0000F124
:1018A000E02080F8141D704702E008C8121F08C12C
:1018B000002AFAD170477047002001E001C1121FD1
:1018C000002AFBD1704700002DE9FF4F8DB00F4675
:1018D0000546002606E025280BD0DDE90F129047CB
:1018E0006D1C761C28780028F5D111B03046BDE873
:1018F000F08F0024A246A1460122EC4900E00443F7
:1019000015F8013F203B02FA03F00842F7D128788E
:101910002A2810D06FF02F022878A0F13001092971
:1019200014D80AEB8A0102EB410144F0020400EBF7
:10193000010A6D1CF0E701CF5FEA000A03D544F409
:101940000054CAF1000A44F002046D1C28782E28C5
:1019500017D115F8010F44F004042A280ED06FF0B7
:101960002F022878A0F1300109290AD809EB890152
:1019700002EB410100EB01096D1CF2E757F8049BF3
:101980006D1C28786C280FD006DC4C2817D06828EE
:101990000DD06A2814D104E0742810D07A280FD111
:1019A0000DE044F400140AE044F4801401E044F42F
:1019B00040146978814202D104F580146D1C6D1CBD
:1019C0002A786E2A1FD00CDC632A31D004DC002A6E
:1019D0008BD0582A11D1A3E0642A68D0692A0CD18F
:1019E00065E0732A2ED004DC6F2A73D0702A04D1EC
:1019F0009BE0752A6FD0782A6ED01046DDE90F1271
:101A00009047761C50E1C4F30250022806D0032808
:101A100009D0042801CF09D0066045E101CFF117B4
:101A2000C0E9006140E101CF06803DE106703BE185
:101A300017F8040B8DF8000000208DF80100EB462C
:101A4000012003E057F804BB4FF0FF3061074FF06F
:101A5000000102D40DE008F10101884649450FDA82
:101A60008045F8DB1BF808100029F4D108E008F1E4
:101A7000010188468142FADB1BF808100029F6D1E3
:101A8000DDE90F23AAEB08008146214600F036F974
:101A9000304400EB080604E0DDE90F121BF8010BEF
:101AA0009047B8F10108F7D221464846F7E00A21ED
:101AB000C4F302534FF0000B0891022B04D001CF66
:101AC000C117032B09D00AE0FF1D27F00707F7E82D
:101AD000020108E032E01FE020E000B2C117042B51
:101AE00001D140B2C117031E71F1000307DA4FF0B4
:101AF000000CD0EB0C006CEB01012D2302E0230560
:101B000004D52B238DF82430012303E0E30701D013
:101B10002023F7E7984658E00A2110E010210EE054
:101B200010204FF0000B08900CE010214FF0000B3C
:101B300044F004044FF00809089103E008214FF035
:101B4000000B0891C4F30253022B04D001CF0021F3
:101B5000032B06D006E0FF1D27F00707F7E8020178
:101B600003E080B2042B00D1C0B24FF0000823077D
:101B70002BD5702A07D0DDF820C08CF0100C5CEA61
:101B80000B0C05D00EE040238DF82430012308E033
:101B900050EA010306D030238DF824308DF825203B
:101BA00002239846DDF820C08CF0080C5CEA0B0C90
:101BB0000BD150EA010301D1630706D530238DF81C
:101BC00024304FF00108A9F10109582A04D038A2A5
:101BD0000B9208AA0A920BE03AA2F9E75B46089A30
:101BE000FEF7EEFA0B9B9B5C0A9A521E0A92137048
:101BF00050EA0102F2D10A98ADEB000000F1200B8F
:101C0000600702D524F4803401E04FF00109D94582
:101C100002DDA9EB0B0000E0002000EB0B014144CA
:101C20000890AAEB010AE00306D4DDE90F23214660
:101C3000504600F063F806444FF0000908E009A997
:101C400011F80900DDE90F12904709F10109761C2E
:101C5000C145F4DBE0030CD5DDE90F2321465046F6
:101C600000F04CF8064404E0DDE90F123020904704
:101C7000761C0899481E08900029F5DC08E00A98AF
:101C80000A990078491C0A91DDE90F129047761CE9
:101C9000BBF10001ABF1010BF1DC21465046DDE95F
:101CA0000F2300F019F806446D1C1BE609280100FB
:101CB00030313233343536373839616263646566C2
:101CC0000000000030313233343536373839414284
:101CD00043444546000000002DE9F041044600253C
:101CE0001E461746880404D405E039462020B04734
:101CF0006D1C641EF9D52846BDE8F0812DE9F04140
:101D0000044600251E469046C80301D5302700E052
:101D10002027880404D505E041463846B0476D1CAD
:101D2000641EF9D52846BDE8F0810A68531C0B6093
:101D3000107070471FB58DE80E006946FEF7AEFCC7
:101D40001FBD000010B50146072301220748FFF719
:101D5000F1FF0648FEF7FCFD0A210448FEF7A2FD4C
:101D60000248FEF741FD80B210BD0000980100203E
:101D70002DE9F04100250E4607462C4608E038467E
:101D8000FFF7E0FF0544052000F038F8641CE4B2DA
:101D9000B442F4D3B5FBF6F0BDE8F081104882B050
:101DA0000021026842F48062026000680D4A00F47B
:101DB000806000900C4802604FF48032C0E901213D
:101DC000C1600161416101760122C261074A80F868
:101DD0002010C0E90912C16202B0FEF708BD000080
:101DE0004438024000220140980100200100000F09
:101DF0000149086070470000000000204FF47A712C
:101E0000484300F001B8000070B54FF0E024002214
:101E100065690949A36909684843A1699942FCD0E9
:101E200002D2A3EB010302E0A5EB010633441A44FE
:101E30000B468242F1D370BD0000002003490A68BE
:101E40005206FCD5C2B24A60704700000010014043
:101E500070B50A490646002408884D882146454346
:101E6000204602F007FF03F09DF84FF0D84002E053
:101E7000A0F88060641CAC42FAD370BD440000201E
:101E80002DE9F04F38492C260A46887192884FF484
:101E9000305A4FF4285B41F6631E2B274FF02A0C73
:101EA0004FF0F00845F210594FF448754FF4A07404
:101EB0004FF4F07358B10C80A1F802804A4530D13C
:101EC000A1F808A0A1F80AB03802888141E0A1F881
:101ED00000804C804A4507D1A1F808A0A1F80AB0BB
:101EE0004FF42C50888105E072450E8105D14F8159
:101EF000A1F80CC00B804D8002E0A1F80AC08F81D0
:101F0000A2F5A640103803D0A2F5EE40963801D1D4
:101F10000C804B80A2F5184006381FD10B804D80F5
:101F20001CE0724511D0A2F5184006380DD00E8184
:101F3000A1F80AC0A1F80C70A2F5A64010380BD089
:101F4000A2F5EE40963807D008E00E81A1F80AC04D
:101F50008F810D804B80EFE70B804C80BDE8F04F08
:101F6000002002F0A7BD00004400002010B5144678
:101F700002F080FE03F016F84FF0D840A0F8804041
:101F800010BD10B5CF2003F001F8002002F0F2FFE1
:101F9000C12002F0EFFF302002F0ECFFED2002F054
:101FA000F5FF642002F0E6FF032002F0E3FF1220B9
:101FB00002F0E0FF812002F0DDFFE82002F0E6FF02
:101FC000852002F0D7FF102002F0D4FF7A2002F023
:101FD000D1FFCB2002F0DAFF392002F0CBFF2C201A
:101FE00002F0C8FF002002F0C5FF342002F0C2FF5B
:101FF000022002F0BFFFF72002F0C8FF202002F00D
:10200000B9FFEA2002F0C2FF002002F0B3FF002077
:1020100002F0B0FFC02002F0B9FF1B2002F0AAFFBF
:10202000C12002F0B3FF012002F0A4FFC52002F09E
:10203000ADFF302002F09EFF302002F09BFFC72052
:1020400002F0A4FFB72002F095FF362002F09EFFB9
:10205000482002F08FFF3A2002F098FF552002F04E
:1020600089FFB12002F092FF002002F083FF1A20C6
:1020700002F080FFB62002F089FF0A2002F07AFF0A
:10208000A22002F077FFF22002F080FF002002F091
:1020900071FF262002F07AFF012002F06BFFE020A2
:1020A00002F074FF0F2002F065FF2A2002F062FFA9
:1020B000282002F05FFF082002F05CFF0E2002F0F3
:1020C00059FF082002F056FF542002F053FFA920C8
:1020D00002F050FF432002F04DFF0A2002F04AFFB9
:1020E0000F2002F047FF002002F044FF002002F022
:1020F00041FF002002F03EFF002002F03BFFE12004
:1021000002F044FF002002F035FF152002F032FFFC
:10211000172002F02FFF072002F02CFF112002F001
:1021200029FF062002F026FF2B2002F023FF562075
:1021300002F020FF3C2002F01DFF052002F01AFFF4
:10214000102002F017FF0F2002F014FF3F2002F0D2
:1021500011FF3F2002F00EFF0F2002F00BFF2B209B
:1021600002F014FF002002F005FF002002F002FF41
:10217000012002F0FFFE3F2002F0FCFE2A2002F0C8
:1021800005FF002002F0F6FE002002F0F3FE002022
:1021900002F0F0FEEF2002F0EDFE112002F0F6FE5C
:1021A0007820FFF72BFEBDE81040292002F0EEBE9C
:1021B00010B5FF2002F0EAFEFF2002F0DBFE9820BF
:1021C00002F0D8FE062002F0D5FEBC2002F0DEFEB2
:1021D000012002F0CFFE0F2002F0CCFE612002F0C1
:1021E000C9FEFF2002F0C6FE012002F0C3FE01205E
:1021F00002F0C0FE0B2002F0BDFE102002F0BAFE7D
:10220000372002F0B7FE632002F0B4FEFF2002F098
:10221000B1FEFF2002F0AEFE012002F0ABFE012075
:1022200002F0A8FE002002F0A5FE002002F0A2FEAF
:10223000FF2002F09FFE522002F09CFE012002F0DF
:1022400099FE002002F096FE402002F093FEBD2091
:1022500002F09CFE012002F08DFE232002F08AFE97
:10226000452002F087FE672002F084FE012002F084
:1022700081FE232002F07EFE452002F07BFE6720D7
:1022800002F078FEBE2002F081FE002002F072FE15
:10229000012002F06FFEAB2002F06CFE602002F025
:1022A00069FE222002F066FE222002F063FE222058
:1022B00002F060FE222002F05DFE222002F05AFEB3
:1022C000C72002F063FE362002F054FEED2002F03B
:1022D0005DFE7F2002F04EFE0F2002F04BFEC0207C
:1022E00002F054FE0F2002F045FE0B2002F042FEE9
:1022F0000A2002F03FFEFC2002F048FE082002F017
:1023000039FEDF2002F042FE002002F033FE002002
:1023100002F030FE002002F02DFE002002F02AFE26
:10232000002002F027FE202002F024FEF32002F01D
:102330002DFE742002F01EFEB42002F027FE0020C5
:1023400002F018FE002002F015FE002002F012FE3E
:10235000F72002F01BFE822002F00CFEB12002F0FA
:1023600015FE002002F006FE132002F003FE1320EB
:1023700002F000FEF22002F009FE802002F0FAFDD9
:10238000042002F0F7FD402002F0F4FD282002F0C6
:10239000F1FDC12002F0FAFD172002F0EBFD8820CC
:1023A00002F0E8FD882002F0E5FD202002F0E2FDC9
:1023B000E02002F0EBFD002002F0DCFD0A2002F03C
:1023C000D9FD122002F0D6FD102002F0D3FD0E2020
:1023D00002F0D0FD202002F0CDFDCC2002F0CAFD9D
:1023E000072002F0C7FD062002F0C4FD0B2002F01A
:1023F000C1FD0E2002F0BEFD0F2002F0BBFD0D203E
:1024000002F0B8FD152002F0B5FD102002F0B2FD7B
:10241000002002F0AFFDE12002F0B8FD002002F044
:10242000A9FD0B2002F0A6FD132002F0A3FD0D2054
:1024300002F0A0FD0E2002F09DFD1B2002F09AFD8F
:10244000712002F097FD062002F094FD062002F0B4
:1024500091FD0A2002F08EFD0F2002F08BFD0E2070
:1024600002F088FD0F2002F085FD152002F082FDAC
:102470000C2002F07FFD002002F07CFD2A2002F0FB
:1024800085FD002002F076FD002002F073FD0120A2
:1024900002F070FDDF2002F06DFD2B2002F076FDD2
:1024A000002002F067FD002002F064FD032002F02E
:1024B00061FD1F2002F05EFD3A2002F067FD55200D
:1024C00002F058FD362002F061FD002002F052FDBE
:1024D000112002F05BFD7820FFF790FC292002F02C
:1024E00055FD1420FFF78AFCBDE810402C2002F0B7
:1024F0004DBD10B5ED2002F049FD012002F03AFD7E
:10250000FE2002F037FDEE2002F040FDDE2002F05A
:1025100031FD212002F02EFDF12002F037FD0120D7
:1025200002F028FDDF2002F031FD102002F022FD34
:10253000C42002F02BFD8F2002F01CFDC62002F00B
:1025400025FD002002F016FDE22002F013FDE2203E
:1025500002F010FDE22002F00DFDBF2002F016FD9A
:10256000AA2002F007FDB02002F010FD0D2002F0BD
:1025700001FD002002F0FEFC0D2002F0FBFC00201B
:1025800002F0F8FC112002F0F5FC002002F0F2FC51
:10259000192002F0EFFC002002F0ECFC212002F0F8
:1025A000E9FC002002F0E6FC2D2002F0E3FC002014
:1025B00002F0E0FC3D2002F0DDFC002002F0DAFC3D
:1025C0005D2002F0D7FC002002F0D4FC5D2002F078
:1025D000D1FC002002F0CEFCB12002F0D7FC80201C
:1025E00002F0C8FC002002F0C5FC8B2002F0C2FC07
:1025F000002002F0BFFC962002F0BCFC002002F09C
:10260000B9FCB22002F0C2FC002002F0B3FC0020B2
:1026100002F0B0FC022002F0ADFC002002F0AAFCA7
:10262000032002F0A7FC002002F0A4FCB32002F07B
:10263000ADFC002002F09EFC002002F09BFC00207C
:1026400002F098FC002002F095FC002002F092FCC1
:10265000002002F08FFC002002F08CFC002002F031
:1026600089FC002002F086FC002002F083FC0020A0
:1026700002F080FC002002F07DFC002002F07AFCD9
:10268000002002F077FC002002F074FC002002F031
:1026900071FC002002F06EFC002002F06BFC0020B8
:1026A00002F068FC002002F065FC002002F062FCF1
:1026B000002002F05FFC002002F05CFC002002F031
:1026C00059FCB42002F062FC8B2002F053FC002085
:1026D00002F050FC962002F04DFC002002F04AFC73
:1026E000A12002F047FC002002F044FCB52002F0DB
:1026F0004DFC022002F03EFC002002F03BFC0320D7
:1027000002F038FC002002F035FC042002F032FC1C
:10271000002002F02FFCB62002F038FC002002F06E
:1027200029FC002002F026FCB72002F02FFC00203C
:1027300002F020FC002002F01DFC3F2002F01AFCF9
:10274000002002F017FC5E2002F014FC002002F0D2
:1027500011FC642002F00EFC002002F00BFC8C2027
:1027600002F008FC002002F005FCAC2002F002FCA4
:10277000002002F0FFFBDC2002F0FCFB002002F056
:10278000F9FB702002F0F6FB002002F0F3FB902032
:1027900002F0F0FB002002F0EDFBEB2002F0EAFB80
:1027A000002002F0E7FBDC2002F0E4FB002002F056
:1027B000E1FBB82002F0EAFB002002F0DBFB002086
:1027C00002F0D8FB002002F0D5FB002002F0D2FB83
:1027D000002002F0CFFB002002F0CCFB002002F032
:1027E000C9FB002002F0C6FBBA2002F0CFFB242078
:1027F00002F0C0FB002002F0BDFB002002F0BAFB9B
:10280000002002F0B7FBC12002F0C0FB202002F044
:10281000B1FB002002F0AEFB542002F0ABFB002025
:1028200002F0A8FBFF2002F0A5FB002002F0A2FBB3
:10283000C22002F0ABFB0A2002F09CFB002002F059
:1028400099FB042002F096FB002002F093FBC320CA
:1028500002F09CFB3C2002F08DFB002002F08AFB82
:102860003A2002F087FB002002F084FB392002F0BE
:1028700081FB002002F07EFB372002F07BFB002072
:1028800002F078FB3C2002F075FB002002F072FBA6
:10289000362002F06FFB002002F06CFB322002F0C9
:1028A00069FB002002F066FB2F2002F063FB002092
:1028B00002F060FB2C2002F05DFB002002F05AFBCE
:1028C000292002F057FB002002F054FB262002F0E2
:1028D00051FB002002F04EFB242002F04BFB0020B5
:1028E00002F048FB242002F045FB002002F042FBEE
:1028F000232002F03FFB002002F03CFB3C2002F0D2
:1029000039FB002002F036FB362002F033FB0020BA
:1029100002F030FB322002F02DFB002002F02AFBF7
:102920002F2002F027FB002002F024FB2C2002F0D5
:1029300021FB002002F01EFB292002F01BFB0020DF
:1029400002F018FB262002F015FB002002F012FB1B
:10295000242002F00FFB002002F00CFB242002F0E8
:1029600009FB002002F006FB232002F003FB0020FD
:1029700002F000FBC42002F009FB622002F0FAFA28
:10298000002002F0F7FA052002F0F4FA002002F02D
:10299000F1FA842002F0EEFA002002F0EBFAF020C7
:1029A00002F0E8FA002002F0E5FA182002F0E2FA5C
:1029B000002002F0DFFAA42002F0DCFA002002F08E
:1029C000D9FA182002F0D6FA002002F0D3FA5020EB
:1029D00002F0D0FA002002F0CDFA0C2002F0CAFA80
:1029E000002002F0C7FA172002F0C4FA002002F01B
:1029F000C1FA952002F0BEFA002002F0BBFAF320E3
:102A000002F0B8FA002002F0B5FAE62002F0B2FABD
:102A1000002002F0AFFAC52002F0B8FA322002F02E
:102A2000A9FA002002F0A6FA442002F0A3FA00203E
:102A300002F0A0FA652002F09DFA002002F09AFA56
:102A4000762002F097FA002002F094FA882002F033
:102A500091FA002002F08EFAC62002F097FA2020A8
:102A600002F088FA002002F085FA172002F082FABC
:102A7000002002F07FFA012002F07CFA002002F030
:102A800079FAC72002F082FA002002F073FA0020DF
:102A900002F070FA002002F06DFA002002F06AFAEB
:102AA000C82002F073FA002002F064FA002002F05D
:102AB00061FA002002F05EFA002002F05BFAC92001
:102AC00002F064FA002002F055FA002002F052FAF7
:102AD000002002F04FFA002002F04CFA002002F031
:102AE00049FA002002F046FA002002F043FA0020E2
:102AF00002F040FA002002F03DFA002002F03AFA1B
:102B0000002002F037FA002002F034FA002002F030
:102B100031FA002002F02EFA002002F02BFA0020F9
:102B200002F028FAE02002F031FA162002F022FA30
:102B3000002002F01FFA1C2002F01CFA002002F014
:102B400019FA212002F016FA002002F013FA3620BA
:102B500002F010FA002002F00DFA462002F00AFA04
:102B6000002002F007FA522002F004FA002002F0DE
:102B700001FA642002F0FEF9002002F0FBF97A204D
:102B800002F0F8F9002002F0F5F98B2002F0F2F9DA
:102B9000002002F0EFF9992002F0ECF9002002F099
:102BA000E9F9A82002F0E6F9002002F0E3F9B920E3
:102BB00002F0E0F9002002F0DDF9C42002F0DAF9B9
:102BC000002002F0D7F9CA2002F0D4F9002002F068
:102BD000D1F9D22002F0CEF9002002F0CBF9D920B1
:102BE00002F0C8F9002002F0C5F9E02002F0C2F9B5
:102BF000002002F0BFF9F32002F0BCF9002002F03F
:102C0000B9F9E12002F0C2F9162002F0B3F9002070
:102C100002F0B0F91C2002F0ADF9002002F0AAF990
:102C2000222002F0A7F9002002F0A4F9362002F0D9
:102C3000A1F9002002F09EF9452002F09BF9002046
:102C400002F098F9522002F095F9002002F092F972
:102C5000642002F08FF9002002F08CF97A2002F053
:102C600089F9002002F086F98B2002F083F9002018
:102C700002F080F9992002F07DF9002002F07AF943
:102C8000A82002F077F9002002F074F9B92002F0D0
:102C900071F9002002F06EF9C42002F06BF90020F7
:102CA00002F068F9CA2002F065F9002002F062F92A
:102CB000D22002F05FF9002002F05CF9D82002F087
:102CC00059F9002002F056F9E02002F053F90020F3
:102CD00002F050F9F32002F04DF9002002F04AF919
:102CE000E22002F053F9052002F044F9002002F03E
:102CF00041F90B2002F03EF9002002F03BF91B20C5
:102D000002F038F9002002F035F9342002F032F9EF
:102D1000002002F02FF9442002F02CF9002002F0EC
:102D200029F94F2002F026F9002002F023F9612052
:102D300002F020F9002002F01DF9792002F01AF9C2
:102D4000002002F017F9882002F014F9002002F0A8
:102D500011F9972002F00EF9002002F00BF9A620DD
:102D600002F008F9002002F005F9B72002F002F99C
:102D7000002002F0FFF8C22002F0FCF8002002F070
:102D8000F9F8C72002F0F6F8002002F0F3F8D1209D
:102D900002F0F0F8002002F0EDF8D62002F0EAF898
:102DA000002002F0E7F8DD2002F0E4F8002002F055
:102DB000E1F8F32002F0DEF8002002F0DBF8E32077
:102DC00002F0E4F8052002F0D5F8002002F0D2F875
:102DD0000A2002F0CFF8002002F0CCF81C2002F00C
:102DE000C9F8002002F0C6F8332002F0C3F8002032
:102DF00002F0C0F8442002F0BDF8002002F0BAF85A
:102E0000502002F0B7F8002002F0B4F8622002F07F
:102E1000B1F8002002F0AEF8782002F0ABF8002004
:102E200002F0A8F8882002F0A5F8002002F0A2F82D
:102E3000972002F09FF8002002F09CF8A62002F0F4
:102E400099F8002002F096F8B72002F093F80020DD
:102E500002F090F8C22002F08DF8002002F08AF80B
:102E6000C72002F087F8002002F084F8D12002F099
:102E700081F8002002F07EF8D52002F07BF80020D7
:102E800002F078F8DD2002F075F8002002F072F808
:102E9000F32002F06FF8002002F06CF8E42002F05A
:102EA00075F8012002F066F8002002F063F80120B6
:102EB00002F060F8002002F05DF8022002F05AF8FB
:102EC000002002F057F82A2002F054F8002002F007
:102ED00051F83C2002F04EF8002002F04BF84B2055
:102EE00002F048F8002002F045F85D2002F042F8B8
:102EF000002002F03FF8742002F03CF8002002F0BD
:102F000039F8842002F036F8002002F033F89320DC
:102F100002F030F8002002F02DF8A22002F02AF88A
:102F2000002002F027F8B32002F024F8002002F07D
:102F300021F8BE2002F01EF8002002F01BF8C42089
:102F400002F018F8002002F015F8CD2002F012F877
:102F5000002002F00FF8D32002F00CF8002002F05D
:102F600009F8DD2002F006F8002002F003F8F32053
:102F700002F000F8002001F0FDFFE52002F006F865
:102F8000002001F0F7FF002001F0F4FF002001F025
:102F9000F1FF002001F0EEFF022001F0EBFF002026
:102FA00001F0E8FF292001F0E5FF002001F0E2FF39
:102FB0003C2001F0DFFF002001F0DCFF4B2001F09E
:102FC000D9FF002001F0D6FF5D2001F0D3FF0020E3
:102FD00001F0D0FF742001F0CDFF002001F0CAFF06
:102FE000842001F0C7FF002001F0C4FF932001F00E
:102FF000C1FF002001F0BEFFA22001F0BBFF0020B6
:1030000001F0B8FFB32001F0B5FF002001F0B2FFDE
:10301000BE2001F0AFFF002001F0ACFFC42001F0A2
:10302000A9FF002001F0A6FFCD2001F0A3FF0020A2
:1030300001F0A0FFD32001F09DFF002001F09AFFD6
:10304000DC2001F097FF002001F094FFF32001F055
:1030500091FF002001F08EFFE62001F097FF112084
:1030600001F088FF002001F085FF342001F082FF8D
:10307000002001F07FFF562001F07CFF002001F0CE
:1030800079FF762001F076FF002001F073FF7720B2
:1030900001F070FF002001F06DFF662001F06AFF73
:1030A000002001F067FF882001F064FF002001F09C
:1030B00061FF992001F05EFF002001F05BFFBB2063
:1030C00001F058FF002001F055FF992001F052FF58
:1030D000002001F04FFF662001F04CFF002001F0BE
:1030E00049FF552001F046FF002001F043FF552025
:1030F00001F040FF002001F03DFF452001F03AFFC4
:10310000002001F037FF432001F034FF002001F0E0
:1031100031FF442001F02EFF002001F02BFFE720BB
:1031200001F034FF322001F025FF002001F022FFE2
:10313000552001F01FFF002001F01CFF762001F058
:1031400019FF002001F016FF662001F013FF002098
:1031500001F010FF672001F00DFF002001F00AFFD1
:10316000672001F007FF002001F004FF872001F035
:1031700001FF002001F0FEFE992001F0FBFE00207F
:1031800001F0F8FEBB2001F0F5FE002001F0F2FE98
:10319000992001F0EFFE002001F0ECFE772001F015
:1031A000E9FE002001F0E6FE442001F0E3FE0020ED
:1031B00001F0E0FE562001F0DDFE002001F0DAFE15
:1031C000232001F0D7FE002001F0D4FE332001F0CF
:1031D000D1FE002001F0CEFE452001F0CBFE002004
:1031E00001F0C8FEE82001F0D1FE002001F0C2FE8F
:1031F000002001F0BFFE992001F0BCFE002001F08C
:10320000B9FE872001F0B6FE002001F0B3FE882051
:1032100001F0B0FE002001F0ADFE772001F0AAFE23
:10322000002001F0A7FE662001F0A4FE002001F0BE
:10323000A1FE882001F09EFE002001F09BFEAA2046
:1032400001F098FE002001F095FEBB2001F092FEF7
:10325000002001F08FFE992001F08CFE002001F08B
:1032600089FE662001F086FE002001F083FE5520D5
:1032700001F080FE002001F07DFE552001F07AFE75
:10328000002001F077FE442001F074FE002001F0E0
:1032900071FE442001F06EFE002001F06BFE55200F
:1032A00001F068FE002001F065FEE92001F06EFEED
:1032B000AA2001F05FFE002001F05CFE002001F07A
:1032C00059FE002001F056FE002001F05FFEAA200A
:1032D00001F050FECF2001F059FE002001F04AFE1F
:1032E000002001F047FE002001F044FE002001F024
:1032F00041FE002001F03EFE002001F03BFE0020D8
:1033000001F038FE002001F035FE002001F032FE11
:10331000002001F02FFE002001F02CFE002001F023
:1033200029FE002001F026FE002001F023FE0020EF
:1033300001F020FE002001F01DFE002001F01AFE29
:10334000F02001F023FE002001F014FE502001F0D7
:1033500011FE002001F00EFE002001F00BFE002007
:1033600001F008FEF32001F011FE002001F002FE42
:10337000F92001F00BFE062001F0FCFD102001F009
:10338000F9FD292001F0F6FD002001F0F3FD3A20BF
:1033900001F0FCFD552001F0EDFD112001F0F6FDDE
:1033A0006420FEF72BFD292001F0F0FD352001F00F
:1033B000EDFD002001F0DEFD512001F0E7FDFF20D2
:1033C00001F0D8FD532001F0E1FD2C2001F0D2FDE9
:1033D000552001F0DBFD822001F0CCFDBDE810405E
:1033E0002C2001F0D3BD2DE9F05F4FF4704355213F
:1033F000184601F0E1FD4FF20104AA21204601F038
:10340000DBFD651C5221284601F0D6FDA61C0821D3
:10341000304601F0D1FDE71C0121384601F0CCFD1A
:103420000D214FF4304001F0C7FD0D214BF201009A
:1034300001F0C2FD0D214BF2020001F0BDFD4FF481
:1034400036483421404601F0B7FD34214BF201608B
:1034500001F0B2FD34214BF2026001F0ADFD4FF4FA
:1034600031490D21484601F0A7FD4BF2011A0D210B
:10347000504601F0A1FD0D214BF2021001F09CFD20
:103480004FF4374B3421584601F096FD34214BF26E
:10349000017001F091FD34214BF2027001F08CFDBE
:1034A00000214FF4324001F087FD00214BF2012052
:1034B00001F082FD00214BF2022001F07DFD24216C
:1034C0004FF4384001F078FD24214BF6010001F063
:1034D00073FD24214BF6020001F06EFD01214FF433
:1034E0003F4001F069FD0F214FF4334001F064FDCE
:1034F0000F214BF2013001F05FFD0F214BF2023042
:1035000001F05AFD34214FF4394001F055FD3421CA
:103510004BF6011001F050FD34214BF6021001F082
:103520004BFD08214FF4354001F046FD08214BF2D8
:10353000015001F041FD08214BF2025001F03CFD29
:1035400003214FF4424001F037FD24214FF43A406B
:1035500001F032FD24214BF6012001F02DFD242144
:103560004BF6022001F028FD00214FF43C4001F011
:1035700023FD78214BF6014001F01EFD00214BF6A2
:10358000024001F019FD00214FF43D4001F014FD0F
:1035900078214BF6015001F00FFD00214BF602504F
:1035A00001F00AFD00214FF43E4001F005FD6421C9
:1035B0004BF6016001F000FD00214FF4514001F095
:1035C000FBFC33214DF2011001F0F6FC00214DF21D
:1035D000021001F0F1FC34214DF2031001F0ECFC7B
:1035E00000214DF2041001F0E7FC3A214DF20510E4
:1035F00001F0E2FC00214DF2061001F0DDFC4A2151
:103600004DF2071001F0D8FC00214DF2081001F036
:10361000D3FC5C214DF2091001F0CEFC00214DF2EB
:103620000A1001F0C9FC81214DF20B1001F0C4FC1D
:1036300000214DF20C1001F0BFFCA6214DF20D103F
:1036400001F0BAFC00214DF20E1001F0B5FCE521AD
:103650004DF20F1001F0B0FC01214DF2101001F0FD
:10366000ABFC13214DF2111001F0A6FC01214DF22B
:10367000121001F0A1FC54214DF2131001F09CFC3A
:1036800001214DF2141001F097FC82214DF215102A
:1036900001F092FC01214DF2161001F08DFCCA21BF
:1036A0004DF2171001F088FC02214DF2181001F0C4
:1036B00083FC00214DF2191001F07EFC02214DF235
:1036C0001A1001F079FC01214DF21B1001F074FC7D
:1036D00002214DF21C1001F06FFC34214DF21D103F
:1036E00001F06AFC02214DF21E1001F065FC672119
:1036F0004DF21F1001F060FC02214DF2201001F08C
:103700005BFC84214DF2211001F056FC02214DF2A8
:10371000221001F051FCA4214DF2231001F04CFCC9
:1037200002214DF2241001F047FCB7214DF2251083
:1037300001F042FC02214DF2261001F03DFCCF21A8
:103740004DF2271001F038FC02214DF2281001F053
:1037500033FCDE214DF2291001F02EFC02214DF246
:103760002A1001F029FCF2214DF22B1001F024FC6B
:1037700002214DF22C1001F01FFCFE214DF22D1004
:1037800001F01AFC03214DF22E1001F015FC10215E
:103790004DF22F1001F010FC03214DF2301001F01A
:1037A0000BFC33214DF2311001F006FC03214DF2E8
:1037B000321001F001FC6D214DF2331001F0FCFBE1
:1037C00000214FF4524001F0F7FB33214DF201206C
:1037D00001F0F2FB00214DF2022001F0EDFB34215B
:1037E0004DF2032001F0E8FB00214DF2042001F02E
:1037F000E3FB3A214DF2052001F0DEFB00214DF202
:10380000062001F0D9FB4A214DF2072001F0D4FB3C
:1038100000214DF2082001F0CFFB5C214DF2092080
:1038200001F0CAFB00214DF20A2001F0C5FB812105
:103830004DF20B2001F0C0FB00214DF20C2001F0F5
:10384000BBFBA6214DF20D2001F0B6FB00214DF28D
:103850000E2001F0B1FBE5214DF20F2001F0ACFB91
:1038600001214DF2102001F0A7FB13214DF2112090
:1038700001F0A2FB01214DF2122001F09DFB542129
:103880004DF2132001F098FB01214DF2142001F0BC
:1038900093FB82214DF2152001F08EFB01214DF2A8
:1038A000162001F089FBCA214DF2172001F084FB9C
:1038B00002214DF2182001F07FFB00214DF219206A
:1038C00001F07AFB02214DF21A2001F075FB012173
:1038D0004DF21B2001F070FB02214DF21C2001F083
:1038E0006BFB34214DF21D2001F066FB02214DF2ED
:1038F0001E2001F061FB67214DF21F2001F05CFBEF
:1039000002214DF2202001F057FB84214DF22120AD
:1039100001F052FB02214DF2222001F04DFBA421C7
:103920004DF2232001F048FB02214DF2242001F04A
:1039300043FBB7214DF2252001F03EFB02214DF261
:10394000262001F039FBCF214DF2272001F034FB76
:1039500002214DF2282001F02FFBDE214DF229201B
:1039600001F02AFB02214DF22A2001F025FBF22171
:103970004DF22B2001F020FB02214DF22C2001F012
:103980001BFBFE214DF22D2001F016FB03214DF211
:103990002E2001F011FB10214DF22F2001F00CFB25
:1039A00003214DF2302001F007FB33214DF231208D
:1039B00001F002FB03214DF2322001F0FDFA6D21EE
:1039C0004DF2332001F0F8FA00214FF4534001F09A
:1039D000F3FA33214DF2013001F0EEFA00214DF2FD
:1039E000023001F0E9FA34214DF2033001F0E4FA3B
:1039F00000214DF2043001F0DFFA3A214DF205309A
:103A000001F0DAFA00214DF2063001F0D5FA4A2130
:103A10004DF2073001F0D0FA00214DF2083001F0EC
:103A2000CBFA5C214DF2093001F0C6FA00214DF2CB
:103A30000A3001F0C1FA81214DF20B3001F0BCFADD
:103A400000214DF20C3001F0B7FAA6214DF20D30F5
:103A500001F0B2FA00214DF20E3001F0ADFAE5218D
:103A60004DF20F3001F0A8FA01214DF2103001F0B3
:103A7000A3FA13214DF2113001F09EFA01214DF20B
:103A8000123001F099FA54214DF2133001F094FAFA
:103A900001214DF2143001F08FFA82214DF21530E0
:103AA00001F08AFA01214DF2163001F085FACA219F
:103AB0004DF2173001F080FA02214DF2183001F07A
:103AC0007BFA00214DF2193001F076FA02214DF215
:103AD0001A3001F071FA01214DF21B3001F06CFA3D
:103AE00002214DF21C3001F067FA34214DF21D30F5
:103AF00001F062FA02214DF21E3001F05DFA6721F9
:103B00004DF21F3001F058FA02214DF2203001F041
:103B100053FA84214DF2213001F04EFA02214DF288
:103B2000223001F049FAA4214DF2233001F044FA89
:103B300002214DF2243001F03FFAB7214DF2253039
:103B400001F03AFA02214DF2263001F035FACF2188
:103B50004DF2273001F030FA02214DF2283001F009
:103B60002BFADE214DF2293001F026FA02214DF226
:103B70002A3001F021FAF2214DF22B3001F01CFA2B
:103B800002214DF22C3001F017FAFE214DF22D30BA
:103B900001F012FA03214DF22E3001F00DFA10213E
:103BA0004DF22F3001F008FA03214DF2303001F0D0
:103BB00003FA33214DF2313001F0FEF903214DF2C9
:103BC000323001F0F9F96D214DF2333001F0F4F9A2
:103BD00000214FF4544001F0EFF933214DF2014040
:103BE00001F0EAF900214DF2024001F0E5F934213B
:103BF0004DF2034001F0E0F900214DF2044001F0E4
:103C0000DBF93A214DF2054001F0D6F900214DF2E1
:103C1000064001F0D1F94A214DF2074001F0CCF9FC
:103C200000214DF2084001F0C7F95C214DF2094036
:103C300001F0C2F900214DF20A4001F0BDF98121E5
:103C40004DF20B4001F0B8F900214DF20C4001F0AB
:103C5000B3F9A6214DF20D4001F0AEF900214DF26D
:103C60000E4001F0A9F9E5214DF20F4001F0A4F951
:103C700001214DF2104001F09FF913214DF2114046
:103C800001F09AF901214DF2124001F095F9542109
:103C90004DF2134001F090F901214DF2144001F072
:103CA0008BF982214DF2154001F086F901214DF288
:103CB000164001F081F9CA214DF2174001F07CF95C
:103CC00002214DF2184001F077F900214DF2194020
:103CD00001F072F902214DF21A4001F06DF9012153
:103CE0004DF21B4001F068F902214DF21C4001F039
:103CF00063F934214DF21D4001F05EF902214DF2CD
:103D00001E4001F059F967214DF21F4001F054F9AE
:103D100002214DF2204001F04FF984214DF2214063
:103D200001F04AF902214DF2224001F045F9A421A7
:103D30004DF2234001F040F902214DF2244001F000
:103D40003BF9B7214DF2254001F036F902214DF241
:103D5000264001F031F9CF214DF2274001F02CF936
:103D600002214DF2284001F027F9DE214DF22940D1
:103D700001F022F902214DF22A4001F01DF9F22151
:103D80004DF22B4001F018F902214DF22C4001F0C8
:103D900013F9FE214DF22D4001F00EF903214DF2F1
:103DA0002E4001F009F910214DF22F4001F004F9E5
:103DB00003214DF2304001F0FFF833214DF2314044
:103DC00001F0FAF803214DF2324001F0F5F86D21CF
:103DD0004DF2334001F0F0F800214FF4554001F06E
:103DE000EBF833214DF2015001F0E6F800214DF2DD
:103DF000025001F0E1F834214DF2035001F0DCF8FB
:103E000000214DF2045001F0D7F83A214DF205504F
:103E100001F0D2F800214DF2065001F0CDF84A2110
:103E20004DF2075001F0C8F800214DF2085001F0A2
:103E3000C3F85C214DF2095001F0BEF800214DF2AB
:103E40000A5001F0B9F881214DF20B5001F0B4F89D
:103E500000214DF20C5001F0AFF8A6214DF20D50AB
:103E600001F0AAF800214DF20E5001F0A5F8E5216D
:103E70004DF20F5001F0A0F801214DF2105001F069
:103E80009BF813214DF2115001F096F801214DF2EB
:103E9000125001F091F854214DF2135001F08CF8BA
:103EA00001214DF2145001F087F882214DF2155096
:103EB00001F082F801214DF2165001F07DF8CA217F
:103EC0004DF2175001F078F802214DF2185001F030
:103ED00073F800214DF2195001F06EF802214DF2F5
:103EE0001A5001F069F801214DF21B5001F064F8FD
:103EF00002214DF21C5001F05FF834214DF21D50AB
:103F000001F05AF802214DF21E5001F055F86721D8
:103F10004DF21F5001F050F802214DF2205001F0F7
:103F20004BF884214DF2215001F046F802214DF268
:103F3000225001F041F8A4214DF2235001F03CF849
:103F400002214DF2245001F037F8B7214DF22550EF
:103F500001F032F802214DF2265001F02DF8CF2168
:103F60004DF2275001F028F802214DF2285001F0BF
:103F700023F8DE214DF2295001F01EF802214DF206
:103F80002A5001F019F8F2214DF22B5001F014F8EB
:103F900002214DF22C5001F00FF8FE214DF22D5070
:103FA00001F00AF803214DF22E5001F005F810211E
:103FB0004DF22F5001F000F803214DF2305000F087
:103FC000FBFF33214DF2315000F0F6FF03214DF29B
:103FD000325000F0F1FF6D214DF2335000F0ECFF54
:103FE00000214FF4564000F0E7FF33214DF201600D
:103FF00000F0E2FF00214DF2026000F0DDFF34210D
:104000004DF2036000F0D8FF00214DF2046000F093
:10401000D3FF3A214DF2056000F0CEFF00214DF2B2
:10402000066000F0C9FF4A214DF2076000F0C4FFAE
:1040300000214DF2086000F0BFFF5C214DF20960E5
:1040400000F0BAFF00214DF20A6000F0B5FF8121B7
:104050004DF20B6000F0B0FF00214DF20C6000F05B
:10406000ABFFA6214DF20D6000F0A6FF00214DF23E
:104070000E6000F0A1FFE5214DF20F6000F09CFF03
:1040800001214DF2106000F097FF13214DF21160F5
:1040900000F092FF01214DF2126000F08DFF5421DB
:1040A0004DF2136000F088FF01214DF2146000F022
:1040B00083FF82214DF2156000F07EFF01214DF259
:1040C000166000F079FFCA214DF2176000F074FF0E
:1040D00002214DF2186000F06FFF00214DF21960CF
:1040E00000F06AFF02214DF21A6000F065FF012125
:1040F0004DF21B6000F060FF02214DF21C6000F0E9
:104100005BFF34214DF21D6000F056FF02214DF29D
:104110001E6000F051FF67214DF21F6000F04CFF60
:1041200002214DF2206000F047FF84214DF2216012
:1041300000F042FF02214DF2226000F03DFFA42179
:104140004DF2236000F038FF02214DF2246000F0B0
:1041500033FFB7214DF2256000F02EFF02214DF212
:10416000266000F029FFCF214DF2276000F024FFE8
:1041700002214DF2286000F01FFFDE214DF2296080
:1041800000F01AFF02214DF22A6000F015FFF22123
:104190004DF22B6000F010FF02214DF22C6000F078
:1041A0000BFFFE214DF22D6000F006FF03214DF2C2
:1041B0002E6000F001FF10214DF22F6000F0FCFE98
:1041C00003214DF2306000F0F7FE33214DF23160F3
:1041D00000F0F2FE03214DF2326000F0EDFE6D21A1
:1041E0004DF2336000F0E8FE5521184600F0E4FE81
:1041F000AA21204600F0E0FE5221284600F0DCFE15
:104200000821304600F0D8FE0021384600F0D4FEE8
:10421000CC21484600F0D0FE0021504600F0CCFEF4
:104220000521404600F0C8FE7021584600F0C4FE4B
:1042300070214BF2017000F0BFFE01214FF43840B5
:1042400000F0BAFE03214BF6010000F0B5FE032199
:104250004BF6020000F0B0FE03214BF6030000F025
:10426000ABFE02214FF43C4000F0A6FE00214BF6CD
:10427000014000F0A1FE00214BF6024000F09CFE40
:10428000D0214FF4494000F097FE02214CF6011076
:1042900000F092FE50214CF6021000F08DFE5021ED
:1042A0004CF6031000F088FE50214CF6041000F08C
:1042B00083FE00214FF4545000F07EFE55214FF450
:1042C000685000F079FE4FF4885000F05FFE7820CF
:1042D000FDF794FDBDE8F05F4FF4245000F056BEAA
:1042E00010B5E22000F052FE1D2000F043FE022037
:1042F00000F040FE042000F03DFE6420FDF77EFD4E
:10430000E02000F043FE012000F034FE0A20FDF71B
:1043100075FDE02000F03AFE032000F02BFE0C209B
:10432000FDF76CFD012000F031FE0A20FDF766FD6F
:10433000E62000F02BFE2F2000F01CFEFF2000F0F6
:1043400019FEFF2000F016FEB02000F01FFE202016
:1043500000F010FE002000F00DFE032000F00AFE29
:1043600040F21F3000F006FE012000F003FE40F294
:10437000DF1000F0FFFD002000F0FCFDB42000F095
:1043800005FE042000F0F6FD40F21F4000F0F2FDB3
:10439000002000F0EFFD2E2000F0ECFD002000F0EA
:1043A000E9FD002000F0E6FD002000F0E3FD002024
:1043B00000F0E0FDB62000F0E9FD022000F0DAFD9B
:1043C0004FF4037000F0D6FD002000F0D3FD17205D
:1043D00000F0D0FD152000F0CDFD002000F0CAFD5A
:1043E000002000F0C7FDF02000F0D0FD032000F019
:1043F000C1FD292000F0CAFDD02000F0C7FD00203B
:1044000000F0B8FDBE2000F0C1FD052000F0B2FDB7
:10441000FE2000F0AFFD012000F0ACFD002000F018
:10442000A9FD002000F0A6FD002000F0A3FDB820AB
:1044300000F0ACFD032000F09DFD012000F09AFD8E
:10444000BA2000F0A3FDBDE81040012000F092BDAD
:1044500010B5112000F09AFD7820FDF7CFFC362032
:1044600000F094FD002000F085FD3A2000F08EFD64
:10447000052000F07FFDB22000F088FD0C2000F048
:1044800079FD0C2000F076FD002000F073FD332054
:1044900000F070FD332000F06DFDB72000F076FDD8
:1044A000352000F067FDBB2000F070FD322000F0E9
:1044B00061FDC02000F06AFD0C2000F05BFDC22011
:1044C00000F064FD012000F055FDC32000F05EFD0A
:1044D000102000F04FFDC42000F058FD202000F017
:1044E00049FDC62000F052FD0F2000F043FDD02012
:1044F00000F04CFDA42000F03DFDA12000F03AFDAD
:10450000E02000F043FDD02000F034FD002000F05A
:1045100031FD022000F02EFD072000F02BFD0A20C7
:1045200000F028FD282000F025FD322000F022FDBB
:10453000442000F01FFD422000F01CFD062000F08A
:1045400019FD0E2000F016FD122000F013FD1420BE
:1045500000F010FD172000F00DFDE12000F016FD29
:10456000D02000F007FD002000F004FD022000F044
:1045700001FD072000F0FEFC0A2000F0FBFC2820D3
:1045800000F0F8FC312000F0F5FC542000F0F2FCC3
:10459000472000F0EFFC0E2000F0ECFC1C2000F0A7
:1045A000E9FC172000F0E6FC1B2000F0E3FC1E20D5
:1045B00000F0E0FC2A2000F0E9FC002000F0DAFC2A
:1045C000002000F0D7FC002000F0D4FCEF2000F029
:1045D000D1FC2B2000F0DAFC002000F0CBFC002006
:1045E00000F0C8FC012000F0C5FC3F2000F0C2FC38
:1045F000BDE81040292000F0C9BC10B5112000F022
:10460000C5FC7820FDF7FAFB362000F0BFFC4820FF
:1046100000F0B0FC3A2000F0B9FC552000F0AAFCF4
:10462000F02000F0B3FCC32000F0A4FCF02000F068
:10463000ADFC962000F09EFCB42000F0A7FC012009
:1046400000F098FCB62000F0A1FC0A2000F092FCDB
:10465000A22000F08FFCB72000F098FCC62000F0EC
:1046600089FCB92000F092FC022000F083FCE020DD
:1046700000F080FCC02000F089FC802000F07AFC73
:10468000162000F077FCC12000F080FC192000F01B
:1046900071FCC22000F07AFCA72000F06BFCC52062
:1046A00000F074FC162000F065FCE82000F06EFCC1
:1046B000402000F05FFC8A2000F05CFC002000F04D
:1046C00059FC002000F056FC292000F053FC192072
:1046D00000F050FCA52000F04DFC332000F04AFC17
:1046E000E02000F053FCF02000F044FC072000F034
:1046F00041FC0D2000F03EFC042000F03BFC0520B6
:1047000000F038FC142000F035FC362000F032FCBC
:10471000542000F02FFC4C2000F02CFC382000F03E
:1047200029FC132000F026FC142000F023FC2E208E
:1047300000F020FC342000F01DFCE12000F026FCFD
:10474000F02000F017FC102000F014FC142000F002
:1047500011FC0E2000F00EFC0C2000F00BFC0820D9
:1047600000F008FC352000F005FC442000F002FCBD
:104770004C2000F0FFFB262000F0FCFB102000F096
:10478000F9FB122000F0F6FB2C2000F0F3FB3220A6
:1047900000F0F0FBF02000F0F9FB3C2000F0EAFB19
:1047A000F02000F0F3FB692000F0E4FB7820FDF737
:1047B00025FB212000F0EAFBBDE81040292000F095
:1047C000E5BB10B5BF2000F0E1FB00F065F900F09B
:1047D00063F9C0B210BD00002DE9F05F3220FDF793
:1047E0000DFBD32000F0D2FB00F056F9A14CA080C5
:1047F00000F052F9A08000F04FF94FF6FF7101EA86
:104800000020A08000F048F9A18849F24136084311
:10481000A08047F2897545F2103747F2967845F245
:10482000105949F6060A41F6631BB0427DD00420B8
:1048300000F0ACFB00F030F9A08000F02DF9A08072
:1048400000F02AF94FF6FF7101EA0020A08000F085
:1048500023F9A1880843A0F50541A080523965D00D
:10486000A84262D0D42000F091FB00F015F9A0809E
:1048700000F012F9A08000F00FF94FF6FF7101EA85
:104880000020A08000F008F9A1880843A080B84269
:104890007ED0D32000F07AFB00F0FEF8A08000F07C
:1048A000FBF8A08000F0F8F84FF6FF7101EA002055
:1048B000A08000F0F1F8A1880843A080404567D0AF
:1048C00055214FF4704000F077FBAA214FF2010010
:1048D00000F072FB52214FF2020000F06DFB082144
:1048E0004FF2030000F068FB01214FF2040000F0DA
:1048F00063FB4FF4454000F049FB00F0CDF84FF664
:10490000FF7101EA0020A0804CF2015000F03EFB54
:1049100000F0C2F8A1880843A0800520FDF76EFAD8
:10492000A188494534D0D32001E02CE02CE000F0F0
:104930002DFB00F0B1F8A08000F0AEF8A08000F0F0
:10494000ABF84FF6FF7101EA0020A08000F0A4F858
:10495000A1880843A08050451AD0A12000F016FB82
:1049600000F09AF8A08000F097F84FF6FF7101EA86
:104970000020A08000F090F8A1880843A0F5AE4187
:10498000A080613902D003E0A58001E0A4F804B062
:10499000A18839A0FCF754FFA088A84202D1FFF7F4
:1049A00057FD1FE0B04202D1FDF7EBFA1AE0B84222
:1049B00002D1FDF79EFD15E0404502D1FFF71DFE37
:1049C00010E0484502D1FEF70EFD0BE0504502D144
:1049D000FDF7EEFB06E0584504D1FFF781FC6420AB
:1049E00000F0A0FAA1884FF02040A94203D0B142C4
:1049F00001D0594510D1D0F81C1121F00F01C0F899
:104A00001C11D0F81C1141F00301C0F81C11D0F8A2
:104A10001C1141F440711DE0B94205D0414503D05D
:104A2000494501D0514517D1D0F81C1121F00F0193
:104A3000C0F81C11D0F81C1141F00201C0F81C1183
:104A4000D0F81C1121F47061C0F81C11D0F81C11B1
:104A500041F40071C0F81C110020FDF711FA012289
:104A600020210848FCF746F9BDE8F05F4FF6FF70DB
:104A7000FDF7EEB9440000204C43442049443A2558
:104A8000780D0A00000402400246012000E0504375
:104A9000491EC9B2FBD2704708B50220401EFDD2A4
:104AA0004FF0D840B0F88000ADF80000BDF800002D
:104AB00008BD000070B55F4C00232146A2798988AB
:104AC00041F66316012A01D01AB10CE0B14202D1BD
:104AD00009E0B14207D1082805D2DFE800F0161836
:104AE00012140C19100E082812D2DFE800F011047D
:104AF00006080A0C0E1080230AE0402308E0C023B9
:104B000006E0202304E0602302E0A02300E0E0238D
:104B1000362045F21055A94200D10002A1F51342FA
:104B2000413A07D0A1F5EE42893A03D0A1F5EE4211
:104B3000963A01D143F00803194600F03DFAA188E6
:104B4000B1420AD098062088628802D5904202D3EA
:104B500003E0904201D9228060806089A94240D15F
:104B600000F014FA002000F005FA6089401C80B2C1
:104B700000F00CFA002000F0FDF96089801C80B282
:104B800000F004FA2088401EC0F30F2000F0F2F974
:104B90006089C01C80B200F0F9F92078401EC0B2D4
:104BA00000F0E8F9A08900F0F1F9002000F0E2F946
:104BB000A089401C80B200F0E9F9002000F0DAF989
:104BC000A089801C80B200F0E1F96088401EC0F32B
:104BD0000F2000F0CFF9A089C01C80B200F0D6F9F8
:104BE00021E000F0D3F9002000F0C4F9002000F02B
:104BF000C1F92088401EC0F30F2000F0BBF92078D7
:104C0000401EC0B200F0B6F9A08900F0BFF9002044
:104C100000F0B0F9002000F0ADF96088401EC0F34C
:104C20000F2000F0A7F9A078BDE87040401EC0B288
:104C300000F0A0B94400002010B50446D12000F0D7
:104C4000A5F9FFF729FF400605D4D02000F09EF912
:104C5000682000F08FF9BE2000F098F9062000F0DF
:104C600089F9204600F086F9BDE81040012000F0E7
:104C700081B90000F0B53B4A0D460446060A91880A
:104C800010462F0A4089A1F5C853633B16D0A1F501
:104C9000AA43103B4CD000F079F9304600F06AF995
:104CA000E0B200F067F9908900F070F9384600F042
:104CB00061F9E8B2BDE8F04000F05CB9917931B338
:104CC00000F064F9304600F055F9E0B200F052F916
:104CD0001088401EC0F30F2000F04CF91078401EE1
:104CE0005FFA80F000F046F9908900F04FF93846FD
:104CF00000F040F9E8B200F03DF95088401EC0F3E2
:104D00000F2000F037F99078401EC0B2D2E711882A
:104D1000091B491E8CB200F039F9002000F02AF975
:104D2000002000F027F9200A00F024F9E0B2D9E7CA
:104D300000F02CF9304600F01DF95089401C80B27B
:104D400000F024F9E0B200F015F9908900F01EF9A6
:104D5000384600F00FF99089401C80B200F016F937
:104D6000A7E70000440000202DE9FF4F1D460C4638
:104D70008B46580700D0012000EBD500690810FBD6
:104D800001F0203A00F0FF0AD0B20C2D0AD0102D0D
:104D90000CD0182D0ED0202D46D1244901EB8016C1
:104DA00000203EE000EB4001214806E0214901EBF4
:104DB0000016F5E700EBC0011F4800EB8106EFE7A6
:104DC00016F808704FF00009380601D50E9A03E076
:104DD0000D9828B91948026821460098FDF7C6F8D1
:104DE0007806070E1648641CA4B24088A0421BD95E
:104DF000A4EB0B00A8420AD100985C46401C80B28C
:104E000000900F480188009881420DD906E009F111
:104E1000010000F0FF09B9F1080FD5D308F1010036
:104E2000C0B280465045CBD3BDE8FF8F2C69000847
:104E30006C510008E0550008D05B00080800002015
:104E4000440000202DE9FC4F044600F0FF09101932
:104E50000D46DDE90BB61FFA80F8581987B24FF0FE
:104E6000000A13E0444503D305EB0B004C4685B222
:104E7000BD4210D20D985B46CDE900A029462046E0
:104E8000FFF772FF04EB5B0084B2761C3278A2F16C
:104E900020005E28E6D9BDE8FC8F2DE9FF4F83B0E6
:104EA0008146DDE911BA10984FF000081E464446CD
:104EB0000BF0010547082EE0301B401EC1B20A204E
:104EC000FFF7E2FD0599B1FBF0F00A21B0FBF1F22A
:104ED00001FB1200B8F1000F05D1711E8C4202DAFD
:104EE00050B14FF001083030C2B2CDE9005A07FB93
:104EF000049080B2109B09E0CDE9005A5FEA0B6094
:104F000007FB0490109B80B20AD530220499FFF76A
:104F10002BFF641CE4B2B442CED307B0BDE8F08FDF
:104F20002022F3E710B50246BE2000F02FF805203E
:104F300000F020F81046FBF7F8F99FED0C1B53EC3E
:104F4000112BFBF780F9FBF7FDF980B200F012F8A6
:104F5000012000F00FF8FF2000F00CF8002000F016
:104F600009F8BDE81040002000F004B866666666E7
:104F70006666044001B5BDF80000ADF80000BDF85C
:104F800000004FF0D841A1F8800008BD01B5BDF880
:104F90000000ADF80000BDF800004FF0D841A1F8C6
:104FA0007E0008BD03484FF0D8410089A1F87E007B
:104FB00070470000440000204FF0D84222F87E0FD6
:104FC0005180704710B50A210520FCF7D1FE282139
:104FD000B0FBF1F0642800D96420C0F16400C0B2D5
:104FE00010BD00000C4800B5026887B0002142F0F7
:104FF00020020260006800F02000059080200090F0
:105000000320CDE9010169460448FBF77DFDFCF76B
:10501000C5FE07B000BD0000303802400014024059
:105020000EB5FBF77BFEFCF737FBFCF7BDFAFCF790
:1050300075FAFCF70FFBFCF73FFAA820FCF7D8FE47
:10504000FFF7CAFB33484FF4784434A10460324878
:1050500082883548FCF704FCFF20FFF7EDFD33485C
:10506000051F297830F81100FCF7F2FEFFF7A9FBC5
:10507000687002462C482EA10C30FCF7F1FB202171
:1050800031A0CDE900100B46F022029428210A201D
:10509000FFF7D8FE18212EA0CDE900100B46F02214
:1050A000029450210A20FFF7CDFE10262BA0009677
:1050B000CDE901043346F0226E210A20FFF7C2FE3B
:1050C00019480096CDE901041023F02282210A201C
:1050D000FFF7B8FE144800960C30CDE90104102308
:1050E000F02296210A20FFF7ADFEFFF77BFF002498
:1050F0005FF01F07FFF766FF6880CDE90064024696
:105100006E21032308460297FFF7C7FEFA20FCF73B
:1051100075FEEFE704000020440000204C434420CB
:1051200049443A2530345800540000201000002033
:1051300063757272656E74206272696768746E65F9
:1051400073733A253375000053544D333200000019
:105150005446544C434420544553540041544F4DFD
:1051600040414C49454E54454B00000000000000B2
:105170000000000000000000000000003F400000B0
:10518000000000000000300040003000400000003F
:1051900009000BC03D000BC03D00090018C02440B1
:1051A0007FE0224031800000180024C01B000D80E9
:1051B0003240018003801C4027401C800740004093
:1051C000100060000000000000000000000000006F
:1051D00000001F80204040200000402020401F8011
:1051E00000000000090006001F8006000900000002
:1051F000040004003F800400040000000010006070
:10520000000000000000000004000400040004008E
:10521000040000000000004000000000000000004A
:10522000002001C006003800400000001F80204020
:10523000204020401F800000000010403FC0004080
:105240000000000018C02140224024401840000007
:1052500010802040244024401B80000002000D00EC
:1052600011003FC0014000003C8024402440244005
:10527000238000001F80244024403440038000002D
:105280003000200027C03800200000001B80244090
:10529000244024401B8000001C0022C022402240E9
:1052A0001F80000000000000084000000000000017
:1052B0000000000004600000000000000000040086
:1052C0000A0011002080404009000900090009007F
:1052D0000900000000004040208011000A00040086
:1052E0001800200023402400180000001F802040E8
:1052F000274029401F400000004007C039000F0030
:1053000001C0004020403FC0244024401B800000DA
:105310001F802040204020403080000020403FC0BF
:10532000204020401F80000020403FC024402E40ED
:1053300030C0000020403FC024402E00300000005C
:105340000F001080204022403380020020403FC0E8
:10535000040004003FC02040204020403FC02040C7
:10536000204000000060202020203FC020002000BE
:1053700020403FC024400B0030C0204020403FC0B0
:1053800020400040004000C03FC03C0003C03C0043
:105390003FC0000020403FC00C4023003FC0200021
:1053A0001F802040204020401F80000020403FC040
:1053B00024402400180000001F802140214020E0EC
:1053C0001FA0000020403FC02440260019C000401C
:1053D00018C024402440224031800000300020408A
:1053E0003FC020403000000020003F8000400040CF
:1053F0003F80200020003E0001C007003800200050
:10540000380007C03C0007C038000000204039C009
:10541000060039C0204000002000384007C0384056
:1054200020000000304021C02640384020C000004D
:10543000000000007FE040204020000000007000DD
:105440000C000380004000000000402040207FE06E
:1054500000000000000020004000200000000000CC
:1054600000100010001000100010001000000000DC
:1054700040000000000000000000028005400540E0
:1054800003C0004020003FC00440044003800000EF
:105490000000038004400440064000000000038038
:1054A000044024403FC00040000003800540054008
:1054B00003400000000004401FC02440244020009E
:1054C000000002E0055005500650042020403FC077
:1054D0000440040003C000400000044027C0004016
:1054E0000000000000100010041027E00000000081
:1054F00020403FC00140070004C00440204020403D
:105500003FC000400040000007C0040007C0040086
:1055100003C00000044007C00440040003C0004072
:10552000000003800440044003800000041007F0E2
:105530000450044003800000000003800440045035
:1055400007F00010044007C00240040004000000FF
:10555000000006400540054004C0000000000400B3
:105560001F80044000400000040007800040044009
:1055700007C000400400070004C0018006000400CA
:10558000060001C0070001C006000000044006C07C
:10559000010006C0044000000410071004E0018070
:1055A000060004000000044005C00640044000005E
:1055B0000000000004007BE040200000000000002C
:1055C0000000FFF000000000000040207BE004002D
:1055D000000000004000800040002000200040004B
:1055E00000000000000000000000000000000000BB
:1055F0000000000000001FCC000C000000000000B4
:10560000000008003000600008003000600000006A
:10561000022003FC1E20022003FC1E2002200000AA
:1056200000000E1811043FFF10840C7800000000E9
:105630000F0010840F3800C007781884007800002D
:1056400000780F8410C411240E9800E40084000830
:10565000080068007000000000000000000000006A
:1056600000000000000007E01818200440020000BD
:10567000000040022004181807E0000000000000AD
:105680000240024001800FF0018002400240000011
:105690000080008000800FF8008000800080000003
:1056A0000001000D000E00000000000000000000DE
:1056B000000000800080008000800080008000806A
:1056C0000000000C000C00000000000000000000C2
:1056D000000000060018006001800600180020008D
:1056E000000007F0080810041004080807F0000084
:1056F0000000080408041FFC00040004000000006F
:1057000000000E0C10141024104411840E0C000024
:1057100000000C1810041104110412880C70000011
:10572000000000E00320042408241FFC00240000E3
:1057300000001F98108411041104108810700000DC
:10574000000007F008881104110418880070000098
:1057500000001C00100010FC13001C0010000000D2
:1057600000000E3811441084108411440E380000DB
:1057700000000700088C10441044088807F000005F
:10578000000000000000030C030C000000000000FB
:105790000000000000010106000000000000000001
:1057A00000000080014002200410080810040000DE
:1057B00002200220022002200220022002200000FB
:1057C00000001004080804100220014000800000BE
:1057D00000000E001200100C106C10800F00000072
:1057E00003E00C1813E4142417C4082807D00000A1
:1057F0000004003C03C41C40074000E4001C0004FB
:1058000010041FFC1104110411040E880070000024
:1058100003E00C1810041004100410081C10000001
:1058200010041FFC100410041004080807F0000006
:1058300010041FFC1104110417C410040818000000
:1058400010041FFC1104110017C010000800000014
:1058500003E00C181004100410441C7800400000F1
:1058600010041FFC10840080008010841FFC1004B2
:105870000000100410041FFC1004100400000000BD
:1058800000030001100110011FFE100010000000B5
:1058900010041FFC110403801464181C1004000081
:1058A00010041FFC1004000400040004000C00009D
:1058B00010041FFC1F0000FC1F001FFC1004000050
:1058C00010041FFC0C04030000E010181FFC100063
:1058D00007F00808100410041004080807F000007E
:1058E00010041FFC10841080108010800F00000036
:1058F00007F0081810241024101C080A07F20000F2
:1059000010041FFC1104110011C011300E0C000412
:1059100000000E1C11041084108410441C38000078
:105920001800100010041FFC1004100018000000E4
:1059300010001FF810040004000410041FF81000E9
:1059400010001E0011E0001C007013801C001000ED
:105950001FC0103C00E01F0000E0103C1FC0000012
:105960001004180C163401C001C01634180C1004B1
:1059700010001C00130400FC13041C0010000000A5
:105980000804101C1064108413041C041018000078
:105990000000000000007FFE4002400240020000C4
:1059A000000030000C0003800060001C00030000B9
:1059B00000004002400240027FFE000000000000A4
:1059C00000000000200040004000400020000000D7
:1059D00000010001000100010001000100010001BF
:1059E0000000400040002000000000000000000017
:1059F00000000098012401440144014400FC00041B
:105A000010001FFC008801040104008800700000E1
:105A100000000070008801040104010400880000F7
:105A20000000007000880104010411081FFC00043C
:105A3000000000F8014401440144014400C8000092
:105A40000000010401040FFC1104110411001800EE
:105A5000000000D601290129012901C90106000021
:105A600010041FFC008401000100010400FC00047C
:105A700000000104190419FC0004000400000000E7
:105A80000000000300010101190119FE00000000DF
:105A900010041FFC0024004001B4010C01040000AC
:105AA0000000100410041FFC0004000400000000AB
:105AB000010401FC0104010001FC0104010000FCDF
:105AC000010401FC008401000100010400FC000449
:105AD000000000F8010401040104010400F80000C2
