:020000040800F2
:1000000058C201205D020008EB230008F52000081B
:10001000E9230008790500088F320008000000007D
:100020000000000000000000000000009D0100082A
:100030001106000800000000F90100084D2F00081B
:1000400077020008770200087702000877020008AC
:10005000770200087702000877020008770200089C
:10006000770200087702000877020008770200088C
:10007000770200087702000877020008770200087C
:10008000770200087702000877020008770200086C
:10009000770200087702000877020008770200085C
:1000A0007702000811300008770200087702000884
:1000B000770200087702000877020008770200083C
:1000C000770200087702000877020008770200082C
:1000D000770200087702000877020008770200081C
:1000E000770200087702000877020008770200080C
:1000F00077020008770200087702000877020008FC
:10010000770200082124000877020008770200081F
:1001100077020008770200087702000877020008DB
:100120007702000877020008770200087D050008C2
:1001300077020008770200087702000877020008BB
:1001400077020008770200087702000877020008AB
:100150007702000889050008770200087702000886
:10016000770200087702000877020008770200088B
:1001700077020008770200087702000800000000FC
:100180007702000877020008DFF80CD000F0E2F9EF
:10019000004800476D68000858C201202C4B1968C0
:1001A0000868B0E8F04F80F30988BFF36F8F4FF015
:1001B000000080F3118870470000000008480068C4
:1001C000006880F308884FF0000080F3148862B65E
:1001D00061B6BFF34F8FBFF36F8F00DF00BF00BF6B
:1001E00008ED00E0DFF80C00016841F470010160E7
:1001F000704700BF88ED00E0EFF30980BFF36F8F19
:10020000134B1A681EF0100F08BF20ED108A20E96A
:10021000F04F106009B44FF0500080F31188BFF325
:100220004F8FBFF36F8F07F015FA4FF0000080F388
:10023000118809BC19680868B0E8F04F1EF0100F6B
:1002400008BFB0EC108A80F30988BFF36F8F704746
:1002500098000020EFF305807047000006488047B3
:1002600006480047FEE7FEE7FEE7FEE7FEE7FEE79B
:10027000FEE7FEE7FEE7FEE701300008890100081F
:100280002DE9F05F0546002092469B4688460646CB
:10029000814640241BE0284641464746224600F05E
:1002A000EBF853465A46C01A914110D311461846EE
:1002B000224600F0D2F82D1A67EB01084F4622467D
:1002C0000120002100F0C9F817EB00094E41201E63
:1002D000A4F10104DFDC484631462A464346BDE826
:1002E000F09F40EA01039B0703D009E008C9121FF1
:1002F00008C0042AFAD203E011F8013B00F8013BE0
:10030000521EF9D27047D2B201E000F8012B491E0B
:10031000FBD270470022F6E710B513460A460446A2
:100320001946FFF7F0FF204610BD2DE9FE4F81EA88
:10033000030404F0004421F0004100944FF0000B4E
:1003400023F0004350EA01045ED052EA03045BD07C
:10035000C3F30A54C1F30A552C44A4F2F3340194B4
:10036000A0FB0254C1F3130141F48011C3F3130342
:1003700043F4801301FB024400FB034E840A970AF6
:1003800044EA815447EA8357A4FB076802958D0A23
:1003900005FB07854FEA932C04FB0C542705029DAF
:1003A0004FEA065847EA1637B5EB08056EEB070C1F
:1003B000870E920E47EA811742EA8312A7FB0201D9
:1003C000B6EB0B0164EB00042B0D43EA0C335E1813
:1003D00044EB1C50DA465146E7FB0201C5F3130417
:1003E0004FEA0B3343EA14534FEA0432019C43EAC9
:1003F0000603A4F10C040294009CCDE900B400F0C3
:100400005AF803B0BDE8F08F00200146F9E70EB5B9
:1004100040F2334102910021CDE900110A460B461A
:1004200000F049F803B000BDC1F30A5210B5C1F3A2
:10043000130140F2FF3341F480119A4201DA0020A7
:1004400010BD40F233439A42A2F2334203DC5242DF
:1004500000F012F810BD904010BD202A04DB203AB5
:1004600000FA02F1002070479140C2F1200320FA07
:1004700003F3194390407047202A04DB203A21FA05
:1004800002F00021704721FA02F3D040C2F12002AD
:10049000914008431946704710B5141E73F10004CB
:1004A00008DA401C41F1000192185B411A4301D166
:1004B00020F0010010BD2DE9F04D92469B4611B190
:1004C000B1FA81F202E0B0FA80F220329046FFF7F2
:1004D000C4FF04460F4640EA0A0041EA0B015346B6
:1004E0005A46084313D0114653EA010019D0C8F107
:1004F00040025046FFF7C0FF05460E46504659469B
:100500004246FFF7AAFF084305D0012004E0204639
:100510003946BDE8F08D0020054346EAE0762C43DD
:1005200037430A986305E40AA0EB08000022FD0A9D
:1005300044EA47540A3002D500200146E9E70105A4
:1005400010196941DDE9084500196941BDE8F04D20
:10055000A2E70000064C074D06E0E06840F001030A
:1005600094E8070098471034AC42F6D3FFF710FE2A
:1005700080A90008A0A90008FEE70000014800F0DB
:10058000EBB80000B4BB0120014800F0E5B8000062
:1005900014BC012001681823CAB2103AB2FBF3F26E
:1005A000054B6FF30901032A9B5CC36500D9091D44
:1005B000816508467047000054A9000810B501463F
:1005C00000208B698A6A4FF0C07453B1B3F5005FA5
:1005D00015D072B1012A0CD0022A0AD0032A09D1FF
:1005E00004E01AB1012A06D0022A03D1C96AC9015E
:1005F00000D5012010BDC96AA142FAD010BD002A61
:10060000F7D0012AF2D0022AF3D0032AF3D010BD8A
:1006100070477047002200F001B8000030B50E4B63
:10062000054601209C7B022C15D2987B00241C548B
:10063000987B03EB800045609D7B03F10C002A54FE
:10064000987B421C9A73303008703A2048702F20F3
:100650008870CC70002030BD48BE012070B5B3F565
:10066000804F05D06FF0704140F82210002070BD1F
:1006700050F82240084B8E891C40D1E9003543EAEE
:1006800005138D6889692D0245EA06452B430B4306
:10069000234340F82230E9E70000F0CFF0B50C68C2
:1006A00050F82430114A1340D1E90125D1E90367FC
:1006B0002A433E4332434E6932438E693243CE6908
:1006C00032430E6A32434E6A32438E6A3243CE6AF6
:1006D0003243CE6B096B32430A431A43082D01D1D2
:1006E00042F0400240F824200020F0BD8000F0FFDE
:1006F00030B500EB820250688D8900F04043D1E9AB
:10070000000440EA04108C68240244EA05442043B3
:100710000C8A074D05EB045420430C7D6D0105EB5D
:10072000046489692043084318435060002030BDA9
:100730000000F0FF90F83510022903D080214165B8
:1007400001207047052180F835100068016821F00C
:1007500001010160002070472DE9F84304464FF085
:100760000009CDF8009063484FF41651A56D00685C
:10077000B0FBF1F72E6894F85C10082000FA01F144
:1007800031420FD021680A6852070BD50A6822F05F
:1007900004020A6094F85C108840A860606D40F024
:1007A0000100606594F85C104FF0010808FA01F050
:1007B000304208D021684969090604D5A860606DF7
:1007C00040F00200606594F85C10042088403042DC
:1007D00008D021680968890704D5A860606D40F0D9
:1007E0000400606594F85C1010208840304218D0F6
:1007F00021680968090714D5A860206801684903C1
:1008000004D50068000308D5A16C07E00168C9059C
:1008100003D4016821F008010160216C09B1204670
:10082000884794F85C1020208840304231D02168FD
:100830000968C9062DD5A86094F8350005282068F8
:10084000016806D0490347D5006800031DD4616CD8
:100850001CE021F0160101602068416921F080014F
:100860004161206C08B9A06C20B12068016821F0BA
:100870000801016094F85C103F208840A86084F86B
:10088000349084F83580216D1FE0E16B09B120467A
:100890008847606D00282BD0606DC00714D00520FC
:1008A00084F835002068016821F00101016000989A
:1008B000401C0090B84203D820680068C007F6D1F9
:1008C00084F8349084F83580E16C002910D001B0B0
:1008D0002046BDE8F04308470168C905D5D4016842
:1008E00021F01001016084F8349084F83580CCE761
:1008F000BDE8F883940000202DE9F041044600F0A3
:10090000B7F906465CB1002584F83450022084F81B
:1009100035002068016821F0010101600DE001202F
:10092000BDE8F08100F0A4F9801B052805D920203E
:100930006065032084F83500F2E720680068C0078E
:10094000F0D12268116820480140D4E9010318431E
:10095000D4E903363343184363691843A369184342
:10096000E3691843236A18430843616A042903D1E1
:10097000D4E90B1319430843106020684069666A84
:1009800020F0070130460E43012704280CD1A06A4D
:100990000643E06A40B12046FFF710FE20B1402038
:1009A000606584F83570BAE7206846612046FFF735
:1009B000F1FD94F85C203F2191408160656584F8E9
:1009C00035700020ACE700003F8010F080B202F0EC
:1009D000DFBE0000F0B587B014216846FFF79AFC2F
:1009E0001F480168002939D1012404601D480168AD
:1009F00041F0010101600068022500F0010005904E
:100A00004FF23F00CDE9000502AA03260C2782E839
:100A1000D0006946144800F02FF841F23F40CDE97C
:100A2000000502AA694682E8D000104800F024F8C8
:100A30004FF68370CDE9000502AA694682E8D0002E
:100A40000B4800F019F84FF63370CDE9000502AA03
:100A5000694682E8D000074800F00EF807B0F0BD04
:100A60008000002038380240001402400018024084
:100A700000100240000C02402DE9F84FDFF8B8A149
:100A8000002201250AF1040B03264FF00F090BF198
:100A9000040E00BF0B6805FA02F42340A3426FD195
:100AA0000F7907F00307012F01D0022F16D18768B5
:100AB0004FEA420806FA08FC27EA0C07D1F80CC0F6
:100AC0000CFA08FC4CEA070CC0F808C04768A743BA
:100AD0000C79C4F3001494403C4344600C79E44323
:100AE000A4070AD0C4684FEA420C06FA0CF7BC43CC
:100AF0008F6807FA0CF72743C7600C7904F00304EA
:100B0000022C12D1D40800EB840CDCF820405707EB
:100B1000FF0E09FA07F824EA0804D1F8108008FA51
:100B200007F848EA0408CCF8208004684FEA420C31
:100B300006FA0CF7BC430F7907F0030707FA0CF726
:100B4000274307604C68E40070D53C4C276847F4A5
:100B500080472760246822F0030704F4804400944F
:100B6000374C07EB040CDCF8084897074FEA177876
:100B700009FA08F7BC43334FB84202D1002724E0FA
:100B800054E0314FB84201D101271EE02F4FB84247
:100B900001D1022719E02E4FB84201D1032714E0FA
:100BA0002C4FB84201D104270FE02B4FB84201D19E
:100BB00005270AE0294FB84201D1062705E0284F52
:100BC000B84201D1072700E0082707FA08F72743B2
:100BD000CCF80878DAF800405746D1F804C09C43B6
:100BE0005FEACC3C00D51C433C60DBF800405F462C
:100BF000D1F804C09C435FEA8C3C00D51C433C60A8
:100C0000DEF800407746D1F804C09C435FEACC2C64
:100C100000D51C433C60084F0C373C68D1F804C039
:100C20009C435FEA8C2C00D51C433C60521C102A6C
:100C3000FFF430AFBDE8F88F003C0140443802407B
:100C40000030014000000240000402400008024061
:100C5000000C024000100240001402400018024044
:100C6000001C02400AB1816170470904FBE70000E3
:100C700001488068704700008800002002488168B1
:100C80000278114481607047880000200B4810B53D
:100C9000016841F400710160016841F48061016004
:100CA000016841F480710160032000F08DF800209C
:100CB00000F006F800F03EF8002010BD003C0240B5
:100CC00010B5014688B00022192000F05DF8192007
:100CD00000F04CF813480024016841F00101016064
:100CE000006805A900F001000690684600F018F9B8
:100CF00000F046F90C494000B0FBF1F10C480B4AFA
:100D0000491E026040F2E732C0E90324C0E9011441
:100D100001F05AF810B1012008B010BD044801F0EC
:100D200081F8F9E74438024040420F0000000140DA
:100D300010BD01200C4882B0016841F4804101607F
:100D4000006800F4804000900748001F016841F0EF
:100D5000805101600068002200F0805000900F2157
:100D6000901E02B000F010B844380240002809DBA1
:100D700000F01F02012191404009800000F1E020B5
:100D8000C0F8001170470000F0B40E4B1B680C4611
:100D9000C3F30223C3F10705042D00D90425191D4F
:100DA000072901D2002300E0DB1E012606FA05F127
:100DB000491E214099409E40761E16403143F0BCAA
:100DC00002F08ABA0CED00E0064900F0070208685C
:100DD0004FF6FF03184040EA0220034A1043086020
:100DE000704700000CED00E00000FA052DE9F04727
:100DF0000E46050065D0DFF81481D8F80000F7B280
:100E000000F00700B04207D288F80070D8F8000060
:100E100000F00700B04254D128683D4C810712D53C
:100E2000400703D5206840F4E05020602878000790
:100E300003D5206840F4604020602068A96820F055
:100E4000F000084320602878C0072DD0304968683A
:100E50000839012812D0022813D0032811D00968BC
:100E6000890700292DDA216821F00301014321605F
:100E7000FFF7FEFE814641F2883A0EE009688903D9
:100E8000EFE709688901ECE7FFF7F2FEA0EB090143
:100E9000514502D90320BDE8F0872068696800F059
:100EA0000C00B0EB810FEFD1D8F80010404601F0F4
:100EB0000701B14207D90770006800F00700B0428F
:100EC00001D00120E7E72878400705D52068E968C8
:100ED00020F4E050084320602878000706D52068F9
:100EE000296920F4604040EAC100206000F058F811
:100EF0002168084AC1F30311515CC84006490860E3
:100F000006480068FFF7DCFE0020C4E7003C024012
:100F1000083802405CA90008940000208C000020E2
:100F20000F2202600C4A136803F003034360136846
:100F300003F0F0038360136803F4E053C3601268A6
:100F40004FF4E05303EAD20202610448006800F063
:100F5000070008607047000008380240003C02406B
:100F60000448054900680968044AC1F38221515CBC
:100F7000C840704794000020083802406CA900085F
:100F80000448054900680968044AC1F34231515CCC
:100F9000C840704794000020083802406CA900083F
:100FA000154810B5006810F00C02144813D0411019
:100FB000042A0FD0082A0ED10F4C241F2268236860
:100FC00002F03F025B0207D52068C0F38810A0FB47
:100FD000010106E0084610BD2168C1F38811A1FB9C
:100FE00000010023FFF74CF92168C1F30141491CBE
:100FF0004900B0FBF1F010BD083802400024F400B5
:101000002DE9F84F04006ED02078DFF84C93C0072C
:10101000A9F104054AD009F104000168C1F3810176
:10102000012908D00068C0F3810002280AD1D9F84C
:101030000000400206D52868800337D56068002884
:10104000E1D033E06068B0F5803F10D0B0F5A02F5C
:10105000286810D020F480302860286820F4802090
:1010600028606068A8B1FFF703FE06460DE0286817
:1010700040F48030F4E740F480202860F7E700BFB8
:10108000FFF7F6FD801B642873D828688003F7D526
:101090000CE0FFF7EDFD064605E000BFFFF7E8FDB9
:1010A000801B6428F0D828688003F7D42078DFF804
:1010B000AC8280074FF0000A3ED5A748001D0168AA
:1010C00011F00C0F08D00068C0F3810002280BD18A
:1010D000D9F80000400207D42868800716D5E068D8
:1010E000012800D112E033E1E068B8B10120C8F86E
:1010F0000000FFF7BDFD064605E000BFFFF7B8FDA5
:10110000801B0228C0D828688007F7D52868216985
:1011100020F0F80040EAC10028600DE0C8F800A007
:10112000FFF7A6FD064604E0FFF7A2FD801B02289C
:101130001FD828688007F7D42078000722D5864F6B
:1011400087486169703771B101210160FFF790FD37
:10115000064604E0FFF78CFD801B022809D838689A
:101160008007F7D50EE0C0F800A0FFF781FD064626
:1011700005E082E0FFF77CFD801B02287DD83868FF
:101180008007F7D42078400768D5DFF8CCB1002776
:101190000BF13C0BDBF80000C0000BD4DBF80010B7
:1011A00041F08051CBF80010DBF80000012700F07F
:1011B000805000906B4E3068C00510D4306840F409
:1011C00080703060FFF754FD009005E0FFF750FDA0
:1011D0000099401A022850D83068C005F6D55E4EF6
:1011E000A0686C3601280FD00528306810D020F098
:1011F00001003060306820F004003060A068B8B1B1
:10120000FFF736FD00900FE0306840F00100F4E792
:1012100040F004003060F7E7FFF72AFD0099411A1B
:1012200041F28830814266D830688007F4D50EE0FC
:10123000FFF71EFD009007E0FFF71AFD0099411A25
:1012400041F28830814256D830688007F4D42FB1FB
:10125000DBF8001021F08051CBF80010A069C8B372
:101260003D49091D0968C1F3810102294AD00228BC
:10127000504607D0C8F8600000E03CE0FFF7F8FCFB
:1012800004463BE04746C8F86000FFF7F1FC06461D
:1012900005E000BFFFF7ECFC801B02282BD8286874
:1012A0008001F7D4D4E907010843A16A2E4A49080E
:1012B00002EB0141626A41EA8211084394F82C1062
:1012C00040EA0161C9F8001001203866FFF7D0FC40
:1012D000044606E03EE000BFFFF7CAFC001B022800
:1012E00009D828688001F7D534E000BFFFF7C0FCBB
:1012F000001B022802D90320BDE8F88F286880016E
:10130000F4D427E00128F7D0D9F80000E26900F40E
:10131000800191421CD1226A00F03F01914217D115
:1013200047F6C071626A0140B1EB821F10D1A26A18
:101330004FF0FF3300F4403103EB5202B1EB024FA8
:1013400006D194F82C1000F07060B0EB016F01D062
:101350000120D1E70020CFE70438024000004742D7
:10136000800E4742007000400000FFFF7047000001
:101370002DE9FE430446002603200D4684F8340080
:10138000606C03285ED0B5F5805F5BD04FF40067DA
:1013900000204FF08068BD421FD18146009001902F
:1013A0000021206801F038F8800113D469462046F6
:1013B00001F040FB07000DD10198400334D5B4F88B
:1013C00050000104206801F063F8070002D10221F7
:1013D000206823E0A06B384328E01DB1A06B40F0EB
:1013E000006023E08146009001900021206801F018
:1013F00013F88001EED46946204601F01BFB07007C
:10140000E8D10198C0030FD5B4F85000010420685A
:1014100001F03EF80700DDD10021206801F085F8D9
:101420000700D7D14F46D5E74746D3E7A063A06B67
:10143000144F4FF0010848B12068876384F8348066
:1014400001260EE0A06B40F08050EFE7211DD4E9AB
:10145000050C0EC9CDE90050CDF808C0206800F099
:10146000E5FF4FF40071206801F046F828B12168CB
:101470008F63A16B0143A163012684F83480304659
:10148000BDE8FE83FF05400070470000F0B5426EE6
:10149000920F0A70426EC2F383624A70426EC2F3C8
:1014A00001628A70426E120CCA70B0F86420120A8F
:1014B0000A7190F864204A71826E120DCA80826EA1
:1014C000C2F303420A72B0F86820C2F3C0324A7213
:1014D000B0F86820C2F380328A72B0F86820C2F394
:1014E0004032CA72B0F86820C2F300320A73002694
:1014F0004E73426C4FF40075012462B1012A3AD058
:10150000026847499163816B41F08051816380F8A3
:1015100034400120F0BDB0F86820C36E9205120D72
:1015200042EA93720A61C26EC2F3C2620A75C26E67
:10153000C2F302624A75C26EC2F342528A75C26E2B
:10154000C2F38242CA75C26EC2F3C2320A760A6917
:10155000521C42650B7E03F007039B1C9A404265B8
:101560000B7A03F00F0704FA07F383655B0A5A430B
:10157000C0E917250EE090F86820C36E9206920A23
:1015800042EA13420A610A69521C92024265C0E9AA
:101590001652056630F86C2FC2F3803201F8192F0D
:1015A0000288C2F3C6124A70027802F07F028A7083
:1015B0004268D20FCA704268C2F341720A7142682F
:1015C000C2F382624A714268C2F383528A714268EE
:1015D000C2F34052CA710E724268C2F300424A72AC
:1015E0008288C2F3C0328A728288C2F38032CA72A1
:1015F0008288C2F340320A738288C2F300324A738F
:101600008288C2F381228A738288C2F30122CA735C
:101610000079C0F3460008744C740020F0BD00004F
:10162000FF054000426C0A60826C4A60C26C8A60AE
:10163000026DCA60426D0A61826D4A61C26D8A6143
:10164000006EC8610020704770B50446B0F85000C5
:1016500000250104206801F040F818B1A16B014396
:10166000A16304E00021206800F0D6FE0546C5F322
:10167000432070BDF8B5056B04460068416B090452
:101680001BD5290719D5D4E90A56002E14D00027F6
:10169000206800F0E5FE05F8010B010A05F8011BC2
:1016A000010C05F8021B000E361F7F1C05F8010C0B
:1016B000082FEDD3C4E90A56F8BD416B4FF0000680
:1016C000C9054FF0010744D5390281632068C16B19
:1016D0004CF23A329143C1632068C16A21F00101A2
:1016E000C16228071DD515F0220F09D0206801F02E
:1016F00025F828B1A16B0143A1632046FFF7C4FE82
:10170000216840F23A50886384F834702663A80751
:1017100003D0204600F0A4F9F8BD204600F0A1F95E
:10172000F8BD2806FCD5A80609D5206801F006F802
:1017300028B1A16B0143A1632046FFF7A5FEA807CE
:10174000EED12068C16A21F00801C16284F83470CA
:10175000E3E7416B490424D5290722D5D4E908568B
:10176000002EDDD05FF0000715F8010B009015F892
:10177000011B361F40EA0120009015F8021B40EAC9
:101780000140009015F8011C40EA01600090694694
:10179000206800F078FE7F1C082FE5D3C4E90856C6
:1017A000F8BD416B40F23A221142F9D0416B8907F2
:1017B00003D5A16B41F00201A163416B090703D579
:1017C000A16B41F00801A163416B890603D5A16BB0
:1017D00041F02001A163416BC90603D5A16B41F023
:1017E0001001A163416B890503D5A16B41F008018C
:1017F000A16340F23A7181632068C16B40F23A32D2
:101800009143C163206800F099FFA16B0843A06376
:10181000280706D584F8347026632046FFF734FE87
:10182000F8BD2806FCD515F0300F0CD0E16B11483F
:101830000865E06BFEF77EFF0028F1D0E06BBDE8A5
:10184000F84001F0D5B8A8070CD0216C0A4808650B
:10185000206CFEF76FFF0028E2D0206CBDE8F84056
:1018600001F0A4B8A66384F8347026632046FFF71D
:101870007DFDF8BDF1290008AD29000870B5040010
:101880000ED094F83400002518B92577204600F0D2
:101890004BF8032084F83400204600F00BF808B120
:1018A000012070BDA5632563012084F83400002069
:1018B00070BD0000FEB50025044676200095CDE9F8
:1018C000015029460B460A46206800F0AFFD28BBB0
:1018D000134E46F8A05F206800F0BAFD0125356080
:1018E000204601F08BF928B184F83450A16B0143F4
:1018F000A16313E0204601F00AF90028F4D14FF467
:101900000071206800F0F8FD002808D02268054921
:101910009163A16B0143A16384F834500120FEBDA3
:1019200000802542FF0540002DE9F04F87B00546B5
:1019300014216846FEF7EEFC4349286888427FD1AF
:1019400042480068414940F400600860086800F4BB
:10195000006005903D481438016841F004010160C1
:10196000016801F004010591016841F0080101607E
:101970000068022400F0080005904FF4F8504FF082
:1019800001088DE8110103264FF00C09CDE9036928
:1019900069462F48FFF770F80427CDE90074CDE9B8
:1019A000028669462B48CDF81090FFF765F82B4C5E
:1019B00029484FF00068E4E80208002001C44FF411
:1019C00080694FF4805BA4E8010A38034FF0200AD5
:1019D00064E8060A0020C4E908077805C4E90A603B
:1019E00086101E482663FEF787FF08B1FEF711FE3A
:1019F0002C64A563194C184860344830E4E80208A8
:101A0000402001C40020A4E8010A032164E8060A7A
:101A1000C4E908072663C4E90A1010486030FEF7DD
:101A20006BFF08B1FEF7F5FDEC63002205213120C4
:101A3000A563FFF7A9F9312000E001E0FFF796F96F
:101A400007B0BDE8F08F0000002C01404438024090
:101A500000080240000C024058640240B4BB012060
:101A60007047704770B5040009D0606A002540B126
:101A700025616561A56294F8510040B10CE0012038
:101A800070BD6068B0F5827FF4D0E561F2E784F85C
:101A90005050204600F044F8022084F8510020689D
:101AA000016821F040010160A088218900F4827062
:101AB00001F404410843A18901F400610843217C39
:101AC00001F002010843217D01F001010843218B4F
:101AD00001F400710843217F01F03801084394F8B4
:101AE000201001F080010843218D01F400510843CA
:101AF00021680860A069042101EA104094F82410CC
:101B000001F010010843216848602068C16921F490
:101B10000061C1616565012084F85100002070BD3D
:101B200010B586B0044614216846FEF7F3FB13494E
:101B30002068884220D11248016841F48051016038
:101B4000006800F4805005900D481438016841F099
:101B5000020101600068694600F00200059038202B
:101B600000900220019001200290032003900520A4
:101B700004900448FEF780FF06B010BD003001401D
:101B800044380240000402402DE9F84F044690F822
:101B9000500000270A9E1D4692468B464FF00109D1
:101BA00001280ED0012084F85000FFF761F880462C
:101BB00094F85100616801280CD0B1F5827F07D1FB
:101BC00002E00220BDE8F88FA16809B9042801D01D
:101BD0000227C2E0BBF1000F27D0BAF1000F24D0DA
:101BE0001DB394F85100042802D0052084F8510058
:101BF00000206065C4F838A0E587A587C4F830B038
:101C0000E586A5862064606420680168490603D4DF
:101C1000016841F040010160E068B0F5006F606864
:101C200005D0E8B3012D46D07FE0012795E008B14B
:101C3000012D39D1206B21680088C860206B801C81
:101C40002063E08E401EE0862EE0206881688907D0
:101C50000FD5E18E69B1B9F1010F0AD1216B098865
:101C6000C160206B801C2063E08E401EE0864FF038
:101C7000000920688168C9070CD0E18F51B1C068A4
:101C8000A16B0880A06B801CA063E08F401EE087E2
:101C90004FF00109FEF7ECFFA0EB0800B04200E0B6
:101CA00009E001D3701C50D1E08E0028CDD1E08F27
:101CB0000028CAD13FE0206B216800780873206BB0
:101CC000401C2063E08E401EE0862EE02068816884
:101CD00089070FD5E18E69B1B9F1010F0AD1216BE6
:101CE00009780173206B401C2063E08E401EE08663
:101CF0004FF0000920688168C9070CD0E18F51B10D
:101D0000C068A16B0870A06B401CA063E08F401EF0
:101D1000E0874FF00109FEF7ABFFA0EB0800B042EF
:101D200002D3701C01D010E07EB1E08E0028CDD12E
:101D3000E08F0028CAD142463146204600F0B8FF65
:101D400028B101272020606507E0032705E0A0688F
:101D500018B92068C16880680090012084F851009B
:101D6000002084F8500038462CE770B515460E4622
:101D7000040003D094F8490010B107E0012070BDC1
:101D8000002084F84800204600F01AF804F1080109
:101D90002068FEF783FC3146A2682068FEF7A8FCA5
:101DA000D4E901022946236BFEF758FCA16820689C
:101DB00050F8212042F0010240F82120002070BD9F
:101DC000FEF708BE7047704710B5040003D094F8C2
:101DD0003D0010B107E0012010BD002084F83C0058
:101DE000204600F01EF8022084F83D00211D2068E6
:101DF00001F014F9012084F8460084F83E0084F8CC
:101E00003F0084F8400084F8410084F8420084F8E0
:101E1000430084F8440084F8450084F83D00002025
:101E200010BD704790F83D10012901D00120704786
:101E3000022180F83D100168CA6842F00102CA60C0
:101E400000681149884214D0B0F1804F11D00F4979
:101E500088420ED00E4988420BD00E49884208D0E5
:101E60000D49884205D00D49884202D00C4988426C
:101E700004D1816801F00701062903D0016841F00F
:101E80000101016000207047000001400004004093
:101E900000080040000C00400004014000400140E8
:101EA00000180040704770B50446006801694FF0A3
:101EB0000005C943890715D4C168C943890711D4EE
:101EC000E91E016101202077206880698007204693
:101ED00002D0FFF7E7FF04E000F098F8204600F09A
:101EE00096F8257720680169C943490717D4C16866
:101EF000C943490713D46FF0040101610220207720
:101F00002068806910F4407F204602D0FFF7CAFFA6
:101F100004E000F07BF8204600F079F8257720688F
:101F20000169C943090716D4C168C943090712D416
:101F30006FF008010161042020772068C0698007E4
:101F4000204602D0FFF7AEFF04E000F05FF8204625
:101F500000F05DF8257720680169C943C90617D4E8
:101F6000C168C943C90613D46FF01001016108208C
:101F700020772068C06910F4407F204602D0FFF728
:101F800091FF04E000F042F8204600F040F8257789
:101F900020680169C943C90708D1C168C943C90795
:101FA00004D1891E0161204600F032F820680169E1
:101FB000C943090609D4C168C943090605D46FF0AD
:101FC000800101612046FFF7FDFE20680169C943D9
:101FD000490609D4C168C943490605D46FF04001D8
:101FE0000161204600F01EF820680169C943890696
:101FF0000BD4C168C943890607D46FF02001016181
:102000002046BDE87040FFF7DEBE70BD70477047E8
:1020100000680349884201D1FEF730BE70470000D6
:1020200000000140704770B5040004D094F83D00F2
:10203000002510B106E0012070BD84F83C50204618
:1020400000F022F8242084F83D002068C16821F4C3
:102050000051C160204601F045F82068016921F473
:10206000904101612068416921F02A0141612068A5
:10207000C16841F40051C1602564202084F83D000E
:1020800084F83E00002070BD10B586B004461421CF
:102090006846FEF73FF914492068884221D1134869
:1020A000016841F010010160006800F01000059027
:1020B0000E481438016841F001010160006869466A
:1020C00000F0010005904FF4C060009002200190E4
:1020D0000120029003200390072004900448FEF79B
:1020E000CBFC06B010BD0000001001404438024097
:1020F00000000240FEE700000D4808B5016841F409
:10210000800101600068002200F480000090062138
:102110003B20FEF739FE3B20FEF728FE0022062179
:102120004520FEF731FEBDE808404520FEF71EBE03
:102130003038024010B504490448FEF76BFA0249F2
:10214000491E087010BD0000710000205C000020D6
:1021500000B585B0142206496846FEF7C2F8002192
:10216000684604F0E9FD0349486005B000BD000081
:1021700040A90008780000202DE9F0478EB01C210E
:102180006846FEF7C7F81C2107A8FEF7C3F83048D9
:1021900004210024C0E902141025C0E9044584612B
:1021A000C4614FF4805A0462C0E9094AC4620463FE
:1021B0004463DFF8A08084634FF020464464C0E9A4
:1021C000006802200F27CDE9000702A908204FF080
:1021D000110981E83102002269461D480694FFF783
:1021E000C4FD08B1FEF715FA19480621503007AAB8
:1021F000C0E90214C0E904458461C4610462C0E915
:10220000094A4FF48041C0E90B414463846344644C
:10221000C0E900683C200097CDE90170CDF814902A
:10222000CDE903750921CDE90641CDE90871CDE974
:102230000C940748CDE90A7569465030FFF795FDC3
:10224000002801D0FEF7E5F90EB0BDE8F0870000E8
:1022500090BA0120040100A070B586B01421684630
:10226000FEF758F82E48016841F02001016001682E
:1022700001F020010591016841F0800101600168D1
:1022800001F080010591016841F0400101600168A1
:1022900001F040010591016841F010010160016801
:1022A00001F010010591016841F00201016001682F
:1022B00001F002010591016841F008010160016827
:1022C00001F008010591016841F004010160016815
:1022D00001F004010591016841F00101016000680D
:1022E000104E00F00100059001224FF440413046AD
:1022F000FEF7B8FC01244FF48040CDE9000402252C
:1023000069463046CDE90245FEF7B6FBE0038DE8AD
:102310003100694630460395FEF7AEFB06B070BD4E
:1023200030380240000402400E4810B50C490160EC
:10233000002141608160C160016141618161FFF7FD
:102340009DFA08B1FEF765F94FF400610548FFF703
:102350000FF8002803D0BDE81040FEF75AB910BDB1
:10236000002C014030BB0120104810B50E4901601F
:102370004FF482714160002102228160C0E90312A2
:1023800001224261520282613822C0E90721416282
:1023900081620A21C162FFF765FB002803D0BDE816
:1023A0001040FEF736B910BD0030014074BC01206A
:1023B0000C4810B50A4901604FF4E1314160002139
:1023C00081600C22C160C0E904128161C161FFF724
:1023D0002AFE002803D0BDE81040FEF71AB910BD50
:1023E00000100140CCBC0120FEE770470A68426241
:1023F0004A688262D1E902231A43D1E904310B43CE
:10240000C16A1A4321F0F7011143C16200207047ED
:10241000006800F0030070470844406970470000FE
:102420000148FFF727B9000030BB012070B50DF15E
:10243000100C11439CE87000234319432943426860
:10244000314347F6FF639A430A434260002070BD60
:1024500010B5032101600220FEF7B8FA002010BD7C
:10246000D0F8800070470A688260D1E901231A43DE
:10247000D1E903310B43C1681A436FF30B011143D8
:10248000C160002070470968C0F8801000207047C4
:1024900010B586B004463720CDE9001040200290E8
:1024A000002003904FF48060049069462046FFF7B7
:1024B000DAFF41F288323721204600F059F906B0A0
:1024C00010BD000010B504460A4886B0014329201B
:1024D000CDE9001040200290002003904FF480606E
:1024E000049069462046FFF7BEFF204600F0F8F949
:1024F00006B010BD0000108010B586B00446102054
:10250000CDE9001040200290002003904FF480603D
:10251000049069462046FFF7A6FF41F28832102159
:10252000204600F025F906B010BD10B586B004466F
:102530000620CDE9001040200290002003904FF4C7
:102540008060049069462046FFF78DFF41F2883293
:102550000621204600F00CF906B010BD30B585B05C
:1025600000240546009401944FF480600294CDE964
:10257000034069462846FFF776FF0B484FF4FA51AF
:102580000068B0FBF1F041F288314843401E03D2AD
:102590004FF0004005B030BD696B0906F6D5C52087
:1025A000A8632046F6E700009400002070B585B0CF
:1025B00004464FF4D570009001A90820402500265C
:1025C00081E86100C001049069462046FFF74BFF97
:1025D00012484FF4FA510068B0FBF1F041F2883133
:1025E0004843401E03D24FF0004005B070BD616B00
:1025F00011F0450FF5D00905F3D4606B400701D504
:10260000042003E0606BC00702D00120A063ECE768
:10261000606B400600D5A5633046E6E794000020D5
:1026200010B586B004460720CDE900204020029076
:10263000002003904FF48060049069462046FFF725
:1026400012FF41F288320721204600F091F806B0CF
:1026500010BD10B586B0044600210220CDE900105F
:10266000C020CDE902014FF4806004906946204605
:10267000FFF7F9FE204600F00BF906B010BD10B5CB
:1026800086B004460920CDE90010C0200290002049
:1026900003904FF48060049069462046FFF7E3FE04
:1026A000204600F0F5F806B010BD10B586B004461F
:1026B00000213320CDE900104020CDE902010001C6
:1026C000049069462046FFF7CEFE41F2883233215E
:1026D000204600F04DF806B010BD10B586B0044697
:1026E0000D20CDE9001040200290002003904FF40F
:1026F0008060049069462046FFF7B5FE41F28832BB
:102700000D21204600F034F806B010BD30B585B07C
:102710000C46054600210320CDE900104020CDE9FC
:1027200002010001049069462846FFF79CFE2246FC
:102730000321284600F0F6F805B030BD10B586B08C
:10274000044600210C20CDE900104020CDE9020113
:102750000001049069462046FFF785FE034A0C21DC
:10276000204600F005F806B010BD000000E1F505B8
:10277000454B10B51B684FF4FA54B3FBF4F35343C5
:102780005B1E02D24FF0004010BD426B12F0450FAD
:10279000F6D01205F4D4426B520703D504218163AD
:1027A000084610BD426BD20702D00121816305E0CB
:1027B000C52282630269D2B28A4201D0012010BDD3
:1027C0000021FFF729FE3149084201D1002010BD48
:1027D000002802DA4FF0007010BD410001D5402002
:1027E00010BD810001D5802010BDC10002D54FF47D
:1027F000807010BD010102D54FF4007010BD410181
:1028000002D54FF4806010BDC10102D54FF40060C5
:1028100010BD010202D54FF4805010BD410202D517
:102820004FF4005010BD810202D54FF4804010BD1E
:10283000C10202D54FF4004010BD410302D54FF450
:10284000003010BD810302D54FF4802010BDC103BC
:1028500002D54FF4002010BD010402D54FF48010C2
:1028600010BD410402D54FF4001010BD810402D503
:102870004FF4800010BD000702D54FF4000010BDDA
:102880004FF4803010BD00009400002008E0FFFDF0
:1028900012494FF4FA520968B1FBF2F141F2883261
:1028A0005143491E02D24FF000407047426B12F074
:1028B000450FF6D01205F4D4416B490703D5042126
:1028C000816308467047416BC90703D001218163CA
:1028D00008467047C521816300207047940000209E
:1028E0000F494FF4FA520968B1FBF2F141F2883214
:1028F0005143491E02D24FF000407047426B12F024
:10290000450FF6D01205F4D4416B490703D50421D5
:10291000816308467047C52181630020704700002D
:102920009400002030B5204B4FF4FA541B68B3FBE1
:10293000F4F341F2883463435B1E02D24FF000404F
:1029400030BD446B14F0450FF6D02405F4D4436B2E
:102950005B0703D504218163084630BD436BDB0769
:1029600002D00121816303E00369DBB28B4201D015
:10297000012030BDC52181630021FFF74DFD10F41A
:10298000604F04D0410406D54FF4005030BD000C18
:102990001080002030BD000402D54FF4805030BDBF
:1029A0004FF4803030BD00009400002010B5846BDF
:1029B00040F23A50216888632046FEF745FE012127
:1029C00084F8341000212163062801D0052805D1A0
:1029D0002068FFF7B3FEA16B0843A063A06B00283B
:1029E000204602D0FEF750FD10BDFEF7BFFC10BD23
:1029F00010B5846B40F23A50216888632046FEF798
:102A000023FE012184F8341000212163062801D01F
:102A1000052805D12068FFF791FEA16B0843A0634C
:102A2000A06B0028204602D0FEF72EFD10BDFEF759
:102A30009DFC10BD2DE9F04788B00D460446FEF719
:102A400017F900268246009601963746082120682D
:102A5000FFF752FD002829D1B4F850000104206886
:102A6000FFF716FD002821D1401E4FF00808CDE9E0
:102A7000020830204FF00209CDE904090120CDE918
:102A8000067002A92068FFF7B1FC2068FFF70DFE71
:102A900000280BD16F462068416B11F02A0F08D037
:102AA000416B09071AD5C0F83880082008B0BDE886
:102AB000F087416B890205D5FFF7D2FC47F8260065
:102AC000761C02E0416B8904EAD5FEF7D1F8A0EB51
:102AD0000A00401CDFD14FF00040E7E7416B890757
:102AE00003D5C0F838900220E0E7416B890603D592
:102AF000202181630846D9E740F23A518163019869
:102B000000BA2860009800BA68600020CEE710B5CF
:102B100090B004460120ADF838002068FFF778FC3B
:102B2000002854D0606C032842D02068FFF791FD44
:102B300000284AD100212068FFF76EFC606704215D
:102B40002068FFF769FCA06708212068FFF764FC94
:102B5000E0670C212068FFF75FFCC4F88000606C20
:102B6000032825D00EA92068FFF7D0FD00282CD11E
:102B7000606C03281CD0BDF8380020650104206873
:102B8000FFF77DFD002820D100212068FFF744FCDD
:102B9000606604212068FFF73FFCA06608212068DA
:102BA000FFF73AFCE0660C212068FFF735FC206750
:102BB00004212068FFF730FC000DE06403A92046E3
:102BC000FEF764FC30B14FF0805010B010BD4FF0F4
:102BD0008060FAE7B4F85000002302042068FFF791
:102BE0001FFD0028F1D104F1100007C88DE807008F
:102BF00094E80F00FFF71AFC0020E6E72DE9F84FF4
:102C00000026044600963546B0460068FFF7A6FC4D
:102C1000002827D12068FFF7C9FC4FF0805B4FF0F8
:102C200001094FF6FF7748B1A6642068FFF796FCCC
:102C3000002817D1A06C012802D020E0C4F84890E9
:102C400000212068FFF724FC58B918E00021206813
:102C5000FFF71EFC002805D151462068FFF732FC23
:102C600010B15846BDE8F88F00212068FFF7D4FB6B
:102C700005464FEAD0780098401C009002E0DFF84B
:102C80002CA00098B84202D2B8F1000FDED0009814
:102C9000B84202D34FF08070E4E7680002D5C4F870
:102CA000449000E066640020DCE70000000010C1F2
:102CB00038B504461248134B0068B0FBF3F04FF4EC
:102CC0007A73584300906068B0F5827F0DD10B464F
:102CD000009200228021204600F016F870B1606D4D
:102CE00040F020006065032038BD009830B1401EE0
:102CF000009020688068C0430006F6D5002038BDEB
:102D00009400002000366E012DE9F8431E469146DE
:102D100088460446089DFDF7ABFF401B351AFDF7BA
:102D2000A7FF074625480068C0F3CB30684338E06A
:102D3000701C37D0FDF79CFFC01BA84203D215B111
:102D4000009860B32CE02068416821F0E001416008
:102D50006068B0F5827F0BD1A068B0F5004F02D05B
:102D6000B0F5806F04D12068016821F04001016056
:102D7000A06AB0F5005F09D12068016821F4005114
:102D800001602068016841F400510160012084F86D
:102D90005100002084F850000320BDE8F88300258E
:102DA000401E00902068816838EA010004D00021AC
:102DB0004945BDD10020F0E70121F9E7940000204A
:102DC0000EB5FFF7B7F904F06BFBA82000F0DAFCB2
:102DD00003F0C0F9324833A18288354800F068FA20
:102DE00035493448097830F8110000F0F9FC202109
:102DF00032A0CDE900100B464FF478440A21DC22C2
:102E00000294084603F0B6FC18212EA0CDE900106C
:102E10000B46DC2202942F210A2003F0ABFC102584
:102E20002BA00095CDE901042B46DC224C210A2081
:102E300003F0A0FC2AA00095CDE901041023C822CC
:102E40006C211E2003F096FC03F0D8FD03F032FE47
:102E50000446014629A000F01BFA2D4A2DA12E4858
:102E600000F026FA4FF4FA754FF6FF760BE02BA030
:102E700000F00EFA2846FDF7A9FD2EA000F008FA92
:102E80002846FDF7A3FD002CF1D0B442EFD02DA0D1
:102E900000F0FEF904F024FB642003F041FFFBE79F
:102EA000040100204C43442049443A253034580062
:102EB00054BA01202E0000204600002053544D3308
:102EC000320000004D656D204D616E616765000048
:102ED00041544F4D40414C49454E54454B00000034
:102EE0004672656552544F53207769746820464195
:102EF0005446532054657374210000006E6F72664F
:102F00006C6173682069642069732025640A00007D
:102F100030A900082573000060BA0120464C4153D7
:102F20004820436865636B204661696C6564210ACB
:102F300000000000506C6561736520436865636B39
:102F400021200A006675636B0A00000010B550204E
:102F500080F31188BFF34F8FBFF36F8F04F04EFCE7
:102F600018B104494FF080500860002080F31188A8
:102F700010BD000004ED00E030B593B0302168468C
:102F8000FDF7C8F914210CA8FDF7C4F91A4800256B
:102F9000016841F080510160006800F0805011909C
:102FA0001648016841F4804101600068022400F481
:102FB0008040119001200090000401908001CDE933
:102FC0000640082008904FF4A870CDE909040720B6
:102FD0000B906846FEF714F80CA90F2081E8310029
:102FE0004FF4A0500F90E002109005210CA8FDF7BF
:102FF000FDFE13B030BD00004038024000700040BC
:103000000248016841F470010160704788ED00E0FA
:103010000148FEF748BF000010BD0120F0B502686E
:10302000254C264D264E274F274B4FF0804CA04273
:1030300009D0604507D0A84205D0B04203D0B842BD
:1030400001D0984204D122F0700E4A6842EA0E0282
:10305000A0421BD0604519D0A84217D0B04215D06D
:10306000B84213D0984211D0184DA8420ED0184D36
:10307000A8420BD0174DA84208D0174DA84205D042
:10308000164DA84202D0164DA84203D122F4407535
:10309000CA682A434D6922F080022A4302608A6886
:1030A000C2620A688262A04201D0984201D10969D5
:1030B000016301214161F0BD0000014000040040B6
:1030C00000080040000C00400004014000400140A6
:1030D000004401400048014000180040001C00402E
:1030E0000020004070B5044600680169E26821F4E0
:1030F0004051114301612169A068E2690843616997
:10310000114308432168CA6849F20C639A43024399
:10311000CA6020684169A26921F44071114341618C
:1031200031492068884202D03049884202D1FDF7F7
:1031300027FF01E0FDF714FFE26900231921642550
:103140003226B2F5004F626828D0A0FB0101930F30
:103150009200FDF795F80146B0FBF5F06FF018020C
:10316000504301EB800006EB0010B0FBF5F000F0DF
:10317000F002B1FBF5F002EB0012B1FBF5F06FF0DD
:103180001803584301EB800006EB0010B0FBF5F08C
:1031900000F00F0021681044886070BDA0FB0101A1
:1031A00092185B41FDF76CF80146B0FBF5F00201A7
:1031B000B1FBF5F06FF01803584301EB800006EB0C
:1031C000C000B0FBF5F000F0F80002EB4002B1FBEC
:1031D000F5F0584301EB800006EBC000B0FBF5F0C2
:1031E00000F00700D6E70000001001400014014085
:1031F00010B518B1012804D0012010BD03F092FFD2
:1032000001E003F0FBFB002010BD81B101290BD0D0
:10321000022903D0032904D0042070474FF4007022
:1032200000E00820108002E04FF4C0401060002051
:1032300070472DE9F0411C0015460E460CD04FF4A6
:10324000007769023A46304603F00CFC641E05F133
:10325000010506F50076F4D10020BDE8F0810020DC
:1032600070472DE9F0411C0015460E460CD04FF476
:10327000007769023A46304603F088FC641E05F187
:10328000010506F50076F4D10020BDE8F081FEE7E7
:103290000FB4054B10B503A9044A029800F03CF89E
:1032A00010BC5DF814FB0000D137000800010020BD
:1032B0000FB4084B10B504A902AA039800F02CF82B
:1032C000044602A9002000F058FA204610BC5DF820
:1032D00014FB00007B3700080907090E002804DBF7
:1032E00000F1E02080F80014704700F00F0000F1BA
:1032F000E02080F8141D704702E008C8121F08C1C2
:10330000002AFAD170477047002001E001C1121F66
:10331000002AFBD1704700002DE9FF4F8DB00F460A
:103320000546002606E025280BD0DDE90F12904760
:103330006D1C761C28780028F5D111B03046BDE808
:10334000F08F0024A246A1460122EC4900E004438C
:1033500015F8013F203B02FA03F00842F7D1287824
:103360002A2810D06FF02F022878A0F13001092907
:1033700014D80AEB8A0102EB410144F0020400EB8D
:10338000010A6D1CF0E701CF5FEA000A03D544F49F
:103390000054CAF1000A44F002046D1C28782E285B
:1033A00017D115F8010F44F004042A280ED06FF04D
:1033B0002F022878A0F1300109290AD809EB8901E8
:1033C00002EB410100EB01096D1CF2E757F8049B89
:1033D0006D1C28786C280FD006DC4C2817D0682884
:1033E0000DD06A2814D104E0742810D07A280FD1A7
:1033F0000DE044F400140AE044F4801401E044F4C5
:1034000040146978814202D104F580146D1C6D1C52
:103410002A786E2A1FD00CDC632A31D004DC002A03
:103420008BD0582A11D1A3E0642A68D0692A0CD124
:1034300065E0732A2ED004DC6F2A73D0702A04D181
:103440009BE0752A6FD0782A6ED01046DDE90F1206
:103450009047761C50E1C4F30250022806D003289E
:1034600009D0042801CF09D0066045E101CFF1174A
:10347000C0E9006140E101CF06803DE106703BE11B
:1034800017F8040B8DF8000000208DF80100EB46C2
:10349000012003E057F804BB4FF0FF3061074FF005
:1034A000000102D40DE008F10101884649450FDA18
:1034B0008045F8DB1BF808100029F4D108E008F17A
:1034C000010188468142FADB1BF808100029F6D179
:1034D000DDE90F23AAEB08008146214600F036F90A
:1034E000304400EB080604E0DDE90F121BF8010B85
:1034F0009047B8F10108F7D221464846F7E00A2183
:10350000C4F302534FF0000B0891022B04D001CFFB
:10351000C117032B09D00AE0FF1D27F00707F7E8C2
:10352000020108E032E01FE020E000B2C117042BE6
:1035300001D140B2C117031E71F1000307DA4FF049
:10354000000CD0EB0C006CEB01012D2302E02305F5
:1035500004D52B238DF82430012303E0E30701D0A9
:103560002023F7E7984658E00A2110E010210EE0EA
:1035700010204FF0000B08900CE010214FF0000BD2
:1035800044F004044FF00809089103E008214FF0CB
:10359000000B0891C4F30253022B04D001CF002189
:1035A000032B06D006E0FF1D27F00707F7E802010E
:1035B00003E080B2042B00D1C0B24FF00008230713
:1035C0002BD5702A07D0DDF820C08CF0100C5CEAF7
:1035D0000B0C05D00EE040238DF82430012308E0C9
:1035E00050EA010306D030238DF824308DF82520D1
:1035F00002239846DDF820C08CF0080C5CEA0B0C26
:103600000BD150EA010301D1630706D530238DF8B1
:1036100024304FF00108A9F10109582A04D038A23A
:103620000B9208AA0A920BE03AA2F9E75B46089AC5
:10363000FCF726FE0B9B9B5C0A9A521E0A921370A3
:1036400050EA0102F2D10A98ADEB000000F1200B24
:10365000600702D524F4803401E04FF00109D94518
:1036600002DDA9EB0B0000E0002000EB0B01414460
:103670000890AAEB010AE00306D4DDE90F232146F6
:10368000504600F063F806444FF0000908E009A92D
:1036900011F80900DDE90F12904709F10109761CC4
:1036A000C145F4DBE0030CD5DDE90F23214650468C
:1036B00000F04CF8064404E0DDE90F12302090479A
:1036C000761C0899481E08900029F5DC08E00A9845
:1036D0000A990078491C0A91DDE90F129047761C7F
:1036E000BBF10001ABF1010BF1DC21465046DDE9F5
:1036F0000F2300F019F806446D1C1BE60928010091
:103700003031323334353637383961626364656657
:103710000000000030313233343536373839414219
:1037200043444546000000002DE9F04104460025D1
:103730001E461746880404D405E039462020B047C9
:103740006D1C641EF9D52846BDE8F0812DE9F041D5
:10375000044600251E469046C80301D5302700E0E8
:103760002027880404D505E041463846B0476D1C43
:10377000641EF9D52846BDE8F0810A68531C0B6029
:103780001070704701490860704700000000002079
:103790004FF47A71484300F001B8000070B54FF063
:1037A000E024002265690949A36909684843A169C1
:1037B0009942FCD002D2A3EB010302E0A5EB010683
:1037C00033441A440B468242F1D370BD00000020FE
:1037D00002490A681206FCD5486070470010014093
:1037E00070B50A490646002408884D88214645439D
:1037F000204602F0D7FE03F029F84FF0D84002E04F
:10380000A0F88060641CAC42FAD370BD04010020B3
:103810002DE9F04F38492C260A46887192884FF4DA
:10382000305A4FF4285B41F6631E2B274FF02A0CC9
:103830004FF0F00845F210594FF448754FF4A0745A
:103840004FF4F07358B10C80A1F802804A4530D192
:10385000A1F808A0A1F80AB03802888141E0A1F8D7
:1038600000804C804A4507D1A1F808A0A1F80AB011
:103870004FF42C50888105E072450E8105D14F81AF
:10388000A1F80CC00B804D8002E0A1F80AC08F8126
:10389000A2F5A640103803D0A2F5EE40963801D12B
:1038A0000C804B80A2F5184006381FD10B804D804C
:1038B0001CE0724511D0A2F5184006380DD00E81DB
:1038C000A1F80AC0A1F80C70A2F5A64010380BD0E0
:1038D000A2F5EE40963807D008E00E81A1F80AC0A4
:1038E0008F810D804B80EFE70B804C80BDE8F04F5F
:1038F000002002F095BD00000401002010B5144620
:1039000002F050FE02F0A2FF4FF0D840A0F8804035
:1039100010BD10B5CF2002F08DFF002002F07EFF19
:10392000C12002F07BFF302002F078FFED2002F092
:1039300081FF642002F072FF032002F06FFF12206B
:1039400002F06CFF812002F069FFE82002F072FFB4
:10395000852002F063FF102002F060FF7A2002F061
:103960005DFFCB2002F066FF392002F057FF2C20CC
:1039700002F054FF002002F051FF342002F04EFF0D
:10398000022002F04BFFF72002F054FF202002F04B
:1039900045FFEA2002F04EFF002002F03FFF00202A
:1039A00002F03CFFC02002F045FF1B2002F036FF72
:1039B000C12002F03FFF012002F030FFC52002F0DD
:1039C00039FF302002F02AFF302002F027FFC72005
:1039D00002F030FFB72002F021FF362002F02AFF6C
:1039E000482002F01BFF3A2002F024FF552002F08D
:1039F00015FFB12002F01EFF002002F00FFF1A2079
:103A000002F00CFFB62002F015FF0A2002F006FFBC
:103A1000A22002F003FFF22002F00CFF002002F0CF
:103A2000FDFE262002F006FF012002F0F7FEE02056
:103A300002F000FF0F2002F0F1FE2A2002F0EEFE5D
:103A4000282002F0EBFE082002F0E8FE0E2002F033
:103A5000E5FE082002F0E2FE542002F0DFFEA9207D
:103A600002F0DCFE432002F0D9FE0A2002F0D6FE6E
:103A70000F2002F0D3FE002002F0D0FE002002F062
:103A8000CDFE002002F0CAFE002002F0C7FEE120B9
:103A900002F0D0FE002002F0C1FE152002F0BEFEB2
:103AA000172002F0BBFE072002F0B8FE112002F042
:103AB000B5FE062002F0B2FE2B2002F0AFFE56202B
:103AC00002F0ACFE3C2002F0A9FE052002F0A6FEAA
:103AD000102002F0A3FE0F2002F0A0FE3F2002F013
:103AE0009DFE3F2002F09AFE0F2002F097FE2B2051
:103AF00002F0A0FE002002F091FE002002F08EFEF7
:103B0000012002F08BFE3F2002F088FE2A2002F006
:103B100091FE002002F082FE002002F07FFE0020D5
:103B200002F07CFEEF2002F079FE112002F082FE0E
:103B30007820FFF72DFEBDE81040292002F07ABE64
:103B400010B5FF2002F076FEFF2002F067FE9820FD
:103B500002F064FE062002F061FEBC2002F06AFE64
:103B6000012002F05BFE0F2002F058FE612002F0FF
:103B700055FEFF2002F052FE012002F04FFE012010
:103B800002F04CFE0B2002F049FE102002F046FE2F
:103B9000372002F043FE632002F040FEFF2002F0D7
:103BA0003DFEFF2002F03AFE012002F037FE012028
:103BB00002F034FE002002F031FE002002F02EFE62
:103BC000FF2002F02BFE522002F028FE012002F01E
:103BD00025FE002002F022FE402002F01FFEBD2044
:103BE00002F028FE012002F019FE232002F016FE4A
:103BF000452002F013FE672002F010FE012002F0C3
:103C00000DFE232002F00AFE452002F007FE672089
:103C100002F004FEBE2002F00DFE002002F0FEFDC8
:103C2000012002F0FBFDAB2002F0F8FD602002F065
:103C3000F5FD222002F0F2FD222002F0EFFD22200D
:103C400002F0ECFD222002F0E9FD222002F0E6FD68
:103C5000C72002F0EFFD362002F0E0FDED2002F07B
:103C6000E9FD7F2002F0DAFD0F2002F0D7FDC02031
:103C700002F0E0FD0F2002F0D1FD0B2002F0CEFD9E
:103C80000A2002F0CBFDFC2002F0D4FD082002F057
:103C9000C5FDDF2002F0CEFD002002F0BFFD0020B8
:103CA00002F0BCFD002002F0B9FD002002F0B6FDDC
:103CB000002002F0B3FD202002F0B0FDF32002F05E
:103CC000B9FD742002F0AAFDB42002F0B3FD00207B
:103CD00002F0A4FD002002F0A1FD002002F09EFDF4
:103CE000F72002F0A7FD822002F098FDB12002F03B
:103CF000A1FD002002F092FD132002F08FFD1320A1
:103D000002F08CFDF22002F095FD802002F086FD8D
:103D1000042002F083FD402002F080FD282002F004
:103D20007DFDC12002F086FD172002F077FD88207E
:103D300002F074FD882002F071FD202002F06EFD7B
:103D4000E02002F077FD002002F068FD0A2002F07A
:103D500065FD122002F062FD102002F05FFD0E20D2
:103D600002F05CFD202002F059FDCC2002F056FD4F
:103D7000072002F053FD062002F050FD0B2002F058
:103D80004DFD0E2002F04AFD0F2002F047FD0D20F0
:103D900002F044FD152002F041FD102002F03EFD2E
:103DA000002002F03BFDE12002F044FD002002F083
:103DB00035FD0B2002F032FD132002F02FFD0D2007
:103DC00002F02CFD0E2002F029FD1B2002F026FD42
:103DD000712002F023FD062002F020FD062002F0F3
:103DE0001DFD0A2002F01AFD0F2002F017FD0E2023
:103DF00002F014FD0F2002F011FD152002F00EFD5F
:103E00000C2002F00BFD002002F008FD2A2002F039
:103E100011FD002002F002FD002002F0FFFC012055
:103E200002F0FCFCDF2002F0F9FC2B2002F002FD86
:103E3000002002F0F3FC002002F0F0FC032002F06E
:103E4000EDFC1F2002F0EAFC3A2002F0F3FC5520C2
:103E500002F0E4FC362002F0EDFC002002F0DEFC73
:103E6000112002F0E7FC7820FFF792FC292002F0F5
:103E7000E1FC1420FFF78CFCBDE810402C2002F080
:103E8000D9BC10B5ED2002F0D5FC012002F0C6FC33
:103E9000FE2002F0C3FCEE2002F0CCFCDE2002F09B
:103EA000BDFC212002F0BAFCF12002F0C3FC01208D
:103EB00002F0B4FCDF2002F0BDFC102002F0AEFCEA
:103EC000C42002F0B7FC8F2002F0A8FCC62002F04C
:103ED000B1FC002002F0A2FCE22002F09FFCE220F4
:103EE00002F09CFCE22002F099FCBF2002F0A2FC50
:103EF000AA2002F093FCB02002F09CFC0D2002F0FE
:103F00008DFC002002F08AFC0D2002F087FC0020CE
:103F100002F084FC112002F081FC002002F07EFC03
:103F2000192002F07BFC002002F078FC212002F036
:103F300075FC002002F072FC2D2002F06FFC0020C6
:103F400002F06CFC3D2002F069FC002002F066FCEF
:103F50005D2002F063FC002002F060FC5D2002F0B6
:103F60005DFC002002F05AFCB12002F063FC8020CE
:103F700002F054FC002002F051FC8B2002F04EFCB9
:103F8000002002F04BFC962002F048FC002002F0DA
:103F900045FCB22002F04EFC002002F03FFC002065
:103FA00002F03CFC022002F039FC002002F036FC5A
:103FB000032002F033FC002002F030FCB32002F0BA
:103FC00039FC002002F02AFC002002F027FC00202F
:103FD00002F024FC002002F021FC002002F01EFC74
:103FE000002002F01BFC002002F018FC002002F070
:103FF00015FC002002F012FC002002F00FFC002053
:1040000002F00CFC002002F009FC002002F006FC8B
:10401000002002F003FC002002F000FC002002F06F
:10402000FDFB002002F0FAFB002002F0F7FB00206D
:1040300002F0F4FB002002F0F1FB002002F0EEFBA6
:10404000002002F0EBFB002002F0E8FB002002F071
:10405000E5FBB42002F0EEFB8B2002F0DFFB00203A
:1040600002F0DCFB962002F0D9FB002002F0D6FB28
:10407000A12002F0D3FB002002F0D0FBB52002F01B
:10408000D9FB022002F0CAFB002002F0C7FB03208C
:1040900002F0C4FB002002F0C1FB042002F0BEFBD2
:1040A000002002F0BBFBB62002F0C4FB002002F0AF
:1040B000B5FB002002F0B2FBB72002F0BBFB0020F2
:1040C00002F0ACFB002002F0A9FB3F2002F0A6FBAF
:1040D000002002F0A3FB5E2002F0A0FB002002F013
:1040E0009DFB642002F09AFB002002F097FB8C20DD
:1040F00002F094FB002002F091FBAC2002F08EFB5A
:10410000002002F08BFBDC2002F088FB002002F094
:1041100085FB702002F082FB002002F07FFB9020E4
:1041200002F07CFB002002F079FBEB2002F076FB32
:10413000002002F073FBDC2002F070FB002002F094
:104140006DFBB82002F076FB002002F067FB002038
:1041500002F064FB002002F061FB002002F05EFB35
:10416000002002F05BFB002002F058FB002002F070
:1041700055FB002002F052FBBA2002F05BFB24202A
:1041800002F04CFB002002F049FB002002F046FB4D
:10419000002002F043FBC12002F04CFB202002F083
:1041A0003DFB002002F03AFB542002F037FB0020D8
:1041B00002F034FBFF2002F031FB002002F02EFB66
:1041C000C22002F037FB0A2002F028FB002002F098
:1041D00025FB042002F022FB002002F01FFBC3207D
:1041E00002F028FB3C2002F019FB002002F016FB35
:1041F0003A2002F013FB002002F010FB392002F0FD
:104200000DFB002002F00AFB372002F007FB002024
:1042100002F004FB3C2002F001FB002002F0FEFA59
:10422000362002F0FBFA002002F0F8FA322002F009
:10423000F5FA002002F0F2FA2F2002F0EFFA002047
:1042400002F0ECFA2C2002F0E9FA002002F0E6FA83
:10425000292002F0E3FA002002F0E0FA262002F022
:10426000DDFA002002F0DAFA242002F0D7FA00206A
:1042700002F0D4FA242002F0D1FA002002F0CEFAA3
:10428000232002F0CBFA002002F0C8FA3C2002F012
:10429000C5FA002002F0C2FA362002F0BFFA002070
:1042A00002F0BCFA322002F0B9FA002002F0B6FAAD
:1042B0002F2002F0B3FA002002F0B0FA2C2002F016
:1042C000ADFA002002F0AAFA292002F0A7FA002095
:1042D00002F0A4FA262002F0A1FA002002F09EFAD1
:1042E000242002F09BFA002002F098FA242002F029
:1042F00095FA002002F092FA232002F08FFA0020B3
:1043000002F08CFAC42002F095FA622002F086FADC
:10431000002002F083FA052002F080FA002002F06B
:104320007DFA842002F07AFA002002F077FAF02079
:1043300002F074FA002002F071FA182002F06EFA0E
:10434000002002F06BFAA42002F068FA002002F0CC
:1043500065FA182002F062FA002002F05FFA50209D
:1043600002F05CFA002002F059FA0C2002F056FA32
:10437000002002F053FA172002F050FA002002F059
:104380004DFA952002F04AFA002002F047FAF32095
:1043900002F044FA002002F041FAE62002F03EFA70
:1043A000002002F03BFAC52002F044FA322002F06D
:1043B00035FA002002F032FA442002F02FFA0020F1
:1043C00002F02CFA652002F029FA002002F026FA09
:1043D000762002F023FA002002F020FA882002F072
:1043E0001DFA002002F01AFAC62002F023FA20205B
:1043F00002F014FA002002F011FA172002F00EFA6F
:10440000002002F00BFA012002F008FA002002F06E
:1044100005FAC72002F00EFA002002F0FFF9002092
:1044200002F0FCF9002002F0F9F9002002F0F6F9A0
:10443000C82002F0FFF9002002F0F0F9002002F09D
:10444000EDF9002002F0EAF9002002F0E7F9C920B6
:1044500002F0F0F9002002F0E1F9002002F0DEF9AC
:10446000002002F0DBF9002002F0D8F9002002F071
:10447000D5F9002002F0D2F9002002F0CFF9002097
:1044800002F0CCF9002002F0C9F9002002F0C6F9D0
:10449000002002F0C3F9002002F0C0F9002002F071
:1044A000BDF9002002F0BAF9002002F0B7F90020AF
:1044B00002F0B4F9E02002F0BDF9162002F0AEF9E6
:1044C000002002F0ABF91C2002F0A8F9002002F055
:1044D000A5F9212002F0A2F9002002F09FF9362070
:1044E00002F09CF9002002F099F9462002F096F9BA
:1044F000002002F093F9522002F090F9002002F01F
:104500008DF9642002F08AF9002002F087F97A2000
:1045100002F084F9002002F081F98B2002F07EF98C
:10452000002002F07BF9992002F078F9002002F0D7
:1045300075F9A82002F072F9002002F06FF9B92095
:1045400002F06CF9002002F069F9C42002F066F96B
:10455000002002F063F9CA2002F060F9002002F0A6
:104560005DF9D22002F05AF9002002F057F9D92063
:1045700002F054F9002002F051F9E02002F04EF967
:10458000002002F04BF9F32002F048F9002002F07D
:1045900045F9E12002F04EF9162002F03FF9002023
:1045A00002F03CF91C2002F039F9002002F036F943
:1045B000222002F033F9002002F030F9362002F018
:1045C0002DF9002002F02AF9452002F027F90020F9
:1045D00002F024F9522002F021F9002002F01EF925
:1045E000642002F01BF9002002F018F97A2002F092
:1045F00015F9002002F012F98B2002F00FF90020CB
:1046000002F00CF9992002F009F9002002F006F9F5
:10461000A82002F003F9002002F000F9B92002F00E
:10462000FDF8002002F0FAF8C42002F0F7F80020AC
:1046300002F0F4F8CA2002F0F1F8002002F0EEF8DF
:10464000D22002F0EBF8002002F0E8F8D82002F0C7
:10465000E5F8002002F0E2F8E02002F0DFF80020A8
:1046600002F0DCF8F32002F0D9F8002002F0D6F8CE
:10467000E22002F0DFF8052002F0D0F8002002F07E
:10468000CDF80B2002F0CAF8002002F0C7F81B207A
:1046900002F0C4F8002002F0C1F8342002F0BEF8A5
:1046A000002002F0BBF8442002F0B8F8002002F02D
:1046B000B5F84F2002F0B2F8002002F0AFF8612008
:1046C00002F0ACF8002002F0A9F8792002F0A6F878
:1046D000002002F0A3F8882002F0A0F8002002F0E9
:1046E0009DF8972002F09AF8002002F097F8A62093
:1046F00002F094F8002002F091F8B72002F08EF852
:10470000002002F08BF8C22002F088F8002002F0AE
:1047100085F8C72002F082F8002002F07FF8D1204F
:1047200002F07CF8002002F079F8D62002F076F84A
:10473000002002F073F8DD2002F070F8002002F093
:104740006DF8F32002F06AF8002002F067F8E32029
:1047500002F070F8052002F061F8002002F05EF827
:104760000A2002F05BF8002002F058F81C2002F04A
:1047700055F8002002F052F8332002F04FF80020E4
:1047800002F04CF8442002F049F8002002F046F80C
:10479000502002F043F8002002F040F8622002F0BE
:1047A0003DF8002002F03AF8782002F037F80020B7
:1047B00002F034F8882002F031F8002002F02EF8E0
:1047C000972002F02BF8002002F028F8A62002F033
:1047D00025F8002002F022F8B72002F01FF8002090
:1047E00002F01CF8C22002F019F8002002F016F8BE
:1047F000C72002F013F8002002F010F8D12002F0D8
:104800000DF8002002F00AF8D52002F007F8002089
:1048100002F004F8DD2002F001F8002001F0FEFFB4
:10482000F32001F0FBFF002001F0F8FFE42002F08C
:1048300001F8012001F0F2FF002001F0EFFF01205C
:1048400001F0ECFF002001F0E9FF022001F0E6FF9B
:10485000002001F0E3FF2A2001F0E0FF002001F03A
:10486000DDFF3C2001F0DAFF002001F0D7FF4B20F4
:1048700001F0D4FF002001F0D1FF5D2001F0CEFF58
:10488000002001F0CBFF742001F0C8FF002001F0F0
:10489000C5FF842001F0C2FF002001F0BFFF93207C
:1048A00001F0BCFF002001F0B9FFA22001F0B6FF2B
:1048B000002001F0B3FFB32001F0B0FF002001F0B1
:1048C000ADFFBE2001F0AAFF002001F0A7FFC42029
:1048D00001F0A4FF002001F0A1FFCD2001F09EFF18
:1048E000002001F09BFFD32001F098FF002001F091
:1048F00095FFDD2001F092FF002001F08FFFF320F3
:1049000001F08CFF002001F089FFE52001F092FF0B
:10491000002001F083FF002001F080FF002001F063
:104920007DFF002001F07AFF022001F077FF0020D8
:1049300001F074FF292001F071FF002001F06EFFEB
:104940003C2001F06BFF002001F068FF4B2001F0DC
:1049500065FF002001F062FF5D2001F05FFF002095
:1049600001F05CFF742001F059FF002001F056FFB8
:10497000842001F053FF002001F050FF932001F04C
:104980004DFF002001F04AFFA22001F047FF002068
:1049900001F044FFB32001F041FF002001F03EFF91
:1049A000BE2001F03BFF002001F038FFC42001F0E1
:1049B00035FF002001F032FFCD2001F02FFF002055
:1049C00001F02CFFD32001F029FF002001F026FF89
:1049D000DC2001F023FF002001F020FFF32001F094
:1049E0001DFF002001F01AFFE62001F023FF112037
:1049F00001F014FF002001F011FF342001F00EFF40
:104A0000002001F00BFF562001F008FF002001F00C
:104A100005FF762001F002FF002001F0FFFE772065
:104A200001F0FCFE002001F0F9FE662001F0F6FE28
:104A3000002001F0F3FE882001F0F0FE002001F0DC
:104A4000EDFE992001F0EAFE002001F0E7FEBB2018
:104A500001F0E4FE002001F0E1FE992001F0DEFE0D
:104A6000002001F0DBFE662001F0D8FE002001F0FE
:104A7000D5FE552001F0D2FE002001F0CFFE5520DA
:104A800001F0CCFE002001F0C9FE452001F0C6FE79
:104A9000002001F0C3FE432001F0C0FE002001F021
:104AA000BDFE442001F0BAFE002001F0B7FEE72071
:104AB00001F0C0FE322001F0B1FE002001F0AEFE98
:104AC000552001F0ABFE002001F0A8FE762001F099
:104AD000A5FE002001F0A2FE662001F09FFE00204E
:104AE00001F09CFE672001F099FE002001F096FE87
:104AF000672001F093FE002001F090FE872001F076
:104B00008DFE002001F08AFE992001F087FE002032
:104B100001F084FEBB2001F081FE002001F07EFE4A
:104B2000992001F07BFE002001F078FE772001F053
:104B300075FE002001F072FE442001F06FFE00209F
:104B400001F06CFE562001F069FE002001F066FEC7
:104B5000232001F063FE002001F060FE332001F00D
:104B60005DFE002001F05AFE452001F057FE0020B6
:104B700001F054FEE82001F05DFE002001F04EFE41
:104B8000002001F04BFE992001F048FE002001F0CA
:104B900045FE872001F042FE002001F03FFE882004
:104BA00001F03CFE002001F039FE772001F036FED6
:104BB000002001F033FE662001F030FE002001F0FD
:104BC0002DFE882001F02AFE002001F027FEAA20F9
:104BD00001F024FE002001F021FEBB2001F01EFEAA
:104BE000002001F01BFE992001F018FE002001F0CA
:104BF00015FE662001F012FE002001F00FFE552088
:104C000001F00CFE002001F009FE552001F006FE27
:104C1000002001F003FE442001F000FE002001F01E
:104C2000FDFD442001F0FAFD002001F0F7FD5520C4
:104C300001F0F4FD002001F0F1FDE92001F0FAFDA2
:104C4000AA2001F0EBFD002001F0E8FD002001F0BA
:104C5000E5FD002001F0E2FD002001F0EBFDAA20BF
:104C600001F0DCFDCF2001F0E5FD002001F0D6FDD4
:104C7000002001F0D3FD002001F0D0FD002001F064
:104C8000CDFD002001F0CAFD002001F0C7FD00208D
:104C900001F0C4FD002001F0C1FD002001F0BEFDC7
:104CA000002001F0BBFD002001F0B8FD002001F064
:104CB000B5FD002001F0B2FD002001F0AFFD0020A5
:104CC00001F0ACFD002001F0A9FD002001F0A6FDDF
:104CD000F02001F0AFFD002001F0A0FD502001F018
:104CE0009DFD002001F09AFD002001F097FD0020BD
:104CF00001F094FDF32001F09DFD002001F08EFDF8
:104D0000F92001F097FD062001F088FD102001F048
:104D100085FD292001F082FD002001F07FFD3A2071
:104D200001F088FD552001F079FD112001F082FD90
:104D30006420FEF72DFD292001F07CFD352001F0D7
:104D400079FD002001F06AFD512001F073FDFF2084
:104D500001F064FD532001F06DFD2C2001F05EFD9B
:104D6000552001F067FD822001F058FDBDE810409C
:104D70002C2001F05FBD2DE9F05F4FF47043552109
:104D8000184601F06DFD4FF20104AA21204601F002
:104D900067FD651C5221284601F062FDA61C082112
:104DA000304601F05DFDE71C0121384601F058FD59
:104DB0000D214FF4304001F053FD0D214BF2010065
:104DC00001F04EFD0D214BF2020001F049FD4FF4C0
:104DD00036483421404601F043FD34214BF2016056
:104DE00001F03EFD34214BF2026001F039FD4FF439
:104DF00031490D21484601F033FD4BF2011A0D21D6
:104E0000504601F02DFD0D214BF2021001F028FD5E
:104E10004FF4374B3421584601F022FD34214BF238
:104E2000017001F01DFD34214BF2027001F018FDFC
:104E300000214FF4324001F013FD00214BF201201C
:104E400001F00EFD00214BF2022001F009FD2421AA
:104E50004FF4384001F004FD24214BF6010001F02D
:104E6000FFFC24214BF6020001F0FAFC01214FF473
:104E70003F4001F0F5FC0F214FF4334001F0F0FC0E
:104E80000F214BF2013001F0EBFC0F214BF202300D
:104E900001F0E6FC34214FF4394001F0E1FC34210B
:104EA0004BF6011001F0DCFC34214BF6021001F04E
:104EB000D7FC08214FF4354001F0D2FC08214BF219
:104EC000015001F0CDFC08214BF2025001F0C8FC6A
:104ED00003214FF4424001F0C3FC24214FF43A4037
:104EE00001F0BEFC24214BF6012001F0B9FC242185
:104EF0004BF6022001F0B4FC00214FF43C4001F0DD
:104F0000AFFC78214BF6014001F0AAFC00214BF6E2
:104F1000024001F0A5FC00214FF43D4001F0A0FC4F
:104F200078214BF6015001F09BFC00214BF602501A
:104F300001F096FC00214FF43E4001F091FC642109
:104F40004BF6016001F08CFC00214FF4514001F060
:104F500087FC33214DF2011001F082FC00214DF25B
:104F6000021001F07DFC34214DF2031001F078FCB9
:104F700000214DF2041001F073FC3A214DF20510AE
:104F800001F06EFC00214DF2061001F069FC4A218F
:104F90004DF2071001F064FC00214DF2081001F001
:104FA0005FFC5C214DF2091001F05AFC00214DF22A
:104FB0000A1001F055FC81214DF20B1001F050FC5C
:104FC00000214DF20C1001F04BFCA6214DF20D100A
:104FD00001F046FC00214DF20E1001F041FCE521EC
:104FE0004DF20F1001F03CFC01214DF2101001F0C8
:104FF00037FC13214DF2111001F032FC01214DF26A
:10500000121001F02DFC54214DF2131001F028FC78
:1050100001214DF2141001F023FC82214DF21510F4
:1050200001F01EFC01214DF2161001F019FCCA21FD
:105030004DF2171001F014FC02214DF2181001F08E
:105040000FFC00214DF2191001F00AFC02214DF273
:105050001A1001F005FC01214DF21B1001F000FCBB
:1050600002214DF21C1001F0FBFB34214DF21D100A
:1050700001F0F6FB02214DF21E1001F0F1FB672159
:105080004DF21F1001F0ECFB02214DF2201001F057
:10509000E7FB84214DF2211001F0E2FB02214DF2E9
:1050A000221001F0DDFBA4214DF2231001F0D8FB0A
:1050B00002214DF2241001F0D3FBB7214DF225104F
:1050C00001F0CEFB02214DF2261001F0C9FBCF21E9
:1050D0004DF2271001F0C4FB02214DF2281001F01F
:1050E000BFFBDE214DF2291001F0BAFB02214DF287
:1050F0002A1001F0B5FBF2214DF22B1001F0B0FBAC
:1051000002214DF22C1001F0ABFBFE214DF22D10CF
:1051100001F0A6FB03214DF22E1001F0A1FB10219E
:105120004DF22F1001F09CFB03214DF2301001F0E5
:1051300097FB33214DF2311001F092FB03214DF228
:10514000321001F08DFB6D214DF2331001F088FB20
:1051500000214FF4524001F083FB33214DF2012036
:1051600001F07EFB00214DF2022001F079FB342199
:105170004DF2032001F074FB00214DF2042001F0F8
:105180006FFB3A214DF2052001F06AFB00214DF240
:10519000062001F065FB4A214DF2072001F060FB7B
:1051A00000214DF2082001F05BFB5C214DF209204B
:1051B00001F056FB00214DF20A2001F051FB812144
:1051C0004DF20B2001F04CFB00214DF20C2001F0C0
:1051D00047FBA6214DF20D2001F042FB00214DF2CC
:1051E0000E2001F03DFBE5214DF20F2001F038FBD0
:1051F00001214DF2102001F033FB13214DF211205B
:1052000001F02EFB01214DF2122001F029FB542167
:105210004DF2132001F024FB01214DF2142001F086
:105220001FFB82214DF2152001F01AFB01214DF2E6
:10523000162001F015FBCA214DF2172001F010FBDA
:1052400002214DF2182001F00BFB00214DF2192034
:1052500001F006FB02214DF21A2001F001FB0121B1
:105260004DF21B2001F0FCFA02214DF21C2001F04E
:10527000F7FA34214DF21D2001F0F2FA02214DF22D
:105280001E2001F0EDFA67214DF21F2001F0E8FA2F
:1052900002214DF2202001F0E3FA84214DF2212079
:1052A00001F0DEFA02214DF2222001F0D9FAA42108
:1052B0004DF2232001F0D4FA02214DF2242001F016
:1052C000CFFAB7214DF2252001F0CAFA02214DF2A2
:1052D000262001F0C5FACF214DF2272001F0C0FAB7
:1052E00002214DF2282001F0BBFADE214DF22920E7
:1052F00001F0B6FA02214DF22A2001F0B1FAF221B2
:105300004DF22B2001F0ACFA02214DF22C2001F0DD
:10531000A7FAFE214DF22D2001F0A2FA03214DF251
:105320002E2001F09DFA10214DF22F2001F098FA65
:1053300003214DF2302001F093FA33214DF2312058
:1053400001F08EFA03214DF2322001F089FA6D212D
:105350004DF2332001F084FA00214FF4534001F064
:105360007FFA33214DF2013001F07AFA00214DF23B
:10537000023001F075FA34214DF2033001F070FA79
:1053800000214DF2043001F06BFA3A214DF2053064
:1053900001F066FA00214DF2063001F061FA4A216F
:1053A0004DF2073001F05CFA00214DF2083001F0B7
:1053B00057FA5C214DF2093001F052FA00214DF20A
:1053C0000A3001F04DFA81214DF20B3001F048FA1C
:1053D00000214DF20C3001F043FAA6214DF20D30C0
:1053E00001F03EFA00214DF20E3001F039FAE521CC
:1053F0004DF20F3001F034FA01214DF2103001F07E
:105400002FFA13214DF2113001F02AFA01214DF249
:10541000123001F025FA54214DF2133001F020FA38
:1054200001214DF2143001F01BFA82214DF21530AA
:1054300001F016FA01214DF2163001F011FACA21DD
:105440004DF2173001F00CFA02214DF2183001F044
:1054500007FA00214DF2193001F002FA02214DF253
:105460001A3001F0FDF901214DF21B3001F0F8F97D
:1054700002214DF21C3001F0F3F934214DF21D30C0
:1054800001F0EEF902214DF21E3001F0E9F9672139
:105490004DF21F3001F0E4F902214DF2203001F00D
:1054A000DFF984214DF2213001F0DAF902214DF2C9
:1054B000223001F0D5F9A4214DF2233001F0D0F9CA
:1054C00002214DF2243001F0CBF9B7214DF2253005
:1054D00001F0C6F902214DF2263001F0C1F9CF21C9
:1054E0004DF2273001F0BCF902214DF2283001F0D5
:1054F000B7F9DE214DF2293001F0B2F902214DF267
:105500002A3001F0ADF9F2214DF22B3001F0A8F96B
:1055100002214DF22C3001F0A3F9FE214DF22D3085
:1055200001F09EF903214DF22E3001F099F910217E
:105530004DF22F3001F094F903214DF2303001F09B
:105540008FF933214DF2313001F08AF903214DF208
:10555000323001F085F96D214DF2333001F080F9E0
:1055600000214FF4544001F07BF933214DF201400A
:1055700001F076F900214DF2024001F071F9342179
:105580004DF2034001F06CF900214DF2044001F0AE
:1055900067F93A214DF2054001F062F900214DF220
:1055A000064001F05DF94A214DF2074001F058F93B
:1055B00000214DF2084001F053F95C214DF2094001
:1055C00001F04EF900214DF20A4001F049F9812124
:1055D0004DF20B4001F044F900214DF20C4001F076
:1055E0003FF9A6214DF20D4001F03AF900214DF2AC
:1055F0000E4001F035F9E5214DF20F4001F030F990
:1056000001214DF2104001F02BF913214DF2114010
:1056100001F026F901214DF2124001F021F9542147
:105620004DF2134001F01CF901214DF2144001F03C
:1056300017F982214DF2154001F012F901214DF2C6
:10564000164001F00DF9CA214DF2174001F008F99A
:1056500002214DF2184001F003F900214DF21940EA
:1056600001F0FEF802214DF21A4001F0F9F8012193
:105670004DF21B4001F0F4F802214DF21C4001F004
:10568000EFF834214DF21D4001F0EAF802214DF20D
:105690001E4001F0E5F867214DF21F4001F0E0F8EF
:1056A00002214DF2204001F0DBF884214DF221402F
:1056B00001F0D6F802214DF2224001F0D1F8A421E8
:1056C0004DF2234001F0CCF802214DF2244001F0CC
:1056D000C7F8B7214DF2254001F0C2F802214DF282
:1056E000264001F0BDF8CF214DF2274001F0B8F877
:1056F00002214DF2284001F0B3F8DE214DF229409D
:1057000001F0AEF802214DF22A4001F0A9F8F22191
:105710004DF22B4001F0A4F802214DF22C4001F093
:105720009FF8FE214DF22D4001F09AF803214DF231
:105730002E4001F095F810214DF22F4001F090F825
:1057400003214DF2304001F08BF833214DF231400E
:1057500001F086F803214DF2324001F081F86D210D
:105760004DF2334001F07CF800214FF4554001F038
:1057700077F833214DF2015001F072F800214DF21B
:10578000025001F06DF834214DF2035001F068F839
:1057900000214DF2045001F063F83A214DF205501A
:1057A00001F05EF800214DF2065001F059F84A214F
:1057B0004DF2075001F054F800214DF2085001F06D
:1057C0004FF85C214DF2095001F04AF800214DF2EA
:1057D0000A5001F045F881214DF20B5001F040F8DC
:1057E00000214DF20C5001F03BF8A6214DF20D5076
:1057F00001F036F800214DF20E5001F031F8E521AC
:105800004DF20F5001F02CF801214DF2105001F033
:1058100027F813214DF2115001F022F801214DF229
:10582000125001F01DF854214DF2135001F018F8F8
:1058300001214DF2145001F013F882214DF2155060
:1058400001F00EF801214DF2165001F009F8CA21BD
:105850004DF2175001F004F802214DF2185000F0FB
:10586000FFFF00214DF2195000F0FAFF02214DF226
:105870001A5000F0F5FF01214DF21B5000F0F0FF2F
:1058800002214DF21C5000F0EBFF34214DF21D506F
:1058900000F0E6FF02214DF21E5000F0E1FF67210B
:1058A0004DF21F5000F0DCFF02214DF2205000F0BD
:1058B000D7FF84214DF2215000F0D2FF02214DF29A
:1058C000225000F0CDFFA4214DF2235000F0C8FF7C
:1058D00002214DF2245000F0C3FFB7214DF22550B4
:1058E00000F0BEFF02214DF2265000F0B9FFCF219B
:1058F0004DF2275000F0B4FF02214DF2285000F085
:10590000AFFFDE214DF2295000F0AAFF02214DF237
:105910002A5000F0A5FFF2214DF22B5000F0A0FF1D
:1059200002214DF22C5000F09BFFFE214DF22D5034
:1059300000F096FF03214DF22E5000F091FF102150
:105940004DF22F5000F08CFF03214DF2305000F04B
:1059500087FF33214DF2315000F082FF03214DF2D9
:10596000325000F07DFF6D214DF2335000F078FF92
:1059700000214FF4564000F073FF33214DF20160D7
:1059800000F06EFF00214DF2026000F069FF34214B
:105990004DF2036000F064FF00214DF2046000F05E
:1059A0005FFF3A214DF2056000F05AFF00214DF2F1
:1059B000066000F055FF4A214DF2076000F050FFED
:1059C00000214DF2086000F04BFF5C214DF20960B0
:1059D00000F046FF00214DF20A6000F041FF8121F6
:1059E0004DF20B6000F03CFF00214DF20C6000F026
:1059F00037FFA6214DF20D6000F032FF00214DF27D
:105A00000E6000F02DFFE5214DF20F6000F028FF41
:105A100001214DF2106000F023FF13214DF21160BF
:105A200000F01EFF01214DF2126000F019FF542119
:105A30004DF2136000F014FF01214DF2146000F0EC
:105A40000FFF82214DF2156000F00AFF01214DF297
:105A5000166000F005FFCA214DF2176000F000FF4C
:105A600002214DF2186000F0FBFE00214DF219609A
:105A700000F0F6FE02214DF21A6000F0F1FE012165
:105A80004DF21B6000F0ECFE02214DF21C6000F0B4
:105A9000E7FE34214DF21D6000F0E2FE02214DF2DE
:105AA0001E6000F0DDFE67214DF21F6000F0D8FEA1
:105AB00002214DF2206000F0D3FE84214DF22160DE
:105AC00000F0CEFE02214DF2226000F0C9FEA421BA
:105AD0004DF2236000F0C4FE02214DF2246000F07C
