:020000040800F2
:1000000010C901205D020008832700089D24000814
:100010008127000835060008EF39000800000000BD
:100020000000000000000000000000009D0100082A
:10003000F506000800000000F9010008BD360008C0
:1000400077020008770200087702000877020008AC
:10005000770200087702000877020008770200089C
:10006000770200087702000877020008770200088C
:10007000770200087702000877020008770200087C
:10008000770200087702000877020008770200086C
:10009000770200087702000877020008770200085C
:1000A000770200088137000877020008770200080D
:1000B000770200087702000877020008770200083C
:1000C000770200087702000877020008770200082C
:1000D000770200087702000877020008770200081C
:1000E000770200087702000877020008770200080C
:1000F00077020008770200087702000877020008FC
:1001000077020008B9270008770200087702000884
:1001100077020008770200087702000877020008DB
:100120007702000877020008770200083906000805
:1001300077020008770200087702000877020008BB
:1001400077020008770200087702000877020008AB
:1001500077020008450600087702000877020008C9
:10016000770200087702000877020008770200088B
:1001700077020008770200087702000800000000FC
:100180007702000877020008DFF80CD000F0E2F9EF
:10019000004800471D90000810C901202C4B196829
:1001A0000868B0E8F04F80F30988BFF36F8F4FF015
:1001B000000080F3118870470000000008480068C4
:1001C000006880F308884FF0000080F3148862B65E
:1001D00061B6BFF34F8FBFF36F8F00DF00BF00BF6B
:1001E00008ED00E0DFF80C00016841F470010160E7
:1001F000704700BF88ED00E0EFF30980BFF36F8F19
:10020000134B1A681EF0100F08BF20ED108A20E96A
:10021000F04F106009B44FF0500080F31188BFF325
:100220004F8FBFF36F8F0AF095F94FF0000080F306
:10023000118809BC19680868B0E8F04F1EF0100F6B
:1002400008BFB0EC108A80F30988BFF36F8F704746
:10025000A8000020EFF305807047000006488047A3
:1002600006480047FEE7FEE7FEE7FEE7FEE7FEE79B
:10027000FEE7FEE7FEE7FEE77137000889010008A8
:100280002DE9F05F0546002092469B4688460646CB
:10029000814640241BE0284641464746224600F05E
:1002A000EBF853465A46C01A914110D311461846EE
:1002B000224600F0D2F82D1A67EB01084F4622467D
:1002C0000120002100F0C9F817EB00094E41201E63
:1002D000A4F10104DFDC484631462A464346BDE826
:1002E000F09F40EA01039B0703D009E008C9121FF1
:1002F00008C0042AFAD203E011F8013B00F8013BE0
:10030000521EF9D27047D2B201E000F8012B491E0B
:10031000FBD270470022F6E710B513460A460446A2
:100320001946FFF7F0FF204610BD2DE9FE4F81EA88
:10033000030404F0004421F0004100944FF0000B4E
:1003400023F0004350EA01045ED052EA03045BD07C
:10035000C3F30A54C1F30A552C44A4F2F3340194B4
:10036000A0FB0254C1F3130141F48011C3F3130342
:1003700043F4801301FB024400FB034E840A970AF6
:1003800044EA815447EA8357A4FB076802958D0A23
:1003900005FB07854FEA932C04FB0C542705029DAF
:1003A0004FEA065847EA1637B5EB08056EEB070C1F
:1003B000870E920E47EA811742EA8312A7FB0201D9
:1003C000B6EB0B0164EB00042B0D43EA0C335E1813
:1003D00044EB1C50DA465146E7FB0201C5F3130417
:1003E0004FEA0B3343EA14534FEA0432019C43EAC9
:1003F0000603A4F10C040294009CCDE900B400F0C3
:100400005AF803B0BDE8F08F00200146F9E70EB5B9
:1004100040F2334102910021CDE900110A460B461A
:1004200000F049F803B000BDC1F30A5210B5C1F3A2
:10043000130140F2FF3341F480119A4201DA0020A7
:1004400010BD40F233439A42A2F2334203DC5242DF
:1004500000F012F810BD904010BD202A04DB203AB5
:1004600000FA02F1002070479140C2F1200320FA07
:1004700003F3194390407047202A04DB203A21FA05
:1004800002F00021704721FA02F3D040C2F12002AD
:10049000914008431946704710B5141E73F10004CB
:1004A00008DA401C41F1000192185B411A4301D166
:1004B00020F0010010BD2DE9F04D92469B4611B190
:1004C000B1FA81F202E0B0FA80F220329046FFF7F2
:1004D000C4FF04460F4640EA0A0041EA0B015346B6
:1004E0005A46084313D0114653EA010019D0C8F107
:1004F00040025046FFF7C0FF05460E46504659469B
:100500004246FFF7AAFF084305D0012004E0204639
:100510003946BDE8F08D0020054346EAE0762C43DD
:1005200037430A986305E40AA0EB08000022FD0A9D
:1005300044EA47540A3002D500200146E9E70105A4
:1005400010196941DDE9084500196941BDE8F04D20
:10055000A2E70000064C074D06E0E06840F001030A
:1005600094E8070098471034AC42F6D3FFF710FE2A
:10057000E88D0308088E0308704700000146014813
:1005800001F0FCB888C1012010B5044801F008F959
:10059000042801D0012010BD002010BD88C1012019
:1005A00038B501208DF800009DF80000012801D029
:1005B000012038BD064801F00DFA040006D14FF4C1
:1005C0000061034800F080FF00B10124204638BDDF
:1005D00088C10120134610B50A460146002403488D
:1005E00001F0EAFA00B10124204610BD88C10120C3
:1005F00003484FF0FF320121406809F00FB80000B6
:100600005C000020134610B50A460146002403484A
:1006100001F06CFB00B10124204610BD88C101200F
:1006200003484FF0FF320221406808F0F7BF000096
:100630005C000020FEE70000014800F001B9000066
:100640000CC20120014800F0FBB800006CC2012080
:1006500001681823CAB2103AB2FBF3F2054B6FF3EC
:100660000901032A9B5CC36500D9091D8165084601
:1006700070470000CCE1000810B5014600208B69EE
:100680008A6A4FF0C07453B1B3F5005F15D072B1F0
:10069000012A0CD0022A0AD0032A09D104E01AB197
:1006A000012A06D0022A03D1C96AC90100D5012056
:1006B00010BDC96AA142FAD010BD002AF7D0012AA4
:1006C000F2D0022AF3D0032AF3D010BD30B504686B
:1006D000256825F480252560046863608368402BC5
:1006E000036803D099600068C26030BD9A600068FA
:1006F000C16030BD70477047002200F001B80000B3
:1007000030B50E4B054601209C7B022C15D2987B00
:1007100000241C54987B03EB800045609D7B03F113
:100720000C002A54987B421C9A73303008703A208F
:1007300048702F208870CC70002030BD00C501208B
:1007400070B5B3F5804F05D06FF0704140F82210BE
:10075000002070BD50F82240084B8E891C40D1E922
:10076000003543EA05138D6889692D0245EA06457F
:100770002B430B43234340F82230E9E70000F0CF3E
:10078000F0B50C6850F82430114A1340D1E9012526
:10079000D1E903672A433E4332434E6932438E69AF
:1007A0003243CE6932430E6A32434E6A32438E6A16
:1007B0003243CE6A3243CE6B096B32430A431A434B
:1007C000082D01D142F0400240F824200020F0BD65
:1007D0008000F0FF30B500EB820250688D8900F098
:1007E0004043D1E9000440EA04108C68240244EA42
:1007F000054420430C8A074D05EB045420430C7D2F
:100800006D0105EB04648969204308431843506077
:10081000002030BD0000F0FF90F83510022903D011
:100820008021416501207047052180F8351000685E
:10083000016821F00101016000207047406D7047A0
:100840002DE9F84304464FF00009CDF800906348C5
:100850004FF41651A56D0068B0FBF1F72E6894F8BF
:100860005C10082000FA01F131420FD021680A68BB
:1008700052070BD50A6822F004020A6094F85C1053
:100880008840A860606D40F00100606594F85C10DD
:100890004FF0010808FA01F0304208D02168496998
:1008A000090604D5A860606D40F00200606594F808
:1008B0005C1004208840304208D02168096889070C
:1008C00004D5A860606D40F00400606594F85C1089
:1008D00010208840304218D021680968090714D5D3
:1008E000A86020680168490304D50068000308D5A2
:1008F000A16C07E00168C90503D4016821F0080173
:100900000160216C09B12046884794F85C102020D2
:100910008840304231D021680968C9062DD5A860C9
:1009200094F8350005282068016806D0490347D5AA
:10093000006800031DD4616C1CE021F01601016009
:100940002068416921F080014161206C08B9A06CE8
:1009500020B12068016821F00801016094F85C1062
:100960003F208840A86084F8349084F83580216D59
:100970001FE0E16B09B120468847606D00282BD04D
:10098000606DC00714D0052084F835002068016828
:1009900021F0010101600098401C0090B84203D88A
:1009A00020680068C007F6D184F8349084F8358058
:1009B000E16C002910D001B02046BDE8F0430847A3
:1009C0000168C905D5D4016821F01001016084F8DF
:1009D000349084F83580CCE7BDE8F883A40000208B
:1009E0002DE9F041044600F0EDF906465CB1002522
:1009F00084F83450022084F835002068016821F022
:100A0000010101600DE00120BDE8F08100F0DAF99C
:100A1000801B052805D920206065032084F8350057
:100A2000F2E720680068C007F0D12268116820480A
:100A30000140D4E901031843D4E903363343184392
:100A400063691843A3691843E3691843236A184389
:100A50000843616A042903D1D4E90B1319430843FD
:100A6000106020684069666A20F0070130460E4336
:100A7000012704280CD1A06A0643E06A40B1204651
:100A8000FFF7FAFD20B14020606584F83570BAE7C1
:100A9000206846612046FFF7DBFD94F85C203F218B
:100AA00091408160656584F835700020ACE70000F6
:100AB0003F8010F02DE9F0410446866D90F8340037
:100AC000002501280DD0012084F8340094F83570F9
:100AD0000020012F07D084F8340002252846BDE805
:100AE000F0810220FBE7022784F83570606520461C
:100AF000FFF7ECFD94F85C103F208840B060206860
:100B0000016841F016010160206C20B12068016885
:100B100041F0080101602068016841F001010160B5
:100B2000DCE780B203F026BBF0B587B0142168463D
:100B3000FFF7F0FB1F480168002939D10124046048
:100B40001D48016841F0010101600068022500F0C4
:100B5000010005904FF23F00CDE9000502AA0326EF
:100B60000C2782E8D0006946144800F02FF841F2C3
:100B70003F40CDE9000502AA694682E8D00010484E
:100B800000F024F84FF68370CDE9000502AA69460B
:100B900082E8D0000B4800F019F84FF63370CDE929
:100BA000000502AA694682E8D000074800F00EF866
:100BB00007B0F0BD90000020383802400014024019
:100BC0000018024000100240000C02402DE9F84FCE
:100BD000DFF8B8A1002201250AF1040B03264FF02B
:100BE0000F090BF1040E00BF0B6805FA02F4234055
:100BF000A3426FD10F7907F00307012F01D0022F15
:100C000016D187684FEA420806FA08FC27EA0C0763
:100C1000D1F80CC00CFA08FC4CEA070CC0F808C06C
:100C20004768A7430C79C4F3001494403C434460E4
:100C30000C79E443A4070AD0C4684FEA420C06FAD0
:100C40000CF7BC438F6807FA0CF72743C7600C7991
:100C500004F00304022C12D1D40800EB840CDCF85D
:100C600020405707FF0E09FA07F824EA0804D1F8D4
:100C7000108008FA07F848EA0408CCF820800468D5
:100C80004FEA420C06FA0CF7BC430F7907F0030752
:100C900007FA0CF7274307604C68E40070D53C4C1A
:100CA000276847F480472760246822F0030704F48C
:100CB00080440094374C07EB040CDCF80848970795
:100CC0004FEA177809FA08F7BC43334FB84202D10C
:100CD000002724E054E0314FB84201D101271EE043
:100CE0002F4FB84201D1022719E02E4FB84201D14F
:100CF000032714E02C4FB84201D104270FE02B4FFB
:100D0000B84201D105270AE0294FB84201D1062790
:100D100005E0284FB84201D1072700E0082707FA6D
:100D200008F72743CCF80878DAF800405746D1F89E
:100D300004C09C435FEACC3C00D51C433C60DBF81C
:100D400000405F46D1F804C09C435FEA8C3C00D56C
:100D50001C433C60DEF800407746D1F804C09C4359
:100D60005FEACC2C00D51C433C60084F0C373C6834
:100D7000D1F804C09C435FEA8C2C00D51C433C6036
:100D8000521C102AFFF430AFBDE8F88F003C014040
:100D9000443802400030014000000240000402409C
:100DA00000080240000C0240001002400014024003
:100DB00000180240001C02400AB18161704709041A
:100DC000FBE70000014880687047000098000020A1
:100DD00002488168027811448160704798000020C1
:100DE0000B4810B5016841F400710160016841F4DD
:100DF00080610160016841F480710160032000F0AE
:100E00008DF8002000F006F800F03EF8002010BD3C
:100E1000003C024010B5014688B00022192000F0C5
:100E20005DF8192000F04CF813480024016841F0E7
:100E300001010160006805A900F001000690684604
:100E400000F018F900F046F90C494000B0FBF1F150
:100E50000C480B4A491E026040F2E732C0E9032405
:100E6000C0E9011401F084F910B1012008B010BDEF
:100E7000044801F0ABF9F9E74438024040420F0062
:100E80000000014068C301200C4882B0016841F4B1
:100E900080410160006800F4804000900748001F16
:100EA000016841F0805101600068002200F080502C
:100EB00000900F21901E02B000F010B8443802409C
:100EC000002809DB00F01F02012191404009800049
:100ED00000F1E020C0F8001170470000F0B40E4BA4
:100EE0001B680C46C3F30223C3F10705042D00D988
:100EF0000425191D072901D2002300E0DB1E01266D
:100F000006FA05F1491E214099409E40761E164082
:100F10003143F0BC02F090BD0CED00E0064900F05A
:100F2000070208684FF6FF03184040EA0220034A10
:100F300010430860704700000CED00E00000FA0567
:100F40002DE9F0470E46050065D0DFF81481D8F88A
:100F50000000F7B200F00700B04207D288F8007036
:100F6000D8F8000000F00700B04254D128683D4C8A
:100F7000810712D5400703D5206840F4E050206077
:100F80002878000703D5206840F46040206020687E
:100F9000A96820F0F000084320602878C0072DD011
:100FA000304968680839012812D0022813D0032874
:100FB00011D00968890700292DDA216821F0030181
:100FC00001432160FFF7FEFE814641F2883A0EE0C0
:100FD00009688903EFE709688901ECE7FFF7F2FE8A
:100FE000A0EB0901514502D90320BDE8F087206834
:100FF000696800F00C00B0EB810FEFD1D8F8001059
:10100000404601F00701B14207D90770006800F0BF
:101010000700B04201D00120E7E72878400705D556
:101020002068E96820F4E050084320602878000731
:1010300006D52068296920F4604040EAC10020609C
:1010400000F058F82168084AC1F30311515CC84008
:101050000649086006480068FFF7DCFE0020C4E788
:10106000003C024008380240D4E10008A4000020FF
:101070009C0000200F2202600C4A136803F0030357
:101080004360136803F0F0038360136803F4E053D4
:10109000C36012684FF4E05303EAD20202610448CD
:1010A000006800F007000860704700000838024040
:1010B000003C02400448054900680968044AC1F33D
:1010C0008221515CC8407047A400002008380240CB
:1010D000E4E100080448054900680968044AC1F3CE
:1010E0004231515CC8407047A400002008380240DB
:1010F000E4E10008154810B5006810F00C0214482F
:1011000013D04110042A0FD0082A0ED10F4C241FEF
:101110002268236802F03F025B0207D52068C0F313
:101120008810A0FB010106E0084610BD2168C1F34C
:101130008811A1FB00010023FFF7A2F82168C1F389
:101140000141491C4900B0FBF1F010BD08380240D4
:101150000024F4002DE9F84F04006ED02078DFF869
:101160004C93C007A9F104054AD009F104000168B5
:10117000C1F38101012908D00068C0F38100022871
:101180000AD1D9F80000400206D52868800337D577
:1011900060680028E1D033E06068B0F5803F10D08F
:1011A000B0F5A02F286810D020F48030286028687F
:1011B00020F4802028606068A8B1FFF703FE06468F
:1011C0000DE0286840F48030F4E740F48020286087
:1011D000F7E700BFFFF7F6FD801B642873D8286887
:1011E0008003F7D50CE0FFF7EDFD064605E000BFF4
:1011F000FFF7E8FD801B6428F0D828688003F7D447
:101200002078DFF8AC8280074FF0000A3ED5A7486F
:10121000001D016811F00C0F08D00068C0F38100B8
:1012200002280BD1D9F80000400207D428688007B3
:1012300016D5E068012800D112E033E1E068B8B1CA
:101240000120C8F80000FFF7BDFD064605E000BF1D
:10125000FFF7B8FD801B0228C0D828688007F7D5A3
:101260002868216920F0F80040EAC10028600DE0FC
:10127000C8F800A0FFF7A6FD064604E0FFF7A2FDB0
:10128000801B02281FD828688007F7D42078000721
:1012900022D5864F87486169703771B1012101609D
:1012A000FFF790FD064604E0FFF78CFD801B022847
:1012B00009D838688007F7D50EE0C0F800A0FFF71E
:1012C00081FD064605E082E0FFF77CFD801B0228D9
:1012D0007DD838688007F7D42078400768D5DFF8D4
:1012E000CCB100270BF13C0BDBF80000C0000BD4A5
:1012F000DBF8001041F08051CBF80010DBF8000063
:10130000012700F0805000906B4E3068C00510D46B
:10131000306840F480703060FFF754FD009005E0C5
:10132000FFF750FD0099401A022850D83068C005D8
:10133000F6D55E4EA0686C3601280FD005283068BF
:1013400010D020F001003060306820F004003060E0
:10135000A068B8B1FFF736FD00900FE0306840F0AC
:101360000100F4E740F004003060F7E7FFF72AFDE2
:101370000099411A41F28830814266D8306880076E
:10138000F4D50EE0FFF71EFD009007E0FFF71AFD11
:101390000099411A41F28830814256D8306880075E
:1013A000F4D42FB1DBF8001021F08051CBF80010FD
:1013B000A069C8B33D49091D0968C1F3810102292B
:1013C0004AD00228504607D0C8F8600000E03CE050
:1013D000FFF7F8FC04463BE04746C8F86000FFF71B
:1013E000F1FC064605E000BFFFF7ECFC801B02287D
:1013F0002BD828688001F7D4D4E907010843A16AF3
:101400002E4A490802EB0141626A41EA821108430F
:1014100094F82C1040EA0161C9F8001001203866E8
:10142000FFF7D0FC044606E03EE000BFFFF7CAFC31
:10143000001B022809D828688001F7D534E000BFD6
:10144000FFF7C0FC001B022802D90320BDE8F88F7B
:1014500028688001F4D427E00128F7D0D9F80000EB
:10146000E26900F4800191421CD1226A00F03F0140
:10147000914217D147F6C071626A0140B1EB821FF9
:1014800010D1A26A4FF0FF3300F4403103EB520257
:10149000B1EB024F06D194F82C1000F07060B0EB65
:1014A000016F01D00120D1E70020CFE704380240CE
:1014B00000004742800E4742007000400000FFFFDE
:1014C00010B5FFF759F810BD2DE9FE43044600267C
:1014D00003200D4684F83400606C03285ED0B5F517
:1014E000805F5BD04FF4006700204FF08068BD4202
:1014F0001FD18146009001900021206801F058F929
:10150000800113D46946204601F040FD07000DD14B
:101510000198400334D5B4F850000104206801F06C
:1015200083F9070002D10221206823E0A06B384331
:1015300028E01DB1A06B40F0006023E081460090E0
:1015400001900021206801F033F98001EED4694652
:10155000204601F01BFD0700E8D10198C0030FD51C
:10156000B4F850000104206801F05EF90700DDD1F5
:101570000021206801F0A5F90700D7D14F46D5E733
:101580004746D3E7A063A06B144F4FF0010848B162
:101590002068876384F8348001260EE0A06B40F059
:1015A0008050EFE7211DD4E9050C0EC9CDE90050AC
:1015B000CDF808C0206801F005F94FF400712068EB
:1015C00001F066F928B121688F63A16B0143A16323
:1015D000012684F834803046BDE8FE83FF054000D4
:1015E00070470000F0B5426E920F0A70426EC2F36F
:1015F00083624A70426EC2F301628A70426E120CBC
:10160000CA70B0F86420120A0A7190F864204A7116
:10161000826E120DCA80826EC2F303420A72B0F863
:101620006820C2F3C0324A72B0F86820C2F3803238
:101630008A72B0F86820C2F34032CA72B0F86820EB
:10164000C2F300320A7300264E73426C4FF40075E9
:10165000012462B1012A3AD0026847499163816B43
:1016600041F08051816380F834400120F0BDB0F832
:101670006820C36E9205120D42EA93720A61C26E2F
:10168000C2F3C2620A75C26EC2F302624A75C26ECA
:10169000C2F342528A75C26EC2F38242CA75C26EEA
:1016A000C2F3C2320A760A69521C42650B7E03F00D
:1016B00007039B1C9A4042650B7A03F00F0704FA5C
:1016C00007F383655B0A5A43C0E917250EE090F8DB
:1016D0006820C36E9206920A42EA13420A610A69BE
:1016E000521C92024265C0E91652056630F86C2F12
:1016F000C2F3803201F8192F0288C2F3C6124A7071
:10170000027802F07F028A704268D20FCA70426883
:10171000C2F341720A714268C2F382624A7142683E
:10172000C2F383528A714268C2F34052CA710E7288
:101730004268C2F300424A728288C2F3C0328A729F
:101740008288C2F38032CA728288C2F340320A733E
:101750008288C2F300324A738288C2F381228A737C
:101760008288C2F30122CA730079C0F3460008746C
:101770004C740020F0BD0000FF054000426C0A6080
:10178000826C4A60C26C8A60026DCA60426D0A61F6
:10179000826D4A61C26D8A61006EC8610020704727
:1017A00070B50446B0F8500000250104206801F02F
:1017B00092F918B1A16B0143A16304E000212068F4
:1017C00000F0F6FF0546C5F3432070BDF8B5056B84
:1017D00004460068416B09041BD5290719D5D4E9D3
:1017E0000A56002E14D00027206801F005F805F8ED
:1017F000010B010A05F8011B010C05F8021B000E84
:10180000361F7F1C05F8010C082FEDD3C4E90A56DA
:10181000F8BD416B4FF00006C9054FF0010744D5F4
:10182000390281632068C16B4CF23A329143C16343
:101830002068C16A21F00101C16228071DD515F099
:10184000220F09D0206801F077F928B1A16B01437C
:10185000A1632046FFF7C4FE216840F23A50886336
:1018600084F834702663A80703D0204600F036FAC7
:10187000F8BD204600F036FAF8BD2806FCD5A806CB
:1018800009D5206801F058F928B1A16B0143A16383
:101890002046FFF7A5FEA807EED12068C16A21F017
:1018A0000801C16284F83470E3E7416B490424D530
:1018B000290722D5D4E90856002EDDD05FF00007B5
:1018C00015F8010B009015F8011B361F40EA0120A6
:1018D000009015F8021B40EA0140009015F8011C29
:1018E00040EA016000906946206800F098FF7F1C84
:1018F000082FE5D3C4E90856F8BD416B40F23A22FF
:101900001142F9D0416B890703D5A16B41F0020167
:10191000A163416B090703D5A16B41F00801A163E5
:10192000416B890603D5A16B41F02001A163416B96
:10193000C90603D5A16B41F01001A163416B890574
:1019400003D5A16B41F00801A16340F23A718163B4
:101950002068C16B40F23A329143C163206801F0C4
:10196000EBF8A16B0843A063280706D584F8347010
:1019700026632046FFF734FEF8BD2806FCD515F097
:10198000300F0CD0E16B11480865E06BFEF744FFA7
:101990000028F1D0E06BBDE8F84001F0D5BAA80707
:1019A0000CD0216C0A480865206CFEF735FF002832
:1019B000E2D0206CBDE8F84001F09DBAA66384F83F
:1019C000347026632046FFF77BFDF8BD492F0008E1
:1019D000F72E000870B504000ED094F834000025EE
:1019E00018B92577204600F04BF8032084F834001E
:1019F000204600F00BF808B1012070BDA5632563F7
:101A0000012084F83400002070BD0000FEB50025E0
:101A1000044676200095CDE9015029460B460A463A
:101A2000206800F0CFFE28BB134E46F8A05F206868
:101A300000F0DAFE01253560204601F08BFB28B16D
:101A400084F83450A16B0143A16313E0204601F0F8
:101A50000AFB0028F4D14FF40071206800F018FF51
:101A6000002808D0226805499163A16B0143A16356
:101A700084F834500120FEBD00802542FF0540005F
:101A80002DE9F04F87B0054614216846FEF742FC69
:101A90004349286888427FD142480068414940F460
:101AA00000600860086800F4006005903D48143844
:101AB000016841F004010160016801F00401059131
:101AC000016841F0080101600068022400F008008C
:101AD00005904FF4F8504FF001088DE811010326EE
:101AE0004FF00C09CDE9036969462F48FFF76EF8FE
:101AF0000427CDE90074CDE9028669462B48CDF86C
:101B00001090FFF763F82B4C29484FF00068E4E889
:101B10000208002001C44FF480694FF4805BA4E800
:101B2000010A38034FF0200A64E8060A0020C4E9DD
:101B300008077805C4E90A6086101E482663FEF788
:101B40004FFF08B1FEF7D7FD2C64A563194C184868
:101B500060344830E4E80208402001C40020A4E8D2
:101B6000010A032164E8060AC4E908072663C4E9F8
:101B70000A1010486030FEF733FF08B1FEF7BBFDD6
:101B8000EC63002205213120A563FFF7A7F931207E
:101B900000E001E0FFF794F907B0BDE8F08F000026
:101BA000002C01404438024000080240000C024072
:101BB000586402400CC201202DE9F04786B01F4650
:101BC0000446154639B194F83400012807D00220A4
:101BD00006B0BDE8F087A06B40F0006008E0002090
:101BE000A063E36DEA199A4204D9A06B40F000703B
:101BF000A06369E0032284F8342022688146D06221
:101C00002268D36B40F22A363343D363236C2F4AC6
:101C1000DA63236C2E4ADA64226C1065226C9060C1
:101C2000206C0068026822F0C002026020680A4648
:101C3000266C4FEA472800F180014FEA98033046AE
:101C4000FEF738FFDFF88CA0012670B12068C16B69
:101C500021F49571C1632168C1F838A0A06B40F0F0
:101C60008040A06384F834602EE01B480660606CFE
:101C7000012800D06D024FF0FF30CDE90008902020
:101C8000029002200596CDE903096946206800F01C
:101C900079FD012F06D9822020632946206800F0B3
:101CA0008BFE05E0812020632946206800F09DFE20
:101CB00000288DD02268C2F838A0A16B0143A1632F
:101CC00084F83460C4F83090012081E7B52E000814
:101CD000512E0008FF0540008C85254210B5FEF707
:101CE00087FC10BD10B5FEF79BFC10BD2DE9F04F31
:101CF0005FEA010B87B01E460446114607D094F8F0
:101D00003400012807D0022007B0BDE8F08FA06B97
:101D100040F0006008E00025A563E26D881990425C
:101D200004D9A06B40F00070A06356E0032084F853
:101D300034002068C5622068C26B40F21A2942EA6A
:101D40000902C263E26B2D48D063E26B2C48D06479
:101D5000E06B0565606C012800D049024FF09008E7
:101D6000012E05D9A0202063206800F0FFFE04E0CA
:101D7000C4F83080206800F012FFDFF888A0012747
:101D800030B12268C2F838A0A16B0143A16321E001
:101D90001D480760E16B40208860E06B00680168C7
:101DA00021F0C00141F04001016022687602B308D1
:101DB00059468032E06BFEF77DFE80B12068C16B32
:101DC00021EA0901C1632168C1F838A0A06B40F085
:101DD0008040A06384F834702563012094E74FF0BD
:101DE000FF30CDE90006CDE90285CDE9045769460B
:101DF000206800F0C7FC002086E700003B2F0008A9
:101E0000512E0008FF0540008C85254270B5040066
:101E100009D0606A002540B125616561A56294F82A
:101E2000510040B10CE0012070BD6068B0F5827FC8
:101E3000F4D0E561F2E784F85050204600F044F811
:101E4000022084F851002068016821F040010160FF
:101E5000A088218900F4827001F404410843A1891B
:101E600001F400610843217C01F002010843217D57
:101E700001F001010843218B01F400710843217F27
:101E800001F03801084394F8201001F08001084364
:101E9000218D01F40051084321680860A0690421E4
:101EA00001EA104094F8241001F010010843216861
:101EB00048602068C16921F40061C1616565012045
:101EC00084F85100002070BD10B586B0044614217E
:101ED0006846FEF71FFA13492068884220D112484D
:101EE000016841F480510160006800F48050059061
:101EF0000D481438016841F002010160006869462C
:101F000000F002000590382000900220019001208E
:101F1000029003200390052004900448FEF756FE2B
:101F200006B010BD003001404438024000040240B9
:101F30002DE9F84F044690F8500000270A9E1D46F0
:101F400092468B464FF0010901280ED0012084F8FB
:101F50005000FEF737FF804694F851006168012871
:101F60000CD0B1F5827F07D102E00220BDE8F88FE6
:101F7000A16809B9042801D00227C2E0BBF1000F13
:101F800027D0BAF1000F24D01DB394F851000428D3
:101F900002D0052084F8510000206065C4F838A004
:101FA000E587A587C4F830B0E586A586206460641F
:101FB00020680168490603D4016841F040010160CE
:101FC000E068B0F5006F606805D0E8B3012D46D039
:101FD0007FE0012795E008B1012D39D1206B216800
:101FE0000088C860206B801C2063E08E401EE08665
:101FF0002EE02068816889070FD5E18E69B1B9F1BB
:10200000010F0AD1216B0988C160206B801C2063FD
:10201000E08E401EE0864FF0000920688168C90705
:102020000CD0E18F51B1C068A16B0880A06B801CFF
:10203000A063E08F401EE0874FF00109FEF7C2FE6B
:10204000A0EB0800B04200E009E001D3701C50D1C1
:10205000E08E0028CDD1E08F0028CAD13FE0206B70
:10206000216800780873206B401C2063E08E401EBE
:10207000E0862EE02068816889070FD5E18E69B17E
:10208000B9F1010F0AD1216B09780173206B401C53
:102090002063E08E401EE0864FF0000920688168D2
:1020A000C9070CD0E18F51B1C068A16B0870A06B5B
:1020B000401CA063E08F401EE0874FF00109FEF74F
:1020C00081FEA0EB0800B04202D3701C01D010E0EA
:1020D0007EB1E08E0028CDD1E08F0028CAD14246E3
:1020E0003146204601F08CF928B101272020606597
:1020F00007E0032705E0A06818B92068C168806878
:102100000090012084F85100002084F850003846E7
:102110002CE770B515460E46040003D094F849002C
:1021200010B107E0012070BD002084F8480020466F
:1021300000F01AF804F108012068FEF721FB31468F
:10214000A2682068FEF746FBD4E901022946236B0A
:10215000FEF7F6FAA168206850F8212042F001024B
:1021600040F82120002070BDFEF7DEBC70477047AC
:1021700010B5040003D094F83D0010B107E0012031
:1021800010BD002084F83C00204600F01EF802201C
:1021900084F83D00211D206801F0F8FA012084F840
:1021A000460084F83E0084F83F0084F8400084F83C
:1021B000410084F8420084F8430084F8440084F825
:1021C000450084F83D00002010BD704790F83D1098
:1021D000012901D001207047022180F83D100168DB
:1021E000CA6842F00102CA6000681149884214D0EE
:1021F000B0F1804F11D00F4988420ED00E4988426D
:102200000BD00E49884208D00D49884205D00D49AF
:10221000884202D00C49884204D1816801F007014C
:10222000062903D0016841F00101016000207047D8
:10223000000001400004004000080040000C004085
:10224000000401400040014000180040704770B594
:102250000446006801694FF00005C943890715D499
:10226000C168C943890711D4E91E016101202077A3
:10227000206880698007204602D0FFF7E7FF04E06E
:1022800000F098F8204600F096F82577206801695C
:10229000C943490717D4C168C943490713D46FF02C
:1022A00004010161022020772068806910F4407FDA
:1022B000204602D0FFF7CAFF04E000F07BF820467A
:1022C00000F079F8257720680169C943090716D419
:1022D000C168C943090712D46FF0080101610420E5
:1022E00020772068C0698007204602D0FFF7AEFF44
:1022F00004E000F05FF8204600F05DF825772068E4
:102300000169C943C90617D4C168C943C90613D4B2
:102310006FF010010161082020772068C06910F477
:10232000407F204602D0FFF791FF04E000F042F822
:10233000204600F040F8257720680169C943C907A5
:1023400008D1C168C943C90704D1891E016120466B
:1023500000F032F820680169C943090609D4C16850
:10236000C943090605D46FF0800101612046FFF7DB
:10237000FDFE20680169C943490609D4C168C94303
:10238000490605D46FF040010161204600F01EF8B7
:1023900020680169C94389060BD4C168C94389060D
:1023A00007D46FF0200101612046BDE87040FFF7BF
:1023B000DEBE70BD7047704700680349884201D196
:1023C000FEF706BD7047000000000140704770B581
:1023D000040004D094F83D00002510B106E001206F
:1023E00070BD84F83C50204600F022F8242084F888
:1023F0003D002068C16821F40051C160204601F011
:1024000029FA2068016921F490410161206841693D
:1024100021F02A0141612068C16841F40051C16086
:102420002564202084F83D0084F83E00002070BD23
:1024300010B586B0044614216846FDF76BFF1449B9
:102440002068884221D11348016841F010010160E1
:10245000006800F0100005900E481438016841F043
:10246000010101600068694600F0010005904FF429
:10247000C060009002200190012002900320039090
:10248000072004900448FEF7A1FB06B010BD000031
:10249000001001404438024000000240FEE7000006
:1024A0000D4808B5016841F4800101600068002210
:1024B00000F48000009006213B20FEF70FFD3B203A
:1024C000FEF7FEFC002206214520FEF707FDBDE8D1
:1024D00008404520FEF7F4BC3038024010B50649EC
:1024E0000648FEF709F9044CA41EA11D20700448FB
:1024F000FEF702F9607010BD660000208CE1000854
:102500007000002000B585B0142206496846FDF72A
:10251000E8FE0021684607F029F90349886005B004
:1025200000BD0000B8E10008840000202DE9F0475C
:102530008EB01C216846FDF7EDFE1C2107A8FDF7B3
:10254000E9FE304804210024C0E902141025C0E946
:1025500004458461C4614FF4805A0462C0E9094AA9
:10256000C46204634463DFF8A08084634FF02046B4
:102570004464C0E9006802200F27CDE9000702A9E2
:1025800008204FF0110981E83102002269461D48F8
:102590000694FFF7BEFD08B1FEF7ADF81948062115
:1025A000503007AAC0E90214C0E904458461C4613F
:1025B0000462C0E9094A4FF48041C0E90B41446319
:1025C00084634464C0E900683C200097CDE9017051
:1025D000CDF81490CDE903750921CDE90641CDE987
:1025E0000871CDE90C940748CDE90A756946503069
:1025F000FFF78FFD002801D0FEF77DF80EB0BDE893
:10260000F0870000E8C00120040100A070B586B08A
:1026100014216846FDF77EFE2E48016841F0200136
:102620000160016801F020010591016841F080011D
:102630000160016801F080010591016841F04001ED
:102640000160016801F040010591016841F010014D
:102650000160016801F010010591016841F002017B
:102660000160016801F002010591016841F0080173
:102670000160016801F008010591016841F0040161
:102680000160016801F004010591016841F0010158
:1026900001600068104E00F00100059001224FF427
:1026A00040413046FEF788FB01244FF48040CDE9DD
:1026B0000004022569463046CDE90245FEF786FA58
:1026C000E0038DE83100694630460395FEF77EFA57
:1026D00006B070BD30380240000402400748064989
:1026E0004FF480420160002141608160C160C0E917
:1026F0000412816170470000002C014088C1012054
:10270000104810B50E4901604FF4827141600021FC
:1027100002228160C0E903120122426152028261F9
:102720003822C0E90721416281620A21C162FFF7B4
:102730006DFB002803D0BDE81040FDF7DCBF10BDE5
:1027400000300140CCC201200C4810B50A4901609C
:102750004FF4E1314160002181600C22C160C0E989
:1027600004128161C161FFF732FE002803D0BDE889
:102770001040FDF7C0BF10BD0010014024C3012070
:10278000FEE770470A6842624A688262D1E9022322
:102790001A43D1E904310B43C16A1A4321F0F7010E
:1027A0001143C16200207047006800F003007047C9
:1027B00008444069704700000148FFF707B800006F
:1027C00088C1012070B50DF1100C11439CE8700018
:1027D0002343194329434268314347F6FF639A4331
:1027E0000A434260002070BD10B503210160022041
:1027F000FEF797F9002010BDD0F8800070470A68F6
:102800008260D1E901231A43D1E903310B43C16846
:102810001A436FF30B011143C16000207047096830
:10282000C0F880100020704710B586B004463720ED
:10283000CDE9001040200290002003904FF480600A
:10284000049069462046FFF7DAFF41F288323721CB
:10285000204600F0BDF906B010BD000010B50446DA
:102860000A4886B001432920CDE90010402002909B
:10287000002003904FF48060049069462046FFF7E3
:10288000BEFF204600F05CFA06B010BD00001080CC
:1028900010B586B004461020CDE90010402002900B
:1028A000002003904FF48060049069462046FFF7B3
:1028B000A6FF41F288321021204600F089F906B0C7
:1028C00010BD10B586B004460620CDE900104020AA
:1028D0000290002003904FF48060049069462046E7
:1028E000FFF78DFF41F288320621204600F070F993
:1028F00006B010BD30B585B00024054600940194A3
:102900004FF480600294CDE9034069462846FFF702
:1029100076FF0B484FF4FA510068B0FBF1F041F23A
:1029200088314843401E03D24FF0004005B030BD0F
:10293000696B0906F6D5C520A8632046F6E70000B6
:10294000A400002070B585B004464FF4D570009007
:1029500001A908204025002681E86100C0010490FB
:1029600069462046FFF74BFF12484FF4FA510068C2
:10297000B0FBF1F041F288314843401E03D24FF0E2
:10298000004005B070BD616B11F0450FF5D0090531
:10299000F3D4606B400701D5042003E0606BC007EF
:1029A00002D00120A063ECE7606B400600D5A56370
:1029B0003046E6E7A400002010B586B00446122099
:1029C000CDE9001040200290002003904FF4806079
:1029D000049069462046FFF712FF41F28832122127
:1029E000204600F0F5F806B010BD10B586B00446DC
:1029F0001120CDE9001040200290002003904FF4F8
:102A00008060049069462046FFF7F9FE41F2883263
:102A10001121204600F0DCF806B010BD10B586B0DC
:102A200004460720CDE900204020029000200390BA
:102A30004FF48060049069462046FFF7E0FE41F2C3
:102A400088320721204600F0C3F806B010BD10B54B
:102A500086B0044600210220CDE90010C020CDE957
:102A600002014FF48060049069462046FFF7C7FEDC
:102A7000204600F03DF906B010BD10B586B0044602
:102A80000920CDE90010C0200290002003904FF4EF
:102A90008060049069462046FFF7B1FE204600F0B2
:102AA00027F906B010BD10B586B0044600213320CA
:102AB000CDE900104020CDE90201000104906946F3
:102AC0002046FFF79CFE41F288323321204600F079
:102AD0007FF806B010BD10B586B004460D20CDE9D4
:102AE000001040200290002003904FF4806004907A
:102AF00069462046FFF783FE41F288320D212046C9
:102B000000F066F806B010BD30B585B00C4605463D
:102B100000210320CDE900104020CDE90201000191
:102B2000049069462846FFF76AFE2246032128469C
:102B300000F028F905B030BD10B586B0044600217C
:102B40000C20CDE900104020CDE9020100010490E5
:102B500069462046FFF753FE034A0C21204600F049
:102B600037F806B010BD000000E1F50510B586B0DD
:102B700004461920CDE90010402002900020039067
:102B80004FF48060049069462046FFF738FE41F21A
:102B900088321921204600F01BF806B010BD10B590
:102BA00086B004461820CDE9001040200290002095
:102BB00003904FF48060049069462046FFF71FFEA3
:102BC00041F288321821204600F002F806B010BD0C
:102BD000454B10B51B684FF4FA54B3FBF4F3534361
:102BE0005B1E02D24FF0004010BD426B12F0450F49
:102BF000F6D01205F4D4426B520703D50421816349
:102C0000084610BD426BD20702D00121816305E066
:102C1000C52282630269D2B28A4201D0012010BD6E
:102C20000021FFF7C5FD3149084201D1002010BD48
:102C3000002802DA4FF0007010BD410001D540209D
:102C400010BD810001D5802010BDC10002D54FF418
:102C5000807010BD010102D54FF4007010BD41011C
:102C600002D54FF4806010BDC10102D54FF4006061
:102C700010BD010202D54FF4805010BD410202D5B3
:102C80004FF4005010BD810202D54FF4804010BDBA
:102C9000C10202D54FF4004010BD410302D54FF4EC
:102CA000003010BD810302D54FF4802010BDC10358
:102CB00002D54FF4002010BD010402D54FF480105E
:102CC00010BD410402D54FF4001010BD810402D59F
:102CD0004FF4800010BD000702D54FF4000010BD76
:102CE0004FF4803010BD0000A400002008E0FFFD7C
:102CF00012494FF4FA520968B1FBF2F141F28832FD
:102D00005143491E02D24FF000407047426B12F00F
:102D1000450FF6D01205F4D4416B490703D50421C1
:102D2000816308467047416BC90703D00121816365
:102D300008467047C521816300207047A400002029
:102D40000F494FF4FA520968B1FBF2F141F28832AF
:102D50005143491E02D24FF000407047426B12F0BF
:102D6000450FF6D01205F4D4416B490703D5042171
:102D7000816308467047C5218163002070470000C9
:102D8000A400002030B5204B4FF4FA541B68B3FB6D
:102D9000F4F341F2883463435B1E02D24FF00040EB
:102DA00030BD446B14F0450FF6D02405F4D4436BCA
:102DB0005B0703D504218163084630BD436BDB0705
:102DC00002D00121816303E00369DBB28B4201D0B1
:102DD000012030BDC52181630021FFF7E9FC10F41B
:102DE000604F04D0410406D54FF4005030BD000CB4
:102DF0001080002030BD000402D54FF4805030BD5B
:102E00004FF4803030BD0000A400002010B5064C07
:102E100001202070FDF7B8FB18B9207820F00100E0
:102E20002070207810BD00005C00002070B50546C1
:102E300006F099FB044603E0FDF7A6FB002806D048
:102E400006F091FB001BA842F6D34FF0FF3070BD97
:102E500010B5846BFDF7F2FC022828D0206C416D80
:102E6000E06B406D012901D001281DD12168104877
:102E700088632068C16B21F49D71C163A06B40F031
:102E80008040A0632046FEF78BFC062801D0052871
:102E900005D12068FFF750FEA16B0843A063012015
:102EA00084F83400002020632046FEF799FB10BD13
:102EB000FF05400010B5846B206B822809D1206883
:102EC000FFF73AFE28B1A16B0143A1632046FEF74C
:102ED00087FB2068C16A21F00801C162216840F2C5
:102EE0003A508863012084F8340000202063204693
:102EF000FEF7F4FE10BD10B5846B40F23A50216825
:102F000088632046FEF74CFC012184F83410002130
:102F10002163062801D0052805D12068FFF70CFEA3
:102F2000A16B0843A063A06B0028204602D0FEF7E7
:102F300057FB10BDFEF7C4FA10BD806B0068C16B73
:102F400041F48071C163704710B5846B40F23A5010
:102F5000216888632046FEF723FC012184F83410A1
:102F600000212163062801D0052805D12068FFF73C
:102F7000E3FDA16B0843A063A06B0028204602D0AC
:102F8000FEF72EFB10BDFEF79BFA10BD2DE9F047B2
:102F900088B00D460446FDF715FF002682460096D0
:102FA0000196374608212068FFF772FC002829D1D6
:102FB000B4F8500001042068FFF736FC002821D146
:102FC000401E4FF00808CDE9020830204FF00209FA
:102FD000CDE904090120CDE9067002A92068FFF7B8
:102FE000D1FB2068FFF75FFD00280BD16F462068FA
:102FF000416B11F02A0F08D0416B09071AD5C0F8B0
:103000003880082008B0BDE8F087416B890205D5FB
:10301000FFF7F2FB47F82600761C02E0416B8904BB
:10302000EAD5FDF7CFFEA0EB0A00401CDFD14FF040
:103030000040E7E7416B890703D5C0F838900220CC
:10304000E0E7416B890603D5202181630846D9E773
:1030500040F23A518163019800BA2860009800BAA2
:1030600068600020CEE710B590B004460120ADF8AE
:1030700038002068FFF798FB002854D0606C0328C4
:1030800042D02068FFF7E3FC00284AD100212068E5
:10309000FFF78EFB606704212068FFF789FBA067BC
:1030A00008212068FFF784FBE0670C212068FFF708
:1030B0007FFBC4F88000606C032825D00EA920682F
:1030C000FFF722FD00282CD1606C03281CD0BDF82E
:1030D0003800206501042068FFF7CFFC002820D1CC
:1030E00000212068FFF764FB606604212068FFF779
:1030F0005FFBA06608212068FFF75AFBE0660C2101
:103100002068FFF755FB206704212068FFF750FB7C
:10311000000DE06403A92046FEF764FA30B14FF0D9
:10312000805010B010BD4FF08060FAE7B4F8500046
:10313000002302042068FFF771FC0028F1D104F19C
:10314000100007C88DE8070094E80F00FFF73AFB6E
:103150000020E6E72DE9F84F0026044600963546A4
:10316000B0460068FFF7C6FB002827D12068FFF7AC
:10317000E9FB4FF0805B4FF001094FF6FF7748B154
:10318000A6642068FFF7B6FB002817D1A06C0128C1
:1031900002D020E0C4F8489000212068FFF744FBEB
:1031A00058B918E000212068FFF73EFB002805D140
:1031B00051462068FFF752FB10B15846BDE8F88F22
:1031C00000212068FFF7F4FA05464FEAD07800980E
:1031D000401C009002E0DFF82CA00098B84202D218
:1031E000B8F1000FDED00098B84202D34FF08070E3
:1031F000E4E7680002D5C4F8449000E0666400206B
:10320000DCE70000000010C17CB50F4C0546012032
:10321000207006F09AF9A8B1FDF7C2F918B928464E
:10322000FFF7F4FD2070207801280BD0606848B9C2
:103230000648D0E90010CDE900100021684606F0EC
:103240009EF9606020787CBD5C000020A0E1000851
:1032500010B5124888B014460078C00702D0032089
:1032600008B010BDC1B1012905D0022908D0032939
:103270000CD00420F4E76846FDF780F906980AE0D0
:103280006846FDF77BF90798208005E06846FDF762
:1032900075F90798400A20600020E1E75C000020F3
:1032A0002DE9FE4F47F23059984617468A460125C8
:1032B0004846FFF7BBFD00283BDB1F4E5FEA8A70E4
:1032C00003D0CB460024B1462DE042463946504655
:1032D000FDF780F968BB4A466846716806F054F904
:1032E000DDE90001102824D1012921D021E039464F
:1032F0007F1C01221148FDF76DF9060015D15A46D1
:103300006846D9F8041006F03FF9DDE900101029ED
:1033100008D1012806D1420208495046FCF7E1FFD6
:103320000AF5007A641C4445E1D3444501D106B94D
:1033300000252846BDE8FE8F5C00002060BA012011
:10334000FFF764BD2DE9FE4F47F230569846174609
:103350008A4601253046FFF769FD002848DBDFF883
:1033600098905FEA8A7002D00024B3463AE0424661
:1033700039465046FDF746F9D0BB32466846D9F883
:10338000041006F001F9DDE90010102930D10228FF
:103390002ED106F0E8F8841903E000BFFDF7F4F839
:1033A00028B306F0E0F8A042F8D321E039467F1CAC
:1033B00001221248FDF726F9060015D15A46684643
:1033C000D9F8041006F0E0F8DDE90001102808D172
:1033D000022906D1420109495046FCF782FF0AF54D
:1033E000007A641C4445E1D3444501D106B9002567
:1033F0002846BDE8FE8F00005C00002060BA012076
:1034000038B504461248134B0068B0FBF3F04FF494
:103410007A73584300906068B0F5827F0DD10B46F7
:10342000009200228021204600F016F870B1606DF5
:1034300040F020006065032038BD009830B1401E88
:10344000009020688068C0430006F6D5002038BD93
:10345000A400002000366E012DE9F8431E46914677
:1034600088460446089DFDF7ADFC401B351AFDF764
:10347000A9FC074625480068C0F3CB30684338E014
:10348000701C37D0FDF79EFCC01BA84203D215B1BB
:10349000009860B32CE02068416821F0E0014160B1
:1034A0006068B0F5827F0BD1A068B0F5004F02D004
:1034B000B0F5806F04D12068016821F040010160FF
:1034C000A06AB0F5005F09D12068016821F40051BD
:1034D00001602068016841F400510160012084F816
:1034E0005100002084F850000320BDE8F883002537
:1034F000401E00902068816838EA010004D0002155
:103500004945BDD10020F0E70121F9E7A4000020E2
:103510000EB5FEF7E3FF06F07DFEA82000F024FEC6
:1035200005F006F9374838A182883A4800F070FA69
:103530003A493948097830F8110002F03FFC20215F
:1035400037A0CDE900100B464FF478440A21DC2265
:103550000294084605F03DFC182133A0CDE9001087
:103560000B46DC2202942F210A2005F032FC1025A4
:1035700030A00095CDE901042B46DC224C210A2025
:1035800005F027FC2FA00095CDE901041023C822E7
:103590006C211E2005F01DFC05F03EFE05F098FE96
:1035A000044601462EA000F023FA324A32A13348E5
:1035B00000F02EFA4FF4FA754FF6FF760BE030A0CC
:1035C00000F016FA2846FDF7ACFA33A000F010FA26
:1035D0002846FDF7A6FA002CF1D0B442EFD002F055
:1035E000F3FA31490120CDE90001020200232FA1A5
:1035F000314807F0FBFB06F02DFE642005F09EFF2E
:10360000FBE70000200100204C43442049443A25B8
:103610003034580054BA01202E000020460000200B
:1036200053544D33320000004D656D204D616E6185
:103630006765000041544F4D40414C49454E54454B
:103640004B0000004672656552544F5320776974F1
:10365000682046415446532054657374210000008D
:103660006E6F72666C6173682069642069732025CF
:10367000640A0000A8E1000825730000D8C00120FA
:10368000464C41534820436865636B204661696C32
:103690006564210A00000000506C65617365204379
:1036A0006865636B21200A0088000020666D6F75D5
:1036B000745F6469736B73009157000810B55020F4
:1036C00080F31188BFF34F8FBFF36F8F07F0D6FBE6
:1036D00018B104494FF080500860002080F3118831
:1036E00010BD000004ED00E030B593B03021684615
:1036F000FCF710FE14210CA8FCF70CFE1A4800255C
:10370000016841F080510160006800F08050119024
:103710001648016841F4804101600068022400F409
:103720008040119001200090000401908001CDE9BB
:103730000640082008904FF4A870CDE9090407203E
:103740000B906846FDF706FD0CA90F2081E83100BB
:103750004FF4A0500F90E002109005210CA8FDF747
:10376000EFFB13B030BD0000403802400070004055
:103770000248016841F470010160704788ED00E083
:103780000148FEF764BD000068C30120F0B502687F
:10379000254C264D264E274F274B4FF0804CA042FC
:1037A00009D0604507D0A84205D0B04203D0B84246
:1037B00001D0984204D122F0700E4A6842EA0E020B
:1037C000A0421BD0604519D0A84217D0B04215D0F6
:1037D000B84213D0984211D0184DA8420ED0184DBF
:1037E000A8420BD0174DA84208D0174DA84205D0CB
:1037F000164DA84202D0164DA84203D122F44075BE
:10380000CA682A434D6922F080022A4302608A680E
:10381000C2620A688262A04201D0984201D109695D
:10382000016301214161F0BD00000140000400403E
:1038300000080040000C004000040140004001402E
:10384000004401400048014000180040001C0040B6
:103850000020004070B5044600680169E26821F468
:103860004051114301612169A068E269084361691F
:10387000114308432168CA6849F20C639A43024322
:10388000CA6020684169A26921F440711143416115
:1038900031492068884202D03049884202D1FDF780
:1038A00019FC01E0FDF706FCE269002319216425FB
:1038B0003226B2F5004F626828D0A0FB0101930FB9
:1038C0009200FCF7DDFC0146B0FBF5F06FF018024A
:1038D000504301EB800006EB0010B0FBF5F000F068
:1038E000F002B1FBF5F002EB0012B1FBF5F06FF066
:1038F0001803584301EB800006EB0010B0FBF5F015
:1039000000F00F0021681044886070BDA0FB010129
:1039100092185B41FCF7B4FC0146B0FBF5F00201E4
:10392000B1FBF5F06FF01803584301EB800006EB94
:10393000C000B0FBF5F000F0F80002EB4002B1FB74
:10394000F5F0584301EB800006EBC000B0FBF5F04A
:1039500000F00700D6E7000000100140001401400D
:1039600010B505F059FC002010BD81B101290BD024
:10397000022903D0032904D0042070474FF40070BB
:1039800000E00820108002E04FF4C04010600020EA
:1039900070472DE9F0411C0015460E460CD04FF43F
:1039A000007769023A46304605F06AFC641E05F16C
:1039B000010506F50076F4D10020BDE8F081002075
:1039C00070472DE9F0411C0015460E460CD04FF40F
:1039D000007769023A46304605F0E6FC641E05F1C0
:1039E000010506F50076F4D10020BDE8F081FEE780
:1039F0000FB4054B10B503A9044A029800F03CF837
:103A000010BC5DF814FB00003D5A00081C010020AA
:103A10000FB4084B10B504A902AA039800F02CF8C3
:103A2000044602A9002000F058FA204610BC5DF8B8
:103A300014FB0000DB3E00080907090E002804DB28
:103A400000F1E02080F80014704700F00F0000F152
:103A5000E02080F8141D704702E008C8121F08C15A
:103A6000002AFAD170477047002001E001C1121FFF
:103A7000002AFBD1704700002DE9FF4F8DB00F46A3
:103A80000546002606E025280BD0DDE90F129047F9
:103A90006D1C761C28780028F5D111B03046BDE8A1
:103AA000F08F0024A246A1460122EC4900E0044325
:103AB00015F8013F203B02FA03F00842F7D12878BD
:103AC0002A2810D06FF02F022878A0F130010929A0
:103AD00014D80AEB8A0102EB410144F0020400EB26
:103AE000010A6D1CF0E701CF5FEA000A03D544F438
:103AF0000054CAF1000A44F002046D1C28782E28F4
:103B000017D115F8010F44F004042A280ED06FF0E5
:103B10002F022878A0F1300109290AD809EB890180
:103B200002EB410100EB01096D1CF2E757F8049B21
:103B30006D1C28786C280FD006DC4C2817D068281C
:103B40000DD06A2814D104E0742810D07A280FD13F
:103B50000DE044F400140AE044F4801401E044F45D
:103B600040146978814202D104F580146D1C6D1CEB
:103B70002A786E2A1FD00CDC632A31D004DC002A9C
:103B80008BD0582A11D1A3E0642A68D0692A0CD1BD
:103B900065E0732A2ED004DC6F2A73D0702A04D11A
:103BA0009BE0752A6FD0782A6ED01046DDE90F129F
:103BB0009047761C50E1C4F30250022806D0032837
:103BC00009D0042801CF09D0066045E101CFF117E3
:103BD000C0E9006140E101CF06803DE106703BE1B4
:103BE00017F8040B8DF8000000208DF80100EB465B
:103BF000012003E057F804BB4FF0FF3061074FF09E
:103C0000000102D40DE008F10101884649450FDAB0
:103C10008045F8DB1BF808100029F4D108E008F112
:103C2000010188468142FADB1BF808100029F6D111
:103C3000DDE90F23AAEB08008146214600F036F9A2
:103C4000304400EB080604E0DDE90F121BF8010B1D
:103C50009047B8F10108F7D221464846F7E00A211B
:103C6000C4F302534FF0000B0891022B04D001CF94
:103C7000C117032B09D00AE0FF1D27F00707F7E85B
:103C8000020108E032E01FE020E000B2C117042B7F
:103C900001D140B2C117031E71F1000307DA4FF0E2
:103CA000000CD0EB0C006CEB01012D2302E023058E
:103CB00004D52B238DF82430012303E0E30701D042
:103CC0002023F7E7984658E00A2110E010210EE083
:103CD00010204FF0000B08900CE010214FF0000B6B
:103CE00044F004044FF00809089103E008214FF064
:103CF000000B0891C4F30253022B04D001CF002122
:103D0000032B06D006E0FF1D27F00707F7E80201A6
:103D100003E080B2042B00D1C0B24FF000082307AB
:103D20002BD5702A07D0DDF820C08CF0100C5CEA8F
:103D30000B0C05D00EE040238DF82430012308E061
:103D400050EA010306D030238DF824308DF8252069
:103D500002239846DDF820C08CF0080C5CEA0B0CBE
:103D60000BD150EA010301D1630706D530238DF84A
:103D700024304FF00108A9F10109582A04D038A2D3
:103D80000B9208AA0A920BE03AA2F9E75B46089A5E
:103D9000FCF776FA0B9B9B5C0A9A521E0A921370F0
:103DA00050EA0102F2D10A98ADEB000000F1200BBD
:103DB000600702D524F4803401E04FF00109D945B1
:103DC00002DDA9EB0B0000E0002000EB0B014144F9
:103DD0000890AAEB010AE00306D4DDE90F2321468F
:103DE000504600F063F806444FF0000908E009A9C6
:103DF00011F80900DDE90F12904709F10109761C5D
:103E0000C145F4DBE0030CD5DDE90F232146504624
:103E100000F04CF8064404E0DDE90F123020904732
:103E2000761C0899481E08900029F5DC08E00A98DD
:103E30000A990078491C0A91DDE90F129047761C17
:103E4000BBF10001ABF1010BF1DC21465046DDE98D
:103E50000F2300F019F806446D1C1BE60928010029
:103E600030313233343536373839616263646566F0
:103E700000000000303132333435363738394142B2
:103E800043444546000000002DE9F041044600256A
:103E90001E461746880404D405E039462020B04762
:103EA0006D1C641EF9D52846BDE8F0812DE9F0416E
:103EB000044600251E469046C80301D5302700E081
:103EC0002027880404D505E041463846B0476D1CDC
:103ED000641EF9D52846BDE8F0810A68531C0B60C2
:103EE000107070472DE9F05F0746406B891E00EBAC
:103EF0001135C1F3C80601F007014FF0010B0BFAB1
:103F000001F09A469146C4B229466D1C384605F028
:103F1000F6F810B10120BDE8F09F5A464FF4007347
:103F2000B91991F83C00204202D04FF0010801E09D
:103F30004FF00008D04501D10220ECE7604081F845
:103F40003C00B9F10100FA708146E4D0600010F045
:103F5000FF04E5D10124761C9E42E1D30026D3E77D
:103F600010B504460020E070401EA063204605F016
:103F7000C6F808B1042010BD04F23A2004F0DAFFBC
:103F8000A0F52A41553901D0032010BD94F83C001A
:103F9000E92805D0EB2814D194F83E00902810D1E0
:103FA00004F1720004F090FF0B49B1EB002F06D032
:103FB00004F18E0004F088FF0849884201D10020F6
:103FC00010BD0B2206A104F13C0005F07BF808B1FE
:103FD000022010BD012010BD00464154464154331B
:103FE000EB769045584641542020200000E0401CCC
:103FF00002780AB18A42FAD1D0B2704730B50021B6
:10400000054B0C4603EB01121568854200D1146084
:10401000491C0229F6D330BDE0C40120026A891E82
:10402000921E8A4201D800207047426B408901FBF2
:10403000002070472DE9F04706685FEA010807464F
:1040400026D04146384601F001FD022841D3411CEB
:104050001CD0316A814219D8454630784FF0FF397B
:1040600004281CD02C46306A641CA04202D80224CA
:10407000022D0AD32146384601F0E8FC80B301281E
:1040800004D0411C02D0AC42EDD10020BDE8F08745
:10409000B56915B1306AA842DFD80125DDE70122F4
:1040A0002946304601F077F904004BD0601C49D016
:1040B00001231A4621463046FFF714FF022808D094
:1040C000012808D0B8F1000F07D0F979022908D0EB
:1040D0000FE00120DAE74846D8E70221F9712DE028
:1040E0001EE0691C8C4229D0B968691AB9610321A4
:1040F000F97108F101018C4206D1F96909B1491C35
:1041000000E00221F96119E0F869012500B9FD61BB
:1041100022464146384601F025F980B9FD6113E099
:104120004A462146304605F070FD40B9B8F100001E
:104130000AD001462246304605F067FD20B101282D
:104140000FD001242046A1E7B461D6E90701891EFA
:10415000884201D8401EF061307940F00100307192
:10416000F0E74C46EEE700000149086070470000A8
:10417000000000204FF47A71484300F001B80000BD
:1041800070B54FF0E024002265690949A369096808
:104190004843A1699942FCD002D2A3EB010302E09B
:1041A000A5EB010633441A440B468242F1D370BD9D
:1041B000000000202DE9F0410F460446002106686A
:1041C00000F01AF9E8B900253046A16B04F097FF1A
:1041D000B8B931780429E16B097803D0E52905D015
:1041E00021B107E041F3C011491C03D06D1CBD4251
:1041F0000AD000E000250121204600F007F8002841
:10420000E2D0042800D10720BDE8F0812DE9F04775
:104210000546076B0468806B8946203730B12178EA
:10422000042906D04FF40011B94205D80420BDE896
:10423000F0874FF08051F7E7F90563D1401CA86380
:10424000696B4FF0000829B16089401E10EA572FB2
:1042500005D057E02089B0EB571F21D952E02846FE
:1042600001F0F4FB064601281FD9701C36D0206AE5
:10427000B04241D8B9F1000F12D02846696BFFF760
:10428000D9FE06000FD0012E0FD0701C26D0E87981
:1042900040F00400E871204605F0E6FEF0B906E0C3
:1042A000C5F83880C2E70720C1E70220BFE74FF416
:1042B0000072002104F13C0004F01AFF4FF00008E6
:1042C00031462046FFF7AAFE4FF00109A0630CE03B
:1042D00084F80390204605F0C7FE08B10120A6E748
:1042E000A06B08F10108401CA06361894145EFD82B
:1042F000A16BA1EB0800A063314620466E63FFF777
:104300008DFEA863C7F3080020443C302F63E863A8
:1043100000208CE72DE9F0470426FF248946054656
:10432000A04607685FE0384604F0E9FE06005ED16B
:10433000E96B087898B13A78042A12D0CA7AE5284D
:1043400002F03F02AA7108D02E2806D022F02003E6
:10435000082B1BD0B446CC451BD0FF2433E00426E9
:1043600045E0B9F1000F02D0832842D02BE0852828
:1043700029D1286BE864284604F0E1FD060036D117
:104380003869007900F03F00A87132E04FF0010C6D
:10439000E1E70F2A01D014BB1CE0420606D591F8D4
:1043A0000D8000F0BF002A6B0446EA64A04208D1E9
:1043B0004A7B424505D1F86805F0F0F908B1641E62
:1043C00000E0FF24E4B200212846FFF71FFF0600AB
:1043D00009D00CE0084605F0F5FD404509D04FF046
:1043E000FF30E86405E0A96B00299CD10EB10020E4
:1043F000A8633046BDE8F0872DE9F0410668054620
:104400000F463078042806D04FF40010B8423CD94B
:10441000F8063AD102E04FF08050F7E72F63AC681E
:1044200034B93078032807D30020346BE8711CB10D
:1044300070894FEA402812E03089B0EB571F24D929
:10444000306B12E0284601F001FB0446401C1AD0F4
:10445000022C1AD3306AA04217D9A7EB08074745A8
:104460002146EFD23046FFF7D9FDC5E90D4060B1D6
:1044700000EB5720A863C7F3080030443C30E863E2
:104480000020BDE8F0810120FBE70220F9E70000F1
:10449000084910B50B5C002253B901220A540A18CE
:1044A00001EB8000127B4068016810468847024695
:1044B000104610BD00C5012030B4054C231804EB94
:1044C00080001B7B406804691846A44630BC6047E6
:1044D00000C5012030B4054D2C1805EB8000247B6D
:1044E000406885682046AC4630BC604700C5012066
:1044F000044A111802EB8000097B406842680846B4
:104500001047000000C5012030B4054D2C1805EB04
:104510008000247B4068C5682046AC4630BC6047BC
:1045200000C501202DE9FF4FA1B01E46144621A869
:10453000DDF8B88001F023FB002803DA0B2025B05A
:10454000BDE8F08FFE4951F8201009B100220A7031
:10455000C0B20490FFF79CFFC10701D00320EEE733
:10456000400701D50A20EAE716AA03210498FFF7BD
:10457000A3FF38B9169828B1B0F5004F02D8411EF4
:10458000084201D0012016904FF400772CB1B4F509
:10459000007F46D3B4F1807F43D8601E044240D1EF
:1045A000B8FBF7FAB4FBF7F55FEA4A203446079008
:1045B0007DD012AA01210498FFF77EFF002877D151
:1045C000229800076FEAA0104FEA906B12985845A6
:1045D0006DD3A0EB0B0012908028F9D322994A07E3
:1045E00001F0070108D54FF0806204291BD09042EA
:1045F00019D2802D17D801E0802D12D8229A4FF6BB
:10460000F573920740F6F57E05D502297ED02299F2
:10461000C907FBD002E02299C90702D04FF0020976
:104620002CE313208BE7B0F5805FD1D33DB908258B
:10463000B0F5002F03D34025904200D3AD000BF11D
:1046400020011491B0FBF5F1890001F20721B1FBC3
:10465000F7F2149903920A4416990A44491E521E0D
:104660008A431592B2EB500F21D2A2EB0B01401AF4
:10467000B0FBF5F01E910A901028A9D3B1498842E9
:1046800015D8C01DC0080690401E05FB0700690232
:10469000B0FBF1F015991B9005FB00100290002073
:1046A000CDE90C000646B0460B900F900BE0DBE224
:1046B000D6E00F9838B101282DD00C981FFA80F958
:1046C000304486B22EE0304600F00CFE8146B04207
:1046D00002D0761CB6B227E0012001E00C98401C05
:1046E00006EB00090C901FFA89F0002808D01FFA89
:1046F00089F000F0F7FD01461FFA89F08142EDD004
:104700000C98802805D34FF6FF7900E0BCE2022028
:1047100009E001200F90B146761C0C98B6B2401EFD
:104720000C9001D100200F9009F0FF0004F8080060
:104730000D9906F051FD04EB08014FEA19224A7069
:104740000146104606F048FD0D900B9808F102084E
:10475000801C0B9016B107998845AAD108EB070079
:10476000401EB0FBF7F0804603462146029A0498AB
:10477000FFF7CAFE002873D10298002E40444FF084
:104780000008029095D10B98401E05FB070105FB20
:1047900007F0B1FBF0F01C9001201D9015980290DD
:1047A00006983844401EB0FBF7F8DDE91B014618B7
:1047B000761C00212046079A04F09AFC0020FF2175
:1047C00002E02154401C083E082E02D3079A904272
:1047D000F7D3012105E0225C0A434906090E225461
:1047E000761E16B1079A9042F5D341465046D04501
:1047F00000D80846814603462146029A0498FFF7EE
:1048000083FE0028B7D1029848440290A8EB090023
:104810005FEA0008CDD114980290C1460398CDF804
:104820003090C846119000212046079A04F060FCA1
:104830000026B9F1000F1ED120466FF0070105F0E8
:10484000B5FB201D711E05F0B1FB08264FF00209D3
:1048500011E000BFB8F1010F03D909F1010102E035
:1048600090E14FF0FF31A01905F0A0FB361D09F1D2
:104870000109A8F10108B8F1000F03D007998E4291
:10488000E8D30CE00C9803280CD20C991BA850F824
:1048900021005FEA000801F101000C9002D00799A5
:1048A0008E42E8D311995046514501D9064600E0A1
:1048B0000E4633462146029A0498FFF725FE00284B
:1048C000A0D10298304402901198801B1190AAD177
:1048D00000212046079A04F00BFC832020708120E1
:1048E00084F82000022104F1340005F05FFB04F19C
:1048F0003800069905F05AFB822084F8400004F144
:1049000044000D9905F052FB1B9904F15400891CD9
:104910000F9005F04BFB04F158000B99189005F02F
:1049200045FBDDE91B01014415982E4605FB0109F5
:104930005046564500D83046804603464A4603E076
:1049400014010020FDFFFF7F21460498FFF7DCFDE6
:104950000028B5D13A460021204604F0C9FBC144E5
:10496000B6EB0806E4D10020019004F14000069067
:1049700008301499D8461390A1EB08001F9004F159
:10498000500019900C300B90001D1590001D1090D8
:10499000001D1A903A460021204604F0A9FB0B2284
:1049A000F9A1204604F09BFB5946069805F0FEFA53
:1049B000DDE9121005F0FAFA1F99199805F0F6FAD8
:1049C00003990F9805F0F2FA1E99189805F0EEFA7F
:1049D000DDE90A1005F0EAFADDE91B010144891C52
:1049E000159805F0E3FA01F0C8F80146109805F0B3
:1049F000DDFA4FF480711A9805F0E0FA002184F88E
:104A00006C10384605E000BF94F86C20521C84F806
:104A10006C204008F8D184F86D102E4605E000BFE8
:104A200094F86D00401C84F86D007608F8D10120E0
:104A300084F86E00802084F86F004FF6EB6104F17B
:104A4000780005F0BBFA4AF65529494604F5FF708F
:104A500005F0B4FAB24605E06A2E1AD06B2E16D0D5
:104A6000702E12D0A05D514606F0B6FB761C824631
:104A7000BE42F1D3424608F10108012321460498C1
:104A8000FFF742FD00287DD105E07126EAE76C269C
:104A9000E2E76B26E0E73A460021204604F028FBD7
:104AA000E0194946801E05F089FA4FF001090026F9
:104AB0005146A05D761C06F08FFB8246BE42F7D3BE
:104AC000424608F10108012321460498FFF71CFD26
:104AD0000028D8D109F10109B9F1090FE7D33A4605
:104AE0000021204604F004FB13E0A05D5146761C33
:104AF00006F072FB8246BE42F7D3424608F1010837
:104B0000012321460498FFF7FFFC0028BBD109F1DF
:104B10000109B9F10B0F4FF00006E6D3A019514679
:104B200005F044FA361DBE42F8D3424608F10108AA
:104B3000012321460498FFF7E7FC0028A3D1019840
:104B4000401C01900228FFF425AFF2E12E000DD1A8
:104B500000214FEA50480126DFF838C201E0760014
:104B6000491C3CF811200AB14245F8D9B0FBF6F1D6
:104B700007EB8102D21DB2FBF7F82022029200223D
:104B80000D9200E03DE199426ED9834A91426BD883
:104B90002AE000BF7F4A002101264FEA10380E3A72
:104BA00001E07600491C32F811C0BCF1000F01D0C1
:104BB000C445F6D9B0FBF6F1714503D9042202EBE6
:104BC000410107E001EB41010322491C4FF00109BB
:104BD00002EB51013944491EB1FBF7F80121029162
:104BE0008903B1FBF7F10D91029A0BEB020101EB86
:104BF000080214910D991144169A01EB020C521EF1
:104C0000ACF1010C2CEA020CACEB0102B9F1030F80
:104C100019D0904401EB0612A2EB0B01814242D85D
:104C20000299421A0D99A2EB0802511AB1FBF6F152
:104C30000A91B9F1030F10D0B9F1020F15D0B9F1F3
:104C4000010F2DD031E0DDF808C09444CDF808C044
:104C5000DDF850C062441492DCE70A99994224D8E6
:104C600015B975087FF472AF1DE00A99994212D9FF
:104C70003DB94021B1EB460F03D375002E0099D109
:104C800088E72299890708D54FF003095EE7750088
:104C9000802DF3D907E0714507D8002DF7D002E049
:104CA0000A98704501D90E2049E43A460021204671
:104CB00004F01EFA0B2239A1204604F010FA3946FE
:104CC00004F10B0005F07AF96673029881B204F1E1
:104CD0000E0005F073F901202074B9F1030F0FD015
:104CE0005FEA402104F1110005F068F91299B1F56D
:104CF000803F07D289B204F1130005F05FF905E0A7
:104D00000021EFE704F1200005F050F9F82060756C
:104D10003F2104F1180005F051F9FF2104F11A00B8
:104D200005F04CF9594604F11C0005F03FF929251E
:104D3000B9F1030F42D000F020FF014604F1270033
:104D400005F034F91FFA88F104F1160005F036F980
:104D5000802084F8240084F82650132212A104F144
:104D60002B0000BF04F0BBF94AF6552504F5FF708F
:104D70002946019005F022F901235A46214604985C
:104D8000FFF7C2FBE8BB40E0EB7690455846415444
:104D90002020200018E20008F5FFFF0FEBFE904DE9
:104DA00053444F53352E30004E4F204E414D452039
:104DB00020202046415420202020200000F0DDFE4D
:104DC000014604F1430005F0F1F8414604F12400E6
:104DD00005F0ECF8022104F12C0005F0E7F80121C0
:104DE00004F1300005F0EAF8062104F1320005F084
:104DF000E5F8802084F8400084F84250132272A124
:104E000000E095E004F14700ACE7B9F1030F31D1C0
:104E100001230BF1060221460498FFF775FB3A4681
:104E20000021204604F064F96C49204605F0BEF8E4
:104E30006B4904F5F27005F0B9F80A9904F5F470BD
:104E4000491E05F0B3F8022104F5F67005F0AEF83E
:104E50002946019805F0B2F801230BF1070221461B
:104E60000498FFF751FB01230BF10102214604983E
:104E7000FFF74AFB00212046079A04F039F91498FD
:104E80000290B9F1030F15D0B9F1010F21D06FF0E5
:104E90000701204605F08AF845465046554500D89A
:104EA0002846804603462146029A0498FFF72CFBC9
:104EB000F0BB10E06FF00701204605F077F84FF0E7
:104EC000FF31201D05F072F86FF0704104F1080009
:104ED000E0E74449DDE73A460021204604F008F9BE
:104EE0000298B5EB080540440290D6D1B9F1030F02
:104EF00000D00D9E5046564501D9054600E0354686
:104F00002B462146029A0498FFF7FEFA80B90298D0
:104F1000761B28440290EDD1B9F1040F09D0B9F104
:104F2000030F08D01298B0F5803F06D3062608E09C
:104F300048E0072605E00C2603E0B9F1020F37D060
:104F400001262298000735D43A460021204604F075
:104F5000CFF84AF6552104F5FF7005F02FF804F557
:104F6000DF750021297001206870A870E9702E712A
:104F700012990BEB010043F6C161B0FBF1F0FE2189
:104F800069713F2141EA9001A971E871594605F123
:104F9000080005F00BF805F10C00129905F006F871
:104FA0000123002221460498FFF7AEFA50B901E030
:104FB0000426C6E7002211460498FFF77DFA002870
:104FC0003FF472AE01206FE64E4F204E414D45201A
:104FD000202020464154333220202000525261418B
:104FE00072724161F8FFFF002DE9F74181B09046F0
:104FF00002980090684600F0C2FD040003D50B2023
:1050000004B0BDE8F081164E002756F824503DB19B
:105010002846FEF7F3FF686900F053F988B12F7056
:10502000019929B101F8147BE0B200F03DF940B1DB
:10503000019846F8240010B1B8F1010F03D0002008
:10504000DEE70220DCE7002201A902A800F0ECF96B
:1050500004460146019805F030F82046D0E70000EC
:10506000140100202DE9F143A0B0022203A920A8D9
:1050700000F0DAF9040007D00146039805F01DF8A6
:10508000204621B0BDE8F0830399002404912098C4
:1050900000E0641C025D202AFBD209784FF0000872
:1050A0000DF1640904292FD100252E4627E0209A0E
:1050B000505D6D1CA0F181017D290ED8A5420BD257
:1050C000515DA1F140023E2A02D9403A7E2A03D81E
:1050D00041EA00206D1C00E00020012100F0BEF834
:1050E00007006BD001465C48FEF780FFF0BB162E30
:1050F00064D009EB0600394604F060FFB61CA542F7
:10510000D5D3344651E0641E8CB3011911F8011C4B
:105110002029F8D000258DF864802E46209A905DD5
:10512000761CA0F181017D2910D80A2D0DD2A6424E
:105130000BD2915DA1F140023E2A02D9403A7E2A6B
:1051400003D841EA0020761C00E00020012100F095
:1051500085F800F0C7F8002100F080F807002DD096
:1051600001463D48FEF742FF00B901E026E01CE0A1
:10517000FF2F01D90A2000E00B20A8421ED9FF2FE3
:1051800003D9390A09F805106D1C484609F805705D
:105190006D1CA642C2D320210B2D02D241556D1C9D
:1051A000FAE79DF86400E52808D0002104A8CDF8AE
:1051B0001880FFF721F9050006D02CE0062103989E
:1051C00004F07BFF06205CE7012104A8FFF7A2F8AA
:1051D00005004FF0010602D0042D22D01BE00398F9
:1051E0000078042807D074B10B2219A9DDF84C000F
:1051F00003F075FF0AE0139960082246487013987F
:1052000019A9801CF4E71399E52008700398C6706B
:1052100004F0E6FE05462946039804F04EFF2846B2
:105220002FE70025002CF6D0012104A8FEF7C2FFCD
:105230000500F0D120220021139803F059FF0398B4
:105240000078042803D013990820C872CCE713987B
:1052500083210170CFE70000F9E1000870B58028D4
:105260001BD345F2205309B10D4D00E00D4D002137
:1052700010245A1A02EBD27201EB620235F8226056
:10528000864206D001D2114600E01346641EF0D1DA
:1052900004E01CB105EB8200408870BD002070BDA9
:1052A000AA36020826E2000838B500200C46009015
:1052B0000121684604F0E0F92060002800D00120B8
:1052C00038BD10B504F0EBF9012010BD04F0F4B9BD
:1052D00010B500244FF47A7104F016FA00B90124D5
:1052E000204610BD30B5B0F5805F01D21B4900E00B
:1052F0001B4931F8022B002A15D0904213D331F804
:10530000024B230AE5B252FA84F4844221D9092BD4
:1053100009D2DFE803F005090E11131517191B0058
:10532000801A31F8100030BD811A01F00101401AD5
:1053300000E0103880B230BD2038FBE73038F9E7A4
:105340001A38F7E70830F5E75038F3E7A0F5E350EF
:10535000F0E7002BCDD101EB4501CAE72E8B030806
:10536000208D030870B5044616460D46C0690FE04F
:10537000012802D92A1A921C00E03246291A491C37
:10538000206804F042FC002804D1E069401EE0617E
:105390000028EDD170BD2DE9F0470646006A8D1E4C
:1053A000801E9146A84200D800252C46A84600271A
:1053B0004FF4007A706B00EB1431304603F09FFE1F
:1053C00018B14FF0FF30BDE8F08704F0070201206C
:1053D0009040326AC4F3C801C0B25346921E06EB35
:1053E000010C641C9CF83CC00CEA000C4006000E4A
:1053F000944202D3002420461946BCF1000F05D088
:10540000A0460027AC4207D10020DCE77F1C4F45B7
:10541000F8D108F10200D6E70028E0D10120491CAC
:105420009942DCD3C6E700002DE9FF5F00279046D4
:105430000E460F6000F0A3FB050003D50B2004B05F
:10544000BDE8F09FCE4850F82540BCB1204603F09F
:10545000DAFDA8B13460207808F0FE0620B160784B
:10546000FFF746F8C1070DD02770E8B2B846607064
:10547000FFF70EF8C1070AD00320E0E70C20DEE7B3
:105480000F20DCE70EB1400704D40020D7E71EB19F
:10549000400701D50A20D2E7002529462046FEF71D
:1054A0005FFD022820D16F4604EB051090F8FE1135
:1054B00000F5FD7019B1083003F006FD00E0002092
:1054C00047F825006D1C042DEED3002657F8265012
:1054D00035B129462046FEF743FD022801D203E0FC
:1054E0000320761C042EF1D304287AD002287AD225
:1054F0004FF0FF3A4FF4007601280CD004F147003A
:1055000003F018FDB0426ED104F1520003F012FD19
:10551000002869D084E00B2002E0401C402806D21D
:10552000211891F83C100029F7D040285BD304F1F2
:10553000A40003F0FFFCB0F5807F54D194F8A800DC
:10554000012707FA00F0B34658454CD104F1840016
:1055500003F0C5FCC14610EB050841EB0906012E1E
:1055600041D204F1900003F0AFFC606294F8AA000D
:10557000A070012837D194F8A90087403804000CA6
:10558000608130D004F1980003F09EFC7D4907460D
:10559000884228D8B81CA562206204F1940003F068
:1055A00093FC2844606304F18C0003F08DFC2844D4
:1055B000E0626189626B7943521849EB0900B8EBEC
:1055C000020186410FD304F19C0003F07DFC0146EB
:1055D00020632046FEF722FD0146204603F08FFDA2
:1055E00018B101202BE767E016E000255E46601940
:1055F00090F83C10812904D1503003F065FC02285A
:1056000002D02035B542F2D3B54263D0C4F81CA015
:105610000427C4F818A0A7E004F1600003F054FCCC
:10562000606294F84C60A670012E01D0022E51D118
:10563000464394F849006081F0B3411E084249D1C5
:1056400004F14D0003F076FC2081000742D104F103
:105650004F0003F06FFC070004D104F15C0003F07D
:1056600033FC074604F14A0003F064FC010031D02A
:105670002389881900EB131297422BD3B81A678934
:10568000B0FBF7F0C0B103274FF6F57C604500D8BA
:10569000022740F6F57C604500D80127801C2A448B
:1056A000626329442062C4E90A51032F14D01BB15C
:1056B00031442163022F00E00CE01ED000F0010114
:1056C00000EB400001EB5000616A00F2FF10B1EB0B
:1056D000502F14D20D20B2E604F1660003F02AFC2C
:1056E0000028F7D120890028F4D104F1680003F0E4
:1056F000EBFB2063206A8000E6E74000E4E7C4F8A3
:105700001CA08020C4F818A02071032F2CD104F114
:105710006C0003F00FFC012826D1691C204603F021
:10572000EEFC08BB84F8048004F23A2003F002FC8B
:10573000A0F52A41553917D104F13C0003F0C4FB10
:105740001149884210D104F5087003F0BDFB0F49E0
:10575000884209D104F5097003F0B6FBE06104F555
:105760000A7003F0B1FBA06105482770001F018893
:10577000491C0180E1802046FEF740FC85E60000E0
:1057800014010020FDFFFF7F52526141727241619E
:105790002DE9F047ADF5047D4FF40076314603A8BE
:1057A000FAF7B8FD01224FA14F48FFF71DFC07464D
:1057B00001464EA0FEF71CF91F244FF496784FF4D3
:1057C00078494FF47A7A102517B10D2F0BD02FE0BE
:1057D0004BA00095CDE901041023C82241461E20AC
:1057E00003F0F7FA24E04DA0FEF702F94FA0009570
:1057F000CDE901041023C822474641461E2003F08C
:10580000E8FA002203AB114636A00096FEF78AFEA6
:10581000002846D04BA1CDE900511023C822CDF875
:10582000089039461E2003F0D4FA5046FEF7A2FC39
:1058300001224AA14A48FFF7D7FB0746014649A083
:10584000FEF7D6F84FF4A678002F35D00D2F24D1CF
:105850004AA0FEF7CDF84EA00095CDE90104102333
:10586000C822474641461E2003F0B3FA002203AB8C
:1058700011463AA00096FEF755FE002827D04BA10E
:10588000CDE900511023C822CDF8089039461E20DA
:1058900003F09FFA5046FEF76DFC0DF5047DBDE860
:1058A000F08749A0FFF7DEFB4BA00095CDE901048E
:1058B0001023C8223946B5E74DA00095CDE9010473
:1058C0001023C82241461E2003F083FAE5E74FA0CB
:1058D000FFF7C8FB52A00095CDE901041023C822B0
:1058E0003946D4E7303A000060BC0120665F6D6F36
:1058F000756E74207364207265733A25750A000012
:105900005344204469736B204D6F756E742053753A
:10591000636365737365642100000000736420662F
:1059200073206572726F72210A0000005344204494
:1059300069736B20466F726D617474696E672E2E89
:105940002E0000005344204469736B20466F726D33
:105950006174204572726F7220000000313A0000BD
:105960009CBE0120665F6D6F756E7420666C6173FE
:1059700068207265733A25750A000000666C6173D1
:1059800068206673206572726F72210A0000000041
:10599000466C617368204469736B20466F726D6159
:1059A0007474696E672E2E2E00000000466C6173C1
:1059B00068204469736B20466F726D617420457274
:1059C000726F722000000000303A414C49454E543D
:1059D000454B5F53440000005344204469736B20DF
:1059E000466F726D61742046696E697368000000CD
:1059F000466C617368204469736B204D6F756E74DB
:105A0000205375636365737365642100313A414CBB
:105A100049454E54454B5F464C41534800000000F9
:105A2000466C617368204469736B20466F726D61C8
:105A3000742046696E6973680000000002490A68B4
:105A40001206FCD548607047001001402DE9F04176
:105A500006680C46024602296FD3306AA0426CD910
:105A600031784FF0FF35012909D002292CD0E80DFB
:105A700000EA8407032936D004297AD141E0F06A8C
:105A800004EB540700EB5721304603F038FB0028A5
:105A900070D1C7F3080030447F1C90F83C80F06A56
:105AA00000EB5721304603F02AFB48BBC7F3080040
:105AB000304490F83C1048EA0120E10701D0050984
:105AC00058E0C0F30B0555E0F06A00EB14213046B6
:105AD00003F015FBA0B9E0B206EB40003C3003F048
