:020000040800F2
:10000000580400209D010008730E0008450D0008EB
:10001000710E0008A902000821100008000000006D
:10002000000000000000000000000000770E000843
:10003000AB02000800000000750E0008790E0008F1
:10004000B7010008B7010008B7010008B7010008B0
:10005000B7010008B7010008B7010008B7010008A0
:10006000AD020008B3020008B9020008B701000899
:10007000B7010008B7010008B7010008B701000880
:10008000B7010008B7010008B7010008B701000870
:10009000B7010008B7010008B7010008B701000860
:1000A000B7010008B7010008B7010008B701000850
:1000B000B7010008B7010008B7010008B701000840
:1000C000B7010008B7010008B7010008B701000830
:1000D000B7010008B7010008B7010008B701000820
:1000E000B7010008B7010008B7010008B701000810
:1000F000B7010008B7010008B7010008B701000800
:10010000B7010008B7010008B7010008B7010008EF
:10011000B7010008B7010008B7010008B7010008DF
:10012000B7010008B7010008B7010008B7010008CF
:10013000B7010008B7010008B7010008B7010008BF
:10014000B7010008B7010008B7010008B7010008AF
:10015000B7010008B7010008B7010008B70100089F
:10016000B7010008B7010008B7010008B70100088F
:10017000B7010008B7010008B7010008000000003F
:10018000B7010008B7010008DFF80CD000F07AF8DA
:1001900000480047A5100008580400200648804782
:1001A00006480047FEE7FEE7FEE7FEE7FEE7FEE75C
:1001B000FEE7FEE7FEE7FEE7050F000889010008FD
:1001C0002DE9F05F0546002092469B46884606468C
:1001D000814640241BE0284641464746224600F01F
:1001E00041F853465A46C01A914110D31146184659
:1001F000224600F028F82D1A67EB01084F462246E8
:100200000120002100F01FF817EB00094E41201ECD
:10021000A4F10104DFDC484631462A464346BDE8E6
:10022000F09FD2B201E000F8012B491EFBD27047CB
:100230000022F6E710B513460A4604461946FFF7B2
:10024000F0FF204610BD202A04DB203A00FA02F11C
:10025000002070479140C2F1200320FA03F31943B4
:1002600090407047202A04DB203A21FA02F0002156
:10027000704721FA02F3D040C2F1200291400843B6
:1002800019467047064C074D06E0E06840F0010350
:1002900094E8070098471034AC42F6D3FFF778FF94
:1002A000D0100008F0100008FEE77047042000F0AE
:1002B00077B8082000F074B8102000F071B87047CB
:1002C00070B5044600F080F90546601C02D0044871
:1002D0000078044400F078F9401BA042FAD370BDC6
:1002E000000000202DE9F04105460A20FFF7E8FF55
:1002F0001D4C4FF400772615042D11D0082D06D083
:10030000102D2ED119A000F08DFE394603E01BA060
:1003100000F088FE31462046BDE8F04100F047B9C4
:100320001AA000F07FFE04211C4800F03BF90028D1
:1003300017D13946204600F03AF93146204600F000
:1003400036F9012215022946204600F038F93220FC
:10035000FFF7B6FF29462046BDE8F041002200F035
:100360002EB9BDE8F0810000001402404B45593021
:100370002070726573736564210A00004B45593122
:100380002070726573736564210A00004B45593211
:100390002070726573736564210A000000100240CA
:1003A000044910B50A68024202D00860FFF79AFFBC
:1003B00010BD0000143C01402DE9F84FDFF8B8A152
:1003C000002201250AF1040B03264FF00F090BF15F
:1003D000040E00BF0B6805FA02F42340A3426FD15C
:1003E0000F7907F00307012F01D0022F16D187687C
:1003F0004FEA420806FA08FC27EA0C07D1F80CC0BD
:100400000CFA08FC4CEA070CC0F808C04768A74380
:100410000C79C4F3001494403C4344600C79E443E9
:10042000A4070AD0C4684FEA420C06FA0CF7BC4392
:100430008F6807FA0CF72743C7600C7904F00304B0
:10044000022C12D1D40800EB840CDCF820405707B2
:10045000FF0E09FA07F824EA0804D1F8108008FA18
:1004600007F848EA0408CCF8208004684FEA420CF8
:1004700006FA0CF7BC430F7907F0030707FA0CF7ED
:10048000274307604C68E40070D53C4C276847F46C
:1004900080472760246822F0030704F48044009416
:1004A000374C07EB040CDCF8084897074FEA17783D
:1004B00009FA08F7BC43334FB84202D1002724E0C1
:1004C00054E0314FB84201D101271EE02F4FB8420E
:1004D00001D1022719E02E4FB84201D1032714E0C1
:1004E0002C4FB84201D104270FE02B4FB84201D165
:1004F00005270AE0294FB84201D1062705E0284F19
:10050000B84201D1072700E0082707FA08F7274378
:10051000CCF80878DAF800405746D1F804C09C437C
:100520005FEACC3C00D51C433C60DBF800405F46F2
:10053000D1F804C09C435FEA8C3C00D51C433C606E
:10054000DEF800407746D1F804C09C435FEACC2C2B
:1005500000D51C433C60084F0C373C68D1F804C000
:100560009C435FEA8C2C00D51C433C60521C102A33
:10057000FFF430AFBDE8F88F003C01404438024042
:100580000030014000000240000402400008024028
:10059000000C02400010024000140240001802400B
:1005A000001C02400069084000D0012070474269E9
:1005B00021EA02030A4043EA0241816170470AB11D
:1005C000816170470904FBE70148806870470000BB
:1005D0000000002002488168027811448160704761
:1005E000000000200B4810B5016841F40071016063
:1005F000016841F480610160016841F4807101602B
:10060000032000F071F8002000F006F800F024F854
:10061000002010BD003C024070B50D4D04464FF463
:100620007A712878B1FBF0F00A490968B1FBF0F063
:1006300000F00CFB48B9102C07D200222146501EB6
:1006400000F032F800206C6070BD012070BD000029
:10065000000000200C0000200B4882B0016841F42B
:1006600080410160006800F4804000900648001F4F
:10067000016841F080510160006800F080500090F6
:10068000052002B000F030B844380240002809DBF1
:1006900000F01F02012191404009800000F1E0209C
:1006A000C0F8001170470000F0B40E4B1B680C46F8
:1006B000C3F30223C3F10705042D00D90425191D36
:1006C000072901D2002300E0DB1E012606FA05F10E
:1006D000491E214099409E40761E16403143F0BC91
:1006E00000F0A8BC0CED00E0064900F00702086825
:1006F0004FF6FF03184040EA0220034A1043086007
:10070000704700000CED00E00000FA052DE9F0470D
:100710000E46050065D0DFF81481D8F80000F7B266
:1007200000F00700B04207D288F80070D8F8000047
:1007300000F00700B04254D128683D4C810712D523
:10074000400703D5206840F4E05020602878000777
:1007500003D5206840F4604020602068A96820F03C
:10076000F000084320602878C0072DD03049686821
:100770000839012812D0022813D0032811D00968A3
:10078000890700292DDA216821F003010143216046
:10079000FFF71AFF814641F2883A0EE009688903A3
:1007A000EFE709688901ECE7FFF70EFFA0EB09010D
:1007B000514502D90320BDE8F0872068696800F040
:1007C0000C00B0EB810FEFD1D8F80010404601F0DB
:1007D0000701B14207D90770006800F00700B04276
:1007E00001D00120E7E72878400705D52068E968AF
:1007F00020F4E050084320602878000706D52068E0
:10080000296920F4604040EAC100206000F038F817
:100810002168084AC1F30311515CC84006490860C9
:1008200006480068FFF7F8FE0020C4E7003C0240DD
:1008300008380240B61000080C0000200400002018
:100840000448054900680968044AC1F38221515CE3
:10085000C84070470C00002008380240C61000084D
:100860000448054900680968044AC1F34231515CF3
:10087000C84070470C00002008380240C61000082D
:10088000154810B5006810F00C02144813D0411040
:10089000042A0FD0082A0ED10F4C241F2268236887
:1008A00002F03F025B0207D52068C0F38810A0FB6E
:1008B000010106E0084610BD2168C1F38811A1FBC3
:1008C00000010023FFF77CFC2168C1F30141491CB2
:1008D0004900B0FBF1F010BD083802400024F400DC
:1008E0002DE9F84F04006ED02078DFF84C93C00754
:1008F000A9F104054AD009F104000168C1F381019E
:10090000012908D00068C0F3810002280AD1D9F873
:100910000000400206D52868800337D560680028AB
:10092000E1D033E06068B0F5803F10D0B0F5A02F83
:10093000286810D020F480302860286820F48020B7
:1009400028606068A8B1FFF73FFE06460DE0286802
:1009500040F48030F4E740F480202860F7E700BFDF
:10096000FFF732FE801B642873D828688003F7D510
:100970000CE0FFF729FE064605E000BFFFF724FE66
:10098000801B6428F0D828688003F7D42078DFF82B
:10099000AC8280074FF0000A3ED5A748001D0168D1
:1009A00011F00C0F08D00068C0F3810002280BD1B1
:1009B000D9F80000400207D42868800716D5E068FF
:1009C000012800D112E033E1E068B8B10120C8F895
:1009D0000000FFF7F9FD064605E000BFFFF7F4FD54
:1009E000801B0228C0D828688007F7D528682169AD
:1009F00020F0F80040EAC10028600DE0C8F800A02F
:100A0000FFF7E2FD064604E0FFF7DEFD801B02284B
:100A10001FD828688007F7D42078000722D5864F92
:100A200087486169703771B101210160FFF7CCFD22
:100A3000064604E0FFF7C8FD801B022809D8386885
:100A40008007F7D50EE0C0F800A0FFF7BDFD064611
:100A500005E082E0FFF7B8FD801B02287DD83868EA
:100A60008007F7D42078400768D5DFF8CCB100279D
:100A70000BF13C0BDBF80000C0000BD4DBF80010DE
:100A800041F08051CBF80010DBF80000012700F0A6
:100A9000805000906B4E3068C00510D4306840F430
:100AA00080703060FFF790FD009005E0FFF78CFD4F
:100AB0000099401A022850D83068C005F6D55E4E1D
:100AC000A0686C3601280FD00528306810D020F0BF
:100AD00001003060306820F004003060A068B8B1D8
:100AE000FFF772FD00900FE0306840F00100F4E77E
:100AF00040F004003060F7E7FFF766FD0099411A07
:100B000041F28830814266D830688007F4D50EE023
:100B1000FFF75AFD009007E0FFF756FD0099411AD4
:100B200041F28830814256D830688007F4D42FB122
:100B3000DBF8001021F08051CBF80010A069C8B399
:100B40003D49091D0968C1F3810102294AD00228E3
:100B5000504607D0C8F8600000E03CE0FFF734FDE5
:100B600004463BE04746C8F86000FFF72DFD064607
:100B700005E000BFFFF728FD801B02282BD828685E
:100B80008001F7D4D4E907010843A16A2E4A490835
:100B900002EB0141626A41EA8211084394F82C1089
:100BA00040EA0161C9F8001001203866FFF70CFD2A
:100BB000044606E03EE000BFFFF706FD001B0228EA
:100BC00009D828688001F7D534E000BFFFF7FCFCA6
:100BD000001B022802D90320BDE8F88F2868800195
:100BE000F4D427E00128F7D0D9F80000E26900F436
:100BF000800191421CD1226A00F03F01914217D13D
:100C000047F6C071626A0140B1EB821F10D1A26A3F
:100C10004FF0FF3300F4403103EB5202B1EB024FCF
:100C200006D194F82C1000F07060B0EB016F01D089
:100C30000120D1E70020CFE70438024000004742FE
:100C4000800E4742007000400000FFFF10B5401EBC
:100C5000B0F1807F01D3012010BD4FF0E02460612E
:100C60000F21601700F0E6F90020A0610720206145
:100C7000002010BD70B5040004D094F83D0000259C
:100C800010B106E0012070BD84F83C50204600F011
:100C900023F8242084F83D002068C16821F4005125
:100CA000C160204600F036F92068016921F49041C6
:100CB00001612068416921F02A0141612068C16811
:100CC00041F40051C1602564202084F83D0084F87F
:100CD0003E00002070BD000010B586B0044614210F
:100CE0006846FFF7A5FA14492068884221D11348C5
:100CF000016841F010010160006800F010000590EB
:100D00000E481438016841F001010160006869462D
:100D100000F0010005904FF4C060009002200190A7
:100D20000120029003200390072004900448FFF75D
:100D300043FB06B010BD00000010014044380240E3
:100D400000000240FEE700002DE9F04186B01421CA
:100D50006846FFF76DFA34484FF00008016841F02B
:100D600010010160016801F010010591016841F076
:100D700020010160016801F020010591016841F046
:100D800080010160016801F080010591016841F076
:100D9000010101600068254F00F001004FF48075EB
:100DA0000590002229463846FFF709FC4FF4C0663B
:100DB000012231463846FFF702FC1C2000901C48F7
:100DC0000124CDE9010469461A48FFF7F5FACDE997
:100DD000005402250295694638460395FFF7ECFA60
:100DE000CDE90064CDE9028569463846FFF7E4FAAB
:100DF000012211460820FFF757FC0820FFF746FCA8
:100E0000012211460920FFF74FFC0920FFF73EFCA5
:100E1000012211460A20FFF747FC0A20FFF736FCA3
:100E200006B0BDE8F08100003038024000140240F6
:100E300000002110001002400C4810B50A49016062
:100E40004FF4E1314160002181600C22C160C0E9B2
:100E500004128161C161FFF70DFF002803D0BDE8D6
:100E60001040FFF72CBA10BD001001401400002004
:100E7000FEE7704770477047FFF7ACBB30B593B0E3
:100E800030216846FFF7D4F914210CA8FFF7D0F9F8
:100E90001A480025016841F080510160006800F0A7
:100EA000805011901648016841F48041016000684B
:100EB000022400F480401190012000900004019071
:100EC0008001CDE90640082008904FF4A870CDE9D4
:100ED000090404200B906846FFF702FD0CA90F20BF
:100EE00081E831004FF4A0500F90E00210900521EE
:100EF0000CA8FFF70BFC13B030BD000040380240D7
:100F0000007000400248016841F4700101607047C0
:100F100088ED00E070B5044600680169E26821F4DC
:100F20004051114301612169A068E2690843616988
:100F3000114308432168CA6849F20C639A4302438B
:100F4000CA6020684169A26921F44071114341617E
:100F500031492068884202D03049884202D1FFF7E7
:100F60007FFC01E0FFF76CFCE26900231921642596
:100F70003226B2F5004F626828D0A0FB0101930F22
:100F80009200FFF71DF90146B0FBF5F06FF0180273
:100F9000504301EB800006EB0010B0FBF5F000F0D1
:100FA000F002B1FBF5F002EB0012B1FBF5F06FF0CF
:100FB0001803584301EB800006EB0010B0FBF5F07E
:100FC00000F00F0021681044886070BDA0FB010193
:100FD00092185B41FFF7F4F80146B0FBF5F002010F
:100FE000B1FBF5F06FF01803584301EB800006EBFE
:100FF000C000B0FBF5F000F0F80002EB4002B1FBDE
:10100000F5F0584301EB800006EBC000B0FBF5F0B3
:1010100000F00700D6E70000001001400014014076
:10102000FEE70000014A024900F023B895100008CD
:10103000100000200907090E002804DB00F1E02061
:1010400080F80014704700F00F0000F1E02080F8F5
:10105000141D704702E008C8121F08C1002AFAD107
:1010600070477047002001E001C1121F002AFBD128
:1010700070472DE9F04116460F460446002503E06F
:101080003946B047641C6D1C20780028F8D12846EA
:10109000BDE8F08102490A681206FCD54860704735
:1010A00000100140FFF79EFAFFF7E8FEFFF74CFE45
:1010B000FFF7C2FEFEE70000000000000000010292
:1010C00003040607080900000000010203040000F1
:1010D000F010000800000020140000005410000868
:1010E00004110008140000204404000064100008EB
:1010F0000100000010000000000000000024F400C7
:0411000000000000EB
:040000050800018965
:00000001FF
