:020000040800F2
:10000000580400209D010008F70D00088F0D00081E
:10001000F50D0008A9020008091000080000000002
:10002000000000000000000000000000FB0D0008C0
:10003000AB02000800000000F90D0008FD0D0008EB
:10004000B7010008B7010008B7010008B7010008B0
:10005000B7010008B7010008B7010008B7010008A0
:10006000B7010008B7010008B7010008B701000890
:10007000B7010008B7010008B7010008B701000880
:10008000B7010008B7010008B7010008B701000870
:10009000B7010008B7010008B7010008B701000860
:1000A000B7010008B7010008B7010008B701000850
:1000B000B7010008B7010008B7010008B701000840
:1000C000B7010008B7010008B7010008B701000830
:1000D000B7010008B7010008B7010008B701000820
:1000E000B7010008B7010008B7010008B701000810
:1000F000B7010008B7010008B7010008B701000800
:10010000B7010008B7010008B7010008B7010008EF
:10011000B7010008B7010008B7010008B7010008DF
:10012000B7010008B7010008B7010008B7010008CF
:10013000B7010008B7010008B7010008B7010008BF
:10014000B7010008B7010008B7010008B7010008AF
:10015000B7010008B7010008B7010008B70100089F
:10016000B7010008B7010008B7010008B70100088F
:10017000B7010008B7010008B7010008000000003F
:10018000B7010008B7010008DFF80CD000F07AF8DA
:1001900000480047491000085804002006488047DE
:1001A00006480047FEE7FEE7FEE7FEE7FEE7FEE75C
:1001B000FEE7FEE7FEE7FEE7890E0008890100087A
:1001C0002DE9F05F0546002092469B46884606468C
:1001D000814640241BE0284641464746224600F01F
:1001E00041F853465A46C01A914110D31146184659
:1001F000224600F028F82D1A67EB01084F462246E8
:100200000120002100F01FF817EB00094E41201ECD
:10021000A4F10104DFDC484631462A464346BDE8E6
:10022000F09FD2B201E000F8012B491EFBD27047CB
:100230000022F6E710B513460A4604461946FFF7B2
:10024000F0FF204610BD202A04DB203A00FA02F11C
:10025000002070479140C2F1200320FA03F31943B4
:1002600090407047202A04DB203A21FA02F0002156
:10027000704721FA02F3D040C2F1200291400843B6
:1002800019467047064C074D06E0E06840F0010350
:1002900094E8070098471034AC42F6D3FFF778FF94
:1002A000A4100008C4100008FEE770477047000063
:1002B00070B5044600F004F90546601C02D00448FD
:1002C0000078044400F0FCF8401BA042FAD370BD53
:1002D000000000202DE9F84FDFF8B8A10022012529
:1002E0000AF1040B03264FF00F090BF1040E00BFB7
:1002F0000B6805FA02F42340A3426FD10F7907F08F
:100300000307012F01D0022F16D187684FEA420858
:1003100006FA08FC27EA0C07D1F80CC00CFA08FC16
:100320004CEA070CC0F808C04768A7430C79C4F32F
:10033000001494403C4344600C79E443A4070AD081
:10034000C4684FEA420C06FA0CF7BC438F6807FA00
:100350000CF72743C7600C7904F00304022C12D178
:10036000D40800EB840CDCF820405707FF0E09FA94
:1003700007F824EA0804D1F8108008FA07F848EAD8
:100380000408CCF8208004684FEA420C06FA0CF707
:10039000BC430F7907F0030707FA0CF72743076000
:1003A0004C68E40070D53C4C276847F480472760D0
:1003B000246822F0030704F480440094374C07EBD0
:1003C000040CDCF8084897074FEA177809FA08F791
:1003D000BC43334FB84202D1002724E054E0314FF0
:1003E000B84201D101271EE02F4FB84201D10227A8
:1003F00019E02E4FB84201D1032714E02C4FB84228
:1004000001D104270FE02B4FB84201D105270AE0A4
:10041000294FB84201D1062705E0284FB84201D143
:10042000072700E0082707FA08F72743CCF80878E1
:10043000DAF800405746D1F804C09C435FEACC3C50
:1004400000D51C433C60DBF800405F46D1F804C097
:100450009C435FEA8C3C00D51C433C60DEF80040C6
:100460007746D1F804C09C435FEACC2C00D51C43EE
:100470003C60084F0C373C68D1F804C09C435FEAED
:100480008C2C00D51C433C60521C102AFFF430AF6A
:10049000BDE8F88F003C0140443802400030014084
:1004A000000002400004024000080240000C02402C
:1004B000001002400014024000180240001C0240DC
:1004C00001488068704700000000002002488168F1
:1004D0000278114481607047000000200B4810B57D
:1004E000016841F400710160016841F480610160BC
:1004F000016841F480710160032000F061F8002080
:1005000000F006F800F024F8002010BD003C024086
:1005100070B50D4D04464FF47A712878B1FBF0F0B8
:100520000A490968B1FBF0F000F0FCFA48B9102C58
:1005300007D200222146501E00F022F800206C60F5
:1005400070BD012070BD0000000000200C000020E4
:100550000A4808B5016841F480410160006800F470
:10056000804000900548001F016841F08051016003
:10057000006800F08050009008BD00004438024040
:10058000F0B40E4B1B680C46C3F30223C3F10705FE
:10059000042D00D90425191D072901D2002300E0EC
:1005A000DB1E012606FA05F1491E214099409E40B6
:1005B000761E16403143F0BC00F027BD0CED00E084
:1005C000064900F0070208684FF6FF03184040EAAA
:1005D0000220034A10430860704700000CED00E061
:1005E0000000FA052DE9F0470E46050065D0DFF85A
:1005F0001481D8F80000F7B200F00700B04207D22B
:1006000088F80070D8F8000000F00700B04254D11C
:1006100028683D4C810712D5400703D5206840F477
:10062000E05020602878000703D5206840F460403F
:1006300020602068A96820F0F00008432060287836
:10064000C0072DD0304968680839012812D0022827
:1006500013D0032811D00968890700292DDA2168F1
:1006600021F0030101432160FFF72AFF814641F297
:10067000883A0EE009688903EFE709688901ECE729
:10068000FFF71EFFA0EB0901514502D90320BDE889
:10069000F0872068696800F00C00B0EB810FEFD1A3
:1006A000D8F80010404601F00701B14207D90770A1
:1006B000006800F00700B04201D00120E7E7287889
:1006C000400705D52068E96820F4E0500843206021
:1006D0002878000706D52068296920F4604040EAA0
:1006E000C100206000F038F82168084AC1F3031106
:1006F000515CC8400649086006480068FFF708FFDB
:100700000020C4E7003C0240083802408C1000087A
:100710000C00002004000020044805490068096816
:10072000044AC1F38221515CC84070470C0000208C
:10073000083802409C100008044805490068096810
:10074000044AC1F34231515CC84070470C0000209C
:10075000083802409C100008154810B5006810F0D9
:100760000C02144813D04110042A0FD0082A0ED1CD
:100770000F4C241F2268236802F03F025B0207D55A
:100780002068C0F38810A0FB010106E0084610BDF8
:100790002168C1F38811A1FB00010023FFF710FDC0
:1007A0002168C1F30141491C4900B0FBF1F010BDC3
:1007B000083802400024F4002DE9F84F04006ED000
:1007C0002078DFF84C93C007A9F104054AD009F15D
:1007D00004000168C1F38101012908D00068C0F359
:1007E000810002280AD1D9F80000400206D5286805
:1007F000800337D560680028E1D033E06068B0F549
:10080000803F10D0B0F5A02F286810D020F48030A1
:100810002860286820F4802028606068A8B1FFF76D
:100820004FFE06460DE0286840F48030F4E740F4BF
:1008300080202860F7E700BFFFF742FE801B642896
:1008400073D828688003F7D50CE0FFF739FE064619
:1008500005E000BFFFF734FE801B6428F0D828684D
:100860008003F7D42078DFF8AC8280074FF0000ACD
:100870003ED5A748001D016811F00C0F08D0006894
:10088000C0F3810002280BD1D9F80000400207D440
:100890002868800716D5E068012800D112E033E10E
:1008A000E068B8B10120C8F80000FFF709FE06466D
:1008B00005E000BFFFF704FE801B0228C0D82868AF
:1008C0008007F7D52868216920F0F80040EAC100C8
:1008D00028600DE0C8F800A0FFF7F2FD064604E02E
:1008E000FFF7EEFD801B02281FD828688007F7D489
:1008F0002078000722D5864F87486169703771B12B
:1009000001210160FFF7DCFD064604E0FFF7D8FD9A
:10091000801B022809D838688007F7D50EE0C0F898
:1009200000A0FFF7CDFD064605E082E0FFF7C8FD19
:10093000801B02287DD838688007F7D420784007CC
:1009400068D5DFF8CCB100270BF13C0BDBF80000D9
:10095000C0000BD4DBF8001041F08051CBF8001040
:10096000DBF80000012700F0805000906B4E3068EB
:10097000C00510D4306840F480703060FFF7A0FDEF
:10098000009005E0FFF79CFD0099401A022850D81E
:100990003068C005F6D55E4EA0686C3601280FD0D1
:1009A0000528306810D020F001003060306820F059
:1009B00004003060A068B8B1FFF782FD00900FE03E
:1009C000306840F00100F4E740F004003060F7E7E1
:1009D000FFF776FD0099411A41F28830814266D8CE
:1009E00030688007F4D50EE0FFF76AFD009007E05D
:1009F000FFF766FD0099411A41F28830814256D8CE
:100A000030688007F4D42FB1DBF8001021F080515A
:100A1000CBF80010A069C8B33D49091D0968C1F3AE
:100A2000810102294AD00228504607D0C8F8600048
:100A300000E03CE0FFF744FD04463BE04746C8F8D1
:100A40006000FFF73DFD064605E000BFFFF738FDFB
:100A5000801B02282BD828688001F7D4D4E907012D
:100A60000843A16A2E4A490802EB0141626A41EA41
:100A70008211084394F82C1040EA0161C9F8001073
:100A800001203866FFF71CFD044606E03EE000BF8B
:100A9000FFF716FD001B022809D828688001F7D54A
:100AA00034E000BFFFF70CFD001B022802D9032031
:100AB000BDE8F88F28688001F4D427E00128F7D03A
:100AC000D9F80000E26900F4800191421CD1226A49
:100AD00000F03F01914217D147F6C071626A0140B0
:100AE000B1EB821F10D1A26A4FF0FF3300F4403106
:100AF00003EB5202B1EB024F06D194F82C1000F038
:100B00007060B0EB016F01D00120D1E70020CFE78A
:100B10000438024000004742800E47420070004007
:100B20000000FFFF10B5401EB0F1807F01D301200F
:100B300010BD4FF0E02460610F21601700F065FAEE
:100B40000020A06107202061002010BD70B50400C6
:100B500004D094F83D00002510B106E0012070BDDE
:100B600084F83C50204600F023F8242084F83D000F
:100B70002068C16821F40051C160204600F08CF962
:100B80002068016921F4904101612068416921F0E8
:100B90002A0141612068C16841F40051C1602564A7
:100BA000202084F83D0084F83E00002070BD000045
:100BB00010B586B0044614216846FFF739FB144986
:100BC0002068884221D11348016841F0100101607A
:100BD000006800F0100005900E481438016841F0DC
:100BE000010101600068694600F0010005904FF4C2
:100BF000C060009002200190012002900320039029
:100C0000072004900448FFF765FB06B010BD000004
:100C10000010014044380240000002402DE9F84F26
:100C2000044690F83E009A4616460D46202853D1B9
:100C3000FDB1F6B194F83C0001284DD0012084F8B4
:100C40003C0000272764222084F83E002763FFF73A
:100C500037FCA6858146E685A0684FF4805840455C
:100C600001D1206940B12E465FF0000584F83C7048
:100C700027E00120BDE8F88F0026F7E74B46002269
:100C800020212046CDF800A000F08CF908B1032007
:100C9000F0E726B1A06840451BD038B108E02068D5
:100CA0004068C0F3080025F8020B07E0206980B116
:100CB0002068406800F07F0006F8010BE08D401EC0
:100CC000E085E08D0028D9D1202084F83E00002066
:100CD000D0E720684068EFE70220CBE72DE9F84332
:100CE000044690F83D001F4616460D4620284CD17C
:100CF000C5B1BEB194F83C00012846D0012084F86B
:100D00003C004FF00008C4F84080212084F83D00EA
:100D1000FFF7D6FBA6848146E684A068B0F5805F25
:100D200003D004E00120BDE8F883206928B12E46F5
:100D30005FF0000584F83C800EE00026FAE7802191
:100D4000204600F02FF9A0B9AEB116F8010B2168CA
:100D50004860E08C401EE084E08C4B464FF000027F
:100D600000970028EBD14FF04001204600F01AF91F
:100D700030B10320D7E735F8020BC0F30800E6E7EF
:100D8000202084F83D000020CDE70220CBE7FEE7DD
:100D9000094808B5016841F080010160016801F06F
:100DA00080010091016841F001010160006800F0DC
:100DB0000100009008BD0000303802400C4810B51A
:100DC0000A4901604FF4E1314160002181600C2249
:100DD000C160C0E904128161C161FFF7B7FE00285C
:100DE00003D0BDE81040FFF761BA10BD001001400C
:100DF00010000020FEE7704770477047FFF766BBA2
:100E000030B593B030216846FFF712FA14210CA8D0
:100E1000FFF70EFA1A480025016841F08051016081
:100E2000006800F0805011901648016841F480413C
:100E300001600068022400F48040119001200090BD
:100E4000000401908001CDE90640082008904FF48D
:100E5000A870CDE9090404200B906846FFF7ACFCAC
:100E60000CA90F2081E831004FF4A0500F90E00250
:100E7000109005210CA8FFF7B5FB13B030BD0000A2
:100E800040380240007000400248016841F470019F
:100E90000160704788ED00E070B5044600680169A4
:100EA000E26821F44051114301612169A068E269BF
:100EB00008436169114308432168CA6849F20C6319
:100EC0009A430243CA6020684169A26921F44071D3
:100ED0001143416131492068884202D0304988423B
:100EE00002D1FFF729FC01E0FFF716FCE2690023BD
:100EF000192164253226B2F5004F626828D0A0FB84
:100F00000101930F9200FFF75BF90146B0FBF5F08A
:100F10006FF01802504301EB800006EB0010B0FBAD
:100F2000F5F000F0F002B1FBF5F002EB0012B1FBBE
:100F3000F5F06FF01803584301EB800006EB00104A
:100F4000B0FBF5F000F00F0021681044886070BD20
:100F5000A0FB010192185B41FFF732F90146B0FB9B
:100F6000F5F00201B1FBF5F06FF01803584301EB07
:100F7000800006EBC000B0FBF5F000F0F80002EBDB
:100F80004002B1FBF5F0584301EB800006EBC000D6
:100F9000B0FBF5F000F00700D6E7000000100140BC
:100FA000001401402DE9F041984617460E460446CC
:100FB000069D1DE0681C1BD02DB1FFF781FAA0EB48
:100FC0000800A84214D92068C16821F4D071C1601A
:100FD0002068416921F001014161202084F83D0031
:100FE00084F83E00002084F83C000320BDE8F08136
:100FF0002068006836EA000004D00020B842D9D04A
:101000000020F3E70120F9E7FEE70907090E0028B1
:1010100004DB00F1E02080F80014704700F00F00BE
:1010200000F1E02080F8141D704702E008C8121F8C
:1010300008C1002AFAD170477047002001E001C1C1
:10104000121F002AFBD1704786B014216846FFF7B3
:10105000EFF8FFF743FAFFF7D3FEFFF799FEFFF72C
:10106000ADFE4FF47A742346102269460648FFF716
:10107000D5FD6420FFF71CF923461022694602487B
:10108000FFF72CFEEFE7000010000020000000003A
:101090000000000001020304060708090000000028
:1010A00001020304C410000800000020100000002A
:1010B0002A100008D4100008100000204804000086
:1010C0003A100008010000001000000000000000BD
:0410D0000024F40004
:040000050800018965
:00000001FF
